{
	"youtube-course/store.sol": {
		"Store": {
			"abi": [
				{
					"inputs": [
						{
							"internalType": "address",
							"name": "initialOwner",
							"type": "address"
						}
					],
					"stateMutability": "nonpayable",
					"type": "constructor"
				},
				{
					"inputs": [],
					"name": "IdAlreadyExist",
					"type": "error"
				},
				{
					"inputs": [],
					"name": "IdDoesNotExist",
					"type": "error"
				},
				{
					"inputs": [],
					"name": "IncorrectDiscount",
					"type": "error"
				},
				{
					"inputs": [],
					"name": "NoMoney",
					"type": "error"
				},
				{
					"inputs": [],
					"name": "NotEnoughFunds",
					"type": "error"
				},
				{
					"inputs": [],
					"name": "NotEnoughProducts",
					"type": "error"
				},
				{
					"inputs": [],
					"name": "OutOfStock",
					"type": "error"
				},
				{
					"inputs": [
						{
							"internalType": "address",
							"name": "owner",
							"type": "address"
						}
					],
					"name": "OwnableInvalidOwner",
					"type": "error"
				},
				{
					"inputs": [
						{
							"internalType": "address",
							"name": "account",
							"type": "address"
						}
					],
					"name": "OwnableUnauthorizedAccount",
					"type": "error"
				},
				{
					"inputs": [],
					"name": "WrongBatchStructure",
					"type": "error"
				},
				{
					"inputs": [],
					"name": "ZeroQuantity",
					"type": "error"
				},
				{
					"anonymous": false,
					"inputs": [
						{
							"indexed": true,
							"internalType": "address",
							"name": "previousOwner",
							"type": "address"
						},
						{
							"indexed": true,
							"internalType": "address",
							"name": "newOwner",
							"type": "address"
						}
					],
					"name": "OwnershipTransferred",
					"type": "event"
				},
				{
					"anonymous": false,
					"inputs": [
						{
							"indexed": false,
							"internalType": "address",
							"name": "_buyer",
							"type": "address"
						},
						{
							"indexed": false,
							"internalType": "uint256",
							"name": "_id",
							"type": "uint256"
						},
						{
							"indexed": false,
							"internalType": "uint256",
							"name": "_quantity",
							"type": "uint256"
						}
					],
					"name": "Purchase",
					"type": "event"
				},
				{
					"anonymous": false,
					"inputs": [
						{
							"indexed": false,
							"internalType": "address",
							"name": "_refounder",
							"type": "address"
						},
						{
							"indexed": false,
							"internalType": "uint256",
							"name": "_id",
							"type": "uint256"
						},
						{
							"indexed": false,
							"internalType": "uint256",
							"name": "_quantity",
							"type": "uint256"
						}
					],
					"name": "Refund",
					"type": "event"
				},
				{
					"inputs": [
						{
							"internalType": "string",
							"name": "_code",
							"type": "string"
						},
						{
							"internalType": "uint256",
							"name": "_discount",
							"type": "uint256"
						}
					],
					"name": "addDiscountCode",
					"outputs": [],
					"stateMutability": "nonpayable",
					"type": "function"
				},
				{
					"inputs": [
						{
							"internalType": "string",
							"name": "_name",
							"type": "string"
						},
						{
							"internalType": "uint256",
							"name": "_id",
							"type": "uint256"
						},
						{
							"internalType": "uint256",
							"name": "_stock",
							"type": "uint256"
						},
						{
							"internalType": "uint256",
							"name": "_price",
							"type": "uint256"
						}
					],
					"name": "addProduct",
					"outputs": [],
					"stateMutability": "nonpayable",
					"type": "function"
				},
				{
					"inputs": [
						{
							"internalType": "uint256[]",
							"name": "_ids",
							"type": "uint256[]"
						},
						{
							"internalType": "uint256[]",
							"name": "_quantities",
							"type": "uint256[]"
						},
						{
							"internalType": "string",
							"name": "_discountCode",
							"type": "string"
						}
					],
					"name": "batchBuy",
					"outputs": [],
					"stateMutability": "payable",
					"type": "function"
				},
				{
					"inputs": [
						{
							"internalType": "uint256",
							"name": "_id",
							"type": "uint256"
						},
						{
							"internalType": "uint256",
							"name": "_quantity",
							"type": "uint256"
						},
						{
							"internalType": "string",
							"name": "_discountCode",
							"type": "string"
						}
					],
					"name": "buy",
					"outputs": [],
					"stateMutability": "payable",
					"type": "function"
				},
				{
					"inputs": [
						{
							"internalType": "uint256",
							"name": "_id",
							"type": "uint256"
						}
					],
					"name": "deleteProduct",
					"outputs": [],
					"stateMutability": "nonpayable",
					"type": "function"
				},
				{
					"inputs": [
						{
							"internalType": "string",
							"name": "",
							"type": "string"
						}
					],
					"name": "discountCodes",
					"outputs": [
						{
							"internalType": "uint256",
							"name": "",
							"type": "uint256"
						}
					],
					"stateMutability": "view",
					"type": "function"
				},
				{
					"inputs": [
						{
							"internalType": "uint256",
							"name": "_id",
							"type": "uint256"
						}
					],
					"name": "getPrice",
					"outputs": [
						{
							"internalType": "uint256",
							"name": "",
							"type": "uint256"
						}
					],
					"stateMutability": "view",
					"type": "function"
				},
				{
					"inputs": [],
					"name": "getProducts",
					"outputs": [
						{
							"components": [
								{
									"internalType": "string",
									"name": "name",
									"type": "string"
								},
								{
									"internalType": "uint256",
									"name": "id",
									"type": "uint256"
								},
								{
									"internalType": "uint256",
									"name": "stock",
									"type": "uint256"
								},
								{
									"internalType": "uint256",
									"name": "price",
									"type": "uint256"
								}
							],
							"internalType": "struct Store.Product[]",
							"name": "",
							"type": "tuple[]"
						}
					],
					"stateMutability": "view",
					"type": "function"
				},
				{
					"inputs": [
						{
							"internalType": "uint256",
							"name": "_id",
							"type": "uint256"
						}
					],
					"name": "getStock",
					"outputs": [
						{
							"internalType": "uint256",
							"name": "",
							"type": "uint256"
						}
					],
					"stateMutability": "view",
					"type": "function"
				},
				{
					"inputs": [],
					"name": "getTopSelling",
					"outputs": [
						{
							"internalType": "uint256[3]",
							"name": "",
							"type": "uint256[3]"
						}
					],
					"stateMutability": "view",
					"type": "function"
				},
				{
					"inputs": [],
					"name": "getTotalRevenue",
					"outputs": [
						{
							"internalType": "uint256",
							"name": "",
							"type": "uint256"
						}
					],
					"stateMutability": "view",
					"type": "function"
				},
				{
					"inputs": [
						{
							"internalType": "address",
							"name": "_userAddress",
							"type": "address"
						}
					],
					"name": "getUserPurchase",
					"outputs": [
						{
							"internalType": "uint256",
							"name": "",
							"type": "uint256"
						}
					],
					"stateMutability": "view",
					"type": "function"
				},
				{
					"inputs": [],
					"name": "owner",
					"outputs": [
						{
							"internalType": "address",
							"name": "",
							"type": "address"
						}
					],
					"stateMutability": "view",
					"type": "function"
				},
				{
					"inputs": [
						{
							"internalType": "uint256",
							"name": "",
							"type": "uint256"
						}
					],
					"name": "productPurchase",
					"outputs": [
						{
							"internalType": "uint256",
							"name": "",
							"type": "uint256"
						}
					],
					"stateMutability": "view",
					"type": "function"
				},
				{
					"inputs": [
						{
							"internalType": "uint256",
							"name": "_id",
							"type": "uint256"
						},
						{
							"internalType": "uint256",
							"name": "_quantity",
							"type": "uint256"
						}
					],
					"name": "refund",
					"outputs": [],
					"stateMutability": "nonpayable",
					"type": "function"
				},
				{
					"inputs": [],
					"name": "renounceOwnership",
					"outputs": [],
					"stateMutability": "nonpayable",
					"type": "function"
				},
				{
					"inputs": [
						{
							"internalType": "address",
							"name": "newOwner",
							"type": "address"
						}
					],
					"name": "transferOwnership",
					"outputs": [],
					"stateMutability": "nonpayable",
					"type": "function"
				},
				{
					"inputs": [
						{
							"internalType": "uint256",
							"name": "_id",
							"type": "uint256"
						},
						{
							"internalType": "uint256",
							"name": "_price",
							"type": "uint256"
						}
					],
					"name": "updatePrice",
					"outputs": [],
					"stateMutability": "nonpayable",
					"type": "function"
				},
				{
					"inputs": [
						{
							"internalType": "uint256",
							"name": "_id",
							"type": "uint256"
						},
						{
							"internalType": "uint256",
							"name": "_stock",
							"type": "uint256"
						}
					],
					"name": "updateStock",
					"outputs": [],
					"stateMutability": "nonpayable",
					"type": "function"
				},
				{
					"inputs": [
						{
							"internalType": "address",
							"name": "",
							"type": "address"
						},
						{
							"internalType": "uint256",
							"name": "",
							"type": "uint256"
						}
					],
					"name": "userPurchase",
					"outputs": [
						{
							"internalType": "uint256",
							"name": "",
							"type": "uint256"
						}
					],
					"stateMutability": "view",
					"type": "function"
				},
				{
					"inputs": [],
					"name": "withdraw",
					"outputs": [],
					"stateMutability": "nonpayable",
					"type": "function"
				}
			],
			"devdoc": {
				"errors": {
					"OwnableInvalidOwner(address)": [
						{
							"details": "The owner is not a valid owner account. (eg. `address(0)`)"
						}
					],
					"OwnableUnauthorizedAccount(address)": [
						{
							"details": "The caller account is not authorized to perform an operation."
						}
					]
				},
				"kind": "dev",
				"methods": {
					"owner()": {
						"details": "Returns the address of the current owner."
					},
					"renounceOwnership()": {
						"details": "Leaves the contract without owner. It will not be possible to call `onlyOwner` functions. Can only be called by the current owner. NOTE: Renouncing ownership will leave the contract without an owner, thereby disabling any functionality that is only available to the owner."
					},
					"transferOwnership(address)": {
						"details": "Transfers ownership of the contract to a new account (`newOwner`). Can only be called by the current owner."
					}
				},
				"version": 1
			},
			"evm": {
				"assembly": "    /* \"youtube-course/store.sol\":127:7759  contract Store is Ownable {... */\n  mstore(0x40, 0x80)\n    /* \"youtube-course/store.sol\":1030:1088  constructor(address initialOwner) Ownable(initialOwner) {} */\n  callvalue\n  dup1\n  iszero\n  tag_1\n  jumpi\n  0x00\n  dup1\n  revert\ntag_1:\n  pop\n  mload(0x40)\n  sub(codesize, bytecodeSize)\n  dup1\n  bytecodeSize\n  dup4\n  codecopy\n  dup2\n  dup2\n  add\n  0x40\n  mstore\n  dup2\n  add\n  swap1\n  tag_2\n  swap2\n  swap1\n  tag_3\n  jump\t// in\ntag_2:\n    /* \"youtube-course/store.sol\":1072:1084  initialOwner */\n  dup1\n    /* \"@openzeppelin/contracts/access/Ownable.sol\":1297:1298  0 */\n  0x00\n    /* \"@openzeppelin/contracts/access/Ownable.sol\":1273:1299  initialOwner == address(0) */\n  0xffffffffffffffffffffffffffffffffffffffff\n  and\n    /* \"@openzeppelin/contracts/access/Ownable.sol\":1273:1285  initialOwner */\n  dup2\n    /* \"@openzeppelin/contracts/access/Ownable.sol\":1273:1299  initialOwner == address(0) */\n  0xffffffffffffffffffffffffffffffffffffffff\n  and\n  sub\n    /* \"@openzeppelin/contracts/access/Ownable.sol\":1269:1364  if (initialOwner == address(0)) {... */\n  tag_7\n  jumpi\n    /* \"@openzeppelin/contracts/access/Ownable.sol\":1350:1351  0 */\n  0x00\n    /* \"@openzeppelin/contracts/access/Ownable.sol\":1322:1353  OwnableInvalidOwner(address(0)) */\n  mload(0x40)\n  0x1e4fbdf700000000000000000000000000000000000000000000000000000000\n  dup2\n  mstore\n  0x04\n  add\n  tag_8\n  swap2\n  swap1\n  tag_9\n  jump\t// in\ntag_8:\n  mload(0x40)\n  dup1\n  swap2\n  sub\n  swap1\n  revert\n    /* \"@openzeppelin/contracts/access/Ownable.sol\":1269:1364  if (initialOwner == address(0)) {... */\ntag_7:\n    /* \"@openzeppelin/contracts/access/Ownable.sol\":1373:1405  _transferOwnership(initialOwner) */\n  tag_10\n    /* \"@openzeppelin/contracts/access/Ownable.sol\":1392:1404  initialOwner */\n  dup2\n    /* \"@openzeppelin/contracts/access/Ownable.sol\":1373:1391  _transferOwnership */\n  shl(0x20, tag_11)\n    /* \"@openzeppelin/contracts/access/Ownable.sol\":1373:1405  _transferOwnership(initialOwner) */\n  0x20\n  shr\n  jump\t// in\ntag_10:\n    /* \"@openzeppelin/contracts/access/Ownable.sol\":1225:1412  constructor(address initialOwner) {... */\n  pop\n    /* \"youtube-course/store.sol\":1030:1088  constructor(address initialOwner) Ownable(initialOwner) {} */\n  pop\n    /* \"youtube-course/store.sol\":127:7759  contract Store is Ownable {... */\n  jump(tag_13)\n    /* \"@openzeppelin/contracts/access/Ownable.sol\":2912:3099  function _transferOwnership(address newOwner) internal virtual {... */\ntag_11:\n    /* \"@openzeppelin/contracts/access/Ownable.sol\":2985:3001  address oldOwner */\n  0x00\n    /* \"@openzeppelin/contracts/access/Ownable.sol\":3004:3010  _owner */\n  dup1\n  0x00\n  swap1\n  sload\n  swap1\n  0x0100\n  exp\n  swap1\n  div\n  0xffffffffffffffffffffffffffffffffffffffff\n  and\n    /* \"@openzeppelin/contracts/access/Ownable.sol\":2985:3010  address oldOwner = _owner */\n  swap1\n  pop\n    /* \"@openzeppelin/contracts/access/Ownable.sol\":3029:3037  newOwner */\n  dup2\n    /* \"@openzeppelin/contracts/access/Ownable.sol\":3020:3026  _owner */\n  0x00\n  dup1\n    /* \"@openzeppelin/contracts/access/Ownable.sol\":3020:3037  _owner = newOwner */\n  0x0100\n  exp\n  dup2\n  sload\n  dup2\n  0xffffffffffffffffffffffffffffffffffffffff\n  mul\n  not\n  and\n  swap1\n  dup4\n  0xffffffffffffffffffffffffffffffffffffffff\n  and\n  mul\n  or\n  swap1\n  sstore\n  pop\n    /* \"@openzeppelin/contracts/access/Ownable.sol\":3083:3091  newOwner */\n  dup2\n    /* \"@openzeppelin/contracts/access/Ownable.sol\":3052:3092  OwnershipTransferred(oldOwner, newOwner) */\n  0xffffffffffffffffffffffffffffffffffffffff\n  and\n    /* \"@openzeppelin/contracts/access/Ownable.sol\":3073:3081  oldOwner */\n  dup2\n    /* \"@openzeppelin/contracts/access/Ownable.sol\":3052:3092  OwnershipTransferred(oldOwner, newOwner) */\n  0xffffffffffffffffffffffffffffffffffffffff\n  and\n  0x8be0079c531659141344cd1fd0a4f28419497f9722a3daafe3b4186f6b6457e0\n  mload(0x40)\n  mload(0x40)\n  dup1\n  swap2\n  sub\n  swap1\n  log3\n    /* \"@openzeppelin/contracts/access/Ownable.sol\":2975:3099  {... */\n  pop\n    /* \"@openzeppelin/contracts/access/Ownable.sol\":2912:3099  function _transferOwnership(address newOwner) internal virtual {... */\n  pop\n  jump\t// out\n    /* \"#utility.yul\":88:205   */\ntag_16:\n    /* \"#utility.yul\":197:198   */\n  0x00\n    /* \"#utility.yul\":194:195   */\n  dup1\n    /* \"#utility.yul\":187:199   */\n  revert\n    /* \"#utility.yul\":334:460   */\ntag_18:\n    /* \"#utility.yul\":371:378   */\n  0x00\n    /* \"#utility.yul\":411:453   */\n  0xffffffffffffffffffffffffffffffffffffffff\n    /* \"#utility.yul\":404:409   */\n  dup3\n    /* \"#utility.yul\":400:454   */\n  and\n    /* \"#utility.yul\":389:454   */\n  swap1\n  pop\n    /* \"#utility.yul\":334:460   */\n  swap2\n  swap1\n  pop\n  jump\t// out\n    /* \"#utility.yul\":466:562   */\ntag_19:\n    /* \"#utility.yul\":503:510   */\n  0x00\n    /* \"#utility.yul\":532:556   */\n  tag_29\n    /* \"#utility.yul\":550:555   */\n  dup3\n    /* \"#utility.yul\":532:556   */\n  tag_18\n  jump\t// in\ntag_29:\n    /* \"#utility.yul\":521:556   */\n  swap1\n  pop\n    /* \"#utility.yul\":466:562   */\n  swap2\n  swap1\n  pop\n  jump\t// out\n    /* \"#utility.yul\":568:690   */\ntag_20:\n    /* \"#utility.yul\":641:665   */\n  tag_31\n    /* \"#utility.yul\":659:664   */\n  dup2\n    /* \"#utility.yul\":641:665   */\n  tag_19\n  jump\t// in\ntag_31:\n    /* \"#utility.yul\":634:639   */\n  dup2\n    /* \"#utility.yul\":631:666   */\n  eq\n    /* \"#utility.yul\":621:684   */\n  tag_32\n  jumpi\n    /* \"#utility.yul\":680:681   */\n  0x00\n    /* \"#utility.yul\":677:678   */\n  dup1\n    /* \"#utility.yul\":670:682   */\n  revert\n    /* \"#utility.yul\":621:684   */\ntag_32:\n    /* \"#utility.yul\":568:690   */\n  pop\n  jump\t// out\n    /* \"#utility.yul\":696:839   */\ntag_21:\n    /* \"#utility.yul\":753:758   */\n  0x00\n    /* \"#utility.yul\":784:790   */\n  dup2\n    /* \"#utility.yul\":778:791   */\n  mload\n    /* \"#utility.yul\":769:791   */\n  swap1\n  pop\n    /* \"#utility.yul\":800:833   */\n  tag_34\n    /* \"#utility.yul\":827:832   */\n  dup2\n    /* \"#utility.yul\":800:833   */\n  tag_20\n  jump\t// in\ntag_34:\n    /* \"#utility.yul\":696:839   */\n  swap3\n  swap2\n  pop\n  pop\n  jump\t// out\n    /* \"#utility.yul\":845:1196   */\ntag_3:\n    /* \"#utility.yul\":915:921   */\n  0x00\n    /* \"#utility.yul\":964:966   */\n  0x20\n    /* \"#utility.yul\":952:961   */\n  dup3\n    /* \"#utility.yul\":943:950   */\n  dup5\n    /* \"#utility.yul\":939:962   */\n  sub\n    /* \"#utility.yul\":935:967   */\n  slt\n    /* \"#utility.yul\":932:1051   */\n  iszero\n  tag_36\n  jumpi\n    /* \"#utility.yul\":970:1049   */\n  tag_37\n  tag_16\n  jump\t// in\ntag_37:\n    /* \"#utility.yul\":932:1051   */\ntag_36:\n    /* \"#utility.yul\":1090:1091   */\n  0x00\n    /* \"#utility.yul\":1115:1179   */\n  tag_38\n    /* \"#utility.yul\":1171:1178   */\n  dup5\n    /* \"#utility.yul\":1162:1168   */\n  dup3\n    /* \"#utility.yul\":1151:1160   */\n  dup6\n    /* \"#utility.yul\":1147:1169   */\n  add\n    /* \"#utility.yul\":1115:1179   */\n  tag_21\n  jump\t// in\ntag_38:\n    /* \"#utility.yul\":1105:1179   */\n  swap2\n  pop\n    /* \"#utility.yul\":1061:1189   */\n  pop\n    /* \"#utility.yul\":845:1196   */\n  swap3\n  swap2\n  pop\n  pop\n  jump\t// out\n    /* \"#utility.yul\":1202:1320   */\ntag_22:\n    /* \"#utility.yul\":1289:1313   */\n  tag_40\n    /* \"#utility.yul\":1307:1312   */\n  dup2\n    /* \"#utility.yul\":1289:1313   */\n  tag_19\n  jump\t// in\ntag_40:\n    /* \"#utility.yul\":1284:1287   */\n  dup3\n    /* \"#utility.yul\":1277:1314   */\n  mstore\n    /* \"#utility.yul\":1202:1320   */\n  pop\n  pop\n  jump\t// out\n    /* \"#utility.yul\":1326:1548   */\ntag_9:\n    /* \"#utility.yul\":1419:1423   */\n  0x00\n    /* \"#utility.yul\":1457:1459   */\n  0x20\n    /* \"#utility.yul\":1446:1455   */\n  dup3\n    /* \"#utility.yul\":1442:1460   */\n  add\n    /* \"#utility.yul\":1434:1460   */\n  swap1\n  pop\n    /* \"#utility.yul\":1470:1541   */\n  tag_42\n    /* \"#utility.yul\":1538:1539   */\n  0x00\n    /* \"#utility.yul\":1527:1536   */\n  dup4\n    /* \"#utility.yul\":1523:1540   */\n  add\n    /* \"#utility.yul\":1514:1520   */\n  dup5\n    /* \"#utility.yul\":1470:1541   */\n  tag_22\n  jump\t// in\ntag_42:\n    /* \"#utility.yul\":1326:1548   */\n  swap3\n  swap2\n  pop\n  pop\n  jump\t// out\n    /* \"youtube-course/store.sol\":127:7759  contract Store is Ownable {... */\ntag_13:\n  dataSize(sub_0)\n  dup1\n  dataOffset(sub_0)\n  0x00\n  codecopy\n  0x00\n  return\nstop\n\nsub_0: assembly {\n        /* \"youtube-course/store.sol\":127:7759  contract Store is Ownable {... */\n      mstore(0x40, 0x80)\n      jumpi(tag_1, lt(calldatasize, 0x04))\n      shr(0xe0, calldataload(0x00))\n      dup1\n      0x82367b2d\n      gt\n      tag_23\n      jumpi\n      dup1\n      0x9dfc3dd1\n      gt\n      tag_24\n      jumpi\n      dup1\n      0x9dfc3dd1\n      eq\n      tag_17\n      jumpi\n      dup1\n      0xbda235da\n      eq\n      tag_18\n      jumpi\n      dup1\n      0xc29b2f20\n      eq\n      tag_19\n      jumpi\n      dup1\n      0xe7572230\n      eq\n      tag_20\n      jumpi\n      dup1\n      0xed90c7b7\n      eq\n      tag_21\n      jumpi\n      dup1\n      0xf2fde38b\n      eq\n      tag_22\n      jumpi\n      jump(tag_1)\n    tag_24:\n      dup1\n      0x82367b2d\n      eq\n      tag_12\n      jumpi\n      dup1\n      0x8da5cb5b\n      eq\n      tag_13\n      jumpi\n      dup1\n      0x957fae96\n      eq\n      tag_14\n      jumpi\n      dup1\n      0x99331fdf\n      eq\n      tag_15\n      jumpi\n      dup1\n      0x994983ad\n      eq\n      tag_16\n      jumpi\n      jump(tag_1)\n    tag_23:\n      dup1\n      0x3df50e82\n      gt\n      tag_25\n      jumpi\n      dup1\n      0x3df50e82\n      eq\n      tag_7\n      jumpi\n      dup1\n      0x41b980a6\n      eq\n      tag_8\n      jumpi\n      dup1\n      0x5af36e3e\n      eq\n      tag_9\n      jumpi\n      dup1\n      0x6038d0cf\n      eq\n      tag_10\n      jumpi\n      dup1\n      0x715018a6\n      eq\n      tag_11\n      jumpi\n      jump(tag_1)\n    tag_25:\n      dup1\n      0x094455c4\n      eq\n      tag_2\n      jumpi\n      dup1\n      0x1a3764d2\n      eq\n      tag_3\n      jumpi\n      dup1\n      0x1a5bf973\n      eq\n      tag_4\n      jumpi\n      dup1\n      0x3ab7d09a\n      eq\n      tag_5\n      jumpi\n      dup1\n      0x3ccfd60b\n      eq\n      tag_6\n      jumpi\n    tag_1:\n      0x00\n      dup1\n      revert\n        /* \"youtube-course/store.sol\":5164:5392  function addProduct(string calldata _name, uint256 _id, uint256 _stock, uint256 _price) external onlyOwner {... */\n    tag_2:\n      callvalue\n      dup1\n      iszero\n      tag_26\n      jumpi\n      0x00\n      dup1\n      revert\n    tag_26:\n      pop\n      tag_27\n      0x04\n      dup1\n      calldatasize\n      sub\n      dup2\n      add\n      swap1\n      tag_28\n      swap2\n      swap1\n      tag_29\n      jump\t// in\n    tag_28:\n      tag_30\n      jump\t// in\n    tag_27:\n      stop\n        /* \"youtube-course/store.sol\":438:485  mapping(string => uint256) public discountCodes */\n    tag_3:\n      callvalue\n      dup1\n      iszero\n      tag_31\n      jumpi\n      0x00\n      dup1\n      revert\n    tag_31:\n      pop\n      tag_32\n      0x04\n      dup1\n      calldatasize\n      sub\n      dup2\n      add\n      swap1\n      tag_33\n      swap2\n      swap1\n      tag_34\n      jump\t// in\n    tag_33:\n      tag_35\n      jump\t// in\n    tag_32:\n      mload(0x40)\n      tag_36\n      swap2\n      swap1\n      tag_37\n      jump\t// in\n    tag_36:\n      mload(0x40)\n      dup1\n      swap2\n      sub\n      swap1\n      return\n        /* \"youtube-course/store.sol\":3964:4968  function batchBuy(uint256[] calldata _ids, uint256[] calldata _quantities, string calldata _discountCode) external payable {... */\n    tag_4:\n      tag_38\n      0x04\n      dup1\n      calldatasize\n      sub\n      dup2\n      add\n      swap1\n      tag_39\n      swap2\n      swap1\n      tag_40\n      jump\t// in\n    tag_39:\n      tag_41\n      jump\t// in\n    tag_38:\n      stop\n        /* \"youtube-course/store.sol\":6360:6510  function getStock(uint256 _id) public view returns(uint256) {... */\n    tag_5:\n      callvalue\n      dup1\n      iszero\n      tag_42\n      jumpi\n      0x00\n      dup1\n      revert\n    tag_42:\n      pop\n      tag_43\n      0x04\n      dup1\n      calldatasize\n      sub\n      dup2\n      add\n      swap1\n      tag_44\n      swap2\n      swap1\n      tag_45\n      jump\t// in\n    tag_44:\n      tag_46\n      jump\t// in\n    tag_43:\n      mload(0x40)\n      tag_47\n      swap2\n      swap1\n      tag_37\n      jump\t// in\n    tag_47:\n      mload(0x40)\n      dup1\n      swap2\n      sub\n      swap1\n      return\n        /* \"youtube-course/store.sol\":4974:5158  function withdraw() external onlyOwner {... */\n    tag_6:\n      callvalue\n      dup1\n      iszero\n      tag_48\n      jumpi\n      0x00\n      dup1\n      revert\n    tag_48:\n      pop\n      tag_49\n      tag_50\n      jump\t// in\n    tag_49:\n      stop\n        /* \"youtube-course/store.sol\":320:370  mapping(uint256 => uint256) public productPurchase */\n    tag_7:\n      callvalue\n      dup1\n      iszero\n      tag_51\n      jumpi\n      0x00\n      dup1\n      revert\n    tag_51:\n      pop\n      tag_52\n      0x04\n      dup1\n      calldatasize\n      sub\n      dup2\n      add\n      swap1\n      tag_53\n      swap2\n      swap1\n      tag_45\n      jump\t// in\n    tag_53:\n      tag_54\n      jump\t// in\n    tag_52:\n      mload(0x40)\n      tag_55\n      swap2\n      swap1\n      tag_37\n      jump\t// in\n    tag_55:\n      mload(0x40)\n      dup1\n      swap2\n      sub\n      swap1\n      return\n        /* \"youtube-course/store.sol\":1193:2039  function getTopSelling() public view returns(uint256[3] memory) {... */\n    tag_8:\n      callvalue\n      dup1\n      iszero\n      tag_56\n      jumpi\n      0x00\n      dup1\n      revert\n    tag_56:\n      pop\n      tag_57\n      tag_58\n      jump\t// in\n    tag_57:\n      mload(0x40)\n      tag_59\n      swap2\n      swap1\n      tag_60\n      jump\t// in\n    tag_59:\n      mload(0x40)\n      dup1\n      swap2\n      sub\n      swap1\n      return\n        /* \"youtube-course/store.sol\":3341:3958  function refund(uint256 _id, uint256 _quantity) external {... */\n    tag_9:\n      callvalue\n      dup1\n      iszero\n      tag_61\n      jumpi\n      0x00\n      dup1\n      revert\n    tag_61:\n      pop\n      tag_62\n      0x04\n      dup1\n      calldatasize\n      sub\n      dup2\n      add\n      swap1\n      tag_63\n      swap2\n      swap1\n      tag_64\n      jump\t// in\n    tag_63:\n      tag_65\n      jump\t// in\n    tag_62:\n      stop\n        /* \"youtube-course/store.sol\":208:275  mapping(address => mapping(uint256 => uint256)) public userPurchase */\n    tag_10:\n      callvalue\n      dup1\n      iszero\n      tag_66\n      jumpi\n      0x00\n      dup1\n      revert\n    tag_66:\n      pop\n      tag_67\n      0x04\n      dup1\n      calldatasize\n      sub\n      dup2\n      add\n      swap1\n      tag_68\n      swap2\n      swap1\n      tag_69\n      jump\t// in\n    tag_68:\n      tag_70\n      jump\t// in\n    tag_67:\n      mload(0x40)\n      tag_71\n      swap2\n      swap1\n      tag_37\n      jump\t// in\n    tag_71:\n      mload(0x40)\n      dup1\n      swap2\n      sub\n      swap1\n      return\n        /* \"@openzeppelin/contracts/access/Ownable.sol\":2293:2394  function renounceOwnership() public virtual onlyOwner {... */\n    tag_11:\n      callvalue\n      dup1\n      iszero\n      tag_72\n      jumpi\n      0x00\n      dup1\n      revert\n    tag_72:\n      pop\n      tag_73\n      tag_74\n      jump\t// in\n    tag_73:\n      stop\n        /* \"youtube-course/store.sol\":5870:6031  function updatePrice(uint256 _id, uint256 _price) external onlyOwner {... */\n    tag_12:\n      callvalue\n      dup1\n      iszero\n      tag_75\n      jumpi\n      0x00\n      dup1\n      revert\n    tag_75:\n      pop\n      tag_76\n      0x04\n      dup1\n      calldatasize\n      sub\n      dup2\n      add\n      swap1\n      tag_77\n      swap2\n      swap1\n      tag_64\n      jump\t// in\n    tag_77:\n      tag_78\n      jump\t// in\n    tag_76:\n      stop\n        /* \"@openzeppelin/contracts/access/Ownable.sol\":1638:1723  function owner() public view virtual returns (address) {... */\n    tag_13:\n      callvalue\n      dup1\n      iszero\n      tag_79\n      jumpi\n      0x00\n      dup1\n      revert\n    tag_79:\n      pop\n      tag_80\n      tag_81\n      jump\t// in\n    tag_80:\n      mload(0x40)\n      tag_82\n      swap2\n      swap1\n      tag_83\n      jump\t// in\n    tag_82:\n      mload(0x40)\n      dup1\n      swap2\n      sub\n      swap1\n      return\n        /* \"youtube-course/store.sol\":2045:2360  function getTotalRevenue() public view returns(uint256) {... */\n    tag_14:\n      callvalue\n      dup1\n      iszero\n      tag_84\n      jumpi\n      0x00\n      dup1\n      revert\n    tag_84:\n      pop\n      tag_85\n      tag_86\n      jump\t// in\n    tag_85:\n      mload(0x40)\n      tag_87\n      swap2\n      swap1\n      tag_37\n      jump\t// in\n    tag_87:\n      mload(0x40)\n      dup1\n      swap2\n      sub\n      swap1\n      return\n        /* \"youtube-course/store.sol\":2721:3335  function buy(uint256 _id, uint256 _quantity, string calldata _discountCode) external payable {... */\n    tag_15:\n      tag_88\n      0x04\n      dup1\n      calldatasize\n      sub\n      dup2\n      add\n      swap1\n      tag_89\n      swap2\n      swap1\n      tag_90\n      jump\t// in\n    tag_89:\n      tag_91\n      jump\t// in\n    tag_88:\n      stop\n        /* \"youtube-course/store.sol\":5398:5608  function addDiscountCode(string calldata _code, uint256 _discount) external onlyOwner {... */\n    tag_16:\n      callvalue\n      dup1\n      iszero\n      tag_92\n      jumpi\n      0x00\n      dup1\n      revert\n    tag_92:\n      pop\n      tag_93\n      0x04\n      dup1\n      calldatasize\n      sub\n      dup2\n      add\n      swap1\n      tag_94\n      swap2\n      swap1\n      tag_95\n      jump\t// in\n    tag_94:\n      tag_96\n      jump\t// in\n    tag_93:\n      stop\n        /* \"youtube-course/store.sol\":6037:6198  function updateStock(uint256 _id, uint256 _stock) external onlyOwner {... */\n    tag_17:\n      callvalue\n      dup1\n      iszero\n      tag_97\n      jumpi\n      0x00\n      dup1\n      revert\n    tag_97:\n      pop\n      tag_98\n      0x04\n      dup1\n      calldatasize\n      sub\n      dup2\n      add\n      swap1\n      tag_99\n      swap2\n      swap1\n      tag_64\n      jump\t// in\n    tag_99:\n      tag_100\n      jump\t// in\n    tag_98:\n      stop\n        /* \"youtube-course/store.sol\":2366:2715  function getUserPurchase(address _userAddress) public view returns(uint256) {... */\n    tag_18:\n      callvalue\n      dup1\n      iszero\n      tag_101\n      jumpi\n      0x00\n      dup1\n      revert\n    tag_101:\n      pop\n      tag_102\n      0x04\n      dup1\n      calldatasize\n      sub\n      dup2\n      add\n      swap1\n      tag_103\n      swap2\n      swap1\n      tag_104\n      jump\t// in\n    tag_103:\n      tag_105\n      jump\t// in\n    tag_102:\n      mload(0x40)\n      tag_106\n      swap2\n      swap1\n      tag_37\n      jump\t// in\n    tag_106:\n      mload(0x40)\n      dup1\n      swap2\n      sub\n      swap1\n      return\n        /* \"youtube-course/store.sol\":1094:1187  function getProducts() public view returns(Product[] memory) {... */\n    tag_19:\n      callvalue\n      dup1\n      iszero\n      tag_107\n      jumpi\n      0x00\n      dup1\n      revert\n    tag_107:\n      pop\n      tag_108\n      tag_109\n      jump\t// in\n    tag_108:\n      mload(0x40)\n      tag_110\n      swap2\n      swap1\n      tag_111\n      jump\t// in\n    tag_110:\n      mload(0x40)\n      dup1\n      swap2\n      sub\n      swap1\n      return\n        /* \"youtube-course/store.sol\":6204:6354  function getPrice(uint256 _id) public view returns(uint256) {... */\n    tag_20:\n      callvalue\n      dup1\n      iszero\n      tag_112\n      jumpi\n      0x00\n      dup1\n      revert\n    tag_112:\n      pop\n      tag_113\n      0x04\n      dup1\n      calldatasize\n      sub\n      dup2\n      add\n      swap1\n      tag_114\n      swap2\n      swap1\n      tag_45\n      jump\t// in\n    tag_114:\n      tag_115\n      jump\t// in\n    tag_113:\n      mload(0x40)\n      tag_116\n      swap2\n      swap1\n      tag_37\n      jump\t// in\n    tag_116:\n      mload(0x40)\n      dup1\n      swap2\n      sub\n      swap1\n      return\n        /* \"youtube-course/store.sol\":5614:5864  function deleteProduct(uint256 _id) external onlyOwner {... */\n    tag_21:\n      callvalue\n      dup1\n      iszero\n      tag_117\n      jumpi\n      0x00\n      dup1\n      revert\n    tag_117:\n      pop\n      tag_118\n      0x04\n      dup1\n      calldatasize\n      sub\n      dup2\n      add\n      swap1\n      tag_119\n      swap2\n      swap1\n      tag_45\n      jump\t// in\n    tag_119:\n      tag_120\n      jump\t// in\n    tag_118:\n      stop\n        /* \"@openzeppelin/contracts/access/Ownable.sol\":2543:2758  function transferOwnership(address newOwner) public virtual onlyOwner {... */\n    tag_22:\n      callvalue\n      dup1\n      iszero\n      tag_121\n      jumpi\n      0x00\n      dup1\n      revert\n    tag_121:\n      pop\n      tag_122\n      0x04\n      dup1\n      calldatasize\n      sub\n      dup2\n      add\n      swap1\n      tag_123\n      swap2\n      swap1\n      tag_104\n      jump\t// in\n    tag_123:\n      tag_124\n      jump\t// in\n    tag_122:\n      stop\n        /* \"youtube-course/store.sol\":5164:5392  function addProduct(string calldata _name, uint256 _id, uint256 _stock, uint256 _price) external onlyOwner {... */\n    tag_30:\n        /* \"@openzeppelin/contracts/access/Ownable.sol\":1531:1544  _checkOwner() */\n      tag_126\n        /* \"@openzeppelin/contracts/access/Ownable.sol\":1531:1542  _checkOwner */\n      tag_127\n        /* \"@openzeppelin/contracts/access/Ownable.sol\":1531:1544  _checkOwner() */\n      jump\t// in\n    tag_126:\n        /* \"youtube-course/store.sol\":5285:5300  _isIdExist(_id) */\n      tag_129\n        /* \"youtube-course/store.sol\":5296:5299  _id */\n      dup4\n        /* \"youtube-course/store.sol\":5285:5295  _isIdExist */\n      tag_130\n        /* \"youtube-course/store.sol\":5285:5300  _isIdExist(_id) */\n      jump\t// in\n    tag_129:\n        /* \"youtube-course/store.sol\":5281:5325  if (_isIdExist(_id)) revert IdAlreadyExist() */\n      iszero\n      tag_131\n      jumpi\n        /* \"youtube-course/store.sol\":5309:5325  IdAlreadyExist() */\n      mload(0x40)\n      0xf270498400000000000000000000000000000000000000000000000000000000\n      dup2\n      mstore\n      0x04\n      add\n      mload(0x40)\n      dup1\n      swap2\n      sub\n      swap1\n      revert\n        /* \"youtube-course/store.sol\":5281:5325  if (_isIdExist(_id)) revert IdAlreadyExist() */\n    tag_131:\n        /* \"youtube-course/store.sol\":5335:5343  products */\n      0x04\n        /* \"youtube-course/store.sol\":5349:5384  Product(_name, _id, _stock, _price) */\n      mload(0x40)\n      dup1\n      0x80\n      add\n      0x40\n      mstore\n      dup1\n        /* \"youtube-course/store.sol\":5357:5362  _name */\n      dup8\n      dup8\n        /* \"youtube-course/store.sol\":5349:5384  Product(_name, _id, _stock, _price) */\n      dup1\n      dup1\n      0x1f\n      add\n      0x20\n      dup1\n      swap2\n      div\n      mul\n      0x20\n      add\n      mload(0x40)\n      swap1\n      dup2\n      add\n      0x40\n      mstore\n      dup1\n      swap4\n      swap3\n      swap2\n      swap1\n      dup2\n      dup2\n      mstore\n      0x20\n      add\n      dup4\n      dup4\n      dup1\n      dup3\n      dup5\n      calldatacopy\n      0x00\n      dup2\n      dup5\n      add\n      mstore\n      not(0x1f)\n      0x1f\n      dup3\n      add\n      and\n      swap1\n      pop\n      dup1\n      dup4\n      add\n      swap3\n      pop\n      pop\n      pop\n      pop\n      pop\n      pop\n      pop\n      dup2\n      mstore\n      0x20\n      add\n        /* \"youtube-course/store.sol\":5364:5367  _id */\n      dup6\n        /* \"youtube-course/store.sol\":5349:5384  Product(_name, _id, _stock, _price) */\n      dup2\n      mstore\n      0x20\n      add\n        /* \"youtube-course/store.sol\":5369:5375  _stock */\n      dup5\n        /* \"youtube-course/store.sol\":5349:5384  Product(_name, _id, _stock, _price) */\n      dup2\n      mstore\n      0x20\n      add\n        /* \"youtube-course/store.sol\":5377:5383  _price */\n      dup4\n        /* \"youtube-course/store.sol\":5349:5384  Product(_name, _id, _stock, _price) */\n      dup2\n      mstore\n      pop\n        /* \"youtube-course/store.sol\":5335:5385  products.push(Product(_name, _id, _stock, _price)) */\n      swap1\n      dup1\n      0x01\n      dup2\n      sload\n      add\n      dup1\n      dup3\n      sstore\n      dup1\n      swap2\n      pop\n      pop\n      0x01\n      swap1\n      sub\n      swap1\n      0x00\n      mstore\n      keccak256(0x00, 0x20)\n      swap1\n      0x04\n      mul\n      add\n      0x00\n      swap1\n      swap2\n      swap1\n      swap2\n      swap1\n      swap2\n      pop\n      0x00\n      dup3\n      add\n      mload\n      dup2\n      0x00\n      add\n      swap1\n      dup2\n      tag_133\n      swap2\n      swap1\n      tag_134\n      jump\t// in\n    tag_133:\n      pop\n      0x20\n      dup3\n      add\n      mload\n      dup2\n      0x01\n      add\n      sstore\n      0x40\n      dup3\n      add\n      mload\n      dup2\n      0x02\n      add\n      sstore\n      0x60\n      dup3\n      add\n      mload\n      dup2\n      0x03\n      add\n      sstore\n      pop\n      pop\n        /* \"youtube-course/store.sol\":5164:5392  function addProduct(string calldata _name, uint256 _id, uint256 _stock, uint256 _price) external onlyOwner {... */\n      pop\n      pop\n      pop\n      pop\n      pop\n      jump\t// out\n        /* \"youtube-course/store.sol\":438:485  mapping(string => uint256) public discountCodes */\n    tag_35:\n      0x03\n      dup2\n      dup1\n      mload\n      0x20\n      dup2\n      add\n      dup3\n      add\n      dup1\n      mload\n      dup5\n      dup3\n      mstore\n      0x20\n      dup4\n      add\n      0x20\n      dup6\n      add\n      keccak256\n      dup2\n      dup4\n      mstore\n      dup1\n      swap6\n      pop\n      pop\n      pop\n      pop\n      pop\n      pop\n      0x00\n      swap2\n      pop\n      swap1\n      pop\n      sload\n      dup2\n      jump\t// out\n        /* \"youtube-course/store.sol\":3964:4968  function batchBuy(uint256[] calldata _ids, uint256[] calldata _quantities, string calldata _discountCode) external payable {... */\n    tag_41:\n        /* \"youtube-course/store.sol\":4116:4127  _quantities */\n      dup4\n      dup4\n        /* \"youtube-course/store.sol\":4116:4134  _quantities.length */\n      swap1\n      pop\n        /* \"youtube-course/store.sol\":4101:4105  _ids */\n      dup7\n      dup7\n        /* \"youtube-course/store.sol\":4101:4112  _ids.length */\n      swap1\n      pop\n        /* \"youtube-course/store.sol\":4101:4134  _ids.length != _quantities.length */\n      eq\n        /* \"youtube-course/store.sol\":4097:4164  if (_ids.length != _quantities.length) revert WrongBatchStructure() */\n      tag_136\n      jumpi\n        /* \"youtube-course/store.sol\":4143:4164  WrongBatchStructure() */\n      mload(0x40)\n      0x23a37fc200000000000000000000000000000000000000000000000000000000\n      dup2\n      mstore\n      0x04\n      add\n      mload(0x40)\n      dup1\n      swap2\n      sub\n      swap1\n      revert\n        /* \"youtube-course/store.sol\":4097:4164  if (_ids.length != _quantities.length) revert WrongBatchStructure() */\n    tag_136:\n        /* \"youtube-course/store.sol\":4175:4193  uint256 totalPrice */\n      0x00\n        /* \"youtube-course/store.sol\":4212:4218  uint i */\n      dup1\n        /* \"youtube-course/store.sol\":4207:4606  for (uint i = 0; i < _ids.length; i++) {... */\n    tag_137:\n        /* \"youtube-course/store.sol\":4228:4232  _ids */\n      dup8\n      dup8\n        /* \"youtube-course/store.sol\":4228:4239  _ids.length */\n      swap1\n      pop\n        /* \"youtube-course/store.sol\":4224:4225  i */\n      dup2\n        /* \"youtube-course/store.sol\":4224:4239  i < _ids.length */\n      lt\n        /* \"youtube-course/store.sol\":4207:4606  for (uint i = 0; i < _ids.length; i++) {... */\n      iszero\n      tag_138\n      jumpi\n        /* \"youtube-course/store.sol\":4260:4269  uint256 q */\n      0x00\n        /* \"youtube-course/store.sol\":4272:4283  _quantities */\n      dup7\n      dup7\n        /* \"youtube-course/store.sol\":4284:4285  i */\n      dup4\n        /* \"youtube-course/store.sol\":4272:4286  _quantities[i] */\n      dup2\n      dup2\n      lt\n      tag_140\n      jumpi\n      tag_141\n      tag_142\n      jump\t// in\n    tag_141:\n    tag_140:\n      swap1\n      pop\n      0x20\n      mul\n      add\n      calldataload\n        /* \"youtube-course/store.sol\":4260:4286  uint256 q = _quantities[i] */\n      swap1\n      pop\n        /* \"youtube-course/store.sol\":4300:4310  uint256 id */\n      0x00\n        /* \"youtube-course/store.sol\":4313:4317  _ids */\n      dup10\n      dup10\n        /* \"youtube-course/store.sol\":4318:4319  i */\n      dup5\n        /* \"youtube-course/store.sol\":4313:4320  _ids[i] */\n      dup2\n      dup2\n      lt\n      tag_143\n      jumpi\n      tag_144\n      tag_142\n      jump\t// in\n    tag_144:\n    tag_143:\n      swap1\n      pop\n      0x20\n      mul\n      add\n      calldataload\n        /* \"youtube-course/store.sol\":4300:4320  uint256 id = _ids[i] */\n      swap1\n      pop\n        /* \"youtube-course/store.sol\":4344:4345  0 */\n      0x00\n        /* \"youtube-course/store.sol\":4339:4340  q */\n      dup3\n        /* \"youtube-course/store.sol\":4339:4345  q <= 0 */\n      gt\n        /* \"youtube-course/store.sol\":4335:4368  if (q <= 0) revert ZeroQuantity() */\n      tag_145\n      jumpi\n        /* \"youtube-course/store.sol\":4354:4368  ZeroQuantity() */\n      mload(0x40)\n      0xf4f5b73300000000000000000000000000000000000000000000000000000000\n      dup2\n      mstore\n      0x04\n      add\n      mload(0x40)\n      dup1\n      swap2\n      sub\n      swap1\n      revert\n        /* \"youtube-course/store.sol\":4335:4368  if (q <= 0) revert ZeroQuantity() */\n    tag_145:\n        /* \"youtube-course/store.sol\":4400:4401  q */\n      dup2\n        /* \"youtube-course/store.sol\":4386:4397  getStock(i) */\n      tag_146\n        /* \"youtube-course/store.sol\":4395:4396  i */\n      dup5\n        /* \"youtube-course/store.sol\":4386:4394  getStock */\n      tag_46\n        /* \"youtube-course/store.sol\":4386:4397  getStock(i) */\n      jump\t// in\n    tag_146:\n        /* \"youtube-course/store.sol\":4386:4401  getStock(i) < q */\n      lt\n        /* \"youtube-course/store.sol\":4382:4422  if (getStock(i) < q) revert OutOfStock() */\n      iszero\n      tag_147\n      jumpi\n        /* \"youtube-course/store.sol\":4410:4422  OutOfStock() */\n      mload(0x40)\n      0xade1cb4100000000000000000000000000000000000000000000000000000000\n      dup2\n      mstore\n      0x04\n      add\n      mload(0x40)\n      dup1\n      swap2\n      sub\n      swap1\n      revert\n        /* \"youtube-course/store.sol\":4382:4422  if (getStock(i) < q) revert OutOfStock() */\n    tag_147:\n        /* \"youtube-course/store.sol\":4437:4457  uint256 productPrice */\n      0x00\n        /* \"youtube-course/store.sol\":4460:4472  getPrice(id) */\n      tag_148\n        /* \"youtube-course/store.sol\":4469:4471  id */\n      dup3\n        /* \"youtube-course/store.sol\":4460:4468  getPrice */\n      tag_115\n        /* \"youtube-course/store.sol\":4460:4472  getPrice(id) */\n      jump\t// in\n    tag_148:\n        /* \"youtube-course/store.sol\":4437:4472  uint256 productPrice = getPrice(id) */\n      swap1\n      pop\n        /* \"youtube-course/store.sol\":4548:4551  100 */\n      0x64\n        /* \"youtube-course/store.sol\":4517:4530  discountCodes */\n      0x03\n        /* \"youtube-course/store.sol\":4531:4544  _discountCode */\n      dup9\n      dup9\n        /* \"youtube-course/store.sol\":4517:4545  discountCodes[_discountCode] */\n      mload(0x40)\n      tag_149\n      swap3\n      swap2\n      swap1\n      tag_150\n      jump\t// in\n    tag_149:\n      swap1\n      dup2\n      mstore\n      0x20\n      add\n      mload(0x40)\n      dup1\n      swap2\n      sub\n      swap1\n      keccak256\n      sload\n        /* \"youtube-course/store.sol\":4502:4514  productPrice */\n      dup3\n        /* \"youtube-course/store.sol\":4502:4545  productPrice * discountCodes[_discountCode] */\n      tag_151\n      swap2\n      swap1\n      tag_152\n      jump\t// in\n    tag_151:\n        /* \"youtube-course/store.sol\":4502:4551  productPrice * discountCodes[_discountCode] / 100 */\n      tag_153\n      swap2\n      swap1\n      tag_154\n      jump\t// in\n    tag_153:\n        /* \"youtube-course/store.sol\":4486:4551  productPrice -= productPrice * discountCodes[_discountCode] / 100 */\n      dup2\n      tag_155\n      swap2\n      swap1\n      tag_156\n      jump\t// in\n    tag_155:\n      swap1\n      pop\n        /* \"youtube-course/store.sol\":4594:4595  q */\n      dup3\n        /* \"youtube-course/store.sol\":4579:4591  productPrice */\n      dup2\n        /* \"youtube-course/store.sol\":4579:4595  productPrice * q */\n      tag_157\n      swap2\n      swap1\n      tag_152\n      jump\t// in\n    tag_157:\n        /* \"youtube-course/store.sol\":4565:4595  totalPrice += productPrice * q */\n      dup6\n      tag_158\n      swap2\n      swap1\n      tag_159\n      jump\t// in\n    tag_158:\n      swap5\n      pop\n        /* \"youtube-course/store.sol\":4246:4606  {... */\n      pop\n      pop\n      pop\n        /* \"youtube-course/store.sol\":4241:4244  i++ */\n      dup1\n      dup1\n      0x01\n      add\n      swap2\n      pop\n      pop\n        /* \"youtube-course/store.sol\":4207:4606  for (uint i = 0; i < _ids.length; i++) {... */\n      jump(tag_137)\n    tag_138:\n      pop\n        /* \"youtube-course/store.sol\":4632:4642  totalPrice */\n      dup1\n        /* \"youtube-course/store.sol\":4620:4629  msg.value */\n      callvalue\n        /* \"youtube-course/store.sol\":4620:4642  msg.value < totalPrice */\n      lt\n        /* \"youtube-course/store.sol\":4616:4667  if (msg.value < totalPrice) revert NotEnoughFunds() */\n      iszero\n      tag_160\n      jumpi\n        /* \"youtube-course/store.sol\":4651:4667  NotEnoughFunds() */\n      mload(0x40)\n      0x81b5ad6800000000000000000000000000000000000000000000000000000000\n      dup2\n      mstore\n      0x04\n      add\n      mload(0x40)\n      dup1\n      swap2\n      sub\n      swap1\n      revert\n        /* \"youtube-course/store.sol\":4616:4667  if (msg.value < totalPrice) revert NotEnoughFunds() */\n    tag_160:\n        /* \"youtube-course/store.sol\":4683:4689  uint i */\n      0x00\n        /* \"youtube-course/store.sol\":4678:4847  for (uint i = 0; i < _ids.length; i++) {... */\n    tag_161:\n        /* \"youtube-course/store.sol\":4699:4703  _ids */\n      dup8\n      dup8\n        /* \"youtube-course/store.sol\":4699:4710  _ids.length */\n      swap1\n      pop\n        /* \"youtube-course/store.sol\":4695:4696  i */\n      dup2\n        /* \"youtube-course/store.sol\":4695:4710  i < _ids.length */\n      lt\n        /* \"youtube-course/store.sol\":4678:4847  for (uint i = 0; i < _ids.length; i++) {... */\n      iszero\n      tag_162\n      jumpi\n        /* \"youtube-course/store.sol\":4731:4740  uint256 q */\n      0x00\n        /* \"youtube-course/store.sol\":4743:4754  _quantities */\n      dup7\n      dup7\n        /* \"youtube-course/store.sol\":4755:4756  i */\n      dup4\n        /* \"youtube-course/store.sol\":4743:4757  _quantities[i] */\n      dup2\n      dup2\n      lt\n      tag_164\n      jumpi\n      tag_165\n      tag_142\n      jump\t// in\n    tag_165:\n    tag_164:\n      swap1\n      pop\n      0x20\n      mul\n      add\n      calldataload\n        /* \"youtube-course/store.sol\":4731:4757  uint256 q = _quantities[i] */\n      swap1\n      pop\n        /* \"youtube-course/store.sol\":4771:4781  uint256 id */\n      0x00\n        /* \"youtube-course/store.sol\":4784:4788  _ids */\n      dup10\n      dup10\n        /* \"youtube-course/store.sol\":4789:4790  i */\n      dup5\n        /* \"youtube-course/store.sol\":4784:4791  _ids[i] */\n      dup2\n      dup2\n      lt\n      tag_166\n      jumpi\n      tag_167\n      tag_142\n      jump\t// in\n    tag_167:\n    tag_166:\n      swap1\n      pop\n      0x20\n      mul\n      add\n      calldataload\n        /* \"youtube-course/store.sol\":4771:4791  uint256 id = _ids[i] */\n      swap1\n      pop\n        /* \"youtube-course/store.sol\":4806:4836  _buyProcess(msg.sender, id, q) */\n      tag_168\n        /* \"youtube-course/store.sol\":4818:4828  msg.sender */\n      caller\n        /* \"youtube-course/store.sol\":4830:4832  id */\n      dup3\n        /* \"youtube-course/store.sol\":4834:4835  q */\n      dup5\n        /* \"youtube-course/store.sol\":4806:4817  _buyProcess */\n      tag_169\n        /* \"youtube-course/store.sol\":4806:4836  _buyProcess(msg.sender, id, q) */\n      jump\t// in\n    tag_168:\n        /* \"youtube-course/store.sol\":4717:4847  {... */\n      pop\n      pop\n        /* \"youtube-course/store.sol\":4712:4715  i++ */\n      dup1\n      dup1\n      0x01\n      add\n      swap2\n      pop\n      pop\n        /* \"youtube-course/store.sol\":4678:4847  for (uint i = 0; i < _ids.length; i++) {... */\n      jump(tag_161)\n    tag_162:\n      pop\n        /* \"youtube-course/store.sol\":4873:4883  totalPrice */\n      dup1\n        /* \"youtube-course/store.sol\":4861:4870  msg.value */\n      callvalue\n        /* \"youtube-course/store.sol\":4861:4883  msg.value > totalPrice */\n      gt\n        /* \"youtube-course/store.sol\":4857:4962  if (msg.value > totalPrice) {... */\n      iszero\n      tag_170\n      jumpi\n        /* \"youtube-course/store.sol\":4907:4917  msg.sender */\n      caller\n        /* \"youtube-course/store.sol\":4899:4927  payable(msg.sender).transfer */\n      0xffffffffffffffffffffffffffffffffffffffff\n      and\n        /* \"youtube-course/store.sol\":4899:4951  payable(msg.sender).transfer(msg.value - totalPrice) */\n      0x08fc\n        /* \"youtube-course/store.sol\":4940:4950  totalPrice */\n      dup3\n        /* \"youtube-course/store.sol\":4928:4937  msg.value */\n      callvalue\n        /* \"youtube-course/store.sol\":4928:4950  msg.value - totalPrice */\n      tag_171\n      swap2\n      swap1\n      tag_156\n      jump\t// in\n    tag_171:\n        /* \"youtube-course/store.sol\":4899:4951  payable(msg.sender).transfer(msg.value - totalPrice) */\n      swap1\n      dup2\n      iszero\n      mul\n      swap1\n      mload(0x40)\n      0x00\n      mload(0x40)\n      dup1\n      dup4\n      sub\n      dup2\n      dup6\n      dup9\n      dup9\n      call\n      swap4\n      pop\n      pop\n      pop\n      pop\n      iszero\n      dup1\n      iszero\n      tag_173\n      jumpi\n      returndatasize\n      0x00\n      dup1\n      returndatacopy\n      revert(0x00, returndatasize)\n    tag_173:\n      pop\n        /* \"youtube-course/store.sol\":4857:4962  if (msg.value > totalPrice) {... */\n    tag_170:\n        /* \"youtube-course/store.sol\":4087:4968  {... */\n      pop\n        /* \"youtube-course/store.sol\":3964:4968  function batchBuy(uint256[] calldata _ids, uint256[] calldata _quantities, string calldata _discountCode) external payable {... */\n      pop\n      pop\n      pop\n      pop\n      pop\n      pop\n      jump\t// out\n        /* \"youtube-course/store.sol\":6360:6510  function getStock(uint256 _id) public view returns(uint256) {... */\n    tag_46:\n        /* \"youtube-course/store.sol\":6411:6418  uint256 */\n      0x00\n        /* \"youtube-course/store.sol\":6430:6453  Product storage product */\n      dup1\n        /* \"youtube-course/store.sol\":6456:6473  _findProduct(_id) */\n      tag_175\n        /* \"youtube-course/store.sol\":6469:6472  _id */\n      dup4\n        /* \"youtube-course/store.sol\":6456:6468  _findProduct */\n      tag_176\n        /* \"youtube-course/store.sol\":6456:6473  _findProduct(_id) */\n      jump\t// in\n    tag_175:\n        /* \"youtube-course/store.sol\":6430:6473  Product storage product = _findProduct(_id) */\n      swap1\n      pop\n        /* \"youtube-course/store.sol\":6490:6497  product */\n      dup1\n        /* \"youtube-course/store.sol\":6490:6503  product.stock */\n      0x02\n      add\n      sload\n        /* \"youtube-course/store.sol\":6483:6503  return product.stock */\n      swap2\n      pop\n      pop\n        /* \"youtube-course/store.sol\":6360:6510  function getStock(uint256 _id) public view returns(uint256) {... */\n      swap2\n      swap1\n      pop\n      jump\t// out\n        /* \"youtube-course/store.sol\":4974:5158  function withdraw() external onlyOwner {... */\n    tag_50:\n        /* \"@openzeppelin/contracts/access/Ownable.sol\":1531:1544  _checkOwner() */\n      tag_178\n        /* \"@openzeppelin/contracts/access/Ownable.sol\":1531:1542  _checkOwner */\n      tag_127\n        /* \"@openzeppelin/contracts/access/Ownable.sol\":1531:1544  _checkOwner() */\n      jump\t// in\n    tag_178:\n        /* \"youtube-course/store.sol\":5023:5038  uint256 balance */\n      0x00\n        /* \"youtube-course/store.sol\":5041:5062  address(this).balance */\n      selfbalance\n        /* \"youtube-course/store.sol\":5023:5062  uint256 balance = address(this).balance */\n      swap1\n      pop\n        /* \"youtube-course/store.sol\":5087:5088  0 */\n      0x00\n        /* \"youtube-course/store.sol\":5076:5083  balance */\n      dup2\n        /* \"youtube-course/store.sol\":5076:5088  balance == 0 */\n      sub\n        /* \"youtube-course/store.sol\":5072:5106  if (balance == 0) revert NoMoney() */\n      tag_180\n      jumpi\n        /* \"youtube-course/store.sol\":5097:5106  NoMoney() */\n      mload(0x40)\n      0x469ea76800000000000000000000000000000000000000000000000000000000\n      dup2\n      mstore\n      0x04\n      add\n      mload(0x40)\n      dup1\n      swap2\n      sub\n      swap1\n      revert\n        /* \"youtube-course/store.sol\":5072:5106  if (balance == 0) revert NoMoney() */\n    tag_180:\n        /* \"youtube-course/store.sol\":5125:5132  owner() */\n      tag_181\n        /* \"youtube-course/store.sol\":5125:5130  owner */\n      tag_81\n        /* \"youtube-course/store.sol\":5125:5132  owner() */\n      jump\t// in\n    tag_181:\n        /* \"youtube-course/store.sol\":5117:5142  payable(owner()).transfer */\n      0xffffffffffffffffffffffffffffffffffffffff\n      and\n        /* \"youtube-course/store.sol\":5117:5151  payable(owner()).transfer(balance) */\n      0x08fc\n        /* \"youtube-course/store.sol\":5143:5150  balance */\n      dup3\n        /* \"youtube-course/store.sol\":5117:5151  payable(owner()).transfer(balance) */\n      swap1\n      dup2\n      iszero\n      mul\n      swap1\n      mload(0x40)\n      0x00\n      mload(0x40)\n      dup1\n      dup4\n      sub\n      dup2\n      dup6\n      dup9\n      dup9\n      call\n      swap4\n      pop\n      pop\n      pop\n      pop\n      iszero\n      dup1\n      iszero\n      tag_183\n      jumpi\n      returndatasize\n      0x00\n      dup1\n      returndatacopy\n      revert(0x00, returndatasize)\n    tag_183:\n      pop\n        /* \"youtube-course/store.sol\":5013:5158  {... */\n      pop\n        /* \"youtube-course/store.sol\":4974:5158  function withdraw() external onlyOwner {... */\n      jump\t// out\n        /* \"youtube-course/store.sol\":320:370  mapping(uint256 => uint256) public productPurchase */\n    tag_54:\n      mstore(0x20, 0x02)\n      dup1\n      0x00\n      mstore\n      keccak256(0x00, 0x40)\n      0x00\n      swap2\n      pop\n      swap1\n      pop\n      sload\n      dup2\n      jump\t// out\n        /* \"youtube-course/store.sol\":1193:2039  function getTopSelling() public view returns(uint256[3] memory) {... */\n    tag_58:\n        /* \"youtube-course/store.sol\":1238:1255  uint256[3] memory */\n      tag_184\n      tag_185\n      jump\t// in\n    tag_184:\n        /* \"youtube-course/store.sol\":1267:1295  uint256[3] memory topSelling */\n      0x00\n        /* \"youtube-course/store.sol\":1267:1346  uint256[3] memory topSelling = [type(uint).max, type(uint).max, type(uint).max] */\n      mload(0x40)\n      dup1\n      0x60\n      add\n      0x40\n      mstore\n      dup1\n        /* \"youtube-course/store.sol\":1299:1313  type(uint).max */\n      0xffffffffffffffffffffffffffffffffffffffffffffffffffffffffffffffff\n        /* \"youtube-course/store.sol\":1267:1346  uint256[3] memory topSelling = [type(uint).max, type(uint).max, type(uint).max] */\n      dup2\n      mstore\n      0x20\n      add\n        /* \"youtube-course/store.sol\":1315:1329  type(uint).max */\n      0xffffffffffffffffffffffffffffffffffffffffffffffffffffffffffffffff\n        /* \"youtube-course/store.sol\":1267:1346  uint256[3] memory topSelling = [type(uint).max, type(uint).max, type(uint).max] */\n      dup2\n      mstore\n      0x20\n      add\n        /* \"youtube-course/store.sol\":1331:1345  type(uint).max */\n      0xffffffffffffffffffffffffffffffffffffffffffffffffffffffffffffffff\n        /* \"youtube-course/store.sol\":1267:1346  uint256[3] memory topSelling = [type(uint).max, type(uint).max, type(uint).max] */\n      dup2\n      mstore\n      pop\n      swap1\n      pop\n        /* \"youtube-course/store.sol\":1356:1382  uint256[] memory topSelled */\n      0x00\n        /* \"youtube-course/store.sol\":1399:1400  3 */\n      0x03\n        /* \"youtube-course/store.sol\":1385:1401  new uint256[](3) */\n      0xffffffffffffffff\n      dup2\n      gt\n      iszero\n      tag_187\n      jumpi\n      tag_188\n      tag_189\n      jump\t// in\n    tag_188:\n    tag_187:\n      mload(0x40)\n      swap1\n      dup1\n      dup3\n      mstore\n      dup1\n      0x20\n      mul\n      0x20\n      add\n      dup3\n      add\n      0x40\n      mstore\n      dup1\n      iszero\n      tag_190\n      jumpi\n      dup2\n      0x20\n      add\n      0x20\n      dup3\n      mul\n      dup1\n      calldatasize\n      dup4\n      calldatacopy\n      dup1\n      dup3\n      add\n      swap2\n      pop\n      pop\n      swap1\n      pop\n    tag_190:\n      pop\n        /* \"youtube-course/store.sol\":1356:1401  uint256[] memory topSelled = new uint256[](3) */\n      swap1\n      pop\n        /* \"youtube-course/store.sol\":1417:1427  uint place */\n      0x00\n        /* \"youtube-course/store.sol\":1412:2005  for (uint place = 0; place < 3; place++) {... */\n    tag_191:\n        /* \"youtube-course/store.sol\":1441:1442  3 */\n      0x03\n        /* \"youtube-course/store.sol\":1433:1438  place */\n      dup2\n        /* \"youtube-course/store.sol\":1433:1442  place < 3 */\n      lt\n        /* \"youtube-course/store.sol\":1412:2005  for (uint place = 0; place < 3; place++) {... */\n      iszero\n      tag_192\n      jumpi\n        /* \"youtube-course/store.sol\":1472:1478  uint i */\n      0x00\n        /* \"youtube-course/store.sol\":1467:1995  for (uint i = 0; i < products.length; i++) {... */\n    tag_194:\n        /* \"youtube-course/store.sol\":1488:1496  products */\n      0x04\n        /* \"youtube-course/store.sol\":1488:1503  products.length */\n      dup1\n      sload\n      swap1\n      pop\n        /* \"youtube-course/store.sol\":1484:1485  i */\n      dup2\n        /* \"youtube-course/store.sol\":1484:1503  i < products.length */\n      lt\n        /* \"youtube-course/store.sol\":1467:1995  for (uint i = 0; i < products.length; i++) {... */\n      iszero\n      tag_195\n      jumpi\n        /* \"youtube-course/store.sol\":1528:1551  Product storage product */\n      0x00\n        /* \"youtube-course/store.sol\":1554:1562  products */\n      0x04\n        /* \"youtube-course/store.sol\":1563:1564  i */\n      dup3\n        /* \"youtube-course/store.sol\":1554:1565  products[i] */\n      dup2\n      sload\n      dup2\n      lt\n      tag_197\n      jumpi\n      tag_198\n      tag_142\n      jump\t// in\n    tag_198:\n    tag_197:\n      swap1\n      0x00\n      mstore\n      keccak256(0x00, 0x20)\n      swap1\n      0x04\n      mul\n      add\n        /* \"youtube-course/store.sol\":1528:1565  Product storage product = products[i] */\n      swap1\n      pop\n        /* \"youtube-course/store.sol\":1584:1595  bool isSkip */\n      0x00\n        /* \"youtube-course/store.sol\":1626:1637  uint placed */\n      dup1\n        /* \"youtube-course/store.sol\":1621:1761  for (uint placed = 0; placed < place; placed++) {... */\n    tag_200:\n        /* \"youtube-course/store.sol\":1652:1657  place */\n      dup5\n        /* \"youtube-course/store.sol\":1643:1649  placed */\n      dup2\n        /* \"youtube-course/store.sol\":1643:1657  placed < place */\n      lt\n        /* \"youtube-course/store.sol\":1621:1761  for (uint placed = 0; placed < place; placed++) {... */\n      iszero\n      tag_201\n      jumpi\n        /* \"youtube-course/store.sol\":1709:1719  topSelling */\n      dup7\n        /* \"youtube-course/store.sol\":1720:1726  placed */\n      dup2\n        /* \"youtube-course/store.sol\":1709:1727  topSelling[placed] */\n      0x03\n      dup2\n      lt\n      tag_203\n      jumpi\n      tag_204\n      tag_142\n      jump\t// in\n    tag_204:\n    tag_203:\n      0x20\n      mul\n      add\n      mload\n        /* \"youtube-course/store.sol\":1695:1702  product */\n      dup4\n        /* \"youtube-course/store.sol\":1695:1705  product.id */\n      0x01\n      add\n      sload\n        /* \"youtube-course/store.sol\":1695:1727  product.id == topSelling[placed] */\n      sub\n        /* \"youtube-course/store.sol\":1691:1742  if (product.id == topSelling[placed]) isSkip = true */\n      tag_205\n      jumpi\n        /* \"youtube-course/store.sol\":1738:1742  true */\n      0x01\n        /* \"youtube-course/store.sol\":1729:1742  isSkip = true */\n      swap2\n      pop\n        /* \"youtube-course/store.sol\":1691:1742  if (product.id == topSelling[placed]) isSkip = true */\n    tag_205:\n        /* \"youtube-course/store.sol\":1659:1667  placed++ */\n      dup1\n      dup1\n      0x01\n      add\n      swap2\n      pop\n      pop\n        /* \"youtube-course/store.sol\":1621:1761  for (uint placed = 0; placed < place; placed++) {... */\n      jump(tag_200)\n    tag_201:\n      pop\n        /* \"youtube-course/store.sol\":1802:1817  productPurchase */\n      0x02\n        /* \"youtube-course/store.sol\":1802:1829  productPurchase[product.id] */\n      0x00\n        /* \"youtube-course/store.sol\":1818:1825  product */\n      dup4\n        /* \"youtube-course/store.sol\":1818:1828  product.id */\n      0x01\n      add\n      sload\n        /* \"youtube-course/store.sol\":1802:1829  productPurchase[product.id] */\n      dup2\n      mstore\n      0x20\n      add\n      swap1\n      dup2\n      mstore\n      0x20\n      add\n      0x00\n      keccak256\n      sload\n        /* \"youtube-course/store.sol\":1783:1792  topSelled */\n      dup6\n        /* \"youtube-course/store.sol\":1793:1798  place */\n      dup6\n        /* \"youtube-course/store.sol\":1783:1799  topSelled[place] */\n      dup2\n      mload\n      dup2\n      lt\n      tag_206\n      jumpi\n      tag_207\n      tag_142\n      jump\t// in\n    tag_207:\n    tag_206:\n      0x20\n      mul\n      0x20\n      add\n      add\n      mload\n        /* \"youtube-course/store.sol\":1783:1829  topSelled[place] < productPurchase[product.id] */\n      lt\n        /* \"youtube-course/store.sol\":1783:1840  topSelled[place] < productPurchase[product.id] && !isSkip */\n      dup1\n      iszero\n      tag_208\n      jumpi\n      pop\n        /* \"youtube-course/store.sol\":1834:1840  isSkip */\n      dup1\n        /* \"youtube-course/store.sol\":1833:1840  !isSkip */\n      iszero\n        /* \"youtube-course/store.sol\":1783:1840  topSelled[place] < productPurchase[product.id] && !isSkip */\n    tag_208:\n        /* \"youtube-course/store.sol\":1779:1981  if (topSelled[place] < productPurchase[product.id] && !isSkip) {... */\n      iszero\n      tag_209\n      jumpi\n        /* \"youtube-course/store.sol\":1883:1898  productPurchase */\n      0x02\n        /* \"youtube-course/store.sol\":1883:1910  productPurchase[product.id] */\n      0x00\n        /* \"youtube-course/store.sol\":1899:1906  product */\n      dup4\n        /* \"youtube-course/store.sol\":1899:1909  product.id */\n      0x01\n      add\n      sload\n        /* \"youtube-course/store.sol\":1883:1910  productPurchase[product.id] */\n      dup2\n      mstore\n      0x20\n      add\n      swap1\n      dup2\n      mstore\n      0x20\n      add\n      0x00\n      keccak256\n      sload\n        /* \"youtube-course/store.sol\":1864:1873  topSelled */\n      dup6\n        /* \"youtube-course/store.sol\":1874:1879  place */\n      dup6\n        /* \"youtube-course/store.sol\":1864:1880  topSelled[place] */\n      dup2\n      mload\n      dup2\n      lt\n      tag_210\n      jumpi\n      tag_211\n      tag_142\n      jump\t// in\n    tag_211:\n    tag_210:\n      0x20\n      mul\n      0x20\n      add\n      add\n        /* \"youtube-course/store.sol\":1864:1910  topSelled[place] = productPurchase[product.id] */\n      dup2\n      dup2\n      mstore\n      pop\n      pop\n        /* \"youtube-course/store.sol\":1952:1959  product */\n      dup2\n        /* \"youtube-course/store.sol\":1952:1962  product.id */\n      0x01\n      add\n      sload\n        /* \"youtube-course/store.sol\":1932:1942  topSelling */\n      dup7\n        /* \"youtube-course/store.sol\":1943:1948  place */\n      dup6\n        /* \"youtube-course/store.sol\":1932:1949  topSelling[place] */\n      0x03\n      dup2\n      lt\n      tag_212\n      jumpi\n      tag_213\n      tag_142\n      jump\t// in\n    tag_213:\n    tag_212:\n      0x20\n      mul\n      add\n        /* \"youtube-course/store.sol\":1932:1962  topSelling[place] = product.id */\n      dup2\n      dup2\n      mstore\n      pop\n      pop\n        /* \"youtube-course/store.sol\":1779:1981  if (topSelled[place] < productPurchase[product.id] && !isSkip) {... */\n    tag_209:\n        /* \"youtube-course/store.sol\":1510:1995  {... */\n      pop\n      pop\n        /* \"youtube-course/store.sol\":1505:1508  i++ */\n      dup1\n      dup1\n      0x01\n      add\n      swap2\n      pop\n      pop\n        /* \"youtube-course/store.sol\":1467:1995  for (uint i = 0; i < products.length; i++) {... */\n      jump(tag_194)\n    tag_195:\n      pop\n        /* \"youtube-course/store.sol\":1444:1451  place++ */\n      dup1\n      dup1\n      0x01\n      add\n      swap2\n      pop\n      pop\n        /* \"youtube-course/store.sol\":1412:2005  for (uint place = 0; place < 3; place++) {... */\n      jump(tag_191)\n    tag_192:\n      pop\n        /* \"youtube-course/store.sol\":2022:2032  topSelling */\n      dup2\n        /* \"youtube-course/store.sol\":2015:2032  return topSelling */\n      swap3\n      pop\n      pop\n      pop\n        /* \"youtube-course/store.sol\":1193:2039  function getTopSelling() public view returns(uint256[3] memory) {... */\n      swap1\n      jump\t// out\n        /* \"youtube-course/store.sol\":3341:3958  function refund(uint256 _id, uint256 _quantity) external {... */\n    tag_65:\n        /* \"youtube-course/store.sol\":3425:3426  0 */\n      0x00\n        /* \"youtube-course/store.sol\":3412:3421  _quantity */\n      dup2\n        /* \"youtube-course/store.sol\":3412:3426  _quantity <= 0 */\n      gt\n        /* \"youtube-course/store.sol\":3408:3449  if (_quantity <= 0) revert ZeroQuantity() */\n      tag_215\n      jumpi\n        /* \"youtube-course/store.sol\":3435:3449  ZeroQuantity() */\n      mload(0x40)\n      0xf4f5b73300000000000000000000000000000000000000000000000000000000\n      dup2\n      mstore\n      0x04\n      add\n      mload(0x40)\n      dup1\n      swap2\n      sub\n      swap1\n      revert\n        /* \"youtube-course/store.sol\":3408:3449  if (_quantity <= 0) revert ZeroQuantity() */\n    tag_215:\n        /* \"youtube-course/store.sol\":3495:3504  _quantity */\n      dup1\n        /* \"youtube-course/store.sol\":3463:3475  userPurchase */\n      0x01\n        /* \"youtube-course/store.sol\":3463:3487  userPurchase[msg.sender] */\n      0x00\n        /* \"youtube-course/store.sol\":3476:3486  msg.sender */\n      caller\n        /* \"youtube-course/store.sol\":3463:3487  userPurchase[msg.sender] */\n      0xffffffffffffffffffffffffffffffffffffffff\n      and\n      0xffffffffffffffffffffffffffffffffffffffff\n      and\n      dup2\n      mstore\n      0x20\n      add\n      swap1\n      dup2\n      mstore\n      0x20\n      add\n      0x00\n      keccak256\n        /* \"youtube-course/store.sol\":3463:3492  userPurchase[msg.sender][_id] */\n      0x00\n        /* \"youtube-course/store.sol\":3488:3491  _id */\n      dup5\n        /* \"youtube-course/store.sol\":3463:3492  userPurchase[msg.sender][_id] */\n      dup2\n      mstore\n      0x20\n      add\n      swap1\n      dup2\n      mstore\n      0x20\n      add\n      0x00\n      keccak256\n      sload\n        /* \"youtube-course/store.sol\":3463:3504  userPurchase[msg.sender][_id] < _quantity */\n      lt\n        /* \"youtube-course/store.sol\":3459:3532  if (userPurchase[msg.sender][_id] < _quantity) revert NotEnoughProducts() */\n      iszero\n      tag_216\n      jumpi\n        /* \"youtube-course/store.sol\":3513:3532  NotEnoughProducts() */\n      mload(0x40)\n      0xcd1d0d9300000000000000000000000000000000000000000000000000000000\n      dup2\n      mstore\n      0x04\n      add\n      mload(0x40)\n      dup1\n      swap2\n      sub\n      swap1\n      revert\n        /* \"youtube-course/store.sol\":3459:3532  if (userPurchase[msg.sender][_id] < _quantity) revert NotEnoughProducts() */\n    tag_216:\n        /* \"youtube-course/store.sol\":3543:3558  uint256 balance */\n      0x00\n        /* \"youtube-course/store.sol\":3561:3582  address(this).balance */\n      selfbalance\n        /* \"youtube-course/store.sol\":3543:3582  uint256 balance = address(this).balance */\n      swap1\n      pop\n        /* \"youtube-course/store.sol\":3592:3615  Product storage product */\n      0x00\n        /* \"youtube-course/store.sol\":3618:3635  _findProduct(_id) */\n      tag_217\n        /* \"youtube-course/store.sol\":3631:3634  _id */\n      dup5\n        /* \"youtube-course/store.sol\":3618:3630  _findProduct */\n      tag_176\n        /* \"youtube-course/store.sol\":3618:3635  _findProduct(_id) */\n      jump\t// in\n    tag_217:\n        /* \"youtube-course/store.sol\":3592:3635  Product storage product = _findProduct(_id) */\n      swap1\n      pop\n        /* \"youtube-course/store.sol\":3672:3679  product */\n      dup1\n        /* \"youtube-course/store.sol\":3672:3685  product.price */\n      0x03\n      add\n      sload\n        /* \"youtube-course/store.sol\":3660:3669  _quantity */\n      dup4\n        /* \"youtube-course/store.sol\":3660:3685  _quantity * product.price */\n      tag_218\n      swap2\n      swap1\n      tag_152\n      jump\t// in\n    tag_218:\n        /* \"youtube-course/store.sol\":3650:3657  balance */\n      dup3\n        /* \"youtube-course/store.sol\":3650:3685  balance < _quantity * product.price */\n      lt\n        /* \"youtube-course/store.sol\":3646:3703  if (balance < _quantity * product.price) revert NoMoney() */\n      iszero\n      tag_219\n      jumpi\n        /* \"youtube-course/store.sol\":3694:3703  NoMoney() */\n      mload(0x40)\n      0x469ea76800000000000000000000000000000000000000000000000000000000\n      dup2\n      mstore\n      0x04\n      add\n      mload(0x40)\n      dup1\n      swap2\n      sub\n      swap1\n      revert\n        /* \"youtube-course/store.sol\":3646:3703  if (balance < _quantity * product.price) revert NoMoney() */\n    tag_219:\n        /* \"youtube-course/store.sol\":3731:3740  _quantity */\n      dup3\n        /* \"youtube-course/store.sol\":3714:3721  product */\n      dup2\n        /* \"youtube-course/store.sol\":3714:3727  product.stock */\n      0x02\n      add\n      0x00\n        /* \"youtube-course/store.sol\":3714:3740  product.stock += _quantity */\n      dup3\n      dup3\n      sload\n      tag_220\n      swap2\n      swap1\n      tag_159\n      jump\t// in\n    tag_220:\n      swap3\n      pop\n      pop\n      dup2\n      swap1\n      sstore\n      pop\n        /* \"youtube-course/store.sol\":3784:3793  _quantity */\n      dup3\n        /* \"youtube-course/store.sol\":3751:3763  userPurchase */\n      0x01\n        /* \"youtube-course/store.sol\":3751:3775  userPurchase[msg.sender] */\n      0x00\n        /* \"youtube-course/store.sol\":3764:3774  msg.sender */\n      caller\n        /* \"youtube-course/store.sol\":3751:3775  userPurchase[msg.sender] */\n      0xffffffffffffffffffffffffffffffffffffffff\n      and\n      0xffffffffffffffffffffffffffffffffffffffff\n      and\n      dup2\n      mstore\n      0x20\n      add\n      swap1\n      dup2\n      mstore\n      0x20\n      add\n      0x00\n      keccak256\n        /* \"youtube-course/store.sol\":3751:3780  userPurchase[msg.sender][_id] */\n      0x00\n        /* \"youtube-course/store.sol\":3776:3779  _id */\n      dup7\n        /* \"youtube-course/store.sol\":3751:3780  userPurchase[msg.sender][_id] */\n      dup2\n      mstore\n      0x20\n      add\n      swap1\n      dup2\n      mstore\n      0x20\n      add\n      0x00\n      keccak256\n      0x00\n        /* \"youtube-course/store.sol\":3751:3793  userPurchase[msg.sender][_id] -= _quantity */\n      dup3\n      dup3\n      sload\n      tag_221\n      swap2\n      swap1\n      tag_156\n      jump\t// in\n    tag_221:\n      swap3\n      pop\n      pop\n      dup2\n      swap1\n      sstore\n      pop\n        /* \"youtube-course/store.sol\":3827:3836  _quantity */\n      dup3\n        /* \"youtube-course/store.sol\":3803:3818  productPurchase */\n      0x02\n        /* \"youtube-course/store.sol\":3803:3823  productPurchase[_id] */\n      0x00\n        /* \"youtube-course/store.sol\":3819:3822  _id */\n      dup7\n        /* \"youtube-course/store.sol\":3803:3823  productPurchase[_id] */\n      dup2\n      mstore\n      0x20\n      add\n      swap1\n      dup2\n      mstore\n      0x20\n      add\n      0x00\n      keccak256\n      0x00\n        /* \"youtube-course/store.sol\":3803:3836  productPurchase[_id] -= _quantity */\n      dup3\n      dup3\n      sload\n      tag_222\n      swap2\n      swap1\n      tag_156\n      jump\t// in\n    tag_222:\n      swap3\n      pop\n      pop\n      dup2\n      swap1\n      sstore\n      pop\n        /* \"youtube-course/store.sol\":3854:3864  msg.sender */\n      caller\n        /* \"youtube-course/store.sol\":3846:3874  payable(msg.sender).transfer */\n      0xffffffffffffffffffffffffffffffffffffffff\n      and\n        /* \"youtube-course/store.sol\":3846:3901  payable(msg.sender).transfer(_quantity * product.price) */\n      0x08fc\n        /* \"youtube-course/store.sol\":3887:3894  product */\n      dup3\n        /* \"youtube-course/store.sol\":3887:3900  product.price */\n      0x03\n      add\n      sload\n        /* \"youtube-course/store.sol\":3875:3884  _quantity */\n      dup6\n        /* \"youtube-course/store.sol\":3875:3900  _quantity * product.price */\n      tag_223\n      swap2\n      swap1\n      tag_152\n      jump\t// in\n    tag_223:\n        /* \"youtube-course/store.sol\":3846:3901  payable(msg.sender).transfer(_quantity * product.price) */\n      swap1\n      dup2\n      iszero\n      mul\n      swap1\n      mload(0x40)\n      0x00\n      mload(0x40)\n      dup1\n      dup4\n      sub\n      dup2\n      dup6\n      dup9\n      dup9\n      call\n      swap4\n      pop\n      pop\n      pop\n      pop\n      iszero\n      dup1\n      iszero\n      tag_225\n      jumpi\n      returndatasize\n      0x00\n      dup1\n      returndatacopy\n      revert(0x00, returndatasize)\n    tag_225:\n      pop\n        /* \"youtube-course/store.sol\":3917:3951  Refund(msg.sender, _id, _quantity) */\n      0x73f04af9dcc582a923ec15d3eea990fe34adabfff2879e28d44572e01a54abb6\n        /* \"youtube-course/store.sol\":3924:3934  msg.sender */\n      caller\n        /* \"youtube-course/store.sol\":3936:3939  _id */\n      dup6\n        /* \"youtube-course/store.sol\":3941:3950  _quantity */\n      dup6\n        /* \"youtube-course/store.sol\":3917:3951  Refund(msg.sender, _id, _quantity) */\n      mload(0x40)\n      tag_226\n      swap4\n      swap3\n      swap2\n      swap1\n      tag_227\n      jump\t// in\n    tag_226:\n      mload(0x40)\n      dup1\n      swap2\n      sub\n      swap1\n      log1\n        /* \"youtube-course/store.sol\":3398:3958  {... */\n      pop\n      pop\n        /* \"youtube-course/store.sol\":3341:3958  function refund(uint256 _id, uint256 _quantity) external {... */\n      pop\n      pop\n      jump\t// out\n        /* \"youtube-course/store.sol\":208:275  mapping(address => mapping(uint256 => uint256)) public userPurchase */\n    tag_70:\n      mstore(0x20, 0x01)\n      dup2\n      0x00\n      mstore\n      mstore(0x20, keccak256(0x00, 0x40))\n      dup1\n      0x00\n      mstore\n      keccak256(0x00, 0x40)\n      0x00\n      swap2\n      pop\n      swap2\n      pop\n      pop\n      sload\n      dup2\n      jump\t// out\n        /* \"@openzeppelin/contracts/access/Ownable.sol\":2293:2394  function renounceOwnership() public virtual onlyOwner {... */\n    tag_74:\n        /* \"@openzeppelin/contracts/access/Ownable.sol\":1531:1544  _checkOwner() */\n      tag_229\n        /* \"@openzeppelin/contracts/access/Ownable.sol\":1531:1542  _checkOwner */\n      tag_127\n        /* \"@openzeppelin/contracts/access/Ownable.sol\":1531:1544  _checkOwner() */\n      jump\t// in\n    tag_229:\n        /* \"@openzeppelin/contracts/access/Ownable.sol\":2357:2387  _transferOwnership(address(0)) */\n      tag_231\n        /* \"@openzeppelin/contracts/access/Ownable.sol\":2384:2385  0 */\n      0x00\n        /* \"@openzeppelin/contracts/access/Ownable.sol\":2357:2375  _transferOwnership */\n      tag_232\n        /* \"@openzeppelin/contracts/access/Ownable.sol\":2357:2387  _transferOwnership(address(0)) */\n      jump\t// in\n    tag_231:\n        /* \"@openzeppelin/contracts/access/Ownable.sol\":2293:2394  function renounceOwnership() public virtual onlyOwner {... */\n      jump\t// out\n        /* \"youtube-course/store.sol\":5870:6031  function updatePrice(uint256 _id, uint256 _price) external onlyOwner {... */\n    tag_78:\n        /* \"@openzeppelin/contracts/access/Ownable.sol\":1531:1544  _checkOwner() */\n      tag_234\n        /* \"@openzeppelin/contracts/access/Ownable.sol\":1531:1542  _checkOwner */\n      tag_127\n        /* \"@openzeppelin/contracts/access/Ownable.sol\":1531:1544  _checkOwner() */\n      jump\t// in\n    tag_234:\n        /* \"youtube-course/store.sol\":5949:5972  Product storage product */\n      0x00\n        /* \"youtube-course/store.sol\":5975:5992  _findProduct(_id) */\n      tag_236\n        /* \"youtube-course/store.sol\":5988:5991  _id */\n      dup4\n        /* \"youtube-course/store.sol\":5975:5987  _findProduct */\n      tag_176\n        /* \"youtube-course/store.sol\":5975:5992  _findProduct(_id) */\n      jump\t// in\n    tag_236:\n        /* \"youtube-course/store.sol\":5949:5992  Product storage product = _findProduct(_id) */\n      swap1\n      pop\n        /* \"youtube-course/store.sol\":6018:6024  _price */\n      dup2\n        /* \"youtube-course/store.sol\":6002:6009  product */\n      dup2\n        /* \"youtube-course/store.sol\":6002:6015  product.price */\n      0x03\n      add\n        /* \"youtube-course/store.sol\":6002:6024  product.price = _price */\n      dup2\n      swap1\n      sstore\n      pop\n        /* \"youtube-course/store.sol\":5939:6031  {... */\n      pop\n        /* \"youtube-course/store.sol\":5870:6031  function updatePrice(uint256 _id, uint256 _price) external onlyOwner {... */\n      pop\n      pop\n      jump\t// out\n        /* \"@openzeppelin/contracts/access/Ownable.sol\":1638:1723  function owner() public view virtual returns (address) {... */\n    tag_81:\n        /* \"@openzeppelin/contracts/access/Ownable.sol\":1684:1691  address */\n      0x00\n        /* \"@openzeppelin/contracts/access/Ownable.sol\":1710:1716  _owner */\n      dup1\n      0x00\n      swap1\n      sload\n      swap1\n      0x0100\n      exp\n      swap1\n      div\n      0xffffffffffffffffffffffffffffffffffffffff\n      and\n        /* \"@openzeppelin/contracts/access/Ownable.sol\":1703:1716  return _owner */\n      swap1\n      pop\n        /* \"@openzeppelin/contracts/access/Ownable.sol\":1638:1723  function owner() public view virtual returns (address) {... */\n      swap1\n      jump\t// out\n        /* \"youtube-course/store.sol\":2045:2360  function getTotalRevenue() public view returns(uint256) {... */\n    tag_86:\n        /* \"youtube-course/store.sol\":2092:2099  uint256 */\n      0x00\n        /* \"youtube-course/store.sol\":2111:2131  uint256 totalRevenue */\n      dup1\n        /* \"youtube-course/store.sol\":2134:2135  0 */\n      0x00\n        /* \"youtube-course/store.sol\":2111:2135  uint256 totalRevenue = 0 */\n      swap1\n      pop\n        /* \"youtube-course/store.sol\":2151:2157  uint i */\n      0x00\n        /* \"youtube-course/store.sol\":2146:2324  for (uint i = 0; i < products.length; i++) {... */\n    tag_239:\n        /* \"youtube-course/store.sol\":2167:2175  products */\n      0x04\n        /* \"youtube-course/store.sol\":2167:2182  products.length */\n      dup1\n      sload\n      swap1\n      pop\n        /* \"youtube-course/store.sol\":2163:2164  i */\n      dup2\n        /* \"youtube-course/store.sol\":2163:2182  i < products.length */\n      lt\n        /* \"youtube-course/store.sol\":2146:2324  for (uint i = 0; i < products.length; i++) {... */\n      iszero\n      tag_240\n      jumpi\n        /* \"youtube-course/store.sol\":2203:2226  Product storage product */\n      0x00\n        /* \"youtube-course/store.sol\":2229:2237  products */\n      0x04\n        /* \"youtube-course/store.sol\":2238:2239  i */\n      dup3\n        /* \"youtube-course/store.sol\":2229:2240  products[i] */\n      dup2\n      sload\n      dup2\n      lt\n      tag_242\n      jumpi\n      tag_243\n      tag_142\n      jump\t// in\n    tag_243:\n    tag_242:\n      swap1\n      0x00\n      mstore\n      keccak256(0x00, 0x20)\n      swap1\n      0x04\n      mul\n      add\n        /* \"youtube-course/store.sol\":2203:2240  Product storage product = products[i] */\n      swap1\n      pop\n        /* \"youtube-course/store.sol\":2300:2307  product */\n      dup1\n        /* \"youtube-course/store.sol\":2300:2313  product.price */\n      0x03\n      add\n      sload\n        /* \"youtube-course/store.sol\":2270:2285  productPurchase */\n      0x02\n        /* \"youtube-course/store.sol\":2270:2297  productPurchase[product.id] */\n      0x00\n        /* \"youtube-course/store.sol\":2286:2293  product */\n      dup4\n        /* \"youtube-course/store.sol\":2286:2296  product.id */\n      0x01\n      add\n      sload\n        /* \"youtube-course/store.sol\":2270:2297  productPurchase[product.id] */\n      dup2\n      mstore\n      0x20\n      add\n      swap1\n      dup2\n      mstore\n      0x20\n      add\n      0x00\n      keccak256\n      sload\n        /* \"youtube-course/store.sol\":2270:2313  productPurchase[product.id] * product.price */\n      tag_245\n      swap2\n      swap1\n      tag_152\n      jump\t// in\n    tag_245:\n        /* \"youtube-course/store.sol\":2254:2313  totalRevenue += productPurchase[product.id] * product.price */\n      dup4\n      tag_246\n      swap2\n      swap1\n      tag_159\n      jump\t// in\n    tag_246:\n      swap3\n      pop\n        /* \"youtube-course/store.sol\":2189:2324  {... */\n      pop\n        /* \"youtube-course/store.sol\":2184:2187  i++ */\n      dup1\n      dup1\n      0x01\n      add\n      swap2\n      pop\n      pop\n        /* \"youtube-course/store.sol\":2146:2324  for (uint i = 0; i < products.length; i++) {... */\n      jump(tag_239)\n    tag_240:\n      pop\n        /* \"youtube-course/store.sol\":2341:2353  totalRevenue */\n      dup1\n        /* \"youtube-course/store.sol\":2334:2353  return totalRevenue */\n      swap2\n      pop\n      pop\n        /* \"youtube-course/store.sol\":2045:2360  function getTotalRevenue() public view returns(uint256) {... */\n      swap1\n      jump\t// out\n        /* \"youtube-course/store.sol\":2721:3335  function buy(uint256 _id, uint256 _quantity, string calldata _discountCode) external payable {... */\n    tag_91:\n        /* \"youtube-course/store.sol\":2841:2842  0 */\n      0x00\n        /* \"youtube-course/store.sol\":2828:2837  _quantity */\n      dup4\n        /* \"youtube-course/store.sol\":2828:2842  _quantity <= 0 */\n      gt\n        /* \"youtube-course/store.sol\":2824:2865  if (_quantity <= 0) revert ZeroQuantity() */\n      tag_248\n      jumpi\n        /* \"youtube-course/store.sol\":2851:2865  ZeroQuantity() */\n      mload(0x40)\n      0xf4f5b73300000000000000000000000000000000000000000000000000000000\n      dup2\n      mstore\n      0x04\n      add\n      mload(0x40)\n      dup1\n      swap2\n      sub\n      swap1\n      revert\n        /* \"youtube-course/store.sol\":2824:2865  if (_quantity <= 0) revert ZeroQuantity() */\n    tag_248:\n        /* \"youtube-course/store.sol\":2895:2904  _quantity */\n      dup3\n        /* \"youtube-course/store.sol\":2879:2892  getStock(_id) */\n      tag_249\n        /* \"youtube-course/store.sol\":2888:2891  _id */\n      dup6\n        /* \"youtube-course/store.sol\":2879:2887  getStock */\n      tag_46\n        /* \"youtube-course/store.sol\":2879:2892  getStock(_id) */\n      jump\t// in\n    tag_249:\n        /* \"youtube-course/store.sol\":2879:2904  getStock(_id) < _quantity */\n      lt\n        /* \"youtube-course/store.sol\":2875:2925  if (getStock(_id) < _quantity) revert OutOfStock() */\n      iszero\n      tag_250\n      jumpi\n        /* \"youtube-course/store.sol\":2913:2925  OutOfStock() */\n      mload(0x40)\n      0xade1cb4100000000000000000000000000000000000000000000000000000000\n      dup2\n      mstore\n      0x04\n      add\n      mload(0x40)\n      dup1\n      swap2\n      sub\n      swap1\n      revert\n        /* \"youtube-course/store.sol\":2875:2925  if (getStock(_id) < _quantity) revert OutOfStock() */\n    tag_250:\n        /* \"youtube-course/store.sol\":2936:2956  uint256 productPrice */\n      0x00\n        /* \"youtube-course/store.sol\":2959:2972  getPrice(_id) */\n      tag_251\n        /* \"youtube-course/store.sol\":2968:2971  _id */\n      dup6\n        /* \"youtube-course/store.sol\":2959:2967  getPrice */\n      tag_115\n        /* \"youtube-course/store.sol\":2959:2972  getPrice(_id) */\n      jump\t// in\n    tag_251:\n        /* \"youtube-course/store.sol\":2936:2972  uint256 productPrice = getPrice(_id) */\n      swap1\n      pop\n        /* \"youtube-course/store.sol\":3044:3047  100 */\n      0x64\n        /* \"youtube-course/store.sol\":3013:3026  discountCodes */\n      0x03\n        /* \"youtube-course/store.sol\":3027:3040  _discountCode */\n      dup5\n      dup5\n        /* \"youtube-course/store.sol\":3013:3041  discountCodes[_discountCode] */\n      mload(0x40)\n      tag_252\n      swap3\n      swap2\n      swap1\n      tag_150\n      jump\t// in\n    tag_252:\n      swap1\n      dup2\n      mstore\n      0x20\n      add\n      mload(0x40)\n      dup1\n      swap2\n      sub\n      swap1\n      keccak256\n      sload\n        /* \"youtube-course/store.sol\":2998:3010  productPrice */\n      dup3\n        /* \"youtube-course/store.sol\":2998:3041  productPrice * discountCodes[_discountCode] */\n      tag_253\n      swap2\n      swap1\n      tag_152\n      jump\t// in\n    tag_253:\n        /* \"youtube-course/store.sol\":2998:3047  productPrice * discountCodes[_discountCode] / 100 */\n      tag_254\n      swap2\n      swap1\n      tag_154\n      jump\t// in\n    tag_254:\n        /* \"youtube-course/store.sol\":2982:3047  productPrice -= productPrice * discountCodes[_discountCode] / 100 */\n      dup2\n      tag_255\n      swap2\n      swap1\n      tag_156\n      jump\t// in\n    tag_255:\n      swap1\n      pop\n        /* \"youtube-course/store.sol\":3057:3075  uint256 totalPrice */\n      0x00\n        /* \"youtube-course/store.sol\":3093:3102  _quantity */\n      dup5\n        /* \"youtube-course/store.sol\":3078:3090  productPrice */\n      dup3\n        /* \"youtube-course/store.sol\":3078:3102  productPrice * _quantity */\n      tag_256\n      swap2\n      swap1\n      tag_152\n      jump\t// in\n    tag_256:\n        /* \"youtube-course/store.sol\":3057:3102  uint256 totalPrice = productPrice * _quantity */\n      swap1\n      pop\n        /* \"youtube-course/store.sol\":3128:3138  totalPrice */\n      dup1\n        /* \"youtube-course/store.sol\":3116:3125  msg.value */\n      callvalue\n        /* \"youtube-course/store.sol\":3116:3138  msg.value < totalPrice */\n      lt\n        /* \"youtube-course/store.sol\":3112:3163  if (msg.value < totalPrice) revert NotEnoughFunds() */\n      iszero\n      tag_257\n      jumpi\n        /* \"youtube-course/store.sol\":3147:3163  NotEnoughFunds() */\n      mload(0x40)\n      0x81b5ad6800000000000000000000000000000000000000000000000000000000\n      dup2\n      mstore\n      0x04\n      add\n      mload(0x40)\n      dup1\n      swap2\n      sub\n      swap1\n      revert\n        /* \"youtube-course/store.sol\":3112:3163  if (msg.value < totalPrice) revert NotEnoughFunds() */\n    tag_257:\n        /* \"youtube-course/store.sol\":3174:3213  _buyProcess(msg.sender, _id, _quantity) */\n      tag_258\n        /* \"youtube-course/store.sol\":3186:3196  msg.sender */\n      caller\n        /* \"youtube-course/store.sol\":3198:3201  _id */\n      dup8\n        /* \"youtube-course/store.sol\":3203:3212  _quantity */\n      dup8\n        /* \"youtube-course/store.sol\":3174:3185  _buyProcess */\n      tag_169\n        /* \"youtube-course/store.sol\":3174:3213  _buyProcess(msg.sender, _id, _quantity) */\n      jump\t// in\n    tag_258:\n        /* \"youtube-course/store.sol\":3240:3250  totalPrice */\n      dup1\n        /* \"youtube-course/store.sol\":3228:3237  msg.value */\n      callvalue\n        /* \"youtube-course/store.sol\":3228:3250  msg.value > totalPrice */\n      gt\n        /* \"youtube-course/store.sol\":3224:3329  if (msg.value > totalPrice) {... */\n      iszero\n      tag_259\n      jumpi\n        /* \"youtube-course/store.sol\":3274:3284  msg.sender */\n      caller\n        /* \"youtube-course/store.sol\":3266:3294  payable(msg.sender).transfer */\n      0xffffffffffffffffffffffffffffffffffffffff\n      and\n        /* \"youtube-course/store.sol\":3266:3318  payable(msg.sender).transfer(msg.value - totalPrice) */\n      0x08fc\n        /* \"youtube-course/store.sol\":3307:3317  totalPrice */\n      dup3\n        /* \"youtube-course/store.sol\":3295:3304  msg.value */\n      callvalue\n        /* \"youtube-course/store.sol\":3295:3317  msg.value - totalPrice */\n      tag_260\n      swap2\n      swap1\n      tag_156\n      jump\t// in\n    tag_260:\n        /* \"youtube-course/store.sol\":3266:3318  payable(msg.sender).transfer(msg.value - totalPrice) */\n      swap1\n      dup2\n      iszero\n      mul\n      swap1\n      mload(0x40)\n      0x00\n      mload(0x40)\n      dup1\n      dup4\n      sub\n      dup2\n      dup6\n      dup9\n      dup9\n      call\n      swap4\n      pop\n      pop\n      pop\n      pop\n      iszero\n      dup1\n      iszero\n      tag_262\n      jumpi\n      returndatasize\n      0x00\n      dup1\n      returndatacopy\n      revert(0x00, returndatasize)\n    tag_262:\n      pop\n        /* \"youtube-course/store.sol\":3224:3329  if (msg.value > totalPrice) {... */\n    tag_259:\n        /* \"youtube-course/store.sol\":2814:3335  {... */\n      pop\n      pop\n        /* \"youtube-course/store.sol\":2721:3335  function buy(uint256 _id, uint256 _quantity, string calldata _discountCode) external payable {... */\n      pop\n      pop\n      pop\n      pop\n      jump\t// out\n        /* \"youtube-course/store.sol\":5398:5608  function addDiscountCode(string calldata _code, uint256 _discount) external onlyOwner {... */\n    tag_96:\n        /* \"@openzeppelin/contracts/access/Ownable.sol\":1531:1544  _checkOwner() */\n      tag_264\n        /* \"@openzeppelin/contracts/access/Ownable.sol\":1531:1542  _checkOwner */\n      tag_127\n        /* \"@openzeppelin/contracts/access/Ownable.sol\":1531:1544  _checkOwner() */\n      jump\t// in\n    tag_264:\n        /* \"youtube-course/store.sol\":5511:5512  0 */\n      0x00\n        /* \"youtube-course/store.sol\":5498:5507  _discount */\n      dup2\n        /* \"youtube-course/store.sol\":5498:5512  _discount <= 0 */\n      gt\n      iszero\n        /* \"youtube-course/store.sol\":5498:5531  _discount <= 0 || _discount > 100 */\n      dup1\n      tag_266\n      jumpi\n      pop\n        /* \"youtube-course/store.sol\":5528:5531  100 */\n      0x64\n        /* \"youtube-course/store.sol\":5516:5525  _discount */\n      dup2\n        /* \"youtube-course/store.sol\":5516:5531  _discount > 100 */\n      gt\n        /* \"youtube-course/store.sol\":5498:5531  _discount <= 0 || _discount > 100 */\n    tag_266:\n        /* \"youtube-course/store.sol\":5494:5559  if (_discount <= 0 || _discount > 100) revert IncorrectDiscount() */\n      iszero\n      tag_267\n      jumpi\n        /* \"youtube-course/store.sol\":5540:5559  IncorrectDiscount() */\n      mload(0x40)\n      0x8478aedc00000000000000000000000000000000000000000000000000000000\n      dup2\n      mstore\n      0x04\n      add\n      mload(0x40)\n      dup1\n      swap2\n      sub\n      swap1\n      revert\n        /* \"youtube-course/store.sol\":5494:5559  if (_discount <= 0 || _discount > 100) revert IncorrectDiscount() */\n    tag_267:\n        /* \"youtube-course/store.sol\":5592:5601  _discount */\n      dup1\n        /* \"youtube-course/store.sol\":5569:5582  discountCodes */\n      0x03\n        /* \"youtube-course/store.sol\":5583:5588  _code */\n      dup5\n      dup5\n        /* \"youtube-course/store.sol\":5569:5589  discountCodes[_code] */\n      mload(0x40)\n      tag_268\n      swap3\n      swap2\n      swap1\n      tag_150\n      jump\t// in\n    tag_268:\n      swap1\n      dup2\n      mstore\n      0x20\n      add\n      mload(0x40)\n      dup1\n      swap2\n      sub\n      swap1\n      keccak256\n        /* \"youtube-course/store.sol\":5569:5601  discountCodes[_code] = _discount */\n      dup2\n      swap1\n      sstore\n      pop\n        /* \"youtube-course/store.sol\":5398:5608  function addDiscountCode(string calldata _code, uint256 _discount) external onlyOwner {... */\n      pop\n      pop\n      pop\n      jump\t// out\n        /* \"youtube-course/store.sol\":6037:6198  function updateStock(uint256 _id, uint256 _stock) external onlyOwner {... */\n    tag_100:\n        /* \"@openzeppelin/contracts/access/Ownable.sol\":1531:1544  _checkOwner() */\n      tag_270\n        /* \"@openzeppelin/contracts/access/Ownable.sol\":1531:1542  _checkOwner */\n      tag_127\n        /* \"@openzeppelin/contracts/access/Ownable.sol\":1531:1544  _checkOwner() */\n      jump\t// in\n    tag_270:\n        /* \"youtube-course/store.sol\":6116:6139  Product storage product */\n      0x00\n        /* \"youtube-course/store.sol\":6142:6159  _findProduct(_id) */\n      tag_272\n        /* \"youtube-course/store.sol\":6155:6158  _id */\n      dup4\n        /* \"youtube-course/store.sol\":6142:6154  _findProduct */\n      tag_176\n        /* \"youtube-course/store.sol\":6142:6159  _findProduct(_id) */\n      jump\t// in\n    tag_272:\n        /* \"youtube-course/store.sol\":6116:6159  Product storage product = _findProduct(_id) */\n      swap1\n      pop\n        /* \"youtube-course/store.sol\":6185:6191  _stock */\n      dup2\n        /* \"youtube-course/store.sol\":6169:6176  product */\n      dup2\n        /* \"youtube-course/store.sol\":6169:6182  product.stock */\n      0x02\n      add\n        /* \"youtube-course/store.sol\":6169:6191  product.stock = _stock */\n      dup2\n      swap1\n      sstore\n      pop\n        /* \"youtube-course/store.sol\":6106:6198  {... */\n      pop\n        /* \"youtube-course/store.sol\":6037:6198  function updateStock(uint256 _id, uint256 _stock) external onlyOwner {... */\n      pop\n      pop\n      jump\t// out\n        /* \"youtube-course/store.sol\":2366:2715  function getUserPurchase(address _userAddress) public view returns(uint256) {... */\n    tag_105:\n        /* \"youtube-course/store.sol\":2433:2440  uint256 */\n      0x00\n        /* \"youtube-course/store.sol\":2452:2473  uint256 userPurchased */\n      dup1\n        /* \"youtube-course/store.sol\":2476:2477  0 */\n      0x00\n        /* \"youtube-course/store.sol\":2452:2477  uint256 userPurchased = 0 */\n      swap1\n      pop\n        /* \"youtube-course/store.sol\":2493:2499  uint i */\n      0x00\n        /* \"youtube-course/store.sol\":2488:2678  for (uint i = 0; i < products.length; i++) {... */\n    tag_274:\n        /* \"youtube-course/store.sol\":2509:2517  products */\n      0x04\n        /* \"youtube-course/store.sol\":2509:2524  products.length */\n      dup1\n      sload\n      swap1\n      pop\n        /* \"youtube-course/store.sol\":2505:2506  i */\n      dup2\n        /* \"youtube-course/store.sol\":2505:2524  i < products.length */\n      lt\n        /* \"youtube-course/store.sol\":2488:2678  for (uint i = 0; i < products.length; i++) {... */\n      iszero\n      tag_275\n      jumpi\n        /* \"youtube-course/store.sol\":2545:2568  Product storage product */\n      0x00\n        /* \"youtube-course/store.sol\":2571:2579  products */\n      0x04\n        /* \"youtube-course/store.sol\":2580:2581  i */\n      dup3\n        /* \"youtube-course/store.sol\":2571:2582  products[i] */\n      dup2\n      sload\n      dup2\n      lt\n      tag_277\n      jumpi\n      tag_278\n      tag_142\n      jump\t// in\n    tag_278:\n    tag_277:\n      swap1\n      0x00\n      mstore\n      keccak256(0x00, 0x20)\n      swap1\n      0x04\n      mul\n      add\n        /* \"youtube-course/store.sol\":2545:2582  Product storage product = products[i] */\n      swap1\n      pop\n        /* \"youtube-course/store.sol\":2654:2661  product */\n      dup1\n        /* \"youtube-course/store.sol\":2654:2667  product.price */\n      0x03\n      add\n      sload\n        /* \"youtube-course/store.sol\":2613:2625  userPurchase */\n      0x01\n        /* \"youtube-course/store.sol\":2613:2639  userPurchase[_userAddress] */\n      0x00\n        /* \"youtube-course/store.sol\":2626:2638  _userAddress */\n      dup8\n        /* \"youtube-course/store.sol\":2613:2639  userPurchase[_userAddress] */\n      0xffffffffffffffffffffffffffffffffffffffff\n      and\n      0xffffffffffffffffffffffffffffffffffffffff\n      and\n      dup2\n      mstore\n      0x20\n      add\n      swap1\n      dup2\n      mstore\n      0x20\n      add\n      0x00\n      keccak256\n        /* \"youtube-course/store.sol\":2613:2651  userPurchase[_userAddress][product.id] */\n      0x00\n        /* \"youtube-course/store.sol\":2640:2647  product */\n      dup4\n        /* \"youtube-course/store.sol\":2640:2650  product.id */\n      0x01\n      add\n      sload\n        /* \"youtube-course/store.sol\":2613:2651  userPurchase[_userAddress][product.id] */\n      dup2\n      mstore\n      0x20\n      add\n      swap1\n      dup2\n      mstore\n      0x20\n      add\n      0x00\n      keccak256\n      sload\n        /* \"youtube-course/store.sol\":2613:2667  userPurchase[_userAddress][product.id] * product.price */\n      tag_280\n      swap2\n      swap1\n      tag_152\n      jump\t// in\n    tag_280:\n        /* \"youtube-course/store.sol\":2596:2667  userPurchased += userPurchase[_userAddress][product.id] * product.price */\n      dup4\n      tag_281\n      swap2\n      swap1\n      tag_159\n      jump\t// in\n    tag_281:\n      swap3\n      pop\n        /* \"youtube-course/store.sol\":2531:2678  {... */\n      pop\n        /* \"youtube-course/store.sol\":2526:2529  i++ */\n      dup1\n      dup1\n      0x01\n      add\n      swap2\n      pop\n      pop\n        /* \"youtube-course/store.sol\":2488:2678  for (uint i = 0; i < products.length; i++) {... */\n      jump(tag_274)\n    tag_275:\n      pop\n        /* \"youtube-course/store.sol\":2695:2708  userPurchased */\n      dup1\n        /* \"youtube-course/store.sol\":2688:2708  return userPurchased */\n      swap2\n      pop\n      pop\n        /* \"youtube-course/store.sol\":2366:2715  function getUserPurchase(address _userAddress) public view returns(uint256) {... */\n      swap2\n      swap1\n      pop\n      jump\t// out\n        /* \"youtube-course/store.sol\":1094:1187  function getProducts() public view returns(Product[] memory) {... */\n    tag_109:\n        /* \"youtube-course/store.sol\":1137:1153  Product[] memory */\n      0x60\n        /* \"youtube-course/store.sol\":1172:1180  products */\n      0x04\n        /* \"youtube-course/store.sol\":1165:1180  return products */\n      dup1\n      sload\n      dup1\n      0x20\n      mul\n      0x20\n      add\n      mload(0x40)\n      swap1\n      dup2\n      add\n      0x40\n      mstore\n      dup1\n      swap3\n      swap2\n      swap1\n      dup2\n      dup2\n      mstore\n      0x20\n      add\n      0x00\n      swap1\n    tag_283:\n      dup3\n      dup3\n      lt\n      iszero\n      tag_284\n      jumpi\n      dup4\n      dup3\n      swap1\n      0x00\n      mstore\n      keccak256(0x00, 0x20)\n      swap1\n      0x04\n      mul\n      add\n      mload(0x40)\n      dup1\n      0x80\n      add\n      0x40\n      mstore\n      swap1\n      dup2\n      0x00\n      dup3\n      add\n      dup1\n      sload\n      tag_286\n      swap1\n      tag_287\n      jump\t// in\n    tag_286:\n      dup1\n      0x1f\n      add\n      0x20\n      dup1\n      swap2\n      div\n      mul\n      0x20\n      add\n      mload(0x40)\n      swap1\n      dup2\n      add\n      0x40\n      mstore\n      dup1\n      swap3\n      swap2\n      swap1\n      dup2\n      dup2\n      mstore\n      0x20\n      add\n      dup3\n      dup1\n      sload\n      tag_288\n      swap1\n      tag_287\n      jump\t// in\n    tag_288:\n      dup1\n      iszero\n      tag_289\n      jumpi\n      dup1\n      0x1f\n      lt\n      tag_290\n      jumpi\n      0x0100\n      dup1\n      dup4\n      sload\n      div\n      mul\n      dup4\n      mstore\n      swap2\n      0x20\n      add\n      swap2\n      jump(tag_289)\n    tag_290:\n      dup3\n      add\n      swap2\n      swap1\n      0x00\n      mstore\n      keccak256(0x00, 0x20)\n      swap1\n    tag_291:\n      dup2\n      sload\n      dup2\n      mstore\n      swap1\n      0x01\n      add\n      swap1\n      0x20\n      add\n      dup1\n      dup4\n      gt\n      tag_291\n      jumpi\n      dup3\n      swap1\n      sub\n      0x1f\n      and\n      dup3\n      add\n      swap2\n    tag_289:\n      pop\n      pop\n      pop\n      pop\n      pop\n      dup2\n      mstore\n      0x20\n      add\n      0x01\n      dup3\n      add\n      sload\n      dup2\n      mstore\n      0x20\n      add\n      0x02\n      dup3\n      add\n      sload\n      dup2\n      mstore\n      0x20\n      add\n      0x03\n      dup3\n      add\n      sload\n      dup2\n      mstore\n      pop\n      pop\n      dup2\n      mstore\n      0x20\n      add\n      swap1\n      0x01\n      add\n      swap1\n      jump(tag_283)\n    tag_284:\n      pop\n      pop\n      pop\n      pop\n      swap1\n      pop\n        /* \"youtube-course/store.sol\":1094:1187  function getProducts() public view returns(Product[] memory) {... */\n      swap1\n      jump\t// out\n        /* \"youtube-course/store.sol\":6204:6354  function getPrice(uint256 _id) public view returns(uint256) {... */\n    tag_115:\n        /* \"youtube-course/store.sol\":6255:6262  uint256 */\n      0x00\n        /* \"youtube-course/store.sol\":6274:6297  Product storage product */\n      dup1\n        /* \"youtube-course/store.sol\":6300:6317  _findProduct(_id) */\n      tag_293\n        /* \"youtube-course/store.sol\":6313:6316  _id */\n      dup4\n        /* \"youtube-course/store.sol\":6300:6312  _findProduct */\n      tag_176\n        /* \"youtube-course/store.sol\":6300:6317  _findProduct(_id) */\n      jump\t// in\n    tag_293:\n        /* \"youtube-course/store.sol\":6274:6317  Product storage product = _findProduct(_id) */\n      swap1\n      pop\n        /* \"youtube-course/store.sol\":6334:6341  product */\n      dup1\n        /* \"youtube-course/store.sol\":6334:6347  product.price */\n      0x03\n      add\n      sload\n        /* \"youtube-course/store.sol\":6327:6347  return product.price */\n      swap2\n      pop\n      pop\n        /* \"youtube-course/store.sol\":6204:6354  function getPrice(uint256 _id) public view returns(uint256) {... */\n      swap2\n      swap1\n      pop\n      jump\t// out\n        /* \"youtube-course/store.sol\":5614:5864  function deleteProduct(uint256 _id) external onlyOwner {... */\n    tag_120:\n        /* \"@openzeppelin/contracts/access/Ownable.sol\":1531:1544  _checkOwner() */\n      tag_295\n        /* \"@openzeppelin/contracts/access/Ownable.sol\":1531:1542  _checkOwner */\n      tag_127\n        /* \"@openzeppelin/contracts/access/Ownable.sol\":1531:1544  _checkOwner() */\n      jump\t// in\n    tag_295:\n        /* \"youtube-course/store.sol\":5680:5691  bool status */\n      0x00\n        /* \"youtube-course/store.sol\":5693:5706  uint256 index */\n      dup1\n        /* \"youtube-course/store.sol\":5710:5729  _findIndexById(_id) */\n      tag_297\n        /* \"youtube-course/store.sol\":5725:5728  _id */\n      dup4\n        /* \"youtube-course/store.sol\":5710:5724  _findIndexById */\n      tag_298\n        /* \"youtube-course/store.sol\":5710:5729  _findIndexById(_id) */\n      jump\t// in\n    tag_297:\n        /* \"youtube-course/store.sol\":5679:5729  (bool status, uint256 index) = _findIndexById(_id) */\n      swap2\n      pop\n      swap2\n      pop\n        /* \"youtube-course/store.sol\":5744:5750  status */\n      dup2\n        /* \"youtube-course/store.sol\":5739:5775  if (!status) revert IdDoesNotExist() */\n      tag_299\n      jumpi\n        /* \"youtube-course/store.sol\":5759:5775  IdDoesNotExist() */\n      mload(0x40)\n      0xc270964900000000000000000000000000000000000000000000000000000000\n      dup2\n      mstore\n      0x04\n      add\n      mload(0x40)\n      dup1\n      swap2\n      sub\n      swap1\n      revert\n        /* \"youtube-course/store.sol\":5739:5775  if (!status) revert IdDoesNotExist() */\n    tag_299:\n        /* \"youtube-course/store.sol\":5804:5812  products */\n      0x04\n        /* \"youtube-course/store.sol\":5831:5832  1 */\n      0x01\n        /* \"youtube-course/store.sol\":5813:5821  products */\n      0x04\n        /* \"youtube-course/store.sol\":5813:5828  products.length */\n      dup1\n      sload\n      swap1\n      pop\n        /* \"youtube-course/store.sol\":5813:5832  products.length - 1 */\n      tag_300\n      swap2\n      swap1\n      tag_156\n      jump\t// in\n    tag_300:\n        /* \"youtube-course/store.sol\":5804:5833  products[products.length - 1] */\n      dup2\n      sload\n      dup2\n      lt\n      tag_301\n      jumpi\n      tag_302\n      tag_142\n      jump\t// in\n    tag_302:\n    tag_301:\n      swap1\n      0x00\n      mstore\n      keccak256(0x00, 0x20)\n      swap1\n      0x04\n      mul\n      add\n        /* \"youtube-course/store.sol\":5786:5794  products */\n      0x04\n        /* \"youtube-course/store.sol\":5795:5800  index */\n      dup3\n        /* \"youtube-course/store.sol\":5786:5801  products[index] */\n      dup2\n      sload\n      dup2\n      lt\n      tag_304\n      jumpi\n      tag_305\n      tag_142\n      jump\t// in\n    tag_305:\n    tag_304:\n      swap1\n      0x00\n      mstore\n      keccak256(0x00, 0x20)\n      swap1\n      0x04\n      mul\n      add\n        /* \"youtube-course/store.sol\":5786:5833  products[index] = products[products.length - 1] */\n      0x00\n      dup3\n      add\n      dup2\n      0x00\n      add\n      swap1\n      dup2\n      tag_307\n      swap2\n      swap1\n      tag_308\n      jump\t// in\n    tag_307:\n      pop\n      0x01\n      dup3\n      add\n      sload\n      dup2\n      0x01\n      add\n      sstore\n      0x02\n      dup3\n      add\n      sload\n      dup2\n      0x02\n      add\n      sstore\n      0x03\n      dup3\n      add\n      sload\n      dup2\n      0x03\n      add\n      sstore\n      swap1\n      pop\n      pop\n        /* \"youtube-course/store.sol\":5843:5851  products */\n      0x04\n        /* \"youtube-course/store.sol\":5843:5857  products.pop() */\n      dup1\n      sload\n      dup1\n      tag_309\n      jumpi\n      tag_310\n      tag_311\n      jump\t// in\n    tag_310:\n    tag_309:\n      0x01\n      swap1\n      sub\n      dup2\n      dup2\n      swap1\n      0x00\n      mstore\n      keccak256(0x00, 0x20)\n      swap1\n      0x04\n      mul\n      add\n      0x00\n      dup1\n      dup3\n      add\n      0x00\n      tag_313\n      swap2\n      swap1\n      tag_314\n      jump\t// in\n    tag_313:\n      0x01\n      dup3\n      add\n      0x00\n      swap1\n      sstore\n      0x02\n      dup3\n      add\n      0x00\n      swap1\n      sstore\n      0x03\n      dup3\n      add\n      0x00\n      swap1\n      sstore\n      pop\n      pop\n      swap1\n      sstore\n        /* \"youtube-course/store.sol\":5669:5864  {... */\n      pop\n      pop\n        /* \"youtube-course/store.sol\":5614:5864  function deleteProduct(uint256 _id) external onlyOwner {... */\n      pop\n      jump\t// out\n        /* \"@openzeppelin/contracts/access/Ownable.sol\":2543:2758  function transferOwnership(address newOwner) public virtual onlyOwner {... */\n    tag_124:\n        /* \"@openzeppelin/contracts/access/Ownable.sol\":1531:1544  _checkOwner() */\n      tag_316\n        /* \"@openzeppelin/contracts/access/Ownable.sol\":1531:1542  _checkOwner */\n      tag_127\n        /* \"@openzeppelin/contracts/access/Ownable.sol\":1531:1544  _checkOwner() */\n      jump\t// in\n    tag_316:\n        /* \"@openzeppelin/contracts/access/Ownable.sol\":2647:2648  0 */\n      0x00\n        /* \"@openzeppelin/contracts/access/Ownable.sol\":2627:2649  newOwner == address(0) */\n      0xffffffffffffffffffffffffffffffffffffffff\n      and\n        /* \"@openzeppelin/contracts/access/Ownable.sol\":2627:2635  newOwner */\n      dup2\n        /* \"@openzeppelin/contracts/access/Ownable.sol\":2627:2649  newOwner == address(0) */\n      0xffffffffffffffffffffffffffffffffffffffff\n      and\n      sub\n        /* \"@openzeppelin/contracts/access/Ownable.sol\":2623:2714  if (newOwner == address(0)) {... */\n      tag_318\n      jumpi\n        /* \"@openzeppelin/contracts/access/Ownable.sol\":2700:2701  0 */\n      0x00\n        /* \"@openzeppelin/contracts/access/Ownable.sol\":2672:2703  OwnableInvalidOwner(address(0)) */\n      mload(0x40)\n      0x1e4fbdf700000000000000000000000000000000000000000000000000000000\n      dup2\n      mstore\n      0x04\n      add\n      tag_319\n      swap2\n      swap1\n      tag_83\n      jump\t// in\n    tag_319:\n      mload(0x40)\n      dup1\n      swap2\n      sub\n      swap1\n      revert\n        /* \"@openzeppelin/contracts/access/Ownable.sol\":2623:2714  if (newOwner == address(0)) {... */\n    tag_318:\n        /* \"@openzeppelin/contracts/access/Ownable.sol\":2723:2751  _transferOwnership(newOwner) */\n      tag_320\n        /* \"@openzeppelin/contracts/access/Ownable.sol\":2742:2750  newOwner */\n      dup2\n        /* \"@openzeppelin/contracts/access/Ownable.sol\":2723:2741  _transferOwnership */\n      tag_232\n        /* \"@openzeppelin/contracts/access/Ownable.sol\":2723:2751  _transferOwnership(newOwner) */\n      jump\t// in\n    tag_320:\n        /* \"@openzeppelin/contracts/access/Ownable.sol\":2543:2758  function transferOwnership(address newOwner) public virtual onlyOwner {... */\n      pop\n      jump\t// out\n        /* \"@openzeppelin/contracts/access/Ownable.sol\":1796:1958  function _checkOwner() internal view virtual {... */\n    tag_127:\n        /* \"@openzeppelin/contracts/access/Ownable.sol\":1866:1878  _msgSender() */\n      tag_322\n        /* \"@openzeppelin/contracts/access/Ownable.sol\":1866:1876  _msgSender */\n      tag_323\n        /* \"@openzeppelin/contracts/access/Ownable.sol\":1866:1878  _msgSender() */\n      jump\t// in\n    tag_322:\n        /* \"@openzeppelin/contracts/access/Ownable.sol\":1855:1878  owner() != _msgSender() */\n      0xffffffffffffffffffffffffffffffffffffffff\n      and\n        /* \"@openzeppelin/contracts/access/Ownable.sol\":1855:1862  owner() */\n      tag_324\n        /* \"@openzeppelin/contracts/access/Ownable.sol\":1855:1860  owner */\n      tag_81\n        /* \"@openzeppelin/contracts/access/Ownable.sol\":1855:1862  owner() */\n      jump\t// in\n    tag_324:\n        /* \"@openzeppelin/contracts/access/Ownable.sol\":1855:1878  owner() != _msgSender() */\n      0xffffffffffffffffffffffffffffffffffffffff\n      and\n      eq\n        /* \"@openzeppelin/contracts/access/Ownable.sol\":1851:1952  if (owner() != _msgSender()) {... */\n      tag_325\n      jumpi\n        /* \"@openzeppelin/contracts/access/Ownable.sol\":1928:1940  _msgSender() */\n      tag_326\n        /* \"@openzeppelin/contracts/access/Ownable.sol\":1928:1938  _msgSender */\n      tag_323\n        /* \"@openzeppelin/contracts/access/Ownable.sol\":1928:1940  _msgSender() */\n      jump\t// in\n    tag_326:\n        /* \"@openzeppelin/contracts/access/Ownable.sol\":1901:1941  OwnableUnauthorizedAccount(_msgSender()) */\n      mload(0x40)\n      0x118cdaa700000000000000000000000000000000000000000000000000000000\n      dup2\n      mstore\n      0x04\n      add\n      tag_327\n      swap2\n      swap1\n      tag_83\n      jump\t// in\n    tag_327:\n      mload(0x40)\n      dup1\n      swap2\n      sub\n      swap1\n      revert\n        /* \"@openzeppelin/contracts/access/Ownable.sol\":1851:1952  if (owner() != _msgSender()) {... */\n    tag_325:\n        /* \"@openzeppelin/contracts/access/Ownable.sol\":1796:1958  function _checkOwner() internal view virtual {... */\n      jump\t// out\n        /* \"youtube-course/store.sol\":7092:7297  function _isIdExist(uint256 _id) internal view returns(bool) {... */\n    tag_130:\n        /* \"youtube-course/store.sol\":7147:7151  bool */\n      0x00\n        /* \"youtube-course/store.sol\":7168:7174  uint i */\n      dup1\n        /* \"youtube-course/store.sol\":7177:7178  0 */\n      0x00\n        /* \"youtube-course/store.sol\":7168:7178  uint i = 0 */\n      swap1\n      pop\n        /* \"youtube-course/store.sol\":7163:7269  for (uint i = 0; i < products.length; i++) {... */\n    tag_329:\n        /* \"youtube-course/store.sol\":7184:7192  products */\n      0x04\n        /* \"youtube-course/store.sol\":7184:7199  products.length */\n      dup1\n      sload\n      swap1\n      pop\n        /* \"youtube-course/store.sol\":7180:7181  i */\n      dup2\n        /* \"youtube-course/store.sol\":7180:7199  i < products.length */\n      lt\n        /* \"youtube-course/store.sol\":7163:7269  for (uint i = 0; i < products.length; i++) {... */\n      iszero\n      tag_330\n      jumpi\n        /* \"youtube-course/store.sol\":7242:7245  _id */\n      dup3\n        /* \"youtube-course/store.sol\":7224:7232  products */\n      0x04\n        /* \"youtube-course/store.sol\":7233:7234  i */\n      dup3\n        /* \"youtube-course/store.sol\":7224:7235  products[i] */\n      dup2\n      sload\n      dup2\n      lt\n      tag_332\n      jumpi\n      tag_333\n      tag_142\n      jump\t// in\n    tag_333:\n    tag_332:\n      swap1\n      0x00\n      mstore\n      keccak256(0x00, 0x20)\n      swap1\n      0x04\n      mul\n      add\n        /* \"youtube-course/store.sol\":7224:7238  products[i].id */\n      0x01\n      add\n      sload\n        /* \"youtube-course/store.sol\":7224:7245  products[i].id == _id */\n      sub\n        /* \"youtube-course/store.sol\":7220:7258  if (products[i].id == _id) return true */\n      tag_335\n      jumpi\n        /* \"youtube-course/store.sol\":7254:7258  true */\n      0x01\n        /* \"youtube-course/store.sol\":7247:7258  return true */\n      swap2\n      pop\n      pop\n      jump(tag_328)\n        /* \"youtube-course/store.sol\":7220:7258  if (products[i].id == _id) return true */\n    tag_335:\n        /* \"youtube-course/store.sol\":7201:7204  i++ */\n      dup1\n      dup1\n      0x01\n      add\n      swap2\n      pop\n      pop\n        /* \"youtube-course/store.sol\":7163:7269  for (uint i = 0; i < products.length; i++) {... */\n      jump(tag_329)\n    tag_330:\n      pop\n        /* \"youtube-course/store.sol\":7285:7290  false */\n      0x00\n        /* \"youtube-course/store.sol\":7278:7290  return false */\n      swap1\n      pop\n        /* \"youtube-course/store.sol\":7092:7297  function _isIdExist(uint256 _id) internal view returns(bool) {... */\n    tag_328:\n      swap2\n      swap1\n      pop\n      jump\t// out\n        /* \"youtube-course/store.sol\":6772:7086  function _buyProcess(address _buyer, uint256 _id, uint256 _quantity) internal {... */\n    tag_169:\n        /* \"youtube-course/store.sol\":6860:6883  Product storage product */\n      0x00\n        /* \"youtube-course/store.sol\":6886:6903  _findProduct(_id) */\n      tag_337\n        /* \"youtube-course/store.sol\":6899:6902  _id */\n      dup4\n        /* \"youtube-course/store.sol\":6886:6898  _findProduct */\n      tag_176\n        /* \"youtube-course/store.sol\":6886:6903  _findProduct(_id) */\n      jump\t// in\n    tag_337:\n        /* \"youtube-course/store.sol\":6860:6903  Product storage product = _findProduct(_id) */\n      swap1\n      pop\n        /* \"youtube-course/store.sol\":6930:6939  _quantity */\n      dup2\n        /* \"youtube-course/store.sol\":6913:6920  product */\n      dup2\n        /* \"youtube-course/store.sol\":6913:6926  product.stock */\n      0x02\n      add\n      0x00\n        /* \"youtube-course/store.sol\":6913:6939  product.stock -= _quantity */\n      dup3\n      dup3\n      sload\n      tag_338\n      swap2\n      swap1\n      tag_156\n      jump\t// in\n    tag_338:\n      swap3\n      pop\n      pop\n      dup2\n      swap1\n      sstore\n      pop\n        /* \"youtube-course/store.sol\":6979:6988  _quantity */\n      dup2\n        /* \"youtube-course/store.sol\":6950:6962  userPurchase */\n      0x01\n        /* \"youtube-course/store.sol\":6950:6970  userPurchase[_buyer] */\n      0x00\n        /* \"youtube-course/store.sol\":6963:6969  _buyer */\n      dup7\n        /* \"youtube-course/store.sol\":6950:6970  userPurchase[_buyer] */\n      0xffffffffffffffffffffffffffffffffffffffff\n      and\n      0xffffffffffffffffffffffffffffffffffffffff\n      and\n      dup2\n      mstore\n      0x20\n      add\n      swap1\n      dup2\n      mstore\n      0x20\n      add\n      0x00\n      keccak256\n        /* \"youtube-course/store.sol\":6950:6975  userPurchase[_buyer][_id] */\n      0x00\n        /* \"youtube-course/store.sol\":6971:6974  _id */\n      dup6\n        /* \"youtube-course/store.sol\":6950:6975  userPurchase[_buyer][_id] */\n      dup2\n      mstore\n      0x20\n      add\n      swap1\n      dup2\n      mstore\n      0x20\n      add\n      0x00\n      keccak256\n      0x00\n        /* \"youtube-course/store.sol\":6950:6988  userPurchase[_buyer][_id] += _quantity */\n      dup3\n      dup3\n      sload\n      tag_339\n      swap2\n      swap1\n      tag_159\n      jump\t// in\n    tag_339:\n      swap3\n      pop\n      pop\n      dup2\n      swap1\n      sstore\n      pop\n        /* \"youtube-course/store.sol\":7022:7031  _quantity */\n      dup2\n        /* \"youtube-course/store.sol\":6998:7013  productPurchase */\n      0x02\n        /* \"youtube-course/store.sol\":6998:7018  productPurchase[_id] */\n      0x00\n        /* \"youtube-course/store.sol\":7014:7017  _id */\n      dup6\n        /* \"youtube-course/store.sol\":6998:7018  productPurchase[_id] */\n      dup2\n      mstore\n      0x20\n      add\n      swap1\n      dup2\n      mstore\n      0x20\n      add\n      0x00\n      keccak256\n      0x00\n        /* \"youtube-course/store.sol\":6998:7031  productPurchase[_id] += _quantity */\n      dup3\n      dup3\n      sload\n      tag_340\n      swap2\n      swap1\n      tag_159\n      jump\t// in\n    tag_340:\n      swap3\n      pop\n      pop\n      dup2\n      swap1\n      sstore\n      pop\n        /* \"youtube-course/store.sol\":7047:7079  Purchase(_buyer, _id, _quantity) */\n      0x12cb4648cf3058b17ceeb33e579f8b0bc269fe0843f3900b8e24b6c54871703c\n        /* \"youtube-course/store.sol\":7056:7062  _buyer */\n      dup5\n        /* \"youtube-course/store.sol\":7064:7067  _id */\n      dup5\n        /* \"youtube-course/store.sol\":7069:7078  _quantity */\n      dup5\n        /* \"youtube-course/store.sol\":7047:7079  Purchase(_buyer, _id, _quantity) */\n      mload(0x40)\n      tag_341\n      swap4\n      swap3\n      swap2\n      swap1\n      tag_227\n      jump\t// in\n    tag_341:\n      mload(0x40)\n      dup1\n      swap2\n      sub\n      swap1\n      log1\n        /* \"youtube-course/store.sol\":6850:7086  {... */\n      pop\n        /* \"youtube-course/store.sol\":6772:7086  function _buyProcess(address _buyer, uint256 _id, uint256 _quantity) internal {... */\n      pop\n      pop\n      pop\n      jump\t// out\n        /* \"youtube-course/store.sol\":6516:6766  function _findProduct(uint256 _id) internal view returns(Product storage product) {... */\n    tag_176:\n        /* \"youtube-course/store.sol\":6573:6596  Product storage product */\n      0x00\n        /* \"youtube-course/store.sol\":6613:6619  uint i */\n      dup1\n        /* \"youtube-course/store.sol\":6622:6623  0 */\n      0x00\n        /* \"youtube-course/store.sol\":6613:6623  uint i = 0 */\n      swap1\n      pop\n        /* \"youtube-course/store.sol\":6608:6721  for (uint i = 0; i < products.length; i++) {... */\n    tag_343:\n        /* \"youtube-course/store.sol\":6629:6637  products */\n      0x04\n        /* \"youtube-course/store.sol\":6629:6644  products.length */\n      dup1\n      sload\n      swap1\n      pop\n        /* \"youtube-course/store.sol\":6625:6626  i */\n      dup2\n        /* \"youtube-course/store.sol\":6625:6644  i < products.length */\n      lt\n        /* \"youtube-course/store.sol\":6608:6721  for (uint i = 0; i < products.length; i++) {... */\n      iszero\n      tag_344\n      jumpi\n        /* \"youtube-course/store.sol\":6687:6690  _id */\n      dup3\n        /* \"youtube-course/store.sol\":6669:6677  products */\n      0x04\n        /* \"youtube-course/store.sol\":6678:6679  i */\n      dup3\n        /* \"youtube-course/store.sol\":6669:6680  products[i] */\n      dup2\n      sload\n      dup2\n      lt\n      tag_346\n      jumpi\n      tag_347\n      tag_142\n      jump\t// in\n    tag_347:\n    tag_346:\n      swap1\n      0x00\n      mstore\n      keccak256(0x00, 0x20)\n      swap1\n      0x04\n      mul\n      add\n        /* \"youtube-course/store.sol\":6669:6683  products[i].id */\n      0x01\n      add\n      sload\n        /* \"youtube-course/store.sol\":6669:6690  products[i].id == _id */\n      sub\n        /* \"youtube-course/store.sol\":6665:6710  if (products[i].id == _id) return products[i] */\n      tag_349\n      jumpi\n        /* \"youtube-course/store.sol\":6699:6707  products */\n      0x04\n        /* \"youtube-course/store.sol\":6708:6709  i */\n      dup2\n        /* \"youtube-course/store.sol\":6699:6710  products[i] */\n      dup2\n      sload\n      dup2\n      lt\n      tag_350\n      jumpi\n      tag_351\n      tag_142\n      jump\t// in\n    tag_351:\n    tag_350:\n      swap1\n      0x00\n      mstore\n      keccak256(0x00, 0x20)\n      swap1\n      0x04\n      mul\n      add\n        /* \"youtube-course/store.sol\":6692:6710  return products[i] */\n      swap2\n      pop\n      pop\n      jump(tag_342)\n        /* \"youtube-course/store.sol\":6665:6710  if (products[i].id == _id) return products[i] */\n    tag_349:\n        /* \"youtube-course/store.sol\":6646:6649  i++ */\n      dup1\n      dup1\n      0x01\n      add\n      swap2\n      pop\n      pop\n        /* \"youtube-course/store.sol\":6608:6721  for (uint i = 0; i < products.length; i++) {... */\n      jump(tag_343)\n    tag_344:\n      pop\n        /* \"youtube-course/store.sol\":6731:6759  revert (\"Product not found\") */\n      mload(0x40)\n      0x08c379a000000000000000000000000000000000000000000000000000000000\n      dup2\n      mstore\n      0x04\n      add\n      tag_353\n      swap1\n      tag_354\n      jump\t// in\n    tag_353:\n      mload(0x40)\n      dup1\n      swap2\n      sub\n      swap1\n      revert\n        /* \"youtube-course/store.sol\":6516:6766  function _findProduct(uint256 _id) internal view returns(Product storage product) {... */\n    tag_342:\n      swap2\n      swap1\n      pop\n      jump\t// out\n        /* \"@openzeppelin/contracts/access/Ownable.sol\":2912:3099  function _transferOwnership(address newOwner) internal virtual {... */\n    tag_232:\n        /* \"@openzeppelin/contracts/access/Ownable.sol\":2985:3001  address oldOwner */\n      0x00\n        /* \"@openzeppelin/contracts/access/Ownable.sol\":3004:3010  _owner */\n      dup1\n      0x00\n      swap1\n      sload\n      swap1\n      0x0100\n      exp\n      swap1\n      div\n      0xffffffffffffffffffffffffffffffffffffffff\n      and\n        /* \"@openzeppelin/contracts/access/Ownable.sol\":2985:3010  address oldOwner = _owner */\n      swap1\n      pop\n        /* \"@openzeppelin/contracts/access/Ownable.sol\":3029:3037  newOwner */\n      dup2\n        /* \"@openzeppelin/contracts/access/Ownable.sol\":3020:3026  _owner */\n      0x00\n      dup1\n        /* \"@openzeppelin/contracts/access/Ownable.sol\":3020:3037  _owner = newOwner */\n      0x0100\n      exp\n      dup2\n      sload\n      dup2\n      0xffffffffffffffffffffffffffffffffffffffff\n      mul\n      not\n      and\n      swap1\n      dup4\n      0xffffffffffffffffffffffffffffffffffffffff\n      and\n      mul\n      or\n      swap1\n      sstore\n      pop\n        /* \"@openzeppelin/contracts/access/Ownable.sol\":3083:3091  newOwner */\n      dup2\n        /* \"@openzeppelin/contracts/access/Ownable.sol\":3052:3092  OwnershipTransferred(oldOwner, newOwner) */\n      0xffffffffffffffffffffffffffffffffffffffff\n      and\n        /* \"@openzeppelin/contracts/access/Ownable.sol\":3073:3081  oldOwner */\n      dup2\n        /* \"@openzeppelin/contracts/access/Ownable.sol\":3052:3092  OwnershipTransferred(oldOwner, newOwner) */\n      0xffffffffffffffffffffffffffffffffffffffff\n      and\n      0x8be0079c531659141344cd1fd0a4f28419497f9722a3daafe3b4186f6b6457e0\n      mload(0x40)\n      mload(0x40)\n      dup1\n      swap2\n      sub\n      swap1\n      log3\n        /* \"@openzeppelin/contracts/access/Ownable.sol\":2975:3099  {... */\n      pop\n        /* \"@openzeppelin/contracts/access/Ownable.sol\":2912:3099  function _transferOwnership(address newOwner) internal virtual {... */\n      pop\n      jump\t// out\n        /* \"youtube-course/store.sol\":7303:7531  function _findIndexById(uint256 _id) internal view returns(bool, uint256) {... */\n    tag_298:\n        /* \"youtube-course/store.sol\":7362:7366  bool */\n      0x00\n        /* \"youtube-course/store.sol\":7368:7375  uint256 */\n      dup1\n        /* \"youtube-course/store.sol\":7392:7398  uint i */\n      0x00\n        /* \"youtube-course/store.sol\":7387:7498  for (uint i = 0; i < products.length; i++) {... */\n    tag_357:\n        /* \"youtube-course/store.sol\":7408:7416  products */\n      0x04\n        /* \"youtube-course/store.sol\":7408:7423  products.length */\n      dup1\n      sload\n      swap1\n      pop\n        /* \"youtube-course/store.sol\":7404:7405  i */\n      dup2\n        /* \"youtube-course/store.sol\":7404:7423  i < products.length */\n      lt\n        /* \"youtube-course/store.sol\":7387:7498  for (uint i = 0; i < products.length; i++) {... */\n      iszero\n      tag_358\n      jumpi\n        /* \"youtube-course/store.sol\":7466:7469  _id */\n      dup4\n        /* \"youtube-course/store.sol\":7448:7456  products */\n      0x04\n        /* \"youtube-course/store.sol\":7457:7458  i */\n      dup3\n        /* \"youtube-course/store.sol\":7448:7459  products[i] */\n      dup2\n      sload\n      dup2\n      lt\n      tag_360\n      jumpi\n      tag_361\n      tag_142\n      jump\t// in\n    tag_361:\n    tag_360:\n      swap1\n      0x00\n      mstore\n      keccak256(0x00, 0x20)\n      swap1\n      0x04\n      mul\n      add\n        /* \"youtube-course/store.sol\":7448:7462  products[i].id */\n      0x01\n      add\n      sload\n        /* \"youtube-course/store.sol\":7448:7469  products[i].id == _id */\n      sub\n        /* \"youtube-course/store.sol\":7444:7487  if (products[i].id == _id) return (true, i) */\n      tag_363\n      jumpi\n        /* \"youtube-course/store.sol\":7479:7483  true */\n      0x01\n        /* \"youtube-course/store.sol\":7485:7486  i */\n      dup2\n        /* \"youtube-course/store.sol\":7471:7487  return (true, i) */\n      swap3\n      pop\n      swap3\n      pop\n      pop\n      jump(tag_356)\n        /* \"youtube-course/store.sol\":7444:7487  if (products[i].id == _id) return (true, i) */\n    tag_363:\n        /* \"youtube-course/store.sol\":7425:7428  i++ */\n      dup1\n      dup1\n      0x01\n      add\n      swap2\n      pop\n      pop\n        /* \"youtube-course/store.sol\":7387:7498  for (uint i = 0; i < products.length; i++) {... */\n      jump(tag_357)\n    tag_358:\n      pop\n        /* \"youtube-course/store.sol\":7515:7520  false */\n      0x00\n        /* \"youtube-course/store.sol\":7522:7523  0 */\n      dup1\n        /* \"youtube-course/store.sol\":7507:7524  return (false, 0) */\n      swap2\n      pop\n      swap2\n      pop\n        /* \"youtube-course/store.sol\":7303:7531  function _findIndexById(uint256 _id) internal view returns(bool, uint256) {... */\n    tag_356:\n      swap2\n      pop\n      swap2\n      jump\t// out\n        /* \"@openzeppelin/contracts/utils/Context.sol\":656:752  function _msgSender() internal view virtual returns (address) {... */\n    tag_323:\n        /* \"@openzeppelin/contracts/utils/Context.sol\":709:716  address */\n      0x00\n        /* \"@openzeppelin/contracts/utils/Context.sol\":735:745  msg.sender */\n      caller\n        /* \"@openzeppelin/contracts/utils/Context.sol\":728:745  return msg.sender */\n      swap1\n      pop\n        /* \"@openzeppelin/contracts/utils/Context.sol\":656:752  function _msgSender() internal view virtual returns (address) {... */\n      swap1\n      jump\t// out\n    tag_185:\n      mload(0x40)\n      dup1\n      0x60\n      add\n      0x40\n      mstore\n      dup1\n      0x03\n      swap1\n      0x20\n      dup3\n      mul\n      dup1\n      calldatasize\n      dup4\n      calldatacopy\n      dup1\n      dup3\n      add\n      swap2\n      pop\n      pop\n      swap1\n      pop\n      pop\n      swap1\n      jump\t// out\n    tag_314:\n      pop\n      dup1\n      sload\n      tag_365\n      swap1\n      tag_287\n      jump\t// in\n    tag_365:\n      0x00\n      dup3\n      sstore\n      dup1\n      0x1f\n      lt\n      tag_367\n      jumpi\n      pop\n      jump(tag_366)\n    tag_367:\n      0x1f\n      add\n      0x20\n      swap1\n      div\n      swap1\n      0x00\n      mstore\n      keccak256(0x00, 0x20)\n      swap1\n      dup2\n      add\n      swap1\n      tag_368\n      swap2\n      swap1\n      tag_369\n      jump\t// in\n    tag_368:\n    tag_366:\n      pop\n      jump\t// out\n    tag_369:\n    tag_370:\n      dup1\n      dup3\n      gt\n      iszero\n      tag_371\n      jumpi\n      0x00\n      dup2\n      0x00\n      swap1\n      sstore\n      pop\n      0x01\n      add\n      jump(tag_370)\n    tag_371:\n      pop\n      swap1\n      jump\t// out\n        /* \"#utility.yul\":7:82   */\n    tag_372:\n        /* \"#utility.yul\":40:46   */\n      0x00\n        /* \"#utility.yul\":73:75   */\n      0x40\n        /* \"#utility.yul\":67:76   */\n      mload\n        /* \"#utility.yul\":57:76   */\n      swap1\n      pop\n        /* \"#utility.yul\":7:82   */\n      swap1\n      jump\t// out\n        /* \"#utility.yul\":88:205   */\n    tag_373:\n        /* \"#utility.yul\":197:198   */\n      0x00\n        /* \"#utility.yul\":194:195   */\n      dup1\n        /* \"#utility.yul\":187:199   */\n      revert\n        /* \"#utility.yul\":211:328   */\n    tag_374:\n        /* \"#utility.yul\":320:321   */\n      0x00\n        /* \"#utility.yul\":317:318   */\n      dup1\n        /* \"#utility.yul\":310:322   */\n      revert\n        /* \"#utility.yul\":334:451   */\n    tag_375:\n        /* \"#utility.yul\":443:444   */\n      0x00\n        /* \"#utility.yul\":440:441   */\n      dup1\n        /* \"#utility.yul\":433:445   */\n      revert\n        /* \"#utility.yul\":457:574   */\n    tag_376:\n        /* \"#utility.yul\":566:567   */\n      0x00\n        /* \"#utility.yul\":563:564   */\n      dup1\n        /* \"#utility.yul\":556:568   */\n      revert\n        /* \"#utility.yul\":580:697   */\n    tag_377:\n        /* \"#utility.yul\":689:690   */\n      0x00\n        /* \"#utility.yul\":686:687   */\n      dup1\n        /* \"#utility.yul\":679:691   */\n      revert\n        /* \"#utility.yul\":717:1270   */\n    tag_378:\n        /* \"#utility.yul\":775:783   */\n      0x00\n        /* \"#utility.yul\":785:791   */\n      dup1\n        /* \"#utility.yul\":835:838   */\n      dup4\n        /* \"#utility.yul\":828:832   */\n      0x1f\n        /* \"#utility.yul\":820:826   */\n      dup5\n        /* \"#utility.yul\":816:833   */\n      add\n        /* \"#utility.yul\":812:839   */\n      slt\n        /* \"#utility.yul\":802:924   */\n      tag_447\n      jumpi\n        /* \"#utility.yul\":843:922   */\n      tag_448\n      tag_375\n      jump\t// in\n    tag_448:\n        /* \"#utility.yul\":802:924   */\n    tag_447:\n        /* \"#utility.yul\":956:962   */\n      dup3\n        /* \"#utility.yul\":943:963   */\n      calldataload\n        /* \"#utility.yul\":933:963   */\n      swap1\n      pop\n        /* \"#utility.yul\":986:1004   */\n      0xffffffffffffffff\n        /* \"#utility.yul\":978:984   */\n      dup2\n        /* \"#utility.yul\":975:1005   */\n      gt\n        /* \"#utility.yul\":972:1089   */\n      iszero\n      tag_449\n      jumpi\n        /* \"#utility.yul\":1008:1087   */\n      tag_450\n      tag_376\n      jump\t// in\n    tag_450:\n        /* \"#utility.yul\":972:1089   */\n    tag_449:\n        /* \"#utility.yul\":1122:1126   */\n      0x20\n        /* \"#utility.yul\":1114:1120   */\n      dup4\n        /* \"#utility.yul\":1110:1127   */\n      add\n        /* \"#utility.yul\":1098:1127   */\n      swap2\n      pop\n        /* \"#utility.yul\":1176:1179   */\n      dup4\n        /* \"#utility.yul\":1168:1172   */\n      0x01\n        /* \"#utility.yul\":1160:1166   */\n      dup3\n        /* \"#utility.yul\":1156:1173   */\n      mul\n        /* \"#utility.yul\":1146:1154   */\n      dup4\n        /* \"#utility.yul\":1142:1174   */\n      add\n        /* \"#utility.yul\":1139:1180   */\n      gt\n        /* \"#utility.yul\":1136:1264   */\n      iszero\n      tag_451\n      jumpi\n        /* \"#utility.yul\":1183:1262   */\n      tag_452\n      tag_377\n      jump\t// in\n    tag_452:\n        /* \"#utility.yul\":1136:1264   */\n    tag_451:\n        /* \"#utility.yul\":717:1270   */\n      swap3\n      pop\n      swap3\n      swap1\n      pop\n      jump\t// out\n        /* \"#utility.yul\":1276:1353   */\n    tag_379:\n        /* \"#utility.yul\":1313:1320   */\n      0x00\n        /* \"#utility.yul\":1342:1347   */\n      dup2\n        /* \"#utility.yul\":1331:1347   */\n      swap1\n      pop\n        /* \"#utility.yul\":1276:1353   */\n      swap2\n      swap1\n      pop\n      jump\t// out\n        /* \"#utility.yul\":1359:1481   */\n    tag_380:\n        /* \"#utility.yul\":1432:1456   */\n      tag_455\n        /* \"#utility.yul\":1450:1455   */\n      dup2\n        /* \"#utility.yul\":1432:1456   */\n      tag_379\n      jump\t// in\n    tag_455:\n        /* \"#utility.yul\":1425:1430   */\n      dup2\n        /* \"#utility.yul\":1422:1457   */\n      eq\n        /* \"#utility.yul\":1412:1475   */\n      tag_456\n      jumpi\n        /* \"#utility.yul\":1471:1472   */\n      0x00\n        /* \"#utility.yul\":1468:1469   */\n      dup1\n        /* \"#utility.yul\":1461:1473   */\n      revert\n        /* \"#utility.yul\":1412:1475   */\n    tag_456:\n        /* \"#utility.yul\":1359:1481   */\n      pop\n      jump\t// out\n        /* \"#utility.yul\":1487:1626   */\n    tag_381:\n        /* \"#utility.yul\":1533:1538   */\n      0x00\n        /* \"#utility.yul\":1571:1577   */\n      dup2\n        /* \"#utility.yul\":1558:1578   */\n      calldataload\n        /* \"#utility.yul\":1549:1578   */\n      swap1\n      pop\n        /* \"#utility.yul\":1587:1620   */\n      tag_458\n        /* \"#utility.yul\":1614:1619   */\n      dup2\n        /* \"#utility.yul\":1587:1620   */\n      tag_380\n      jump\t// in\n    tag_458:\n        /* \"#utility.yul\":1487:1626   */\n      swap3\n      swap2\n      pop\n      pop\n      jump\t// out\n        /* \"#utility.yul\":1632:2597   */\n    tag_29:\n        /* \"#utility.yul\":1730:1736   */\n      0x00\n        /* \"#utility.yul\":1738:1744   */\n      dup1\n        /* \"#utility.yul\":1746:1752   */\n      0x00\n        /* \"#utility.yul\":1754:1760   */\n      dup1\n        /* \"#utility.yul\":1762:1768   */\n      0x00\n        /* \"#utility.yul\":1811:1814   */\n      0x80\n        /* \"#utility.yul\":1799:1808   */\n      dup7\n        /* \"#utility.yul\":1790:1797   */\n      dup9\n        /* \"#utility.yul\":1786:1809   */\n      sub\n        /* \"#utility.yul\":1782:1815   */\n      slt\n        /* \"#utility.yul\":1779:1899   */\n      iszero\n      tag_460\n      jumpi\n        /* \"#utility.yul\":1818:1897   */\n      tag_461\n      tag_373\n      jump\t// in\n    tag_461:\n        /* \"#utility.yul\":1779:1899   */\n    tag_460:\n        /* \"#utility.yul\":1966:1967   */\n      0x00\n        /* \"#utility.yul\":1955:1964   */\n      dup7\n        /* \"#utility.yul\":1951:1968   */\n      add\n        /* \"#utility.yul\":1938:1969   */\n      calldataload\n        /* \"#utility.yul\":1996:2014   */\n      0xffffffffffffffff\n        /* \"#utility.yul\":1988:1994   */\n      dup2\n        /* \"#utility.yul\":1985:2015   */\n      gt\n        /* \"#utility.yul\":1982:2099   */\n      iszero\n      tag_462\n      jumpi\n        /* \"#utility.yul\":2018:2097   */\n      tag_463\n      tag_374\n      jump\t// in\n    tag_463:\n        /* \"#utility.yul\":1982:2099   */\n    tag_462:\n        /* \"#utility.yul\":2131:2196   */\n      tag_464\n        /* \"#utility.yul\":2188:2195   */\n      dup9\n        /* \"#utility.yul\":2179:2185   */\n      dup3\n        /* \"#utility.yul\":2168:2177   */\n      dup10\n        /* \"#utility.yul\":2164:2186   */\n      add\n        /* \"#utility.yul\":2131:2196   */\n      tag_378\n      jump\t// in\n    tag_464:\n        /* \"#utility.yul\":2113:2196   */\n      swap6\n      pop\n      swap6\n      pop\n        /* \"#utility.yul\":1909:2206   */\n      pop\n        /* \"#utility.yul\":2245:2247   */\n      0x20\n        /* \"#utility.yul\":2271:2324   */\n      tag_465\n        /* \"#utility.yul\":2316:2323   */\n      dup9\n        /* \"#utility.yul\":2307:2313   */\n      dup3\n        /* \"#utility.yul\":2296:2305   */\n      dup10\n        /* \"#utility.yul\":2292:2314   */\n      add\n        /* \"#utility.yul\":2271:2324   */\n      tag_381\n      jump\t// in\n    tag_465:\n        /* \"#utility.yul\":2261:2324   */\n      swap4\n      pop\n        /* \"#utility.yul\":2216:2334   */\n      pop\n        /* \"#utility.yul\":2373:2375   */\n      0x40\n        /* \"#utility.yul\":2399:2452   */\n      tag_466\n        /* \"#utility.yul\":2444:2451   */\n      dup9\n        /* \"#utility.yul\":2435:2441   */\n      dup3\n        /* \"#utility.yul\":2424:2433   */\n      dup10\n        /* \"#utility.yul\":2420:2442   */\n      add\n        /* \"#utility.yul\":2399:2452   */\n      tag_381\n      jump\t// in\n    tag_466:\n        /* \"#utility.yul\":2389:2452   */\n      swap3\n      pop\n        /* \"#utility.yul\":2344:2462   */\n      pop\n        /* \"#utility.yul\":2501:2503   */\n      0x60\n        /* \"#utility.yul\":2527:2580   */\n      tag_467\n        /* \"#utility.yul\":2572:2579   */\n      dup9\n        /* \"#utility.yul\":2563:2569   */\n      dup3\n        /* \"#utility.yul\":2552:2561   */\n      dup10\n        /* \"#utility.yul\":2548:2570   */\n      add\n        /* \"#utility.yul\":2527:2580   */\n      tag_381\n      jump\t// in\n    tag_467:\n        /* \"#utility.yul\":2517:2580   */\n      swap2\n      pop\n        /* \"#utility.yul\":2472:2590   */\n      pop\n        /* \"#utility.yul\":1632:2597   */\n      swap3\n      swap6\n      pop\n      swap3\n      swap6\n      swap1\n      swap4\n      pop\n      jump\t// out\n        /* \"#utility.yul\":2603:2720   */\n    tag_382:\n        /* \"#utility.yul\":2712:2713   */\n      0x00\n        /* \"#utility.yul\":2709:2710   */\n      dup1\n        /* \"#utility.yul\":2702:2714   */\n      revert\n        /* \"#utility.yul\":2726:2828   */\n    tag_383:\n        /* \"#utility.yul\":2767:2773   */\n      0x00\n        /* \"#utility.yul\":2818:2820   */\n      0x1f\n        /* \"#utility.yul\":2814:2821   */\n      not\n        /* \"#utility.yul\":2809:2811   */\n      0x1f\n        /* \"#utility.yul\":2802:2807   */\n      dup4\n        /* \"#utility.yul\":2798:2812   */\n      add\n        /* \"#utility.yul\":2794:2822   */\n      and\n        /* \"#utility.yul\":2784:2822   */\n      swap1\n      pop\n        /* \"#utility.yul\":2726:2828   */\n      swap2\n      swap1\n      pop\n      jump\t// out\n        /* \"#utility.yul\":2834:3014   */\n    tag_189:\n        /* \"#utility.yul\":2882:2959   */\n      0x4e487b7100000000000000000000000000000000000000000000000000000000\n        /* \"#utility.yul\":2879:2880   */\n      0x00\n        /* \"#utility.yul\":2872:2960   */\n      mstore\n        /* \"#utility.yul\":2979:2983   */\n      0x41\n        /* \"#utility.yul\":2976:2977   */\n      0x04\n        /* \"#utility.yul\":2969:2984   */\n      mstore\n        /* \"#utility.yul\":3003:3007   */\n      0x24\n        /* \"#utility.yul\":3000:3001   */\n      0x00\n        /* \"#utility.yul\":2993:3008   */\n      revert\n        /* \"#utility.yul\":3020:3301   */\n    tag_384:\n        /* \"#utility.yul\":3103:3130   */\n      tag_472\n        /* \"#utility.yul\":3125:3129   */\n      dup3\n        /* \"#utility.yul\":3103:3130   */\n      tag_383\n      jump\t// in\n    tag_472:\n        /* \"#utility.yul\":3095:3101   */\n      dup2\n        /* \"#utility.yul\":3091:3131   */\n      add\n        /* \"#utility.yul\":3233:3239   */\n      dup2\n        /* \"#utility.yul\":3221:3231   */\n      dup2\n        /* \"#utility.yul\":3218:3240   */\n      lt\n        /* \"#utility.yul\":3197:3215   */\n      0xffffffffffffffff\n        /* \"#utility.yul\":3185:3195   */\n      dup3\n        /* \"#utility.yul\":3182:3216   */\n      gt\n        /* \"#utility.yul\":3179:3241   */\n      or\n        /* \"#utility.yul\":3176:3264   */\n      iszero\n      tag_473\n      jumpi\n        /* \"#utility.yul\":3244:3262   */\n      tag_474\n      tag_189\n      jump\t// in\n    tag_474:\n        /* \"#utility.yul\":3176:3264   */\n    tag_473:\n        /* \"#utility.yul\":3284:3294   */\n      dup1\n        /* \"#utility.yul\":3280:3282   */\n      0x40\n        /* \"#utility.yul\":3273:3295   */\n      mstore\n        /* \"#utility.yul\":3063:3301   */\n      pop\n        /* \"#utility.yul\":3020:3301   */\n      pop\n      pop\n      jump\t// out\n        /* \"#utility.yul\":3307:3436   */\n    tag_385:\n        /* \"#utility.yul\":3341:3347   */\n      0x00\n        /* \"#utility.yul\":3368:3388   */\n      tag_476\n      tag_372\n      jump\t// in\n    tag_476:\n        /* \"#utility.yul\":3358:3388   */\n      swap1\n      pop\n        /* \"#utility.yul\":3397:3430   */\n      tag_477\n        /* \"#utility.yul\":3425:3429   */\n      dup3\n        /* \"#utility.yul\":3417:3423   */\n      dup3\n        /* \"#utility.yul\":3397:3430   */\n      tag_384\n      jump\t// in\n    tag_477:\n        /* \"#utility.yul\":3307:3436   */\n      swap2\n      swap1\n      pop\n      jump\t// out\n        /* \"#utility.yul\":3442:3750   */\n    tag_386:\n        /* \"#utility.yul\":3504:3508   */\n      0x00\n        /* \"#utility.yul\":3594:3612   */\n      0xffffffffffffffff\n        /* \"#utility.yul\":3586:3592   */\n      dup3\n        /* \"#utility.yul\":3583:3613   */\n      gt\n        /* \"#utility.yul\":3580:3636   */\n      iszero\n      tag_479\n      jumpi\n        /* \"#utility.yul\":3616:3634   */\n      tag_480\n      tag_189\n      jump\t// in\n    tag_480:\n        /* \"#utility.yul\":3580:3636   */\n    tag_479:\n        /* \"#utility.yul\":3654:3683   */\n      tag_481\n        /* \"#utility.yul\":3676:3682   */\n      dup3\n        /* \"#utility.yul\":3654:3683   */\n      tag_383\n      jump\t// in\n    tag_481:\n        /* \"#utility.yul\":3646:3683   */\n      swap1\n      pop\n        /* \"#utility.yul\":3738:3742   */\n      0x20\n        /* \"#utility.yul\":3732:3736   */\n      dup2\n        /* \"#utility.yul\":3728:3743   */\n      add\n        /* \"#utility.yul\":3720:3743   */\n      swap1\n      pop\n        /* \"#utility.yul\":3442:3750   */\n      swap2\n      swap1\n      pop\n      jump\t// out\n        /* \"#utility.yul\":3756:3904   */\n    tag_387:\n        /* \"#utility.yul\":3854:3860   */\n      dup3\n        /* \"#utility.yul\":3849:3852   */\n      dup2\n        /* \"#utility.yul\":3844:3847   */\n      dup4\n        /* \"#utility.yul\":3831:3861   */\n      calldatacopy\n        /* \"#utility.yul\":3895:3896   */\n      0x00\n        /* \"#utility.yul\":3886:3892   */\n      dup4\n        /* \"#utility.yul\":3881:3884   */\n      dup4\n        /* \"#utility.yul\":3877:3893   */\n      add\n        /* \"#utility.yul\":3870:3897   */\n      mstore\n        /* \"#utility.yul\":3756:3904   */\n      pop\n      pop\n      pop\n      jump\t// out\n        /* \"#utility.yul\":3910:4335   */\n    tag_388:\n        /* \"#utility.yul\":3988:3993   */\n      0x00\n        /* \"#utility.yul\":4013:4079   */\n      tag_484\n        /* \"#utility.yul\":4029:4078   */\n      tag_485\n        /* \"#utility.yul\":4071:4077   */\n      dup5\n        /* \"#utility.yul\":4029:4078   */\n      tag_386\n      jump\t// in\n    tag_485:\n        /* \"#utility.yul\":4013:4079   */\n      tag_385\n      jump\t// in\n    tag_484:\n        /* \"#utility.yul\":4004:4079   */\n      swap1\n      pop\n        /* \"#utility.yul\":4102:4108   */\n      dup3\n        /* \"#utility.yul\":4095:4100   */\n      dup2\n        /* \"#utility.yul\":4088:4109   */\n      mstore\n        /* \"#utility.yul\":4140:4144   */\n      0x20\n        /* \"#utility.yul\":4133:4138   */\n      dup2\n        /* \"#utility.yul\":4129:4145   */\n      add\n        /* \"#utility.yul\":4178:4181   */\n      dup5\n        /* \"#utility.yul\":4169:4175   */\n      dup5\n        /* \"#utility.yul\":4164:4167   */\n      dup5\n        /* \"#utility.yul\":4160:4176   */\n      add\n        /* \"#utility.yul\":4157:4182   */\n      gt\n        /* \"#utility.yul\":4154:4266   */\n      iszero\n      tag_486\n      jumpi\n        /* \"#utility.yul\":4185:4264   */\n      tag_487\n      tag_382\n      jump\t// in\n    tag_487:\n        /* \"#utility.yul\":4154:4266   */\n    tag_486:\n        /* \"#utility.yul\":4275:4329   */\n      tag_488\n        /* \"#utility.yul\":4322:4328   */\n      dup5\n        /* \"#utility.yul\":4317:4320   */\n      dup3\n        /* \"#utility.yul\":4312:4315   */\n      dup6\n        /* \"#utility.yul\":4275:4329   */\n      tag_387\n      jump\t// in\n    tag_488:\n        /* \"#utility.yul\":3994:4335   */\n      pop\n        /* \"#utility.yul\":3910:4335   */\n      swap4\n      swap3\n      pop\n      pop\n      pop\n      jump\t// out\n        /* \"#utility.yul\":4355:4695   */\n    tag_389:\n        /* \"#utility.yul\":4411:4416   */\n      0x00\n        /* \"#utility.yul\":4460:4463   */\n      dup3\n        /* \"#utility.yul\":4453:4457   */\n      0x1f\n        /* \"#utility.yul\":4445:4451   */\n      dup4\n        /* \"#utility.yul\":4441:4458   */\n      add\n        /* \"#utility.yul\":4437:4464   */\n      slt\n        /* \"#utility.yul\":4427:4549   */\n      tag_490\n      jumpi\n        /* \"#utility.yul\":4468:4547   */\n      tag_491\n      tag_375\n      jump\t// in\n    tag_491:\n        /* \"#utility.yul\":4427:4549   */\n    tag_490:\n        /* \"#utility.yul\":4585:4591   */\n      dup2\n        /* \"#utility.yul\":4572:4592   */\n      calldataload\n        /* \"#utility.yul\":4610:4689   */\n      tag_492\n        /* \"#utility.yul\":4685:4688   */\n      dup5\n        /* \"#utility.yul\":4677:4683   */\n      dup3\n        /* \"#utility.yul\":4670:4674   */\n      0x20\n        /* \"#utility.yul\":4662:4668   */\n      dup7\n        /* \"#utility.yul\":4658:4675   */\n      add\n        /* \"#utility.yul\":4610:4689   */\n      tag_388\n      jump\t// in\n    tag_492:\n        /* \"#utility.yul\":4601:4689   */\n      swap2\n      pop\n        /* \"#utility.yul\":4417:4695   */\n      pop\n        /* \"#utility.yul\":4355:4695   */\n      swap3\n      swap2\n      pop\n      pop\n      jump\t// out\n        /* \"#utility.yul\":4701:5210   */\n    tag_34:\n        /* \"#utility.yul\":4770:4776   */\n      0x00\n        /* \"#utility.yul\":4819:4821   */\n      0x20\n        /* \"#utility.yul\":4807:4816   */\n      dup3\n        /* \"#utility.yul\":4798:4805   */\n      dup5\n        /* \"#utility.yul\":4794:4817   */\n      sub\n        /* \"#utility.yul\":4790:4822   */\n      slt\n        /* \"#utility.yul\":4787:4906   */\n      iszero\n      tag_494\n      jumpi\n        /* \"#utility.yul\":4825:4904   */\n      tag_495\n      tag_373\n      jump\t// in\n    tag_495:\n        /* \"#utility.yul\":4787:4906   */\n    tag_494:\n        /* \"#utility.yul\":4973:4974   */\n      0x00\n        /* \"#utility.yul\":4962:4971   */\n      dup3\n        /* \"#utility.yul\":4958:4975   */\n      add\n        /* \"#utility.yul\":4945:4976   */\n      calldataload\n        /* \"#utility.yul\":5003:5021   */\n      0xffffffffffffffff\n        /* \"#utility.yul\":4995:5001   */\n      dup2\n        /* \"#utility.yul\":4992:5022   */\n      gt\n        /* \"#utility.yul\":4989:5106   */\n      iszero\n      tag_496\n      jumpi\n        /* \"#utility.yul\":5025:5104   */\n      tag_497\n      tag_374\n      jump\t// in\n    tag_497:\n        /* \"#utility.yul\":4989:5106   */\n    tag_496:\n        /* \"#utility.yul\":5130:5193   */\n      tag_498\n        /* \"#utility.yul\":5185:5192   */\n      dup5\n        /* \"#utility.yul\":5176:5182   */\n      dup3\n        /* \"#utility.yul\":5165:5174   */\n      dup6\n        /* \"#utility.yul\":5161:5183   */\n      add\n        /* \"#utility.yul\":5130:5193   */\n      tag_389\n      jump\t// in\n    tag_498:\n        /* \"#utility.yul\":5120:5193   */\n      swap2\n      pop\n        /* \"#utility.yul\":4916:5203   */\n      pop\n        /* \"#utility.yul\":4701:5210   */\n      swap3\n      swap2\n      pop\n      pop\n      jump\t// out\n        /* \"#utility.yul\":5216:5334   */\n    tag_390:\n        /* \"#utility.yul\":5303:5327   */\n      tag_500\n        /* \"#utility.yul\":5321:5326   */\n      dup2\n        /* \"#utility.yul\":5303:5327   */\n      tag_379\n      jump\t// in\n    tag_500:\n        /* \"#utility.yul\":5298:5301   */\n      dup3\n        /* \"#utility.yul\":5291:5328   */\n      mstore\n        /* \"#utility.yul\":5216:5334   */\n      pop\n      pop\n      jump\t// out\n        /* \"#utility.yul\":5340:5562   */\n    tag_37:\n        /* \"#utility.yul\":5433:5437   */\n      0x00\n        /* \"#utility.yul\":5471:5473   */\n      0x20\n        /* \"#utility.yul\":5460:5469   */\n      dup3\n        /* \"#utility.yul\":5456:5474   */\n      add\n        /* \"#utility.yul\":5448:5474   */\n      swap1\n      pop\n        /* \"#utility.yul\":5484:5555   */\n      tag_502\n        /* \"#utility.yul\":5552:5553   */\n      0x00\n        /* \"#utility.yul\":5541:5550   */\n      dup4\n        /* \"#utility.yul\":5537:5554   */\n      add\n        /* \"#utility.yul\":5528:5534   */\n      dup5\n        /* \"#utility.yul\":5484:5555   */\n      tag_390\n      jump\t// in\n    tag_502:\n        /* \"#utility.yul\":5340:5562   */\n      swap3\n      swap2\n      pop\n      pop\n      jump\t// out\n        /* \"#utility.yul\":5585:6153   */\n    tag_391:\n        /* \"#utility.yul\":5658:5666   */\n      0x00\n        /* \"#utility.yul\":5668:5674   */\n      dup1\n        /* \"#utility.yul\":5718:5721   */\n      dup4\n        /* \"#utility.yul\":5711:5715   */\n      0x1f\n        /* \"#utility.yul\":5703:5709   */\n      dup5\n        /* \"#utility.yul\":5699:5716   */\n      add\n        /* \"#utility.yul\":5695:5722   */\n      slt\n        /* \"#utility.yul\":5685:5807   */\n      tag_504\n      jumpi\n        /* \"#utility.yul\":5726:5805   */\n      tag_505\n      tag_375\n      jump\t// in\n    tag_505:\n        /* \"#utility.yul\":5685:5807   */\n    tag_504:\n        /* \"#utility.yul\":5839:5845   */\n      dup3\n        /* \"#utility.yul\":5826:5846   */\n      calldataload\n        /* \"#utility.yul\":5816:5846   */\n      swap1\n      pop\n        /* \"#utility.yul\":5869:5887   */\n      0xffffffffffffffff\n        /* \"#utility.yul\":5861:5867   */\n      dup2\n        /* \"#utility.yul\":5858:5888   */\n      gt\n        /* \"#utility.yul\":5855:5972   */\n      iszero\n      tag_506\n      jumpi\n        /* \"#utility.yul\":5891:5970   */\n      tag_507\n      tag_376\n      jump\t// in\n    tag_507:\n        /* \"#utility.yul\":5855:5972   */\n    tag_506:\n        /* \"#utility.yul\":6005:6009   */\n      0x20\n        /* \"#utility.yul\":5997:6003   */\n      dup4\n        /* \"#utility.yul\":5993:6010   */\n      add\n        /* \"#utility.yul\":5981:6010   */\n      swap2\n      pop\n        /* \"#utility.yul\":6059:6062   */\n      dup4\n        /* \"#utility.yul\":6051:6055   */\n      0x20\n        /* \"#utility.yul\":6043:6049   */\n      dup3\n        /* \"#utility.yul\":6039:6056   */\n      mul\n        /* \"#utility.yul\":6029:6037   */\n      dup4\n        /* \"#utility.yul\":6025:6057   */\n      add\n        /* \"#utility.yul\":6022:6063   */\n      gt\n        /* \"#utility.yul\":6019:6147   */\n      iszero\n      tag_508\n      jumpi\n        /* \"#utility.yul\":6066:6145   */\n      tag_509\n      tag_377\n      jump\t// in\n    tag_509:\n        /* \"#utility.yul\":6019:6147   */\n    tag_508:\n        /* \"#utility.yul\":5585:6153   */\n      swap3\n      pop\n      swap3\n      swap1\n      pop\n      jump\t// out\n        /* \"#utility.yul\":6159:7438   */\n    tag_40:\n        /* \"#utility.yul\":6302:6308   */\n      0x00\n        /* \"#utility.yul\":6310:6316   */\n      dup1\n        /* \"#utility.yul\":6318:6324   */\n      0x00\n        /* \"#utility.yul\":6326:6332   */\n      dup1\n        /* \"#utility.yul\":6334:6340   */\n      0x00\n        /* \"#utility.yul\":6342:6348   */\n      dup1\n        /* \"#utility.yul\":6391:6393   */\n      0x60\n        /* \"#utility.yul\":6379:6388   */\n      dup8\n        /* \"#utility.yul\":6370:6377   */\n      dup10\n        /* \"#utility.yul\":6366:6389   */\n      sub\n        /* \"#utility.yul\":6362:6394   */\n      slt\n        /* \"#utility.yul\":6359:6478   */\n      iszero\n      tag_511\n      jumpi\n        /* \"#utility.yul\":6397:6476   */\n      tag_512\n      tag_373\n      jump\t// in\n    tag_512:\n        /* \"#utility.yul\":6359:6478   */\n    tag_511:\n        /* \"#utility.yul\":6545:6546   */\n      0x00\n        /* \"#utility.yul\":6534:6543   */\n      dup8\n        /* \"#utility.yul\":6530:6547   */\n      add\n        /* \"#utility.yul\":6517:6548   */\n      calldataload\n        /* \"#utility.yul\":6575:6593   */\n      0xffffffffffffffff\n        /* \"#utility.yul\":6567:6573   */\n      dup2\n        /* \"#utility.yul\":6564:6594   */\n      gt\n        /* \"#utility.yul\":6561:6678   */\n      iszero\n      tag_513\n      jumpi\n        /* \"#utility.yul\":6597:6676   */\n      tag_514\n      tag_374\n      jump\t// in\n    tag_514:\n        /* \"#utility.yul\":6561:6678   */\n    tag_513:\n        /* \"#utility.yul\":6710:6790   */\n      tag_515\n        /* \"#utility.yul\":6782:6789   */\n      dup10\n        /* \"#utility.yul\":6773:6779   */\n      dup3\n        /* \"#utility.yul\":6762:6771   */\n      dup11\n        /* \"#utility.yul\":6758:6780   */\n      add\n        /* \"#utility.yul\":6710:6790   */\n      tag_391\n      jump\t// in\n    tag_515:\n        /* \"#utility.yul\":6692:6790   */\n      swap7\n      pop\n      swap7\n      pop\n        /* \"#utility.yul\":6488:6800   */\n      pop\n        /* \"#utility.yul\":6867:6869   */\n      0x20\n        /* \"#utility.yul\":6856:6865   */\n      dup8\n        /* \"#utility.yul\":6852:6870   */\n      add\n        /* \"#utility.yul\":6839:6871   */\n      calldataload\n        /* \"#utility.yul\":6898:6916   */\n      0xffffffffffffffff\n        /* \"#utility.yul\":6890:6896   */\n      dup2\n        /* \"#utility.yul\":6887:6917   */\n      gt\n        /* \"#utility.yul\":6884:7001   */\n      iszero\n      tag_516\n      jumpi\n        /* \"#utility.yul\":6920:6999   */\n      tag_517\n      tag_374\n      jump\t// in\n    tag_517:\n        /* \"#utility.yul\":6884:7001   */\n    tag_516:\n        /* \"#utility.yul\":7033:7113   */\n      tag_518\n        /* \"#utility.yul\":7105:7112   */\n      dup10\n        /* \"#utility.yul\":7096:7102   */\n      dup3\n        /* \"#utility.yul\":7085:7094   */\n      dup11\n        /* \"#utility.yul\":7081:7103   */\n      add\n        /* \"#utility.yul\":7033:7113   */\n      tag_391\n      jump\t// in\n    tag_518:\n        /* \"#utility.yul\":7015:7113   */\n      swap5\n      pop\n      swap5\n      pop\n        /* \"#utility.yul\":6810:7123   */\n      pop\n        /* \"#utility.yul\":7190:7192   */\n      0x40\n        /* \"#utility.yul\":7179:7188   */\n      dup8\n        /* \"#utility.yul\":7175:7193   */\n      add\n        /* \"#utility.yul\":7162:7194   */\n      calldataload\n        /* \"#utility.yul\":7221:7239   */\n      0xffffffffffffffff\n        /* \"#utility.yul\":7213:7219   */\n      dup2\n        /* \"#utility.yul\":7210:7240   */\n      gt\n        /* \"#utility.yul\":7207:7324   */\n      iszero\n      tag_519\n      jumpi\n        /* \"#utility.yul\":7243:7322   */\n      tag_520\n      tag_374\n      jump\t// in\n    tag_520:\n        /* \"#utility.yul\":7207:7324   */\n    tag_519:\n        /* \"#utility.yul\":7356:7421   */\n      tag_521\n        /* \"#utility.yul\":7413:7420   */\n      dup10\n        /* \"#utility.yul\":7404:7410   */\n      dup3\n        /* \"#utility.yul\":7393:7402   */\n      dup11\n        /* \"#utility.yul\":7389:7411   */\n      add\n        /* \"#utility.yul\":7356:7421   */\n      tag_378\n      jump\t// in\n    tag_521:\n        /* \"#utility.yul\":7338:7421   */\n      swap3\n      pop\n      swap3\n      pop\n        /* \"#utility.yul\":7133:7431   */\n      pop\n        /* \"#utility.yul\":6159:7438   */\n      swap3\n      swap6\n      pop\n      swap3\n      swap6\n      pop\n      swap3\n      swap6\n      jump\t// out\n        /* \"#utility.yul\":7444:7773   */\n    tag_45:\n        /* \"#utility.yul\":7503:7509   */\n      0x00\n        /* \"#utility.yul\":7552:7554   */\n      0x20\n        /* \"#utility.yul\":7540:7549   */\n      dup3\n        /* \"#utility.yul\":7531:7538   */\n      dup5\n        /* \"#utility.yul\":7527:7550   */\n      sub\n        /* \"#utility.yul\":7523:7555   */\n      slt\n        /* \"#utility.yul\":7520:7639   */\n      iszero\n      tag_523\n      jumpi\n        /* \"#utility.yul\":7558:7637   */\n      tag_524\n      tag_373\n      jump\t// in\n    tag_524:\n        /* \"#utility.yul\":7520:7639   */\n    tag_523:\n        /* \"#utility.yul\":7678:7679   */\n      0x00\n        /* \"#utility.yul\":7703:7756   */\n      tag_525\n        /* \"#utility.yul\":7748:7755   */\n      dup5\n        /* \"#utility.yul\":7739:7745   */\n      dup3\n        /* \"#utility.yul\":7728:7737   */\n      dup6\n        /* \"#utility.yul\":7724:7746   */\n      add\n        /* \"#utility.yul\":7703:7756   */\n      tag_381\n      jump\t// in\n    tag_525:\n        /* \"#utility.yul\":7693:7756   */\n      swap2\n      pop\n        /* \"#utility.yul\":7649:7766   */\n      pop\n        /* \"#utility.yul\":7444:7773   */\n      swap3\n      swap2\n      pop\n      pop\n      jump\t// out\n        /* \"#utility.yul\":7779:7883   */\n    tag_392:\n        /* \"#utility.yul\":7844:7850   */\n      0x00\n        /* \"#utility.yul\":7872:7876   */\n      0x03\n        /* \"#utility.yul\":7862:7876   */\n      swap1\n      pop\n        /* \"#utility.yul\":7779:7883   */\n      swap2\n      swap1\n      pop\n      jump\t// out\n        /* \"#utility.yul\":7889:8032   */\n    tag_393:\n        /* \"#utility.yul\":7986:7997   */\n      0x00\n        /* \"#utility.yul\":8023:8026   */\n      dup2\n        /* \"#utility.yul\":8008:8026   */\n      swap1\n      pop\n        /* \"#utility.yul\":7889:8032   */\n      swap3\n      swap2\n      pop\n      pop\n      jump\t// out\n        /* \"#utility.yul\":8038:8136   */\n    tag_394:\n        /* \"#utility.yul\":8103:8107   */\n      0x00\n        /* \"#utility.yul\":8126:8129   */\n      dup2\n        /* \"#utility.yul\":8118:8129   */\n      swap1\n      pop\n        /* \"#utility.yul\":8038:8136   */\n      swap2\n      swap1\n      pop\n      jump\t// out\n        /* \"#utility.yul\":8142:8250   */\n    tag_395:\n        /* \"#utility.yul\":8219:8243   */\n      tag_530\n        /* \"#utility.yul\":8237:8242   */\n      dup2\n        /* \"#utility.yul\":8219:8243   */\n      tag_379\n      jump\t// in\n    tag_530:\n        /* \"#utility.yul\":8214:8217   */\n      dup3\n        /* \"#utility.yul\":8207:8244   */\n      mstore\n        /* \"#utility.yul\":8142:8250   */\n      pop\n      pop\n      jump\t// out\n        /* \"#utility.yul\":8256:8435   */\n    tag_396:\n        /* \"#utility.yul\":8325:8335   */\n      0x00\n        /* \"#utility.yul\":8346:8392   */\n      tag_532\n        /* \"#utility.yul\":8388:8391   */\n      dup4\n        /* \"#utility.yul\":8380:8386   */\n      dup4\n        /* \"#utility.yul\":8346:8392   */\n      tag_395\n      jump\t// in\n    tag_532:\n        /* \"#utility.yul\":8424:8428   */\n      0x20\n        /* \"#utility.yul\":8419:8422   */\n      dup4\n        /* \"#utility.yul\":8415:8429   */\n      add\n        /* \"#utility.yul\":8401:8429   */\n      swap1\n      pop\n        /* \"#utility.yul\":8256:8435   */\n      swap3\n      swap2\n      pop\n      pop\n      jump\t// out\n        /* \"#utility.yul\":8441:8552   */\n    tag_397:\n        /* \"#utility.yul\":8509:8513   */\n      0x00\n        /* \"#utility.yul\":8541:8545   */\n      0x20\n        /* \"#utility.yul\":8536:8539   */\n      dup3\n        /* \"#utility.yul\":8532:8546   */\n      add\n        /* \"#utility.yul\":8524:8546   */\n      swap1\n      pop\n        /* \"#utility.yul\":8441:8552   */\n      swap2\n      swap1\n      pop\n      jump\t// out\n        /* \"#utility.yul\":8590:9284   */\n    tag_398:\n        /* \"#utility.yul\":8726:8778   */\n      tag_535\n        /* \"#utility.yul\":8772:8777   */\n      dup2\n        /* \"#utility.yul\":8726:8778   */\n      tag_392\n      jump\t// in\n    tag_535:\n        /* \"#utility.yul\":8794:8878   */\n      tag_536\n        /* \"#utility.yul\":8871:8877   */\n      dup2\n        /* \"#utility.yul\":8866:8869   */\n      dup5\n        /* \"#utility.yul\":8794:8878   */\n      tag_393\n      jump\t// in\n    tag_536:\n        /* \"#utility.yul\":8787:8878   */\n      swap3\n      pop\n        /* \"#utility.yul\":8902:8956   */\n      tag_537\n        /* \"#utility.yul\":8950:8955   */\n      dup3\n        /* \"#utility.yul\":8902:8956   */\n      tag_394\n      jump\t// in\n    tag_537:\n        /* \"#utility.yul\":8979:8986   */\n      dup1\n        /* \"#utility.yul\":9010:9011   */\n      0x00\n        /* \"#utility.yul\":8995:9277   */\n    tag_538:\n        /* \"#utility.yul\":9020:9026   */\n      dup4\n        /* \"#utility.yul\":9017:9018   */\n      dup2\n        /* \"#utility.yul\":9014:9027   */\n      lt\n        /* \"#utility.yul\":8995:9277   */\n      iszero\n      tag_540\n      jumpi\n        /* \"#utility.yul\":9096:9102   */\n      dup2\n        /* \"#utility.yul\":9090:9103   */\n      mload\n        /* \"#utility.yul\":9123:9186   */\n      tag_541\n        /* \"#utility.yul\":9182:9185   */\n      dup8\n        /* \"#utility.yul\":9167:9180   */\n      dup3\n        /* \"#utility.yul\":9123:9186   */\n      tag_396\n      jump\t// in\n    tag_541:\n        /* \"#utility.yul\":9116:9186   */\n      swap7\n      pop\n        /* \"#utility.yul\":9209:9267   */\n      tag_542\n        /* \"#utility.yul\":9260:9266   */\n      dup4\n        /* \"#utility.yul\":9209:9267   */\n      tag_397\n      jump\t// in\n    tag_542:\n        /* \"#utility.yul\":9199:9267   */\n      swap3\n      pop\n        /* \"#utility.yul\":9055:9277   */\n      pop\n        /* \"#utility.yul\":9042:9043   */\n      0x01\n        /* \"#utility.yul\":9039:9040   */\n      dup2\n        /* \"#utility.yul\":9035:9044   */\n      add\n        /* \"#utility.yul\":9030:9044   */\n      swap1\n      pop\n        /* \"#utility.yul\":8995:9277   */\n      jump(tag_538)\n    tag_540:\n        /* \"#utility.yul\":8999:9013   */\n      pop\n        /* \"#utility.yul\":8702:9284   */\n      pop\n      pop\n      pop\n        /* \"#utility.yul\":8590:9284   */\n      pop\n      pop\n      jump\t// out\n        /* \"#utility.yul\":9290:9604   */\n    tag_60:\n        /* \"#utility.yul\":9429:9433   */\n      0x00\n        /* \"#utility.yul\":9467:9469   */\n      0x60\n        /* \"#utility.yul\":9456:9465   */\n      dup3\n        /* \"#utility.yul\":9452:9470   */\n      add\n        /* \"#utility.yul\":9444:9470   */\n      swap1\n      pop\n        /* \"#utility.yul\":9480:9597   */\n      tag_544\n        /* \"#utility.yul\":9594:9595   */\n      0x00\n        /* \"#utility.yul\":9583:9592   */\n      dup4\n        /* \"#utility.yul\":9579:9596   */\n      add\n        /* \"#utility.yul\":9570:9576   */\n      dup5\n        /* \"#utility.yul\":9480:9597   */\n      tag_398\n      jump\t// in\n    tag_544:\n        /* \"#utility.yul\":9290:9604   */\n      swap3\n      swap2\n      pop\n      pop\n      jump\t// out\n        /* \"#utility.yul\":9610:10084   */\n    tag_64:\n        /* \"#utility.yul\":9678:9684   */\n      0x00\n        /* \"#utility.yul\":9686:9692   */\n      dup1\n        /* \"#utility.yul\":9735:9737   */\n      0x40\n        /* \"#utility.yul\":9723:9732   */\n      dup4\n        /* \"#utility.yul\":9714:9721   */\n      dup6\n        /* \"#utility.yul\":9710:9733   */\n      sub\n        /* \"#utility.yul\":9706:9738   */\n      slt\n        /* \"#utility.yul\":9703:9822   */\n      iszero\n      tag_546\n      jumpi\n        /* \"#utility.yul\":9741:9820   */\n      tag_547\n      tag_373\n      jump\t// in\n    tag_547:\n        /* \"#utility.yul\":9703:9822   */\n    tag_546:\n        /* \"#utility.yul\":9861:9862   */\n      0x00\n        /* \"#utility.yul\":9886:9939   */\n      tag_548\n        /* \"#utility.yul\":9931:9938   */\n      dup6\n        /* \"#utility.yul\":9922:9928   */\n      dup3\n        /* \"#utility.yul\":9911:9920   */\n      dup7\n        /* \"#utility.yul\":9907:9929   */\n      add\n        /* \"#utility.yul\":9886:9939   */\n      tag_381\n      jump\t// in\n    tag_548:\n        /* \"#utility.yul\":9876:9939   */\n      swap3\n      pop\n        /* \"#utility.yul\":9832:9949   */\n      pop\n        /* \"#utility.yul\":9988:9990   */\n      0x20\n        /* \"#utility.yul\":10014:10067   */\n      tag_549\n        /* \"#utility.yul\":10059:10066   */\n      dup6\n        /* \"#utility.yul\":10050:10056   */\n      dup3\n        /* \"#utility.yul\":10039:10048   */\n      dup7\n        /* \"#utility.yul\":10035:10057   */\n      add\n        /* \"#utility.yul\":10014:10067   */\n      tag_381\n      jump\t// in\n    tag_549:\n        /* \"#utility.yul\":10004:10067   */\n      swap2\n      pop\n        /* \"#utility.yul\":9959:10077   */\n      pop\n        /* \"#utility.yul\":9610:10084   */\n      swap3\n      pop\n      swap3\n      swap1\n      pop\n      jump\t// out\n        /* \"#utility.yul\":10090:10216   */\n    tag_399:\n        /* \"#utility.yul\":10127:10134   */\n      0x00\n        /* \"#utility.yul\":10167:10209   */\n      0xffffffffffffffffffffffffffffffffffffffff\n        /* \"#utility.yul\":10160:10165   */\n      dup3\n        /* \"#utility.yul\":10156:10210   */\n      and\n        /* \"#utility.yul\":10145:10210   */\n      swap1\n      pop\n        /* \"#utility.yul\":10090:10216   */\n      swap2\n      swap1\n      pop\n      jump\t// out\n        /* \"#utility.yul\":10222:10318   */\n    tag_400:\n        /* \"#utility.yul\":10259:10266   */\n      0x00\n        /* \"#utility.yul\":10288:10312   */\n      tag_552\n        /* \"#utility.yul\":10306:10311   */\n      dup3\n        /* \"#utility.yul\":10288:10312   */\n      tag_399\n      jump\t// in\n    tag_552:\n        /* \"#utility.yul\":10277:10312   */\n      swap1\n      pop\n        /* \"#utility.yul\":10222:10318   */\n      swap2\n      swap1\n      pop\n      jump\t// out\n        /* \"#utility.yul\":10324:10446   */\n    tag_401:\n        /* \"#utility.yul\":10397:10421   */\n      tag_554\n        /* \"#utility.yul\":10415:10420   */\n      dup2\n        /* \"#utility.yul\":10397:10421   */\n      tag_400\n      jump\t// in\n    tag_554:\n        /* \"#utility.yul\":10390:10395   */\n      dup2\n        /* \"#utility.yul\":10387:10422   */\n      eq\n        /* \"#utility.yul\":10377:10440   */\n      tag_555\n      jumpi\n        /* \"#utility.yul\":10436:10437   */\n      0x00\n        /* \"#utility.yul\":10433:10434   */\n      dup1\n        /* \"#utility.yul\":10426:10438   */\n      revert\n        /* \"#utility.yul\":10377:10440   */\n    tag_555:\n        /* \"#utility.yul\":10324:10446   */\n      pop\n      jump\t// out\n        /* \"#utility.yul\":10452:10591   */\n    tag_402:\n        /* \"#utility.yul\":10498:10503   */\n      0x00\n        /* \"#utility.yul\":10536:10542   */\n      dup2\n        /* \"#utility.yul\":10523:10543   */\n      calldataload\n        /* \"#utility.yul\":10514:10543   */\n      swap1\n      pop\n        /* \"#utility.yul\":10552:10585   */\n      tag_557\n        /* \"#utility.yul\":10579:10584   */\n      dup2\n        /* \"#utility.yul\":10552:10585   */\n      tag_401\n      jump\t// in\n    tag_557:\n        /* \"#utility.yul\":10452:10591   */\n      swap3\n      swap2\n      pop\n      pop\n      jump\t// out\n        /* \"#utility.yul\":10597:11071   */\n    tag_69:\n        /* \"#utility.yul\":10665:10671   */\n      0x00\n        /* \"#utility.yul\":10673:10679   */\n      dup1\n        /* \"#utility.yul\":10722:10724   */\n      0x40\n        /* \"#utility.yul\":10710:10719   */\n      dup4\n        /* \"#utility.yul\":10701:10708   */\n      dup6\n        /* \"#utility.yul\":10697:10720   */\n      sub\n        /* \"#utility.yul\":10693:10725   */\n      slt\n        /* \"#utility.yul\":10690:10809   */\n      iszero\n      tag_559\n      jumpi\n        /* \"#utility.yul\":10728:10807   */\n      tag_560\n      tag_373\n      jump\t// in\n    tag_560:\n        /* \"#utility.yul\":10690:10809   */\n    tag_559:\n        /* \"#utility.yul\":10848:10849   */\n      0x00\n        /* \"#utility.yul\":10873:10926   */\n      tag_561\n        /* \"#utility.yul\":10918:10925   */\n      dup6\n        /* \"#utility.yul\":10909:10915   */\n      dup3\n        /* \"#utility.yul\":10898:10907   */\n      dup7\n        /* \"#utility.yul\":10894:10916   */\n      add\n        /* \"#utility.yul\":10873:10926   */\n      tag_402\n      jump\t// in\n    tag_561:\n        /* \"#utility.yul\":10863:10926   */\n      swap3\n      pop\n        /* \"#utility.yul\":10819:10936   */\n      pop\n        /* \"#utility.yul\":10975:10977   */\n      0x20\n        /* \"#utility.yul\":11001:11054   */\n      tag_562\n        /* \"#utility.yul\":11046:11053   */\n      dup6\n        /* \"#utility.yul\":11037:11043   */\n      dup3\n        /* \"#utility.yul\":11026:11035   */\n      dup7\n        /* \"#utility.yul\":11022:11044   */\n      add\n        /* \"#utility.yul\":11001:11054   */\n      tag_381\n      jump\t// in\n    tag_562:\n        /* \"#utility.yul\":10991:11054   */\n      swap2\n      pop\n        /* \"#utility.yul\":10946:11064   */\n      pop\n        /* \"#utility.yul\":10597:11071   */\n      swap3\n      pop\n      swap3\n      swap1\n      pop\n      jump\t// out\n        /* \"#utility.yul\":11077:11195   */\n    tag_403:\n        /* \"#utility.yul\":11164:11188   */\n      tag_564\n        /* \"#utility.yul\":11182:11187   */\n      dup2\n        /* \"#utility.yul\":11164:11188   */\n      tag_400\n      jump\t// in\n    tag_564:\n        /* \"#utility.yul\":11159:11162   */\n      dup3\n        /* \"#utility.yul\":11152:11189   */\n      mstore\n        /* \"#utility.yul\":11077:11195   */\n      pop\n      pop\n      jump\t// out\n        /* \"#utility.yul\":11201:11423   */\n    tag_83:\n        /* \"#utility.yul\":11294:11298   */\n      0x00\n        /* \"#utility.yul\":11332:11334   */\n      0x20\n        /* \"#utility.yul\":11321:11330   */\n      dup3\n        /* \"#utility.yul\":11317:11335   */\n      add\n        /* \"#utility.yul\":11309:11335   */\n      swap1\n      pop\n        /* \"#utility.yul\":11345:11416   */\n      tag_566\n        /* \"#utility.yul\":11413:11414   */\n      0x00\n        /* \"#utility.yul\":11402:11411   */\n      dup4\n        /* \"#utility.yul\":11398:11415   */\n      add\n        /* \"#utility.yul\":11389:11395   */\n      dup5\n        /* \"#utility.yul\":11345:11416   */\n      tag_403\n      jump\t// in\n    tag_566:\n        /* \"#utility.yul\":11201:11423   */\n      swap3\n      swap2\n      pop\n      pop\n      jump\t// out\n        /* \"#utility.yul\":11429:12248   */\n    tag_90:\n        /* \"#utility.yul\":11518:11524   */\n      0x00\n        /* \"#utility.yul\":11526:11532   */\n      dup1\n        /* \"#utility.yul\":11534:11540   */\n      0x00\n        /* \"#utility.yul\":11542:11548   */\n      dup1\n        /* \"#utility.yul\":11591:11593   */\n      0x60\n        /* \"#utility.yul\":11579:11588   */\n      dup6\n        /* \"#utility.yul\":11570:11577   */\n      dup8\n        /* \"#utility.yul\":11566:11589   */\n      sub\n        /* \"#utility.yul\":11562:11594   */\n      slt\n        /* \"#utility.yul\":11559:11678   */\n      iszero\n      tag_568\n      jumpi\n        /* \"#utility.yul\":11597:11676   */\n      tag_569\n      tag_373\n      jump\t// in\n    tag_569:\n        /* \"#utility.yul\":11559:11678   */\n    tag_568:\n        /* \"#utility.yul\":11717:11718   */\n      0x00\n        /* \"#utility.yul\":11742:11795   */\n      tag_570\n        /* \"#utility.yul\":11787:11794   */\n      dup8\n        /* \"#utility.yul\":11778:11784   */\n      dup3\n        /* \"#utility.yul\":11767:11776   */\n      dup9\n        /* \"#utility.yul\":11763:11785   */\n      add\n        /* \"#utility.yul\":11742:11795   */\n      tag_381\n      jump\t// in\n    tag_570:\n        /* \"#utility.yul\":11732:11795   */\n      swap5\n      pop\n        /* \"#utility.yul\":11688:11805   */\n      pop\n        /* \"#utility.yul\":11844:11846   */\n      0x20\n        /* \"#utility.yul\":11870:11923   */\n      tag_571\n        /* \"#utility.yul\":11915:11922   */\n      dup8\n        /* \"#utility.yul\":11906:11912   */\n      dup3\n        /* \"#utility.yul\":11895:11904   */\n      dup9\n        /* \"#utility.yul\":11891:11913   */\n      add\n        /* \"#utility.yul\":11870:11923   */\n      tag_381\n      jump\t// in\n    tag_571:\n        /* \"#utility.yul\":11860:11923   */\n      swap4\n      pop\n        /* \"#utility.yul\":11815:11933   */\n      pop\n        /* \"#utility.yul\":12000:12002   */\n      0x40\n        /* \"#utility.yul\":11989:11998   */\n      dup6\n        /* \"#utility.yul\":11985:12003   */\n      add\n        /* \"#utility.yul\":11972:12004   */\n      calldataload\n        /* \"#utility.yul\":12031:12049   */\n      0xffffffffffffffff\n        /* \"#utility.yul\":12023:12029   */\n      dup2\n        /* \"#utility.yul\":12020:12050   */\n      gt\n        /* \"#utility.yul\":12017:12134   */\n      iszero\n      tag_572\n      jumpi\n        /* \"#utility.yul\":12053:12132   */\n      tag_573\n      tag_374\n      jump\t// in\n    tag_573:\n        /* \"#utility.yul\":12017:12134   */\n    tag_572:\n        /* \"#utility.yul\":12166:12231   */\n      tag_574\n        /* \"#utility.yul\":12223:12230   */\n      dup8\n        /* \"#utility.yul\":12214:12220   */\n      dup3\n        /* \"#utility.yul\":12203:12212   */\n      dup9\n        /* \"#utility.yul\":12199:12221   */\n      add\n        /* \"#utility.yul\":12166:12231   */\n      tag_378\n      jump\t// in\n    tag_574:\n        /* \"#utility.yul\":12148:12231   */\n      swap3\n      pop\n      swap3\n      pop\n        /* \"#utility.yul\":11943:12241   */\n      pop\n        /* \"#utility.yul\":11429:12248   */\n      swap3\n      swap6\n      swap2\n      swap5\n      pop\n      swap3\n      pop\n      jump\t// out\n        /* \"#utility.yul\":12254:12928   */\n    tag_95:\n        /* \"#utility.yul\":12334:12340   */\n      0x00\n        /* \"#utility.yul\":12342:12348   */\n      dup1\n        /* \"#utility.yul\":12350:12356   */\n      0x00\n        /* \"#utility.yul\":12399:12401   */\n      0x40\n        /* \"#utility.yul\":12387:12396   */\n      dup5\n        /* \"#utility.yul\":12378:12385   */\n      dup7\n        /* \"#utility.yul\":12374:12397   */\n      sub\n        /* \"#utility.yul\":12370:12402   */\n      slt\n        /* \"#utility.yul\":12367:12486   */\n      iszero\n      tag_576\n      jumpi\n        /* \"#utility.yul\":12405:12484   */\n      tag_577\n      tag_373\n      jump\t// in\n    tag_577:\n        /* \"#utility.yul\":12367:12486   */\n    tag_576:\n        /* \"#utility.yul\":12553:12554   */\n      0x00\n        /* \"#utility.yul\":12542:12551   */\n      dup5\n        /* \"#utility.yul\":12538:12555   */\n      add\n        /* \"#utility.yul\":12525:12556   */\n      calldataload\n        /* \"#utility.yul\":12583:12601   */\n      0xffffffffffffffff\n        /* \"#utility.yul\":12575:12581   */\n      dup2\n        /* \"#utility.yul\":12572:12602   */\n      gt\n        /* \"#utility.yul\":12569:12686   */\n      iszero\n      tag_578\n      jumpi\n        /* \"#utility.yul\":12605:12684   */\n      tag_579\n      tag_374\n      jump\t// in\n    tag_579:\n        /* \"#utility.yul\":12569:12686   */\n    tag_578:\n        /* \"#utility.yul\":12718:12783   */\n      tag_580\n        /* \"#utility.yul\":12775:12782   */\n      dup7\n        /* \"#utility.yul\":12766:12772   */\n      dup3\n        /* \"#utility.yul\":12755:12764   */\n      dup8\n        /* \"#utility.yul\":12751:12773   */\n      add\n        /* \"#utility.yul\":12718:12783   */\n      tag_378\n      jump\t// in\n    tag_580:\n        /* \"#utility.yul\":12700:12783   */\n      swap4\n      pop\n      swap4\n      pop\n        /* \"#utility.yul\":12496:12793   */\n      pop\n        /* \"#utility.yul\":12832:12834   */\n      0x20\n        /* \"#utility.yul\":12858:12911   */\n      tag_581\n        /* \"#utility.yul\":12903:12910   */\n      dup7\n        /* \"#utility.yul\":12894:12900   */\n      dup3\n        /* \"#utility.yul\":12883:12892   */\n      dup8\n        /* \"#utility.yul\":12879:12901   */\n      add\n        /* \"#utility.yul\":12858:12911   */\n      tag_381\n      jump\t// in\n    tag_581:\n        /* \"#utility.yul\":12848:12911   */\n      swap2\n      pop\n        /* \"#utility.yul\":12803:12921   */\n      pop\n        /* \"#utility.yul\":12254:12928   */\n      swap3\n      pop\n      swap3\n      pop\n      swap3\n      jump\t// out\n        /* \"#utility.yul\":12934:13263   */\n    tag_104:\n        /* \"#utility.yul\":12993:12999   */\n      0x00\n        /* \"#utility.yul\":13042:13044   */\n      0x20\n        /* \"#utility.yul\":13030:13039   */\n      dup3\n        /* \"#utility.yul\":13021:13028   */\n      dup5\n        /* \"#utility.yul\":13017:13040   */\n      sub\n        /* \"#utility.yul\":13013:13045   */\n      slt\n        /* \"#utility.yul\":13010:13129   */\n      iszero\n      tag_583\n      jumpi\n        /* \"#utility.yul\":13048:13127   */\n      tag_584\n      tag_373\n      jump\t// in\n    tag_584:\n        /* \"#utility.yul\":13010:13129   */\n    tag_583:\n        /* \"#utility.yul\":13168:13169   */\n      0x00\n        /* \"#utility.yul\":13193:13246   */\n      tag_585\n        /* \"#utility.yul\":13238:13245   */\n      dup5\n        /* \"#utility.yul\":13229:13235   */\n      dup3\n        /* \"#utility.yul\":13218:13227   */\n      dup6\n        /* \"#utility.yul\":13214:13236   */\n      add\n        /* \"#utility.yul\":13193:13246   */\n      tag_402\n      jump\t// in\n    tag_585:\n        /* \"#utility.yul\":13183:13246   */\n      swap2\n      pop\n        /* \"#utility.yul\":13139:13256   */\n      pop\n        /* \"#utility.yul\":12934:13263   */\n      swap3\n      swap2\n      pop\n      pop\n      jump\t// out\n        /* \"#utility.yul\":13269:13407   */\n    tag_404:\n        /* \"#utility.yul\":13360:13366   */\n      0x00\n        /* \"#utility.yul\":13394:13399   */\n      dup2\n        /* \"#utility.yul\":13388:13400   */\n      mload\n        /* \"#utility.yul\":13378:13400   */\n      swap1\n      pop\n        /* \"#utility.yul\":13269:13407   */\n      swap2\n      swap1\n      pop\n      jump\t// out\n        /* \"#utility.yul\":13413:13621   */\n    tag_405:\n        /* \"#utility.yul\":13536:13547   */\n      0x00\n        /* \"#utility.yul\":13570:13576   */\n      dup3\n        /* \"#utility.yul\":13565:13568   */\n      dup3\n        /* \"#utility.yul\":13558:13577   */\n      mstore\n        /* \"#utility.yul\":13610:13614   */\n      0x20\n        /* \"#utility.yul\":13605:13608   */\n      dup3\n        /* \"#utility.yul\":13601:13615   */\n      add\n        /* \"#utility.yul\":13586:13615   */\n      swap1\n      pop\n        /* \"#utility.yul\":13413:13621   */\n      swap3\n      swap2\n      pop\n      pop\n      jump\t// out\n        /* \"#utility.yul\":13627:13783   */\n    tag_406:\n        /* \"#utility.yul\":13718:13722   */\n      0x00\n        /* \"#utility.yul\":13741:13744   */\n      dup2\n        /* \"#utility.yul\":13733:13744   */\n      swap1\n      pop\n        /* \"#utility.yul\":13771:13775   */\n      0x20\n        /* \"#utility.yul\":13766:13769   */\n      dup3\n        /* \"#utility.yul\":13762:13776   */\n      add\n        /* \"#utility.yul\":13754:13776   */\n      swap1\n      pop\n        /* \"#utility.yul\":13627:13783   */\n      swap2\n      swap1\n      pop\n      jump\t// out\n        /* \"#utility.yul\":13789:13888   */\n    tag_407:\n        /* \"#utility.yul\":13841:13847   */\n      0x00\n        /* \"#utility.yul\":13875:13880   */\n      dup2\n        /* \"#utility.yul\":13869:13881   */\n      mload\n        /* \"#utility.yul\":13859:13881   */\n      swap1\n      pop\n        /* \"#utility.yul\":13789:13888   */\n      swap2\n      swap1\n      pop\n      jump\t// out\n        /* \"#utility.yul\":13894:14053   */\n    tag_408:\n        /* \"#utility.yul\":13968:13979   */\n      0x00\n        /* \"#utility.yul\":14002:14008   */\n      dup3\n        /* \"#utility.yul\":13997:14000   */\n      dup3\n        /* \"#utility.yul\":13990:14009   */\n      mstore\n        /* \"#utility.yul\":14042:14046   */\n      0x20\n        /* \"#utility.yul\":14037:14040   */\n      dup3\n        /* \"#utility.yul\":14033:14047   */\n      add\n        /* \"#utility.yul\":14018:14047   */\n      swap1\n      pop\n        /* \"#utility.yul\":13894:14053   */\n      swap3\n      swap2\n      pop\n      pop\n      jump\t// out\n        /* \"#utility.yul\":14059:14198   */\n    tag_409:\n        /* \"#utility.yul\":14148:14154   */\n      dup3\n        /* \"#utility.yul\":14143:14146   */\n      dup2\n        /* \"#utility.yul\":14138:14141   */\n      dup4\n        /* \"#utility.yul\":14132:14155   */\n      mcopy\n        /* \"#utility.yul\":14189:14190   */\n      0x00\n        /* \"#utility.yul\":14180:14186   */\n      dup4\n        /* \"#utility.yul\":14175:14178   */\n      dup4\n        /* \"#utility.yul\":14171:14187   */\n      add\n        /* \"#utility.yul\":14164:14191   */\n      mstore\n        /* \"#utility.yul\":14059:14198   */\n      pop\n      pop\n      pop\n      jump\t// out\n        /* \"#utility.yul\":14204:14561   */\n    tag_410:\n        /* \"#utility.yul\":14282:14285   */\n      0x00\n        /* \"#utility.yul\":14310:14349   */\n      tag_593\n        /* \"#utility.yul\":14343:14348   */\n      dup3\n        /* \"#utility.yul\":14310:14349   */\n      tag_407\n      jump\t// in\n    tag_593:\n        /* \"#utility.yul\":14365:14426   */\n      tag_594\n        /* \"#utility.yul\":14419:14425   */\n      dup2\n        /* \"#utility.yul\":14414:14417   */\n      dup6\n        /* \"#utility.yul\":14365:14426   */\n      tag_408\n      jump\t// in\n    tag_594:\n        /* \"#utility.yul\":14358:14426   */\n      swap4\n      pop\n        /* \"#utility.yul\":14435:14500   */\n      tag_595\n        /* \"#utility.yul\":14493:14499   */\n      dup2\n        /* \"#utility.yul\":14488:14491   */\n      dup6\n        /* \"#utility.yul\":14481:14485   */\n      0x20\n        /* \"#utility.yul\":14474:14479   */\n      dup7\n        /* \"#utility.yul\":14470:14486   */\n      add\n        /* \"#utility.yul\":14435:14500   */\n      tag_409\n      jump\t// in\n    tag_595:\n        /* \"#utility.yul\":14525:14554   */\n      tag_596\n        /* \"#utility.yul\":14547:14553   */\n      dup2\n        /* \"#utility.yul\":14525:14554   */\n      tag_383\n      jump\t// in\n    tag_596:\n        /* \"#utility.yul\":14520:14523   */\n      dup5\n        /* \"#utility.yul\":14516:14555   */\n      add\n        /* \"#utility.yul\":14509:14555   */\n      swap2\n      pop\n        /* \"#utility.yul\":14286:14561   */\n      pop\n        /* \"#utility.yul\":14204:14561   */\n      swap3\n      swap2\n      pop\n      pop\n      jump\t// out\n        /* \"#utility.yul\":14619:15561   */\n    tag_411:\n        /* \"#utility.yul\":14726:14729   */\n      0x00\n        /* \"#utility.yul\":14762:14766   */\n      0x80\n        /* \"#utility.yul\":14757:14760   */\n      dup4\n        /* \"#utility.yul\":14753:14767   */\n      add\n        /* \"#utility.yul\":14849:14853   */\n      0x00\n        /* \"#utility.yul\":14842:14847   */\n      dup4\n        /* \"#utility.yul\":14838:14854   */\n      add\n        /* \"#utility.yul\":14832:14855   */\n      mload\n        /* \"#utility.yul\":14902:14905   */\n      dup5\n        /* \"#utility.yul\":14896:14900   */\n      dup3\n        /* \"#utility.yul\":14892:14906   */\n      sub\n        /* \"#utility.yul\":14885:14889   */\n      0x00\n        /* \"#utility.yul\":14880:14883   */\n      dup7\n        /* \"#utility.yul\":14876:14890   */\n      add\n        /* \"#utility.yul\":14869:14907   */\n      mstore\n        /* \"#utility.yul\":14928:15001   */\n      tag_598\n        /* \"#utility.yul\":14996:15000   */\n      dup3\n        /* \"#utility.yul\":14982:14994   */\n      dup3\n        /* \"#utility.yul\":14928:15001   */\n      tag_410\n      jump\t// in\n    tag_598:\n        /* \"#utility.yul\":14920:15001   */\n      swap2\n      pop\n        /* \"#utility.yul\":14777:15012   */\n      pop\n        /* \"#utility.yul\":15092:15096   */\n      0x20\n        /* \"#utility.yul\":15085:15090   */\n      dup4\n        /* \"#utility.yul\":15081:15097   */\n      add\n        /* \"#utility.yul\":15075:15098   */\n      mload\n        /* \"#utility.yul\":15111:15174   */\n      tag_599\n        /* \"#utility.yul\":15168:15172   */\n      0x20\n        /* \"#utility.yul\":15163:15166   */\n      dup7\n        /* \"#utility.yul\":15159:15173   */\n      add\n        /* \"#utility.yul\":15145:15157   */\n      dup3\n        /* \"#utility.yul\":15111:15174   */\n      tag_395\n      jump\t// in\n    tag_599:\n        /* \"#utility.yul\":15022:15184   */\n      pop\n        /* \"#utility.yul\":15267:15271   */\n      0x40\n        /* \"#utility.yul\":15260:15265   */\n      dup4\n        /* \"#utility.yul\":15256:15272   */\n      add\n        /* \"#utility.yul\":15250:15273   */\n      mload\n        /* \"#utility.yul\":15286:15349   */\n      tag_600\n        /* \"#utility.yul\":15343:15347   */\n      0x40\n        /* \"#utility.yul\":15338:15341   */\n      dup7\n        /* \"#utility.yul\":15334:15348   */\n      add\n        /* \"#utility.yul\":15320:15332   */\n      dup3\n        /* \"#utility.yul\":15286:15349   */\n      tag_395\n      jump\t// in\n    tag_600:\n        /* \"#utility.yul\":15194:15359   */\n      pop\n        /* \"#utility.yul\":15442:15446   */\n      0x60\n        /* \"#utility.yul\":15435:15440   */\n      dup4\n        /* \"#utility.yul\":15431:15447   */\n      add\n        /* \"#utility.yul\":15425:15448   */\n      mload\n        /* \"#utility.yul\":15461:15524   */\n      tag_601\n        /* \"#utility.yul\":15518:15522   */\n      0x60\n        /* \"#utility.yul\":15513:15516   */\n      dup7\n        /* \"#utility.yul\":15509:15523   */\n      add\n        /* \"#utility.yul\":15495:15507   */\n      dup3\n        /* \"#utility.yul\":15461:15524   */\n      tag_395\n      jump\t// in\n    tag_601:\n        /* \"#utility.yul\":15369:15534   */\n      pop\n        /* \"#utility.yul\":15551:15555   */\n      dup1\n        /* \"#utility.yul\":15544:15555   */\n      swap2\n      pop\n        /* \"#utility.yul\":14731:15561   */\n      pop\n        /* \"#utility.yul\":14619:15561   */\n      swap3\n      swap2\n      pop\n      pop\n      jump\t// out\n        /* \"#utility.yul\":15567:15819   */\n    tag_412:\n        /* \"#utility.yul\":15684:15694   */\n      0x00\n        /* \"#utility.yul\":15719:15813   */\n      tag_603\n        /* \"#utility.yul\":15809:15812   */\n      dup4\n        /* \"#utility.yul\":15801:15807   */\n      dup4\n        /* \"#utility.yul\":15719:15813   */\n      tag_411\n      jump\t// in\n    tag_603:\n        /* \"#utility.yul\":15705:15813   */\n      swap1\n      pop\n        /* \"#utility.yul\":15567:15819   */\n      swap3\n      swap2\n      pop\n      pop\n      jump\t// out\n        /* \"#utility.yul\":15825:15962   */\n    tag_413:\n        /* \"#utility.yul\":15919:15923   */\n      0x00\n        /* \"#utility.yul\":15951:15955   */\n      0x20\n        /* \"#utility.yul\":15946:15949   */\n      dup3\n        /* \"#utility.yul\":15942:15956   */\n      add\n        /* \"#utility.yul\":15934:15956   */\n      swap1\n      pop\n        /* \"#utility.yul\":15825:15962   */\n      swap2\n      swap1\n      pop\n      jump\t// out\n        /* \"#utility.yul\":16024:17127   */\n    tag_414:\n        /* \"#utility.yul\":16191:16194   */\n      0x00\n        /* \"#utility.yul\":16220:16298   */\n      tag_606\n        /* \"#utility.yul\":16292:16297   */\n      dup3\n        /* \"#utility.yul\":16220:16298   */\n      tag_404\n      jump\t// in\n    tag_606:\n        /* \"#utility.yul\":16314:16424   */\n      tag_607\n        /* \"#utility.yul\":16417:16423   */\n      dup2\n        /* \"#utility.yul\":16412:16415   */\n      dup6\n        /* \"#utility.yul\":16314:16424   */\n      tag_405\n      jump\t// in\n    tag_607:\n        /* \"#utility.yul\":16307:16424   */\n      swap4\n      pop\n        /* \"#utility.yul\":16450:16453   */\n      dup4\n        /* \"#utility.yul\":16495:16499   */\n      0x20\n        /* \"#utility.yul\":16487:16493   */\n      dup3\n        /* \"#utility.yul\":16483:16500   */\n      mul\n        /* \"#utility.yul\":16478:16481   */\n      dup6\n        /* \"#utility.yul\":16474:16501   */\n      add\n        /* \"#utility.yul\":16525:16605   */\n      tag_608\n        /* \"#utility.yul\":16599:16604   */\n      dup6\n        /* \"#utility.yul\":16525:16605   */\n      tag_406\n      jump\t// in\n    tag_608:\n        /* \"#utility.yul\":16628:16635   */\n      dup1\n        /* \"#utility.yul\":16659:16660   */\n      0x00\n        /* \"#utility.yul\":16644:17082   */\n    tag_609:\n        /* \"#utility.yul\":16669:16675   */\n      dup6\n        /* \"#utility.yul\":16666:16667   */\n      dup2\n        /* \"#utility.yul\":16663:16676   */\n      lt\n        /* \"#utility.yul\":16644:17082   */\n      iszero\n      tag_611\n      jumpi\n        /* \"#utility.yul\":16740:16749   */\n      dup5\n        /* \"#utility.yul\":16734:16738   */\n      dup5\n        /* \"#utility.yul\":16730:16750   */\n      sub\n        /* \"#utility.yul\":16725:16728   */\n      dup10\n        /* \"#utility.yul\":16718:16751   */\n      mstore\n        /* \"#utility.yul\":16791:16797   */\n      dup2\n        /* \"#utility.yul\":16785:16798   */\n      mload\n        /* \"#utility.yul\":16819:16931   */\n      tag_612\n        /* \"#utility.yul\":16926:16930   */\n      dup6\n        /* \"#utility.yul\":16911:16924   */\n      dup3\n        /* \"#utility.yul\":16819:16931   */\n      tag_412\n      jump\t// in\n    tag_612:\n        /* \"#utility.yul\":16811:16931   */\n      swap5\n      pop\n        /* \"#utility.yul\":16954:17038   */\n      tag_613\n        /* \"#utility.yul\":17031:17037   */\n      dup4\n        /* \"#utility.yul\":16954:17038   */\n      tag_413\n      jump\t// in\n    tag_613:\n        /* \"#utility.yul\":16944:17038   */\n      swap3\n      pop\n        /* \"#utility.yul\":17067:17071   */\n      0x20\n        /* \"#utility.yul\":17062:17065   */\n      dup11\n        /* \"#utility.yul\":17058:17072   */\n      add\n        /* \"#utility.yul\":17051:17072   */\n      swap10\n      pop\n        /* \"#utility.yul\":16704:17082   */\n      pop\n        /* \"#utility.yul\":16691:16692   */\n      0x01\n        /* \"#utility.yul\":16688:16689   */\n      dup2\n        /* \"#utility.yul\":16684:16693   */\n      add\n        /* \"#utility.yul\":16679:16693   */\n      swap1\n      pop\n        /* \"#utility.yul\":16644:17082   */\n      jump(tag_609)\n    tag_611:\n        /* \"#utility.yul\":16648:16662   */\n      pop\n        /* \"#utility.yul\":17098:17102   */\n      dup3\n        /* \"#utility.yul\":17091:17102   */\n      swap8\n      pop\n        /* \"#utility.yul\":17118:17121   */\n      dup8\n        /* \"#utility.yul\":17111:17121   */\n      swap6\n      pop\n        /* \"#utility.yul\":16196:17127   */\n      pop\n      pop\n      pop\n      pop\n      pop\n        /* \"#utility.yul\":16024:17127   */\n      swap3\n      swap2\n      pop\n      pop\n      jump\t// out\n        /* \"#utility.yul\":17133:17602   */\n    tag_111:\n        /* \"#utility.yul\":17324:17328   */\n      0x00\n        /* \"#utility.yul\":17362:17364   */\n      0x20\n        /* \"#utility.yul\":17351:17360   */\n      dup3\n        /* \"#utility.yul\":17347:17365   */\n      add\n        /* \"#utility.yul\":17339:17365   */\n      swap1\n      pop\n        /* \"#utility.yul\":17411:17420   */\n      dup2\n        /* \"#utility.yul\":17405:17409   */\n      dup2\n        /* \"#utility.yul\":17401:17421   */\n      sub\n        /* \"#utility.yul\":17397:17398   */\n      0x00\n        /* \"#utility.yul\":17386:17395   */\n      dup4\n        /* \"#utility.yul\":17382:17399   */\n      add\n        /* \"#utility.yul\":17375:17422   */\n      mstore\n        /* \"#utility.yul\":17439:17595   */\n      tag_615\n        /* \"#utility.yul\":17590:17594   */\n      dup2\n        /* \"#utility.yul\":17581:17587   */\n      dup5\n        /* \"#utility.yul\":17439:17595   */\n      tag_414\n      jump\t// in\n    tag_615:\n        /* \"#utility.yul\":17431:17595   */\n      swap1\n      pop\n        /* \"#utility.yul\":17133:17602   */\n      swap3\n      swap2\n      pop\n      pop\n      jump\t// out\n        /* \"#utility.yul\":17608:17788   */\n    tag_415:\n        /* \"#utility.yul\":17656:17733   */\n      0x4e487b7100000000000000000000000000000000000000000000000000000000\n        /* \"#utility.yul\":17653:17654   */\n      0x00\n        /* \"#utility.yul\":17646:17734   */\n      mstore\n        /* \"#utility.yul\":17753:17757   */\n      0x22\n        /* \"#utility.yul\":17750:17751   */\n      0x04\n        /* \"#utility.yul\":17743:17758   */\n      mstore\n        /* \"#utility.yul\":17777:17781   */\n      0x24\n        /* \"#utility.yul\":17774:17775   */\n      0x00\n        /* \"#utility.yul\":17767:17782   */\n      revert\n        /* \"#utility.yul\":17794:18114   */\n    tag_287:\n        /* \"#utility.yul\":17838:17844   */\n      0x00\n        /* \"#utility.yul\":17875:17876   */\n      0x02\n        /* \"#utility.yul\":17869:17873   */\n      dup3\n        /* \"#utility.yul\":17865:17877   */\n      div\n        /* \"#utility.yul\":17855:17877   */\n      swap1\n      pop\n        /* \"#utility.yul\":17922:17923   */\n      0x01\n        /* \"#utility.yul\":17916:17920   */\n      dup3\n        /* \"#utility.yul\":17912:17924   */\n      and\n        /* \"#utility.yul\":17943:17961   */\n      dup1\n        /* \"#utility.yul\":17933:18014   */\n      tag_618\n      jumpi\n        /* \"#utility.yul\":17999:18003   */\n      0x7f\n        /* \"#utility.yul\":17991:17997   */\n      dup3\n        /* \"#utility.yul\":17987:18004   */\n      and\n        /* \"#utility.yul\":17977:18004   */\n      swap2\n      pop\n        /* \"#utility.yul\":17933:18014   */\n    tag_618:\n        /* \"#utility.yul\":18061:18063   */\n      0x20\n        /* \"#utility.yul\":18053:18059   */\n      dup3\n        /* \"#utility.yul\":18050:18064   */\n      lt\n        /* \"#utility.yul\":18030:18048   */\n      dup2\n        /* \"#utility.yul\":18027:18065   */\n      sub\n        /* \"#utility.yul\":18024:18108   */\n      tag_619\n      jumpi\n        /* \"#utility.yul\":18080:18098   */\n      tag_620\n      tag_415\n      jump\t// in\n    tag_620:\n        /* \"#utility.yul\":18024:18108   */\n    tag_619:\n        /* \"#utility.yul\":17845:18114   */\n      pop\n        /* \"#utility.yul\":17794:18114   */\n      swap2\n      swap1\n      pop\n      jump\t// out\n        /* \"#utility.yul\":18120:18261   */\n    tag_416:\n        /* \"#utility.yul\":18169:18173   */\n      0x00\n        /* \"#utility.yul\":18192:18195   */\n      dup2\n        /* \"#utility.yul\":18184:18195   */\n      swap1\n      pop\n        /* \"#utility.yul\":18215:18218   */\n      dup2\n        /* \"#utility.yul\":18212:18213   */\n      0x00\n        /* \"#utility.yul\":18205:18219   */\n      mstore\n        /* \"#utility.yul\":18249:18253   */\n      0x20\n        /* \"#utility.yul\":18246:18247   */\n      0x00\n        /* \"#utility.yul\":18236:18254   */\n      keccak256\n        /* \"#utility.yul\":18228:18254   */\n      swap1\n      pop\n        /* \"#utility.yul\":18120:18261   */\n      swap2\n      swap1\n      pop\n      jump\t// out\n        /* \"#utility.yul\":18267:18360   */\n    tag_417:\n        /* \"#utility.yul\":18304:18310   */\n      0x00\n        /* \"#utility.yul\":18351:18353   */\n      0x20\n        /* \"#utility.yul\":18346:18348   */\n      0x1f\n        /* \"#utility.yul\":18339:18344   */\n      dup4\n        /* \"#utility.yul\":18335:18349   */\n      add\n        /* \"#utility.yul\":18331:18354   */\n      div\n        /* \"#utility.yul\":18321:18354   */\n      swap1\n      pop\n        /* \"#utility.yul\":18267:18360   */\n      swap2\n      swap1\n      pop\n      jump\t// out\n        /* \"#utility.yul\":18366:18473   */\n    tag_418:\n        /* \"#utility.yul\":18410:18418   */\n      0x00\n        /* \"#utility.yul\":18460:18465   */\n      dup3\n        /* \"#utility.yul\":18454:18458   */\n      dup3\n        /* \"#utility.yul\":18450:18466   */\n      shl\n        /* \"#utility.yul\":18429:18466   */\n      swap1\n      pop\n        /* \"#utility.yul\":18366:18473   */\n      swap3\n      swap2\n      pop\n      pop\n      jump\t// out\n        /* \"#utility.yul\":18479:18872   */\n    tag_419:\n        /* \"#utility.yul\":18548:18554   */\n      0x00\n        /* \"#utility.yul\":18598:18599   */\n      0x08\n        /* \"#utility.yul\":18586:18596   */\n      dup4\n        /* \"#utility.yul\":18582:18600   */\n      mul\n        /* \"#utility.yul\":18621:18718   */\n      tag_625\n        /* \"#utility.yul\":18651:18717   */\n      0xffffffffffffffffffffffffffffffffffffffffffffffffffffffffffffffff\n        /* \"#utility.yul\":18640:18649   */\n      dup3\n        /* \"#utility.yul\":18621:18718   */\n      tag_418\n      jump\t// in\n    tag_625:\n        /* \"#utility.yul\":18739:18778   */\n      tag_626\n        /* \"#utility.yul\":18769:18777   */\n      dup7\n        /* \"#utility.yul\":18758:18767   */\n      dup4\n        /* \"#utility.yul\":18739:18778   */\n      tag_418\n      jump\t// in\n    tag_626:\n        /* \"#utility.yul\":18727:18778   */\n      swap6\n      pop\n        /* \"#utility.yul\":18811:18815   */\n      dup1\n        /* \"#utility.yul\":18807:18816   */\n      not\n        /* \"#utility.yul\":18800:18805   */\n      dup5\n        /* \"#utility.yul\":18796:18817   */\n      and\n        /* \"#utility.yul\":18787:18817   */\n      swap4\n      pop\n        /* \"#utility.yul\":18860:18864   */\n      dup1\n        /* \"#utility.yul\":18850:18858   */\n      dup7\n        /* \"#utility.yul\":18846:18865   */\n      and\n        /* \"#utility.yul\":18839:18844   */\n      dup5\n        /* \"#utility.yul\":18836:18866   */\n      or\n        /* \"#utility.yul\":18826:18866   */\n      swap3\n      pop\n        /* \"#utility.yul\":18555:18872   */\n      pop\n      pop\n        /* \"#utility.yul\":18479:18872   */\n      swap4\n      swap3\n      pop\n      pop\n      pop\n      jump\t// out\n        /* \"#utility.yul\":18878:18938   */\n    tag_420:\n        /* \"#utility.yul\":18906:18909   */\n      0x00\n        /* \"#utility.yul\":18927:18932   */\n      dup2\n        /* \"#utility.yul\":18920:18932   */\n      swap1\n      pop\n        /* \"#utility.yul\":18878:18938   */\n      swap2\n      swap1\n      pop\n      jump\t// out\n        /* \"#utility.yul\":18944:19086   */\n    tag_421:\n        /* \"#utility.yul\":18994:19003   */\n      0x00\n        /* \"#utility.yul\":19027:19080   */\n      tag_629\n        /* \"#utility.yul\":19045:19079   */\n      tag_630\n        /* \"#utility.yul\":19054:19078   */\n      tag_631\n        /* \"#utility.yul\":19072:19077   */\n      dup5\n        /* \"#utility.yul\":19054:19078   */\n      tag_379\n      jump\t// in\n    tag_631:\n        /* \"#utility.yul\":19045:19079   */\n      tag_420\n      jump\t// in\n    tag_630:\n        /* \"#utility.yul\":19027:19080   */\n      tag_379\n      jump\t// in\n    tag_629:\n        /* \"#utility.yul\":19014:19080   */\n      swap1\n      pop\n        /* \"#utility.yul\":18944:19086   */\n      swap2\n      swap1\n      pop\n      jump\t// out\n        /* \"#utility.yul\":19092:19167   */\n    tag_422:\n        /* \"#utility.yul\":19135:19138   */\n      0x00\n        /* \"#utility.yul\":19156:19161   */\n      dup2\n        /* \"#utility.yul\":19149:19161   */\n      swap1\n      pop\n        /* \"#utility.yul\":19092:19167   */\n      swap2\n      swap1\n      pop\n      jump\t// out\n        /* \"#utility.yul\":19173:19442   */\n    tag_423:\n        /* \"#utility.yul\":19283:19322   */\n      tag_634\n        /* \"#utility.yul\":19314:19321   */\n      dup4\n        /* \"#utility.yul\":19283:19322   */\n      tag_421\n      jump\t// in\n    tag_634:\n        /* \"#utility.yul\":19344:19435   */\n      tag_635\n        /* \"#utility.yul\":19393:19434   */\n      tag_636\n        /* \"#utility.yul\":19417:19433   */\n      dup3\n        /* \"#utility.yul\":19393:19434   */\n      tag_422\n      jump\t// in\n    tag_636:\n        /* \"#utility.yul\":19385:19391   */\n      dup5\n        /* \"#utility.yul\":19378:19382   */\n      dup5\n        /* \"#utility.yul\":19372:19383   */\n      sload\n        /* \"#utility.yul\":19344:19435   */\n      tag_419\n      jump\t// in\n    tag_635:\n        /* \"#utility.yul\":19338:19342   */\n      dup3\n        /* \"#utility.yul\":19331:19436   */\n      sstore\n        /* \"#utility.yul\":19249:19442   */\n      pop\n        /* \"#utility.yul\":19173:19442   */\n      pop\n      pop\n      pop\n      jump\t// out\n        /* \"#utility.yul\":19448:19521   */\n    tag_424:\n        /* \"#utility.yul\":19493:19496   */\n      0x00\n        /* \"#utility.yul\":19448:19521   */\n      swap1\n      jump\t// out\n        /* \"#utility.yul\":19527:19716   */\n    tag_425:\n        /* \"#utility.yul\":19604:19636   */\n      tag_639\n      tag_424\n      jump\t// in\n    tag_639:\n        /* \"#utility.yul\":19645:19710   */\n      tag_640\n        /* \"#utility.yul\":19703:19709   */\n      dup2\n        /* \"#utility.yul\":19695:19701   */\n      dup5\n        /* \"#utility.yul\":19689:19693   */\n      dup5\n        /* \"#utility.yul\":19645:19710   */\n      tag_423\n      jump\t// in\n    tag_640:\n        /* \"#utility.yul\":19580:19716   */\n      pop\n        /* \"#utility.yul\":19527:19716   */\n      pop\n      pop\n      jump\t// out\n        /* \"#utility.yul\":19722:19908   */\n    tag_426:\n        /* \"#utility.yul\":19782:19902   */\n    tag_642:\n        /* \"#utility.yul\":19799:19802   */\n      dup2\n        /* \"#utility.yul\":19792:19797   */\n      dup2\n        /* \"#utility.yul\":19789:19803   */\n      lt\n        /* \"#utility.yul\":19782:19902   */\n      iszero\n      tag_644\n      jumpi\n        /* \"#utility.yul\":19853:19892   */\n      tag_645\n        /* \"#utility.yul\":19890:19891   */\n      0x00\n        /* \"#utility.yul\":19883:19888   */\n      dup3\n        /* \"#utility.yul\":19853:19892   */\n      tag_425\n      jump\t// in\n    tag_645:\n        /* \"#utility.yul\":19826:19827   */\n      0x01\n        /* \"#utility.yul\":19819:19824   */\n      dup2\n        /* \"#utility.yul\":19815:19828   */\n      add\n        /* \"#utility.yul\":19806:19828   */\n      swap1\n      pop\n        /* \"#utility.yul\":19782:19902   */\n      jump(tag_642)\n    tag_644:\n        /* \"#utility.yul\":19722:19908   */\n      pop\n      pop\n      jump\t// out\n        /* \"#utility.yul\":19914:20457   */\n    tag_427:\n        /* \"#utility.yul\":20015:20017   */\n      0x1f\n        /* \"#utility.yul\":20010:20013   */\n      dup3\n        /* \"#utility.yul\":20007:20018   */\n      gt\n        /* \"#utility.yul\":20004:20450   */\n      iszero\n      tag_647\n      jumpi\n        /* \"#utility.yul\":20049:20087   */\n      tag_648\n        /* \"#utility.yul\":20081:20086   */\n      dup2\n        /* \"#utility.yul\":20049:20087   */\n      tag_416\n      jump\t// in\n    tag_648:\n        /* \"#utility.yul\":20133:20162   */\n      tag_649\n        /* \"#utility.yul\":20151:20161   */\n      dup5\n        /* \"#utility.yul\":20133:20162   */\n      tag_417\n      jump\t// in\n    tag_649:\n        /* \"#utility.yul\":20123:20131   */\n      dup2\n        /* \"#utility.yul\":20119:20163   */\n      add\n        /* \"#utility.yul\":20316:20318   */\n      0x20\n        /* \"#utility.yul\":20304:20314   */\n      dup6\n        /* \"#utility.yul\":20301:20319   */\n      lt\n        /* \"#utility.yul\":20298:20347   */\n      iszero\n      tag_650\n      jumpi\n        /* \"#utility.yul\":20337:20345   */\n      dup2\n        /* \"#utility.yul\":20322:20345   */\n      swap1\n      pop\n        /* \"#utility.yul\":20298:20347   */\n    tag_650:\n        /* \"#utility.yul\":20360:20440   */\n      tag_651\n        /* \"#utility.yul\":20416:20438   */\n      tag_652\n        /* \"#utility.yul\":20434:20437   */\n      dup6\n        /* \"#utility.yul\":20416:20438   */\n      tag_417\n      jump\t// in\n    tag_652:\n        /* \"#utility.yul\":20406:20414   */\n      dup4\n        /* \"#utility.yul\":20402:20439   */\n      add\n        /* \"#utility.yul\":20389:20400   */\n      dup3\n        /* \"#utility.yul\":20360:20440   */\n      tag_426\n      jump\t// in\n    tag_651:\n        /* \"#utility.yul\":20019:20450   */\n      pop\n      pop\n        /* \"#utility.yul\":20004:20450   */\n    tag_647:\n        /* \"#utility.yul\":19914:20457   */\n      pop\n      pop\n      pop\n      jump\t// out\n        /* \"#utility.yul\":20463:20580   */\n    tag_428:\n        /* \"#utility.yul\":20517:20525   */\n      0x00\n        /* \"#utility.yul\":20567:20572   */\n      dup3\n        /* \"#utility.yul\":20561:20565   */\n      dup3\n        /* \"#utility.yul\":20557:20573   */\n      shr\n        /* \"#utility.yul\":20536:20573   */\n      swap1\n      pop\n        /* \"#utility.yul\":20463:20580   */\n      swap3\n      swap2\n      pop\n      pop\n      jump\t// out\n        /* \"#utility.yul\":20586:20755   */\n    tag_429:\n        /* \"#utility.yul\":20630:20636   */\n      0x00\n        /* \"#utility.yul\":20663:20714   */\n      tag_655\n        /* \"#utility.yul\":20711:20712   */\n      0x00\n        /* \"#utility.yul\":20707:20713   */\n      not\n        /* \"#utility.yul\":20699:20704   */\n      dup5\n        /* \"#utility.yul\":20696:20697   */\n      0x08\n        /* \"#utility.yul\":20692:20705   */\n      mul\n        /* \"#utility.yul\":20663:20714   */\n      tag_428\n      jump\t// in\n    tag_655:\n        /* \"#utility.yul\":20659:20715   */\n      not\n        /* \"#utility.yul\":20744:20748   */\n      dup1\n        /* \"#utility.yul\":20738:20742   */\n      dup4\n        /* \"#utility.yul\":20734:20749   */\n      and\n        /* \"#utility.yul\":20724:20749   */\n      swap2\n      pop\n        /* \"#utility.yul\":20637:20755   */\n      pop\n        /* \"#utility.yul\":20586:20755   */\n      swap3\n      swap2\n      pop\n      pop\n      jump\t// out\n        /* \"#utility.yul\":20760:21055   */\n    tag_430:\n        /* \"#utility.yul\":20836:20840   */\n      0x00\n        /* \"#utility.yul\":20982:21011   */\n      tag_657\n        /* \"#utility.yul\":21007:21010   */\n      dup4\n        /* \"#utility.yul\":21001:21005   */\n      dup4\n        /* \"#utility.yul\":20982:21011   */\n      tag_429\n      jump\t// in\n    tag_657:\n        /* \"#utility.yul\":20974:21011   */\n      swap2\n      pop\n        /* \"#utility.yul\":21044:21047   */\n      dup3\n        /* \"#utility.yul\":21041:21042   */\n      0x02\n        /* \"#utility.yul\":21037:21048   */\n      mul\n        /* \"#utility.yul\":21031:21035   */\n      dup3\n        /* \"#utility.yul\":21028:21049   */\n      or\n        /* \"#utility.yul\":21020:21049   */\n      swap1\n      pop\n        /* \"#utility.yul\":20760:21055   */\n      swap3\n      swap2\n      pop\n      pop\n      jump\t// out\n        /* \"#utility.yul\":21060:22455   */\n    tag_134:\n        /* \"#utility.yul\":21177:21214   */\n      tag_659\n        /* \"#utility.yul\":21210:21213   */\n      dup3\n        /* \"#utility.yul\":21177:21214   */\n      tag_407\n      jump\t// in\n    tag_659:\n        /* \"#utility.yul\":21279:21297   */\n      0xffffffffffffffff\n        /* \"#utility.yul\":21271:21277   */\n      dup2\n        /* \"#utility.yul\":21268:21298   */\n      gt\n        /* \"#utility.yul\":21265:21321   */\n      iszero\n      tag_660\n      jumpi\n        /* \"#utility.yul\":21301:21319   */\n      tag_661\n      tag_189\n      jump\t// in\n    tag_661:\n        /* \"#utility.yul\":21265:21321   */\n    tag_660:\n        /* \"#utility.yul\":21345:21383   */\n      tag_662\n        /* \"#utility.yul\":21377:21381   */\n      dup3\n        /* \"#utility.yul\":21371:21382   */\n      sload\n        /* \"#utility.yul\":21345:21383   */\n      tag_287\n      jump\t// in\n    tag_662:\n        /* \"#utility.yul\":21430:21497   */\n      tag_663\n        /* \"#utility.yul\":21490:21496   */\n      dup3\n        /* \"#utility.yul\":21482:21488   */\n      dup3\n        /* \"#utility.yul\":21476:21480   */\n      dup6\n        /* \"#utility.yul\":21430:21497   */\n      tag_427\n      jump\t// in\n    tag_663:\n        /* \"#utility.yul\":21524:21525   */\n      0x00\n        /* \"#utility.yul\":21548:21552   */\n      0x20\n        /* \"#utility.yul\":21535:21552   */\n      swap1\n      pop\n        /* \"#utility.yul\":21580:21582   */\n      0x1f\n        /* \"#utility.yul\":21572:21578   */\n      dup4\n        /* \"#utility.yul\":21569:21583   */\n      gt\n        /* \"#utility.yul\":21597:21598   */\n      0x01\n        /* \"#utility.yul\":21592:22210   */\n      dup2\n      eq\n      tag_665\n      jumpi\n        /* \"#utility.yul\":22254:22255   */\n      0x00\n        /* \"#utility.yul\":22271:22277   */\n      dup5\n        /* \"#utility.yul\":22268:22345   */\n      iszero\n      tag_666\n      jumpi\n        /* \"#utility.yul\":22320:22329   */\n      dup3\n        /* \"#utility.yul\":22315:22318   */\n      dup8\n        /* \"#utility.yul\":22311:22330   */\n      add\n        /* \"#utility.yul\":22305:22331   */\n      mload\n        /* \"#utility.yul\":22296:22331   */\n      swap1\n      pop\n        /* \"#utility.yul\":22268:22345   */\n    tag_666:\n        /* \"#utility.yul\":22371:22438   */\n      tag_667\n        /* \"#utility.yul\":22431:22437   */\n      dup6\n        /* \"#utility.yul\":22424:22429   */\n      dup3\n        /* \"#utility.yul\":22371:22438   */\n      tag_430\n      jump\t// in\n    tag_667:\n        /* \"#utility.yul\":22365:22369   */\n      dup7\n        /* \"#utility.yul\":22358:22439   */\n      sstore\n        /* \"#utility.yul\":22227:22449   */\n      pop\n        /* \"#utility.yul\":21562:22449   */\n      jump(tag_664)\n        /* \"#utility.yul\":21592:22210   */\n    tag_665:\n        /* \"#utility.yul\":21644:21648   */\n      0x1f\n        /* \"#utility.yul\":21640:21649   */\n      not\n        /* \"#utility.yul\":21632:21638   */\n      dup5\n        /* \"#utility.yul\":21628:21650   */\n      and\n        /* \"#utility.yul\":21678:21715   */\n      tag_668\n        /* \"#utility.yul\":21710:21714   */\n      dup7\n        /* \"#utility.yul\":21678:21715   */\n      tag_416\n      jump\t// in\n    tag_668:\n        /* \"#utility.yul\":21737:21738   */\n      0x00\n        /* \"#utility.yul\":21751:21959   */\n    tag_669:\n        /* \"#utility.yul\":21765:21772   */\n      dup3\n        /* \"#utility.yul\":21762:21763   */\n      dup2\n        /* \"#utility.yul\":21759:21773   */\n      lt\n        /* \"#utility.yul\":21751:21959   */\n      iszero\n      tag_671\n      jumpi\n        /* \"#utility.yul\":21844:21853   */\n      dup5\n        /* \"#utility.yul\":21839:21842   */\n      dup10\n        /* \"#utility.yul\":21835:21854   */\n      add\n        /* \"#utility.yul\":21829:21855   */\n      mload\n        /* \"#utility.yul\":21821:21827   */\n      dup3\n        /* \"#utility.yul\":21814:21856   */\n      sstore\n        /* \"#utility.yul\":21895:21896   */\n      0x01\n        /* \"#utility.yul\":21887:21893   */\n      dup3\n        /* \"#utility.yul\":21883:21897   */\n      add\n        /* \"#utility.yul\":21873:21897   */\n      swap2\n      pop\n        /* \"#utility.yul\":21942:21944   */\n      0x20\n        /* \"#utility.yul\":21931:21940   */\n      dup6\n        /* \"#utility.yul\":21927:21945   */\n      add\n        /* \"#utility.yul\":21914:21945   */\n      swap5\n      pop\n        /* \"#utility.yul\":21788:21792   */\n      0x20\n        /* \"#utility.yul\":21785:21786   */\n      dup2\n        /* \"#utility.yul\":21781:21793   */\n      add\n        /* \"#utility.yul\":21776:21793   */\n      swap1\n      pop\n        /* \"#utility.yul\":21751:21959   */\n      jump(tag_669)\n    tag_671:\n        /* \"#utility.yul\":21987:21993   */\n      dup7\n        /* \"#utility.yul\":21978:21985   */\n      dup4\n        /* \"#utility.yul\":21975:21994   */\n      lt\n        /* \"#utility.yul\":21972:22151   */\n      iszero\n      tag_672\n      jumpi\n        /* \"#utility.yul\":22045:22054   */\n      dup5\n        /* \"#utility.yul\":22040:22043   */\n      dup10\n        /* \"#utility.yul\":22036:22055   */\n      add\n        /* \"#utility.yul\":22030:22056   */\n      mload\n        /* \"#utility.yul\":22088:22136   */\n      tag_673\n        /* \"#utility.yul\":22130:22134   */\n      0x1f\n        /* \"#utility.yul\":22122:22128   */\n      dup10\n        /* \"#utility.yul\":22118:22135   */\n      and\n        /* \"#utility.yul\":22107:22116   */\n      dup3\n        /* \"#utility.yul\":22088:22136   */\n      tag_429\n      jump\t// in\n    tag_673:\n        /* \"#utility.yul\":22080:22086   */\n      dup4\n        /* \"#utility.yul\":22073:22137   */\n      sstore\n        /* \"#utility.yul\":21995:22151   */\n      pop\n        /* \"#utility.yul\":21972:22151   */\n    tag_672:\n        /* \"#utility.yul\":22197:22198   */\n      0x01\n        /* \"#utility.yul\":22193:22194   */\n      0x02\n        /* \"#utility.yul\":22185:22191   */\n      dup9\n        /* \"#utility.yul\":22181:22195   */\n      mul\n        /* \"#utility.yul\":22177:22199   */\n      add\n        /* \"#utility.yul\":22171:22175   */\n      dup9\n        /* \"#utility.yul\":22164:22200   */\n      sstore\n        /* \"#utility.yul\":21599:22210   */\n      pop\n      pop\n      pop\n        /* \"#utility.yul\":21562:22449   */\n    tag_664:\n      pop\n        /* \"#utility.yul\":21152:22455   */\n      pop\n      pop\n      pop\n        /* \"#utility.yul\":21060:22455   */\n      pop\n      pop\n      jump\t// out\n        /* \"#utility.yul\":22461:22641   */\n    tag_142:\n        /* \"#utility.yul\":22509:22586   */\n      0x4e487b7100000000000000000000000000000000000000000000000000000000\n        /* \"#utility.yul\":22506:22507   */\n      0x00\n        /* \"#utility.yul\":22499:22587   */\n      mstore\n        /* \"#utility.yul\":22606:22610   */\n      0x32\n        /* \"#utility.yul\":22603:22604   */\n      0x04\n        /* \"#utility.yul\":22596:22611   */\n      mstore\n        /* \"#utility.yul\":22630:22634   */\n      0x24\n        /* \"#utility.yul\":22627:22628   */\n      0x00\n        /* \"#utility.yul\":22620:22635   */\n      revert\n        /* \"#utility.yul\":22647:22795   */\n    tag_431:\n        /* \"#utility.yul\":22749:22760   */\n      0x00\n        /* \"#utility.yul\":22786:22789   */\n      dup2\n        /* \"#utility.yul\":22771:22789   */\n      swap1\n      pop\n        /* \"#utility.yul\":22647:22795   */\n      swap3\n      swap2\n      pop\n      pop\n      jump\t// out\n        /* \"#utility.yul\":22825:23155   */\n    tag_432:\n        /* \"#utility.yul\":22941:22944   */\n      0x00\n        /* \"#utility.yul\":22962:23051   */\n      tag_677\n        /* \"#utility.yul\":23044:23050   */\n      dup4\n        /* \"#utility.yul\":23039:23042   */\n      dup6\n        /* \"#utility.yul\":22962:23051   */\n      tag_431\n      jump\t// in\n    tag_677:\n        /* \"#utility.yul\":22955:23051   */\n      swap4\n      pop\n        /* \"#utility.yul\":23061:23117   */\n      tag_678\n        /* \"#utility.yul\":23110:23116   */\n      dup4\n        /* \"#utility.yul\":23105:23108   */\n      dup6\n        /* \"#utility.yul\":23098:23103   */\n      dup5\n        /* \"#utility.yul\":23061:23117   */\n      tag_387\n      jump\t// in\n    tag_678:\n        /* \"#utility.yul\":23142:23148   */\n      dup3\n        /* \"#utility.yul\":23137:23140   */\n      dup5\n        /* \"#utility.yul\":23133:23149   */\n      add\n        /* \"#utility.yul\":23126:23149   */\n      swap1\n      pop\n        /* \"#utility.yul\":22825:23155   */\n      swap4\n      swap3\n      pop\n      pop\n      pop\n      jump\t// out\n        /* \"#utility.yul\":23161:23456   */\n    tag_150:\n        /* \"#utility.yul\":23303:23306   */\n      0x00\n        /* \"#utility.yul\":23325:23430   */\n      tag_680\n        /* \"#utility.yul\":23426:23429   */\n      dup3\n        /* \"#utility.yul\":23417:23423   */\n      dup5\n        /* \"#utility.yul\":23409:23415   */\n      dup7\n        /* \"#utility.yul\":23325:23430   */\n      tag_432\n      jump\t// in\n    tag_680:\n        /* \"#utility.yul\":23318:23430   */\n      swap2\n      pop\n        /* \"#utility.yul\":23447:23450   */\n      dup2\n        /* \"#utility.yul\":23440:23450   */\n      swap1\n      pop\n        /* \"#utility.yul\":23161:23456   */\n      swap4\n      swap3\n      pop\n      pop\n      pop\n      jump\t// out\n        /* \"#utility.yul\":23462:23642   */\n    tag_433:\n        /* \"#utility.yul\":23510:23587   */\n      0x4e487b7100000000000000000000000000000000000000000000000000000000\n        /* \"#utility.yul\":23507:23508   */\n      0x00\n        /* \"#utility.yul\":23500:23588   */\n      mstore\n        /* \"#utility.yul\":23607:23611   */\n      0x11\n        /* \"#utility.yul\":23604:23605   */\n      0x04\n        /* \"#utility.yul\":23597:23612   */\n      mstore\n        /* \"#utility.yul\":23631:23635   */\n      0x24\n        /* \"#utility.yul\":23628:23629   */\n      0x00\n        /* \"#utility.yul\":23621:23636   */\n      revert\n        /* \"#utility.yul\":23648:24058   */\n    tag_152:\n        /* \"#utility.yul\":23688:23695   */\n      0x00\n        /* \"#utility.yul\":23711:23731   */\n      tag_683\n        /* \"#utility.yul\":23729:23730   */\n      dup3\n        /* \"#utility.yul\":23711:23731   */\n      tag_379\n      jump\t// in\n    tag_683:\n        /* \"#utility.yul\":23706:23731   */\n      swap2\n      pop\n        /* \"#utility.yul\":23745:23765   */\n      tag_684\n        /* \"#utility.yul\":23763:23764   */\n      dup4\n        /* \"#utility.yul\":23745:23765   */\n      tag_379\n      jump\t// in\n    tag_684:\n        /* \"#utility.yul\":23740:23765   */\n      swap3\n      pop\n        /* \"#utility.yul\":23800:23801   */\n      dup3\n        /* \"#utility.yul\":23797:23798   */\n      dup3\n        /* \"#utility.yul\":23793:23802   */\n      mul\n        /* \"#utility.yul\":23822:23852   */\n      tag_685\n        /* \"#utility.yul\":23840:23851   */\n      dup2\n        /* \"#utility.yul\":23822:23852   */\n      tag_379\n      jump\t// in\n    tag_685:\n        /* \"#utility.yul\":23811:23852   */\n      swap2\n      pop\n        /* \"#utility.yul\":24001:24002   */\n      dup3\n        /* \"#utility.yul\":23992:23999   */\n      dup3\n        /* \"#utility.yul\":23988:24003   */\n      div\n        /* \"#utility.yul\":23985:23986   */\n      dup5\n        /* \"#utility.yul\":23982:24004   */\n      eq\n        /* \"#utility.yul\":23962:23963   */\n      dup4\n        /* \"#utility.yul\":23955:23964   */\n      iszero\n        /* \"#utility.yul\":23935:24018   */\n      or\n        /* \"#utility.yul\":23912:24051   */\n      tag_686\n      jumpi\n        /* \"#utility.yul\":24031:24049   */\n      tag_687\n      tag_433\n      jump\t// in\n    tag_687:\n        /* \"#utility.yul\":23912:24051   */\n    tag_686:\n        /* \"#utility.yul\":23696:24058   */\n      pop\n        /* \"#utility.yul\":23648:24058   */\n      swap3\n      swap2\n      pop\n      pop\n      jump\t// out\n        /* \"#utility.yul\":24064:24244   */\n    tag_434:\n        /* \"#utility.yul\":24112:24189   */\n      0x4e487b7100000000000000000000000000000000000000000000000000000000\n        /* \"#utility.yul\":24109:24110   */\n      0x00\n        /* \"#utility.yul\":24102:24190   */\n      mstore\n        /* \"#utility.yul\":24209:24213   */\n      0x12\n        /* \"#utility.yul\":24206:24207   */\n      0x04\n        /* \"#utility.yul\":24199:24214   */\n      mstore\n        /* \"#utility.yul\":24233:24237   */\n      0x24\n        /* \"#utility.yul\":24230:24231   */\n      0x00\n        /* \"#utility.yul\":24223:24238   */\n      revert\n        /* \"#utility.yul\":24250:24435   */\n    tag_154:\n        /* \"#utility.yul\":24290:24291   */\n      0x00\n        /* \"#utility.yul\":24307:24327   */\n      tag_690\n        /* \"#utility.yul\":24325:24326   */\n      dup3\n        /* \"#utility.yul\":24307:24327   */\n      tag_379\n      jump\t// in\n    tag_690:\n        /* \"#utility.yul\":24302:24327   */\n      swap2\n      pop\n        /* \"#utility.yul\":24341:24361   */\n      tag_691\n        /* \"#utility.yul\":24359:24360   */\n      dup4\n        /* \"#utility.yul\":24341:24361   */\n      tag_379\n      jump\t// in\n    tag_691:\n        /* \"#utility.yul\":24336:24361   */\n      swap3\n      pop\n        /* \"#utility.yul\":24380:24381   */\n      dup3\n        /* \"#utility.yul\":24370:24405   */\n      tag_692\n      jumpi\n        /* \"#utility.yul\":24385:24403   */\n      tag_693\n      tag_434\n      jump\t// in\n    tag_693:\n        /* \"#utility.yul\":24370:24405   */\n    tag_692:\n        /* \"#utility.yul\":24427:24428   */\n      dup3\n        /* \"#utility.yul\":24424:24425   */\n      dup3\n        /* \"#utility.yul\":24420:24429   */\n      div\n        /* \"#utility.yul\":24415:24429   */\n      swap1\n      pop\n        /* \"#utility.yul\":24250:24435   */\n      swap3\n      swap2\n      pop\n      pop\n      jump\t// out\n        /* \"#utility.yul\":24441:24635   */\n    tag_156:\n        /* \"#utility.yul\":24481:24485   */\n      0x00\n        /* \"#utility.yul\":24501:24521   */\n      tag_695\n        /* \"#utility.yul\":24519:24520   */\n      dup3\n        /* \"#utility.yul\":24501:24521   */\n      tag_379\n      jump\t// in\n    tag_695:\n        /* \"#utility.yul\":24496:24521   */\n      swap2\n      pop\n        /* \"#utility.yul\":24535:24555   */\n      tag_696\n        /* \"#utility.yul\":24553:24554   */\n      dup4\n        /* \"#utility.yul\":24535:24555   */\n      tag_379\n      jump\t// in\n    tag_696:\n        /* \"#utility.yul\":24530:24555   */\n      swap3\n      pop\n        /* \"#utility.yul\":24579:24580   */\n      dup3\n        /* \"#utility.yul\":24576:24577   */\n      dup3\n        /* \"#utility.yul\":24572:24581   */\n      sub\n        /* \"#utility.yul\":24564:24581   */\n      swap1\n      pop\n        /* \"#utility.yul\":24603:24604   */\n      dup2\n        /* \"#utility.yul\":24597:24601   */\n      dup2\n        /* \"#utility.yul\":24594:24605   */\n      gt\n        /* \"#utility.yul\":24591:24628   */\n      iszero\n      tag_697\n      jumpi\n        /* \"#utility.yul\":24608:24626   */\n      tag_698\n      tag_433\n      jump\t// in\n    tag_698:\n        /* \"#utility.yul\":24591:24628   */\n    tag_697:\n        /* \"#utility.yul\":24441:24635   */\n      swap3\n      swap2\n      pop\n      pop\n      jump\t// out\n        /* \"#utility.yul\":24641:24832   */\n    tag_159:\n        /* \"#utility.yul\":24681:24684   */\n      0x00\n        /* \"#utility.yul\":24700:24720   */\n      tag_700\n        /* \"#utility.yul\":24718:24719   */\n      dup3\n        /* \"#utility.yul\":24700:24720   */\n      tag_379\n      jump\t// in\n    tag_700:\n        /* \"#utility.yul\":24695:24720   */\n      swap2\n      pop\n        /* \"#utility.yul\":24734:24754   */\n      tag_701\n        /* \"#utility.yul\":24752:24753   */\n      dup4\n        /* \"#utility.yul\":24734:24754   */\n      tag_379\n      jump\t// in\n    tag_701:\n        /* \"#utility.yul\":24729:24754   */\n      swap3\n      pop\n        /* \"#utility.yul\":24777:24778   */\n      dup3\n        /* \"#utility.yul\":24774:24775   */\n      dup3\n        /* \"#utility.yul\":24770:24779   */\n      add\n        /* \"#utility.yul\":24763:24779   */\n      swap1\n      pop\n        /* \"#utility.yul\":24798:24801   */\n      dup1\n        /* \"#utility.yul\":24795:24796   */\n      dup3\n        /* \"#utility.yul\":24792:24802   */\n      gt\n        /* \"#utility.yul\":24789:24825   */\n      iszero\n      tag_702\n      jumpi\n        /* \"#utility.yul\":24805:24823   */\n      tag_703\n      tag_433\n      jump\t// in\n    tag_703:\n        /* \"#utility.yul\":24789:24825   */\n    tag_702:\n        /* \"#utility.yul\":24641:24832   */\n      swap3\n      swap2\n      pop\n      pop\n      jump\t// out\n        /* \"#utility.yul\":24838:25280   */\n    tag_227:\n        /* \"#utility.yul\":24987:24991   */\n      0x00\n        /* \"#utility.yul\":25025:25027   */\n      0x60\n        /* \"#utility.yul\":25014:25023   */\n      dup3\n        /* \"#utility.yul\":25010:25028   */\n      add\n        /* \"#utility.yul\":25002:25028   */\n      swap1\n      pop\n        /* \"#utility.yul\":25038:25109   */\n      tag_705\n        /* \"#utility.yul\":25106:25107   */\n      0x00\n        /* \"#utility.yul\":25095:25104   */\n      dup4\n        /* \"#utility.yul\":25091:25108   */\n      add\n        /* \"#utility.yul\":25082:25088   */\n      dup7\n        /* \"#utility.yul\":25038:25109   */\n      tag_403\n      jump\t// in\n    tag_705:\n        /* \"#utility.yul\":25119:25191   */\n      tag_706\n        /* \"#utility.yul\":25187:25189   */\n      0x20\n        /* \"#utility.yul\":25176:25185   */\n      dup4\n        /* \"#utility.yul\":25172:25190   */\n      add\n        /* \"#utility.yul\":25163:25169   */\n      dup6\n        /* \"#utility.yul\":25119:25191   */\n      tag_390\n      jump\t// in\n    tag_706:\n        /* \"#utility.yul\":25201:25273   */\n      tag_707\n        /* \"#utility.yul\":25269:25271   */\n      0x40\n        /* \"#utility.yul\":25258:25267   */\n      dup4\n        /* \"#utility.yul\":25254:25272   */\n      add\n        /* \"#utility.yul\":25245:25251   */\n      dup5\n        /* \"#utility.yul\":25201:25273   */\n      tag_390\n      jump\t// in\n    tag_707:\n        /* \"#utility.yul\":24838:25280   */\n      swap5\n      swap4\n      pop\n      pop\n      pop\n      pop\n      jump\t// out\n        /* \"#utility.yul\":25286:25435   */\n    tag_435:\n        /* \"#utility.yul\":25335:25341   */\n      0x00\n        /* \"#utility.yul\":25369:25374   */\n      dup2\n        /* \"#utility.yul\":25363:25375   */\n      sload\n        /* \"#utility.yul\":25353:25375   */\n      swap1\n      pop\n        /* \"#utility.yul\":25395:25428   */\n      tag_709\n        /* \"#utility.yul\":25421:25427   */\n      dup2\n        /* \"#utility.yul\":25395:25428   */\n      tag_287\n      jump\t// in\n    tag_709:\n        /* \"#utility.yul\":25385:25428   */\n      swap1\n      pop\n        /* \"#utility.yul\":25286:25435   */\n      swap2\n      swap1\n      pop\n      jump\t// out\n        /* \"#utility.yul\":25441:26892   */\n    tag_308:\n        /* \"#utility.yul\":25552:25555   */\n      dup2\n        /* \"#utility.yul\":25546:25550   */\n      dup2\n        /* \"#utility.yul\":25543:25556   */\n      sub\n        /* \"#utility.yul\":25540:25566   */\n      tag_711\n      jumpi\n        /* \"#utility.yul\":25559:25564   */\n      pop\n      pop\n      jump(tag_710)\n        /* \"#utility.yul\":25540:25566   */\n    tag_711:\n        /* \"#utility.yul\":25590:25624   */\n      tag_712\n        /* \"#utility.yul\":25620:25623   */\n      dup3\n        /* \"#utility.yul\":25590:25624   */\n      tag_435\n      jump\t// in\n    tag_712:\n        /* \"#utility.yul\":25689:25707   */\n      0xffffffffffffffff\n        /* \"#utility.yul\":25681:25687   */\n      dup2\n        /* \"#utility.yul\":25678:25708   */\n      gt\n        /* \"#utility.yul\":25675:25731   */\n      iszero\n      tag_713\n      jumpi\n        /* \"#utility.yul\":25711:25729   */\n      tag_714\n      tag_189\n      jump\t// in\n    tag_714:\n        /* \"#utility.yul\":25675:25731   */\n    tag_713:\n        /* \"#utility.yul\":25755:25793   */\n      tag_715\n        /* \"#utility.yul\":25787:25791   */\n      dup3\n        /* \"#utility.yul\":25781:25792   */\n      sload\n        /* \"#utility.yul\":25755:25793   */\n      tag_287\n      jump\t// in\n    tag_715:\n        /* \"#utility.yul\":25840:25907   */\n      tag_716\n        /* \"#utility.yul\":25900:25906   */\n      dup3\n        /* \"#utility.yul\":25892:25898   */\n      dup3\n        /* \"#utility.yul\":25886:25890   */\n      dup6\n        /* \"#utility.yul\":25840:25907   */\n      tag_427\n      jump\t// in\n    tag_716:\n        /* \"#utility.yul\":25934:25935   */\n      0x00\n        /* \"#utility.yul\":25963:25965   */\n      0x1f\n        /* \"#utility.yul\":25955:25961   */\n      dup4\n        /* \"#utility.yul\":25952:25966   */\n      gt\n        /* \"#utility.yul\":25980:25981   */\n      0x01\n        /* \"#utility.yul\":25975:26647   */\n      dup2\n      eq\n      tag_718\n      jumpi\n        /* \"#utility.yul\":26691:26692   */\n      0x00\n        /* \"#utility.yul\":26708:26714   */\n      dup5\n        /* \"#utility.yul\":26705:26782   */\n      iszero\n      tag_719\n      jumpi\n        /* \"#utility.yul\":26757:26766   */\n      dup3\n        /* \"#utility.yul\":26752:26755   */\n      dup8\n        /* \"#utility.yul\":26748:26767   */\n      add\n        /* \"#utility.yul\":26742:26768   */\n      sload\n        /* \"#utility.yul\":26733:26768   */\n      swap1\n      pop\n        /* \"#utility.yul\":26705:26782   */\n    tag_719:\n        /* \"#utility.yul\":26808:26875   */\n      tag_720\n        /* \"#utility.yul\":26868:26874   */\n      dup6\n        /* \"#utility.yul\":26861:26866   */\n      dup3\n        /* \"#utility.yul\":26808:26875   */\n      tag_430\n      jump\t// in\n    tag_720:\n        /* \"#utility.yul\":26802:26806   */\n      dup7\n        /* \"#utility.yul\":26795:26876   */\n      sstore\n        /* \"#utility.yul\":26664:26886   */\n      pop\n        /* \"#utility.yul\":25945:26886   */\n      jump(tag_717)\n        /* \"#utility.yul\":25975:26647   */\n    tag_718:\n        /* \"#utility.yul\":26027:26031   */\n      0x1f\n        /* \"#utility.yul\":26023:26032   */\n      not\n        /* \"#utility.yul\":26015:26021   */\n      dup5\n        /* \"#utility.yul\":26011:26033   */\n      and\n        /* \"#utility.yul\":26053:26089   */\n      tag_721\n        /* \"#utility.yul\":26085:26088   */\n      dup8\n        /* \"#utility.yul\":26053:26089   */\n      tag_416\n      jump\t// in\n    tag_721:\n        /* \"#utility.yul\":26046:26089   */\n      swap7\n      pop\n        /* \"#utility.yul\":26116:26153   */\n      tag_722\n        /* \"#utility.yul\":26148:26152   */\n      dup7\n        /* \"#utility.yul\":26116:26153   */\n      tag_416\n      jump\t// in\n    tag_722:\n        /* \"#utility.yul\":26175:26176   */\n      0x00\n        /* \"#utility.yul\":26189:26396   */\n    tag_723:\n        /* \"#utility.yul\":26203:26210   */\n      dup3\n        /* \"#utility.yul\":26200:26201   */\n      dup2\n        /* \"#utility.yul\":26197:26211   */\n      lt\n        /* \"#utility.yul\":26189:26396   */\n      iszero\n      tag_725\n      jumpi\n        /* \"#utility.yul\":26282:26291   */\n      dup5\n        /* \"#utility.yul\":26277:26280   */\n      dup10\n        /* \"#utility.yul\":26273:26292   */\n      add\n        /* \"#utility.yul\":26267:26293   */\n      sload\n        /* \"#utility.yul\":26259:26265   */\n      dup3\n        /* \"#utility.yul\":26252:26294   */\n      sstore\n        /* \"#utility.yul\":26333:26334   */\n      0x01\n        /* \"#utility.yul\":26325:26331   */\n      dup3\n        /* \"#utility.yul\":26321:26335   */\n      add\n        /* \"#utility.yul\":26311:26335   */\n      swap2\n      pop\n        /* \"#utility.yul\":26380:26381   */\n      0x01\n        /* \"#utility.yul\":26369:26378   */\n      dup6\n        /* \"#utility.yul\":26365:26382   */\n      add\n        /* \"#utility.yul\":26352:26382   */\n      swap5\n      pop\n        /* \"#utility.yul\":26226:26230   */\n      0x20\n        /* \"#utility.yul\":26223:26224   */\n      dup2\n        /* \"#utility.yul\":26219:26231   */\n      add\n        /* \"#utility.yul\":26214:26231   */\n      swap1\n      pop\n        /* \"#utility.yul\":26189:26396   */\n      jump(tag_723)\n    tag_725:\n        /* \"#utility.yul\":26424:26430   */\n      dup7\n        /* \"#utility.yul\":26415:26422   */\n      dup4\n        /* \"#utility.yul\":26412:26431   */\n      lt\n        /* \"#utility.yul\":26409:26588   */\n      iszero\n      tag_726\n      jumpi\n        /* \"#utility.yul\":26482:26491   */\n      dup5\n        /* \"#utility.yul\":26477:26480   */\n      dup10\n        /* \"#utility.yul\":26473:26492   */\n      add\n        /* \"#utility.yul\":26467:26493   */\n      sload\n        /* \"#utility.yul\":26525:26573   */\n      tag_727\n        /* \"#utility.yul\":26567:26571   */\n      0x1f\n        /* \"#utility.yul\":26559:26565   */\n      dup10\n        /* \"#utility.yul\":26555:26572   */\n      and\n        /* \"#utility.yul\":26544:26553   */\n      dup3\n        /* \"#utility.yul\":26525:26573   */\n      tag_429\n      jump\t// in\n    tag_727:\n        /* \"#utility.yul\":26517:26523   */\n      dup4\n        /* \"#utility.yul\":26510:26574   */\n      sstore\n        /* \"#utility.yul\":26432:26588   */\n      pop\n        /* \"#utility.yul\":26409:26588   */\n    tag_726:\n        /* \"#utility.yul\":26634:26635   */\n      0x01\n        /* \"#utility.yul\":26630:26631   */\n      0x02\n        /* \"#utility.yul\":26622:26628   */\n      dup9\n        /* \"#utility.yul\":26618:26632   */\n      mul\n        /* \"#utility.yul\":26614:26636   */\n      add\n        /* \"#utility.yul\":26608:26612   */\n      dup9\n        /* \"#utility.yul\":26601:26637   */\n      sstore\n        /* \"#utility.yul\":25982:26647   */\n      pop\n      pop\n      pop\n        /* \"#utility.yul\":25945:26886   */\n    tag_717:\n      pop\n        /* \"#utility.yul\":25530:26892   */\n      pop\n      pop\n      pop\n        /* \"#utility.yul\":25441:26892   */\n      pop\n      pop\n    tag_710:\n      jump\t// out\n        /* \"#utility.yul\":26898:27078   */\n    tag_311:\n        /* \"#utility.yul\":26946:27023   */\n      0x4e487b7100000000000000000000000000000000000000000000000000000000\n        /* \"#utility.yul\":26943:26944   */\n      0x00\n        /* \"#utility.yul\":26936:27024   */\n      mstore\n        /* \"#utility.yul\":27043:27047   */\n      0x31\n        /* \"#utility.yul\":27040:27041   */\n      0x04\n        /* \"#utility.yul\":27033:27048   */\n      mstore\n        /* \"#utility.yul\":27067:27071   */\n      0x24\n        /* \"#utility.yul\":27064:27065   */\n      0x00\n        /* \"#utility.yul\":27057:27072   */\n      revert\n        /* \"#utility.yul\":27084:27253   */\n    tag_436:\n        /* \"#utility.yul\":27168:27179   */\n      0x00\n        /* \"#utility.yul\":27202:27208   */\n      dup3\n        /* \"#utility.yul\":27197:27200   */\n      dup3\n        /* \"#utility.yul\":27190:27209   */\n      mstore\n        /* \"#utility.yul\":27242:27246   */\n      0x20\n        /* \"#utility.yul\":27237:27240   */\n      dup3\n        /* \"#utility.yul\":27233:27247   */\n      add\n        /* \"#utility.yul\":27218:27247   */\n      swap1\n      pop\n        /* \"#utility.yul\":27084:27253   */\n      swap3\n      swap2\n      pop\n      pop\n      jump\t// out\n        /* \"#utility.yul\":27259:27426   */\n    tag_437:\n        /* \"#utility.yul\":27399:27418   */\n      0x50726f64756374206e6f7420666f756e64000000000000000000000000000000\n        /* \"#utility.yul\":27395:27396   */\n      0x00\n        /* \"#utility.yul\":27387:27393   */\n      dup3\n        /* \"#utility.yul\":27383:27397   */\n      add\n        /* \"#utility.yul\":27376:27419   */\n      mstore\n        /* \"#utility.yul\":27259:27426   */\n      pop\n      jump\t// out\n        /* \"#utility.yul\":27432:27798   */\n    tag_438:\n        /* \"#utility.yul\":27574:27577   */\n      0x00\n        /* \"#utility.yul\":27595:27662   */\n      tag_732\n        /* \"#utility.yul\":27659:27661   */\n      0x11\n        /* \"#utility.yul\":27654:27657   */\n      dup4\n        /* \"#utility.yul\":27595:27662   */\n      tag_436\n      jump\t// in\n    tag_732:\n        /* \"#utility.yul\":27588:27662   */\n      swap2\n      pop\n        /* \"#utility.yul\":27671:27764   */\n      tag_733\n        /* \"#utility.yul\":27760:27763   */\n      dup3\n        /* \"#utility.yul\":27671:27764   */\n      tag_437\n      jump\t// in\n    tag_733:\n        /* \"#utility.yul\":27789:27791   */\n      0x20\n        /* \"#utility.yul\":27784:27787   */\n      dup3\n        /* \"#utility.yul\":27780:27792   */\n      add\n        /* \"#utility.yul\":27773:27792   */\n      swap1\n      pop\n        /* \"#utility.yul\":27432:27798   */\n      swap2\n      swap1\n      pop\n      jump\t// out\n        /* \"#utility.yul\":27804:28223   */\n    tag_354:\n        /* \"#utility.yul\":27970:27974   */\n      0x00\n        /* \"#utility.yul\":28008:28010   */\n      0x20\n        /* \"#utility.yul\":27997:28006   */\n      dup3\n        /* \"#utility.yul\":27993:28011   */\n      add\n        /* \"#utility.yul\":27985:28011   */\n      swap1\n      pop\n        /* \"#utility.yul\":28057:28066   */\n      dup2\n        /* \"#utility.yul\":28051:28055   */\n      dup2\n        /* \"#utility.yul\":28047:28067   */\n      sub\n        /* \"#utility.yul\":28043:28044   */\n      0x00\n        /* \"#utility.yul\":28032:28041   */\n      dup4\n        /* \"#utility.yul\":28028:28045   */\n      add\n        /* \"#utility.yul\":28021:28068   */\n      mstore\n        /* \"#utility.yul\":28085:28216   */\n      tag_735\n        /* \"#utility.yul\":28211:28215   */\n      dup2\n        /* \"#utility.yul\":28085:28216   */\n      tag_438\n      jump\t// in\n    tag_735:\n        /* \"#utility.yul\":28077:28216   */\n      swap1\n      pop\n        /* \"#utility.yul\":27804:28223   */\n      swap2\n      swap1\n      pop\n      jump\t// out\n\n    auxdata: 0xa26469706673582212209551b29f249705b8a677f0d0748615ef8c6452b3f6e1fbfb8bb9f12d6b6e31af64736f6c634300081a0033\n}\n",
				"bytecode": {
					"linkReferences": {},
					"object": "608060405234801561000f575f80fd5b50604051612954380380612954833981810160405281019061003191906101d7565b805f73ffffffffffffffffffffffffffffffffffffffff168173ffffffffffffffffffffffffffffffffffffffff16036100a2575f6040517f1e4fbdf70000000000000000000000000000000000000000000000000000000081526004016100999190610211565b60405180910390fd5b6100b1816100b860201b60201c565b505061022a565b5f805f9054906101000a900473ffffffffffffffffffffffffffffffffffffffff169050815f806101000a81548173ffffffffffffffffffffffffffffffffffffffff021916908373ffffffffffffffffffffffffffffffffffffffff1602179055508173ffffffffffffffffffffffffffffffffffffffff168173ffffffffffffffffffffffffffffffffffffffff167f8be0079c531659141344cd1fd0a4f28419497f9722a3daafe3b4186f6b6457e060405160405180910390a35050565b5f80fd5b5f73ffffffffffffffffffffffffffffffffffffffff82169050919050565b5f6101a68261017d565b9050919050565b6101b68161019c565b81146101c0575f80fd5b50565b5f815190506101d1816101ad565b92915050565b5f602082840312156101ec576101eb610179565b5b5f6101f9848285016101c3565b91505092915050565b61020b8161019c565b82525050565b5f6020820190506102245f830184610202565b92915050565b61271d806102375f395ff3fe608060405260043610610129575f3560e01c806382367b2d116100aa5780639dfc3dd11161006e5780639dfc3dd11461039f578063bda235da146103c7578063c29b2f2014610403578063e75722301461042d578063ed90c7b714610469578063f2fde38b1461049157610129565b806382367b2d146102df5780638da5cb5b14610307578063957fae961461033157806399331fdf1461035b578063994983ad1461037757610129565b80633df50e82116100f15780633df50e82146101ff57806341b980a61461023b5780635af36e3e146102655780636038d0cf1461028d578063715018a6146102c957610129565b8063094455c41461012d5780631a3764d2146101555780631a5bf973146101915780633ab7d09a146101ad5780633ccfd60b146101e9575b5f80fd5b348015610138575f80fd5b50610153600480360381019061014e91906118fb565b6104b9565b005b348015610160575f80fd5b5061017b60048036038101906101769190611ab7565b6105c8565b6040516101889190611b0d565b60405180910390f35b6101ab60048036038101906101a69190611b7b565b6105f5565b005b3480156101b8575f80fd5b506101d360048036038101906101ce9190611c2b565b61086f565b6040516101e09190611b0d565b60405180910390f35b3480156101f4575f80fd5b506101fd610889565b005b34801561020a575f80fd5b5061022560048036038101906102209190611c2b565b61091c565b6040516102329190611b0d565b60405180910390f35b348015610246575f80fd5b5061024f610931565b60405161025c9190611cfb565b60405180910390f35b348015610270575f80fd5b5061028b60048036038101906102869190611d14565b610b3f565b005b348015610298575f80fd5b506102b360048036038101906102ae9190611dac565b610d8e565b6040516102c09190611b0d565b60405180910390f35b3480156102d4575f80fd5b506102dd610dae565b005b3480156102ea575f80fd5b5061030560048036038101906103009190611d14565b610dc1565b005b348015610312575f80fd5b5061031b610de3565b6040516103289190611df9565b60405180910390f35b34801561033c575f80fd5b50610345610e0a565b6040516103529190611b0d565b60405180910390f35b61037560048036038101906103709190611e12565b610e89565b005b348015610382575f80fd5b5061039d60048036038101906103989190611e83565b611009565b005b3480156103aa575f80fd5b506103c560048036038101906103c09190611d14565b611081565b005b3480156103d2575f80fd5b506103ed60048036038101906103e89190611ee0565b6110a3565b6040516103fa9190611b0d565b60405180910390f35b34801561040e575f80fd5b5061041761115f565b6040516104249190612086565b60405180910390f35b348015610438575f80fd5b50610453600480360381019061044e9190611c2b565b611268565b6040516104609190611b0d565b60405180910390f35b348015610474575f80fd5b5061048f600480360381019061048a9190611c2b565b611282565b005b34801561049c575f80fd5b506104b760048036038101906104b29190611ee0565b6113a6565b005b6104c161142a565b6104ca836114b1565b15610501576040517ff270498400000000000000000000000000000000000000000000000000000000815260040160405180910390fd5b6004604051806080016040528087878080601f0160208091040260200160405190810160405280939291908181526020018383808284375f81840152601f19601f82011690508083019250505050505050815260200185815260200184815260200183815250908060018154018082558091505060019003905f5260205f2090600402015f909190919091505f820151815f0190816105a091906122a0565b5060208201518160010155604082015181600201556060820151816003015550505050505050565b6003818051602081018201805184825260208301602085012081835280955050505050505f915090505481565b838390508686905014610634576040517f23a37fc200000000000000000000000000000000000000000000000000000000815260040160405180910390fd5b5f805b87879050811015610771575f8686838181106106565761065561236f565b5b9050602002013590505f8989848181106106735761067261236f565b5b9050602002013590505f82116106b5576040517ff4f5b73300000000000000000000000000000000000000000000000000000000815260040160405180910390fd5b816106bf8461086f565b10156106f7576040517fade1cb4100000000000000000000000000000000000000000000000000000000815260040160405180910390fd5b5f61070182611268565b90506064600388886040516107179291906123ca565b90815260200160405180910390205482610731919061240f565b61073b919061247d565b8161074691906124ad565b90508281610754919061240f565b8561075f91906124e0565b94505050508080600101915050610637565b50803410156107ac576040517f81b5ad6800000000000000000000000000000000000000000000000000000000815260040160405180910390fd5b5f5b8787905081101561080d575f8686838181106107cd576107cc61236f565b5b9050602002013590505f8989848181106107ea576107e961236f565b5b9050602002013590506107fe33828461150f565b505080806001019150506107ae565b5080341115610866573373ffffffffffffffffffffffffffffffffffffffff166108fc823461083c91906124ad565b90811502906040515f60405180830381858888f19350505050158015610864573d5f803e3d5ffd5b505b50505050505050565b5f8061087a836115ff565b90508060020154915050919050565b61089161142a565b5f4790505f81036108ce576040517f469ea76800000000000000000000000000000000000000000000000000000000815260040160405180910390fd5b6108d6610de3565b73ffffffffffffffffffffffffffffffffffffffff166108fc8290811502906040515f60405180830381858888f19350505050158015610918573d5f803e3d5ffd5b5050565b6002602052805f5260405f205f915090505481565b6109396117dc565b5f60405180606001604052807fffffffffffffffffffffffffffffffffffffffffffffffffffffffffffffffff81526020017fffffffffffffffffffffffffffffffffffffffffffffffffffffffffffffffff81526020017fffffffffffffffffffffffffffffffffffffffffffffffffffffffffffffffff81525090505f600367ffffffffffffffff8111156109d3576109d2611993565b5b604051908082528060200260200182016040528015610a015781602001602082028036833780820191505090505b5090505f5b6003811015610b36575f5b600480549050811015610b28575f60048281548110610a3357610a3261236f565b5b905f5260205f20906004020190505f805b84811015610a8057868160038110610a5f57610a5e61236f565b5b6020020151836001015403610a7357600191505b8080600101915050610a44565b5060025f836001015481526020019081526020015f2054858581518110610aaa57610aa961236f565b5b6020026020010151108015610abd575080155b15610b195760025f836001015481526020019081526020015f2054858581518110610aeb57610aea61236f565b5b6020026020010181815250508160010154868560038110610b0f57610b0e61236f565b5b6020020181815250505b50508080600101915050610a11565b508080600101915050610a06565b50819250505090565b5f8111610b78576040517ff4f5b73300000000000000000000000000000000000000000000000000000000815260040160405180910390fd5b8060015f3373ffffffffffffffffffffffffffffffffffffffff1673ffffffffffffffffffffffffffffffffffffffff1681526020019081526020015f205f8481526020019081526020015f20541015610bfe576040517fcd1d0d9300000000000000000000000000000000000000000000000000000000815260040160405180910390fd5b5f4790505f610c0c846115ff565b9050806003015483610c1e919061240f565b821015610c57576040517f469ea76800000000000000000000000000000000000000000000000000000000815260040160405180910390fd5b82816002015f828254610c6a91906124e0565b925050819055508260015f3373ffffffffffffffffffffffffffffffffffffffff1673ffffffffffffffffffffffffffffffffffffffff1681526020019081526020015f205f8681526020019081526020015f205f828254610ccc91906124ad565b925050819055508260025f8681526020019081526020015f205f828254610cf391906124ad565b925050819055503373ffffffffffffffffffffffffffffffffffffffff166108fc826003015485610d24919061240f565b90811502906040515f60405180830381858888f19350505050158015610d4c573d5f803e3d5ffd5b507f73f04af9dcc582a923ec15d3eea990fe34adabfff2879e28d44572e01a54abb6338585604051610d8093929190612513565b60405180910390a150505050565b6001602052815f5260405f20602052805f5260405f205f91509150505481565b610db661142a565b610dbf5f6116b2565b565b610dc961142a565b5f610dd3836115ff565b9050818160030181905550505050565b5f805f9054906101000a900473ffffffffffffffffffffffffffffffffffffffff16905090565b5f805f90505f5b600480549050811015610e81575f60048281548110610e3357610e3261236f565b5b905f5260205f2090600402019050806003015460025f836001015481526020019081526020015f2054610e66919061240f565b83610e7191906124e0565b9250508080600101915050610e11565b508091505090565b5f8311610ec2576040517ff4f5b73300000000000000000000000000000000000000000000000000000000815260040160405180910390fd5b82610ecc8561086f565b1015610f04576040517fade1cb4100000000000000000000000000000000000000000000000000000000815260040160405180910390fd5b5f610f0e85611268565b9050606460038484604051610f249291906123ca565b90815260200160405180910390205482610f3e919061240f565b610f48919061247d565b81610f5391906124ad565b90505f8482610f62919061240f565b905080341015610f9e576040517f81b5ad6800000000000000000000000000000000000000000000000000000000815260040160405180910390fd5b610fa933878761150f565b80341115611001573373ffffffffffffffffffffffffffffffffffffffff166108fc8234610fd791906124ad565b90811502906040515f60405180830381858888f19350505050158015610fff573d5f803e3d5ffd5b505b505050505050565b61101161142a565b5f811115806110205750606481115b15611057576040517f8478aedc00000000000000000000000000000000000000000000000000000000815260040160405180910390fd5b806003848460405161106a9291906123ca565b908152602001604051809103902081905550505050565b61108961142a565b5f611093836115ff565b9050818160020181905550505050565b5f805f90505f5b600480549050811015611155575f600482815481106110cc576110cb61236f565b5b905f5260205f2090600402019050806003015460015f8773ffffffffffffffffffffffffffffffffffffffff1673ffffffffffffffffffffffffffffffffffffffff1681526020019081526020015f205f836001015481526020019081526020015f205461113a919061240f565b8361114591906124e0565b92505080806001019150506110aa565b5080915050919050565b60606004805480602002602001604051908101604052809291908181526020015f905b8282101561125f578382905f5260205f2090600402016040518060800160405290815f820180546111b2906120d3565b80601f01602080910402602001604051908101604052809291908181526020018280546111de906120d3565b80156112295780601f1061120057610100808354040283529160200191611229565b820191905f5260205f20905b81548152906001019060200180831161120c57829003601f168201915b50505050508152602001600182015481526020016002820154815260200160038201548152505081526020019060010190611182565b50505050905090565b5f80611273836115ff565b90508060030154915050919050565b61128a61142a565b5f8061129583611773565b91509150816112d0576040517fc270964900000000000000000000000000000000000000000000000000000000815260040160405180910390fd5b600460016004805490506112e491906124ad565b815481106112f5576112f461236f565b5b905f5260205f209060040201600482815481106113155761131461236f565b5b905f5260205f2090600402015f8201815f019081611333919061255d565b50600182015481600101556002820154816002015560038201548160030155905050600480548061136757611366612642565b5b600190038181905f5260205f2090600402015f8082015f61138891906117fe565b600182015f9055600282015f9055600382015f905550509055505050565b6113ae61142a565b5f73ffffffffffffffffffffffffffffffffffffffff168173ffffffffffffffffffffffffffffffffffffffff160361141e575f6040517f1e4fbdf70000000000000000000000000000000000000000000000000000000081526004016114159190611df9565b60405180910390fd5b611427816116b2565b50565b6114326117d5565b73ffffffffffffffffffffffffffffffffffffffff16611450610de3565b73ffffffffffffffffffffffffffffffffffffffff16146114af576114736117d5565b6040517f118cdaa70000000000000000000000000000000000000000000000000000000081526004016114a69190611df9565b60405180910390fd5b565b5f805f90505b6004805490508110156115055782600482815481106114d9576114d861236f565b5b905f5260205f20906004020160010154036114f857600191505061150a565b80806001019150506114b7565b505f90505b919050565b5f611519836115ff565b905081816002015f82825461152e91906124ad565b925050819055508160015f8673ffffffffffffffffffffffffffffffffffffffff1673ffffffffffffffffffffffffffffffffffffffff1681526020019081526020015f205f8581526020019081526020015f205f82825461159091906124e0565b925050819055508160025f8581526020019081526020015f205f8282546115b791906124e0565b925050819055507f12cb4648cf3058b17ceeb33e579f8b0bc269fe0843f3900b8e24b6c54871703c8484846040516115f193929190612513565b60405180910390a150505050565b5f805f90505b6004805490508110156116715782600482815481106116275761162661236f565b5b905f5260205f209060040201600101540361166457600481815481106116505761164f61236f565b5b905f5260205f2090600402019150506116ad565b8080600101915050611605565b506040517f08c379a00000000000000000000000000000000000000000000000000000000081526004016116a4906126c9565b60405180910390fd5b919050565b5f805f9054906101000a900473ffffffffffffffffffffffffffffffffffffffff169050815f806101000a81548173ffffffffffffffffffffffffffffffffffffffff021916908373ffffffffffffffffffffffffffffffffffffffff1602179055508173ffffffffffffffffffffffffffffffffffffffff168173ffffffffffffffffffffffffffffffffffffffff167f8be0079c531659141344cd1fd0a4f28419497f9722a3daafe3b4186f6b6457e060405160405180910390a35050565b5f805f5b6004805490508110156117c85783600482815481106117995761179861236f565b5b905f5260205f20906004020160010154036117bb5760018192509250506117d0565b8080600101915050611777565b505f80915091505b915091565b5f33905090565b6040518060600160405280600390602082028036833780820191505090505090565b50805461180a906120d3565b5f825580601f1061181b5750611838565b601f0160209004905f5260205f2090810190611837919061183b565b5b50565b5b80821115611852575f815f90555060010161183c565b5090565b5f604051905090565b5f80fd5b5f80fd5b5f80fd5b5f80fd5b5f80fd5b5f8083601f84011261188857611887611867565b5b8235905067ffffffffffffffff8111156118a5576118a461186b565b5b6020830191508360018202830111156118c1576118c061186f565b5b9250929050565b5f819050919050565b6118da816118c8565b81146118e4575f80fd5b50565b5f813590506118f5816118d1565b92915050565b5f805f805f608086880312156119145761191361185f565b5b5f86013567ffffffffffffffff81111561193157611930611863565b5b61193d88828901611873565b95509550506020611950888289016118e7565b9350506040611961888289016118e7565b9250506060611972888289016118e7565b9150509295509295909350565b5f80fd5b5f601f19601f8301169050919050565b7f4e487b71000000000000000000000000000000000000000000000000000000005f52604160045260245ffd5b6119c982611983565b810181811067ffffffffffffffff821117156119e8576119e7611993565b5b80604052505050565b5f6119fa611856565b9050611a0682826119c0565b919050565b5f67ffffffffffffffff821115611a2557611a24611993565b5b611a2e82611983565b9050602081019050919050565b828183375f83830152505050565b5f611a5b611a5684611a0b565b6119f1565b905082815260208101848484011115611a7757611a7661197f565b5b611a82848285611a3b565b509392505050565b5f82601f830112611a9e57611a9d611867565b5b8135611aae848260208601611a49565b91505092915050565b5f60208284031215611acc57611acb61185f565b5b5f82013567ffffffffffffffff811115611ae957611ae8611863565b5b611af584828501611a8a565b91505092915050565b611b07816118c8565b82525050565b5f602082019050611b205f830184611afe565b92915050565b5f8083601f840112611b3b57611b3a611867565b5b8235905067ffffffffffffffff811115611b5857611b5761186b565b5b602083019150836020820283011115611b7457611b7361186f565b5b9250929050565b5f805f805f8060608789031215611b9557611b9461185f565b5b5f87013567ffffffffffffffff811115611bb257611bb1611863565b5b611bbe89828a01611b26565b9650965050602087013567ffffffffffffffff811115611be157611be0611863565b5b611bed89828a01611b26565b9450945050604087013567ffffffffffffffff811115611c1057611c0f611863565b5b611c1c89828a01611873565b92509250509295509295509295565b5f60208284031215611c4057611c3f61185f565b5b5f611c4d848285016118e7565b91505092915050565b5f60039050919050565b5f81905092915050565b5f819050919050565b611c7c816118c8565b82525050565b5f611c8d8383611c73565b60208301905092915050565b5f602082019050919050565b611cae81611c56565b611cb88184611c60565b9250611cc382611c6a565b805f5b83811015611cf3578151611cda8782611c82565b9650611ce583611c99565b925050600181019050611cc6565b505050505050565b5f606082019050611d0e5f830184611ca5565b92915050565b5f8060408385031215611d2a57611d2961185f565b5b5f611d37858286016118e7565b9250506020611d48858286016118e7565b9150509250929050565b5f73ffffffffffffffffffffffffffffffffffffffff82169050919050565b5f611d7b82611d52565b9050919050565b611d8b81611d71565b8114611d95575f80fd5b50565b5f81359050611da681611d82565b92915050565b5f8060408385031215611dc257611dc161185f565b5b5f611dcf85828601611d98565b9250506020611de0858286016118e7565b9150509250929050565b611df381611d71565b82525050565b5f602082019050611e0c5f830184611dea565b92915050565b5f805f8060608587031215611e2a57611e2961185f565b5b5f611e37878288016118e7565b9450506020611e48878288016118e7565b935050604085013567ffffffffffffffff811115611e6957611e68611863565b5b611e7587828801611873565b925092505092959194509250565b5f805f60408486031215611e9a57611e9961185f565b5b5f84013567ffffffffffffffff811115611eb757611eb6611863565b5b611ec386828701611873565b93509350506020611ed6868287016118e7565b9150509250925092565b5f60208284031215611ef557611ef461185f565b5b5f611f0284828501611d98565b91505092915050565b5f81519050919050565b5f82825260208201905092915050565b5f819050602082019050919050565b5f81519050919050565b5f82825260208201905092915050565b8281835e5f83830152505050565b5f611f6682611f34565b611f708185611f3e565b9350611f80818560208601611f4e565b611f8981611983565b840191505092915050565b5f608083015f8301518482035f860152611fae8282611f5c565b9150506020830151611fc36020860182611c73565b506040830151611fd66040860182611c73565b506060830151611fe96060860182611c73565b508091505092915050565b5f611fff8383611f94565b905092915050565b5f602082019050919050565b5f61201d82611f0b565b6120278185611f15565b93508360208202850161203985611f25565b805f5b8581101561207457848403895281516120558582611ff4565b945061206083612007565b925060208a0199505060018101905061203c565b50829750879550505050505092915050565b5f6020820190508181035f83015261209e8184612013565b905092915050565b7f4e487b71000000000000000000000000000000000000000000000000000000005f52602260045260245ffd5b5f60028204905060018216806120ea57607f821691505b6020821081036120fd576120fc6120a6565b5b50919050565b5f819050815f5260205f209050919050565b5f6020601f8301049050919050565b5f82821b905092915050565b5f6008830261215f7fffffffffffffffffffffffffffffffffffffffffffffffffffffffffffffffff82612124565b6121698683612124565b95508019841693508086168417925050509392505050565b5f819050919050565b5f6121a461219f61219a846118c8565b612181565b6118c8565b9050919050565b5f819050919050565b6121bd8361218a565b6121d16121c9826121ab565b848454612130565b825550505050565b5f90565b6121e56121d9565b6121f08184846121b4565b505050565b5b81811015612213576122085f826121dd565b6001810190506121f6565b5050565b601f8211156122585761222981612103565b61223284612115565b81016020851015612241578190505b61225561224d85612115565b8301826121f5565b50505b505050565b5f82821c905092915050565b5f6122785f198460080261225d565b1980831691505092915050565b5f6122908383612269565b9150826002028217905092915050565b6122a982611f34565b67ffffffffffffffff8111156122c2576122c1611993565b5b6122cc82546120d3565b6122d7828285612217565b5f60209050601f831160018114612308575f84156122f6578287015190505b6123008582612285565b865550612367565b601f19841661231686612103565b5f5b8281101561233d57848901518255600182019150602085019450602081019050612318565b8683101561235a5784890151612356601f891682612269565b8355505b6001600288020188555050505b505050505050565b7f4e487b71000000000000000000000000000000000000000000000000000000005f52603260045260245ffd5b5f81905092915050565b5f6123b1838561239c565b93506123be838584611a3b565b82840190509392505050565b5f6123d68284866123a6565b91508190509392505050565b7f4e487b71000000000000000000000000000000000000000000000000000000005f52601160045260245ffd5b5f612419826118c8565b9150612424836118c8565b9250828202612432816118c8565b91508282048414831517612449576124486123e2565b5b5092915050565b7f4e487b71000000000000000000000000000000000000000000000000000000005f52601260045260245ffd5b5f612487826118c8565b9150612492836118c8565b9250826124a2576124a1612450565b5b828204905092915050565b5f6124b7826118c8565b91506124c2836118c8565b92508282039050818111156124da576124d96123e2565b5b92915050565b5f6124ea826118c8565b91506124f5836118c8565b925082820190508082111561250d5761250c6123e2565b5b92915050565b5f6060820190506125265f830186611dea565b6125336020830185611afe565b6125406040830184611afe565b949350505050565b5f81549050612556816120d3565b9050919050565b81810361256b575050612640565b61257482612548565b67ffffffffffffffff81111561258d5761258c611993565b5b61259782546120d3565b6125a2828285612217565b5f601f8311600181146125cf575f84156125bd578287015490505b6125c78582612285565b865550612639565b601f1984166125dd87612103565b96506125e886612103565b5f5b8281101561260f578489015482556001820191506001850194506020810190506125ea565b8683101561262c5784890154612628601f891682612269565b8355505b6001600288020188555050505b5050505050505b565b7f4e487b71000000000000000000000000000000000000000000000000000000005f52603160045260245ffd5b5f82825260208201905092915050565b7f50726f64756374206e6f7420666f756e640000000000000000000000000000005f82015250565b5f6126b360118361266f565b91506126be8261267f565b602082019050919050565b5f6020820190508181035f8301526126e0816126a7565b905091905056fea26469706673582212209551b29f249705b8a677f0d0748615ef8c6452b3f6e1fbfb8bb9f12d6b6e31af64736f6c634300081a0033",
					"opcodes": "PUSH1 0x80 PUSH1 0x40 MSTORE CALLVALUE DUP1 ISZERO PUSH2 0xF JUMPI PUSH0 DUP1 REVERT JUMPDEST POP PUSH1 0x40 MLOAD PUSH2 0x2954 CODESIZE SUB DUP1 PUSH2 0x2954 DUP4 CODECOPY DUP2 DUP2 ADD PUSH1 0x40 MSTORE DUP2 ADD SWAP1 PUSH2 0x31 SWAP2 SWAP1 PUSH2 0x1D7 JUMP JUMPDEST DUP1 PUSH0 PUSH20 0xFFFFFFFFFFFFFFFFFFFFFFFFFFFFFFFFFFFFFFFF AND DUP2 PUSH20 0xFFFFFFFFFFFFFFFFFFFFFFFFFFFFFFFFFFFFFFFF AND SUB PUSH2 0xA2 JUMPI PUSH0 PUSH1 0x40 MLOAD PUSH32 0x1E4FBDF700000000000000000000000000000000000000000000000000000000 DUP2 MSTORE PUSH1 0x4 ADD PUSH2 0x99 SWAP2 SWAP1 PUSH2 0x211 JUMP JUMPDEST PUSH1 0x40 MLOAD DUP1 SWAP2 SUB SWAP1 REVERT JUMPDEST PUSH2 0xB1 DUP2 PUSH2 0xB8 PUSH1 0x20 SHL PUSH1 0x20 SHR JUMP JUMPDEST POP POP PUSH2 0x22A JUMP JUMPDEST PUSH0 DUP1 PUSH0 SWAP1 SLOAD SWAP1 PUSH2 0x100 EXP SWAP1 DIV PUSH20 0xFFFFFFFFFFFFFFFFFFFFFFFFFFFFFFFFFFFFFFFF AND SWAP1 POP DUP2 PUSH0 DUP1 PUSH2 0x100 EXP DUP2 SLOAD DUP2 PUSH20 0xFFFFFFFFFFFFFFFFFFFFFFFFFFFFFFFFFFFFFFFF MUL NOT AND SWAP1 DUP4 PUSH20 0xFFFFFFFFFFFFFFFFFFFFFFFFFFFFFFFFFFFFFFFF AND MUL OR SWAP1 SSTORE POP DUP2 PUSH20 0xFFFFFFFFFFFFFFFFFFFFFFFFFFFFFFFFFFFFFFFF AND DUP2 PUSH20 0xFFFFFFFFFFFFFFFFFFFFFFFFFFFFFFFFFFFFFFFF AND PUSH32 0x8BE0079C531659141344CD1FD0A4F28419497F9722A3DAAFE3B4186F6B6457E0 PUSH1 0x40 MLOAD PUSH1 0x40 MLOAD DUP1 SWAP2 SUB SWAP1 LOG3 POP POP JUMP JUMPDEST PUSH0 DUP1 REVERT JUMPDEST PUSH0 PUSH20 0xFFFFFFFFFFFFFFFFFFFFFFFFFFFFFFFFFFFFFFFF DUP3 AND SWAP1 POP SWAP2 SWAP1 POP JUMP JUMPDEST PUSH0 PUSH2 0x1A6 DUP3 PUSH2 0x17D JUMP JUMPDEST SWAP1 POP SWAP2 SWAP1 POP JUMP JUMPDEST PUSH2 0x1B6 DUP2 PUSH2 0x19C JUMP JUMPDEST DUP2 EQ PUSH2 0x1C0 JUMPI PUSH0 DUP1 REVERT JUMPDEST POP JUMP JUMPDEST PUSH0 DUP2 MLOAD SWAP1 POP PUSH2 0x1D1 DUP2 PUSH2 0x1AD JUMP JUMPDEST SWAP3 SWAP2 POP POP JUMP JUMPDEST PUSH0 PUSH1 0x20 DUP3 DUP5 SUB SLT ISZERO PUSH2 0x1EC JUMPI PUSH2 0x1EB PUSH2 0x179 JUMP JUMPDEST JUMPDEST PUSH0 PUSH2 0x1F9 DUP5 DUP3 DUP6 ADD PUSH2 0x1C3 JUMP JUMPDEST SWAP2 POP POP SWAP3 SWAP2 POP POP JUMP JUMPDEST PUSH2 0x20B DUP2 PUSH2 0x19C JUMP JUMPDEST DUP3 MSTORE POP POP JUMP JUMPDEST PUSH0 PUSH1 0x20 DUP3 ADD SWAP1 POP PUSH2 0x224 PUSH0 DUP4 ADD DUP5 PUSH2 0x202 JUMP JUMPDEST SWAP3 SWAP2 POP POP JUMP JUMPDEST PUSH2 0x271D DUP1 PUSH2 0x237 PUSH0 CODECOPY PUSH0 RETURN INVALID PUSH1 0x80 PUSH1 0x40 MSTORE PUSH1 0x4 CALLDATASIZE LT PUSH2 0x129 JUMPI PUSH0 CALLDATALOAD PUSH1 0xE0 SHR DUP1 PUSH4 0x82367B2D GT PUSH2 0xAA JUMPI DUP1 PUSH4 0x9DFC3DD1 GT PUSH2 0x6E JUMPI DUP1 PUSH4 0x9DFC3DD1 EQ PUSH2 0x39F JUMPI DUP1 PUSH4 0xBDA235DA EQ PUSH2 0x3C7 JUMPI DUP1 PUSH4 0xC29B2F20 EQ PUSH2 0x403 JUMPI DUP1 PUSH4 0xE7572230 EQ PUSH2 0x42D JUMPI DUP1 PUSH4 0xED90C7B7 EQ PUSH2 0x469 JUMPI DUP1 PUSH4 0xF2FDE38B EQ PUSH2 0x491 JUMPI PUSH2 0x129 JUMP JUMPDEST DUP1 PUSH4 0x82367B2D EQ PUSH2 0x2DF JUMPI DUP1 PUSH4 0x8DA5CB5B EQ PUSH2 0x307 JUMPI DUP1 PUSH4 0x957FAE96 EQ PUSH2 0x331 JUMPI DUP1 PUSH4 0x99331FDF EQ PUSH2 0x35B JUMPI DUP1 PUSH4 0x994983AD EQ PUSH2 0x377 JUMPI PUSH2 0x129 JUMP JUMPDEST DUP1 PUSH4 0x3DF50E82 GT PUSH2 0xF1 JUMPI DUP1 PUSH4 0x3DF50E82 EQ PUSH2 0x1FF JUMPI DUP1 PUSH4 0x41B980A6 EQ PUSH2 0x23B JUMPI DUP1 PUSH4 0x5AF36E3E EQ PUSH2 0x265 JUMPI DUP1 PUSH4 0x6038D0CF EQ PUSH2 0x28D JUMPI DUP1 PUSH4 0x715018A6 EQ PUSH2 0x2C9 JUMPI PUSH2 0x129 JUMP JUMPDEST DUP1 PUSH4 0x94455C4 EQ PUSH2 0x12D JUMPI DUP1 PUSH4 0x1A3764D2 EQ PUSH2 0x155 JUMPI DUP1 PUSH4 0x1A5BF973 EQ PUSH2 0x191 JUMPI DUP1 PUSH4 0x3AB7D09A EQ PUSH2 0x1AD JUMPI DUP1 PUSH4 0x3CCFD60B EQ PUSH2 0x1E9 JUMPI JUMPDEST PUSH0 DUP1 REVERT JUMPDEST CALLVALUE DUP1 ISZERO PUSH2 0x138 JUMPI PUSH0 DUP1 REVERT JUMPDEST POP PUSH2 0x153 PUSH1 0x4 DUP1 CALLDATASIZE SUB DUP2 ADD SWAP1 PUSH2 0x14E SWAP2 SWAP1 PUSH2 0x18FB JUMP JUMPDEST PUSH2 0x4B9 JUMP JUMPDEST STOP JUMPDEST CALLVALUE DUP1 ISZERO PUSH2 0x160 JUMPI PUSH0 DUP1 REVERT JUMPDEST POP PUSH2 0x17B PUSH1 0x4 DUP1 CALLDATASIZE SUB DUP2 ADD SWAP1 PUSH2 0x176 SWAP2 SWAP1 PUSH2 0x1AB7 JUMP JUMPDEST PUSH2 0x5C8 JUMP JUMPDEST PUSH1 0x40 MLOAD PUSH2 0x188 SWAP2 SWAP1 PUSH2 0x1B0D JUMP JUMPDEST PUSH1 0x40 MLOAD DUP1 SWAP2 SUB SWAP1 RETURN JUMPDEST PUSH2 0x1AB PUSH1 0x4 DUP1 CALLDATASIZE SUB DUP2 ADD SWAP1 PUSH2 0x1A6 SWAP2 SWAP1 PUSH2 0x1B7B JUMP JUMPDEST PUSH2 0x5F5 JUMP JUMPDEST STOP JUMPDEST CALLVALUE DUP1 ISZERO PUSH2 0x1B8 JUMPI PUSH0 DUP1 REVERT JUMPDEST POP PUSH2 0x1D3 PUSH1 0x4 DUP1 CALLDATASIZE SUB DUP2 ADD SWAP1 PUSH2 0x1CE SWAP2 SWAP1 PUSH2 0x1C2B JUMP JUMPDEST PUSH2 0x86F JUMP JUMPDEST PUSH1 0x40 MLOAD PUSH2 0x1E0 SWAP2 SWAP1 PUSH2 0x1B0D JUMP JUMPDEST PUSH1 0x40 MLOAD DUP1 SWAP2 SUB SWAP1 RETURN JUMPDEST CALLVALUE DUP1 ISZERO PUSH2 0x1F4 JUMPI PUSH0 DUP1 REVERT JUMPDEST POP PUSH2 0x1FD PUSH2 0x889 JUMP JUMPDEST STOP JUMPDEST CALLVALUE DUP1 ISZERO PUSH2 0x20A JUMPI PUSH0 DUP1 REVERT JUMPDEST POP PUSH2 0x225 PUSH1 0x4 DUP1 CALLDATASIZE SUB DUP2 ADD SWAP1 PUSH2 0x220 SWAP2 SWAP1 PUSH2 0x1C2B JUMP JUMPDEST PUSH2 0x91C JUMP JUMPDEST PUSH1 0x40 MLOAD PUSH2 0x232 SWAP2 SWAP1 PUSH2 0x1B0D JUMP JUMPDEST PUSH1 0x40 MLOAD DUP1 SWAP2 SUB SWAP1 RETURN JUMPDEST CALLVALUE DUP1 ISZERO PUSH2 0x246 JUMPI PUSH0 DUP1 REVERT JUMPDEST POP PUSH2 0x24F PUSH2 0x931 JUMP JUMPDEST PUSH1 0x40 MLOAD PUSH2 0x25C SWAP2 SWAP1 PUSH2 0x1CFB JUMP JUMPDEST PUSH1 0x40 MLOAD DUP1 SWAP2 SUB SWAP1 RETURN JUMPDEST CALLVALUE DUP1 ISZERO PUSH2 0x270 JUMPI PUSH0 DUP1 REVERT JUMPDEST POP PUSH2 0x28B PUSH1 0x4 DUP1 CALLDATASIZE SUB DUP2 ADD SWAP1 PUSH2 0x286 SWAP2 SWAP1 PUSH2 0x1D14 JUMP JUMPDEST PUSH2 0xB3F JUMP JUMPDEST STOP JUMPDEST CALLVALUE DUP1 ISZERO PUSH2 0x298 JUMPI PUSH0 DUP1 REVERT JUMPDEST POP PUSH2 0x2B3 PUSH1 0x4 DUP1 CALLDATASIZE SUB DUP2 ADD SWAP1 PUSH2 0x2AE SWAP2 SWAP1 PUSH2 0x1DAC JUMP JUMPDEST PUSH2 0xD8E JUMP JUMPDEST PUSH1 0x40 MLOAD PUSH2 0x2C0 SWAP2 SWAP1 PUSH2 0x1B0D JUMP JUMPDEST PUSH1 0x40 MLOAD DUP1 SWAP2 SUB SWAP1 RETURN JUMPDEST CALLVALUE DUP1 ISZERO PUSH2 0x2D4 JUMPI PUSH0 DUP1 REVERT JUMPDEST POP PUSH2 0x2DD PUSH2 0xDAE JUMP JUMPDEST STOP JUMPDEST CALLVALUE DUP1 ISZERO PUSH2 0x2EA JUMPI PUSH0 DUP1 REVERT JUMPDEST POP PUSH2 0x305 PUSH1 0x4 DUP1 CALLDATASIZE SUB DUP2 ADD SWAP1 PUSH2 0x300 SWAP2 SWAP1 PUSH2 0x1D14 JUMP JUMPDEST PUSH2 0xDC1 JUMP JUMPDEST STOP JUMPDEST CALLVALUE DUP1 ISZERO PUSH2 0x312 JUMPI PUSH0 DUP1 REVERT JUMPDEST POP PUSH2 0x31B PUSH2 0xDE3 JUMP JUMPDEST PUSH1 0x40 MLOAD PUSH2 0x328 SWAP2 SWAP1 PUSH2 0x1DF9 JUMP JUMPDEST PUSH1 0x40 MLOAD DUP1 SWAP2 SUB SWAP1 RETURN JUMPDEST CALLVALUE DUP1 ISZERO PUSH2 0x33C JUMPI PUSH0 DUP1 REVERT JUMPDEST POP PUSH2 0x345 PUSH2 0xE0A JUMP JUMPDEST PUSH1 0x40 MLOAD PUSH2 0x352 SWAP2 SWAP1 PUSH2 0x1B0D JUMP JUMPDEST PUSH1 0x40 MLOAD DUP1 SWAP2 SUB SWAP1 RETURN JUMPDEST PUSH2 0x375 PUSH1 0x4 DUP1 CALLDATASIZE SUB DUP2 ADD SWAP1 PUSH2 0x370 SWAP2 SWAP1 PUSH2 0x1E12 JUMP JUMPDEST PUSH2 0xE89 JUMP JUMPDEST STOP JUMPDEST CALLVALUE DUP1 ISZERO PUSH2 0x382 JUMPI PUSH0 DUP1 REVERT JUMPDEST POP PUSH2 0x39D PUSH1 0x4 DUP1 CALLDATASIZE SUB DUP2 ADD SWAP1 PUSH2 0x398 SWAP2 SWAP1 PUSH2 0x1E83 JUMP JUMPDEST PUSH2 0x1009 JUMP JUMPDEST STOP JUMPDEST CALLVALUE DUP1 ISZERO PUSH2 0x3AA JUMPI PUSH0 DUP1 REVERT JUMPDEST POP PUSH2 0x3C5 PUSH1 0x4 DUP1 CALLDATASIZE SUB DUP2 ADD SWAP1 PUSH2 0x3C0 SWAP2 SWAP1 PUSH2 0x1D14 JUMP JUMPDEST PUSH2 0x1081 JUMP JUMPDEST STOP JUMPDEST CALLVALUE DUP1 ISZERO PUSH2 0x3D2 JUMPI PUSH0 DUP1 REVERT JUMPDEST POP PUSH2 0x3ED PUSH1 0x4 DUP1 CALLDATASIZE SUB DUP2 ADD SWAP1 PUSH2 0x3E8 SWAP2 SWAP1 PUSH2 0x1EE0 JUMP JUMPDEST PUSH2 0x10A3 JUMP JUMPDEST PUSH1 0x40 MLOAD PUSH2 0x3FA SWAP2 SWAP1 PUSH2 0x1B0D JUMP JUMPDEST PUSH1 0x40 MLOAD DUP1 SWAP2 SUB SWAP1 RETURN JUMPDEST CALLVALUE DUP1 ISZERO PUSH2 0x40E JUMPI PUSH0 DUP1 REVERT JUMPDEST POP PUSH2 0x417 PUSH2 0x115F JUMP JUMPDEST PUSH1 0x40 MLOAD PUSH2 0x424 SWAP2 SWAP1 PUSH2 0x2086 JUMP JUMPDEST PUSH1 0x40 MLOAD DUP1 SWAP2 SUB SWAP1 RETURN JUMPDEST CALLVALUE DUP1 ISZERO PUSH2 0x438 JUMPI PUSH0 DUP1 REVERT JUMPDEST POP PUSH2 0x453 PUSH1 0x4 DUP1 CALLDATASIZE SUB DUP2 ADD SWAP1 PUSH2 0x44E SWAP2 SWAP1 PUSH2 0x1C2B JUMP JUMPDEST PUSH2 0x1268 JUMP JUMPDEST PUSH1 0x40 MLOAD PUSH2 0x460 SWAP2 SWAP1 PUSH2 0x1B0D JUMP JUMPDEST PUSH1 0x40 MLOAD DUP1 SWAP2 SUB SWAP1 RETURN JUMPDEST CALLVALUE DUP1 ISZERO PUSH2 0x474 JUMPI PUSH0 DUP1 REVERT JUMPDEST POP PUSH2 0x48F PUSH1 0x4 DUP1 CALLDATASIZE SUB DUP2 ADD SWAP1 PUSH2 0x48A SWAP2 SWAP1 PUSH2 0x1C2B JUMP JUMPDEST PUSH2 0x1282 JUMP JUMPDEST STOP JUMPDEST CALLVALUE DUP1 ISZERO PUSH2 0x49C JUMPI PUSH0 DUP1 REVERT JUMPDEST POP PUSH2 0x4B7 PUSH1 0x4 DUP1 CALLDATASIZE SUB DUP2 ADD SWAP1 PUSH2 0x4B2 SWAP2 SWAP1 PUSH2 0x1EE0 JUMP JUMPDEST PUSH2 0x13A6 JUMP JUMPDEST STOP JUMPDEST PUSH2 0x4C1 PUSH2 0x142A JUMP JUMPDEST PUSH2 0x4CA DUP4 PUSH2 0x14B1 JUMP JUMPDEST ISZERO PUSH2 0x501 JUMPI PUSH1 0x40 MLOAD PUSH32 0xF270498400000000000000000000000000000000000000000000000000000000 DUP2 MSTORE PUSH1 0x4 ADD PUSH1 0x40 MLOAD DUP1 SWAP2 SUB SWAP1 REVERT JUMPDEST PUSH1 0x4 PUSH1 0x40 MLOAD DUP1 PUSH1 0x80 ADD PUSH1 0x40 MSTORE DUP1 DUP8 DUP8 DUP1 DUP1 PUSH1 0x1F ADD PUSH1 0x20 DUP1 SWAP2 DIV MUL PUSH1 0x20 ADD PUSH1 0x40 MLOAD SWAP1 DUP2 ADD PUSH1 0x40 MSTORE DUP1 SWAP4 SWAP3 SWAP2 SWAP1 DUP2 DUP2 MSTORE PUSH1 0x20 ADD DUP4 DUP4 DUP1 DUP3 DUP5 CALLDATACOPY PUSH0 DUP2 DUP5 ADD MSTORE PUSH1 0x1F NOT PUSH1 0x1F DUP3 ADD AND SWAP1 POP DUP1 DUP4 ADD SWAP3 POP POP POP POP POP POP POP DUP2 MSTORE PUSH1 0x20 ADD DUP6 DUP2 MSTORE PUSH1 0x20 ADD DUP5 DUP2 MSTORE PUSH1 0x20 ADD DUP4 DUP2 MSTORE POP SWAP1 DUP1 PUSH1 0x1 DUP2 SLOAD ADD DUP1 DUP3 SSTORE DUP1 SWAP2 POP POP PUSH1 0x1 SWAP1 SUB SWAP1 PUSH0 MSTORE PUSH1 0x20 PUSH0 KECCAK256 SWAP1 PUSH1 0x4 MUL ADD PUSH0 SWAP1 SWAP2 SWAP1 SWAP2 SWAP1 SWAP2 POP PUSH0 DUP3 ADD MLOAD DUP2 PUSH0 ADD SWAP1 DUP2 PUSH2 0x5A0 SWAP2 SWAP1 PUSH2 0x22A0 JUMP JUMPDEST POP PUSH1 0x20 DUP3 ADD MLOAD DUP2 PUSH1 0x1 ADD SSTORE PUSH1 0x40 DUP3 ADD MLOAD DUP2 PUSH1 0x2 ADD SSTORE PUSH1 0x60 DUP3 ADD MLOAD DUP2 PUSH1 0x3 ADD SSTORE POP POP POP POP POP POP POP JUMP JUMPDEST PUSH1 0x3 DUP2 DUP1 MLOAD PUSH1 0x20 DUP2 ADD DUP3 ADD DUP1 MLOAD DUP5 DUP3 MSTORE PUSH1 0x20 DUP4 ADD PUSH1 0x20 DUP6 ADD KECCAK256 DUP2 DUP4 MSTORE DUP1 SWAP6 POP POP POP POP POP POP PUSH0 SWAP2 POP SWAP1 POP SLOAD DUP2 JUMP JUMPDEST DUP4 DUP4 SWAP1 POP DUP7 DUP7 SWAP1 POP EQ PUSH2 0x634 JUMPI PUSH1 0x40 MLOAD PUSH32 0x23A37FC200000000000000000000000000000000000000000000000000000000 DUP2 MSTORE PUSH1 0x4 ADD PUSH1 0x40 MLOAD DUP1 SWAP2 SUB SWAP1 REVERT JUMPDEST PUSH0 DUP1 JUMPDEST DUP8 DUP8 SWAP1 POP DUP2 LT ISZERO PUSH2 0x771 JUMPI PUSH0 DUP7 DUP7 DUP4 DUP2 DUP2 LT PUSH2 0x656 JUMPI PUSH2 0x655 PUSH2 0x236F JUMP JUMPDEST JUMPDEST SWAP1 POP PUSH1 0x20 MUL ADD CALLDATALOAD SWAP1 POP PUSH0 DUP10 DUP10 DUP5 DUP2 DUP2 LT PUSH2 0x673 JUMPI PUSH2 0x672 PUSH2 0x236F JUMP JUMPDEST JUMPDEST SWAP1 POP PUSH1 0x20 MUL ADD CALLDATALOAD SWAP1 POP PUSH0 DUP3 GT PUSH2 0x6B5 JUMPI PUSH1 0x40 MLOAD PUSH32 0xF4F5B73300000000000000000000000000000000000000000000000000000000 DUP2 MSTORE PUSH1 0x4 ADD PUSH1 0x40 MLOAD DUP1 SWAP2 SUB SWAP1 REVERT JUMPDEST DUP2 PUSH2 0x6BF DUP5 PUSH2 0x86F JUMP JUMPDEST LT ISZERO PUSH2 0x6F7 JUMPI PUSH1 0x40 MLOAD PUSH32 0xADE1CB4100000000000000000000000000000000000000000000000000000000 DUP2 MSTORE PUSH1 0x4 ADD PUSH1 0x40 MLOAD DUP1 SWAP2 SUB SWAP1 REVERT JUMPDEST PUSH0 PUSH2 0x701 DUP3 PUSH2 0x1268 JUMP JUMPDEST SWAP1 POP PUSH1 0x64 PUSH1 0x3 DUP9 DUP9 PUSH1 0x40 MLOAD PUSH2 0x717 SWAP3 SWAP2 SWAP1 PUSH2 0x23CA JUMP JUMPDEST SWAP1 DUP2 MSTORE PUSH1 0x20 ADD PUSH1 0x40 MLOAD DUP1 SWAP2 SUB SWAP1 KECCAK256 SLOAD DUP3 PUSH2 0x731 SWAP2 SWAP1 PUSH2 0x240F JUMP JUMPDEST PUSH2 0x73B SWAP2 SWAP1 PUSH2 0x247D JUMP JUMPDEST DUP2 PUSH2 0x746 SWAP2 SWAP1 PUSH2 0x24AD JUMP JUMPDEST SWAP1 POP DUP3 DUP2 PUSH2 0x754 SWAP2 SWAP1 PUSH2 0x240F JUMP JUMPDEST DUP6 PUSH2 0x75F SWAP2 SWAP1 PUSH2 0x24E0 JUMP JUMPDEST SWAP5 POP POP POP POP DUP1 DUP1 PUSH1 0x1 ADD SWAP2 POP POP PUSH2 0x637 JUMP JUMPDEST POP DUP1 CALLVALUE LT ISZERO PUSH2 0x7AC JUMPI PUSH1 0x40 MLOAD PUSH32 0x81B5AD6800000000000000000000000000000000000000000000000000000000 DUP2 MSTORE PUSH1 0x4 ADD PUSH1 0x40 MLOAD DUP1 SWAP2 SUB SWAP1 REVERT JUMPDEST PUSH0 JUMPDEST DUP8 DUP8 SWAP1 POP DUP2 LT ISZERO PUSH2 0x80D JUMPI PUSH0 DUP7 DUP7 DUP4 DUP2 DUP2 LT PUSH2 0x7CD JUMPI PUSH2 0x7CC PUSH2 0x236F JUMP JUMPDEST JUMPDEST SWAP1 POP PUSH1 0x20 MUL ADD CALLDATALOAD SWAP1 POP PUSH0 DUP10 DUP10 DUP5 DUP2 DUP2 LT PUSH2 0x7EA JUMPI PUSH2 0x7E9 PUSH2 0x236F JUMP JUMPDEST JUMPDEST SWAP1 POP PUSH1 0x20 MUL ADD CALLDATALOAD SWAP1 POP PUSH2 0x7FE CALLER DUP3 DUP5 PUSH2 0x150F JUMP JUMPDEST POP POP DUP1 DUP1 PUSH1 0x1 ADD SWAP2 POP POP PUSH2 0x7AE JUMP JUMPDEST POP DUP1 CALLVALUE GT ISZERO PUSH2 0x866 JUMPI CALLER PUSH20 0xFFFFFFFFFFFFFFFFFFFFFFFFFFFFFFFFFFFFFFFF AND PUSH2 0x8FC DUP3 CALLVALUE PUSH2 0x83C SWAP2 SWAP1 PUSH2 0x24AD JUMP JUMPDEST SWAP1 DUP2 ISZERO MUL SWAP1 PUSH1 0x40 MLOAD PUSH0 PUSH1 0x40 MLOAD DUP1 DUP4 SUB DUP2 DUP6 DUP9 DUP9 CALL SWAP4 POP POP POP POP ISZERO DUP1 ISZERO PUSH2 0x864 JUMPI RETURNDATASIZE PUSH0 DUP1 RETURNDATACOPY RETURNDATASIZE PUSH0 REVERT JUMPDEST POP JUMPDEST POP POP POP POP POP POP POP JUMP JUMPDEST PUSH0 DUP1 PUSH2 0x87A DUP4 PUSH2 0x15FF JUMP JUMPDEST SWAP1 POP DUP1 PUSH1 0x2 ADD SLOAD SWAP2 POP POP SWAP2 SWAP1 POP JUMP JUMPDEST PUSH2 0x891 PUSH2 0x142A JUMP JUMPDEST PUSH0 SELFBALANCE SWAP1 POP PUSH0 DUP2 SUB PUSH2 0x8CE JUMPI PUSH1 0x40 MLOAD PUSH32 0x469EA76800000000000000000000000000000000000000000000000000000000 DUP2 MSTORE PUSH1 0x4 ADD PUSH1 0x40 MLOAD DUP1 SWAP2 SUB SWAP1 REVERT JUMPDEST PUSH2 0x8D6 PUSH2 0xDE3 JUMP JUMPDEST PUSH20 0xFFFFFFFFFFFFFFFFFFFFFFFFFFFFFFFFFFFFFFFF AND PUSH2 0x8FC DUP3 SWAP1 DUP2 ISZERO MUL SWAP1 PUSH1 0x40 MLOAD PUSH0 PUSH1 0x40 MLOAD DUP1 DUP4 SUB DUP2 DUP6 DUP9 DUP9 CALL SWAP4 POP POP POP POP ISZERO DUP1 ISZERO PUSH2 0x918 JUMPI RETURNDATASIZE PUSH0 DUP1 RETURNDATACOPY RETURNDATASIZE PUSH0 REVERT JUMPDEST POP POP JUMP JUMPDEST PUSH1 0x2 PUSH1 0x20 MSTORE DUP1 PUSH0 MSTORE PUSH1 0x40 PUSH0 KECCAK256 PUSH0 SWAP2 POP SWAP1 POP SLOAD DUP2 JUMP JUMPDEST PUSH2 0x939 PUSH2 0x17DC JUMP JUMPDEST PUSH0 PUSH1 0x40 MLOAD DUP1 PUSH1 0x60 ADD PUSH1 0x40 MSTORE DUP1 PUSH32 0xFFFFFFFFFFFFFFFFFFFFFFFFFFFFFFFFFFFFFFFFFFFFFFFFFFFFFFFFFFFFFFFF DUP2 MSTORE PUSH1 0x20 ADD PUSH32 0xFFFFFFFFFFFFFFFFFFFFFFFFFFFFFFFFFFFFFFFFFFFFFFFFFFFFFFFFFFFFFFFF DUP2 MSTORE PUSH1 0x20 ADD PUSH32 0xFFFFFFFFFFFFFFFFFFFFFFFFFFFFFFFFFFFFFFFFFFFFFFFFFFFFFFFFFFFFFFFF DUP2 MSTORE POP SWAP1 POP PUSH0 PUSH1 0x3 PUSH8 0xFFFFFFFFFFFFFFFF DUP2 GT ISZERO PUSH2 0x9D3 JUMPI PUSH2 0x9D2 PUSH2 0x1993 JUMP JUMPDEST JUMPDEST PUSH1 0x40 MLOAD SWAP1 DUP1 DUP3 MSTORE DUP1 PUSH1 0x20 MUL PUSH1 0x20 ADD DUP3 ADD PUSH1 0x40 MSTORE DUP1 ISZERO PUSH2 0xA01 JUMPI DUP2 PUSH1 0x20 ADD PUSH1 0x20 DUP3 MUL DUP1 CALLDATASIZE DUP4 CALLDATACOPY DUP1 DUP3 ADD SWAP2 POP POP SWAP1 POP JUMPDEST POP SWAP1 POP PUSH0 JUMPDEST PUSH1 0x3 DUP2 LT ISZERO PUSH2 0xB36 JUMPI PUSH0 JUMPDEST PUSH1 0x4 DUP1 SLOAD SWAP1 POP DUP2 LT ISZERO PUSH2 0xB28 JUMPI PUSH0 PUSH1 0x4 DUP3 DUP2 SLOAD DUP2 LT PUSH2 0xA33 JUMPI PUSH2 0xA32 PUSH2 0x236F JUMP JUMPDEST JUMPDEST SWAP1 PUSH0 MSTORE PUSH1 0x20 PUSH0 KECCAK256 SWAP1 PUSH1 0x4 MUL ADD SWAP1 POP PUSH0 DUP1 JUMPDEST DUP5 DUP2 LT ISZERO PUSH2 0xA80 JUMPI DUP7 DUP2 PUSH1 0x3 DUP2 LT PUSH2 0xA5F JUMPI PUSH2 0xA5E PUSH2 0x236F JUMP JUMPDEST JUMPDEST PUSH1 0x20 MUL ADD MLOAD DUP4 PUSH1 0x1 ADD SLOAD SUB PUSH2 0xA73 JUMPI PUSH1 0x1 SWAP2 POP JUMPDEST DUP1 DUP1 PUSH1 0x1 ADD SWAP2 POP POP PUSH2 0xA44 JUMP JUMPDEST POP PUSH1 0x2 PUSH0 DUP4 PUSH1 0x1 ADD SLOAD DUP2 MSTORE PUSH1 0x20 ADD SWAP1 DUP2 MSTORE PUSH1 0x20 ADD PUSH0 KECCAK256 SLOAD DUP6 DUP6 DUP2 MLOAD DUP2 LT PUSH2 0xAAA JUMPI PUSH2 0xAA9 PUSH2 0x236F JUMP JUMPDEST JUMPDEST PUSH1 0x20 MUL PUSH1 0x20 ADD ADD MLOAD LT DUP1 ISZERO PUSH2 0xABD JUMPI POP DUP1 ISZERO JUMPDEST ISZERO PUSH2 0xB19 JUMPI PUSH1 0x2 PUSH0 DUP4 PUSH1 0x1 ADD SLOAD DUP2 MSTORE PUSH1 0x20 ADD SWAP1 DUP2 MSTORE PUSH1 0x20 ADD PUSH0 KECCAK256 SLOAD DUP6 DUP6 DUP2 MLOAD DUP2 LT PUSH2 0xAEB JUMPI PUSH2 0xAEA PUSH2 0x236F JUMP JUMPDEST JUMPDEST PUSH1 0x20 MUL PUSH1 0x20 ADD ADD DUP2 DUP2 MSTORE POP POP DUP2 PUSH1 0x1 ADD SLOAD DUP7 DUP6 PUSH1 0x3 DUP2 LT PUSH2 0xB0F JUMPI PUSH2 0xB0E PUSH2 0x236F JUMP JUMPDEST JUMPDEST PUSH1 0x20 MUL ADD DUP2 DUP2 MSTORE POP POP JUMPDEST POP POP DUP1 DUP1 PUSH1 0x1 ADD SWAP2 POP POP PUSH2 0xA11 JUMP JUMPDEST POP DUP1 DUP1 PUSH1 0x1 ADD SWAP2 POP POP PUSH2 0xA06 JUMP JUMPDEST POP DUP2 SWAP3 POP POP POP SWAP1 JUMP JUMPDEST PUSH0 DUP2 GT PUSH2 0xB78 JUMPI PUSH1 0x40 MLOAD PUSH32 0xF4F5B73300000000000000000000000000000000000000000000000000000000 DUP2 MSTORE PUSH1 0x4 ADD PUSH1 0x40 MLOAD DUP1 SWAP2 SUB SWAP1 REVERT JUMPDEST DUP1 PUSH1 0x1 PUSH0 CALLER PUSH20 0xFFFFFFFFFFFFFFFFFFFFFFFFFFFFFFFFFFFFFFFF AND PUSH20 0xFFFFFFFFFFFFFFFFFFFFFFFFFFFFFFFFFFFFFFFF AND DUP2 MSTORE PUSH1 0x20 ADD SWAP1 DUP2 MSTORE PUSH1 0x20 ADD PUSH0 KECCAK256 PUSH0 DUP5 DUP2 MSTORE PUSH1 0x20 ADD SWAP1 DUP2 MSTORE PUSH1 0x20 ADD PUSH0 KECCAK256 SLOAD LT ISZERO PUSH2 0xBFE JUMPI PUSH1 0x40 MLOAD PUSH32 0xCD1D0D9300000000000000000000000000000000000000000000000000000000 DUP2 MSTORE PUSH1 0x4 ADD PUSH1 0x40 MLOAD DUP1 SWAP2 SUB SWAP1 REVERT JUMPDEST PUSH0 SELFBALANCE SWAP1 POP PUSH0 PUSH2 0xC0C DUP5 PUSH2 0x15FF JUMP JUMPDEST SWAP1 POP DUP1 PUSH1 0x3 ADD SLOAD DUP4 PUSH2 0xC1E SWAP2 SWAP1 PUSH2 0x240F JUMP JUMPDEST DUP3 LT ISZERO PUSH2 0xC57 JUMPI PUSH1 0x40 MLOAD PUSH32 0x469EA76800000000000000000000000000000000000000000000000000000000 DUP2 MSTORE PUSH1 0x4 ADD PUSH1 0x40 MLOAD DUP1 SWAP2 SUB SWAP1 REVERT JUMPDEST DUP3 DUP2 PUSH1 0x2 ADD PUSH0 DUP3 DUP3 SLOAD PUSH2 0xC6A SWAP2 SWAP1 PUSH2 0x24E0 JUMP JUMPDEST SWAP3 POP POP DUP2 SWAP1 SSTORE POP DUP3 PUSH1 0x1 PUSH0 CALLER PUSH20 0xFFFFFFFFFFFFFFFFFFFFFFFFFFFFFFFFFFFFFFFF AND PUSH20 0xFFFFFFFFFFFFFFFFFFFFFFFFFFFFFFFFFFFFFFFF AND DUP2 MSTORE PUSH1 0x20 ADD SWAP1 DUP2 MSTORE PUSH1 0x20 ADD PUSH0 KECCAK256 PUSH0 DUP7 DUP2 MSTORE PUSH1 0x20 ADD SWAP1 DUP2 MSTORE PUSH1 0x20 ADD PUSH0 KECCAK256 PUSH0 DUP3 DUP3 SLOAD PUSH2 0xCCC SWAP2 SWAP1 PUSH2 0x24AD JUMP JUMPDEST SWAP3 POP POP DUP2 SWAP1 SSTORE POP DUP3 PUSH1 0x2 PUSH0 DUP7 DUP2 MSTORE PUSH1 0x20 ADD SWAP1 DUP2 MSTORE PUSH1 0x20 ADD PUSH0 KECCAK256 PUSH0 DUP3 DUP3 SLOAD PUSH2 0xCF3 SWAP2 SWAP1 PUSH2 0x24AD JUMP JUMPDEST SWAP3 POP POP DUP2 SWAP1 SSTORE POP CALLER PUSH20 0xFFFFFFFFFFFFFFFFFFFFFFFFFFFFFFFFFFFFFFFF AND PUSH2 0x8FC DUP3 PUSH1 0x3 ADD SLOAD DUP6 PUSH2 0xD24 SWAP2 SWAP1 PUSH2 0x240F JUMP JUMPDEST SWAP1 DUP2 ISZERO MUL SWAP1 PUSH1 0x40 MLOAD PUSH0 PUSH1 0x40 MLOAD DUP1 DUP4 SUB DUP2 DUP6 DUP9 DUP9 CALL SWAP4 POP POP POP POP ISZERO DUP1 ISZERO PUSH2 0xD4C JUMPI RETURNDATASIZE PUSH0 DUP1 RETURNDATACOPY RETURNDATASIZE PUSH0 REVERT JUMPDEST POP PUSH32 0x73F04AF9DCC582A923EC15D3EEA990FE34ADABFFF2879E28D44572E01A54ABB6 CALLER DUP6 DUP6 PUSH1 0x40 MLOAD PUSH2 0xD80 SWAP4 SWAP3 SWAP2 SWAP1 PUSH2 0x2513 JUMP JUMPDEST PUSH1 0x40 MLOAD DUP1 SWAP2 SUB SWAP1 LOG1 POP POP POP POP JUMP JUMPDEST PUSH1 0x1 PUSH1 0x20 MSTORE DUP2 PUSH0 MSTORE PUSH1 0x40 PUSH0 KECCAK256 PUSH1 0x20 MSTORE DUP1 PUSH0 MSTORE PUSH1 0x40 PUSH0 KECCAK256 PUSH0 SWAP2 POP SWAP2 POP POP SLOAD DUP2 JUMP JUMPDEST PUSH2 0xDB6 PUSH2 0x142A JUMP JUMPDEST PUSH2 0xDBF PUSH0 PUSH2 0x16B2 JUMP JUMPDEST JUMP JUMPDEST PUSH2 0xDC9 PUSH2 0x142A JUMP JUMPDEST PUSH0 PUSH2 0xDD3 DUP4 PUSH2 0x15FF JUMP JUMPDEST SWAP1 POP DUP2 DUP2 PUSH1 0x3 ADD DUP2 SWAP1 SSTORE POP POP POP POP JUMP JUMPDEST PUSH0 DUP1 PUSH0 SWAP1 SLOAD SWAP1 PUSH2 0x100 EXP SWAP1 DIV PUSH20 0xFFFFFFFFFFFFFFFFFFFFFFFFFFFFFFFFFFFFFFFF AND SWAP1 POP SWAP1 JUMP JUMPDEST PUSH0 DUP1 PUSH0 SWAP1 POP PUSH0 JUMPDEST PUSH1 0x4 DUP1 SLOAD SWAP1 POP DUP2 LT ISZERO PUSH2 0xE81 JUMPI PUSH0 PUSH1 0x4 DUP3 DUP2 SLOAD DUP2 LT PUSH2 0xE33 JUMPI PUSH2 0xE32 PUSH2 0x236F JUMP JUMPDEST JUMPDEST SWAP1 PUSH0 MSTORE PUSH1 0x20 PUSH0 KECCAK256 SWAP1 PUSH1 0x4 MUL ADD SWAP1 POP DUP1 PUSH1 0x3 ADD SLOAD PUSH1 0x2 PUSH0 DUP4 PUSH1 0x1 ADD SLOAD DUP2 MSTORE PUSH1 0x20 ADD SWAP1 DUP2 MSTORE PUSH1 0x20 ADD PUSH0 KECCAK256 SLOAD PUSH2 0xE66 SWAP2 SWAP1 PUSH2 0x240F JUMP JUMPDEST DUP4 PUSH2 0xE71 SWAP2 SWAP1 PUSH2 0x24E0 JUMP JUMPDEST SWAP3 POP POP DUP1 DUP1 PUSH1 0x1 ADD SWAP2 POP POP PUSH2 0xE11 JUMP JUMPDEST POP DUP1 SWAP2 POP POP SWAP1 JUMP JUMPDEST PUSH0 DUP4 GT PUSH2 0xEC2 JUMPI PUSH1 0x40 MLOAD PUSH32 0xF4F5B73300000000000000000000000000000000000000000000000000000000 DUP2 MSTORE PUSH1 0x4 ADD PUSH1 0x40 MLOAD DUP1 SWAP2 SUB SWAP1 REVERT JUMPDEST DUP3 PUSH2 0xECC DUP6 PUSH2 0x86F JUMP JUMPDEST LT ISZERO PUSH2 0xF04 JUMPI PUSH1 0x40 MLOAD PUSH32 0xADE1CB4100000000000000000000000000000000000000000000000000000000 DUP2 MSTORE PUSH1 0x4 ADD PUSH1 0x40 MLOAD DUP1 SWAP2 SUB SWAP1 REVERT JUMPDEST PUSH0 PUSH2 0xF0E DUP6 PUSH2 0x1268 JUMP JUMPDEST SWAP1 POP PUSH1 0x64 PUSH1 0x3 DUP5 DUP5 PUSH1 0x40 MLOAD PUSH2 0xF24 SWAP3 SWAP2 SWAP1 PUSH2 0x23CA JUMP JUMPDEST SWAP1 DUP2 MSTORE PUSH1 0x20 ADD PUSH1 0x40 MLOAD DUP1 SWAP2 SUB SWAP1 KECCAK256 SLOAD DUP3 PUSH2 0xF3E SWAP2 SWAP1 PUSH2 0x240F JUMP JUMPDEST PUSH2 0xF48 SWAP2 SWAP1 PUSH2 0x247D JUMP JUMPDEST DUP2 PUSH2 0xF53 SWAP2 SWAP1 PUSH2 0x24AD JUMP JUMPDEST SWAP1 POP PUSH0 DUP5 DUP3 PUSH2 0xF62 SWAP2 SWAP1 PUSH2 0x240F JUMP JUMPDEST SWAP1 POP DUP1 CALLVALUE LT ISZERO PUSH2 0xF9E JUMPI PUSH1 0x40 MLOAD PUSH32 0x81B5AD6800000000000000000000000000000000000000000000000000000000 DUP2 MSTORE PUSH1 0x4 ADD PUSH1 0x40 MLOAD DUP1 SWAP2 SUB SWAP1 REVERT JUMPDEST PUSH2 0xFA9 CALLER DUP8 DUP8 PUSH2 0x150F JUMP JUMPDEST DUP1 CALLVALUE GT ISZERO PUSH2 0x1001 JUMPI CALLER PUSH20 0xFFFFFFFFFFFFFFFFFFFFFFFFFFFFFFFFFFFFFFFF AND PUSH2 0x8FC DUP3 CALLVALUE PUSH2 0xFD7 SWAP2 SWAP1 PUSH2 0x24AD JUMP JUMPDEST SWAP1 DUP2 ISZERO MUL SWAP1 PUSH1 0x40 MLOAD PUSH0 PUSH1 0x40 MLOAD DUP1 DUP4 SUB DUP2 DUP6 DUP9 DUP9 CALL SWAP4 POP POP POP POP ISZERO DUP1 ISZERO PUSH2 0xFFF JUMPI RETURNDATASIZE PUSH0 DUP1 RETURNDATACOPY RETURNDATASIZE PUSH0 REVERT JUMPDEST POP JUMPDEST POP POP POP POP POP POP JUMP JUMPDEST PUSH2 0x1011 PUSH2 0x142A JUMP JUMPDEST PUSH0 DUP2 GT ISZERO DUP1 PUSH2 0x1020 JUMPI POP PUSH1 0x64 DUP2 GT JUMPDEST ISZERO PUSH2 0x1057 JUMPI PUSH1 0x40 MLOAD PUSH32 0x8478AEDC00000000000000000000000000000000000000000000000000000000 DUP2 MSTORE PUSH1 0x4 ADD PUSH1 0x40 MLOAD DUP1 SWAP2 SUB SWAP1 REVERT JUMPDEST DUP1 PUSH1 0x3 DUP5 DUP5 PUSH1 0x40 MLOAD PUSH2 0x106A SWAP3 SWAP2 SWAP1 PUSH2 0x23CA JUMP JUMPDEST SWAP1 DUP2 MSTORE PUSH1 0x20 ADD PUSH1 0x40 MLOAD DUP1 SWAP2 SUB SWAP1 KECCAK256 DUP2 SWAP1 SSTORE POP POP POP POP JUMP JUMPDEST PUSH2 0x1089 PUSH2 0x142A JUMP JUMPDEST PUSH0 PUSH2 0x1093 DUP4 PUSH2 0x15FF JUMP JUMPDEST SWAP1 POP DUP2 DUP2 PUSH1 0x2 ADD DUP2 SWAP1 SSTORE POP POP POP POP JUMP JUMPDEST PUSH0 DUP1 PUSH0 SWAP1 POP PUSH0 JUMPDEST PUSH1 0x4 DUP1 SLOAD SWAP1 POP DUP2 LT ISZERO PUSH2 0x1155 JUMPI PUSH0 PUSH1 0x4 DUP3 DUP2 SLOAD DUP2 LT PUSH2 0x10CC JUMPI PUSH2 0x10CB PUSH2 0x236F JUMP JUMPDEST JUMPDEST SWAP1 PUSH0 MSTORE PUSH1 0x20 PUSH0 KECCAK256 SWAP1 PUSH1 0x4 MUL ADD SWAP1 POP DUP1 PUSH1 0x3 ADD SLOAD PUSH1 0x1 PUSH0 DUP8 PUSH20 0xFFFFFFFFFFFFFFFFFFFFFFFFFFFFFFFFFFFFFFFF AND PUSH20 0xFFFFFFFFFFFFFFFFFFFFFFFFFFFFFFFFFFFFFFFF AND DUP2 MSTORE PUSH1 0x20 ADD SWAP1 DUP2 MSTORE PUSH1 0x20 ADD PUSH0 KECCAK256 PUSH0 DUP4 PUSH1 0x1 ADD SLOAD DUP2 MSTORE PUSH1 0x20 ADD SWAP1 DUP2 MSTORE PUSH1 0x20 ADD PUSH0 KECCAK256 SLOAD PUSH2 0x113A SWAP2 SWAP1 PUSH2 0x240F JUMP JUMPDEST DUP4 PUSH2 0x1145 SWAP2 SWAP1 PUSH2 0x24E0 JUMP JUMPDEST SWAP3 POP POP DUP1 DUP1 PUSH1 0x1 ADD SWAP2 POP POP PUSH2 0x10AA JUMP JUMPDEST POP DUP1 SWAP2 POP POP SWAP2 SWAP1 POP JUMP JUMPDEST PUSH1 0x60 PUSH1 0x4 DUP1 SLOAD DUP1 PUSH1 0x20 MUL PUSH1 0x20 ADD PUSH1 0x40 MLOAD SWAP1 DUP2 ADD PUSH1 0x40 MSTORE DUP1 SWAP3 SWAP2 SWAP1 DUP2 DUP2 MSTORE PUSH1 0x20 ADD PUSH0 SWAP1 JUMPDEST DUP3 DUP3 LT ISZERO PUSH2 0x125F JUMPI DUP4 DUP3 SWAP1 PUSH0 MSTORE PUSH1 0x20 PUSH0 KECCAK256 SWAP1 PUSH1 0x4 MUL ADD PUSH1 0x40 MLOAD DUP1 PUSH1 0x80 ADD PUSH1 0x40 MSTORE SWAP1 DUP2 PUSH0 DUP3 ADD DUP1 SLOAD PUSH2 0x11B2 SWAP1 PUSH2 0x20D3 JUMP JUMPDEST DUP1 PUSH1 0x1F ADD PUSH1 0x20 DUP1 SWAP2 DIV MUL PUSH1 0x20 ADD PUSH1 0x40 MLOAD SWAP1 DUP2 ADD PUSH1 0x40 MSTORE DUP1 SWAP3 SWAP2 SWAP1 DUP2 DUP2 MSTORE PUSH1 0x20 ADD DUP3 DUP1 SLOAD PUSH2 0x11DE SWAP1 PUSH2 0x20D3 JUMP JUMPDEST DUP1 ISZERO PUSH2 0x1229 JUMPI DUP1 PUSH1 0x1F LT PUSH2 0x1200 JUMPI PUSH2 0x100 DUP1 DUP4 SLOAD DIV MUL DUP4 MSTORE SWAP2 PUSH1 0x20 ADD SWAP2 PUSH2 0x1229 JUMP JUMPDEST DUP3 ADD SWAP2 SWAP1 PUSH0 MSTORE PUSH1 0x20 PUSH0 KECCAK256 SWAP1 JUMPDEST DUP2 SLOAD DUP2 MSTORE SWAP1 PUSH1 0x1 ADD SWAP1 PUSH1 0x20 ADD DUP1 DUP4 GT PUSH2 0x120C JUMPI DUP3 SWAP1 SUB PUSH1 0x1F AND DUP3 ADD SWAP2 JUMPDEST POP POP POP POP POP DUP2 MSTORE PUSH1 0x20 ADD PUSH1 0x1 DUP3 ADD SLOAD DUP2 MSTORE PUSH1 0x20 ADD PUSH1 0x2 DUP3 ADD SLOAD DUP2 MSTORE PUSH1 0x20 ADD PUSH1 0x3 DUP3 ADD SLOAD DUP2 MSTORE POP POP DUP2 MSTORE PUSH1 0x20 ADD SWAP1 PUSH1 0x1 ADD SWAP1 PUSH2 0x1182 JUMP JUMPDEST POP POP POP POP SWAP1 POP SWAP1 JUMP JUMPDEST PUSH0 DUP1 PUSH2 0x1273 DUP4 PUSH2 0x15FF JUMP JUMPDEST SWAP1 POP DUP1 PUSH1 0x3 ADD SLOAD SWAP2 POP POP SWAP2 SWAP1 POP JUMP JUMPDEST PUSH2 0x128A PUSH2 0x142A JUMP JUMPDEST PUSH0 DUP1 PUSH2 0x1295 DUP4 PUSH2 0x1773 JUMP JUMPDEST SWAP2 POP SWAP2 POP DUP2 PUSH2 0x12D0 JUMPI PUSH1 0x40 MLOAD PUSH32 0xC270964900000000000000000000000000000000000000000000000000000000 DUP2 MSTORE PUSH1 0x4 ADD PUSH1 0x40 MLOAD DUP1 SWAP2 SUB SWAP1 REVERT JUMPDEST PUSH1 0x4 PUSH1 0x1 PUSH1 0x4 DUP1 SLOAD SWAP1 POP PUSH2 0x12E4 SWAP2 SWAP1 PUSH2 0x24AD JUMP JUMPDEST DUP2 SLOAD DUP2 LT PUSH2 0x12F5 JUMPI PUSH2 0x12F4 PUSH2 0x236F JUMP JUMPDEST JUMPDEST SWAP1 PUSH0 MSTORE PUSH1 0x20 PUSH0 KECCAK256 SWAP1 PUSH1 0x4 MUL ADD PUSH1 0x4 DUP3 DUP2 SLOAD DUP2 LT PUSH2 0x1315 JUMPI PUSH2 0x1314 PUSH2 0x236F JUMP JUMPDEST JUMPDEST SWAP1 PUSH0 MSTORE PUSH1 0x20 PUSH0 KECCAK256 SWAP1 PUSH1 0x4 MUL ADD PUSH0 DUP3 ADD DUP2 PUSH0 ADD SWAP1 DUP2 PUSH2 0x1333 SWAP2 SWAP1 PUSH2 0x255D JUMP JUMPDEST POP PUSH1 0x1 DUP3 ADD SLOAD DUP2 PUSH1 0x1 ADD SSTORE PUSH1 0x2 DUP3 ADD SLOAD DUP2 PUSH1 0x2 ADD SSTORE PUSH1 0x3 DUP3 ADD SLOAD DUP2 PUSH1 0x3 ADD SSTORE SWAP1 POP POP PUSH1 0x4 DUP1 SLOAD DUP1 PUSH2 0x1367 JUMPI PUSH2 0x1366 PUSH2 0x2642 JUMP JUMPDEST JUMPDEST PUSH1 0x1 SWAP1 SUB DUP2 DUP2 SWAP1 PUSH0 MSTORE PUSH1 0x20 PUSH0 KECCAK256 SWAP1 PUSH1 0x4 MUL ADD PUSH0 DUP1 DUP3 ADD PUSH0 PUSH2 0x1388 SWAP2 SWAP1 PUSH2 0x17FE JUMP JUMPDEST PUSH1 0x1 DUP3 ADD PUSH0 SWAP1 SSTORE PUSH1 0x2 DUP3 ADD PUSH0 SWAP1 SSTORE PUSH1 0x3 DUP3 ADD PUSH0 SWAP1 SSTORE POP POP SWAP1 SSTORE POP POP POP JUMP JUMPDEST PUSH2 0x13AE PUSH2 0x142A JUMP JUMPDEST PUSH0 PUSH20 0xFFFFFFFFFFFFFFFFFFFFFFFFFFFFFFFFFFFFFFFF AND DUP2 PUSH20 0xFFFFFFFFFFFFFFFFFFFFFFFFFFFFFFFFFFFFFFFF AND SUB PUSH2 0x141E JUMPI PUSH0 PUSH1 0x40 MLOAD PUSH32 0x1E4FBDF700000000000000000000000000000000000000000000000000000000 DUP2 MSTORE PUSH1 0x4 ADD PUSH2 0x1415 SWAP2 SWAP1 PUSH2 0x1DF9 JUMP JUMPDEST PUSH1 0x40 MLOAD DUP1 SWAP2 SUB SWAP1 REVERT JUMPDEST PUSH2 0x1427 DUP2 PUSH2 0x16B2 JUMP JUMPDEST POP JUMP JUMPDEST PUSH2 0x1432 PUSH2 0x17D5 JUMP JUMPDEST PUSH20 0xFFFFFFFFFFFFFFFFFFFFFFFFFFFFFFFFFFFFFFFF AND PUSH2 0x1450 PUSH2 0xDE3 JUMP JUMPDEST PUSH20 0xFFFFFFFFFFFFFFFFFFFFFFFFFFFFFFFFFFFFFFFF AND EQ PUSH2 0x14AF JUMPI PUSH2 0x1473 PUSH2 0x17D5 JUMP JUMPDEST PUSH1 0x40 MLOAD PUSH32 0x118CDAA700000000000000000000000000000000000000000000000000000000 DUP2 MSTORE PUSH1 0x4 ADD PUSH2 0x14A6 SWAP2 SWAP1 PUSH2 0x1DF9 JUMP JUMPDEST PUSH1 0x40 MLOAD DUP1 SWAP2 SUB SWAP1 REVERT JUMPDEST JUMP JUMPDEST PUSH0 DUP1 PUSH0 SWAP1 POP JUMPDEST PUSH1 0x4 DUP1 SLOAD SWAP1 POP DUP2 LT ISZERO PUSH2 0x1505 JUMPI DUP3 PUSH1 0x4 DUP3 DUP2 SLOAD DUP2 LT PUSH2 0x14D9 JUMPI PUSH2 0x14D8 PUSH2 0x236F JUMP JUMPDEST JUMPDEST SWAP1 PUSH0 MSTORE PUSH1 0x20 PUSH0 KECCAK256 SWAP1 PUSH1 0x4 MUL ADD PUSH1 0x1 ADD SLOAD SUB PUSH2 0x14F8 JUMPI PUSH1 0x1 SWAP2 POP POP PUSH2 0x150A JUMP JUMPDEST DUP1 DUP1 PUSH1 0x1 ADD SWAP2 POP POP PUSH2 0x14B7 JUMP JUMPDEST POP PUSH0 SWAP1 POP JUMPDEST SWAP2 SWAP1 POP JUMP JUMPDEST PUSH0 PUSH2 0x1519 DUP4 PUSH2 0x15FF JUMP JUMPDEST SWAP1 POP DUP2 DUP2 PUSH1 0x2 ADD PUSH0 DUP3 DUP3 SLOAD PUSH2 0x152E SWAP2 SWAP1 PUSH2 0x24AD JUMP JUMPDEST SWAP3 POP POP DUP2 SWAP1 SSTORE POP DUP2 PUSH1 0x1 PUSH0 DUP7 PUSH20 0xFFFFFFFFFFFFFFFFFFFFFFFFFFFFFFFFFFFFFFFF AND PUSH20 0xFFFFFFFFFFFFFFFFFFFFFFFFFFFFFFFFFFFFFFFF AND DUP2 MSTORE PUSH1 0x20 ADD SWAP1 DUP2 MSTORE PUSH1 0x20 ADD PUSH0 KECCAK256 PUSH0 DUP6 DUP2 MSTORE PUSH1 0x20 ADD SWAP1 DUP2 MSTORE PUSH1 0x20 ADD PUSH0 KECCAK256 PUSH0 DUP3 DUP3 SLOAD PUSH2 0x1590 SWAP2 SWAP1 PUSH2 0x24E0 JUMP JUMPDEST SWAP3 POP POP DUP2 SWAP1 SSTORE POP DUP2 PUSH1 0x2 PUSH0 DUP6 DUP2 MSTORE PUSH1 0x20 ADD SWAP1 DUP2 MSTORE PUSH1 0x20 ADD PUSH0 KECCAK256 PUSH0 DUP3 DUP3 SLOAD PUSH2 0x15B7 SWAP2 SWAP1 PUSH2 0x24E0 JUMP JUMPDEST SWAP3 POP POP DUP2 SWAP1 SSTORE POP PUSH32 0x12CB4648CF3058B17CEEB33E579F8B0BC269FE0843F3900B8E24B6C54871703C DUP5 DUP5 DUP5 PUSH1 0x40 MLOAD PUSH2 0x15F1 SWAP4 SWAP3 SWAP2 SWAP1 PUSH2 0x2513 JUMP JUMPDEST PUSH1 0x40 MLOAD DUP1 SWAP2 SUB SWAP1 LOG1 POP POP POP POP JUMP JUMPDEST PUSH0 DUP1 PUSH0 SWAP1 POP JUMPDEST PUSH1 0x4 DUP1 SLOAD SWAP1 POP DUP2 LT ISZERO PUSH2 0x1671 JUMPI DUP3 PUSH1 0x4 DUP3 DUP2 SLOAD DUP2 LT PUSH2 0x1627 JUMPI PUSH2 0x1626 PUSH2 0x236F JUMP JUMPDEST JUMPDEST SWAP1 PUSH0 MSTORE PUSH1 0x20 PUSH0 KECCAK256 SWAP1 PUSH1 0x4 MUL ADD PUSH1 0x1 ADD SLOAD SUB PUSH2 0x1664 JUMPI PUSH1 0x4 DUP2 DUP2 SLOAD DUP2 LT PUSH2 0x1650 JUMPI PUSH2 0x164F PUSH2 0x236F JUMP JUMPDEST JUMPDEST SWAP1 PUSH0 MSTORE PUSH1 0x20 PUSH0 KECCAK256 SWAP1 PUSH1 0x4 MUL ADD SWAP2 POP POP PUSH2 0x16AD JUMP JUMPDEST DUP1 DUP1 PUSH1 0x1 ADD SWAP2 POP POP PUSH2 0x1605 JUMP JUMPDEST POP PUSH1 0x40 MLOAD PUSH32 0x8C379A000000000000000000000000000000000000000000000000000000000 DUP2 MSTORE PUSH1 0x4 ADD PUSH2 0x16A4 SWAP1 PUSH2 0x26C9 JUMP JUMPDEST PUSH1 0x40 MLOAD DUP1 SWAP2 SUB SWAP1 REVERT JUMPDEST SWAP2 SWAP1 POP JUMP JUMPDEST PUSH0 DUP1 PUSH0 SWAP1 SLOAD SWAP1 PUSH2 0x100 EXP SWAP1 DIV PUSH20 0xFFFFFFFFFFFFFFFFFFFFFFFFFFFFFFFFFFFFFFFF AND SWAP1 POP DUP2 PUSH0 DUP1 PUSH2 0x100 EXP DUP2 SLOAD DUP2 PUSH20 0xFFFFFFFFFFFFFFFFFFFFFFFFFFFFFFFFFFFFFFFF MUL NOT AND SWAP1 DUP4 PUSH20 0xFFFFFFFFFFFFFFFFFFFFFFFFFFFFFFFFFFFFFFFF AND MUL OR SWAP1 SSTORE POP DUP2 PUSH20 0xFFFFFFFFFFFFFFFFFFFFFFFFFFFFFFFFFFFFFFFF AND DUP2 PUSH20 0xFFFFFFFFFFFFFFFFFFFFFFFFFFFFFFFFFFFFFFFF AND PUSH32 0x8BE0079C531659141344CD1FD0A4F28419497F9722A3DAAFE3B4186F6B6457E0 PUSH1 0x40 MLOAD PUSH1 0x40 MLOAD DUP1 SWAP2 SUB SWAP1 LOG3 POP POP JUMP JUMPDEST PUSH0 DUP1 PUSH0 JUMPDEST PUSH1 0x4 DUP1 SLOAD SWAP1 POP DUP2 LT ISZERO PUSH2 0x17C8 JUMPI DUP4 PUSH1 0x4 DUP3 DUP2 SLOAD DUP2 LT PUSH2 0x1799 JUMPI PUSH2 0x1798 PUSH2 0x236F JUMP JUMPDEST JUMPDEST SWAP1 PUSH0 MSTORE PUSH1 0x20 PUSH0 KECCAK256 SWAP1 PUSH1 0x4 MUL ADD PUSH1 0x1 ADD SLOAD SUB PUSH2 0x17BB JUMPI PUSH1 0x1 DUP2 SWAP3 POP SWAP3 POP POP PUSH2 0x17D0 JUMP JUMPDEST DUP1 DUP1 PUSH1 0x1 ADD SWAP2 POP POP PUSH2 0x1777 JUMP JUMPDEST POP PUSH0 DUP1 SWAP2 POP SWAP2 POP JUMPDEST SWAP2 POP SWAP2 JUMP JUMPDEST PUSH0 CALLER SWAP1 POP SWAP1 JUMP JUMPDEST PUSH1 0x40 MLOAD DUP1 PUSH1 0x60 ADD PUSH1 0x40 MSTORE DUP1 PUSH1 0x3 SWAP1 PUSH1 0x20 DUP3 MUL DUP1 CALLDATASIZE DUP4 CALLDATACOPY DUP1 DUP3 ADD SWAP2 POP POP SWAP1 POP POP SWAP1 JUMP JUMPDEST POP DUP1 SLOAD PUSH2 0x180A SWAP1 PUSH2 0x20D3 JUMP JUMPDEST PUSH0 DUP3 SSTORE DUP1 PUSH1 0x1F LT PUSH2 0x181B JUMPI POP PUSH2 0x1838 JUMP JUMPDEST PUSH1 0x1F ADD PUSH1 0x20 SWAP1 DIV SWAP1 PUSH0 MSTORE PUSH1 0x20 PUSH0 KECCAK256 SWAP1 DUP2 ADD SWAP1 PUSH2 0x1837 SWAP2 SWAP1 PUSH2 0x183B JUMP JUMPDEST JUMPDEST POP JUMP JUMPDEST JUMPDEST DUP1 DUP3 GT ISZERO PUSH2 0x1852 JUMPI PUSH0 DUP2 PUSH0 SWAP1 SSTORE POP PUSH1 0x1 ADD PUSH2 0x183C JUMP JUMPDEST POP SWAP1 JUMP JUMPDEST PUSH0 PUSH1 0x40 MLOAD SWAP1 POP SWAP1 JUMP JUMPDEST PUSH0 DUP1 REVERT JUMPDEST PUSH0 DUP1 REVERT JUMPDEST PUSH0 DUP1 REVERT JUMPDEST PUSH0 DUP1 REVERT JUMPDEST PUSH0 DUP1 REVERT JUMPDEST PUSH0 DUP1 DUP4 PUSH1 0x1F DUP5 ADD SLT PUSH2 0x1888 JUMPI PUSH2 0x1887 PUSH2 0x1867 JUMP JUMPDEST JUMPDEST DUP3 CALLDATALOAD SWAP1 POP PUSH8 0xFFFFFFFFFFFFFFFF DUP2 GT ISZERO PUSH2 0x18A5 JUMPI PUSH2 0x18A4 PUSH2 0x186B JUMP JUMPDEST JUMPDEST PUSH1 0x20 DUP4 ADD SWAP2 POP DUP4 PUSH1 0x1 DUP3 MUL DUP4 ADD GT ISZERO PUSH2 0x18C1 JUMPI PUSH2 0x18C0 PUSH2 0x186F JUMP JUMPDEST JUMPDEST SWAP3 POP SWAP3 SWAP1 POP JUMP JUMPDEST PUSH0 DUP2 SWAP1 POP SWAP2 SWAP1 POP JUMP JUMPDEST PUSH2 0x18DA DUP2 PUSH2 0x18C8 JUMP JUMPDEST DUP2 EQ PUSH2 0x18E4 JUMPI PUSH0 DUP1 REVERT JUMPDEST POP JUMP JUMPDEST PUSH0 DUP2 CALLDATALOAD SWAP1 POP PUSH2 0x18F5 DUP2 PUSH2 0x18D1 JUMP JUMPDEST SWAP3 SWAP2 POP POP JUMP JUMPDEST PUSH0 DUP1 PUSH0 DUP1 PUSH0 PUSH1 0x80 DUP7 DUP9 SUB SLT ISZERO PUSH2 0x1914 JUMPI PUSH2 0x1913 PUSH2 0x185F JUMP JUMPDEST JUMPDEST PUSH0 DUP7 ADD CALLDATALOAD PUSH8 0xFFFFFFFFFFFFFFFF DUP2 GT ISZERO PUSH2 0x1931 JUMPI PUSH2 0x1930 PUSH2 0x1863 JUMP JUMPDEST JUMPDEST PUSH2 0x193D DUP9 DUP3 DUP10 ADD PUSH2 0x1873 JUMP JUMPDEST SWAP6 POP SWAP6 POP POP PUSH1 0x20 PUSH2 0x1950 DUP9 DUP3 DUP10 ADD PUSH2 0x18E7 JUMP JUMPDEST SWAP4 POP POP PUSH1 0x40 PUSH2 0x1961 DUP9 DUP3 DUP10 ADD PUSH2 0x18E7 JUMP JUMPDEST SWAP3 POP POP PUSH1 0x60 PUSH2 0x1972 DUP9 DUP3 DUP10 ADD PUSH2 0x18E7 JUMP JUMPDEST SWAP2 POP POP SWAP3 SWAP6 POP SWAP3 SWAP6 SWAP1 SWAP4 POP JUMP JUMPDEST PUSH0 DUP1 REVERT JUMPDEST PUSH0 PUSH1 0x1F NOT PUSH1 0x1F DUP4 ADD AND SWAP1 POP SWAP2 SWAP1 POP JUMP JUMPDEST PUSH32 0x4E487B7100000000000000000000000000000000000000000000000000000000 PUSH0 MSTORE PUSH1 0x41 PUSH1 0x4 MSTORE PUSH1 0x24 PUSH0 REVERT JUMPDEST PUSH2 0x19C9 DUP3 PUSH2 0x1983 JUMP JUMPDEST DUP2 ADD DUP2 DUP2 LT PUSH8 0xFFFFFFFFFFFFFFFF DUP3 GT OR ISZERO PUSH2 0x19E8 JUMPI PUSH2 0x19E7 PUSH2 0x1993 JUMP JUMPDEST JUMPDEST DUP1 PUSH1 0x40 MSTORE POP POP POP JUMP JUMPDEST PUSH0 PUSH2 0x19FA PUSH2 0x1856 JUMP JUMPDEST SWAP1 POP PUSH2 0x1A06 DUP3 DUP3 PUSH2 0x19C0 JUMP JUMPDEST SWAP2 SWAP1 POP JUMP JUMPDEST PUSH0 PUSH8 0xFFFFFFFFFFFFFFFF DUP3 GT ISZERO PUSH2 0x1A25 JUMPI PUSH2 0x1A24 PUSH2 0x1993 JUMP JUMPDEST JUMPDEST PUSH2 0x1A2E DUP3 PUSH2 0x1983 JUMP JUMPDEST SWAP1 POP PUSH1 0x20 DUP2 ADD SWAP1 POP SWAP2 SWAP1 POP JUMP JUMPDEST DUP3 DUP2 DUP4 CALLDATACOPY PUSH0 DUP4 DUP4 ADD MSTORE POP POP POP JUMP JUMPDEST PUSH0 PUSH2 0x1A5B PUSH2 0x1A56 DUP5 PUSH2 0x1A0B JUMP JUMPDEST PUSH2 0x19F1 JUMP JUMPDEST SWAP1 POP DUP3 DUP2 MSTORE PUSH1 0x20 DUP2 ADD DUP5 DUP5 DUP5 ADD GT ISZERO PUSH2 0x1A77 JUMPI PUSH2 0x1A76 PUSH2 0x197F JUMP JUMPDEST JUMPDEST PUSH2 0x1A82 DUP5 DUP3 DUP6 PUSH2 0x1A3B JUMP JUMPDEST POP SWAP4 SWAP3 POP POP POP JUMP JUMPDEST PUSH0 DUP3 PUSH1 0x1F DUP4 ADD SLT PUSH2 0x1A9E JUMPI PUSH2 0x1A9D PUSH2 0x1867 JUMP JUMPDEST JUMPDEST DUP2 CALLDATALOAD PUSH2 0x1AAE DUP5 DUP3 PUSH1 0x20 DUP7 ADD PUSH2 0x1A49 JUMP JUMPDEST SWAP2 POP POP SWAP3 SWAP2 POP POP JUMP JUMPDEST PUSH0 PUSH1 0x20 DUP3 DUP5 SUB SLT ISZERO PUSH2 0x1ACC JUMPI PUSH2 0x1ACB PUSH2 0x185F JUMP JUMPDEST JUMPDEST PUSH0 DUP3 ADD CALLDATALOAD PUSH8 0xFFFFFFFFFFFFFFFF DUP2 GT ISZERO PUSH2 0x1AE9 JUMPI PUSH2 0x1AE8 PUSH2 0x1863 JUMP JUMPDEST JUMPDEST PUSH2 0x1AF5 DUP5 DUP3 DUP6 ADD PUSH2 0x1A8A JUMP JUMPDEST SWAP2 POP POP SWAP3 SWAP2 POP POP JUMP JUMPDEST PUSH2 0x1B07 DUP2 PUSH2 0x18C8 JUMP JUMPDEST DUP3 MSTORE POP POP JUMP JUMPDEST PUSH0 PUSH1 0x20 DUP3 ADD SWAP1 POP PUSH2 0x1B20 PUSH0 DUP4 ADD DUP5 PUSH2 0x1AFE JUMP JUMPDEST SWAP3 SWAP2 POP POP JUMP JUMPDEST PUSH0 DUP1 DUP4 PUSH1 0x1F DUP5 ADD SLT PUSH2 0x1B3B JUMPI PUSH2 0x1B3A PUSH2 0x1867 JUMP JUMPDEST JUMPDEST DUP3 CALLDATALOAD SWAP1 POP PUSH8 0xFFFFFFFFFFFFFFFF DUP2 GT ISZERO PUSH2 0x1B58 JUMPI PUSH2 0x1B57 PUSH2 0x186B JUMP JUMPDEST JUMPDEST PUSH1 0x20 DUP4 ADD SWAP2 POP DUP4 PUSH1 0x20 DUP3 MUL DUP4 ADD GT ISZERO PUSH2 0x1B74 JUMPI PUSH2 0x1B73 PUSH2 0x186F JUMP JUMPDEST JUMPDEST SWAP3 POP SWAP3 SWAP1 POP JUMP JUMPDEST PUSH0 DUP1 PUSH0 DUP1 PUSH0 DUP1 PUSH1 0x60 DUP8 DUP10 SUB SLT ISZERO PUSH2 0x1B95 JUMPI PUSH2 0x1B94 PUSH2 0x185F JUMP JUMPDEST JUMPDEST PUSH0 DUP8 ADD CALLDATALOAD PUSH8 0xFFFFFFFFFFFFFFFF DUP2 GT ISZERO PUSH2 0x1BB2 JUMPI PUSH2 0x1BB1 PUSH2 0x1863 JUMP JUMPDEST JUMPDEST PUSH2 0x1BBE DUP10 DUP3 DUP11 ADD PUSH2 0x1B26 JUMP JUMPDEST SWAP7 POP SWAP7 POP POP PUSH1 0x20 DUP8 ADD CALLDATALOAD PUSH8 0xFFFFFFFFFFFFFFFF DUP2 GT ISZERO PUSH2 0x1BE1 JUMPI PUSH2 0x1BE0 PUSH2 0x1863 JUMP JUMPDEST JUMPDEST PUSH2 0x1BED DUP10 DUP3 DUP11 ADD PUSH2 0x1B26 JUMP JUMPDEST SWAP5 POP SWAP5 POP POP PUSH1 0x40 DUP8 ADD CALLDATALOAD PUSH8 0xFFFFFFFFFFFFFFFF DUP2 GT ISZERO PUSH2 0x1C10 JUMPI PUSH2 0x1C0F PUSH2 0x1863 JUMP JUMPDEST JUMPDEST PUSH2 0x1C1C DUP10 DUP3 DUP11 ADD PUSH2 0x1873 JUMP JUMPDEST SWAP3 POP SWAP3 POP POP SWAP3 SWAP6 POP SWAP3 SWAP6 POP SWAP3 SWAP6 JUMP JUMPDEST PUSH0 PUSH1 0x20 DUP3 DUP5 SUB SLT ISZERO PUSH2 0x1C40 JUMPI PUSH2 0x1C3F PUSH2 0x185F JUMP JUMPDEST JUMPDEST PUSH0 PUSH2 0x1C4D DUP5 DUP3 DUP6 ADD PUSH2 0x18E7 JUMP JUMPDEST SWAP2 POP POP SWAP3 SWAP2 POP POP JUMP JUMPDEST PUSH0 PUSH1 0x3 SWAP1 POP SWAP2 SWAP1 POP JUMP JUMPDEST PUSH0 DUP2 SWAP1 POP SWAP3 SWAP2 POP POP JUMP JUMPDEST PUSH0 DUP2 SWAP1 POP SWAP2 SWAP1 POP JUMP JUMPDEST PUSH2 0x1C7C DUP2 PUSH2 0x18C8 JUMP JUMPDEST DUP3 MSTORE POP POP JUMP JUMPDEST PUSH0 PUSH2 0x1C8D DUP4 DUP4 PUSH2 0x1C73 JUMP JUMPDEST PUSH1 0x20 DUP4 ADD SWAP1 POP SWAP3 SWAP2 POP POP JUMP JUMPDEST PUSH0 PUSH1 0x20 DUP3 ADD SWAP1 POP SWAP2 SWAP1 POP JUMP JUMPDEST PUSH2 0x1CAE DUP2 PUSH2 0x1C56 JUMP JUMPDEST PUSH2 0x1CB8 DUP2 DUP5 PUSH2 0x1C60 JUMP JUMPDEST SWAP3 POP PUSH2 0x1CC3 DUP3 PUSH2 0x1C6A JUMP JUMPDEST DUP1 PUSH0 JUMPDEST DUP4 DUP2 LT ISZERO PUSH2 0x1CF3 JUMPI DUP2 MLOAD PUSH2 0x1CDA DUP8 DUP3 PUSH2 0x1C82 JUMP JUMPDEST SWAP7 POP PUSH2 0x1CE5 DUP4 PUSH2 0x1C99 JUMP JUMPDEST SWAP3 POP POP PUSH1 0x1 DUP2 ADD SWAP1 POP PUSH2 0x1CC6 JUMP JUMPDEST POP POP POP POP POP POP JUMP JUMPDEST PUSH0 PUSH1 0x60 DUP3 ADD SWAP1 POP PUSH2 0x1D0E PUSH0 DUP4 ADD DUP5 PUSH2 0x1CA5 JUMP JUMPDEST SWAP3 SWAP2 POP POP JUMP JUMPDEST PUSH0 DUP1 PUSH1 0x40 DUP4 DUP6 SUB SLT ISZERO PUSH2 0x1D2A JUMPI PUSH2 0x1D29 PUSH2 0x185F JUMP JUMPDEST JUMPDEST PUSH0 PUSH2 0x1D37 DUP6 DUP3 DUP7 ADD PUSH2 0x18E7 JUMP JUMPDEST SWAP3 POP POP PUSH1 0x20 PUSH2 0x1D48 DUP6 DUP3 DUP7 ADD PUSH2 0x18E7 JUMP JUMPDEST SWAP2 POP POP SWAP3 POP SWAP3 SWAP1 POP JUMP JUMPDEST PUSH0 PUSH20 0xFFFFFFFFFFFFFFFFFFFFFFFFFFFFFFFFFFFFFFFF DUP3 AND SWAP1 POP SWAP2 SWAP1 POP JUMP JUMPDEST PUSH0 PUSH2 0x1D7B DUP3 PUSH2 0x1D52 JUMP JUMPDEST SWAP1 POP SWAP2 SWAP1 POP JUMP JUMPDEST PUSH2 0x1D8B DUP2 PUSH2 0x1D71 JUMP JUMPDEST DUP2 EQ PUSH2 0x1D95 JUMPI PUSH0 DUP1 REVERT JUMPDEST POP JUMP JUMPDEST PUSH0 DUP2 CALLDATALOAD SWAP1 POP PUSH2 0x1DA6 DUP2 PUSH2 0x1D82 JUMP JUMPDEST SWAP3 SWAP2 POP POP JUMP JUMPDEST PUSH0 DUP1 PUSH1 0x40 DUP4 DUP6 SUB SLT ISZERO PUSH2 0x1DC2 JUMPI PUSH2 0x1DC1 PUSH2 0x185F JUMP JUMPDEST JUMPDEST PUSH0 PUSH2 0x1DCF DUP6 DUP3 DUP7 ADD PUSH2 0x1D98 JUMP JUMPDEST SWAP3 POP POP PUSH1 0x20 PUSH2 0x1DE0 DUP6 DUP3 DUP7 ADD PUSH2 0x18E7 JUMP JUMPDEST SWAP2 POP POP SWAP3 POP SWAP3 SWAP1 POP JUMP JUMPDEST PUSH2 0x1DF3 DUP2 PUSH2 0x1D71 JUMP JUMPDEST DUP3 MSTORE POP POP JUMP JUMPDEST PUSH0 PUSH1 0x20 DUP3 ADD SWAP1 POP PUSH2 0x1E0C PUSH0 DUP4 ADD DUP5 PUSH2 0x1DEA JUMP JUMPDEST SWAP3 SWAP2 POP POP JUMP JUMPDEST PUSH0 DUP1 PUSH0 DUP1 PUSH1 0x60 DUP6 DUP8 SUB SLT ISZERO PUSH2 0x1E2A JUMPI PUSH2 0x1E29 PUSH2 0x185F JUMP JUMPDEST JUMPDEST PUSH0 PUSH2 0x1E37 DUP8 DUP3 DUP9 ADD PUSH2 0x18E7 JUMP JUMPDEST SWAP5 POP POP PUSH1 0x20 PUSH2 0x1E48 DUP8 DUP3 DUP9 ADD PUSH2 0x18E7 JUMP JUMPDEST SWAP4 POP POP PUSH1 0x40 DUP6 ADD CALLDATALOAD PUSH8 0xFFFFFFFFFFFFFFFF DUP2 GT ISZERO PUSH2 0x1E69 JUMPI PUSH2 0x1E68 PUSH2 0x1863 JUMP JUMPDEST JUMPDEST PUSH2 0x1E75 DUP8 DUP3 DUP9 ADD PUSH2 0x1873 JUMP JUMPDEST SWAP3 POP SWAP3 POP POP SWAP3 SWAP6 SWAP2 SWAP5 POP SWAP3 POP JUMP JUMPDEST PUSH0 DUP1 PUSH0 PUSH1 0x40 DUP5 DUP7 SUB SLT ISZERO PUSH2 0x1E9A JUMPI PUSH2 0x1E99 PUSH2 0x185F JUMP JUMPDEST JUMPDEST PUSH0 DUP5 ADD CALLDATALOAD PUSH8 0xFFFFFFFFFFFFFFFF DUP2 GT ISZERO PUSH2 0x1EB7 JUMPI PUSH2 0x1EB6 PUSH2 0x1863 JUMP JUMPDEST JUMPDEST PUSH2 0x1EC3 DUP7 DUP3 DUP8 ADD PUSH2 0x1873 JUMP JUMPDEST SWAP4 POP SWAP4 POP POP PUSH1 0x20 PUSH2 0x1ED6 DUP7 DUP3 DUP8 ADD PUSH2 0x18E7 JUMP JUMPDEST SWAP2 POP POP SWAP3 POP SWAP3 POP SWAP3 JUMP JUMPDEST PUSH0 PUSH1 0x20 DUP3 DUP5 SUB SLT ISZERO PUSH2 0x1EF5 JUMPI PUSH2 0x1EF4 PUSH2 0x185F JUMP JUMPDEST JUMPDEST PUSH0 PUSH2 0x1F02 DUP5 DUP3 DUP6 ADD PUSH2 0x1D98 JUMP JUMPDEST SWAP2 POP POP SWAP3 SWAP2 POP POP JUMP JUMPDEST PUSH0 DUP2 MLOAD SWAP1 POP SWAP2 SWAP1 POP JUMP JUMPDEST PUSH0 DUP3 DUP3 MSTORE PUSH1 0x20 DUP3 ADD SWAP1 POP SWAP3 SWAP2 POP POP JUMP JUMPDEST PUSH0 DUP2 SWAP1 POP PUSH1 0x20 DUP3 ADD SWAP1 POP SWAP2 SWAP1 POP JUMP JUMPDEST PUSH0 DUP2 MLOAD SWAP1 POP SWAP2 SWAP1 POP JUMP JUMPDEST PUSH0 DUP3 DUP3 MSTORE PUSH1 0x20 DUP3 ADD SWAP1 POP SWAP3 SWAP2 POP POP JUMP JUMPDEST DUP3 DUP2 DUP4 MCOPY PUSH0 DUP4 DUP4 ADD MSTORE POP POP POP JUMP JUMPDEST PUSH0 PUSH2 0x1F66 DUP3 PUSH2 0x1F34 JUMP JUMPDEST PUSH2 0x1F70 DUP2 DUP6 PUSH2 0x1F3E JUMP JUMPDEST SWAP4 POP PUSH2 0x1F80 DUP2 DUP6 PUSH1 0x20 DUP7 ADD PUSH2 0x1F4E JUMP JUMPDEST PUSH2 0x1F89 DUP2 PUSH2 0x1983 JUMP JUMPDEST DUP5 ADD SWAP2 POP POP SWAP3 SWAP2 POP POP JUMP JUMPDEST PUSH0 PUSH1 0x80 DUP4 ADD PUSH0 DUP4 ADD MLOAD DUP5 DUP3 SUB PUSH0 DUP7 ADD MSTORE PUSH2 0x1FAE DUP3 DUP3 PUSH2 0x1F5C JUMP JUMPDEST SWAP2 POP POP PUSH1 0x20 DUP4 ADD MLOAD PUSH2 0x1FC3 PUSH1 0x20 DUP7 ADD DUP3 PUSH2 0x1C73 JUMP JUMPDEST POP PUSH1 0x40 DUP4 ADD MLOAD PUSH2 0x1FD6 PUSH1 0x40 DUP7 ADD DUP3 PUSH2 0x1C73 JUMP JUMPDEST POP PUSH1 0x60 DUP4 ADD MLOAD PUSH2 0x1FE9 PUSH1 0x60 DUP7 ADD DUP3 PUSH2 0x1C73 JUMP JUMPDEST POP DUP1 SWAP2 POP POP SWAP3 SWAP2 POP POP JUMP JUMPDEST PUSH0 PUSH2 0x1FFF DUP4 DUP4 PUSH2 0x1F94 JUMP JUMPDEST SWAP1 POP SWAP3 SWAP2 POP POP JUMP JUMPDEST PUSH0 PUSH1 0x20 DUP3 ADD SWAP1 POP SWAP2 SWAP1 POP JUMP JUMPDEST PUSH0 PUSH2 0x201D DUP3 PUSH2 0x1F0B JUMP JUMPDEST PUSH2 0x2027 DUP2 DUP6 PUSH2 0x1F15 JUMP JUMPDEST SWAP4 POP DUP4 PUSH1 0x20 DUP3 MUL DUP6 ADD PUSH2 0x2039 DUP6 PUSH2 0x1F25 JUMP JUMPDEST DUP1 PUSH0 JUMPDEST DUP6 DUP2 LT ISZERO PUSH2 0x2074 JUMPI DUP5 DUP5 SUB DUP10 MSTORE DUP2 MLOAD PUSH2 0x2055 DUP6 DUP3 PUSH2 0x1FF4 JUMP JUMPDEST SWAP5 POP PUSH2 0x2060 DUP4 PUSH2 0x2007 JUMP JUMPDEST SWAP3 POP PUSH1 0x20 DUP11 ADD SWAP10 POP POP PUSH1 0x1 DUP2 ADD SWAP1 POP PUSH2 0x203C JUMP JUMPDEST POP DUP3 SWAP8 POP DUP8 SWAP6 POP POP POP POP POP POP SWAP3 SWAP2 POP POP JUMP JUMPDEST PUSH0 PUSH1 0x20 DUP3 ADD SWAP1 POP DUP2 DUP2 SUB PUSH0 DUP4 ADD MSTORE PUSH2 0x209E DUP2 DUP5 PUSH2 0x2013 JUMP JUMPDEST SWAP1 POP SWAP3 SWAP2 POP POP JUMP JUMPDEST PUSH32 0x4E487B7100000000000000000000000000000000000000000000000000000000 PUSH0 MSTORE PUSH1 0x22 PUSH1 0x4 MSTORE PUSH1 0x24 PUSH0 REVERT JUMPDEST PUSH0 PUSH1 0x2 DUP3 DIV SWAP1 POP PUSH1 0x1 DUP3 AND DUP1 PUSH2 0x20EA JUMPI PUSH1 0x7F DUP3 AND SWAP2 POP JUMPDEST PUSH1 0x20 DUP3 LT DUP2 SUB PUSH2 0x20FD JUMPI PUSH2 0x20FC PUSH2 0x20A6 JUMP JUMPDEST JUMPDEST POP SWAP2 SWAP1 POP JUMP JUMPDEST PUSH0 DUP2 SWAP1 POP DUP2 PUSH0 MSTORE PUSH1 0x20 PUSH0 KECCAK256 SWAP1 POP SWAP2 SWAP1 POP JUMP JUMPDEST PUSH0 PUSH1 0x20 PUSH1 0x1F DUP4 ADD DIV SWAP1 POP SWAP2 SWAP1 POP JUMP JUMPDEST PUSH0 DUP3 DUP3 SHL SWAP1 POP SWAP3 SWAP2 POP POP JUMP JUMPDEST PUSH0 PUSH1 0x8 DUP4 MUL PUSH2 0x215F PUSH32 0xFFFFFFFFFFFFFFFFFFFFFFFFFFFFFFFFFFFFFFFFFFFFFFFFFFFFFFFFFFFFFFFF DUP3 PUSH2 0x2124 JUMP JUMPDEST PUSH2 0x2169 DUP7 DUP4 PUSH2 0x2124 JUMP JUMPDEST SWAP6 POP DUP1 NOT DUP5 AND SWAP4 POP DUP1 DUP7 AND DUP5 OR SWAP3 POP POP POP SWAP4 SWAP3 POP POP POP JUMP JUMPDEST PUSH0 DUP2 SWAP1 POP SWAP2 SWAP1 POP JUMP JUMPDEST PUSH0 PUSH2 0x21A4 PUSH2 0x219F PUSH2 0x219A DUP5 PUSH2 0x18C8 JUMP JUMPDEST PUSH2 0x2181 JUMP JUMPDEST PUSH2 0x18C8 JUMP JUMPDEST SWAP1 POP SWAP2 SWAP1 POP JUMP JUMPDEST PUSH0 DUP2 SWAP1 POP SWAP2 SWAP1 POP JUMP JUMPDEST PUSH2 0x21BD DUP4 PUSH2 0x218A JUMP JUMPDEST PUSH2 0x21D1 PUSH2 0x21C9 DUP3 PUSH2 0x21AB JUMP JUMPDEST DUP5 DUP5 SLOAD PUSH2 0x2130 JUMP JUMPDEST DUP3 SSTORE POP POP POP POP JUMP JUMPDEST PUSH0 SWAP1 JUMP JUMPDEST PUSH2 0x21E5 PUSH2 0x21D9 JUMP JUMPDEST PUSH2 0x21F0 DUP2 DUP5 DUP5 PUSH2 0x21B4 JUMP JUMPDEST POP POP POP JUMP JUMPDEST JUMPDEST DUP2 DUP2 LT ISZERO PUSH2 0x2213 JUMPI PUSH2 0x2208 PUSH0 DUP3 PUSH2 0x21DD JUMP JUMPDEST PUSH1 0x1 DUP2 ADD SWAP1 POP PUSH2 0x21F6 JUMP JUMPDEST POP POP JUMP JUMPDEST PUSH1 0x1F DUP3 GT ISZERO PUSH2 0x2258 JUMPI PUSH2 0x2229 DUP2 PUSH2 0x2103 JUMP JUMPDEST PUSH2 0x2232 DUP5 PUSH2 0x2115 JUMP JUMPDEST DUP2 ADD PUSH1 0x20 DUP6 LT ISZERO PUSH2 0x2241 JUMPI DUP2 SWAP1 POP JUMPDEST PUSH2 0x2255 PUSH2 0x224D DUP6 PUSH2 0x2115 JUMP JUMPDEST DUP4 ADD DUP3 PUSH2 0x21F5 JUMP JUMPDEST POP POP JUMPDEST POP POP POP JUMP JUMPDEST PUSH0 DUP3 DUP3 SHR SWAP1 POP SWAP3 SWAP2 POP POP JUMP JUMPDEST PUSH0 PUSH2 0x2278 PUSH0 NOT DUP5 PUSH1 0x8 MUL PUSH2 0x225D JUMP JUMPDEST NOT DUP1 DUP4 AND SWAP2 POP POP SWAP3 SWAP2 POP POP JUMP JUMPDEST PUSH0 PUSH2 0x2290 DUP4 DUP4 PUSH2 0x2269 JUMP JUMPDEST SWAP2 POP DUP3 PUSH1 0x2 MUL DUP3 OR SWAP1 POP SWAP3 SWAP2 POP POP JUMP JUMPDEST PUSH2 0x22A9 DUP3 PUSH2 0x1F34 JUMP JUMPDEST PUSH8 0xFFFFFFFFFFFFFFFF DUP2 GT ISZERO PUSH2 0x22C2 JUMPI PUSH2 0x22C1 PUSH2 0x1993 JUMP JUMPDEST JUMPDEST PUSH2 0x22CC DUP3 SLOAD PUSH2 0x20D3 JUMP JUMPDEST PUSH2 0x22D7 DUP3 DUP3 DUP6 PUSH2 0x2217 JUMP JUMPDEST PUSH0 PUSH1 0x20 SWAP1 POP PUSH1 0x1F DUP4 GT PUSH1 0x1 DUP2 EQ PUSH2 0x2308 JUMPI PUSH0 DUP5 ISZERO PUSH2 0x22F6 JUMPI DUP3 DUP8 ADD MLOAD SWAP1 POP JUMPDEST PUSH2 0x2300 DUP6 DUP3 PUSH2 0x2285 JUMP JUMPDEST DUP7 SSTORE POP PUSH2 0x2367 JUMP JUMPDEST PUSH1 0x1F NOT DUP5 AND PUSH2 0x2316 DUP7 PUSH2 0x2103 JUMP JUMPDEST PUSH0 JUMPDEST DUP3 DUP2 LT ISZERO PUSH2 0x233D JUMPI DUP5 DUP10 ADD MLOAD DUP3 SSTORE PUSH1 0x1 DUP3 ADD SWAP2 POP PUSH1 0x20 DUP6 ADD SWAP5 POP PUSH1 0x20 DUP2 ADD SWAP1 POP PUSH2 0x2318 JUMP JUMPDEST DUP7 DUP4 LT ISZERO PUSH2 0x235A JUMPI DUP5 DUP10 ADD MLOAD PUSH2 0x2356 PUSH1 0x1F DUP10 AND DUP3 PUSH2 0x2269 JUMP JUMPDEST DUP4 SSTORE POP JUMPDEST PUSH1 0x1 PUSH1 0x2 DUP9 MUL ADD DUP9 SSTORE POP POP POP JUMPDEST POP POP POP POP POP POP JUMP JUMPDEST PUSH32 0x4E487B7100000000000000000000000000000000000000000000000000000000 PUSH0 MSTORE PUSH1 0x32 PUSH1 0x4 MSTORE PUSH1 0x24 PUSH0 REVERT JUMPDEST PUSH0 DUP2 SWAP1 POP SWAP3 SWAP2 POP POP JUMP JUMPDEST PUSH0 PUSH2 0x23B1 DUP4 DUP6 PUSH2 0x239C JUMP JUMPDEST SWAP4 POP PUSH2 0x23BE DUP4 DUP6 DUP5 PUSH2 0x1A3B JUMP JUMPDEST DUP3 DUP5 ADD SWAP1 POP SWAP4 SWAP3 POP POP POP JUMP JUMPDEST PUSH0 PUSH2 0x23D6 DUP3 DUP5 DUP7 PUSH2 0x23A6 JUMP JUMPDEST SWAP2 POP DUP2 SWAP1 POP SWAP4 SWAP3 POP POP POP JUMP JUMPDEST PUSH32 0x4E487B7100000000000000000000000000000000000000000000000000000000 PUSH0 MSTORE PUSH1 0x11 PUSH1 0x4 MSTORE PUSH1 0x24 PUSH0 REVERT JUMPDEST PUSH0 PUSH2 0x2419 DUP3 PUSH2 0x18C8 JUMP JUMPDEST SWAP2 POP PUSH2 0x2424 DUP4 PUSH2 0x18C8 JUMP JUMPDEST SWAP3 POP DUP3 DUP3 MUL PUSH2 0x2432 DUP2 PUSH2 0x18C8 JUMP JUMPDEST SWAP2 POP DUP3 DUP3 DIV DUP5 EQ DUP4 ISZERO OR PUSH2 0x2449 JUMPI PUSH2 0x2448 PUSH2 0x23E2 JUMP JUMPDEST JUMPDEST POP SWAP3 SWAP2 POP POP JUMP JUMPDEST PUSH32 0x4E487B7100000000000000000000000000000000000000000000000000000000 PUSH0 MSTORE PUSH1 0x12 PUSH1 0x4 MSTORE PUSH1 0x24 PUSH0 REVERT JUMPDEST PUSH0 PUSH2 0x2487 DUP3 PUSH2 0x18C8 JUMP JUMPDEST SWAP2 POP PUSH2 0x2492 DUP4 PUSH2 0x18C8 JUMP JUMPDEST SWAP3 POP DUP3 PUSH2 0x24A2 JUMPI PUSH2 0x24A1 PUSH2 0x2450 JUMP JUMPDEST JUMPDEST DUP3 DUP3 DIV SWAP1 POP SWAP3 SWAP2 POP POP JUMP JUMPDEST PUSH0 PUSH2 0x24B7 DUP3 PUSH2 0x18C8 JUMP JUMPDEST SWAP2 POP PUSH2 0x24C2 DUP4 PUSH2 0x18C8 JUMP JUMPDEST SWAP3 POP DUP3 DUP3 SUB SWAP1 POP DUP2 DUP2 GT ISZERO PUSH2 0x24DA JUMPI PUSH2 0x24D9 PUSH2 0x23E2 JUMP JUMPDEST JUMPDEST SWAP3 SWAP2 POP POP JUMP JUMPDEST PUSH0 PUSH2 0x24EA DUP3 PUSH2 0x18C8 JUMP JUMPDEST SWAP2 POP PUSH2 0x24F5 DUP4 PUSH2 0x18C8 JUMP JUMPDEST SWAP3 POP DUP3 DUP3 ADD SWAP1 POP DUP1 DUP3 GT ISZERO PUSH2 0x250D JUMPI PUSH2 0x250C PUSH2 0x23E2 JUMP JUMPDEST JUMPDEST SWAP3 SWAP2 POP POP JUMP JUMPDEST PUSH0 PUSH1 0x60 DUP3 ADD SWAP1 POP PUSH2 0x2526 PUSH0 DUP4 ADD DUP7 PUSH2 0x1DEA JUMP JUMPDEST PUSH2 0x2533 PUSH1 0x20 DUP4 ADD DUP6 PUSH2 0x1AFE JUMP JUMPDEST PUSH2 0x2540 PUSH1 0x40 DUP4 ADD DUP5 PUSH2 0x1AFE JUMP JUMPDEST SWAP5 SWAP4 POP POP POP POP JUMP JUMPDEST PUSH0 DUP2 SLOAD SWAP1 POP PUSH2 0x2556 DUP2 PUSH2 0x20D3 JUMP JUMPDEST SWAP1 POP SWAP2 SWAP1 POP JUMP JUMPDEST DUP2 DUP2 SUB PUSH2 0x256B JUMPI POP POP PUSH2 0x2640 JUMP JUMPDEST PUSH2 0x2574 DUP3 PUSH2 0x2548 JUMP JUMPDEST PUSH8 0xFFFFFFFFFFFFFFFF DUP2 GT ISZERO PUSH2 0x258D JUMPI PUSH2 0x258C PUSH2 0x1993 JUMP JUMPDEST JUMPDEST PUSH2 0x2597 DUP3 SLOAD PUSH2 0x20D3 JUMP JUMPDEST PUSH2 0x25A2 DUP3 DUP3 DUP6 PUSH2 0x2217 JUMP JUMPDEST PUSH0 PUSH1 0x1F DUP4 GT PUSH1 0x1 DUP2 EQ PUSH2 0x25CF JUMPI PUSH0 DUP5 ISZERO PUSH2 0x25BD JUMPI DUP3 DUP8 ADD SLOAD SWAP1 POP JUMPDEST PUSH2 0x25C7 DUP6 DUP3 PUSH2 0x2285 JUMP JUMPDEST DUP7 SSTORE POP PUSH2 0x2639 JUMP JUMPDEST PUSH1 0x1F NOT DUP5 AND PUSH2 0x25DD DUP8 PUSH2 0x2103 JUMP JUMPDEST SWAP7 POP PUSH2 0x25E8 DUP7 PUSH2 0x2103 JUMP JUMPDEST PUSH0 JUMPDEST DUP3 DUP2 LT ISZERO PUSH2 0x260F JUMPI DUP5 DUP10 ADD SLOAD DUP3 SSTORE PUSH1 0x1 DUP3 ADD SWAP2 POP PUSH1 0x1 DUP6 ADD SWAP5 POP PUSH1 0x20 DUP2 ADD SWAP1 POP PUSH2 0x25EA JUMP JUMPDEST DUP7 DUP4 LT ISZERO PUSH2 0x262C JUMPI DUP5 DUP10 ADD SLOAD PUSH2 0x2628 PUSH1 0x1F DUP10 AND DUP3 PUSH2 0x2269 JUMP JUMPDEST DUP4 SSTORE POP JUMPDEST PUSH1 0x1 PUSH1 0x2 DUP9 MUL ADD DUP9 SSTORE POP POP POP JUMPDEST POP POP POP POP POP POP JUMPDEST JUMP JUMPDEST PUSH32 0x4E487B7100000000000000000000000000000000000000000000000000000000 PUSH0 MSTORE PUSH1 0x31 PUSH1 0x4 MSTORE PUSH1 0x24 PUSH0 REVERT JUMPDEST PUSH0 DUP3 DUP3 MSTORE PUSH1 0x20 DUP3 ADD SWAP1 POP SWAP3 SWAP2 POP POP JUMP JUMPDEST PUSH32 0x50726F64756374206E6F7420666F756E64000000000000000000000000000000 PUSH0 DUP3 ADD MSTORE POP JUMP JUMPDEST PUSH0 PUSH2 0x26B3 PUSH1 0x11 DUP4 PUSH2 0x266F JUMP JUMPDEST SWAP2 POP PUSH2 0x26BE DUP3 PUSH2 0x267F JUMP JUMPDEST PUSH1 0x20 DUP3 ADD SWAP1 POP SWAP2 SWAP1 POP JUMP JUMPDEST PUSH0 PUSH1 0x20 DUP3 ADD SWAP1 POP DUP2 DUP2 SUB PUSH0 DUP4 ADD MSTORE PUSH2 0x26E0 DUP2 PUSH2 0x26A7 JUMP JUMPDEST SWAP1 POP SWAP2 SWAP1 POP JUMP INVALID LOG2 PUSH5 0x6970667358 0x22 SLT KECCAK256 SWAP6 MLOAD 0xB2 SWAP16 0x24 SWAP8 SDIV 0xB8 0xA6 PUSH24 0xF0D0748615EF8C6452B3F6E1FBFB8BB9F12D6B6E31AF6473 PUSH16 0x6C634300081A00330000000000000000 "
				},
				"gasEstimates": {
					"creation": {
						"codeDepositCost": "2002600",
						"executionCost": "infinite",
						"totalCost": "infinite"
					},
					"external": {
						"addDiscountCode(string,uint256)": "infinite",
						"addProduct(string,uint256,uint256,uint256)": "infinite",
						"batchBuy(uint256[],uint256[],string)": "infinite",
						"buy(uint256,uint256,string)": "infinite",
						"deleteProduct(uint256)": "infinite",
						"discountCodes(string)": "infinite",
						"getPrice(uint256)": "infinite",
						"getProducts()": "infinite",
						"getStock(uint256)": "infinite",
						"getTopSelling()": "infinite",
						"getTotalRevenue()": "infinite",
						"getUserPurchase(address)": "infinite",
						"owner()": "2560",
						"productPurchase(uint256)": "infinite",
						"refund(uint256,uint256)": "infinite",
						"renounceOwnership()": "infinite",
						"transferOwnership(address)": "infinite",
						"updatePrice(uint256,uint256)": "infinite",
						"updateStock(uint256,uint256)": "infinite",
						"userPurchase(address,uint256)": "infinite",
						"withdraw()": "infinite"
					},
					"internal": {
						"_buyProcess(address,uint256,uint256)": "infinite",
						"_findIndexById(uint256)": "infinite",
						"_findProduct(uint256)": "infinite",
						"_isIdExist(uint256)": "infinite"
					}
				},
				"methodIdentifiers": {
					"addDiscountCode(string,uint256)": "994983ad",
					"addProduct(string,uint256,uint256,uint256)": "094455c4",
					"batchBuy(uint256[],uint256[],string)": "1a5bf973",
					"buy(uint256,uint256,string)": "99331fdf",
					"deleteProduct(uint256)": "ed90c7b7",
					"discountCodes(string)": "1a3764d2",
					"getPrice(uint256)": "e7572230",
					"getProducts()": "c29b2f20",
					"getStock(uint256)": "3ab7d09a",
					"getTopSelling()": "41b980a6",
					"getTotalRevenue()": "957fae96",
					"getUserPurchase(address)": "bda235da",
					"owner()": "8da5cb5b",
					"productPurchase(uint256)": "3df50e82",
					"refund(uint256,uint256)": "5af36e3e",
					"renounceOwnership()": "715018a6",
					"transferOwnership(address)": "f2fde38b",
					"updatePrice(uint256,uint256)": "82367b2d",
					"updateStock(uint256,uint256)": "9dfc3dd1",
					"userPurchase(address,uint256)": "6038d0cf",
					"withdraw()": "3ccfd60b"
				}
			},
			"storageLayout": {
				"storage": [
					{
						"astId": 8,
						"contract": "youtube-course/store.sol:Store",
						"label": "_owner",
						"offset": 0,
						"slot": "0",
						"type": "t_address"
					},
					{
						"astId": 190,
						"contract": "youtube-course/store.sol:Store",
						"label": "userPurchase",
						"offset": 0,
						"slot": "1",
						"type": "t_mapping(t_address,t_mapping(t_uint256,t_uint256))"
					},
					{
						"astId": 195,
						"contract": "youtube-course/store.sol:Store",
						"label": "productPurchase",
						"offset": 0,
						"slot": "2",
						"type": "t_mapping(t_uint256,t_uint256)"
					},
					{
						"astId": 200,
						"contract": "youtube-course/store.sol:Store",
						"label": "discountCodes",
						"offset": 0,
						"slot": "3",
						"type": "t_mapping(t_string_memory_ptr,t_uint256)"
					},
					{
						"astId": 213,
						"contract": "youtube-course/store.sol:Store",
						"label": "products",
						"offset": 0,
						"slot": "4",
						"type": "t_array(t_struct(Product)209_storage)dyn_storage"
					}
				],
				"types": {
					"t_address": {
						"encoding": "inplace",
						"label": "address",
						"numberOfBytes": "20"
					},
					"t_array(t_struct(Product)209_storage)dyn_storage": {
						"base": "t_struct(Product)209_storage",
						"encoding": "dynamic_array",
						"label": "struct Store.Product[]",
						"numberOfBytes": "32"
					},
					"t_mapping(t_address,t_mapping(t_uint256,t_uint256))": {
						"encoding": "mapping",
						"key": "t_address",
						"label": "mapping(address => mapping(uint256 => uint256))",
						"numberOfBytes": "32",
						"value": "t_mapping(t_uint256,t_uint256)"
					},
					"t_mapping(t_string_memory_ptr,t_uint256)": {
						"encoding": "mapping",
						"key": "t_string_memory_ptr",
						"label": "mapping(string => uint256)",
						"numberOfBytes": "32",
						"value": "t_uint256"
					},
					"t_mapping(t_uint256,t_uint256)": {
						"encoding": "mapping",
						"key": "t_uint256",
						"label": "mapping(uint256 => uint256)",
						"numberOfBytes": "32",
						"value": "t_uint256"
					},
					"t_string_memory_ptr": {
						"encoding": "bytes",
						"label": "string",
						"numberOfBytes": "32"
					},
					"t_string_storage": {
						"encoding": "bytes",
						"label": "string",
						"numberOfBytes": "32"
					},
					"t_struct(Product)209_storage": {
						"encoding": "inplace",
						"label": "struct Store.Product",
						"members": [
							{
								"astId": 202,
								"contract": "youtube-course/store.sol:Store",
								"label": "name",
								"offset": 0,
								"slot": "0",
								"type": "t_string_storage"
							},
							{
								"astId": 204,
								"contract": "youtube-course/store.sol:Store",
								"label": "id",
								"offset": 0,
								"slot": "1",
								"type": "t_uint256"
							},
							{
								"astId": 206,
								"contract": "youtube-course/store.sol:Store",
								"label": "stock",
								"offset": 0,
								"slot": "2",
								"type": "t_uint256"
							},
							{
								"astId": 208,
								"contract": "youtube-course/store.sol:Store",
								"label": "price",
								"offset": 0,
								"slot": "3",
								"type": "t_uint256"
							}
						],
						"numberOfBytes": "128"
					},
					"t_uint256": {
						"encoding": "inplace",
						"label": "uint256",
						"numberOfBytes": "32"
					}
				}
			},
			"userdoc": {
				"kind": "user",
				"methods": {
					"discountCodes(string)": {
						"notice": "discount code => discount in percents (1-100)"
					},
					"productPurchase(uint256)": {
						"notice": "product id => quantity"
					},
					"userPurchase(address,uint256)": {
						"notice": "buyer => product id => quantity"
					}
				},
				"version": 1
			}
		}
	}
}