{
	"store.sol": {
		"Store": {
			"abi": [
				{
					"inputs": [
						{
							"internalType": "address",
							"name": "initialOwner",
							"type": "address"
						}
					],
					"stateMutability": "nonpayable",
					"type": "constructor"
				},
				{
					"inputs": [],
					"name": "IdAlreadyExist",
					"type": "error"
				},
				{
					"inputs": [],
					"name": "IdDoesNotExist",
					"type": "error"
				},
				{
					"inputs": [],
					"name": "NoMoney",
					"type": "error"
				},
				{
					"inputs": [],
					"name": "NotEnoughFunds",
					"type": "error"
				},
				{
					"inputs": [],
					"name": "OutOfStock",
					"type": "error"
				},
				{
					"inputs": [
						{
							"internalType": "address",
							"name": "owner",
							"type": "address"
						}
					],
					"name": "OwnableInvalidOwner",
					"type": "error"
				},
				{
					"inputs": [
						{
							"internalType": "address",
							"name": "account",
							"type": "address"
						}
					],
					"name": "OwnableUnauthorizedAccount",
					"type": "error"
				},
				{
					"inputs": [],
					"name": "WrongBatchStructure",
					"type": "error"
				},
				{
					"inputs": [],
					"name": "ZeroQuantity",
					"type": "error"
				},
				{
					"anonymous": false,
					"inputs": [
						{
							"indexed": true,
							"internalType": "address",
							"name": "previousOwner",
							"type": "address"
						},
						{
							"indexed": true,
							"internalType": "address",
							"name": "newOwner",
							"type": "address"
						}
					],
					"name": "OwnershipTransferred",
					"type": "event"
				},
				{
					"anonymous": false,
					"inputs": [
						{
							"indexed": false,
							"internalType": "address",
							"name": "_buyer",
							"type": "address"
						},
						{
							"indexed": false,
							"internalType": "uint256",
							"name": "_id",
							"type": "uint256"
						},
						{
							"indexed": false,
							"internalType": "uint256",
							"name": "_quantity",
							"type": "uint256"
						}
					],
					"name": "Purchase",
					"type": "event"
				},
				{
					"inputs": [
						{
							"internalType": "string",
							"name": "_name",
							"type": "string"
						},
						{
							"internalType": "uint256",
							"name": "_id",
							"type": "uint256"
						},
						{
							"internalType": "uint256",
							"name": "_stock",
							"type": "uint256"
						},
						{
							"internalType": "uint256",
							"name": "_price",
							"type": "uint256"
						}
					],
					"name": "addProduct",
					"outputs": [],
					"stateMutability": "nonpayable",
					"type": "function"
				},
				{
					"inputs": [
						{
							"internalType": "uint256[]",
							"name": "_ids",
							"type": "uint256[]"
						},
						{
							"internalType": "uint256[]",
							"name": "_quantities",
							"type": "uint256[]"
						}
					],
					"name": "batchBuy",
					"outputs": [],
					"stateMutability": "payable",
					"type": "function"
				},
				{
					"inputs": [
						{
							"internalType": "uint256",
							"name": "_id",
							"type": "uint256"
						},
						{
							"internalType": "uint256",
							"name": "_quantity",
							"type": "uint256"
						}
					],
					"name": "buy",
					"outputs": [],
					"stateMutability": "payable",
					"type": "function"
				},
				{
					"inputs": [
						{
							"internalType": "uint256",
							"name": "_id",
							"type": "uint256"
						}
					],
					"name": "deleteProduct",
					"outputs": [],
					"stateMutability": "nonpayable",
					"type": "function"
				},
				{
					"inputs": [
						{
							"internalType": "uint256",
							"name": "_id",
							"type": "uint256"
						}
					],
					"name": "getPrice",
					"outputs": [
						{
							"internalType": "uint256",
							"name": "",
							"type": "uint256"
						}
					],
					"stateMutability": "view",
					"type": "function"
				},
				{
					"inputs": [],
					"name": "getProducts",
					"outputs": [
						{
							"components": [
								{
									"internalType": "string",
									"name": "name",
									"type": "string"
								},
								{
									"internalType": "uint256",
									"name": "id",
									"type": "uint256"
								},
								{
									"internalType": "uint256",
									"name": "stock",
									"type": "uint256"
								},
								{
									"internalType": "uint256",
									"name": "price",
									"type": "uint256"
								}
							],
							"internalType": "struct Store.Product[]",
							"name": "",
							"type": "tuple[]"
						}
					],
					"stateMutability": "view",
					"type": "function"
				},
				{
					"inputs": [
						{
							"internalType": "uint256",
							"name": "_id",
							"type": "uint256"
						}
					],
					"name": "getStock",
					"outputs": [
						{
							"internalType": "uint256",
							"name": "",
							"type": "uint256"
						}
					],
					"stateMutability": "view",
					"type": "function"
				},
				{
					"inputs": [],
					"name": "owner",
					"outputs": [
						{
							"internalType": "address",
							"name": "",
							"type": "address"
						}
					],
					"stateMutability": "view",
					"type": "function"
				},
				{
					"inputs": [
						{
							"internalType": "uint256",
							"name": "",
							"type": "uint256"
						}
					],
					"name": "productPurchase",
					"outputs": [
						{
							"internalType": "uint256",
							"name": "",
							"type": "uint256"
						}
					],
					"stateMutability": "view",
					"type": "function"
				},
				{
					"inputs": [],
					"name": "renounceOwnership",
					"outputs": [],
					"stateMutability": "nonpayable",
					"type": "function"
				},
				{
					"inputs": [
						{
							"internalType": "address",
							"name": "newOwner",
							"type": "address"
						}
					],
					"name": "transferOwnership",
					"outputs": [],
					"stateMutability": "nonpayable",
					"type": "function"
				},
				{
					"inputs": [
						{
							"internalType": "uint256",
							"name": "_id",
							"type": "uint256"
						},
						{
							"internalType": "uint256",
							"name": "_price",
							"type": "uint256"
						}
					],
					"name": "updatePrice",
					"outputs": [],
					"stateMutability": "nonpayable",
					"type": "function"
				},
				{
					"inputs": [
						{
							"internalType": "uint256",
							"name": "_id",
							"type": "uint256"
						},
						{
							"internalType": "uint256",
							"name": "_stock",
							"type": "uint256"
						}
					],
					"name": "updateStock",
					"outputs": [],
					"stateMutability": "nonpayable",
					"type": "function"
				},
				{
					"inputs": [
						{
							"internalType": "address",
							"name": "",
							"type": "address"
						},
						{
							"internalType": "uint256",
							"name": "",
							"type": "uint256"
						}
					],
					"name": "userPurchase",
					"outputs": [
						{
							"internalType": "uint256",
							"name": "",
							"type": "uint256"
						}
					],
					"stateMutability": "view",
					"type": "function"
				},
				{
					"inputs": [],
					"name": "withdraw",
					"outputs": [],
					"stateMutability": "nonpayable",
					"type": "function"
				}
			],
			"devdoc": {
				"errors": {
					"OwnableInvalidOwner(address)": [
						{
							"details": "The owner is not a valid owner account. (eg. `address(0)`)"
						}
					],
					"OwnableUnauthorizedAccount(address)": [
						{
							"details": "The caller account is not authorized to perform an operation."
						}
					]
				},
				"kind": "dev",
				"methods": {
					"owner()": {
						"details": "Returns the address of the current owner."
					},
					"renounceOwnership()": {
						"details": "Leaves the contract without owner. It will not be possible to call `onlyOwner` functions. Can only be called by the current owner. NOTE: Renouncing ownership will leave the contract without an owner, thereby disabling any functionality that is only available to the owner."
					},
					"transferOwnership(address)": {
						"details": "Transfers ownership of the contract to a new account (`newOwner`). Can only be called by the current owner."
					}
				},
				"version": 1
			},
			"evm": {
				"assembly": "    /* \"store.sol\":127:4622  contract Store is Ownable {... */\n  mstore(0x40, 0x80)\n    /* \"store.sol\":783:846  constructor(address initialOwner) Ownable(initialOwner) {... */\n  callvalue\n  dup1\n  iszero\n  tag_1\n  jumpi\n  0x00\n  dup1\n  revert\ntag_1:\n  pop\n  mload(0x40)\n  sub(codesize, bytecodeSize)\n  dup1\n  bytecodeSize\n  dup4\n  codecopy\n  dup2\n  dup2\n  add\n  0x40\n  mstore\n  dup2\n  add\n  swap1\n  tag_2\n  swap2\n  swap1\n  tag_3\n  jump\t// in\ntag_2:\n    /* \"store.sol\":825:837  initialOwner */\n  dup1\n    /* \"@openzeppelin/contracts/access/Ownable.sol\":1297:1298  0 */\n  0x00\n    /* \"@openzeppelin/contracts/access/Ownable.sol\":1273:1299  initialOwner == address(0) */\n  0xffffffffffffffffffffffffffffffffffffffff\n  and\n    /* \"@openzeppelin/contracts/access/Ownable.sol\":1273:1285  initialOwner */\n  dup2\n    /* \"@openzeppelin/contracts/access/Ownable.sol\":1273:1299  initialOwner == address(0) */\n  0xffffffffffffffffffffffffffffffffffffffff\n  and\n  sub\n    /* \"@openzeppelin/contracts/access/Ownable.sol\":1269:1364  if (initialOwner == address(0)) {... */\n  tag_7\n  jumpi\n    /* \"@openzeppelin/contracts/access/Ownable.sol\":1350:1351  0 */\n  0x00\n    /* \"@openzeppelin/contracts/access/Ownable.sol\":1322:1353  OwnableInvalidOwner(address(0)) */\n  mload(0x40)\n  0x1e4fbdf700000000000000000000000000000000000000000000000000000000\n  dup2\n  mstore\n  0x04\n  add\n  tag_8\n  swap2\n  swap1\n  tag_9\n  jump\t// in\ntag_8:\n  mload(0x40)\n  dup1\n  swap2\n  sub\n  swap1\n  revert\n    /* \"@openzeppelin/contracts/access/Ownable.sol\":1269:1364  if (initialOwner == address(0)) {... */\ntag_7:\n    /* \"@openzeppelin/contracts/access/Ownable.sol\":1373:1405  _transferOwnership(initialOwner) */\n  tag_10\n    /* \"@openzeppelin/contracts/access/Ownable.sol\":1392:1404  initialOwner */\n  dup2\n    /* \"@openzeppelin/contracts/access/Ownable.sol\":1373:1391  _transferOwnership */\n  shl(0x20, tag_11)\n    /* \"@openzeppelin/contracts/access/Ownable.sol\":1373:1405  _transferOwnership(initialOwner) */\n  0x20\n  shr\n  jump\t// in\ntag_10:\n    /* \"@openzeppelin/contracts/access/Ownable.sol\":1225:1412  constructor(address initialOwner) {... */\n  pop\n    /* \"store.sol\":783:846  constructor(address initialOwner) Ownable(initialOwner) {... */\n  pop\n    /* \"store.sol\":127:4622  contract Store is Ownable {... */\n  jump(tag_13)\n    /* \"@openzeppelin/contracts/access/Ownable.sol\":2912:3099  function _transferOwnership(address newOwner) internal virtual {... */\ntag_11:\n    /* \"@openzeppelin/contracts/access/Ownable.sol\":2985:3001  address oldOwner */\n  0x00\n    /* \"@openzeppelin/contracts/access/Ownable.sol\":3004:3010  _owner */\n  dup1\n  0x00\n  swap1\n  sload\n  swap1\n  0x0100\n  exp\n  swap1\n  div\n  0xffffffffffffffffffffffffffffffffffffffff\n  and\n    /* \"@openzeppelin/contracts/access/Ownable.sol\":2985:3010  address oldOwner = _owner */\n  swap1\n  pop\n    /* \"@openzeppelin/contracts/access/Ownable.sol\":3029:3037  newOwner */\n  dup2\n    /* \"@openzeppelin/contracts/access/Ownable.sol\":3020:3026  _owner */\n  0x00\n  dup1\n    /* \"@openzeppelin/contracts/access/Ownable.sol\":3020:3037  _owner = newOwner */\n  0x0100\n  exp\n  dup2\n  sload\n  dup2\n  0xffffffffffffffffffffffffffffffffffffffff\n  mul\n  not\n  and\n  swap1\n  dup4\n  0xffffffffffffffffffffffffffffffffffffffff\n  and\n  mul\n  or\n  swap1\n  sstore\n  pop\n    /* \"@openzeppelin/contracts/access/Ownable.sol\":3083:3091  newOwner */\n  dup2\n    /* \"@openzeppelin/contracts/access/Ownable.sol\":3052:3092  OwnershipTransferred(oldOwner, newOwner) */\n  0xffffffffffffffffffffffffffffffffffffffff\n  and\n    /* \"@openzeppelin/contracts/access/Ownable.sol\":3073:3081  oldOwner */\n  dup2\n    /* \"@openzeppelin/contracts/access/Ownable.sol\":3052:3092  OwnershipTransferred(oldOwner, newOwner) */\n  0xffffffffffffffffffffffffffffffffffffffff\n  and\n  0x8be0079c531659141344cd1fd0a4f28419497f9722a3daafe3b4186f6b6457e0\n  mload(0x40)\n  mload(0x40)\n  dup1\n  swap2\n  sub\n  swap1\n  log3\n    /* \"@openzeppelin/contracts/access/Ownable.sol\":2975:3099  {... */\n  pop\n    /* \"@openzeppelin/contracts/access/Ownable.sol\":2912:3099  function _transferOwnership(address newOwner) internal virtual {... */\n  pop\n  jump\t// out\n    /* \"#utility.yul\":88:205   */\ntag_16:\n    /* \"#utility.yul\":197:198   */\n  0x00\n    /* \"#utility.yul\":194:195   */\n  dup1\n    /* \"#utility.yul\":187:199   */\n  revert\n    /* \"#utility.yul\":334:460   */\ntag_18:\n    /* \"#utility.yul\":371:378   */\n  0x00\n    /* \"#utility.yul\":411:453   */\n  0xffffffffffffffffffffffffffffffffffffffff\n    /* \"#utility.yul\":404:409   */\n  dup3\n    /* \"#utility.yul\":400:454   */\n  and\n    /* \"#utility.yul\":389:454   */\n  swap1\n  pop\n    /* \"#utility.yul\":334:460   */\n  swap2\n  swap1\n  pop\n  jump\t// out\n    /* \"#utility.yul\":466:562   */\ntag_19:\n    /* \"#utility.yul\":503:510   */\n  0x00\n    /* \"#utility.yul\":532:556   */\n  tag_29\n    /* \"#utility.yul\":550:555   */\n  dup3\n    /* \"#utility.yul\":532:556   */\n  tag_18\n  jump\t// in\ntag_29:\n    /* \"#utility.yul\":521:556   */\n  swap1\n  pop\n    /* \"#utility.yul\":466:562   */\n  swap2\n  swap1\n  pop\n  jump\t// out\n    /* \"#utility.yul\":568:690   */\ntag_20:\n    /* \"#utility.yul\":641:665   */\n  tag_31\n    /* \"#utility.yul\":659:664   */\n  dup2\n    /* \"#utility.yul\":641:665   */\n  tag_19\n  jump\t// in\ntag_31:\n    /* \"#utility.yul\":634:639   */\n  dup2\n    /* \"#utility.yul\":631:666   */\n  eq\n    /* \"#utility.yul\":621:684   */\n  tag_32\n  jumpi\n    /* \"#utility.yul\":680:681   */\n  0x00\n    /* \"#utility.yul\":677:678   */\n  dup1\n    /* \"#utility.yul\":670:682   */\n  revert\n    /* \"#utility.yul\":621:684   */\ntag_32:\n    /* \"#utility.yul\":568:690   */\n  pop\n  jump\t// out\n    /* \"#utility.yul\":696:839   */\ntag_21:\n    /* \"#utility.yul\":753:758   */\n  0x00\n    /* \"#utility.yul\":784:790   */\n  dup2\n    /* \"#utility.yul\":778:791   */\n  mload\n    /* \"#utility.yul\":769:791   */\n  swap1\n  pop\n    /* \"#utility.yul\":800:833   */\n  tag_34\n    /* \"#utility.yul\":827:832   */\n  dup2\n    /* \"#utility.yul\":800:833   */\n  tag_20\n  jump\t// in\ntag_34:\n    /* \"#utility.yul\":696:839   */\n  swap3\n  swap2\n  pop\n  pop\n  jump\t// out\n    /* \"#utility.yul\":845:1196   */\ntag_3:\n    /* \"#utility.yul\":915:921   */\n  0x00\n    /* \"#utility.yul\":964:966   */\n  0x20\n    /* \"#utility.yul\":952:961   */\n  dup3\n    /* \"#utility.yul\":943:950   */\n  dup5\n    /* \"#utility.yul\":939:962   */\n  sub\n    /* \"#utility.yul\":935:967   */\n  slt\n    /* \"#utility.yul\":932:1051   */\n  iszero\n  tag_36\n  jumpi\n    /* \"#utility.yul\":970:1049   */\n  tag_37\n  tag_16\n  jump\t// in\ntag_37:\n    /* \"#utility.yul\":932:1051   */\ntag_36:\n    /* \"#utility.yul\":1090:1091   */\n  0x00\n    /* \"#utility.yul\":1115:1179   */\n  tag_38\n    /* \"#utility.yul\":1171:1178   */\n  dup5\n    /* \"#utility.yul\":1162:1168   */\n  dup3\n    /* \"#utility.yul\":1151:1160   */\n  dup6\n    /* \"#utility.yul\":1147:1169   */\n  add\n    /* \"#utility.yul\":1115:1179   */\n  tag_21\n  jump\t// in\ntag_38:\n    /* \"#utility.yul\":1105:1179   */\n  swap2\n  pop\n    /* \"#utility.yul\":1061:1189   */\n  pop\n    /* \"#utility.yul\":845:1196   */\n  swap3\n  swap2\n  pop\n  pop\n  jump\t// out\n    /* \"#utility.yul\":1202:1320   */\ntag_22:\n    /* \"#utility.yul\":1289:1313   */\n  tag_40\n    /* \"#utility.yul\":1307:1312   */\n  dup2\n    /* \"#utility.yul\":1289:1313   */\n  tag_19\n  jump\t// in\ntag_40:\n    /* \"#utility.yul\":1284:1287   */\n  dup3\n    /* \"#utility.yul\":1277:1314   */\n  mstore\n    /* \"#utility.yul\":1202:1320   */\n  pop\n  pop\n  jump\t// out\n    /* \"#utility.yul\":1326:1548   */\ntag_9:\n    /* \"#utility.yul\":1419:1423   */\n  0x00\n    /* \"#utility.yul\":1457:1459   */\n  0x20\n    /* \"#utility.yul\":1446:1455   */\n  dup3\n    /* \"#utility.yul\":1442:1460   */\n  add\n    /* \"#utility.yul\":1434:1460   */\n  swap1\n  pop\n    /* \"#utility.yul\":1470:1541   */\n  tag_42\n    /* \"#utility.yul\":1538:1539   */\n  0x00\n    /* \"#utility.yul\":1527:1536   */\n  dup4\n    /* \"#utility.yul\":1523:1540   */\n  add\n    /* \"#utility.yul\":1514:1520   */\n  dup5\n    /* \"#utility.yul\":1470:1541   */\n  tag_22\n  jump\t// in\ntag_42:\n    /* \"#utility.yul\":1326:1548   */\n  swap3\n  swap2\n  pop\n  pop\n  jump\t// out\n    /* \"store.sol\":127:4622  contract Store is Ownable {... */\ntag_13:\n  dataSize(sub_0)\n  dup1\n  dataOffset(sub_0)\n  0x00\n  codecopy\n  0x00\n  return\nstop\n\nsub_0: assembly {\n        /* \"store.sol\":127:4622  contract Store is Ownable {... */\n      mstore(0x40, 0x80)\n      jumpi(tag_1, lt(calldatasize, 0x04))\n      shr(0xe0, calldataload(0x00))\n      dup1\n      0x82367b2d\n      gt\n      tag_17\n      jumpi\n      dup1\n      0xd6febde8\n      gt\n      tag_18\n      jumpi\n      dup1\n      0xd6febde8\n      eq\n      tag_13\n      jumpi\n      dup1\n      0xe7572230\n      eq\n      tag_14\n      jumpi\n      dup1\n      0xed90c7b7\n      eq\n      tag_15\n      jumpi\n      dup1\n      0xf2fde38b\n      eq\n      tag_16\n      jumpi\n      jump(tag_1)\n    tag_18:\n      dup1\n      0x82367b2d\n      eq\n      tag_9\n      jumpi\n      dup1\n      0x8da5cb5b\n      eq\n      tag_10\n      jumpi\n      dup1\n      0x9dfc3dd1\n      eq\n      tag_11\n      jumpi\n      dup1\n      0xc29b2f20\n      eq\n      tag_12\n      jumpi\n      jump(tag_1)\n    tag_17:\n      dup1\n      0x3df50e82\n      gt\n      tag_19\n      jumpi\n      dup1\n      0x3df50e82\n      eq\n      tag_5\n      jumpi\n      dup1\n      0x6038d0cf\n      eq\n      tag_6\n      jumpi\n      dup1\n      0x715018a6\n      eq\n      tag_7\n      jumpi\n      dup1\n      0x723cdb1d\n      eq\n      tag_8\n      jumpi\n      jump(tag_1)\n    tag_19:\n      dup1\n      0x094455c4\n      eq\n      tag_2\n      jumpi\n      dup1\n      0x3ab7d09a\n      eq\n      tag_3\n      jumpi\n      dup1\n      0x3ccfd60b\n      eq\n      tag_4\n      jumpi\n    tag_1:\n      0x00\n      dup1\n      revert\n        /* \"store.sol\":2469:2697  function addProduct(string calldata _name, uint256 _id, uint256 _stock, uint256 _price) external onlyOwner {... */\n    tag_2:\n      callvalue\n      dup1\n      iszero\n      tag_20\n      jumpi\n      0x00\n      dup1\n      revert\n    tag_20:\n      pop\n      tag_21\n      0x04\n      dup1\n      calldatasize\n      sub\n      dup2\n      add\n      swap1\n      tag_22\n      swap2\n      swap1\n      tag_23\n      jump\t// in\n    tag_22:\n      tag_24\n      jump\t// in\n    tag_21:\n      stop\n        /* \"store.sol\":3449:3599  function getStock(uint256 _id) public view returns(uint256) {... */\n    tag_3:\n      callvalue\n      dup1\n      iszero\n      tag_25\n      jumpi\n      0x00\n      dup1\n      revert\n    tag_25:\n      pop\n      tag_26\n      0x04\n      dup1\n      calldatasize\n      sub\n      dup2\n      add\n      swap1\n      tag_27\n      swap2\n      swap1\n      tag_28\n      jump\t// in\n    tag_27:\n      tag_29\n      jump\t// in\n    tag_26:\n      mload(0x40)\n      tag_30\n      swap2\n      swap1\n      tag_31\n      jump\t// in\n    tag_30:\n      mload(0x40)\n      dup1\n      swap2\n      sub\n      swap1\n      return\n        /* \"store.sol\":2279:2463  function withdraw() external onlyOwner {... */\n    tag_4:\n      callvalue\n      dup1\n      iszero\n      tag_32\n      jumpi\n      0x00\n      dup1\n      revert\n    tag_32:\n      pop\n      tag_33\n      tag_34\n      jump\t// in\n    tag_33:\n      stop\n        /* \"store.sol\":320:370  mapping(uint256 => uint256) public productPurchase */\n    tag_5:\n      callvalue\n      dup1\n      iszero\n      tag_35\n      jumpi\n      0x00\n      dup1\n      revert\n    tag_35:\n      pop\n      tag_36\n      0x04\n      dup1\n      calldatasize\n      sub\n      dup2\n      add\n      swap1\n      tag_37\n      swap2\n      swap1\n      tag_28\n      jump\t// in\n    tag_37:\n      tag_38\n      jump\t// in\n    tag_36:\n      mload(0x40)\n      tag_39\n      swap2\n      swap1\n      tag_31\n      jump\t// in\n    tag_39:\n      mload(0x40)\n      dup1\n      swap2\n      sub\n      swap1\n      return\n        /* \"store.sol\":208:275  mapping(address => mapping(uint256 => uint256)) public userPurchase */\n    tag_6:\n      callvalue\n      dup1\n      iszero\n      tag_40\n      jumpi\n      0x00\n      dup1\n      revert\n    tag_40:\n      pop\n      tag_41\n      0x04\n      dup1\n      calldatasize\n      sub\n      dup2\n      add\n      swap1\n      tag_42\n      swap2\n      swap1\n      tag_43\n      jump\t// in\n    tag_42:\n      tag_44\n      jump\t// in\n    tag_41:\n      mload(0x40)\n      tag_45\n      swap2\n      swap1\n      tag_31\n      jump\t// in\n    tag_45:\n      mload(0x40)\n      dup1\n      swap2\n      sub\n      swap1\n      return\n        /* \"@openzeppelin/contracts/access/Ownable.sol\":2293:2394  function renounceOwnership() public virtual onlyOwner {... */\n    tag_7:\n      callvalue\n      dup1\n      iszero\n      tag_46\n      jumpi\n      0x00\n      dup1\n      revert\n    tag_46:\n      pop\n      tag_47\n      tag_48\n      jump\t// in\n    tag_47:\n      stop\n        /* \"store.sol\":1428:2273  function batchBuy(uint256[] calldata _ids, uint256[] calldata _quantities) external payable {... */\n    tag_8:\n      tag_49\n      0x04\n      dup1\n      calldatasize\n      sub\n      dup2\n      add\n      swap1\n      tag_50\n      swap2\n      swap1\n      tag_51\n      jump\t// in\n    tag_50:\n      tag_52\n      jump\t// in\n    tag_49:\n      stop\n        /* \"store.sol\":2959:3120  function updatePrice(uint256 _id, uint256 _price) external onlyOwner {... */\n    tag_9:\n      callvalue\n      dup1\n      iszero\n      tag_53\n      jumpi\n      0x00\n      dup1\n      revert\n    tag_53:\n      pop\n      tag_54\n      0x04\n      dup1\n      calldatasize\n      sub\n      dup2\n      add\n      swap1\n      tag_55\n      swap2\n      swap1\n      tag_56\n      jump\t// in\n    tag_55:\n      tag_57\n      jump\t// in\n    tag_54:\n      stop\n        /* \"@openzeppelin/contracts/access/Ownable.sol\":1638:1723  function owner() public view virtual returns (address) {... */\n    tag_10:\n      callvalue\n      dup1\n      iszero\n      tag_58\n      jumpi\n      0x00\n      dup1\n      revert\n    tag_58:\n      pop\n      tag_59\n      tag_60\n      jump\t// in\n    tag_59:\n      mload(0x40)\n      tag_61\n      swap2\n      swap1\n      tag_62\n      jump\t// in\n    tag_61:\n      mload(0x40)\n      dup1\n      swap2\n      sub\n      swap1\n      return\n        /* \"store.sol\":3126:3287  function updateStock(uint256 _id, uint256 _stock) external onlyOwner {... */\n    tag_11:\n      callvalue\n      dup1\n      iszero\n      tag_63\n      jumpi\n      0x00\n      dup1\n      revert\n    tag_63:\n      pop\n      tag_64\n      0x04\n      dup1\n      calldatasize\n      sub\n      dup2\n      add\n      swap1\n      tag_65\n      swap2\n      swap1\n      tag_56\n      jump\t// in\n    tag_65:\n      tag_66\n      jump\t// in\n    tag_64:\n      stop\n        /* \"store.sol\":852:945  function getProducts() public view returns(Product[] memory) {... */\n    tag_12:\n      callvalue\n      dup1\n      iszero\n      tag_67\n      jumpi\n      0x00\n      dup1\n      revert\n    tag_67:\n      pop\n      tag_68\n      tag_69\n      jump\t// in\n    tag_68:\n      mload(0x40)\n      tag_70\n      swap2\n      swap1\n      tag_71\n      jump\t// in\n    tag_70:\n      mload(0x40)\n      dup1\n      swap2\n      sub\n      swap1\n      return\n        /* \"store.sol\":951:1422  function buy(uint256 _id, uint256 _quantity) external payable {... */\n    tag_13:\n      tag_72\n      0x04\n      dup1\n      calldatasize\n      sub\n      dup2\n      add\n      swap1\n      tag_73\n      swap2\n      swap1\n      tag_56\n      jump\t// in\n    tag_73:\n      tag_74\n      jump\t// in\n    tag_72:\n      stop\n        /* \"store.sol\":3293:3443  function getPrice(uint256 _id) public view returns(uint256) {... */\n    tag_14:\n      callvalue\n      dup1\n      iszero\n      tag_75\n      jumpi\n      0x00\n      dup1\n      revert\n    tag_75:\n      pop\n      tag_76\n      0x04\n      dup1\n      calldatasize\n      sub\n      dup2\n      add\n      swap1\n      tag_77\n      swap2\n      swap1\n      tag_28\n      jump\t// in\n    tag_77:\n      tag_78\n      jump\t// in\n    tag_76:\n      mload(0x40)\n      tag_79\n      swap2\n      swap1\n      tag_31\n      jump\t// in\n    tag_79:\n      mload(0x40)\n      dup1\n      swap2\n      sub\n      swap1\n      return\n        /* \"store.sol\":2703:2953  function deleteProduct(uint256 _id) external onlyOwner {... */\n    tag_15:\n      callvalue\n      dup1\n      iszero\n      tag_80\n      jumpi\n      0x00\n      dup1\n      revert\n    tag_80:\n      pop\n      tag_81\n      0x04\n      dup1\n      calldatasize\n      sub\n      dup2\n      add\n      swap1\n      tag_82\n      swap2\n      swap1\n      tag_28\n      jump\t// in\n    tag_82:\n      tag_83\n      jump\t// in\n    tag_81:\n      stop\n        /* \"@openzeppelin/contracts/access/Ownable.sol\":2543:2758  function transferOwnership(address newOwner) public virtual onlyOwner {... */\n    tag_16:\n      callvalue\n      dup1\n      iszero\n      tag_84\n      jumpi\n      0x00\n      dup1\n      revert\n    tag_84:\n      pop\n      tag_85\n      0x04\n      dup1\n      calldatasize\n      sub\n      dup2\n      add\n      swap1\n      tag_86\n      swap2\n      swap1\n      tag_87\n      jump\t// in\n    tag_86:\n      tag_88\n      jump\t// in\n    tag_85:\n      stop\n        /* \"store.sol\":2469:2697  function addProduct(string calldata _name, uint256 _id, uint256 _stock, uint256 _price) external onlyOwner {... */\n    tag_24:\n        /* \"@openzeppelin/contracts/access/Ownable.sol\":1531:1544  _checkOwner() */\n      tag_90\n        /* \"@openzeppelin/contracts/access/Ownable.sol\":1531:1542  _checkOwner */\n      tag_91\n        /* \"@openzeppelin/contracts/access/Ownable.sol\":1531:1544  _checkOwner() */\n      jump\t// in\n    tag_90:\n        /* \"store.sol\":2590:2605  _isIdExist(_id) */\n      tag_93\n        /* \"store.sol\":2601:2604  _id */\n      dup4\n        /* \"store.sol\":2590:2600  _isIdExist */\n      tag_94\n        /* \"store.sol\":2590:2605  _isIdExist(_id) */\n      jump\t// in\n    tag_93:\n        /* \"store.sol\":2586:2630  if (_isIdExist(_id)) revert IdAlreadyExist() */\n      iszero\n      tag_95\n      jumpi\n        /* \"store.sol\":2614:2630  IdAlreadyExist() */\n      mload(0x40)\n      0xf270498400000000000000000000000000000000000000000000000000000000\n      dup2\n      mstore\n      0x04\n      add\n      mload(0x40)\n      dup1\n      swap2\n      sub\n      swap1\n      revert\n        /* \"store.sol\":2586:2630  if (_isIdExist(_id)) revert IdAlreadyExist() */\n    tag_95:\n        /* \"store.sol\":2640:2648  products */\n      0x03\n        /* \"store.sol\":2654:2689  Product(_name, _id, _stock, _price) */\n      mload(0x40)\n      dup1\n      0x80\n      add\n      0x40\n      mstore\n      dup1\n        /* \"store.sol\":2662:2667  _name */\n      dup8\n      dup8\n        /* \"store.sol\":2654:2689  Product(_name, _id, _stock, _price) */\n      dup1\n      dup1\n      0x1f\n      add\n      0x20\n      dup1\n      swap2\n      div\n      mul\n      0x20\n      add\n      mload(0x40)\n      swap1\n      dup2\n      add\n      0x40\n      mstore\n      dup1\n      swap4\n      swap3\n      swap2\n      swap1\n      dup2\n      dup2\n      mstore\n      0x20\n      add\n      dup4\n      dup4\n      dup1\n      dup3\n      dup5\n      calldatacopy\n      0x00\n      dup2\n      dup5\n      add\n      mstore\n      not(0x1f)\n      0x1f\n      dup3\n      add\n      and\n      swap1\n      pop\n      dup1\n      dup4\n      add\n      swap3\n      pop\n      pop\n      pop\n      pop\n      pop\n      pop\n      pop\n      dup2\n      mstore\n      0x20\n      add\n        /* \"store.sol\":2669:2672  _id */\n      dup6\n        /* \"store.sol\":2654:2689  Product(_name, _id, _stock, _price) */\n      dup2\n      mstore\n      0x20\n      add\n        /* \"store.sol\":2674:2680  _stock */\n      dup5\n        /* \"store.sol\":2654:2689  Product(_name, _id, _stock, _price) */\n      dup2\n      mstore\n      0x20\n      add\n        /* \"store.sol\":2682:2688  _price */\n      dup4\n        /* \"store.sol\":2654:2689  Product(_name, _id, _stock, _price) */\n      dup2\n      mstore\n      pop\n        /* \"store.sol\":2640:2690  products.push(Product(_name, _id, _stock, _price)) */\n      swap1\n      dup1\n      0x01\n      dup2\n      sload\n      add\n      dup1\n      dup3\n      sstore\n      dup1\n      swap2\n      pop\n      pop\n      0x01\n      swap1\n      sub\n      swap1\n      0x00\n      mstore\n      keccak256(0x00, 0x20)\n      swap1\n      0x04\n      mul\n      add\n      0x00\n      swap1\n      swap2\n      swap1\n      swap2\n      swap1\n      swap2\n      pop\n      0x00\n      dup3\n      add\n      mload\n      dup2\n      0x00\n      add\n      swap1\n      dup2\n      tag_97\n      swap2\n      swap1\n      tag_98\n      jump\t// in\n    tag_97:\n      pop\n      0x20\n      dup3\n      add\n      mload\n      dup2\n      0x01\n      add\n      sstore\n      0x40\n      dup3\n      add\n      mload\n      dup2\n      0x02\n      add\n      sstore\n      0x60\n      dup3\n      add\n      mload\n      dup2\n      0x03\n      add\n      sstore\n      pop\n      pop\n        /* \"store.sol\":2469:2697  function addProduct(string calldata _name, uint256 _id, uint256 _stock, uint256 _price) external onlyOwner {... */\n      pop\n      pop\n      pop\n      pop\n      pop\n      jump\t// out\n        /* \"store.sol\":3449:3599  function getStock(uint256 _id) public view returns(uint256) {... */\n    tag_29:\n        /* \"store.sol\":3500:3507  uint256 */\n      0x00\n        /* \"store.sol\":3519:3542  Product storage product */\n      dup1\n        /* \"store.sol\":3545:3562  _findProduct(_id) */\n      tag_100\n        /* \"store.sol\":3558:3561  _id */\n      dup4\n        /* \"store.sol\":3545:3557  _findProduct */\n      tag_101\n        /* \"store.sol\":3545:3562  _findProduct(_id) */\n      jump\t// in\n    tag_100:\n        /* \"store.sol\":3519:3562  Product storage product = _findProduct(_id) */\n      swap1\n      pop\n        /* \"store.sol\":3579:3586  product */\n      dup1\n        /* \"store.sol\":3579:3592  product.stock */\n      0x02\n      add\n      sload\n        /* \"store.sol\":3572:3592  return product.stock */\n      swap2\n      pop\n      pop\n        /* \"store.sol\":3449:3599  function getStock(uint256 _id) public view returns(uint256) {... */\n      swap2\n      swap1\n      pop\n      jump\t// out\n        /* \"store.sol\":2279:2463  function withdraw() external onlyOwner {... */\n    tag_34:\n        /* \"@openzeppelin/contracts/access/Ownable.sol\":1531:1544  _checkOwner() */\n      tag_103\n        /* \"@openzeppelin/contracts/access/Ownable.sol\":1531:1542  _checkOwner */\n      tag_91\n        /* \"@openzeppelin/contracts/access/Ownable.sol\":1531:1544  _checkOwner() */\n      jump\t// in\n    tag_103:\n        /* \"store.sol\":2328:2343  uint256 balance */\n      0x00\n        /* \"store.sol\":2346:2367  address(this).balance */\n      selfbalance\n        /* \"store.sol\":2328:2367  uint256 balance = address(this).balance */\n      swap1\n      pop\n        /* \"store.sol\":2392:2393  0 */\n      0x00\n        /* \"store.sol\":2381:2388  balance */\n      dup2\n        /* \"store.sol\":2381:2393  balance == 0 */\n      sub\n        /* \"store.sol\":2377:2411  if (balance == 0) revert NoMoney() */\n      tag_105\n      jumpi\n        /* \"store.sol\":2402:2411  NoMoney() */\n      mload(0x40)\n      0x469ea76800000000000000000000000000000000000000000000000000000000\n      dup2\n      mstore\n      0x04\n      add\n      mload(0x40)\n      dup1\n      swap2\n      sub\n      swap1\n      revert\n        /* \"store.sol\":2377:2411  if (balance == 0) revert NoMoney() */\n    tag_105:\n        /* \"store.sol\":2430:2437  owner() */\n      tag_106\n        /* \"store.sol\":2430:2435  owner */\n      tag_60\n        /* \"store.sol\":2430:2437  owner() */\n      jump\t// in\n    tag_106:\n        /* \"store.sol\":2422:2447  payable(owner()).transfer */\n      0xffffffffffffffffffffffffffffffffffffffff\n      and\n        /* \"store.sol\":2422:2456  payable(owner()).transfer(balance) */\n      0x08fc\n        /* \"store.sol\":2448:2455  balance */\n      dup3\n        /* \"store.sol\":2422:2456  payable(owner()).transfer(balance) */\n      swap1\n      dup2\n      iszero\n      mul\n      swap1\n      mload(0x40)\n      0x00\n      mload(0x40)\n      dup1\n      dup4\n      sub\n      dup2\n      dup6\n      dup9\n      dup9\n      call\n      swap4\n      pop\n      pop\n      pop\n      pop\n      iszero\n      dup1\n      iszero\n      tag_108\n      jumpi\n      returndatasize\n      0x00\n      dup1\n      returndatacopy\n      revert(0x00, returndatasize)\n    tag_108:\n      pop\n        /* \"store.sol\":2318:2463  {... */\n      pop\n        /* \"store.sol\":2279:2463  function withdraw() external onlyOwner {... */\n      jump\t// out\n        /* \"store.sol\":320:370  mapping(uint256 => uint256) public productPurchase */\n    tag_38:\n      mstore(0x20, 0x02)\n      dup1\n      0x00\n      mstore\n      keccak256(0x00, 0x40)\n      0x00\n      swap2\n      pop\n      swap1\n      pop\n      sload\n      dup2\n      jump\t// out\n        /* \"store.sol\":208:275  mapping(address => mapping(uint256 => uint256)) public userPurchase */\n    tag_44:\n      mstore(0x20, 0x01)\n      dup2\n      0x00\n      mstore\n      mstore(0x20, keccak256(0x00, 0x40))\n      dup1\n      0x00\n      mstore\n      keccak256(0x00, 0x40)\n      0x00\n      swap2\n      pop\n      swap2\n      pop\n      pop\n      sload\n      dup2\n      jump\t// out\n        /* \"@openzeppelin/contracts/access/Ownable.sol\":2293:2394  function renounceOwnership() public virtual onlyOwner {... */\n    tag_48:\n        /* \"@openzeppelin/contracts/access/Ownable.sol\":1531:1544  _checkOwner() */\n      tag_110\n        /* \"@openzeppelin/contracts/access/Ownable.sol\":1531:1542  _checkOwner */\n      tag_91\n        /* \"@openzeppelin/contracts/access/Ownable.sol\":1531:1544  _checkOwner() */\n      jump\t// in\n    tag_110:\n        /* \"@openzeppelin/contracts/access/Ownable.sol\":2357:2387  _transferOwnership(address(0)) */\n      tag_112\n        /* \"@openzeppelin/contracts/access/Ownable.sol\":2384:2385  0 */\n      0x00\n        /* \"@openzeppelin/contracts/access/Ownable.sol\":2357:2375  _transferOwnership */\n      tag_113\n        /* \"@openzeppelin/contracts/access/Ownable.sol\":2357:2387  _transferOwnership(address(0)) */\n      jump\t// in\n    tag_112:\n        /* \"@openzeppelin/contracts/access/Ownable.sol\":2293:2394  function renounceOwnership() public virtual onlyOwner {... */\n      jump\t// out\n        /* \"store.sol\":1428:2273  function batchBuy(uint256[] calldata _ids, uint256[] calldata _quantities) external payable {... */\n    tag_52:\n        /* \"store.sol\":1549:1560  _quantities */\n      dup2\n      dup2\n        /* \"store.sol\":1549:1567  _quantities.length */\n      swap1\n      pop\n        /* \"store.sol\":1534:1538  _ids */\n      dup5\n      dup5\n        /* \"store.sol\":1534:1545  _ids.length */\n      swap1\n      pop\n        /* \"store.sol\":1534:1567  _ids.length != _quantities.length */\n      eq\n        /* \"store.sol\":1530:1597  if (_ids.length != _quantities.length) revert WrongBatchStructure() */\n      tag_115\n      jumpi\n        /* \"store.sol\":1576:1597  WrongBatchStructure() */\n      mload(0x40)\n      0x23a37fc200000000000000000000000000000000000000000000000000000000\n      dup2\n      mstore\n      0x04\n      add\n      mload(0x40)\n      dup1\n      swap2\n      sub\n      swap1\n      revert\n        /* \"store.sol\":1530:1597  if (_ids.length != _quantities.length) revert WrongBatchStructure() */\n    tag_115:\n        /* \"store.sol\":1608:1626  uint256 totalPrice */\n      0x00\n        /* \"store.sol\":1645:1651  uint i */\n      dup1\n        /* \"store.sol\":1640:1911  for (uint i = 0; i < _ids.length; i++) {... */\n    tag_116:\n        /* \"store.sol\":1661:1665  _ids */\n      dup6\n      dup6\n        /* \"store.sol\":1661:1672  _ids.length */\n      swap1\n      pop\n        /* \"store.sol\":1657:1658  i */\n      dup2\n        /* \"store.sol\":1657:1672  i < _ids.length */\n      lt\n        /* \"store.sol\":1640:1911  for (uint i = 0; i < _ids.length; i++) {... */\n      iszero\n      tag_117\n      jumpi\n        /* \"store.sol\":1693:1702  uint256 q */\n      0x00\n        /* \"store.sol\":1705:1716  _quantities */\n      dup5\n      dup5\n        /* \"store.sol\":1717:1718  i */\n      dup4\n        /* \"store.sol\":1705:1719  _quantities[i] */\n      dup2\n      dup2\n      lt\n      tag_119\n      jumpi\n      tag_120\n      tag_121\n      jump\t// in\n    tag_120:\n    tag_119:\n      swap1\n      pop\n      0x20\n      mul\n      add\n      calldataload\n        /* \"store.sol\":1693:1719  uint256 q = _quantities[i] */\n      swap1\n      pop\n        /* \"store.sol\":1733:1743  uint256 id */\n      0x00\n        /* \"store.sol\":1746:1750  _ids */\n      dup8\n      dup8\n        /* \"store.sol\":1751:1752  i */\n      dup5\n        /* \"store.sol\":1746:1753  _ids[i] */\n      dup2\n      dup2\n      lt\n      tag_122\n      jumpi\n      tag_123\n      tag_121\n      jump\t// in\n    tag_123:\n    tag_122:\n      swap1\n      pop\n      0x20\n      mul\n      add\n      calldataload\n        /* \"store.sol\":1733:1753  uint256 id = _ids[i] */\n      swap1\n      pop\n        /* \"store.sol\":1777:1778  0 */\n      0x00\n        /* \"store.sol\":1772:1773  q */\n      dup3\n        /* \"store.sol\":1772:1778  q <= 0 */\n      gt\n        /* \"store.sol\":1768:1801  if (q <= 0) revert ZeroQuantity() */\n      tag_124\n      jumpi\n        /* \"store.sol\":1787:1801  ZeroQuantity() */\n      mload(0x40)\n      0xf4f5b73300000000000000000000000000000000000000000000000000000000\n      dup2\n      mstore\n      0x04\n      add\n      mload(0x40)\n      dup1\n      swap2\n      sub\n      swap1\n      revert\n        /* \"store.sol\":1768:1801  if (q <= 0) revert ZeroQuantity() */\n    tag_124:\n        /* \"store.sol\":1833:1834  q */\n      dup2\n        /* \"store.sol\":1819:1830  getStock(i) */\n      tag_125\n        /* \"store.sol\":1828:1829  i */\n      dup5\n        /* \"store.sol\":1819:1827  getStock */\n      tag_29\n        /* \"store.sol\":1819:1830  getStock(i) */\n      jump\t// in\n    tag_125:\n        /* \"store.sol\":1819:1834  getStock(i) < q */\n      lt\n        /* \"store.sol\":1815:1855  if (getStock(i) < q) revert OutOfStock() */\n      iszero\n      tag_126\n      jumpi\n        /* \"store.sol\":1843:1855  OutOfStock() */\n      mload(0x40)\n      0xade1cb4100000000000000000000000000000000000000000000000000000000\n      dup2\n      mstore\n      0x04\n      add\n      mload(0x40)\n      dup1\n      swap2\n      sub\n      swap1\n      revert\n        /* \"store.sol\":1815:1855  if (getStock(i) < q) revert OutOfStock() */\n    tag_126:\n        /* \"store.sol\":1899:1900  q */\n      dup2\n        /* \"store.sol\":1884:1896  getPrice(id) */\n      tag_127\n        /* \"store.sol\":1893:1895  id */\n      dup3\n        /* \"store.sol\":1884:1892  getPrice */\n      tag_78\n        /* \"store.sol\":1884:1896  getPrice(id) */\n      jump\t// in\n    tag_127:\n        /* \"store.sol\":1884:1900  getPrice(id) * q */\n      tag_128\n      swap2\n      swap1\n      tag_129\n      jump\t// in\n    tag_128:\n        /* \"store.sol\":1870:1900  totalPrice += getPrice(id) * q */\n      dup5\n      tag_130\n      swap2\n      swap1\n      tag_131\n      jump\t// in\n    tag_130:\n      swap4\n      pop\n        /* \"store.sol\":1679:1911  {... */\n      pop\n      pop\n        /* \"store.sol\":1674:1677  i++ */\n      dup1\n      dup1\n      0x01\n      add\n      swap2\n      pop\n      pop\n        /* \"store.sol\":1640:1911  for (uint i = 0; i < _ids.length; i++) {... */\n      jump(tag_116)\n    tag_117:\n      pop\n        /* \"store.sol\":1937:1947  totalPrice */\n      dup1\n        /* \"store.sol\":1925:1934  msg.value */\n      callvalue\n        /* \"store.sol\":1925:1947  msg.value < totalPrice */\n      lt\n        /* \"store.sol\":1921:1972  if (msg.value < totalPrice) revert NotEnoughFunds() */\n      iszero\n      tag_132\n      jumpi\n        /* \"store.sol\":1956:1972  NotEnoughFunds() */\n      mload(0x40)\n      0x81b5ad6800000000000000000000000000000000000000000000000000000000\n      dup2\n      mstore\n      0x04\n      add\n      mload(0x40)\n      dup1\n      swap2\n      sub\n      swap1\n      revert\n        /* \"store.sol\":1921:1972  if (msg.value < totalPrice) revert NotEnoughFunds() */\n    tag_132:\n        /* \"store.sol\":1988:1994  uint i */\n      0x00\n        /* \"store.sol\":1983:2152  for (uint i = 0; i < _ids.length; i++) {... */\n    tag_133:\n        /* \"store.sol\":2004:2008  _ids */\n      dup6\n      dup6\n        /* \"store.sol\":2004:2015  _ids.length */\n      swap1\n      pop\n        /* \"store.sol\":2000:2001  i */\n      dup2\n        /* \"store.sol\":2000:2015  i < _ids.length */\n      lt\n        /* \"store.sol\":1983:2152  for (uint i = 0; i < _ids.length; i++) {... */\n      iszero\n      tag_134\n      jumpi\n        /* \"store.sol\":2036:2045  uint256 q */\n      0x00\n        /* \"store.sol\":2048:2059  _quantities */\n      dup5\n      dup5\n        /* \"store.sol\":2060:2061  i */\n      dup4\n        /* \"store.sol\":2048:2062  _quantities[i] */\n      dup2\n      dup2\n      lt\n      tag_136\n      jumpi\n      tag_137\n      tag_121\n      jump\t// in\n    tag_137:\n    tag_136:\n      swap1\n      pop\n      0x20\n      mul\n      add\n      calldataload\n        /* \"store.sol\":2036:2062  uint256 q = _quantities[i] */\n      swap1\n      pop\n        /* \"store.sol\":2076:2086  uint256 id */\n      0x00\n        /* \"store.sol\":2089:2093  _ids */\n      dup8\n      dup8\n        /* \"store.sol\":2094:2095  i */\n      dup5\n        /* \"store.sol\":2089:2096  _ids[i] */\n      dup2\n      dup2\n      lt\n      tag_138\n      jumpi\n      tag_139\n      tag_121\n      jump\t// in\n    tag_139:\n    tag_138:\n      swap1\n      pop\n      0x20\n      mul\n      add\n      calldataload\n        /* \"store.sol\":2076:2096  uint256 id = _ids[i] */\n      swap1\n      pop\n        /* \"store.sol\":2111:2141  _buyProcess(msg.sender, id, q) */\n      tag_140\n        /* \"store.sol\":2123:2133  msg.sender */\n      caller\n        /* \"store.sol\":2135:2137  id */\n      dup3\n        /* \"store.sol\":2139:2140  q */\n      dup5\n        /* \"store.sol\":2111:2122  _buyProcess */\n      tag_141\n        /* \"store.sol\":2111:2141  _buyProcess(msg.sender, id, q) */\n      jump\t// in\n    tag_140:\n        /* \"store.sol\":2022:2152  {... */\n      pop\n      pop\n        /* \"store.sol\":2017:2020  i++ */\n      dup1\n      dup1\n      0x01\n      add\n      swap2\n      pop\n      pop\n        /* \"store.sol\":1983:2152  for (uint i = 0; i < _ids.length; i++) {... */\n      jump(tag_133)\n    tag_134:\n      pop\n        /* \"store.sol\":2178:2188  totalPrice */\n      dup1\n        /* \"store.sol\":2166:2175  msg.value */\n      callvalue\n        /* \"store.sol\":2166:2188  msg.value > totalPrice */\n      gt\n        /* \"store.sol\":2162:2267  if (msg.value > totalPrice) {... */\n      iszero\n      tag_142\n      jumpi\n        /* \"store.sol\":2212:2222  msg.sender */\n      caller\n        /* \"store.sol\":2204:2232  payable(msg.sender).transfer */\n      0xffffffffffffffffffffffffffffffffffffffff\n      and\n        /* \"store.sol\":2204:2256  payable(msg.sender).transfer(msg.value - totalPrice) */\n      0x08fc\n        /* \"store.sol\":2245:2255  totalPrice */\n      dup3\n        /* \"store.sol\":2233:2242  msg.value */\n      callvalue\n        /* \"store.sol\":2233:2255  msg.value - totalPrice */\n      tag_143\n      swap2\n      swap1\n      tag_144\n      jump\t// in\n    tag_143:\n        /* \"store.sol\":2204:2256  payable(msg.sender).transfer(msg.value - totalPrice) */\n      swap1\n      dup2\n      iszero\n      mul\n      swap1\n      mload(0x40)\n      0x00\n      mload(0x40)\n      dup1\n      dup4\n      sub\n      dup2\n      dup6\n      dup9\n      dup9\n      call\n      swap4\n      pop\n      pop\n      pop\n      pop\n      iszero\n      dup1\n      iszero\n      tag_146\n      jumpi\n      returndatasize\n      0x00\n      dup1\n      returndatacopy\n      revert(0x00, returndatasize)\n    tag_146:\n      pop\n        /* \"store.sol\":2162:2267  if (msg.value > totalPrice) {... */\n    tag_142:\n        /* \"store.sol\":1520:2273  {... */\n      pop\n        /* \"store.sol\":1428:2273  function batchBuy(uint256[] calldata _ids, uint256[] calldata _quantities) external payable {... */\n      pop\n      pop\n      pop\n      pop\n      jump\t// out\n        /* \"store.sol\":2959:3120  function updatePrice(uint256 _id, uint256 _price) external onlyOwner {... */\n    tag_57:\n        /* \"@openzeppelin/contracts/access/Ownable.sol\":1531:1544  _checkOwner() */\n      tag_148\n        /* \"@openzeppelin/contracts/access/Ownable.sol\":1531:1542  _checkOwner */\n      tag_91\n        /* \"@openzeppelin/contracts/access/Ownable.sol\":1531:1544  _checkOwner() */\n      jump\t// in\n    tag_148:\n        /* \"store.sol\":3038:3061  Product storage product */\n      0x00\n        /* \"store.sol\":3064:3081  _findProduct(_id) */\n      tag_150\n        /* \"store.sol\":3077:3080  _id */\n      dup4\n        /* \"store.sol\":3064:3076  _findProduct */\n      tag_101\n        /* \"store.sol\":3064:3081  _findProduct(_id) */\n      jump\t// in\n    tag_150:\n        /* \"store.sol\":3038:3081  Product storage product = _findProduct(_id) */\n      swap1\n      pop\n        /* \"store.sol\":3107:3113  _price */\n      dup2\n        /* \"store.sol\":3091:3098  product */\n      dup2\n        /* \"store.sol\":3091:3104  product.price */\n      0x03\n      add\n        /* \"store.sol\":3091:3113  product.price = _price */\n      dup2\n      swap1\n      sstore\n      pop\n        /* \"store.sol\":3028:3120  {... */\n      pop\n        /* \"store.sol\":2959:3120  function updatePrice(uint256 _id, uint256 _price) external onlyOwner {... */\n      pop\n      pop\n      jump\t// out\n        /* \"@openzeppelin/contracts/access/Ownable.sol\":1638:1723  function owner() public view virtual returns (address) {... */\n    tag_60:\n        /* \"@openzeppelin/contracts/access/Ownable.sol\":1684:1691  address */\n      0x00\n        /* \"@openzeppelin/contracts/access/Ownable.sol\":1710:1716  _owner */\n      dup1\n      0x00\n      swap1\n      sload\n      swap1\n      0x0100\n      exp\n      swap1\n      div\n      0xffffffffffffffffffffffffffffffffffffffff\n      and\n        /* \"@openzeppelin/contracts/access/Ownable.sol\":1703:1716  return _owner */\n      swap1\n      pop\n        /* \"@openzeppelin/contracts/access/Ownable.sol\":1638:1723  function owner() public view virtual returns (address) {... */\n      swap1\n      jump\t// out\n        /* \"store.sol\":3126:3287  function updateStock(uint256 _id, uint256 _stock) external onlyOwner {... */\n    tag_66:\n        /* \"@openzeppelin/contracts/access/Ownable.sol\":1531:1544  _checkOwner() */\n      tag_153\n        /* \"@openzeppelin/contracts/access/Ownable.sol\":1531:1542  _checkOwner */\n      tag_91\n        /* \"@openzeppelin/contracts/access/Ownable.sol\":1531:1544  _checkOwner() */\n      jump\t// in\n    tag_153:\n        /* \"store.sol\":3205:3228  Product storage product */\n      0x00\n        /* \"store.sol\":3231:3248  _findProduct(_id) */\n      tag_155\n        /* \"store.sol\":3244:3247  _id */\n      dup4\n        /* \"store.sol\":3231:3243  _findProduct */\n      tag_101\n        /* \"store.sol\":3231:3248  _findProduct(_id) */\n      jump\t// in\n    tag_155:\n        /* \"store.sol\":3205:3248  Product storage product = _findProduct(_id) */\n      swap1\n      pop\n        /* \"store.sol\":3274:3280  _stock */\n      dup2\n        /* \"store.sol\":3258:3265  product */\n      dup2\n        /* \"store.sol\":3258:3271  product.stock */\n      0x02\n      add\n        /* \"store.sol\":3258:3280  product.stock = _stock */\n      dup2\n      swap1\n      sstore\n      pop\n        /* \"store.sol\":3195:3287  {... */\n      pop\n        /* \"store.sol\":3126:3287  function updateStock(uint256 _id, uint256 _stock) external onlyOwner {... */\n      pop\n      pop\n      jump\t// out\n        /* \"store.sol\":852:945  function getProducts() public view returns(Product[] memory) {... */\n    tag_69:\n        /* \"store.sol\":895:911  Product[] memory */\n      0x60\n        /* \"store.sol\":930:938  products */\n      0x03\n        /* \"store.sol\":923:938  return products */\n      dup1\n      sload\n      dup1\n      0x20\n      mul\n      0x20\n      add\n      mload(0x40)\n      swap1\n      dup2\n      add\n      0x40\n      mstore\n      dup1\n      swap3\n      swap2\n      swap1\n      dup2\n      dup2\n      mstore\n      0x20\n      add\n      0x00\n      swap1\n    tag_157:\n      dup3\n      dup3\n      lt\n      iszero\n      tag_158\n      jumpi\n      dup4\n      dup3\n      swap1\n      0x00\n      mstore\n      keccak256(0x00, 0x20)\n      swap1\n      0x04\n      mul\n      add\n      mload(0x40)\n      dup1\n      0x80\n      add\n      0x40\n      mstore\n      swap1\n      dup2\n      0x00\n      dup3\n      add\n      dup1\n      sload\n      tag_160\n      swap1\n      tag_161\n      jump\t// in\n    tag_160:\n      dup1\n      0x1f\n      add\n      0x20\n      dup1\n      swap2\n      div\n      mul\n      0x20\n      add\n      mload(0x40)\n      swap1\n      dup2\n      add\n      0x40\n      mstore\n      dup1\n      swap3\n      swap2\n      swap1\n      dup2\n      dup2\n      mstore\n      0x20\n      add\n      dup3\n      dup1\n      sload\n      tag_162\n      swap1\n      tag_161\n      jump\t// in\n    tag_162:\n      dup1\n      iszero\n      tag_163\n      jumpi\n      dup1\n      0x1f\n      lt\n      tag_164\n      jumpi\n      0x0100\n      dup1\n      dup4\n      sload\n      div\n      mul\n      dup4\n      mstore\n      swap2\n      0x20\n      add\n      swap2\n      jump(tag_163)\n    tag_164:\n      dup3\n      add\n      swap2\n      swap1\n      0x00\n      mstore\n      keccak256(0x00, 0x20)\n      swap1\n    tag_165:\n      dup2\n      sload\n      dup2\n      mstore\n      swap1\n      0x01\n      add\n      swap1\n      0x20\n      add\n      dup1\n      dup4\n      gt\n      tag_165\n      jumpi\n      dup3\n      swap1\n      sub\n      0x1f\n      and\n      dup3\n      add\n      swap2\n    tag_163:\n      pop\n      pop\n      pop\n      pop\n      pop\n      dup2\n      mstore\n      0x20\n      add\n      0x01\n      dup3\n      add\n      sload\n      dup2\n      mstore\n      0x20\n      add\n      0x02\n      dup3\n      add\n      sload\n      dup2\n      mstore\n      0x20\n      add\n      0x03\n      dup3\n      add\n      sload\n      dup2\n      mstore\n      pop\n      pop\n      dup2\n      mstore\n      0x20\n      add\n      swap1\n      0x01\n      add\n      swap1\n      jump(tag_157)\n    tag_158:\n      pop\n      pop\n      pop\n      pop\n      swap1\n      pop\n        /* \"store.sol\":852:945  function getProducts() public view returns(Product[] memory) {... */\n      swap1\n      jump\t// out\n        /* \"store.sol\":951:1422  function buy(uint256 _id, uint256 _quantity) external payable {... */\n    tag_74:\n        /* \"store.sol\":1040:1041  0 */\n      0x00\n        /* \"store.sol\":1027:1036  _quantity */\n      dup2\n        /* \"store.sol\":1027:1041  _quantity <= 0 */\n      gt\n        /* \"store.sol\":1023:1064  if (_quantity <= 0) revert ZeroQuantity() */\n      tag_167\n      jumpi\n        /* \"store.sol\":1050:1064  ZeroQuantity() */\n      mload(0x40)\n      0xf4f5b73300000000000000000000000000000000000000000000000000000000\n      dup2\n      mstore\n      0x04\n      add\n      mload(0x40)\n      dup1\n      swap2\n      sub\n      swap1\n      revert\n        /* \"store.sol\":1023:1064  if (_quantity <= 0) revert ZeroQuantity() */\n    tag_167:\n        /* \"store.sol\":1094:1103  _quantity */\n      dup1\n        /* \"store.sol\":1078:1091  getStock(_id) */\n      tag_168\n        /* \"store.sol\":1087:1090  _id */\n      dup4\n        /* \"store.sol\":1078:1086  getStock */\n      tag_29\n        /* \"store.sol\":1078:1091  getStock(_id) */\n      jump\t// in\n    tag_168:\n        /* \"store.sol\":1078:1103  getStock(_id) < _quantity */\n      lt\n        /* \"store.sol\":1074:1124  if (getStock(_id) < _quantity) revert OutOfStock() */\n      iszero\n      tag_169\n      jumpi\n        /* \"store.sol\":1112:1124  OutOfStock() */\n      mload(0x40)\n      0xade1cb4100000000000000000000000000000000000000000000000000000000\n      dup2\n      mstore\n      0x04\n      add\n      mload(0x40)\n      dup1\n      swap2\n      sub\n      swap1\n      revert\n        /* \"store.sol\":1074:1124  if (getStock(_id) < _quantity) revert OutOfStock() */\n    tag_169:\n        /* \"store.sol\":1143:1161  uint256 totalPrice */\n      0x00\n        /* \"store.sol\":1180:1189  _quantity */\n      dup2\n        /* \"store.sol\":1164:1177  getPrice(_id) */\n      tag_170\n        /* \"store.sol\":1173:1176  _id */\n      dup5\n        /* \"store.sol\":1164:1172  getPrice */\n      tag_78\n        /* \"store.sol\":1164:1177  getPrice(_id) */\n      jump\t// in\n    tag_170:\n        /* \"store.sol\":1164:1189  getPrice(_id) * _quantity */\n      tag_171\n      swap2\n      swap1\n      tag_129\n      jump\t// in\n    tag_171:\n        /* \"store.sol\":1143:1189  uint256 totalPrice = getPrice(_id) * _quantity */\n      swap1\n      pop\n        /* \"store.sol\":1215:1225  totalPrice */\n      dup1\n        /* \"store.sol\":1203:1212  msg.value */\n      callvalue\n        /* \"store.sol\":1203:1225  msg.value < totalPrice */\n      lt\n        /* \"store.sol\":1199:1250  if (msg.value < totalPrice) revert NotEnoughFunds() */\n      iszero\n      tag_172\n      jumpi\n        /* \"store.sol\":1234:1250  NotEnoughFunds() */\n      mload(0x40)\n      0x81b5ad6800000000000000000000000000000000000000000000000000000000\n      dup2\n      mstore\n      0x04\n      add\n      mload(0x40)\n      dup1\n      swap2\n      sub\n      swap1\n      revert\n        /* \"store.sol\":1199:1250  if (msg.value < totalPrice) revert NotEnoughFunds() */\n    tag_172:\n        /* \"store.sol\":1261:1300  _buyProcess(msg.sender, _id, _quantity) */\n      tag_173\n        /* \"store.sol\":1273:1283  msg.sender */\n      caller\n        /* \"store.sol\":1285:1288  _id */\n      dup5\n        /* \"store.sol\":1290:1299  _quantity */\n      dup5\n        /* \"store.sol\":1261:1272  _buyProcess */\n      tag_141\n        /* \"store.sol\":1261:1300  _buyProcess(msg.sender, _id, _quantity) */\n      jump\t// in\n    tag_173:\n        /* \"store.sol\":1327:1337  totalPrice */\n      dup1\n        /* \"store.sol\":1315:1324  msg.value */\n      callvalue\n        /* \"store.sol\":1315:1337  msg.value > totalPrice */\n      gt\n        /* \"store.sol\":1311:1416  if (msg.value > totalPrice) {... */\n      iszero\n      tag_174\n      jumpi\n        /* \"store.sol\":1361:1371  msg.sender */\n      caller\n        /* \"store.sol\":1353:1381  payable(msg.sender).transfer */\n      0xffffffffffffffffffffffffffffffffffffffff\n      and\n        /* \"store.sol\":1353:1405  payable(msg.sender).transfer(msg.value - totalPrice) */\n      0x08fc\n        /* \"store.sol\":1394:1404  totalPrice */\n      dup3\n        /* \"store.sol\":1382:1391  msg.value */\n      callvalue\n        /* \"store.sol\":1382:1404  msg.value - totalPrice */\n      tag_175\n      swap2\n      swap1\n      tag_144\n      jump\t// in\n    tag_175:\n        /* \"store.sol\":1353:1405  payable(msg.sender).transfer(msg.value - totalPrice) */\n      swap1\n      dup2\n      iszero\n      mul\n      swap1\n      mload(0x40)\n      0x00\n      mload(0x40)\n      dup1\n      dup4\n      sub\n      dup2\n      dup6\n      dup9\n      dup9\n      call\n      swap4\n      pop\n      pop\n      pop\n      pop\n      iszero\n      dup1\n      iszero\n      tag_177\n      jumpi\n      returndatasize\n      0x00\n      dup1\n      returndatacopy\n      revert(0x00, returndatasize)\n    tag_177:\n      pop\n        /* \"store.sol\":1311:1416  if (msg.value > totalPrice) {... */\n    tag_174:\n        /* \"store.sol\":1013:1422  {... */\n      pop\n        /* \"store.sol\":951:1422  function buy(uint256 _id, uint256 _quantity) external payable {... */\n      pop\n      pop\n      jump\t// out\n        /* \"store.sol\":3293:3443  function getPrice(uint256 _id) public view returns(uint256) {... */\n    tag_78:\n        /* \"store.sol\":3344:3351  uint256 */\n      0x00\n        /* \"store.sol\":3363:3386  Product storage product */\n      dup1\n        /* \"store.sol\":3389:3406  _findProduct(_id) */\n      tag_179\n        /* \"store.sol\":3402:3405  _id */\n      dup4\n        /* \"store.sol\":3389:3401  _findProduct */\n      tag_101\n        /* \"store.sol\":3389:3406  _findProduct(_id) */\n      jump\t// in\n    tag_179:\n        /* \"store.sol\":3363:3406  Product storage product = _findProduct(_id) */\n      swap1\n      pop\n        /* \"store.sol\":3423:3430  product */\n      dup1\n        /* \"store.sol\":3423:3436  product.price */\n      0x03\n      add\n      sload\n        /* \"store.sol\":3416:3436  return product.price */\n      swap2\n      pop\n      pop\n        /* \"store.sol\":3293:3443  function getPrice(uint256 _id) public view returns(uint256) {... */\n      swap2\n      swap1\n      pop\n      jump\t// out\n        /* \"store.sol\":2703:2953  function deleteProduct(uint256 _id) external onlyOwner {... */\n    tag_83:\n        /* \"@openzeppelin/contracts/access/Ownable.sol\":1531:1544  _checkOwner() */\n      tag_181\n        /* \"@openzeppelin/contracts/access/Ownable.sol\":1531:1542  _checkOwner */\n      tag_91\n        /* \"@openzeppelin/contracts/access/Ownable.sol\":1531:1544  _checkOwner() */\n      jump\t// in\n    tag_181:\n        /* \"store.sol\":2769:2780  bool status */\n      0x00\n        /* \"store.sol\":2782:2795  uint256 index */\n      dup1\n        /* \"store.sol\":2799:2818  _findIndexById(_id) */\n      tag_183\n        /* \"store.sol\":2814:2817  _id */\n      dup4\n        /* \"store.sol\":2799:2813  _findIndexById */\n      tag_184\n        /* \"store.sol\":2799:2818  _findIndexById(_id) */\n      jump\t// in\n    tag_183:\n        /* \"store.sol\":2768:2818  (bool status, uint256 index) = _findIndexById(_id) */\n      swap2\n      pop\n      swap2\n      pop\n        /* \"store.sol\":2833:2839  status */\n      dup2\n        /* \"store.sol\":2828:2864  if (!status) revert IdDoesNotExist() */\n      tag_185\n      jumpi\n        /* \"store.sol\":2848:2864  IdDoesNotExist() */\n      mload(0x40)\n      0xc270964900000000000000000000000000000000000000000000000000000000\n      dup2\n      mstore\n      0x04\n      add\n      mload(0x40)\n      dup1\n      swap2\n      sub\n      swap1\n      revert\n        /* \"store.sol\":2828:2864  if (!status) revert IdDoesNotExist() */\n    tag_185:\n        /* \"store.sol\":2893:2901  products */\n      0x03\n        /* \"store.sol\":2920:2921  1 */\n      0x01\n        /* \"store.sol\":2902:2910  products */\n      0x03\n        /* \"store.sol\":2902:2917  products.length */\n      dup1\n      sload\n      swap1\n      pop\n        /* \"store.sol\":2902:2921  products.length - 1 */\n      tag_186\n      swap2\n      swap1\n      tag_144\n      jump\t// in\n    tag_186:\n        /* \"store.sol\":2893:2922  products[products.length - 1] */\n      dup2\n      sload\n      dup2\n      lt\n      tag_187\n      jumpi\n      tag_188\n      tag_121\n      jump\t// in\n    tag_188:\n    tag_187:\n      swap1\n      0x00\n      mstore\n      keccak256(0x00, 0x20)\n      swap1\n      0x04\n      mul\n      add\n        /* \"store.sol\":2875:2883  products */\n      0x03\n        /* \"store.sol\":2884:2889  index */\n      dup3\n        /* \"store.sol\":2875:2890  products[index] */\n      dup2\n      sload\n      dup2\n      lt\n      tag_190\n      jumpi\n      tag_191\n      tag_121\n      jump\t// in\n    tag_191:\n    tag_190:\n      swap1\n      0x00\n      mstore\n      keccak256(0x00, 0x20)\n      swap1\n      0x04\n      mul\n      add\n        /* \"store.sol\":2875:2922  products[index] = products[products.length - 1] */\n      0x00\n      dup3\n      add\n      dup2\n      0x00\n      add\n      swap1\n      dup2\n      tag_193\n      swap2\n      swap1\n      tag_194\n      jump\t// in\n    tag_193:\n      pop\n      0x01\n      dup3\n      add\n      sload\n      dup2\n      0x01\n      add\n      sstore\n      0x02\n      dup3\n      add\n      sload\n      dup2\n      0x02\n      add\n      sstore\n      0x03\n      dup3\n      add\n      sload\n      dup2\n      0x03\n      add\n      sstore\n      swap1\n      pop\n      pop\n        /* \"store.sol\":2932:2940  products */\n      0x03\n        /* \"store.sol\":2932:2946  products.pop() */\n      dup1\n      sload\n      dup1\n      tag_195\n      jumpi\n      tag_196\n      tag_197\n      jump\t// in\n    tag_196:\n    tag_195:\n      0x01\n      swap1\n      sub\n      dup2\n      dup2\n      swap1\n      0x00\n      mstore\n      keccak256(0x00, 0x20)\n      swap1\n      0x04\n      mul\n      add\n      0x00\n      dup1\n      dup3\n      add\n      0x00\n      tag_199\n      swap2\n      swap1\n      tag_200\n      jump\t// in\n    tag_199:\n      0x01\n      dup3\n      add\n      0x00\n      swap1\n      sstore\n      0x02\n      dup3\n      add\n      0x00\n      swap1\n      sstore\n      0x03\n      dup3\n      add\n      0x00\n      swap1\n      sstore\n      pop\n      pop\n      swap1\n      sstore\n        /* \"store.sol\":2758:2953  {... */\n      pop\n      pop\n        /* \"store.sol\":2703:2953  function deleteProduct(uint256 _id) external onlyOwner {... */\n      pop\n      jump\t// out\n        /* \"@openzeppelin/contracts/access/Ownable.sol\":2543:2758  function transferOwnership(address newOwner) public virtual onlyOwner {... */\n    tag_88:\n        /* \"@openzeppelin/contracts/access/Ownable.sol\":1531:1544  _checkOwner() */\n      tag_202\n        /* \"@openzeppelin/contracts/access/Ownable.sol\":1531:1542  _checkOwner */\n      tag_91\n        /* \"@openzeppelin/contracts/access/Ownable.sol\":1531:1544  _checkOwner() */\n      jump\t// in\n    tag_202:\n        /* \"@openzeppelin/contracts/access/Ownable.sol\":2647:2648  0 */\n      0x00\n        /* \"@openzeppelin/contracts/access/Ownable.sol\":2627:2649  newOwner == address(0) */\n      0xffffffffffffffffffffffffffffffffffffffff\n      and\n        /* \"@openzeppelin/contracts/access/Ownable.sol\":2627:2635  newOwner */\n      dup2\n        /* \"@openzeppelin/contracts/access/Ownable.sol\":2627:2649  newOwner == address(0) */\n      0xffffffffffffffffffffffffffffffffffffffff\n      and\n      sub\n        /* \"@openzeppelin/contracts/access/Ownable.sol\":2623:2714  if (newOwner == address(0)) {... */\n      tag_204\n      jumpi\n        /* \"@openzeppelin/contracts/access/Ownable.sol\":2700:2701  0 */\n      0x00\n        /* \"@openzeppelin/contracts/access/Ownable.sol\":2672:2703  OwnableInvalidOwner(address(0)) */\n      mload(0x40)\n      0x1e4fbdf700000000000000000000000000000000000000000000000000000000\n      dup2\n      mstore\n      0x04\n      add\n      tag_205\n      swap2\n      swap1\n      tag_62\n      jump\t// in\n    tag_205:\n      mload(0x40)\n      dup1\n      swap2\n      sub\n      swap1\n      revert\n        /* \"@openzeppelin/contracts/access/Ownable.sol\":2623:2714  if (newOwner == address(0)) {... */\n    tag_204:\n        /* \"@openzeppelin/contracts/access/Ownable.sol\":2723:2751  _transferOwnership(newOwner) */\n      tag_206\n        /* \"@openzeppelin/contracts/access/Ownable.sol\":2742:2750  newOwner */\n      dup2\n        /* \"@openzeppelin/contracts/access/Ownable.sol\":2723:2741  _transferOwnership */\n      tag_113\n        /* \"@openzeppelin/contracts/access/Ownable.sol\":2723:2751  _transferOwnership(newOwner) */\n      jump\t// in\n    tag_206:\n        /* \"@openzeppelin/contracts/access/Ownable.sol\":2543:2758  function transferOwnership(address newOwner) public virtual onlyOwner {... */\n      pop\n      jump\t// out\n        /* \"@openzeppelin/contracts/access/Ownable.sol\":1796:1958  function _checkOwner() internal view virtual {... */\n    tag_91:\n        /* \"@openzeppelin/contracts/access/Ownable.sol\":1866:1878  _msgSender() */\n      tag_208\n        /* \"@openzeppelin/contracts/access/Ownable.sol\":1866:1876  _msgSender */\n      tag_209\n        /* \"@openzeppelin/contracts/access/Ownable.sol\":1866:1878  _msgSender() */\n      jump\t// in\n    tag_208:\n        /* \"@openzeppelin/contracts/access/Ownable.sol\":1855:1878  owner() != _msgSender() */\n      0xffffffffffffffffffffffffffffffffffffffff\n      and\n        /* \"@openzeppelin/contracts/access/Ownable.sol\":1855:1862  owner() */\n      tag_210\n        /* \"@openzeppelin/contracts/access/Ownable.sol\":1855:1860  owner */\n      tag_60\n        /* \"@openzeppelin/contracts/access/Ownable.sol\":1855:1862  owner() */\n      jump\t// in\n    tag_210:\n        /* \"@openzeppelin/contracts/access/Ownable.sol\":1855:1878  owner() != _msgSender() */\n      0xffffffffffffffffffffffffffffffffffffffff\n      and\n      eq\n        /* \"@openzeppelin/contracts/access/Ownable.sol\":1851:1952  if (owner() != _msgSender()) {... */\n      tag_211\n      jumpi\n        /* \"@openzeppelin/contracts/access/Ownable.sol\":1928:1940  _msgSender() */\n      tag_212\n        /* \"@openzeppelin/contracts/access/Ownable.sol\":1928:1938  _msgSender */\n      tag_209\n        /* \"@openzeppelin/contracts/access/Ownable.sol\":1928:1940  _msgSender() */\n      jump\t// in\n    tag_212:\n        /* \"@openzeppelin/contracts/access/Ownable.sol\":1901:1941  OwnableUnauthorizedAccount(_msgSender()) */\n      mload(0x40)\n      0x118cdaa700000000000000000000000000000000000000000000000000000000\n      dup2\n      mstore\n      0x04\n      add\n      tag_213\n      swap2\n      swap1\n      tag_62\n      jump\t// in\n    tag_213:\n      mload(0x40)\n      dup1\n      swap2\n      sub\n      swap1\n      revert\n        /* \"@openzeppelin/contracts/access/Ownable.sol\":1851:1952  if (owner() != _msgSender()) {... */\n    tag_211:\n        /* \"@openzeppelin/contracts/access/Ownable.sol\":1796:1958  function _checkOwner() internal view virtual {... */\n      jump\t// out\n        /* \"store.sol\":4181:4386  function _isIdExist(uint256 _id) internal view returns(bool) {... */\n    tag_94:\n        /* \"store.sol\":4236:4240  bool */\n      0x00\n        /* \"store.sol\":4257:4263  uint i */\n      dup1\n        /* \"store.sol\":4266:4267  0 */\n      0x00\n        /* \"store.sol\":4257:4267  uint i = 0 */\n      swap1\n      pop\n        /* \"store.sol\":4252:4358  for (uint i = 0; i < products.length; i++) {... */\n    tag_215:\n        /* \"store.sol\":4273:4281  products */\n      0x03\n        /* \"store.sol\":4273:4288  products.length */\n      dup1\n      sload\n      swap1\n      pop\n        /* \"store.sol\":4269:4270  i */\n      dup2\n        /* \"store.sol\":4269:4288  i < products.length */\n      lt\n        /* \"store.sol\":4252:4358  for (uint i = 0; i < products.length; i++) {... */\n      iszero\n      tag_216\n      jumpi\n        /* \"store.sol\":4331:4334  _id */\n      dup3\n        /* \"store.sol\":4313:4321  products */\n      0x03\n        /* \"store.sol\":4322:4323  i */\n      dup3\n        /* \"store.sol\":4313:4324  products[i] */\n      dup2\n      sload\n      dup2\n      lt\n      tag_218\n      jumpi\n      tag_219\n      tag_121\n      jump\t// in\n    tag_219:\n    tag_218:\n      swap1\n      0x00\n      mstore\n      keccak256(0x00, 0x20)\n      swap1\n      0x04\n      mul\n      add\n        /* \"store.sol\":4313:4327  products[i].id */\n      0x01\n      add\n      sload\n        /* \"store.sol\":4313:4334  products[i].id == _id */\n      sub\n        /* \"store.sol\":4309:4347  if (products[i].id == _id) return true */\n      tag_221\n      jumpi\n        /* \"store.sol\":4343:4347  true */\n      0x01\n        /* \"store.sol\":4336:4347  return true */\n      swap2\n      pop\n      pop\n      jump(tag_214)\n        /* \"store.sol\":4309:4347  if (products[i].id == _id) return true */\n    tag_221:\n        /* \"store.sol\":4290:4293  i++ */\n      dup1\n      dup1\n      0x01\n      add\n      swap2\n      pop\n      pop\n        /* \"store.sol\":4252:4358  for (uint i = 0; i < products.length; i++) {... */\n      jump(tag_215)\n    tag_216:\n      pop\n        /* \"store.sol\":4374:4379  false */\n      0x00\n        /* \"store.sol\":4367:4379  return false */\n      swap1\n      pop\n        /* \"store.sol\":4181:4386  function _isIdExist(uint256 _id) internal view returns(bool) {... */\n    tag_214:\n      swap2\n      swap1\n      pop\n      jump\t// out\n        /* \"store.sol\":3605:3855  function _findProduct(uint256 _id) internal view returns(Product storage product) {... */\n    tag_101:\n        /* \"store.sol\":3662:3685  Product storage product */\n      0x00\n        /* \"store.sol\":3702:3708  uint i */\n      dup1\n        /* \"store.sol\":3711:3712  0 */\n      0x00\n        /* \"store.sol\":3702:3712  uint i = 0 */\n      swap1\n      pop\n        /* \"store.sol\":3697:3810  for (uint i = 0; i < products.length; i++) {... */\n    tag_223:\n        /* \"store.sol\":3718:3726  products */\n      0x03\n        /* \"store.sol\":3718:3733  products.length */\n      dup1\n      sload\n      swap1\n      pop\n        /* \"store.sol\":3714:3715  i */\n      dup2\n        /* \"store.sol\":3714:3733  i < products.length */\n      lt\n        /* \"store.sol\":3697:3810  for (uint i = 0; i < products.length; i++) {... */\n      iszero\n      tag_224\n      jumpi\n        /* \"store.sol\":3776:3779  _id */\n      dup3\n        /* \"store.sol\":3758:3766  products */\n      0x03\n        /* \"store.sol\":3767:3768  i */\n      dup3\n        /* \"store.sol\":3758:3769  products[i] */\n      dup2\n      sload\n      dup2\n      lt\n      tag_226\n      jumpi\n      tag_227\n      tag_121\n      jump\t// in\n    tag_227:\n    tag_226:\n      swap1\n      0x00\n      mstore\n      keccak256(0x00, 0x20)\n      swap1\n      0x04\n      mul\n      add\n        /* \"store.sol\":3758:3772  products[i].id */\n      0x01\n      add\n      sload\n        /* \"store.sol\":3758:3779  products[i].id == _id */\n      sub\n        /* \"store.sol\":3754:3799  if (products[i].id == _id) return products[i] */\n      tag_229\n      jumpi\n        /* \"store.sol\":3788:3796  products */\n      0x03\n        /* \"store.sol\":3797:3798  i */\n      dup2\n        /* \"store.sol\":3788:3799  products[i] */\n      dup2\n      sload\n      dup2\n      lt\n      tag_230\n      jumpi\n      tag_231\n      tag_121\n      jump\t// in\n    tag_231:\n    tag_230:\n      swap1\n      0x00\n      mstore\n      keccak256(0x00, 0x20)\n      swap1\n      0x04\n      mul\n      add\n        /* \"store.sol\":3781:3799  return products[i] */\n      swap2\n      pop\n      pop\n      jump(tag_222)\n        /* \"store.sol\":3754:3799  if (products[i].id == _id) return products[i] */\n    tag_229:\n        /* \"store.sol\":3735:3738  i++ */\n      dup1\n      dup1\n      0x01\n      add\n      swap2\n      pop\n      pop\n        /* \"store.sol\":3697:3810  for (uint i = 0; i < products.length; i++) {... */\n      jump(tag_223)\n    tag_224:\n      pop\n        /* \"store.sol\":3820:3848  revert (\"Product not found\") */\n      mload(0x40)\n      0x08c379a000000000000000000000000000000000000000000000000000000000\n      dup2\n      mstore\n      0x04\n      add\n      tag_233\n      swap1\n      tag_234\n      jump\t// in\n    tag_233:\n      mload(0x40)\n      dup1\n      swap2\n      sub\n      swap1\n      revert\n        /* \"store.sol\":3605:3855  function _findProduct(uint256 _id) internal view returns(Product storage product) {... */\n    tag_222:\n      swap2\n      swap1\n      pop\n      jump\t// out\n        /* \"@openzeppelin/contracts/access/Ownable.sol\":2912:3099  function _transferOwnership(address newOwner) internal virtual {... */\n    tag_113:\n        /* \"@openzeppelin/contracts/access/Ownable.sol\":2985:3001  address oldOwner */\n      0x00\n        /* \"@openzeppelin/contracts/access/Ownable.sol\":3004:3010  _owner */\n      dup1\n      0x00\n      swap1\n      sload\n      swap1\n      0x0100\n      exp\n      swap1\n      div\n      0xffffffffffffffffffffffffffffffffffffffff\n      and\n        /* \"@openzeppelin/contracts/access/Ownable.sol\":2985:3010  address oldOwner = _owner */\n      swap1\n      pop\n        /* \"@openzeppelin/contracts/access/Ownable.sol\":3029:3037  newOwner */\n      dup2\n        /* \"@openzeppelin/contracts/access/Ownable.sol\":3020:3026  _owner */\n      0x00\n      dup1\n        /* \"@openzeppelin/contracts/access/Ownable.sol\":3020:3037  _owner = newOwner */\n      0x0100\n      exp\n      dup2\n      sload\n      dup2\n      0xffffffffffffffffffffffffffffffffffffffff\n      mul\n      not\n      and\n      swap1\n      dup4\n      0xffffffffffffffffffffffffffffffffffffffff\n      and\n      mul\n      or\n      swap1\n      sstore\n      pop\n        /* \"@openzeppelin/contracts/access/Ownable.sol\":3083:3091  newOwner */\n      dup2\n        /* \"@openzeppelin/contracts/access/Ownable.sol\":3052:3092  OwnershipTransferred(oldOwner, newOwner) */\n      0xffffffffffffffffffffffffffffffffffffffff\n      and\n        /* \"@openzeppelin/contracts/access/Ownable.sol\":3073:3081  oldOwner */\n      dup2\n        /* \"@openzeppelin/contracts/access/Ownable.sol\":3052:3092  OwnershipTransferred(oldOwner, newOwner) */\n      0xffffffffffffffffffffffffffffffffffffffff\n      and\n      0x8be0079c531659141344cd1fd0a4f28419497f9722a3daafe3b4186f6b6457e0\n      mload(0x40)\n      mload(0x40)\n      dup1\n      swap2\n      sub\n      swap1\n      log3\n        /* \"@openzeppelin/contracts/access/Ownable.sol\":2975:3099  {... */\n      pop\n        /* \"@openzeppelin/contracts/access/Ownable.sol\":2912:3099  function _transferOwnership(address newOwner) internal virtual {... */\n      pop\n      jump\t// out\n        /* \"store.sol\":3861:4175  function _buyProcess(address _buyer, uint256 _id, uint256 _quantity) internal {... */\n    tag_141:\n        /* \"store.sol\":3949:3972  Product storage product */\n      0x00\n        /* \"store.sol\":3975:3992  _findProduct(_id) */\n      tag_237\n        /* \"store.sol\":3988:3991  _id */\n      dup4\n        /* \"store.sol\":3975:3987  _findProduct */\n      tag_101\n        /* \"store.sol\":3975:3992  _findProduct(_id) */\n      jump\t// in\n    tag_237:\n        /* \"store.sol\":3949:3992  Product storage product = _findProduct(_id) */\n      swap1\n      pop\n        /* \"store.sol\":4019:4028  _quantity */\n      dup2\n        /* \"store.sol\":4002:4009  product */\n      dup2\n        /* \"store.sol\":4002:4015  product.stock */\n      0x02\n      add\n      0x00\n        /* \"store.sol\":4002:4028  product.stock -= _quantity */\n      dup3\n      dup3\n      sload\n      tag_238\n      swap2\n      swap1\n      tag_144\n      jump\t// in\n    tag_238:\n      swap3\n      pop\n      pop\n      dup2\n      swap1\n      sstore\n      pop\n        /* \"store.sol\":4068:4077  _quantity */\n      dup2\n        /* \"store.sol\":4039:4051  userPurchase */\n      0x01\n        /* \"store.sol\":4039:4059  userPurchase[_buyer] */\n      0x00\n        /* \"store.sol\":4052:4058  _buyer */\n      dup7\n        /* \"store.sol\":4039:4059  userPurchase[_buyer] */\n      0xffffffffffffffffffffffffffffffffffffffff\n      and\n      0xffffffffffffffffffffffffffffffffffffffff\n      and\n      dup2\n      mstore\n      0x20\n      add\n      swap1\n      dup2\n      mstore\n      0x20\n      add\n      0x00\n      keccak256\n        /* \"store.sol\":4039:4064  userPurchase[_buyer][_id] */\n      0x00\n        /* \"store.sol\":4060:4063  _id */\n      dup6\n        /* \"store.sol\":4039:4064  userPurchase[_buyer][_id] */\n      dup2\n      mstore\n      0x20\n      add\n      swap1\n      dup2\n      mstore\n      0x20\n      add\n      0x00\n      keccak256\n      0x00\n        /* \"store.sol\":4039:4077  userPurchase[_buyer][_id] += _quantity */\n      dup3\n      dup3\n      sload\n      tag_239\n      swap2\n      swap1\n      tag_131\n      jump\t// in\n    tag_239:\n      swap3\n      pop\n      pop\n      dup2\n      swap1\n      sstore\n      pop\n        /* \"store.sol\":4111:4120  _quantity */\n      dup2\n        /* \"store.sol\":4087:4102  productPurchase */\n      0x02\n        /* \"store.sol\":4087:4107  productPurchase[_id] */\n      0x00\n        /* \"store.sol\":4103:4106  _id */\n      dup6\n        /* \"store.sol\":4087:4107  productPurchase[_id] */\n      dup2\n      mstore\n      0x20\n      add\n      swap1\n      dup2\n      mstore\n      0x20\n      add\n      0x00\n      keccak256\n      0x00\n        /* \"store.sol\":4087:4120  productPurchase[_id] += _quantity */\n      dup3\n      dup3\n      sload\n      tag_240\n      swap2\n      swap1\n      tag_131\n      jump\t// in\n    tag_240:\n      swap3\n      pop\n      pop\n      dup2\n      swap1\n      sstore\n      pop\n        /* \"store.sol\":4136:4168  Purchase(_buyer, _id, _quantity) */\n      0x12cb4648cf3058b17ceeb33e579f8b0bc269fe0843f3900b8e24b6c54871703c\n        /* \"store.sol\":4145:4151  _buyer */\n      dup5\n        /* \"store.sol\":4153:4156  _id */\n      dup5\n        /* \"store.sol\":4158:4167  _quantity */\n      dup5\n        /* \"store.sol\":4136:4168  Purchase(_buyer, _id, _quantity) */\n      mload(0x40)\n      tag_241\n      swap4\n      swap3\n      swap2\n      swap1\n      tag_242\n      jump\t// in\n    tag_241:\n      mload(0x40)\n      dup1\n      swap2\n      sub\n      swap1\n      log1\n        /* \"store.sol\":3939:4175  {... */\n      pop\n        /* \"store.sol\":3861:4175  function _buyProcess(address _buyer, uint256 _id, uint256 _quantity) internal {... */\n      pop\n      pop\n      pop\n      jump\t// out\n        /* \"store.sol\":4392:4620  function _findIndexById(uint256 _id) internal view returns(bool, uint256) {... */\n    tag_184:\n        /* \"store.sol\":4451:4455  bool */\n      0x00\n        /* \"store.sol\":4457:4464  uint256 */\n      dup1\n        /* \"store.sol\":4481:4487  uint i */\n      0x00\n        /* \"store.sol\":4476:4587  for (uint i = 0; i < products.length; i++) {... */\n    tag_244:\n        /* \"store.sol\":4497:4505  products */\n      0x03\n        /* \"store.sol\":4497:4512  products.length */\n      dup1\n      sload\n      swap1\n      pop\n        /* \"store.sol\":4493:4494  i */\n      dup2\n        /* \"store.sol\":4493:4512  i < products.length */\n      lt\n        /* \"store.sol\":4476:4587  for (uint i = 0; i < products.length; i++) {... */\n      iszero\n      tag_245\n      jumpi\n        /* \"store.sol\":4555:4558  _id */\n      dup4\n        /* \"store.sol\":4537:4545  products */\n      0x03\n        /* \"store.sol\":4546:4547  i */\n      dup3\n        /* \"store.sol\":4537:4548  products[i] */\n      dup2\n      sload\n      dup2\n      lt\n      tag_247\n      jumpi\n      tag_248\n      tag_121\n      jump\t// in\n    tag_248:\n    tag_247:\n      swap1\n      0x00\n      mstore\n      keccak256(0x00, 0x20)\n      swap1\n      0x04\n      mul\n      add\n        /* \"store.sol\":4537:4551  products[i].id */\n      0x01\n      add\n      sload\n        /* \"store.sol\":4537:4558  products[i].id == _id */\n      sub\n        /* \"store.sol\":4533:4576  if (products[i].id == _id) return (true, i) */\n      tag_250\n      jumpi\n        /* \"store.sol\":4568:4572  true */\n      0x01\n        /* \"store.sol\":4574:4575  i */\n      dup2\n        /* \"store.sol\":4560:4576  return (true, i) */\n      swap3\n      pop\n      swap3\n      pop\n      pop\n      jump(tag_243)\n        /* \"store.sol\":4533:4576  if (products[i].id == _id) return (true, i) */\n    tag_250:\n        /* \"store.sol\":4514:4517  i++ */\n      dup1\n      dup1\n      0x01\n      add\n      swap2\n      pop\n      pop\n        /* \"store.sol\":4476:4587  for (uint i = 0; i < products.length; i++) {... */\n      jump(tag_244)\n    tag_245:\n      pop\n        /* \"store.sol\":4604:4609  false */\n      0x00\n        /* \"store.sol\":4611:4612  0 */\n      dup1\n        /* \"store.sol\":4596:4613  return (false, 0) */\n      swap2\n      pop\n      swap2\n      pop\n        /* \"store.sol\":4392:4620  function _findIndexById(uint256 _id) internal view returns(bool, uint256) {... */\n    tag_243:\n      swap2\n      pop\n      swap2\n      jump\t// out\n        /* \"@openzeppelin/contracts/utils/Context.sol\":656:752  function _msgSender() internal view virtual returns (address) {... */\n    tag_209:\n        /* \"@openzeppelin/contracts/utils/Context.sol\":709:716  address */\n      0x00\n        /* \"@openzeppelin/contracts/utils/Context.sol\":735:745  msg.sender */\n      caller\n        /* \"@openzeppelin/contracts/utils/Context.sol\":728:745  return msg.sender */\n      swap1\n      pop\n        /* \"@openzeppelin/contracts/utils/Context.sol\":656:752  function _msgSender() internal view virtual returns (address) {... */\n      swap1\n      jump\t// out\n    tag_200:\n      pop\n      dup1\n      sload\n      tag_252\n      swap1\n      tag_161\n      jump\t// in\n    tag_252:\n      0x00\n      dup3\n      sstore\n      dup1\n      0x1f\n      lt\n      tag_254\n      jumpi\n      pop\n      jump(tag_253)\n    tag_254:\n      0x1f\n      add\n      0x20\n      swap1\n      div\n      swap1\n      0x00\n      mstore\n      keccak256(0x00, 0x20)\n      swap1\n      dup2\n      add\n      swap1\n      tag_255\n      swap2\n      swap1\n      tag_256\n      jump\t// in\n    tag_255:\n    tag_253:\n      pop\n      jump\t// out\n    tag_256:\n    tag_257:\n      dup1\n      dup3\n      gt\n      iszero\n      tag_258\n      jumpi\n      0x00\n      dup2\n      0x00\n      swap1\n      sstore\n      pop\n      0x01\n      add\n      jump(tag_257)\n    tag_258:\n      pop\n      swap1\n      jump\t// out\n        /* \"#utility.yul\":88:205   */\n    tag_260:\n        /* \"#utility.yul\":197:198   */\n      0x00\n        /* \"#utility.yul\":194:195   */\n      dup1\n        /* \"#utility.yul\":187:199   */\n      revert\n        /* \"#utility.yul\":211:328   */\n    tag_261:\n        /* \"#utility.yul\":320:321   */\n      0x00\n        /* \"#utility.yul\":317:318   */\n      dup1\n        /* \"#utility.yul\":310:322   */\n      revert\n        /* \"#utility.yul\":334:451   */\n    tag_262:\n        /* \"#utility.yul\":443:444   */\n      0x00\n        /* \"#utility.yul\":440:441   */\n      dup1\n        /* \"#utility.yul\":433:445   */\n      revert\n        /* \"#utility.yul\":457:574   */\n    tag_263:\n        /* \"#utility.yul\":566:567   */\n      0x00\n        /* \"#utility.yul\":563:564   */\n      dup1\n        /* \"#utility.yul\":556:568   */\n      revert\n        /* \"#utility.yul\":580:697   */\n    tag_264:\n        /* \"#utility.yul\":689:690   */\n      0x00\n        /* \"#utility.yul\":686:687   */\n      dup1\n        /* \"#utility.yul\":679:691   */\n      revert\n        /* \"#utility.yul\":717:1270   */\n    tag_265:\n        /* \"#utility.yul\":775:783   */\n      0x00\n        /* \"#utility.yul\":785:791   */\n      dup1\n        /* \"#utility.yul\":835:838   */\n      dup4\n        /* \"#utility.yul\":828:832   */\n      0x1f\n        /* \"#utility.yul\":820:826   */\n      dup5\n        /* \"#utility.yul\":816:833   */\n      add\n        /* \"#utility.yul\":812:839   */\n      slt\n        /* \"#utility.yul\":802:924   */\n      tag_319\n      jumpi\n        /* \"#utility.yul\":843:922   */\n      tag_320\n      tag_262\n      jump\t// in\n    tag_320:\n        /* \"#utility.yul\":802:924   */\n    tag_319:\n        /* \"#utility.yul\":956:962   */\n      dup3\n        /* \"#utility.yul\":943:963   */\n      calldataload\n        /* \"#utility.yul\":933:963   */\n      swap1\n      pop\n        /* \"#utility.yul\":986:1004   */\n      0xffffffffffffffff\n        /* \"#utility.yul\":978:984   */\n      dup2\n        /* \"#utility.yul\":975:1005   */\n      gt\n        /* \"#utility.yul\":972:1089   */\n      iszero\n      tag_321\n      jumpi\n        /* \"#utility.yul\":1008:1087   */\n      tag_322\n      tag_263\n      jump\t// in\n    tag_322:\n        /* \"#utility.yul\":972:1089   */\n    tag_321:\n        /* \"#utility.yul\":1122:1126   */\n      0x20\n        /* \"#utility.yul\":1114:1120   */\n      dup4\n        /* \"#utility.yul\":1110:1127   */\n      add\n        /* \"#utility.yul\":1098:1127   */\n      swap2\n      pop\n        /* \"#utility.yul\":1176:1179   */\n      dup4\n        /* \"#utility.yul\":1168:1172   */\n      0x01\n        /* \"#utility.yul\":1160:1166   */\n      dup3\n        /* \"#utility.yul\":1156:1173   */\n      mul\n        /* \"#utility.yul\":1146:1154   */\n      dup4\n        /* \"#utility.yul\":1142:1174   */\n      add\n        /* \"#utility.yul\":1139:1180   */\n      gt\n        /* \"#utility.yul\":1136:1264   */\n      iszero\n      tag_323\n      jumpi\n        /* \"#utility.yul\":1183:1262   */\n      tag_324\n      tag_264\n      jump\t// in\n    tag_324:\n        /* \"#utility.yul\":1136:1264   */\n    tag_323:\n        /* \"#utility.yul\":717:1270   */\n      swap3\n      pop\n      swap3\n      swap1\n      pop\n      jump\t// out\n        /* \"#utility.yul\":1276:1353   */\n    tag_266:\n        /* \"#utility.yul\":1313:1320   */\n      0x00\n        /* \"#utility.yul\":1342:1347   */\n      dup2\n        /* \"#utility.yul\":1331:1347   */\n      swap1\n      pop\n        /* \"#utility.yul\":1276:1353   */\n      swap2\n      swap1\n      pop\n      jump\t// out\n        /* \"#utility.yul\":1359:1481   */\n    tag_267:\n        /* \"#utility.yul\":1432:1456   */\n      tag_327\n        /* \"#utility.yul\":1450:1455   */\n      dup2\n        /* \"#utility.yul\":1432:1456   */\n      tag_266\n      jump\t// in\n    tag_327:\n        /* \"#utility.yul\":1425:1430   */\n      dup2\n        /* \"#utility.yul\":1422:1457   */\n      eq\n        /* \"#utility.yul\":1412:1475   */\n      tag_328\n      jumpi\n        /* \"#utility.yul\":1471:1472   */\n      0x00\n        /* \"#utility.yul\":1468:1469   */\n      dup1\n        /* \"#utility.yul\":1461:1473   */\n      revert\n        /* \"#utility.yul\":1412:1475   */\n    tag_328:\n        /* \"#utility.yul\":1359:1481   */\n      pop\n      jump\t// out\n        /* \"#utility.yul\":1487:1626   */\n    tag_268:\n        /* \"#utility.yul\":1533:1538   */\n      0x00\n        /* \"#utility.yul\":1571:1577   */\n      dup2\n        /* \"#utility.yul\":1558:1578   */\n      calldataload\n        /* \"#utility.yul\":1549:1578   */\n      swap1\n      pop\n        /* \"#utility.yul\":1587:1620   */\n      tag_330\n        /* \"#utility.yul\":1614:1619   */\n      dup2\n        /* \"#utility.yul\":1587:1620   */\n      tag_267\n      jump\t// in\n    tag_330:\n        /* \"#utility.yul\":1487:1626   */\n      swap3\n      swap2\n      pop\n      pop\n      jump\t// out\n        /* \"#utility.yul\":1632:2597   */\n    tag_23:\n        /* \"#utility.yul\":1730:1736   */\n      0x00\n        /* \"#utility.yul\":1738:1744   */\n      dup1\n        /* \"#utility.yul\":1746:1752   */\n      0x00\n        /* \"#utility.yul\":1754:1760   */\n      dup1\n        /* \"#utility.yul\":1762:1768   */\n      0x00\n        /* \"#utility.yul\":1811:1814   */\n      0x80\n        /* \"#utility.yul\":1799:1808   */\n      dup7\n        /* \"#utility.yul\":1790:1797   */\n      dup9\n        /* \"#utility.yul\":1786:1809   */\n      sub\n        /* \"#utility.yul\":1782:1815   */\n      slt\n        /* \"#utility.yul\":1779:1899   */\n      iszero\n      tag_332\n      jumpi\n        /* \"#utility.yul\":1818:1897   */\n      tag_333\n      tag_260\n      jump\t// in\n    tag_333:\n        /* \"#utility.yul\":1779:1899   */\n    tag_332:\n        /* \"#utility.yul\":1966:1967   */\n      0x00\n        /* \"#utility.yul\":1955:1964   */\n      dup7\n        /* \"#utility.yul\":1951:1968   */\n      add\n        /* \"#utility.yul\":1938:1969   */\n      calldataload\n        /* \"#utility.yul\":1996:2014   */\n      0xffffffffffffffff\n        /* \"#utility.yul\":1988:1994   */\n      dup2\n        /* \"#utility.yul\":1985:2015   */\n      gt\n        /* \"#utility.yul\":1982:2099   */\n      iszero\n      tag_334\n      jumpi\n        /* \"#utility.yul\":2018:2097   */\n      tag_335\n      tag_261\n      jump\t// in\n    tag_335:\n        /* \"#utility.yul\":1982:2099   */\n    tag_334:\n        /* \"#utility.yul\":2131:2196   */\n      tag_336\n        /* \"#utility.yul\":2188:2195   */\n      dup9\n        /* \"#utility.yul\":2179:2185   */\n      dup3\n        /* \"#utility.yul\":2168:2177   */\n      dup10\n        /* \"#utility.yul\":2164:2186   */\n      add\n        /* \"#utility.yul\":2131:2196   */\n      tag_265\n      jump\t// in\n    tag_336:\n        /* \"#utility.yul\":2113:2196   */\n      swap6\n      pop\n      swap6\n      pop\n        /* \"#utility.yul\":1909:2206   */\n      pop\n        /* \"#utility.yul\":2245:2247   */\n      0x20\n        /* \"#utility.yul\":2271:2324   */\n      tag_337\n        /* \"#utility.yul\":2316:2323   */\n      dup9\n        /* \"#utility.yul\":2307:2313   */\n      dup3\n        /* \"#utility.yul\":2296:2305   */\n      dup10\n        /* \"#utility.yul\":2292:2314   */\n      add\n        /* \"#utility.yul\":2271:2324   */\n      tag_268\n      jump\t// in\n    tag_337:\n        /* \"#utility.yul\":2261:2324   */\n      swap4\n      pop\n        /* \"#utility.yul\":2216:2334   */\n      pop\n        /* \"#utility.yul\":2373:2375   */\n      0x40\n        /* \"#utility.yul\":2399:2452   */\n      tag_338\n        /* \"#utility.yul\":2444:2451   */\n      dup9\n        /* \"#utility.yul\":2435:2441   */\n      dup3\n        /* \"#utility.yul\":2424:2433   */\n      dup10\n        /* \"#utility.yul\":2420:2442   */\n      add\n        /* \"#utility.yul\":2399:2452   */\n      tag_268\n      jump\t// in\n    tag_338:\n        /* \"#utility.yul\":2389:2452   */\n      swap3\n      pop\n        /* \"#utility.yul\":2344:2462   */\n      pop\n        /* \"#utility.yul\":2501:2503   */\n      0x60\n        /* \"#utility.yul\":2527:2580   */\n      tag_339\n        /* \"#utility.yul\":2572:2579   */\n      dup9\n        /* \"#utility.yul\":2563:2569   */\n      dup3\n        /* \"#utility.yul\":2552:2561   */\n      dup10\n        /* \"#utility.yul\":2548:2570   */\n      add\n        /* \"#utility.yul\":2527:2580   */\n      tag_268\n      jump\t// in\n    tag_339:\n        /* \"#utility.yul\":2517:2580   */\n      swap2\n      pop\n        /* \"#utility.yul\":2472:2590   */\n      pop\n        /* \"#utility.yul\":1632:2597   */\n      swap3\n      swap6\n      pop\n      swap3\n      swap6\n      swap1\n      swap4\n      pop\n      jump\t// out\n        /* \"#utility.yul\":2603:2932   */\n    tag_28:\n        /* \"#utility.yul\":2662:2668   */\n      0x00\n        /* \"#utility.yul\":2711:2713   */\n      0x20\n        /* \"#utility.yul\":2699:2708   */\n      dup3\n        /* \"#utility.yul\":2690:2697   */\n      dup5\n        /* \"#utility.yul\":2686:2709   */\n      sub\n        /* \"#utility.yul\":2682:2714   */\n      slt\n        /* \"#utility.yul\":2679:2798   */\n      iszero\n      tag_341\n      jumpi\n        /* \"#utility.yul\":2717:2796   */\n      tag_342\n      tag_260\n      jump\t// in\n    tag_342:\n        /* \"#utility.yul\":2679:2798   */\n    tag_341:\n        /* \"#utility.yul\":2837:2838   */\n      0x00\n        /* \"#utility.yul\":2862:2915   */\n      tag_343\n        /* \"#utility.yul\":2907:2914   */\n      dup5\n        /* \"#utility.yul\":2898:2904   */\n      dup3\n        /* \"#utility.yul\":2887:2896   */\n      dup6\n        /* \"#utility.yul\":2883:2905   */\n      add\n        /* \"#utility.yul\":2862:2915   */\n      tag_268\n      jump\t// in\n    tag_343:\n        /* \"#utility.yul\":2852:2915   */\n      swap2\n      pop\n        /* \"#utility.yul\":2808:2925   */\n      pop\n        /* \"#utility.yul\":2603:2932   */\n      swap3\n      swap2\n      pop\n      pop\n      jump\t// out\n        /* \"#utility.yul\":2938:3056   */\n    tag_269:\n        /* \"#utility.yul\":3025:3049   */\n      tag_345\n        /* \"#utility.yul\":3043:3048   */\n      dup2\n        /* \"#utility.yul\":3025:3049   */\n      tag_266\n      jump\t// in\n    tag_345:\n        /* \"#utility.yul\":3020:3023   */\n      dup3\n        /* \"#utility.yul\":3013:3050   */\n      mstore\n        /* \"#utility.yul\":2938:3056   */\n      pop\n      pop\n      jump\t// out\n        /* \"#utility.yul\":3062:3284   */\n    tag_31:\n        /* \"#utility.yul\":3155:3159   */\n      0x00\n        /* \"#utility.yul\":3193:3195   */\n      0x20\n        /* \"#utility.yul\":3182:3191   */\n      dup3\n        /* \"#utility.yul\":3178:3196   */\n      add\n        /* \"#utility.yul\":3170:3196   */\n      swap1\n      pop\n        /* \"#utility.yul\":3206:3277   */\n      tag_347\n        /* \"#utility.yul\":3274:3275   */\n      0x00\n        /* \"#utility.yul\":3263:3272   */\n      dup4\n        /* \"#utility.yul\":3259:3276   */\n      add\n        /* \"#utility.yul\":3250:3256   */\n      dup5\n        /* \"#utility.yul\":3206:3277   */\n      tag_269\n      jump\t// in\n    tag_347:\n        /* \"#utility.yul\":3062:3284   */\n      swap3\n      swap2\n      pop\n      pop\n      jump\t// out\n        /* \"#utility.yul\":3290:3416   */\n    tag_270:\n        /* \"#utility.yul\":3327:3334   */\n      0x00\n        /* \"#utility.yul\":3367:3409   */\n      0xffffffffffffffffffffffffffffffffffffffff\n        /* \"#utility.yul\":3360:3365   */\n      dup3\n        /* \"#utility.yul\":3356:3410   */\n      and\n        /* \"#utility.yul\":3345:3410   */\n      swap1\n      pop\n        /* \"#utility.yul\":3290:3416   */\n      swap2\n      swap1\n      pop\n      jump\t// out\n        /* \"#utility.yul\":3422:3518   */\n    tag_271:\n        /* \"#utility.yul\":3459:3466   */\n      0x00\n        /* \"#utility.yul\":3488:3512   */\n      tag_350\n        /* \"#utility.yul\":3506:3511   */\n      dup3\n        /* \"#utility.yul\":3488:3512   */\n      tag_270\n      jump\t// in\n    tag_350:\n        /* \"#utility.yul\":3477:3512   */\n      swap1\n      pop\n        /* \"#utility.yul\":3422:3518   */\n      swap2\n      swap1\n      pop\n      jump\t// out\n        /* \"#utility.yul\":3524:3646   */\n    tag_272:\n        /* \"#utility.yul\":3597:3621   */\n      tag_352\n        /* \"#utility.yul\":3615:3620   */\n      dup2\n        /* \"#utility.yul\":3597:3621   */\n      tag_271\n      jump\t// in\n    tag_352:\n        /* \"#utility.yul\":3590:3595   */\n      dup2\n        /* \"#utility.yul\":3587:3622   */\n      eq\n        /* \"#utility.yul\":3577:3640   */\n      tag_353\n      jumpi\n        /* \"#utility.yul\":3636:3637   */\n      0x00\n        /* \"#utility.yul\":3633:3634   */\n      dup1\n        /* \"#utility.yul\":3626:3638   */\n      revert\n        /* \"#utility.yul\":3577:3640   */\n    tag_353:\n        /* \"#utility.yul\":3524:3646   */\n      pop\n      jump\t// out\n        /* \"#utility.yul\":3652:3791   */\n    tag_273:\n        /* \"#utility.yul\":3698:3703   */\n      0x00\n        /* \"#utility.yul\":3736:3742   */\n      dup2\n        /* \"#utility.yul\":3723:3743   */\n      calldataload\n        /* \"#utility.yul\":3714:3743   */\n      swap1\n      pop\n        /* \"#utility.yul\":3752:3785   */\n      tag_355\n        /* \"#utility.yul\":3779:3784   */\n      dup2\n        /* \"#utility.yul\":3752:3785   */\n      tag_272\n      jump\t// in\n    tag_355:\n        /* \"#utility.yul\":3652:3791   */\n      swap3\n      swap2\n      pop\n      pop\n      jump\t// out\n        /* \"#utility.yul\":3797:4271   */\n    tag_43:\n        /* \"#utility.yul\":3865:3871   */\n      0x00\n        /* \"#utility.yul\":3873:3879   */\n      dup1\n        /* \"#utility.yul\":3922:3924   */\n      0x40\n        /* \"#utility.yul\":3910:3919   */\n      dup4\n        /* \"#utility.yul\":3901:3908   */\n      dup6\n        /* \"#utility.yul\":3897:3920   */\n      sub\n        /* \"#utility.yul\":3893:3925   */\n      slt\n        /* \"#utility.yul\":3890:4009   */\n      iszero\n      tag_357\n      jumpi\n        /* \"#utility.yul\":3928:4007   */\n      tag_358\n      tag_260\n      jump\t// in\n    tag_358:\n        /* \"#utility.yul\":3890:4009   */\n    tag_357:\n        /* \"#utility.yul\":4048:4049   */\n      0x00\n        /* \"#utility.yul\":4073:4126   */\n      tag_359\n        /* \"#utility.yul\":4118:4125   */\n      dup6\n        /* \"#utility.yul\":4109:4115   */\n      dup3\n        /* \"#utility.yul\":4098:4107   */\n      dup7\n        /* \"#utility.yul\":4094:4116   */\n      add\n        /* \"#utility.yul\":4073:4126   */\n      tag_273\n      jump\t// in\n    tag_359:\n        /* \"#utility.yul\":4063:4126   */\n      swap3\n      pop\n        /* \"#utility.yul\":4019:4136   */\n      pop\n        /* \"#utility.yul\":4175:4177   */\n      0x20\n        /* \"#utility.yul\":4201:4254   */\n      tag_360\n        /* \"#utility.yul\":4246:4253   */\n      dup6\n        /* \"#utility.yul\":4237:4243   */\n      dup3\n        /* \"#utility.yul\":4226:4235   */\n      dup7\n        /* \"#utility.yul\":4222:4244   */\n      add\n        /* \"#utility.yul\":4201:4254   */\n      tag_268\n      jump\t// in\n    tag_360:\n        /* \"#utility.yul\":4191:4254   */\n      swap2\n      pop\n        /* \"#utility.yul\":4146:4264   */\n      pop\n        /* \"#utility.yul\":3797:4271   */\n      swap3\n      pop\n      swap3\n      swap1\n      pop\n      jump\t// out\n        /* \"#utility.yul\":4294:4862   */\n    tag_274:\n        /* \"#utility.yul\":4367:4375   */\n      0x00\n        /* \"#utility.yul\":4377:4383   */\n      dup1\n        /* \"#utility.yul\":4427:4430   */\n      dup4\n        /* \"#utility.yul\":4420:4424   */\n      0x1f\n        /* \"#utility.yul\":4412:4418   */\n      dup5\n        /* \"#utility.yul\":4408:4425   */\n      add\n        /* \"#utility.yul\":4404:4431   */\n      slt\n        /* \"#utility.yul\":4394:4516   */\n      tag_362\n      jumpi\n        /* \"#utility.yul\":4435:4514   */\n      tag_363\n      tag_262\n      jump\t// in\n    tag_363:\n        /* \"#utility.yul\":4394:4516   */\n    tag_362:\n        /* \"#utility.yul\":4548:4554   */\n      dup3\n        /* \"#utility.yul\":4535:4555   */\n      calldataload\n        /* \"#utility.yul\":4525:4555   */\n      swap1\n      pop\n        /* \"#utility.yul\":4578:4596   */\n      0xffffffffffffffff\n        /* \"#utility.yul\":4570:4576   */\n      dup2\n        /* \"#utility.yul\":4567:4597   */\n      gt\n        /* \"#utility.yul\":4564:4681   */\n      iszero\n      tag_364\n      jumpi\n        /* \"#utility.yul\":4600:4679   */\n      tag_365\n      tag_263\n      jump\t// in\n    tag_365:\n        /* \"#utility.yul\":4564:4681   */\n    tag_364:\n        /* \"#utility.yul\":4714:4718   */\n      0x20\n        /* \"#utility.yul\":4706:4712   */\n      dup4\n        /* \"#utility.yul\":4702:4719   */\n      add\n        /* \"#utility.yul\":4690:4719   */\n      swap2\n      pop\n        /* \"#utility.yul\":4768:4771   */\n      dup4\n        /* \"#utility.yul\":4760:4764   */\n      0x20\n        /* \"#utility.yul\":4752:4758   */\n      dup3\n        /* \"#utility.yul\":4748:4765   */\n      mul\n        /* \"#utility.yul\":4738:4746   */\n      dup4\n        /* \"#utility.yul\":4734:4766   */\n      add\n        /* \"#utility.yul\":4731:4772   */\n      gt\n        /* \"#utility.yul\":4728:4856   */\n      iszero\n      tag_366\n      jumpi\n        /* \"#utility.yul\":4775:4854   */\n      tag_367\n      tag_264\n      jump\t// in\n    tag_367:\n        /* \"#utility.yul\":4728:4856   */\n    tag_366:\n        /* \"#utility.yul\":4294:4862   */\n      swap3\n      pop\n      swap3\n      swap1\n      pop\n      jump\t// out\n        /* \"#utility.yul\":4868:5802   */\n    tag_51:\n        /* \"#utility.yul\":4990:4996   */\n      0x00\n        /* \"#utility.yul\":4998:5004   */\n      dup1\n        /* \"#utility.yul\":5006:5012   */\n      0x00\n        /* \"#utility.yul\":5014:5020   */\n      dup1\n        /* \"#utility.yul\":5063:5065   */\n      0x40\n        /* \"#utility.yul\":5051:5060   */\n      dup6\n        /* \"#utility.yul\":5042:5049   */\n      dup8\n        /* \"#utility.yul\":5038:5061   */\n      sub\n        /* \"#utility.yul\":5034:5066   */\n      slt\n        /* \"#utility.yul\":5031:5150   */\n      iszero\n      tag_369\n      jumpi\n        /* \"#utility.yul\":5069:5148   */\n      tag_370\n      tag_260\n      jump\t// in\n    tag_370:\n        /* \"#utility.yul\":5031:5150   */\n    tag_369:\n        /* \"#utility.yul\":5217:5218   */\n      0x00\n        /* \"#utility.yul\":5206:5215   */\n      dup6\n        /* \"#utility.yul\":5202:5219   */\n      add\n        /* \"#utility.yul\":5189:5220   */\n      calldataload\n        /* \"#utility.yul\":5247:5265   */\n      0xffffffffffffffff\n        /* \"#utility.yul\":5239:5245   */\n      dup2\n        /* \"#utility.yul\":5236:5266   */\n      gt\n        /* \"#utility.yul\":5233:5350   */\n      iszero\n      tag_371\n      jumpi\n        /* \"#utility.yul\":5269:5348   */\n      tag_372\n      tag_261\n      jump\t// in\n    tag_372:\n        /* \"#utility.yul\":5233:5350   */\n    tag_371:\n        /* \"#utility.yul\":5382:5462   */\n      tag_373\n        /* \"#utility.yul\":5454:5461   */\n      dup8\n        /* \"#utility.yul\":5445:5451   */\n      dup3\n        /* \"#utility.yul\":5434:5443   */\n      dup9\n        /* \"#utility.yul\":5430:5452   */\n      add\n        /* \"#utility.yul\":5382:5462   */\n      tag_274\n      jump\t// in\n    tag_373:\n        /* \"#utility.yul\":5364:5462   */\n      swap5\n      pop\n      swap5\n      pop\n        /* \"#utility.yul\":5160:5472   */\n      pop\n        /* \"#utility.yul\":5539:5541   */\n      0x20\n        /* \"#utility.yul\":5528:5537   */\n      dup6\n        /* \"#utility.yul\":5524:5542   */\n      add\n        /* \"#utility.yul\":5511:5543   */\n      calldataload\n        /* \"#utility.yul\":5570:5588   */\n      0xffffffffffffffff\n        /* \"#utility.yul\":5562:5568   */\n      dup2\n        /* \"#utility.yul\":5559:5589   */\n      gt\n        /* \"#utility.yul\":5556:5673   */\n      iszero\n      tag_374\n      jumpi\n        /* \"#utility.yul\":5592:5671   */\n      tag_375\n      tag_261\n      jump\t// in\n    tag_375:\n        /* \"#utility.yul\":5556:5673   */\n    tag_374:\n        /* \"#utility.yul\":5705:5785   */\n      tag_376\n        /* \"#utility.yul\":5777:5784   */\n      dup8\n        /* \"#utility.yul\":5768:5774   */\n      dup3\n        /* \"#utility.yul\":5757:5766   */\n      dup9\n        /* \"#utility.yul\":5753:5775   */\n      add\n        /* \"#utility.yul\":5705:5785   */\n      tag_274\n      jump\t// in\n    tag_376:\n        /* \"#utility.yul\":5687:5785   */\n      swap3\n      pop\n      swap3\n      pop\n        /* \"#utility.yul\":5482:5795   */\n      pop\n        /* \"#utility.yul\":4868:5802   */\n      swap3\n      swap6\n      swap2\n      swap5\n      pop\n      swap3\n      pop\n      jump\t// out\n        /* \"#utility.yul\":5808:6282   */\n    tag_56:\n        /* \"#utility.yul\":5876:5882   */\n      0x00\n        /* \"#utility.yul\":5884:5890   */\n      dup1\n        /* \"#utility.yul\":5933:5935   */\n      0x40\n        /* \"#utility.yul\":5921:5930   */\n      dup4\n        /* \"#utility.yul\":5912:5919   */\n      dup6\n        /* \"#utility.yul\":5908:5931   */\n      sub\n        /* \"#utility.yul\":5904:5936   */\n      slt\n        /* \"#utility.yul\":5901:6020   */\n      iszero\n      tag_378\n      jumpi\n        /* \"#utility.yul\":5939:6018   */\n      tag_379\n      tag_260\n      jump\t// in\n    tag_379:\n        /* \"#utility.yul\":5901:6020   */\n    tag_378:\n        /* \"#utility.yul\":6059:6060   */\n      0x00\n        /* \"#utility.yul\":6084:6137   */\n      tag_380\n        /* \"#utility.yul\":6129:6136   */\n      dup6\n        /* \"#utility.yul\":6120:6126   */\n      dup3\n        /* \"#utility.yul\":6109:6118   */\n      dup7\n        /* \"#utility.yul\":6105:6127   */\n      add\n        /* \"#utility.yul\":6084:6137   */\n      tag_268\n      jump\t// in\n    tag_380:\n        /* \"#utility.yul\":6074:6137   */\n      swap3\n      pop\n        /* \"#utility.yul\":6030:6147   */\n      pop\n        /* \"#utility.yul\":6186:6188   */\n      0x20\n        /* \"#utility.yul\":6212:6265   */\n      tag_381\n        /* \"#utility.yul\":6257:6264   */\n      dup6\n        /* \"#utility.yul\":6248:6254   */\n      dup3\n        /* \"#utility.yul\":6237:6246   */\n      dup7\n        /* \"#utility.yul\":6233:6255   */\n      add\n        /* \"#utility.yul\":6212:6265   */\n      tag_268\n      jump\t// in\n    tag_381:\n        /* \"#utility.yul\":6202:6265   */\n      swap2\n      pop\n        /* \"#utility.yul\":6157:6275   */\n      pop\n        /* \"#utility.yul\":5808:6282   */\n      swap3\n      pop\n      swap3\n      swap1\n      pop\n      jump\t// out\n        /* \"#utility.yul\":6288:6406   */\n    tag_275:\n        /* \"#utility.yul\":6375:6399   */\n      tag_383\n        /* \"#utility.yul\":6393:6398   */\n      dup2\n        /* \"#utility.yul\":6375:6399   */\n      tag_271\n      jump\t// in\n    tag_383:\n        /* \"#utility.yul\":6370:6373   */\n      dup3\n        /* \"#utility.yul\":6363:6400   */\n      mstore\n        /* \"#utility.yul\":6288:6406   */\n      pop\n      pop\n      jump\t// out\n        /* \"#utility.yul\":6412:6634   */\n    tag_62:\n        /* \"#utility.yul\":6505:6509   */\n      0x00\n        /* \"#utility.yul\":6543:6545   */\n      0x20\n        /* \"#utility.yul\":6532:6541   */\n      dup3\n        /* \"#utility.yul\":6528:6546   */\n      add\n        /* \"#utility.yul\":6520:6546   */\n      swap1\n      pop\n        /* \"#utility.yul\":6556:6627   */\n      tag_385\n        /* \"#utility.yul\":6624:6625   */\n      0x00\n        /* \"#utility.yul\":6613:6622   */\n      dup4\n        /* \"#utility.yul\":6609:6626   */\n      add\n        /* \"#utility.yul\":6600:6606   */\n      dup5\n        /* \"#utility.yul\":6556:6627   */\n      tag_275\n      jump\t// in\n    tag_385:\n        /* \"#utility.yul\":6412:6634   */\n      swap3\n      swap2\n      pop\n      pop\n      jump\t// out\n        /* \"#utility.yul\":6640:6778   */\n    tag_276:\n        /* \"#utility.yul\":6731:6737   */\n      0x00\n        /* \"#utility.yul\":6765:6770   */\n      dup2\n        /* \"#utility.yul\":6759:6771   */\n      mload\n        /* \"#utility.yul\":6749:6771   */\n      swap1\n      pop\n        /* \"#utility.yul\":6640:6778   */\n      swap2\n      swap1\n      pop\n      jump\t// out\n        /* \"#utility.yul\":6784:6992   */\n    tag_277:\n        /* \"#utility.yul\":6907:6918   */\n      0x00\n        /* \"#utility.yul\":6941:6947   */\n      dup3\n        /* \"#utility.yul\":6936:6939   */\n      dup3\n        /* \"#utility.yul\":6929:6948   */\n      mstore\n        /* \"#utility.yul\":6981:6985   */\n      0x20\n        /* \"#utility.yul\":6976:6979   */\n      dup3\n        /* \"#utility.yul\":6972:6986   */\n      add\n        /* \"#utility.yul\":6957:6986   */\n      swap1\n      pop\n        /* \"#utility.yul\":6784:6992   */\n      swap3\n      swap2\n      pop\n      pop\n      jump\t// out\n        /* \"#utility.yul\":6998:7154   */\n    tag_278:\n        /* \"#utility.yul\":7089:7093   */\n      0x00\n        /* \"#utility.yul\":7112:7115   */\n      dup2\n        /* \"#utility.yul\":7104:7115   */\n      swap1\n      pop\n        /* \"#utility.yul\":7142:7146   */\n      0x20\n        /* \"#utility.yul\":7137:7140   */\n      dup3\n        /* \"#utility.yul\":7133:7147   */\n      add\n        /* \"#utility.yul\":7125:7147   */\n      swap1\n      pop\n        /* \"#utility.yul\":6998:7154   */\n      swap2\n      swap1\n      pop\n      jump\t// out\n        /* \"#utility.yul\":7160:7259   */\n    tag_279:\n        /* \"#utility.yul\":7212:7218   */\n      0x00\n        /* \"#utility.yul\":7246:7251   */\n      dup2\n        /* \"#utility.yul\":7240:7252   */\n      mload\n        /* \"#utility.yul\":7230:7252   */\n      swap1\n      pop\n        /* \"#utility.yul\":7160:7259   */\n      swap2\n      swap1\n      pop\n      jump\t// out\n        /* \"#utility.yul\":7265:7424   */\n    tag_280:\n        /* \"#utility.yul\":7339:7350   */\n      0x00\n        /* \"#utility.yul\":7373:7379   */\n      dup3\n        /* \"#utility.yul\":7368:7371   */\n      dup3\n        /* \"#utility.yul\":7361:7380   */\n      mstore\n        /* \"#utility.yul\":7413:7417   */\n      0x20\n        /* \"#utility.yul\":7408:7411   */\n      dup3\n        /* \"#utility.yul\":7404:7418   */\n      add\n        /* \"#utility.yul\":7389:7418   */\n      swap1\n      pop\n        /* \"#utility.yul\":7265:7424   */\n      swap3\n      swap2\n      pop\n      pop\n      jump\t// out\n        /* \"#utility.yul\":7430:7569   */\n    tag_281:\n        /* \"#utility.yul\":7519:7525   */\n      dup3\n        /* \"#utility.yul\":7514:7517   */\n      dup2\n        /* \"#utility.yul\":7509:7512   */\n      dup4\n        /* \"#utility.yul\":7503:7526   */\n      mcopy\n        /* \"#utility.yul\":7560:7561   */\n      0x00\n        /* \"#utility.yul\":7551:7557   */\n      dup4\n        /* \"#utility.yul\":7546:7549   */\n      dup4\n        /* \"#utility.yul\":7542:7558   */\n      add\n        /* \"#utility.yul\":7535:7562   */\n      mstore\n        /* \"#utility.yul\":7430:7569   */\n      pop\n      pop\n      pop\n      jump\t// out\n        /* \"#utility.yul\":7575:7677   */\n    tag_282:\n        /* \"#utility.yul\":7616:7622   */\n      0x00\n        /* \"#utility.yul\":7667:7669   */\n      0x1f\n        /* \"#utility.yul\":7663:7670   */\n      not\n        /* \"#utility.yul\":7658:7660   */\n      0x1f\n        /* \"#utility.yul\":7651:7656   */\n      dup4\n        /* \"#utility.yul\":7647:7661   */\n      add\n        /* \"#utility.yul\":7643:7671   */\n      and\n        /* \"#utility.yul\":7633:7671   */\n      swap1\n      pop\n        /* \"#utility.yul\":7575:7677   */\n      swap2\n      swap1\n      pop\n      jump\t// out\n        /* \"#utility.yul\":7683:8040   */\n    tag_283:\n        /* \"#utility.yul\":7761:7764   */\n      0x00\n        /* \"#utility.yul\":7789:7828   */\n      tag_394\n        /* \"#utility.yul\":7822:7827   */\n      dup3\n        /* \"#utility.yul\":7789:7828   */\n      tag_279\n      jump\t// in\n    tag_394:\n        /* \"#utility.yul\":7844:7905   */\n      tag_395\n        /* \"#utility.yul\":7898:7904   */\n      dup2\n        /* \"#utility.yul\":7893:7896   */\n      dup6\n        /* \"#utility.yul\":7844:7905   */\n      tag_280\n      jump\t// in\n    tag_395:\n        /* \"#utility.yul\":7837:7905   */\n      swap4\n      pop\n        /* \"#utility.yul\":7914:7979   */\n      tag_396\n        /* \"#utility.yul\":7972:7978   */\n      dup2\n        /* \"#utility.yul\":7967:7970   */\n      dup6\n        /* \"#utility.yul\":7960:7964   */\n      0x20\n        /* \"#utility.yul\":7953:7958   */\n      dup7\n        /* \"#utility.yul\":7949:7965   */\n      add\n        /* \"#utility.yul\":7914:7979   */\n      tag_281\n      jump\t// in\n    tag_396:\n        /* \"#utility.yul\":8004:8033   */\n      tag_397\n        /* \"#utility.yul\":8026:8032   */\n      dup2\n        /* \"#utility.yul\":8004:8033   */\n      tag_282\n      jump\t// in\n    tag_397:\n        /* \"#utility.yul\":7999:8002   */\n      dup5\n        /* \"#utility.yul\":7995:8034   */\n      add\n        /* \"#utility.yul\":7988:8034   */\n      swap2\n      pop\n        /* \"#utility.yul\":7765:8040   */\n      pop\n        /* \"#utility.yul\":7683:8040   */\n      swap3\n      swap2\n      pop\n      pop\n      jump\t// out\n        /* \"#utility.yul\":8046:8154   */\n    tag_284:\n        /* \"#utility.yul\":8123:8147   */\n      tag_399\n        /* \"#utility.yul\":8141:8146   */\n      dup2\n        /* \"#utility.yul\":8123:8147   */\n      tag_266\n      jump\t// in\n    tag_399:\n        /* \"#utility.yul\":8118:8121   */\n      dup3\n        /* \"#utility.yul\":8111:8148   */\n      mstore\n        /* \"#utility.yul\":8046:8154   */\n      pop\n      pop\n      jump\t// out\n        /* \"#utility.yul\":8212:9154   */\n    tag_285:\n        /* \"#utility.yul\":8319:8322   */\n      0x00\n        /* \"#utility.yul\":8355:8359   */\n      0x80\n        /* \"#utility.yul\":8350:8353   */\n      dup4\n        /* \"#utility.yul\":8346:8360   */\n      add\n        /* \"#utility.yul\":8442:8446   */\n      0x00\n        /* \"#utility.yul\":8435:8440   */\n      dup4\n        /* \"#utility.yul\":8431:8447   */\n      add\n        /* \"#utility.yul\":8425:8448   */\n      mload\n        /* \"#utility.yul\":8495:8498   */\n      dup5\n        /* \"#utility.yul\":8489:8493   */\n      dup3\n        /* \"#utility.yul\":8485:8499   */\n      sub\n        /* \"#utility.yul\":8478:8482   */\n      0x00\n        /* \"#utility.yul\":8473:8476   */\n      dup7\n        /* \"#utility.yul\":8469:8483   */\n      add\n        /* \"#utility.yul\":8462:8500   */\n      mstore\n        /* \"#utility.yul\":8521:8594   */\n      tag_401\n        /* \"#utility.yul\":8589:8593   */\n      dup3\n        /* \"#utility.yul\":8575:8587   */\n      dup3\n        /* \"#utility.yul\":8521:8594   */\n      tag_283\n      jump\t// in\n    tag_401:\n        /* \"#utility.yul\":8513:8594   */\n      swap2\n      pop\n        /* \"#utility.yul\":8370:8605   */\n      pop\n        /* \"#utility.yul\":8685:8689   */\n      0x20\n        /* \"#utility.yul\":8678:8683   */\n      dup4\n        /* \"#utility.yul\":8674:8690   */\n      add\n        /* \"#utility.yul\":8668:8691   */\n      mload\n        /* \"#utility.yul\":8704:8767   */\n      tag_402\n        /* \"#utility.yul\":8761:8765   */\n      0x20\n        /* \"#utility.yul\":8756:8759   */\n      dup7\n        /* \"#utility.yul\":8752:8766   */\n      add\n        /* \"#utility.yul\":8738:8750   */\n      dup3\n        /* \"#utility.yul\":8704:8767   */\n      tag_284\n      jump\t// in\n    tag_402:\n        /* \"#utility.yul\":8615:8777   */\n      pop\n        /* \"#utility.yul\":8860:8864   */\n      0x40\n        /* \"#utility.yul\":8853:8858   */\n      dup4\n        /* \"#utility.yul\":8849:8865   */\n      add\n        /* \"#utility.yul\":8843:8866   */\n      mload\n        /* \"#utility.yul\":8879:8942   */\n      tag_403\n        /* \"#utility.yul\":8936:8940   */\n      0x40\n        /* \"#utility.yul\":8931:8934   */\n      dup7\n        /* \"#utility.yul\":8927:8941   */\n      add\n        /* \"#utility.yul\":8913:8925   */\n      dup3\n        /* \"#utility.yul\":8879:8942   */\n      tag_284\n      jump\t// in\n    tag_403:\n        /* \"#utility.yul\":8787:8952   */\n      pop\n        /* \"#utility.yul\":9035:9039   */\n      0x60\n        /* \"#utility.yul\":9028:9033   */\n      dup4\n        /* \"#utility.yul\":9024:9040   */\n      add\n        /* \"#utility.yul\":9018:9041   */\n      mload\n        /* \"#utility.yul\":9054:9117   */\n      tag_404\n        /* \"#utility.yul\":9111:9115   */\n      0x60\n        /* \"#utility.yul\":9106:9109   */\n      dup7\n        /* \"#utility.yul\":9102:9116   */\n      add\n        /* \"#utility.yul\":9088:9100   */\n      dup3\n        /* \"#utility.yul\":9054:9117   */\n      tag_284\n      jump\t// in\n    tag_404:\n        /* \"#utility.yul\":8962:9127   */\n      pop\n        /* \"#utility.yul\":9144:9148   */\n      dup1\n        /* \"#utility.yul\":9137:9148   */\n      swap2\n      pop\n        /* \"#utility.yul\":8324:9154   */\n      pop\n        /* \"#utility.yul\":8212:9154   */\n      swap3\n      swap2\n      pop\n      pop\n      jump\t// out\n        /* \"#utility.yul\":9160:9412   */\n    tag_286:\n        /* \"#utility.yul\":9277:9287   */\n      0x00\n        /* \"#utility.yul\":9312:9406   */\n      tag_406\n        /* \"#utility.yul\":9402:9405   */\n      dup4\n        /* \"#utility.yul\":9394:9400   */\n      dup4\n        /* \"#utility.yul\":9312:9406   */\n      tag_285\n      jump\t// in\n    tag_406:\n        /* \"#utility.yul\":9298:9406   */\n      swap1\n      pop\n        /* \"#utility.yul\":9160:9412   */\n      swap3\n      swap2\n      pop\n      pop\n      jump\t// out\n        /* \"#utility.yul\":9418:9555   */\n    tag_287:\n        /* \"#utility.yul\":9512:9516   */\n      0x00\n        /* \"#utility.yul\":9544:9548   */\n      0x20\n        /* \"#utility.yul\":9539:9542   */\n      dup3\n        /* \"#utility.yul\":9535:9549   */\n      add\n        /* \"#utility.yul\":9527:9549   */\n      swap1\n      pop\n        /* \"#utility.yul\":9418:9555   */\n      swap2\n      swap1\n      pop\n      jump\t// out\n        /* \"#utility.yul\":9617:10720   */\n    tag_288:\n        /* \"#utility.yul\":9784:9787   */\n      0x00\n        /* \"#utility.yul\":9813:9891   */\n      tag_409\n        /* \"#utility.yul\":9885:9890   */\n      dup3\n        /* \"#utility.yul\":9813:9891   */\n      tag_276\n      jump\t// in\n    tag_409:\n        /* \"#utility.yul\":9907:10017   */\n      tag_410\n        /* \"#utility.yul\":10010:10016   */\n      dup2\n        /* \"#utility.yul\":10005:10008   */\n      dup6\n        /* \"#utility.yul\":9907:10017   */\n      tag_277\n      jump\t// in\n    tag_410:\n        /* \"#utility.yul\":9900:10017   */\n      swap4\n      pop\n        /* \"#utility.yul\":10043:10046   */\n      dup4\n        /* \"#utility.yul\":10088:10092   */\n      0x20\n        /* \"#utility.yul\":10080:10086   */\n      dup3\n        /* \"#utility.yul\":10076:10093   */\n      mul\n        /* \"#utility.yul\":10071:10074   */\n      dup6\n        /* \"#utility.yul\":10067:10094   */\n      add\n        /* \"#utility.yul\":10118:10198   */\n      tag_411\n        /* \"#utility.yul\":10192:10197   */\n      dup6\n        /* \"#utility.yul\":10118:10198   */\n      tag_278\n      jump\t// in\n    tag_411:\n        /* \"#utility.yul\":10221:10228   */\n      dup1\n        /* \"#utility.yul\":10252:10253   */\n      0x00\n        /* \"#utility.yul\":10237:10675   */\n    tag_412:\n        /* \"#utility.yul\":10262:10268   */\n      dup6\n        /* \"#utility.yul\":10259:10260   */\n      dup2\n        /* \"#utility.yul\":10256:10269   */\n      lt\n        /* \"#utility.yul\":10237:10675   */\n      iszero\n      tag_414\n      jumpi\n        /* \"#utility.yul\":10333:10342   */\n      dup5\n        /* \"#utility.yul\":10327:10331   */\n      dup5\n        /* \"#utility.yul\":10323:10343   */\n      sub\n        /* \"#utility.yul\":10318:10321   */\n      dup10\n        /* \"#utility.yul\":10311:10344   */\n      mstore\n        /* \"#utility.yul\":10384:10390   */\n      dup2\n        /* \"#utility.yul\":10378:10391   */\n      mload\n        /* \"#utility.yul\":10412:10524   */\n      tag_415\n        /* \"#utility.yul\":10519:10523   */\n      dup6\n        /* \"#utility.yul\":10504:10517   */\n      dup3\n        /* \"#utility.yul\":10412:10524   */\n      tag_286\n      jump\t// in\n    tag_415:\n        /* \"#utility.yul\":10404:10524   */\n      swap5\n      pop\n        /* \"#utility.yul\":10547:10631   */\n      tag_416\n        /* \"#utility.yul\":10624:10630   */\n      dup4\n        /* \"#utility.yul\":10547:10631   */\n      tag_287\n      jump\t// in\n    tag_416:\n        /* \"#utility.yul\":10537:10631   */\n      swap3\n      pop\n        /* \"#utility.yul\":10660:10664   */\n      0x20\n        /* \"#utility.yul\":10655:10658   */\n      dup11\n        /* \"#utility.yul\":10651:10665   */\n      add\n        /* \"#utility.yul\":10644:10665   */\n      swap10\n      pop\n        /* \"#utility.yul\":10297:10675   */\n      pop\n        /* \"#utility.yul\":10284:10285   */\n      0x01\n        /* \"#utility.yul\":10281:10282   */\n      dup2\n        /* \"#utility.yul\":10277:10286   */\n      add\n        /* \"#utility.yul\":10272:10286   */\n      swap1\n      pop\n        /* \"#utility.yul\":10237:10675   */\n      jump(tag_412)\n    tag_414:\n        /* \"#utility.yul\":10241:10255   */\n      pop\n        /* \"#utility.yul\":10691:10695   */\n      dup3\n        /* \"#utility.yul\":10684:10695   */\n      swap8\n      pop\n        /* \"#utility.yul\":10711:10714   */\n      dup8\n        /* \"#utility.yul\":10704:10714   */\n      swap6\n      pop\n        /* \"#utility.yul\":9789:10720   */\n      pop\n      pop\n      pop\n      pop\n      pop\n        /* \"#utility.yul\":9617:10720   */\n      swap3\n      swap2\n      pop\n      pop\n      jump\t// out\n        /* \"#utility.yul\":10726:11195   */\n    tag_71:\n        /* \"#utility.yul\":10917:10921   */\n      0x00\n        /* \"#utility.yul\":10955:10957   */\n      0x20\n        /* \"#utility.yul\":10944:10953   */\n      dup3\n        /* \"#utility.yul\":10940:10958   */\n      add\n        /* \"#utility.yul\":10932:10958   */\n      swap1\n      pop\n        /* \"#utility.yul\":11004:11013   */\n      dup2\n        /* \"#utility.yul\":10998:11002   */\n      dup2\n        /* \"#utility.yul\":10994:11014   */\n      sub\n        /* \"#utility.yul\":10990:10991   */\n      0x00\n        /* \"#utility.yul\":10979:10988   */\n      dup4\n        /* \"#utility.yul\":10975:10992   */\n      add\n        /* \"#utility.yul\":10968:11015   */\n      mstore\n        /* \"#utility.yul\":11032:11188   */\n      tag_418\n        /* \"#utility.yul\":11183:11187   */\n      dup2\n        /* \"#utility.yul\":11174:11180   */\n      dup5\n        /* \"#utility.yul\":11032:11188   */\n      tag_288\n      jump\t// in\n    tag_418:\n        /* \"#utility.yul\":11024:11188   */\n      swap1\n      pop\n        /* \"#utility.yul\":10726:11195   */\n      swap3\n      swap2\n      pop\n      pop\n      jump\t// out\n        /* \"#utility.yul\":11201:11530   */\n    tag_87:\n        /* \"#utility.yul\":11260:11266   */\n      0x00\n        /* \"#utility.yul\":11309:11311   */\n      0x20\n        /* \"#utility.yul\":11297:11306   */\n      dup3\n        /* \"#utility.yul\":11288:11295   */\n      dup5\n        /* \"#utility.yul\":11284:11307   */\n      sub\n        /* \"#utility.yul\":11280:11312   */\n      slt\n        /* \"#utility.yul\":11277:11396   */\n      iszero\n      tag_420\n      jumpi\n        /* \"#utility.yul\":11315:11394   */\n      tag_421\n      tag_260\n      jump\t// in\n    tag_421:\n        /* \"#utility.yul\":11277:11396   */\n    tag_420:\n        /* \"#utility.yul\":11435:11436   */\n      0x00\n        /* \"#utility.yul\":11460:11513   */\n      tag_422\n        /* \"#utility.yul\":11505:11512   */\n      dup5\n        /* \"#utility.yul\":11496:11502   */\n      dup3\n        /* \"#utility.yul\":11485:11494   */\n      dup6\n        /* \"#utility.yul\":11481:11503   */\n      add\n        /* \"#utility.yul\":11460:11513   */\n      tag_273\n      jump\t// in\n    tag_422:\n        /* \"#utility.yul\":11450:11513   */\n      swap2\n      pop\n        /* \"#utility.yul\":11406:11523   */\n      pop\n        /* \"#utility.yul\":11201:11530   */\n      swap3\n      swap2\n      pop\n      pop\n      jump\t// out\n        /* \"#utility.yul\":11536:11716   */\n    tag_289:\n        /* \"#utility.yul\":11584:11661   */\n      0x4e487b7100000000000000000000000000000000000000000000000000000000\n        /* \"#utility.yul\":11581:11582   */\n      0x00\n        /* \"#utility.yul\":11574:11662   */\n      mstore\n        /* \"#utility.yul\":11681:11685   */\n      0x41\n        /* \"#utility.yul\":11678:11679   */\n      0x04\n        /* \"#utility.yul\":11671:11686   */\n      mstore\n        /* \"#utility.yul\":11705:11709   */\n      0x24\n        /* \"#utility.yul\":11702:11703   */\n      0x00\n        /* \"#utility.yul\":11695:11710   */\n      revert\n        /* \"#utility.yul\":11722:11902   */\n    tag_290:\n        /* \"#utility.yul\":11770:11847   */\n      0x4e487b7100000000000000000000000000000000000000000000000000000000\n        /* \"#utility.yul\":11767:11768   */\n      0x00\n        /* \"#utility.yul\":11760:11848   */\n      mstore\n        /* \"#utility.yul\":11867:11871   */\n      0x22\n        /* \"#utility.yul\":11864:11865   */\n      0x04\n        /* \"#utility.yul\":11857:11872   */\n      mstore\n        /* \"#utility.yul\":11891:11895   */\n      0x24\n        /* \"#utility.yul\":11888:11889   */\n      0x00\n        /* \"#utility.yul\":11881:11896   */\n      revert\n        /* \"#utility.yul\":11908:12228   */\n    tag_161:\n        /* \"#utility.yul\":11952:11958   */\n      0x00\n        /* \"#utility.yul\":11989:11990   */\n      0x02\n        /* \"#utility.yul\":11983:11987   */\n      dup3\n        /* \"#utility.yul\":11979:11991   */\n      div\n        /* \"#utility.yul\":11969:11991   */\n      swap1\n      pop\n        /* \"#utility.yul\":12036:12037   */\n      0x01\n        /* \"#utility.yul\":12030:12034   */\n      dup3\n        /* \"#utility.yul\":12026:12038   */\n      and\n        /* \"#utility.yul\":12057:12075   */\n      dup1\n        /* \"#utility.yul\":12047:12128   */\n      tag_426\n      jumpi\n        /* \"#utility.yul\":12113:12117   */\n      0x7f\n        /* \"#utility.yul\":12105:12111   */\n      dup3\n        /* \"#utility.yul\":12101:12118   */\n      and\n        /* \"#utility.yul\":12091:12118   */\n      swap2\n      pop\n        /* \"#utility.yul\":12047:12128   */\n    tag_426:\n        /* \"#utility.yul\":12175:12177   */\n      0x20\n        /* \"#utility.yul\":12167:12173   */\n      dup3\n        /* \"#utility.yul\":12164:12178   */\n      lt\n        /* \"#utility.yul\":12144:12162   */\n      dup2\n        /* \"#utility.yul\":12141:12179   */\n      sub\n        /* \"#utility.yul\":12138:12222   */\n      tag_427\n      jumpi\n        /* \"#utility.yul\":12194:12212   */\n      tag_428\n      tag_290\n      jump\t// in\n    tag_428:\n        /* \"#utility.yul\":12138:12222   */\n    tag_427:\n        /* \"#utility.yul\":11959:12228   */\n      pop\n        /* \"#utility.yul\":11908:12228   */\n      swap2\n      swap1\n      pop\n      jump\t// out\n        /* \"#utility.yul\":12234:12375   */\n    tag_291:\n        /* \"#utility.yul\":12283:12287   */\n      0x00\n        /* \"#utility.yul\":12306:12309   */\n      dup2\n        /* \"#utility.yul\":12298:12309   */\n      swap1\n      pop\n        /* \"#utility.yul\":12329:12332   */\n      dup2\n        /* \"#utility.yul\":12326:12327   */\n      0x00\n        /* \"#utility.yul\":12319:12333   */\n      mstore\n        /* \"#utility.yul\":12363:12367   */\n      0x20\n        /* \"#utility.yul\":12360:12361   */\n      0x00\n        /* \"#utility.yul\":12350:12368   */\n      keccak256\n        /* \"#utility.yul\":12342:12368   */\n      swap1\n      pop\n        /* \"#utility.yul\":12234:12375   */\n      swap2\n      swap1\n      pop\n      jump\t// out\n        /* \"#utility.yul\":12381:12474   */\n    tag_292:\n        /* \"#utility.yul\":12418:12424   */\n      0x00\n        /* \"#utility.yul\":12465:12467   */\n      0x20\n        /* \"#utility.yul\":12460:12462   */\n      0x1f\n        /* \"#utility.yul\":12453:12458   */\n      dup4\n        /* \"#utility.yul\":12449:12463   */\n      add\n        /* \"#utility.yul\":12445:12468   */\n      div\n        /* \"#utility.yul\":12435:12468   */\n      swap1\n      pop\n        /* \"#utility.yul\":12381:12474   */\n      swap2\n      swap1\n      pop\n      jump\t// out\n        /* \"#utility.yul\":12480:12587   */\n    tag_293:\n        /* \"#utility.yul\":12524:12532   */\n      0x00\n        /* \"#utility.yul\":12574:12579   */\n      dup3\n        /* \"#utility.yul\":12568:12572   */\n      dup3\n        /* \"#utility.yul\":12564:12580   */\n      shl\n        /* \"#utility.yul\":12543:12580   */\n      swap1\n      pop\n        /* \"#utility.yul\":12480:12587   */\n      swap3\n      swap2\n      pop\n      pop\n      jump\t// out\n        /* \"#utility.yul\":12593:12986   */\n    tag_294:\n        /* \"#utility.yul\":12662:12668   */\n      0x00\n        /* \"#utility.yul\":12712:12713   */\n      0x08\n        /* \"#utility.yul\":12700:12710   */\n      dup4\n        /* \"#utility.yul\":12696:12714   */\n      mul\n        /* \"#utility.yul\":12735:12832   */\n      tag_433\n        /* \"#utility.yul\":12765:12831   */\n      0xffffffffffffffffffffffffffffffffffffffffffffffffffffffffffffffff\n        /* \"#utility.yul\":12754:12763   */\n      dup3\n        /* \"#utility.yul\":12735:12832   */\n      tag_293\n      jump\t// in\n    tag_433:\n        /* \"#utility.yul\":12853:12892   */\n      tag_434\n        /* \"#utility.yul\":12883:12891   */\n      dup7\n        /* \"#utility.yul\":12872:12881   */\n      dup4\n        /* \"#utility.yul\":12853:12892   */\n      tag_293\n      jump\t// in\n    tag_434:\n        /* \"#utility.yul\":12841:12892   */\n      swap6\n      pop\n        /* \"#utility.yul\":12925:12929   */\n      dup1\n        /* \"#utility.yul\":12921:12930   */\n      not\n        /* \"#utility.yul\":12914:12919   */\n      dup5\n        /* \"#utility.yul\":12910:12931   */\n      and\n        /* \"#utility.yul\":12901:12931   */\n      swap4\n      pop\n        /* \"#utility.yul\":12974:12978   */\n      dup1\n        /* \"#utility.yul\":12964:12972   */\n      dup7\n        /* \"#utility.yul\":12960:12979   */\n      and\n        /* \"#utility.yul\":12953:12958   */\n      dup5\n        /* \"#utility.yul\":12950:12980   */\n      or\n        /* \"#utility.yul\":12940:12980   */\n      swap3\n      pop\n        /* \"#utility.yul\":12669:12986   */\n      pop\n      pop\n        /* \"#utility.yul\":12593:12986   */\n      swap4\n      swap3\n      pop\n      pop\n      pop\n      jump\t// out\n        /* \"#utility.yul\":12992:13052   */\n    tag_295:\n        /* \"#utility.yul\":13020:13023   */\n      0x00\n        /* \"#utility.yul\":13041:13046   */\n      dup2\n        /* \"#utility.yul\":13034:13046   */\n      swap1\n      pop\n        /* \"#utility.yul\":12992:13052   */\n      swap2\n      swap1\n      pop\n      jump\t// out\n        /* \"#utility.yul\":13058:13200   */\n    tag_296:\n        /* \"#utility.yul\":13108:13117   */\n      0x00\n        /* \"#utility.yul\":13141:13194   */\n      tag_437\n        /* \"#utility.yul\":13159:13193   */\n      tag_438\n        /* \"#utility.yul\":13168:13192   */\n      tag_439\n        /* \"#utility.yul\":13186:13191   */\n      dup5\n        /* \"#utility.yul\":13168:13192   */\n      tag_266\n      jump\t// in\n    tag_439:\n        /* \"#utility.yul\":13159:13193   */\n      tag_295\n      jump\t// in\n    tag_438:\n        /* \"#utility.yul\":13141:13194   */\n      tag_266\n      jump\t// in\n    tag_437:\n        /* \"#utility.yul\":13128:13194   */\n      swap1\n      pop\n        /* \"#utility.yul\":13058:13200   */\n      swap2\n      swap1\n      pop\n      jump\t// out\n        /* \"#utility.yul\":13206:13281   */\n    tag_297:\n        /* \"#utility.yul\":13249:13252   */\n      0x00\n        /* \"#utility.yul\":13270:13275   */\n      dup2\n        /* \"#utility.yul\":13263:13275   */\n      swap1\n      pop\n        /* \"#utility.yul\":13206:13281   */\n      swap2\n      swap1\n      pop\n      jump\t// out\n        /* \"#utility.yul\":13287:13556   */\n    tag_298:\n        /* \"#utility.yul\":13397:13436   */\n      tag_442\n        /* \"#utility.yul\":13428:13435   */\n      dup4\n        /* \"#utility.yul\":13397:13436   */\n      tag_296\n      jump\t// in\n    tag_442:\n        /* \"#utility.yul\":13458:13549   */\n      tag_443\n        /* \"#utility.yul\":13507:13548   */\n      tag_444\n        /* \"#utility.yul\":13531:13547   */\n      dup3\n        /* \"#utility.yul\":13507:13548   */\n      tag_297\n      jump\t// in\n    tag_444:\n        /* \"#utility.yul\":13499:13505   */\n      dup5\n        /* \"#utility.yul\":13492:13496   */\n      dup5\n        /* \"#utility.yul\":13486:13497   */\n      sload\n        /* \"#utility.yul\":13458:13549   */\n      tag_294\n      jump\t// in\n    tag_443:\n        /* \"#utility.yul\":13452:13456   */\n      dup3\n        /* \"#utility.yul\":13445:13550   */\n      sstore\n        /* \"#utility.yul\":13363:13556   */\n      pop\n        /* \"#utility.yul\":13287:13556   */\n      pop\n      pop\n      pop\n      jump\t// out\n        /* \"#utility.yul\":13562:13635   */\n    tag_299:\n        /* \"#utility.yul\":13607:13610   */\n      0x00\n        /* \"#utility.yul\":13562:13635   */\n      swap1\n      jump\t// out\n        /* \"#utility.yul\":13641:13830   */\n    tag_300:\n        /* \"#utility.yul\":13718:13750   */\n      tag_447\n      tag_299\n      jump\t// in\n    tag_447:\n        /* \"#utility.yul\":13759:13824   */\n      tag_448\n        /* \"#utility.yul\":13817:13823   */\n      dup2\n        /* \"#utility.yul\":13809:13815   */\n      dup5\n        /* \"#utility.yul\":13803:13807   */\n      dup5\n        /* \"#utility.yul\":13759:13824   */\n      tag_298\n      jump\t// in\n    tag_448:\n        /* \"#utility.yul\":13694:13830   */\n      pop\n        /* \"#utility.yul\":13641:13830   */\n      pop\n      pop\n      jump\t// out\n        /* \"#utility.yul\":13836:14022   */\n    tag_301:\n        /* \"#utility.yul\":13896:14016   */\n    tag_450:\n        /* \"#utility.yul\":13913:13916   */\n      dup2\n        /* \"#utility.yul\":13906:13911   */\n      dup2\n        /* \"#utility.yul\":13903:13917   */\n      lt\n        /* \"#utility.yul\":13896:14016   */\n      iszero\n      tag_452\n      jumpi\n        /* \"#utility.yul\":13967:14006   */\n      tag_453\n        /* \"#utility.yul\":14004:14005   */\n      0x00\n        /* \"#utility.yul\":13997:14002   */\n      dup3\n        /* \"#utility.yul\":13967:14006   */\n      tag_300\n      jump\t// in\n    tag_453:\n        /* \"#utility.yul\":13940:13941   */\n      0x01\n        /* \"#utility.yul\":13933:13938   */\n      dup2\n        /* \"#utility.yul\":13929:13942   */\n      add\n        /* \"#utility.yul\":13920:13942   */\n      swap1\n      pop\n        /* \"#utility.yul\":13896:14016   */\n      jump(tag_450)\n    tag_452:\n        /* \"#utility.yul\":13836:14022   */\n      pop\n      pop\n      jump\t// out\n        /* \"#utility.yul\":14028:14571   */\n    tag_302:\n        /* \"#utility.yul\":14129:14131   */\n      0x1f\n        /* \"#utility.yul\":14124:14127   */\n      dup3\n        /* \"#utility.yul\":14121:14132   */\n      gt\n        /* \"#utility.yul\":14118:14564   */\n      iszero\n      tag_455\n      jumpi\n        /* \"#utility.yul\":14163:14201   */\n      tag_456\n        /* \"#utility.yul\":14195:14200   */\n      dup2\n        /* \"#utility.yul\":14163:14201   */\n      tag_291\n      jump\t// in\n    tag_456:\n        /* \"#utility.yul\":14247:14276   */\n      tag_457\n        /* \"#utility.yul\":14265:14275   */\n      dup5\n        /* \"#utility.yul\":14247:14276   */\n      tag_292\n      jump\t// in\n    tag_457:\n        /* \"#utility.yul\":14237:14245   */\n      dup2\n        /* \"#utility.yul\":14233:14277   */\n      add\n        /* \"#utility.yul\":14430:14432   */\n      0x20\n        /* \"#utility.yul\":14418:14428   */\n      dup6\n        /* \"#utility.yul\":14415:14433   */\n      lt\n        /* \"#utility.yul\":14412:14461   */\n      iszero\n      tag_458\n      jumpi\n        /* \"#utility.yul\":14451:14459   */\n      dup2\n        /* \"#utility.yul\":14436:14459   */\n      swap1\n      pop\n        /* \"#utility.yul\":14412:14461   */\n    tag_458:\n        /* \"#utility.yul\":14474:14554   */\n      tag_459\n        /* \"#utility.yul\":14530:14552   */\n      tag_460\n        /* \"#utility.yul\":14548:14551   */\n      dup6\n        /* \"#utility.yul\":14530:14552   */\n      tag_292\n      jump\t// in\n    tag_460:\n        /* \"#utility.yul\":14520:14528   */\n      dup4\n        /* \"#utility.yul\":14516:14553   */\n      add\n        /* \"#utility.yul\":14503:14514   */\n      dup3\n        /* \"#utility.yul\":14474:14554   */\n      tag_301\n      jump\t// in\n    tag_459:\n        /* \"#utility.yul\":14133:14564   */\n      pop\n      pop\n        /* \"#utility.yul\":14118:14564   */\n    tag_455:\n        /* \"#utility.yul\":14028:14571   */\n      pop\n      pop\n      pop\n      jump\t// out\n        /* \"#utility.yul\":14577:14694   */\n    tag_303:\n        /* \"#utility.yul\":14631:14639   */\n      0x00\n        /* \"#utility.yul\":14681:14686   */\n      dup3\n        /* \"#utility.yul\":14675:14679   */\n      dup3\n        /* \"#utility.yul\":14671:14687   */\n      shr\n        /* \"#utility.yul\":14650:14687   */\n      swap1\n      pop\n        /* \"#utility.yul\":14577:14694   */\n      swap3\n      swap2\n      pop\n      pop\n      jump\t// out\n        /* \"#utility.yul\":14700:14869   */\n    tag_304:\n        /* \"#utility.yul\":14744:14750   */\n      0x00\n        /* \"#utility.yul\":14777:14828   */\n      tag_463\n        /* \"#utility.yul\":14825:14826   */\n      0x00\n        /* \"#utility.yul\":14821:14827   */\n      not\n        /* \"#utility.yul\":14813:14818   */\n      dup5\n        /* \"#utility.yul\":14810:14811   */\n      0x08\n        /* \"#utility.yul\":14806:14819   */\n      mul\n        /* \"#utility.yul\":14777:14828   */\n      tag_303\n      jump\t// in\n    tag_463:\n        /* \"#utility.yul\":14773:14829   */\n      not\n        /* \"#utility.yul\":14858:14862   */\n      dup1\n        /* \"#utility.yul\":14852:14856   */\n      dup4\n        /* \"#utility.yul\":14848:14863   */\n      and\n        /* \"#utility.yul\":14838:14863   */\n      swap2\n      pop\n        /* \"#utility.yul\":14751:14869   */\n      pop\n        /* \"#utility.yul\":14700:14869   */\n      swap3\n      swap2\n      pop\n      pop\n      jump\t// out\n        /* \"#utility.yul\":14874:15169   */\n    tag_305:\n        /* \"#utility.yul\":14950:14954   */\n      0x00\n        /* \"#utility.yul\":15096:15125   */\n      tag_465\n        /* \"#utility.yul\":15121:15124   */\n      dup4\n        /* \"#utility.yul\":15115:15119   */\n      dup4\n        /* \"#utility.yul\":15096:15125   */\n      tag_304\n      jump\t// in\n    tag_465:\n        /* \"#utility.yul\":15088:15125   */\n      swap2\n      pop\n        /* \"#utility.yul\":15158:15161   */\n      dup3\n        /* \"#utility.yul\":15155:15156   */\n      0x02\n        /* \"#utility.yul\":15151:15162   */\n      mul\n        /* \"#utility.yul\":15145:15149   */\n      dup3\n        /* \"#utility.yul\":15142:15163   */\n      or\n        /* \"#utility.yul\":15134:15163   */\n      swap1\n      pop\n        /* \"#utility.yul\":14874:15169   */\n      swap3\n      swap2\n      pop\n      pop\n      jump\t// out\n        /* \"#utility.yul\":15174:16569   */\n    tag_98:\n        /* \"#utility.yul\":15291:15328   */\n      tag_467\n        /* \"#utility.yul\":15324:15327   */\n      dup3\n        /* \"#utility.yul\":15291:15328   */\n      tag_279\n      jump\t// in\n    tag_467:\n        /* \"#utility.yul\":15393:15411   */\n      0xffffffffffffffff\n        /* \"#utility.yul\":15385:15391   */\n      dup2\n        /* \"#utility.yul\":15382:15412   */\n      gt\n        /* \"#utility.yul\":15379:15435   */\n      iszero\n      tag_468\n      jumpi\n        /* \"#utility.yul\":15415:15433   */\n      tag_469\n      tag_289\n      jump\t// in\n    tag_469:\n        /* \"#utility.yul\":15379:15435   */\n    tag_468:\n        /* \"#utility.yul\":15459:15497   */\n      tag_470\n        /* \"#utility.yul\":15491:15495   */\n      dup3\n        /* \"#utility.yul\":15485:15496   */\n      sload\n        /* \"#utility.yul\":15459:15497   */\n      tag_161\n      jump\t// in\n    tag_470:\n        /* \"#utility.yul\":15544:15611   */\n      tag_471\n        /* \"#utility.yul\":15604:15610   */\n      dup3\n        /* \"#utility.yul\":15596:15602   */\n      dup3\n        /* \"#utility.yul\":15590:15594   */\n      dup6\n        /* \"#utility.yul\":15544:15611   */\n      tag_302\n      jump\t// in\n    tag_471:\n        /* \"#utility.yul\":15638:15639   */\n      0x00\n        /* \"#utility.yul\":15662:15666   */\n      0x20\n        /* \"#utility.yul\":15649:15666   */\n      swap1\n      pop\n        /* \"#utility.yul\":15694:15696   */\n      0x1f\n        /* \"#utility.yul\":15686:15692   */\n      dup4\n        /* \"#utility.yul\":15683:15697   */\n      gt\n        /* \"#utility.yul\":15711:15712   */\n      0x01\n        /* \"#utility.yul\":15706:16324   */\n      dup2\n      eq\n      tag_473\n      jumpi\n        /* \"#utility.yul\":16368:16369   */\n      0x00\n        /* \"#utility.yul\":16385:16391   */\n      dup5\n        /* \"#utility.yul\":16382:16459   */\n      iszero\n      tag_474\n      jumpi\n        /* \"#utility.yul\":16434:16443   */\n      dup3\n        /* \"#utility.yul\":16429:16432   */\n      dup8\n        /* \"#utility.yul\":16425:16444   */\n      add\n        /* \"#utility.yul\":16419:16445   */\n      mload\n        /* \"#utility.yul\":16410:16445   */\n      swap1\n      pop\n        /* \"#utility.yul\":16382:16459   */\n    tag_474:\n        /* \"#utility.yul\":16485:16552   */\n      tag_475\n        /* \"#utility.yul\":16545:16551   */\n      dup6\n        /* \"#utility.yul\":16538:16543   */\n      dup3\n        /* \"#utility.yul\":16485:16552   */\n      tag_305\n      jump\t// in\n    tag_475:\n        /* \"#utility.yul\":16479:16483   */\n      dup7\n        /* \"#utility.yul\":16472:16553   */\n      sstore\n        /* \"#utility.yul\":16341:16563   */\n      pop\n        /* \"#utility.yul\":15676:16563   */\n      jump(tag_472)\n        /* \"#utility.yul\":15706:16324   */\n    tag_473:\n        /* \"#utility.yul\":15758:15762   */\n      0x1f\n        /* \"#utility.yul\":15754:15763   */\n      not\n        /* \"#utility.yul\":15746:15752   */\n      dup5\n        /* \"#utility.yul\":15742:15764   */\n      and\n        /* \"#utility.yul\":15792:15829   */\n      tag_476\n        /* \"#utility.yul\":15824:15828   */\n      dup7\n        /* \"#utility.yul\":15792:15829   */\n      tag_291\n      jump\t// in\n    tag_476:\n        /* \"#utility.yul\":15851:15852   */\n      0x00\n        /* \"#utility.yul\":15865:16073   */\n    tag_477:\n        /* \"#utility.yul\":15879:15886   */\n      dup3\n        /* \"#utility.yul\":15876:15877   */\n      dup2\n        /* \"#utility.yul\":15873:15887   */\n      lt\n        /* \"#utility.yul\":15865:16073   */\n      iszero\n      tag_479\n      jumpi\n        /* \"#utility.yul\":15958:15967   */\n      dup5\n        /* \"#utility.yul\":15953:15956   */\n      dup10\n        /* \"#utility.yul\":15949:15968   */\n      add\n        /* \"#utility.yul\":15943:15969   */\n      mload\n        /* \"#utility.yul\":15935:15941   */\n      dup3\n        /* \"#utility.yul\":15928:15970   */\n      sstore\n        /* \"#utility.yul\":16009:16010   */\n      0x01\n        /* \"#utility.yul\":16001:16007   */\n      dup3\n        /* \"#utility.yul\":15997:16011   */\n      add\n        /* \"#utility.yul\":15987:16011   */\n      swap2\n      pop\n        /* \"#utility.yul\":16056:16058   */\n      0x20\n        /* \"#utility.yul\":16045:16054   */\n      dup6\n        /* \"#utility.yul\":16041:16059   */\n      add\n        /* \"#utility.yul\":16028:16059   */\n      swap5\n      pop\n        /* \"#utility.yul\":15902:15906   */\n      0x20\n        /* \"#utility.yul\":15899:15900   */\n      dup2\n        /* \"#utility.yul\":15895:15907   */\n      add\n        /* \"#utility.yul\":15890:15907   */\n      swap1\n      pop\n        /* \"#utility.yul\":15865:16073   */\n      jump(tag_477)\n    tag_479:\n        /* \"#utility.yul\":16101:16107   */\n      dup7\n        /* \"#utility.yul\":16092:16099   */\n      dup4\n        /* \"#utility.yul\":16089:16108   */\n      lt\n        /* \"#utility.yul\":16086:16265   */\n      iszero\n      tag_480\n      jumpi\n        /* \"#utility.yul\":16159:16168   */\n      dup5\n        /* \"#utility.yul\":16154:16157   */\n      dup10\n        /* \"#utility.yul\":16150:16169   */\n      add\n        /* \"#utility.yul\":16144:16170   */\n      mload\n        /* \"#utility.yul\":16202:16250   */\n      tag_481\n        /* \"#utility.yul\":16244:16248   */\n      0x1f\n        /* \"#utility.yul\":16236:16242   */\n      dup10\n        /* \"#utility.yul\":16232:16249   */\n      and\n        /* \"#utility.yul\":16221:16230   */\n      dup3\n        /* \"#utility.yul\":16202:16250   */\n      tag_304\n      jump\t// in\n    tag_481:\n        /* \"#utility.yul\":16194:16200   */\n      dup4\n        /* \"#utility.yul\":16187:16251   */\n      sstore\n        /* \"#utility.yul\":16109:16265   */\n      pop\n        /* \"#utility.yul\":16086:16265   */\n    tag_480:\n        /* \"#utility.yul\":16311:16312   */\n      0x01\n        /* \"#utility.yul\":16307:16308   */\n      0x02\n        /* \"#utility.yul\":16299:16305   */\n      dup9\n        /* \"#utility.yul\":16295:16309   */\n      mul\n        /* \"#utility.yul\":16291:16313   */\n      add\n        /* \"#utility.yul\":16285:16289   */\n      dup9\n        /* \"#utility.yul\":16278:16314   */\n      sstore\n        /* \"#utility.yul\":15713:16324   */\n      pop\n      pop\n      pop\n        /* \"#utility.yul\":15676:16563   */\n    tag_472:\n      pop\n        /* \"#utility.yul\":15266:16569   */\n      pop\n      pop\n      pop\n        /* \"#utility.yul\":15174:16569   */\n      pop\n      pop\n      jump\t// out\n        /* \"#utility.yul\":16575:16755   */\n    tag_121:\n        /* \"#utility.yul\":16623:16700   */\n      0x4e487b7100000000000000000000000000000000000000000000000000000000\n        /* \"#utility.yul\":16620:16621   */\n      0x00\n        /* \"#utility.yul\":16613:16701   */\n      mstore\n        /* \"#utility.yul\":16720:16724   */\n      0x32\n        /* \"#utility.yul\":16717:16718   */\n      0x04\n        /* \"#utility.yul\":16710:16725   */\n      mstore\n        /* \"#utility.yul\":16744:16748   */\n      0x24\n        /* \"#utility.yul\":16741:16742   */\n      0x00\n        /* \"#utility.yul\":16734:16749   */\n      revert\n        /* \"#utility.yul\":16761:16941   */\n    tag_306:\n        /* \"#utility.yul\":16809:16886   */\n      0x4e487b7100000000000000000000000000000000000000000000000000000000\n        /* \"#utility.yul\":16806:16807   */\n      0x00\n        /* \"#utility.yul\":16799:16887   */\n      mstore\n        /* \"#utility.yul\":16906:16910   */\n      0x11\n        /* \"#utility.yul\":16903:16904   */\n      0x04\n        /* \"#utility.yul\":16896:16911   */\n      mstore\n        /* \"#utility.yul\":16930:16934   */\n      0x24\n        /* \"#utility.yul\":16927:16928   */\n      0x00\n        /* \"#utility.yul\":16920:16935   */\n      revert\n        /* \"#utility.yul\":16947:17357   */\n    tag_129:\n        /* \"#utility.yul\":16987:16994   */\n      0x00\n        /* \"#utility.yul\":17010:17030   */\n      tag_485\n        /* \"#utility.yul\":17028:17029   */\n      dup3\n        /* \"#utility.yul\":17010:17030   */\n      tag_266\n      jump\t// in\n    tag_485:\n        /* \"#utility.yul\":17005:17030   */\n      swap2\n      pop\n        /* \"#utility.yul\":17044:17064   */\n      tag_486\n        /* \"#utility.yul\":17062:17063   */\n      dup4\n        /* \"#utility.yul\":17044:17064   */\n      tag_266\n      jump\t// in\n    tag_486:\n        /* \"#utility.yul\":17039:17064   */\n      swap3\n      pop\n        /* \"#utility.yul\":17099:17100   */\n      dup3\n        /* \"#utility.yul\":17096:17097   */\n      dup3\n        /* \"#utility.yul\":17092:17101   */\n      mul\n        /* \"#utility.yul\":17121:17151   */\n      tag_487\n        /* \"#utility.yul\":17139:17150   */\n      dup2\n        /* \"#utility.yul\":17121:17151   */\n      tag_266\n      jump\t// in\n    tag_487:\n        /* \"#utility.yul\":17110:17151   */\n      swap2\n      pop\n        /* \"#utility.yul\":17300:17301   */\n      dup3\n        /* \"#utility.yul\":17291:17298   */\n      dup3\n        /* \"#utility.yul\":17287:17302   */\n      div\n        /* \"#utility.yul\":17284:17285   */\n      dup5\n        /* \"#utility.yul\":17281:17303   */\n      eq\n        /* \"#utility.yul\":17261:17262   */\n      dup4\n        /* \"#utility.yul\":17254:17263   */\n      iszero\n        /* \"#utility.yul\":17234:17317   */\n      or\n        /* \"#utility.yul\":17211:17350   */\n      tag_488\n      jumpi\n        /* \"#utility.yul\":17330:17348   */\n      tag_489\n      tag_306\n      jump\t// in\n    tag_489:\n        /* \"#utility.yul\":17211:17350   */\n    tag_488:\n        /* \"#utility.yul\":16995:17357   */\n      pop\n        /* \"#utility.yul\":16947:17357   */\n      swap3\n      swap2\n      pop\n      pop\n      jump\t// out\n        /* \"#utility.yul\":17363:17554   */\n    tag_131:\n        /* \"#utility.yul\":17403:17406   */\n      0x00\n        /* \"#utility.yul\":17422:17442   */\n      tag_491\n        /* \"#utility.yul\":17440:17441   */\n      dup3\n        /* \"#utility.yul\":17422:17442   */\n      tag_266\n      jump\t// in\n    tag_491:\n        /* \"#utility.yul\":17417:17442   */\n      swap2\n      pop\n        /* \"#utility.yul\":17456:17476   */\n      tag_492\n        /* \"#utility.yul\":17474:17475   */\n      dup4\n        /* \"#utility.yul\":17456:17476   */\n      tag_266\n      jump\t// in\n    tag_492:\n        /* \"#utility.yul\":17451:17476   */\n      swap3\n      pop\n        /* \"#utility.yul\":17499:17500   */\n      dup3\n        /* \"#utility.yul\":17496:17497   */\n      dup3\n        /* \"#utility.yul\":17492:17501   */\n      add\n        /* \"#utility.yul\":17485:17501   */\n      swap1\n      pop\n        /* \"#utility.yul\":17520:17523   */\n      dup1\n        /* \"#utility.yul\":17517:17518   */\n      dup3\n        /* \"#utility.yul\":17514:17524   */\n      gt\n        /* \"#utility.yul\":17511:17547   */\n      iszero\n      tag_493\n      jumpi\n        /* \"#utility.yul\":17527:17545   */\n      tag_494\n      tag_306\n      jump\t// in\n    tag_494:\n        /* \"#utility.yul\":17511:17547   */\n    tag_493:\n        /* \"#utility.yul\":17363:17554   */\n      swap3\n      swap2\n      pop\n      pop\n      jump\t// out\n        /* \"#utility.yul\":17560:17754   */\n    tag_144:\n        /* \"#utility.yul\":17600:17604   */\n      0x00\n        /* \"#utility.yul\":17620:17640   */\n      tag_496\n        /* \"#utility.yul\":17638:17639   */\n      dup3\n        /* \"#utility.yul\":17620:17640   */\n      tag_266\n      jump\t// in\n    tag_496:\n        /* \"#utility.yul\":17615:17640   */\n      swap2\n      pop\n        /* \"#utility.yul\":17654:17674   */\n      tag_497\n        /* \"#utility.yul\":17672:17673   */\n      dup4\n        /* \"#utility.yul\":17654:17674   */\n      tag_266\n      jump\t// in\n    tag_497:\n        /* \"#utility.yul\":17649:17674   */\n      swap3\n      pop\n        /* \"#utility.yul\":17698:17699   */\n      dup3\n        /* \"#utility.yul\":17695:17696   */\n      dup3\n        /* \"#utility.yul\":17691:17700   */\n      sub\n        /* \"#utility.yul\":17683:17700   */\n      swap1\n      pop\n        /* \"#utility.yul\":17722:17723   */\n      dup2\n        /* \"#utility.yul\":17716:17720   */\n      dup2\n        /* \"#utility.yul\":17713:17724   */\n      gt\n        /* \"#utility.yul\":17710:17747   */\n      iszero\n      tag_498\n      jumpi\n        /* \"#utility.yul\":17727:17745   */\n      tag_499\n      tag_306\n      jump\t// in\n    tag_499:\n        /* \"#utility.yul\":17710:17747   */\n    tag_498:\n        /* \"#utility.yul\":17560:17754   */\n      swap3\n      swap2\n      pop\n      pop\n      jump\t// out\n        /* \"#utility.yul\":17760:17909   */\n    tag_307:\n        /* \"#utility.yul\":17809:17815   */\n      0x00\n        /* \"#utility.yul\":17843:17848   */\n      dup2\n        /* \"#utility.yul\":17837:17849   */\n      sload\n        /* \"#utility.yul\":17827:17849   */\n      swap1\n      pop\n        /* \"#utility.yul\":17869:17902   */\n      tag_501\n        /* \"#utility.yul\":17895:17901   */\n      dup2\n        /* \"#utility.yul\":17869:17902   */\n      tag_161\n      jump\t// in\n    tag_501:\n        /* \"#utility.yul\":17859:17902   */\n      swap1\n      pop\n        /* \"#utility.yul\":17760:17909   */\n      swap2\n      swap1\n      pop\n      jump\t// out\n        /* \"#utility.yul\":17915:19366   */\n    tag_194:\n        /* \"#utility.yul\":18026:18029   */\n      dup2\n        /* \"#utility.yul\":18020:18024   */\n      dup2\n        /* \"#utility.yul\":18017:18030   */\n      sub\n        /* \"#utility.yul\":18014:18040   */\n      tag_503\n      jumpi\n        /* \"#utility.yul\":18033:18038   */\n      pop\n      pop\n      jump(tag_502)\n        /* \"#utility.yul\":18014:18040   */\n    tag_503:\n        /* \"#utility.yul\":18064:18098   */\n      tag_504\n        /* \"#utility.yul\":18094:18097   */\n      dup3\n        /* \"#utility.yul\":18064:18098   */\n      tag_307\n      jump\t// in\n    tag_504:\n        /* \"#utility.yul\":18163:18181   */\n      0xffffffffffffffff\n        /* \"#utility.yul\":18155:18161   */\n      dup2\n        /* \"#utility.yul\":18152:18182   */\n      gt\n        /* \"#utility.yul\":18149:18205   */\n      iszero\n      tag_505\n      jumpi\n        /* \"#utility.yul\":18185:18203   */\n      tag_506\n      tag_289\n      jump\t// in\n    tag_506:\n        /* \"#utility.yul\":18149:18205   */\n    tag_505:\n        /* \"#utility.yul\":18229:18267   */\n      tag_507\n        /* \"#utility.yul\":18261:18265   */\n      dup3\n        /* \"#utility.yul\":18255:18266   */\n      sload\n        /* \"#utility.yul\":18229:18267   */\n      tag_161\n      jump\t// in\n    tag_507:\n        /* \"#utility.yul\":18314:18381   */\n      tag_508\n        /* \"#utility.yul\":18374:18380   */\n      dup3\n        /* \"#utility.yul\":18366:18372   */\n      dup3\n        /* \"#utility.yul\":18360:18364   */\n      dup6\n        /* \"#utility.yul\":18314:18381   */\n      tag_302\n      jump\t// in\n    tag_508:\n        /* \"#utility.yul\":18408:18409   */\n      0x00\n        /* \"#utility.yul\":18437:18439   */\n      0x1f\n        /* \"#utility.yul\":18429:18435   */\n      dup4\n        /* \"#utility.yul\":18426:18440   */\n      gt\n        /* \"#utility.yul\":18454:18455   */\n      0x01\n        /* \"#utility.yul\":18449:19121   */\n      dup2\n      eq\n      tag_510\n      jumpi\n        /* \"#utility.yul\":19165:19166   */\n      0x00\n        /* \"#utility.yul\":19182:19188   */\n      dup5\n        /* \"#utility.yul\":19179:19256   */\n      iszero\n      tag_511\n      jumpi\n        /* \"#utility.yul\":19231:19240   */\n      dup3\n        /* \"#utility.yul\":19226:19229   */\n      dup8\n        /* \"#utility.yul\":19222:19241   */\n      add\n        /* \"#utility.yul\":19216:19242   */\n      sload\n        /* \"#utility.yul\":19207:19242   */\n      swap1\n      pop\n        /* \"#utility.yul\":19179:19256   */\n    tag_511:\n        /* \"#utility.yul\":19282:19349   */\n      tag_512\n        /* \"#utility.yul\":19342:19348   */\n      dup6\n        /* \"#utility.yul\":19335:19340   */\n      dup3\n        /* \"#utility.yul\":19282:19349   */\n      tag_305\n      jump\t// in\n    tag_512:\n        /* \"#utility.yul\":19276:19280   */\n      dup7\n        /* \"#utility.yul\":19269:19350   */\n      sstore\n        /* \"#utility.yul\":19138:19360   */\n      pop\n        /* \"#utility.yul\":18419:19360   */\n      jump(tag_509)\n        /* \"#utility.yul\":18449:19121   */\n    tag_510:\n        /* \"#utility.yul\":18501:18505   */\n      0x1f\n        /* \"#utility.yul\":18497:18506   */\n      not\n        /* \"#utility.yul\":18489:18495   */\n      dup5\n        /* \"#utility.yul\":18485:18507   */\n      and\n        /* \"#utility.yul\":18527:18563   */\n      tag_513\n        /* \"#utility.yul\":18559:18562   */\n      dup8\n        /* \"#utility.yul\":18527:18563   */\n      tag_291\n      jump\t// in\n    tag_513:\n        /* \"#utility.yul\":18520:18563   */\n      swap7\n      pop\n        /* \"#utility.yul\":18590:18627   */\n      tag_514\n        /* \"#utility.yul\":18622:18626   */\n      dup7\n        /* \"#utility.yul\":18590:18627   */\n      tag_291\n      jump\t// in\n    tag_514:\n        /* \"#utility.yul\":18649:18650   */\n      0x00\n        /* \"#utility.yul\":18663:18870   */\n    tag_515:\n        /* \"#utility.yul\":18677:18684   */\n      dup3\n        /* \"#utility.yul\":18674:18675   */\n      dup2\n        /* \"#utility.yul\":18671:18685   */\n      lt\n        /* \"#utility.yul\":18663:18870   */\n      iszero\n      tag_517\n      jumpi\n        /* \"#utility.yul\":18756:18765   */\n      dup5\n        /* \"#utility.yul\":18751:18754   */\n      dup10\n        /* \"#utility.yul\":18747:18766   */\n      add\n        /* \"#utility.yul\":18741:18767   */\n      sload\n        /* \"#utility.yul\":18733:18739   */\n      dup3\n        /* \"#utility.yul\":18726:18768   */\n      sstore\n        /* \"#utility.yul\":18807:18808   */\n      0x01\n        /* \"#utility.yul\":18799:18805   */\n      dup3\n        /* \"#utility.yul\":18795:18809   */\n      add\n        /* \"#utility.yul\":18785:18809   */\n      swap2\n      pop\n        /* \"#utility.yul\":18854:18855   */\n      0x01\n        /* \"#utility.yul\":18843:18852   */\n      dup6\n        /* \"#utility.yul\":18839:18856   */\n      add\n        /* \"#utility.yul\":18826:18856   */\n      swap5\n      pop\n        /* \"#utility.yul\":18700:18704   */\n      0x20\n        /* \"#utility.yul\":18697:18698   */\n      dup2\n        /* \"#utility.yul\":18693:18705   */\n      add\n        /* \"#utility.yul\":18688:18705   */\n      swap1\n      pop\n        /* \"#utility.yul\":18663:18870   */\n      jump(tag_515)\n    tag_517:\n        /* \"#utility.yul\":18898:18904   */\n      dup7\n        /* \"#utility.yul\":18889:18896   */\n      dup4\n        /* \"#utility.yul\":18886:18905   */\n      lt\n        /* \"#utility.yul\":18883:19062   */\n      iszero\n      tag_518\n      jumpi\n        /* \"#utility.yul\":18956:18965   */\n      dup5\n        /* \"#utility.yul\":18951:18954   */\n      dup10\n        /* \"#utility.yul\":18947:18966   */\n      add\n        /* \"#utility.yul\":18941:18967   */\n      sload\n        /* \"#utility.yul\":18999:19047   */\n      tag_519\n        /* \"#utility.yul\":19041:19045   */\n      0x1f\n        /* \"#utility.yul\":19033:19039   */\n      dup10\n        /* \"#utility.yul\":19029:19046   */\n      and\n        /* \"#utility.yul\":19018:19027   */\n      dup3\n        /* \"#utility.yul\":18999:19047   */\n      tag_304\n      jump\t// in\n    tag_519:\n        /* \"#utility.yul\":18991:18997   */\n      dup4\n        /* \"#utility.yul\":18984:19048   */\n      sstore\n        /* \"#utility.yul\":18906:19062   */\n      pop\n        /* \"#utility.yul\":18883:19062   */\n    tag_518:\n        /* \"#utility.yul\":19108:19109   */\n      0x01\n        /* \"#utility.yul\":19104:19105   */\n      0x02\n        /* \"#utility.yul\":19096:19102   */\n      dup9\n        /* \"#utility.yul\":19092:19106   */\n      mul\n        /* \"#utility.yul\":19088:19110   */\n      add\n        /* \"#utility.yul\":19082:19086   */\n      dup9\n        /* \"#utility.yul\":19075:19111   */\n      sstore\n        /* \"#utility.yul\":18456:19121   */\n      pop\n      pop\n      pop\n        /* \"#utility.yul\":18419:19360   */\n    tag_509:\n      pop\n        /* \"#utility.yul\":18004:19366   */\n      pop\n      pop\n      pop\n        /* \"#utility.yul\":17915:19366   */\n      pop\n      pop\n    tag_502:\n      jump\t// out\n        /* \"#utility.yul\":19372:19552   */\n    tag_197:\n        /* \"#utility.yul\":19420:19497   */\n      0x4e487b7100000000000000000000000000000000000000000000000000000000\n        /* \"#utility.yul\":19417:19418   */\n      0x00\n        /* \"#utility.yul\":19410:19498   */\n      mstore\n        /* \"#utility.yul\":19517:19521   */\n      0x31\n        /* \"#utility.yul\":19514:19515   */\n      0x04\n        /* \"#utility.yul\":19507:19522   */\n      mstore\n        /* \"#utility.yul\":19541:19545   */\n      0x24\n        /* \"#utility.yul\":19538:19539   */\n      0x00\n        /* \"#utility.yul\":19531:19546   */\n      revert\n        /* \"#utility.yul\":19558:19727   */\n    tag_308:\n        /* \"#utility.yul\":19642:19653   */\n      0x00\n        /* \"#utility.yul\":19676:19682   */\n      dup3\n        /* \"#utility.yul\":19671:19674   */\n      dup3\n        /* \"#utility.yul\":19664:19683   */\n      mstore\n        /* \"#utility.yul\":19716:19720   */\n      0x20\n        /* \"#utility.yul\":19711:19714   */\n      dup3\n        /* \"#utility.yul\":19707:19721   */\n      add\n        /* \"#utility.yul\":19692:19721   */\n      swap1\n      pop\n        /* \"#utility.yul\":19558:19727   */\n      swap3\n      swap2\n      pop\n      pop\n      jump\t// out\n        /* \"#utility.yul\":19733:19900   */\n    tag_309:\n        /* \"#utility.yul\":19873:19892   */\n      0x50726f64756374206e6f7420666f756e64000000000000000000000000000000\n        /* \"#utility.yul\":19869:19870   */\n      0x00\n        /* \"#utility.yul\":19861:19867   */\n      dup3\n        /* \"#utility.yul\":19857:19871   */\n      add\n        /* \"#utility.yul\":19850:19893   */\n      mstore\n        /* \"#utility.yul\":19733:19900   */\n      pop\n      jump\t// out\n        /* \"#utility.yul\":19906:20272   */\n    tag_310:\n        /* \"#utility.yul\":20048:20051   */\n      0x00\n        /* \"#utility.yul\":20069:20136   */\n      tag_524\n        /* \"#utility.yul\":20133:20135   */\n      0x11\n        /* \"#utility.yul\":20128:20131   */\n      dup4\n        /* \"#utility.yul\":20069:20136   */\n      tag_308\n      jump\t// in\n    tag_524:\n        /* \"#utility.yul\":20062:20136   */\n      swap2\n      pop\n        /* \"#utility.yul\":20145:20238   */\n      tag_525\n        /* \"#utility.yul\":20234:20237   */\n      dup3\n        /* \"#utility.yul\":20145:20238   */\n      tag_309\n      jump\t// in\n    tag_525:\n        /* \"#utility.yul\":20263:20265   */\n      0x20\n        /* \"#utility.yul\":20258:20261   */\n      dup3\n        /* \"#utility.yul\":20254:20266   */\n      add\n        /* \"#utility.yul\":20247:20266   */\n      swap1\n      pop\n        /* \"#utility.yul\":19906:20272   */\n      swap2\n      swap1\n      pop\n      jump\t// out\n        /* \"#utility.yul\":20278:20697   */\n    tag_234:\n        /* \"#utility.yul\":20444:20448   */\n      0x00\n        /* \"#utility.yul\":20482:20484   */\n      0x20\n        /* \"#utility.yul\":20471:20480   */\n      dup3\n        /* \"#utility.yul\":20467:20485   */\n      add\n        /* \"#utility.yul\":20459:20485   */\n      swap1\n      pop\n        /* \"#utility.yul\":20531:20540   */\n      dup2\n        /* \"#utility.yul\":20525:20529   */\n      dup2\n        /* \"#utility.yul\":20521:20541   */\n      sub\n        /* \"#utility.yul\":20517:20518   */\n      0x00\n        /* \"#utility.yul\":20506:20515   */\n      dup4\n        /* \"#utility.yul\":20502:20519   */\n      add\n        /* \"#utility.yul\":20495:20542   */\n      mstore\n        /* \"#utility.yul\":20559:20690   */\n      tag_527\n        /* \"#utility.yul\":20685:20689   */\n      dup2\n        /* \"#utility.yul\":20559:20690   */\n      tag_310\n      jump\t// in\n    tag_527:\n        /* \"#utility.yul\":20551:20690   */\n      swap1\n      pop\n        /* \"#utility.yul\":20278:20697   */\n      swap2\n      swap1\n      pop\n      jump\t// out\n        /* \"#utility.yul\":20703:21145   */\n    tag_242:\n        /* \"#utility.yul\":20852:20856   */\n      0x00\n        /* \"#utility.yul\":20890:20892   */\n      0x60\n        /* \"#utility.yul\":20879:20888   */\n      dup3\n        /* \"#utility.yul\":20875:20893   */\n      add\n        /* \"#utility.yul\":20867:20893   */\n      swap1\n      pop\n        /* \"#utility.yul\":20903:20974   */\n      tag_529\n        /* \"#utility.yul\":20971:20972   */\n      0x00\n        /* \"#utility.yul\":20960:20969   */\n      dup4\n        /* \"#utility.yul\":20956:20973   */\n      add\n        /* \"#utility.yul\":20947:20953   */\n      dup7\n        /* \"#utility.yul\":20903:20974   */\n      tag_275\n      jump\t// in\n    tag_529:\n        /* \"#utility.yul\":20984:21056   */\n      tag_530\n        /* \"#utility.yul\":21052:21054   */\n      0x20\n        /* \"#utility.yul\":21041:21050   */\n      dup4\n        /* \"#utility.yul\":21037:21055   */\n      add\n        /* \"#utility.yul\":21028:21034   */\n      dup6\n        /* \"#utility.yul\":20984:21056   */\n      tag_269\n      jump\t// in\n    tag_530:\n        /* \"#utility.yul\":21066:21138   */\n      tag_531\n        /* \"#utility.yul\":21134:21136   */\n      0x40\n        /* \"#utility.yul\":21123:21132   */\n      dup4\n        /* \"#utility.yul\":21119:21137   */\n      add\n        /* \"#utility.yul\":21110:21116   */\n      dup5\n        /* \"#utility.yul\":21066:21138   */\n      tag_269\n      jump\t// in\n    tag_531:\n        /* \"#utility.yul\":20703:21145   */\n      swap5\n      swap4\n      pop\n      pop\n      pop\n      pop\n      jump\t// out\n\n    auxdata: 0xa2646970667358221220c7510e6d091c07f7a162e2e0fd6418ced841c08f26b68298a0861225fcfee28d64736f6c634300081a0033\n}\n",
				"bytecode": {
					"linkReferences": {},
					"object": "608060405234801561000f575f80fd5b50604051611d62380380611d62833981810160405281019061003191906101d7565b805f73ffffffffffffffffffffffffffffffffffffffff168173ffffffffffffffffffffffffffffffffffffffff16036100a2575f6040517f1e4fbdf70000000000000000000000000000000000000000000000000000000081526004016100999190610211565b60405180910390fd5b6100b1816100b860201b60201c565b505061022a565b5f805f9054906101000a900473ffffffffffffffffffffffffffffffffffffffff169050815f806101000a81548173ffffffffffffffffffffffffffffffffffffffff021916908373ffffffffffffffffffffffffffffffffffffffff1602179055508173ffffffffffffffffffffffffffffffffffffffff168173ffffffffffffffffffffffffffffffffffffffff167f8be0079c531659141344cd1fd0a4f28419497f9722a3daafe3b4186f6b6457e060405160405180910390a35050565b5f80fd5b5f73ffffffffffffffffffffffffffffffffffffffff82169050919050565b5f6101a68261017d565b9050919050565b6101b68161019c565b81146101c0575f80fd5b50565b5f815190506101d1816101ad565b92915050565b5f602082840312156101ec576101eb610179565b5b5f6101f9848285016101c3565b91505092915050565b61020b8161019c565b82525050565b5f6020820190506102245f830184610202565b92915050565b611b2b806102375f395ff3fe6080604052600436106100e7575f3560e01c806382367b2d11610089578063d6febde811610058578063d6febde8146102b3578063e7572230146102cf578063ed90c7b71461030b578063f2fde38b14610333576100e7565b806382367b2d1461020f5780638da5cb5b146102375780639dfc3dd114610261578063c29b2f2014610289576100e7565b80633df50e82116100c55780633df50e82146101655780636038d0cf146101a1578063715018a6146101dd578063723cdb1d146101f3576100e7565b8063094455c4146100eb5780633ab7d09a146101135780633ccfd60b1461014f575b5f80fd5b3480156100f6575f80fd5b50610111600480360381019061010c919061109d565b61035b565b005b34801561011e575f80fd5b5061013960048036038101906101349190611121565b61046a565b604051610146919061115b565b60405180910390f35b34801561015a575f80fd5b50610163610484565b005b348015610170575f80fd5b5061018b60048036038101906101869190611121565b610517565b604051610198919061115b565b60405180910390f35b3480156101ac575f80fd5b506101c760048036038101906101c291906111ce565b61052c565b6040516101d4919061115b565b60405180910390f35b3480156101e8575f80fd5b506101f161054c565b005b61020d60048036038101906102089190611261565b61055f565b005b34801561021a575f80fd5b50610235600480360381019061023091906112df565b61078d565b005b348015610242575f80fd5b5061024b6107af565b604051610258919061132c565b60405180910390f35b34801561026c575f80fd5b50610287600480360381019061028291906112df565b6107d6565b005b348015610294575f80fd5b5061029d6107f8565b6040516102aa91906114df565b60405180910390f35b6102cd60048036038101906102c891906112df565b610901565b005b3480156102da575f80fd5b506102f560048036038101906102f09190611121565b610a35565b604051610302919061115b565b60405180910390f35b348015610316575f80fd5b50610331600480360381019061032c9190611121565b610a4f565b005b34801561033e575f80fd5b50610359600480360381019061035491906114ff565b610b73565b005b610363610bf7565b61036c83610c7e565b156103a3576040517ff270498400000000000000000000000000000000000000000000000000000000815260040160405180910390fd5b6003604051806080016040528087878080601f0160208091040260200160405190810160405280939291908181526020018383808284375f81840152601f19601f82011690508083019250505050505050815260200185815260200184815260200183815250908060018154018082558091505060019003905f5260205f2090600402015f909190919091505f820151815f0190816104429190611751565b5060208201518160010155604082015181600201556060820151816003015550505050505050565b5f8061047583610cdc565b90508060020154915050919050565b61048c610bf7565b5f4790505f81036104c9576040517f469ea76800000000000000000000000000000000000000000000000000000000815260040160405180910390fd5b6104d16107af565b73ffffffffffffffffffffffffffffffffffffffff166108fc8290811502906040515f60405180830381858888f19350505050158015610513573d5f803e3d5ffd5b5050565b6002602052805f5260405f205f915090505481565b6001602052815f5260405f20602052805f5260405f205f91509150505481565b610554610bf7565b61055d5f610d8f565b565b81819050848490501461059e576040517f23a37fc200000000000000000000000000000000000000000000000000000000815260040160405180910390fd5b5f805b85859050811015610691575f8484838181106105c0576105bf611820565b5b9050602002013590505f8787848181106105dd576105dc611820565b5b9050602002013590505f821161061f576040517ff4f5b73300000000000000000000000000000000000000000000000000000000815260040160405180910390fd5b816106298461046a565b1015610661576040517fade1cb4100000000000000000000000000000000000000000000000000000000815260040160405180910390fd5b8161066b82610a35565b610675919061187a565b8461068091906118bb565b9350505080806001019150506105a1565b50803410156106cc576040517f81b5ad6800000000000000000000000000000000000000000000000000000000815260040160405180910390fd5b5f5b8585905081101561072d575f8484838181106106ed576106ec611820565b5b9050602002013590505f87878481811061070a57610709611820565b5b90506020020135905061071e338284610e50565b505080806001019150506106ce565b5080341115610786573373ffffffffffffffffffffffffffffffffffffffff166108fc823461075c91906118ee565b90811502906040515f60405180830381858888f19350505050158015610784573d5f803e3d5ffd5b505b5050505050565b610795610bf7565b5f61079f83610cdc565b9050818160030181905550505050565b5f805f9054906101000a900473ffffffffffffffffffffffffffffffffffffffff16905090565b6107de610bf7565b5f6107e883610cdc565b9050818160020181905550505050565b60606003805480602002602001604051908101604052809291908181526020015f905b828210156108f8578382905f5260205f2090600402016040518060800160405290815f8201805461084b90611584565b80601f016020809104026020016040519081016040528092919081815260200182805461087790611584565b80156108c25780601f10610899576101008083540402835291602001916108c2565b820191905f5260205f20905b8154815290600101906020018083116108a557829003601f168201915b5050505050815260200160018201548152602001600282015481526020016003820154815250508152602001906001019061081b565b50505050905090565b5f811161093a576040517ff4f5b73300000000000000000000000000000000000000000000000000000000815260040160405180910390fd5b806109448361046a565b101561097c576040517fade1cb4100000000000000000000000000000000000000000000000000000000815260040160405180910390fd5b5f8161098784610a35565b610991919061187a565b9050803410156109cd576040517f81b5ad6800000000000000000000000000000000000000000000000000000000815260040160405180910390fd5b6109d8338484610e50565b80341115610a30573373ffffffffffffffffffffffffffffffffffffffff166108fc8234610a0691906118ee565b90811502906040515f60405180830381858888f19350505050158015610a2e573d5f803e3d5ffd5b505b505050565b5f80610a4083610cdc565b90508060030154915050919050565b610a57610bf7565b5f80610a6283610f40565b9150915081610a9d576040517fc270964900000000000000000000000000000000000000000000000000000000815260040160405180910390fd5b60036001600380549050610ab191906118ee565b81548110610ac257610ac1611820565b5b905f5260205f20906004020160038281548110610ae257610ae1611820565b5b905f5260205f2090600402015f8201815f019081610b009190611936565b506001820154816001015560028201548160020155600382015481600301559050506003805480610b3457610b33611a1b565b5b600190038181905f5260205f2090600402015f8082015f610b559190610fa9565b600182015f9055600282015f9055600382015f905550509055505050565b610b7b610bf7565b5f73ffffffffffffffffffffffffffffffffffffffff168173ffffffffffffffffffffffffffffffffffffffff1603610beb575f6040517f1e4fbdf7000000000000000000000000000000000000000000000000000000008152600401610be2919061132c565b60405180910390fd5b610bf481610d8f565b50565b610bff610fa2565b73ffffffffffffffffffffffffffffffffffffffff16610c1d6107af565b73ffffffffffffffffffffffffffffffffffffffff1614610c7c57610c40610fa2565b6040517f118cdaa7000000000000000000000000000000000000000000000000000000008152600401610c73919061132c565b60405180910390fd5b565b5f805f90505b600380549050811015610cd2578260038281548110610ca657610ca5611820565b5b905f5260205f2090600402016001015403610cc5576001915050610cd7565b8080600101915050610c84565b505f90505b919050565b5f805f90505b600380549050811015610d4e578260038281548110610d0457610d03611820565b5b905f5260205f2090600402016001015403610d415760038181548110610d2d57610d2c611820565b5b905f5260205f209060040201915050610d8a565b8080600101915050610ce2565b506040517f08c379a0000000000000000000000000000000000000000000000000000000008152600401610d8190611aa2565b60405180910390fd5b919050565b5f805f9054906101000a900473ffffffffffffffffffffffffffffffffffffffff169050815f806101000a81548173ffffffffffffffffffffffffffffffffffffffff021916908373ffffffffffffffffffffffffffffffffffffffff1602179055508173ffffffffffffffffffffffffffffffffffffffff168173ffffffffffffffffffffffffffffffffffffffff167f8be0079c531659141344cd1fd0a4f28419497f9722a3daafe3b4186f6b6457e060405160405180910390a35050565b5f610e5a83610cdc565b905081816002015f828254610e6f91906118ee565b925050819055508160015f8673ffffffffffffffffffffffffffffffffffffffff1673ffffffffffffffffffffffffffffffffffffffff1681526020019081526020015f205f8581526020019081526020015f205f828254610ed191906118bb565b925050819055508160025f8581526020019081526020015f205f828254610ef891906118bb565b925050819055507f12cb4648cf3058b17ceeb33e579f8b0bc269fe0843f3900b8e24b6c54871703c848484604051610f3293929190611ac0565b60405180910390a150505050565b5f805f5b600380549050811015610f95578360038281548110610f6657610f65611820565b5b905f5260205f2090600402016001015403610f88576001819250925050610f9d565b8080600101915050610f44565b505f80915091505b915091565b5f33905090565b508054610fb590611584565b5f825580601f10610fc65750610fe3565b601f0160209004905f5260205f2090810190610fe29190610fe6565b5b50565b5b80821115610ffd575f815f905550600101610fe7565b5090565b5f80fd5b5f80fd5b5f80fd5b5f80fd5b5f80fd5b5f8083601f84011261102a57611029611009565b5b8235905067ffffffffffffffff8111156110475761104661100d565b5b60208301915083600182028301111561106357611062611011565b5b9250929050565b5f819050919050565b61107c8161106a565b8114611086575f80fd5b50565b5f8135905061109781611073565b92915050565b5f805f805f608086880312156110b6576110b5611001565b5b5f86013567ffffffffffffffff8111156110d3576110d2611005565b5b6110df88828901611015565b955095505060206110f288828901611089565b935050604061110388828901611089565b925050606061111488828901611089565b9150509295509295909350565b5f6020828403121561113657611135611001565b5b5f61114384828501611089565b91505092915050565b6111558161106a565b82525050565b5f60208201905061116e5f83018461114c565b92915050565b5f73ffffffffffffffffffffffffffffffffffffffff82169050919050565b5f61119d82611174565b9050919050565b6111ad81611193565b81146111b7575f80fd5b50565b5f813590506111c8816111a4565b92915050565b5f80604083850312156111e4576111e3611001565b5b5f6111f1858286016111ba565b925050602061120285828601611089565b9150509250929050565b5f8083601f84011261122157611220611009565b5b8235905067ffffffffffffffff81111561123e5761123d61100d565b5b60208301915083602082028301111561125a57611259611011565b5b9250929050565b5f805f806040858703121561127957611278611001565b5b5f85013567ffffffffffffffff81111561129657611295611005565b5b6112a28782880161120c565b9450945050602085013567ffffffffffffffff8111156112c5576112c4611005565b5b6112d18782880161120c565b925092505092959194509250565b5f80604083850312156112f5576112f4611001565b5b5f61130285828601611089565b925050602061131385828601611089565b9150509250929050565b61132681611193565b82525050565b5f60208201905061133f5f83018461131d565b92915050565b5f81519050919050565b5f82825260208201905092915050565b5f819050602082019050919050565b5f81519050919050565b5f82825260208201905092915050565b8281835e5f83830152505050565b5f601f19601f8301169050919050565b5f6113b08261136e565b6113ba8185611378565b93506113ca818560208601611388565b6113d381611396565b840191505092915050565b6113e78161106a565b82525050565b5f608083015f8301518482035f86015261140782826113a6565b915050602083015161141c60208601826113de565b50604083015161142f60408601826113de565b50606083015161144260608601826113de565b508091505092915050565b5f61145883836113ed565b905092915050565b5f602082019050919050565b5f61147682611345565b611480818561134f565b9350836020820285016114928561135f565b805f5b858110156114cd57848403895281516114ae858261144d565b94506114b983611460565b925060208a01995050600181019050611495565b50829750879550505050505092915050565b5f6020820190508181035f8301526114f7818461146c565b905092915050565b5f6020828403121561151457611513611001565b5b5f611521848285016111ba565b91505092915050565b7f4e487b71000000000000000000000000000000000000000000000000000000005f52604160045260245ffd5b7f4e487b71000000000000000000000000000000000000000000000000000000005f52602260045260245ffd5b5f600282049050600182168061159b57607f821691505b6020821081036115ae576115ad611557565b5b50919050565b5f819050815f5260205f209050919050565b5f6020601f8301049050919050565b5f82821b905092915050565b5f600883026116107fffffffffffffffffffffffffffffffffffffffffffffffffffffffffffffffff826115d5565b61161a86836115d5565b95508019841693508086168417925050509392505050565b5f819050919050565b5f61165561165061164b8461106a565b611632565b61106a565b9050919050565b5f819050919050565b61166e8361163b565b61168261167a8261165c565b8484546115e1565b825550505050565b5f90565b61169661168a565b6116a1818484611665565b505050565b5b818110156116c4576116b95f8261168e565b6001810190506116a7565b5050565b601f821115611709576116da816115b4565b6116e3846115c6565b810160208510156116f2578190505b6117066116fe856115c6565b8301826116a6565b50505b505050565b5f82821c905092915050565b5f6117295f198460080261170e565b1980831691505092915050565b5f611741838361171a565b9150826002028217905092915050565b61175a8261136e565b67ffffffffffffffff8111156117735761177261152a565b5b61177d8254611584565b6117888282856116c8565b5f60209050601f8311600181146117b9575f84156117a7578287015190505b6117b18582611736565b865550611818565b601f1984166117c7866115b4565b5f5b828110156117ee578489015182556001820191506020850194506020810190506117c9565b8683101561180b5784890151611807601f89168261171a565b8355505b6001600288020188555050505b505050505050565b7f4e487b71000000000000000000000000000000000000000000000000000000005f52603260045260245ffd5b7f4e487b71000000000000000000000000000000000000000000000000000000005f52601160045260245ffd5b5f6118848261106a565b915061188f8361106a565b925082820261189d8161106a565b915082820484148315176118b4576118b361184d565b5b5092915050565b5f6118c58261106a565b91506118d08361106a565b92508282019050808211156118e8576118e761184d565b5b92915050565b5f6118f88261106a565b91506119038361106a565b925082820390508181111561191b5761191a61184d565b5b92915050565b5f8154905061192f81611584565b9050919050565b818103611944575050611a19565b61194d82611921565b67ffffffffffffffff8111156119665761196561152a565b5b6119708254611584565b61197b8282856116c8565b5f601f8311600181146119a8575f8415611996578287015490505b6119a08582611736565b865550611a12565b601f1984166119b6876115b4565b96506119c1866115b4565b5f5b828110156119e8578489015482556001820191506001850194506020810190506119c3565b86831015611a055784890154611a01601f89168261171a565b8355505b6001600288020188555050505b5050505050505b565b7f4e487b71000000000000000000000000000000000000000000000000000000005f52603160045260245ffd5b5f82825260208201905092915050565b7f50726f64756374206e6f7420666f756e640000000000000000000000000000005f82015250565b5f611a8c601183611a48565b9150611a9782611a58565b602082019050919050565b5f6020820190508181035f830152611ab981611a80565b9050919050565b5f606082019050611ad35f83018661131d565b611ae0602083018561114c565b611aed604083018461114c565b94935050505056fea2646970667358221220c7510e6d091c07f7a162e2e0fd6418ced841c08f26b68298a0861225fcfee28d64736f6c634300081a0033",
					"opcodes": "PUSH1 0x80 PUSH1 0x40 MSTORE CALLVALUE DUP1 ISZERO PUSH2 0xF JUMPI PUSH0 DUP1 REVERT JUMPDEST POP PUSH1 0x40 MLOAD PUSH2 0x1D62 CODESIZE SUB DUP1 PUSH2 0x1D62 DUP4 CODECOPY DUP2 DUP2 ADD PUSH1 0x40 MSTORE DUP2 ADD SWAP1 PUSH2 0x31 SWAP2 SWAP1 PUSH2 0x1D7 JUMP JUMPDEST DUP1 PUSH0 PUSH20 0xFFFFFFFFFFFFFFFFFFFFFFFFFFFFFFFFFFFFFFFF AND DUP2 PUSH20 0xFFFFFFFFFFFFFFFFFFFFFFFFFFFFFFFFFFFFFFFF AND SUB PUSH2 0xA2 JUMPI PUSH0 PUSH1 0x40 MLOAD PUSH32 0x1E4FBDF700000000000000000000000000000000000000000000000000000000 DUP2 MSTORE PUSH1 0x4 ADD PUSH2 0x99 SWAP2 SWAP1 PUSH2 0x211 JUMP JUMPDEST PUSH1 0x40 MLOAD DUP1 SWAP2 SUB SWAP1 REVERT JUMPDEST PUSH2 0xB1 DUP2 PUSH2 0xB8 PUSH1 0x20 SHL PUSH1 0x20 SHR JUMP JUMPDEST POP POP PUSH2 0x22A JUMP JUMPDEST PUSH0 DUP1 PUSH0 SWAP1 SLOAD SWAP1 PUSH2 0x100 EXP SWAP1 DIV PUSH20 0xFFFFFFFFFFFFFFFFFFFFFFFFFFFFFFFFFFFFFFFF AND SWAP1 POP DUP2 PUSH0 DUP1 PUSH2 0x100 EXP DUP2 SLOAD DUP2 PUSH20 0xFFFFFFFFFFFFFFFFFFFFFFFFFFFFFFFFFFFFFFFF MUL NOT AND SWAP1 DUP4 PUSH20 0xFFFFFFFFFFFFFFFFFFFFFFFFFFFFFFFFFFFFFFFF AND MUL OR SWAP1 SSTORE POP DUP2 PUSH20 0xFFFFFFFFFFFFFFFFFFFFFFFFFFFFFFFFFFFFFFFF AND DUP2 PUSH20 0xFFFFFFFFFFFFFFFFFFFFFFFFFFFFFFFFFFFFFFFF AND PUSH32 0x8BE0079C531659141344CD1FD0A4F28419497F9722A3DAAFE3B4186F6B6457E0 PUSH1 0x40 MLOAD PUSH1 0x40 MLOAD DUP1 SWAP2 SUB SWAP1 LOG3 POP POP JUMP JUMPDEST PUSH0 DUP1 REVERT JUMPDEST PUSH0 PUSH20 0xFFFFFFFFFFFFFFFFFFFFFFFFFFFFFFFFFFFFFFFF DUP3 AND SWAP1 POP SWAP2 SWAP1 POP JUMP JUMPDEST PUSH0 PUSH2 0x1A6 DUP3 PUSH2 0x17D JUMP JUMPDEST SWAP1 POP SWAP2 SWAP1 POP JUMP JUMPDEST PUSH2 0x1B6 DUP2 PUSH2 0x19C JUMP JUMPDEST DUP2 EQ PUSH2 0x1C0 JUMPI PUSH0 DUP1 REVERT JUMPDEST POP JUMP JUMPDEST PUSH0 DUP2 MLOAD SWAP1 POP PUSH2 0x1D1 DUP2 PUSH2 0x1AD JUMP JUMPDEST SWAP3 SWAP2 POP POP JUMP JUMPDEST PUSH0 PUSH1 0x20 DUP3 DUP5 SUB SLT ISZERO PUSH2 0x1EC JUMPI PUSH2 0x1EB PUSH2 0x179 JUMP JUMPDEST JUMPDEST PUSH0 PUSH2 0x1F9 DUP5 DUP3 DUP6 ADD PUSH2 0x1C3 JUMP JUMPDEST SWAP2 POP POP SWAP3 SWAP2 POP POP JUMP JUMPDEST PUSH2 0x20B DUP2 PUSH2 0x19C JUMP JUMPDEST DUP3 MSTORE POP POP JUMP JUMPDEST PUSH0 PUSH1 0x20 DUP3 ADD SWAP1 POP PUSH2 0x224 PUSH0 DUP4 ADD DUP5 PUSH2 0x202 JUMP JUMPDEST SWAP3 SWAP2 POP POP JUMP JUMPDEST PUSH2 0x1B2B DUP1 PUSH2 0x237 PUSH0 CODECOPY PUSH0 RETURN INVALID PUSH1 0x80 PUSH1 0x40 MSTORE PUSH1 0x4 CALLDATASIZE LT PUSH2 0xE7 JUMPI PUSH0 CALLDATALOAD PUSH1 0xE0 SHR DUP1 PUSH4 0x82367B2D GT PUSH2 0x89 JUMPI DUP1 PUSH4 0xD6FEBDE8 GT PUSH2 0x58 JUMPI DUP1 PUSH4 0xD6FEBDE8 EQ PUSH2 0x2B3 JUMPI DUP1 PUSH4 0xE7572230 EQ PUSH2 0x2CF JUMPI DUP1 PUSH4 0xED90C7B7 EQ PUSH2 0x30B JUMPI DUP1 PUSH4 0xF2FDE38B EQ PUSH2 0x333 JUMPI PUSH2 0xE7 JUMP JUMPDEST DUP1 PUSH4 0x82367B2D EQ PUSH2 0x20F JUMPI DUP1 PUSH4 0x8DA5CB5B EQ PUSH2 0x237 JUMPI DUP1 PUSH4 0x9DFC3DD1 EQ PUSH2 0x261 JUMPI DUP1 PUSH4 0xC29B2F20 EQ PUSH2 0x289 JUMPI PUSH2 0xE7 JUMP JUMPDEST DUP1 PUSH4 0x3DF50E82 GT PUSH2 0xC5 JUMPI DUP1 PUSH4 0x3DF50E82 EQ PUSH2 0x165 JUMPI DUP1 PUSH4 0x6038D0CF EQ PUSH2 0x1A1 JUMPI DUP1 PUSH4 0x715018A6 EQ PUSH2 0x1DD JUMPI DUP1 PUSH4 0x723CDB1D EQ PUSH2 0x1F3 JUMPI PUSH2 0xE7 JUMP JUMPDEST DUP1 PUSH4 0x94455C4 EQ PUSH2 0xEB JUMPI DUP1 PUSH4 0x3AB7D09A EQ PUSH2 0x113 JUMPI DUP1 PUSH4 0x3CCFD60B EQ PUSH2 0x14F JUMPI JUMPDEST PUSH0 DUP1 REVERT JUMPDEST CALLVALUE DUP1 ISZERO PUSH2 0xF6 JUMPI PUSH0 DUP1 REVERT JUMPDEST POP PUSH2 0x111 PUSH1 0x4 DUP1 CALLDATASIZE SUB DUP2 ADD SWAP1 PUSH2 0x10C SWAP2 SWAP1 PUSH2 0x109D JUMP JUMPDEST PUSH2 0x35B JUMP JUMPDEST STOP JUMPDEST CALLVALUE DUP1 ISZERO PUSH2 0x11E JUMPI PUSH0 DUP1 REVERT JUMPDEST POP PUSH2 0x139 PUSH1 0x4 DUP1 CALLDATASIZE SUB DUP2 ADD SWAP1 PUSH2 0x134 SWAP2 SWAP1 PUSH2 0x1121 JUMP JUMPDEST PUSH2 0x46A JUMP JUMPDEST PUSH1 0x40 MLOAD PUSH2 0x146 SWAP2 SWAP1 PUSH2 0x115B JUMP JUMPDEST PUSH1 0x40 MLOAD DUP1 SWAP2 SUB SWAP1 RETURN JUMPDEST CALLVALUE DUP1 ISZERO PUSH2 0x15A JUMPI PUSH0 DUP1 REVERT JUMPDEST POP PUSH2 0x163 PUSH2 0x484 JUMP JUMPDEST STOP JUMPDEST CALLVALUE DUP1 ISZERO PUSH2 0x170 JUMPI PUSH0 DUP1 REVERT JUMPDEST POP PUSH2 0x18B PUSH1 0x4 DUP1 CALLDATASIZE SUB DUP2 ADD SWAP1 PUSH2 0x186 SWAP2 SWAP1 PUSH2 0x1121 JUMP JUMPDEST PUSH2 0x517 JUMP JUMPDEST PUSH1 0x40 MLOAD PUSH2 0x198 SWAP2 SWAP1 PUSH2 0x115B JUMP JUMPDEST PUSH1 0x40 MLOAD DUP1 SWAP2 SUB SWAP1 RETURN JUMPDEST CALLVALUE DUP1 ISZERO PUSH2 0x1AC JUMPI PUSH0 DUP1 REVERT JUMPDEST POP PUSH2 0x1C7 PUSH1 0x4 DUP1 CALLDATASIZE SUB DUP2 ADD SWAP1 PUSH2 0x1C2 SWAP2 SWAP1 PUSH2 0x11CE JUMP JUMPDEST PUSH2 0x52C JUMP JUMPDEST PUSH1 0x40 MLOAD PUSH2 0x1D4 SWAP2 SWAP1 PUSH2 0x115B JUMP JUMPDEST PUSH1 0x40 MLOAD DUP1 SWAP2 SUB SWAP1 RETURN JUMPDEST CALLVALUE DUP1 ISZERO PUSH2 0x1E8 JUMPI PUSH0 DUP1 REVERT JUMPDEST POP PUSH2 0x1F1 PUSH2 0x54C JUMP JUMPDEST STOP JUMPDEST PUSH2 0x20D PUSH1 0x4 DUP1 CALLDATASIZE SUB DUP2 ADD SWAP1 PUSH2 0x208 SWAP2 SWAP1 PUSH2 0x1261 JUMP JUMPDEST PUSH2 0x55F JUMP JUMPDEST STOP JUMPDEST CALLVALUE DUP1 ISZERO PUSH2 0x21A JUMPI PUSH0 DUP1 REVERT JUMPDEST POP PUSH2 0x235 PUSH1 0x4 DUP1 CALLDATASIZE SUB DUP2 ADD SWAP1 PUSH2 0x230 SWAP2 SWAP1 PUSH2 0x12DF JUMP JUMPDEST PUSH2 0x78D JUMP JUMPDEST STOP JUMPDEST CALLVALUE DUP1 ISZERO PUSH2 0x242 JUMPI PUSH0 DUP1 REVERT JUMPDEST POP PUSH2 0x24B PUSH2 0x7AF JUMP JUMPDEST PUSH1 0x40 MLOAD PUSH2 0x258 SWAP2 SWAP1 PUSH2 0x132C JUMP JUMPDEST PUSH1 0x40 MLOAD DUP1 SWAP2 SUB SWAP1 RETURN JUMPDEST CALLVALUE DUP1 ISZERO PUSH2 0x26C JUMPI PUSH0 DUP1 REVERT JUMPDEST POP PUSH2 0x287 PUSH1 0x4 DUP1 CALLDATASIZE SUB DUP2 ADD SWAP1 PUSH2 0x282 SWAP2 SWAP1 PUSH2 0x12DF JUMP JUMPDEST PUSH2 0x7D6 JUMP JUMPDEST STOP JUMPDEST CALLVALUE DUP1 ISZERO PUSH2 0x294 JUMPI PUSH0 DUP1 REVERT JUMPDEST POP PUSH2 0x29D PUSH2 0x7F8 JUMP JUMPDEST PUSH1 0x40 MLOAD PUSH2 0x2AA SWAP2 SWAP1 PUSH2 0x14DF JUMP JUMPDEST PUSH1 0x40 MLOAD DUP1 SWAP2 SUB SWAP1 RETURN JUMPDEST PUSH2 0x2CD PUSH1 0x4 DUP1 CALLDATASIZE SUB DUP2 ADD SWAP1 PUSH2 0x2C8 SWAP2 SWAP1 PUSH2 0x12DF JUMP JUMPDEST PUSH2 0x901 JUMP JUMPDEST STOP JUMPDEST CALLVALUE DUP1 ISZERO PUSH2 0x2DA JUMPI PUSH0 DUP1 REVERT JUMPDEST POP PUSH2 0x2F5 PUSH1 0x4 DUP1 CALLDATASIZE SUB DUP2 ADD SWAP1 PUSH2 0x2F0 SWAP2 SWAP1 PUSH2 0x1121 JUMP JUMPDEST PUSH2 0xA35 JUMP JUMPDEST PUSH1 0x40 MLOAD PUSH2 0x302 SWAP2 SWAP1 PUSH2 0x115B JUMP JUMPDEST PUSH1 0x40 MLOAD DUP1 SWAP2 SUB SWAP1 RETURN JUMPDEST CALLVALUE DUP1 ISZERO PUSH2 0x316 JUMPI PUSH0 DUP1 REVERT JUMPDEST POP PUSH2 0x331 PUSH1 0x4 DUP1 CALLDATASIZE SUB DUP2 ADD SWAP1 PUSH2 0x32C SWAP2 SWAP1 PUSH2 0x1121 JUMP JUMPDEST PUSH2 0xA4F JUMP JUMPDEST STOP JUMPDEST CALLVALUE DUP1 ISZERO PUSH2 0x33E JUMPI PUSH0 DUP1 REVERT JUMPDEST POP PUSH2 0x359 PUSH1 0x4 DUP1 CALLDATASIZE SUB DUP2 ADD SWAP1 PUSH2 0x354 SWAP2 SWAP1 PUSH2 0x14FF JUMP JUMPDEST PUSH2 0xB73 JUMP JUMPDEST STOP JUMPDEST PUSH2 0x363 PUSH2 0xBF7 JUMP JUMPDEST PUSH2 0x36C DUP4 PUSH2 0xC7E JUMP JUMPDEST ISZERO PUSH2 0x3A3 JUMPI PUSH1 0x40 MLOAD PUSH32 0xF270498400000000000000000000000000000000000000000000000000000000 DUP2 MSTORE PUSH1 0x4 ADD PUSH1 0x40 MLOAD DUP1 SWAP2 SUB SWAP1 REVERT JUMPDEST PUSH1 0x3 PUSH1 0x40 MLOAD DUP1 PUSH1 0x80 ADD PUSH1 0x40 MSTORE DUP1 DUP8 DUP8 DUP1 DUP1 PUSH1 0x1F ADD PUSH1 0x20 DUP1 SWAP2 DIV MUL PUSH1 0x20 ADD PUSH1 0x40 MLOAD SWAP1 DUP2 ADD PUSH1 0x40 MSTORE DUP1 SWAP4 SWAP3 SWAP2 SWAP1 DUP2 DUP2 MSTORE PUSH1 0x20 ADD DUP4 DUP4 DUP1 DUP3 DUP5 CALLDATACOPY PUSH0 DUP2 DUP5 ADD MSTORE PUSH1 0x1F NOT PUSH1 0x1F DUP3 ADD AND SWAP1 POP DUP1 DUP4 ADD SWAP3 POP POP POP POP POP POP POP DUP2 MSTORE PUSH1 0x20 ADD DUP6 DUP2 MSTORE PUSH1 0x20 ADD DUP5 DUP2 MSTORE PUSH1 0x20 ADD DUP4 DUP2 MSTORE POP SWAP1 DUP1 PUSH1 0x1 DUP2 SLOAD ADD DUP1 DUP3 SSTORE DUP1 SWAP2 POP POP PUSH1 0x1 SWAP1 SUB SWAP1 PUSH0 MSTORE PUSH1 0x20 PUSH0 KECCAK256 SWAP1 PUSH1 0x4 MUL ADD PUSH0 SWAP1 SWAP2 SWAP1 SWAP2 SWAP1 SWAP2 POP PUSH0 DUP3 ADD MLOAD DUP2 PUSH0 ADD SWAP1 DUP2 PUSH2 0x442 SWAP2 SWAP1 PUSH2 0x1751 JUMP JUMPDEST POP PUSH1 0x20 DUP3 ADD MLOAD DUP2 PUSH1 0x1 ADD SSTORE PUSH1 0x40 DUP3 ADD MLOAD DUP2 PUSH1 0x2 ADD SSTORE PUSH1 0x60 DUP3 ADD MLOAD DUP2 PUSH1 0x3 ADD SSTORE POP POP POP POP POP POP POP JUMP JUMPDEST PUSH0 DUP1 PUSH2 0x475 DUP4 PUSH2 0xCDC JUMP JUMPDEST SWAP1 POP DUP1 PUSH1 0x2 ADD SLOAD SWAP2 POP POP SWAP2 SWAP1 POP JUMP JUMPDEST PUSH2 0x48C PUSH2 0xBF7 JUMP JUMPDEST PUSH0 SELFBALANCE SWAP1 POP PUSH0 DUP2 SUB PUSH2 0x4C9 JUMPI PUSH1 0x40 MLOAD PUSH32 0x469EA76800000000000000000000000000000000000000000000000000000000 DUP2 MSTORE PUSH1 0x4 ADD PUSH1 0x40 MLOAD DUP1 SWAP2 SUB SWAP1 REVERT JUMPDEST PUSH2 0x4D1 PUSH2 0x7AF JUMP JUMPDEST PUSH20 0xFFFFFFFFFFFFFFFFFFFFFFFFFFFFFFFFFFFFFFFF AND PUSH2 0x8FC DUP3 SWAP1 DUP2 ISZERO MUL SWAP1 PUSH1 0x40 MLOAD PUSH0 PUSH1 0x40 MLOAD DUP1 DUP4 SUB DUP2 DUP6 DUP9 DUP9 CALL SWAP4 POP POP POP POP ISZERO DUP1 ISZERO PUSH2 0x513 JUMPI RETURNDATASIZE PUSH0 DUP1 RETURNDATACOPY RETURNDATASIZE PUSH0 REVERT JUMPDEST POP POP JUMP JUMPDEST PUSH1 0x2 PUSH1 0x20 MSTORE DUP1 PUSH0 MSTORE PUSH1 0x40 PUSH0 KECCAK256 PUSH0 SWAP2 POP SWAP1 POP SLOAD DUP2 JUMP JUMPDEST PUSH1 0x1 PUSH1 0x20 MSTORE DUP2 PUSH0 MSTORE PUSH1 0x40 PUSH0 KECCAK256 PUSH1 0x20 MSTORE DUP1 PUSH0 MSTORE PUSH1 0x40 PUSH0 KECCAK256 PUSH0 SWAP2 POP SWAP2 POP POP SLOAD DUP2 JUMP JUMPDEST PUSH2 0x554 PUSH2 0xBF7 JUMP JUMPDEST PUSH2 0x55D PUSH0 PUSH2 0xD8F JUMP JUMPDEST JUMP JUMPDEST DUP2 DUP2 SWAP1 POP DUP5 DUP5 SWAP1 POP EQ PUSH2 0x59E JUMPI PUSH1 0x40 MLOAD PUSH32 0x23A37FC200000000000000000000000000000000000000000000000000000000 DUP2 MSTORE PUSH1 0x4 ADD PUSH1 0x40 MLOAD DUP1 SWAP2 SUB SWAP1 REVERT JUMPDEST PUSH0 DUP1 JUMPDEST DUP6 DUP6 SWAP1 POP DUP2 LT ISZERO PUSH2 0x691 JUMPI PUSH0 DUP5 DUP5 DUP4 DUP2 DUP2 LT PUSH2 0x5C0 JUMPI PUSH2 0x5BF PUSH2 0x1820 JUMP JUMPDEST JUMPDEST SWAP1 POP PUSH1 0x20 MUL ADD CALLDATALOAD SWAP1 POP PUSH0 DUP8 DUP8 DUP5 DUP2 DUP2 LT PUSH2 0x5DD JUMPI PUSH2 0x5DC PUSH2 0x1820 JUMP JUMPDEST JUMPDEST SWAP1 POP PUSH1 0x20 MUL ADD CALLDATALOAD SWAP1 POP PUSH0 DUP3 GT PUSH2 0x61F JUMPI PUSH1 0x40 MLOAD PUSH32 0xF4F5B73300000000000000000000000000000000000000000000000000000000 DUP2 MSTORE PUSH1 0x4 ADD PUSH1 0x40 MLOAD DUP1 SWAP2 SUB SWAP1 REVERT JUMPDEST DUP2 PUSH2 0x629 DUP5 PUSH2 0x46A JUMP JUMPDEST LT ISZERO PUSH2 0x661 JUMPI PUSH1 0x40 MLOAD PUSH32 0xADE1CB4100000000000000000000000000000000000000000000000000000000 DUP2 MSTORE PUSH1 0x4 ADD PUSH1 0x40 MLOAD DUP1 SWAP2 SUB SWAP1 REVERT JUMPDEST DUP2 PUSH2 0x66B DUP3 PUSH2 0xA35 JUMP JUMPDEST PUSH2 0x675 SWAP2 SWAP1 PUSH2 0x187A JUMP JUMPDEST DUP5 PUSH2 0x680 SWAP2 SWAP1 PUSH2 0x18BB JUMP JUMPDEST SWAP4 POP POP POP DUP1 DUP1 PUSH1 0x1 ADD SWAP2 POP POP PUSH2 0x5A1 JUMP JUMPDEST POP DUP1 CALLVALUE LT ISZERO PUSH2 0x6CC JUMPI PUSH1 0x40 MLOAD PUSH32 0x81B5AD6800000000000000000000000000000000000000000000000000000000 DUP2 MSTORE PUSH1 0x4 ADD PUSH1 0x40 MLOAD DUP1 SWAP2 SUB SWAP1 REVERT JUMPDEST PUSH0 JUMPDEST DUP6 DUP6 SWAP1 POP DUP2 LT ISZERO PUSH2 0x72D JUMPI PUSH0 DUP5 DUP5 DUP4 DUP2 DUP2 LT PUSH2 0x6ED JUMPI PUSH2 0x6EC PUSH2 0x1820 JUMP JUMPDEST JUMPDEST SWAP1 POP PUSH1 0x20 MUL ADD CALLDATALOAD SWAP1 POP PUSH0 DUP8 DUP8 DUP5 DUP2 DUP2 LT PUSH2 0x70A JUMPI PUSH2 0x709 PUSH2 0x1820 JUMP JUMPDEST JUMPDEST SWAP1 POP PUSH1 0x20 MUL ADD CALLDATALOAD SWAP1 POP PUSH2 0x71E CALLER DUP3 DUP5 PUSH2 0xE50 JUMP JUMPDEST POP POP DUP1 DUP1 PUSH1 0x1 ADD SWAP2 POP POP PUSH2 0x6CE JUMP JUMPDEST POP DUP1 CALLVALUE GT ISZERO PUSH2 0x786 JUMPI CALLER PUSH20 0xFFFFFFFFFFFFFFFFFFFFFFFFFFFFFFFFFFFFFFFF AND PUSH2 0x8FC DUP3 CALLVALUE PUSH2 0x75C SWAP2 SWAP1 PUSH2 0x18EE JUMP JUMPDEST SWAP1 DUP2 ISZERO MUL SWAP1 PUSH1 0x40 MLOAD PUSH0 PUSH1 0x40 MLOAD DUP1 DUP4 SUB DUP2 DUP6 DUP9 DUP9 CALL SWAP4 POP POP POP POP ISZERO DUP1 ISZERO PUSH2 0x784 JUMPI RETURNDATASIZE PUSH0 DUP1 RETURNDATACOPY RETURNDATASIZE PUSH0 REVERT JUMPDEST POP JUMPDEST POP POP POP POP POP JUMP JUMPDEST PUSH2 0x795 PUSH2 0xBF7 JUMP JUMPDEST PUSH0 PUSH2 0x79F DUP4 PUSH2 0xCDC JUMP JUMPDEST SWAP1 POP DUP2 DUP2 PUSH1 0x3 ADD DUP2 SWAP1 SSTORE POP POP POP POP JUMP JUMPDEST PUSH0 DUP1 PUSH0 SWAP1 SLOAD SWAP1 PUSH2 0x100 EXP SWAP1 DIV PUSH20 0xFFFFFFFFFFFFFFFFFFFFFFFFFFFFFFFFFFFFFFFF AND SWAP1 POP SWAP1 JUMP JUMPDEST PUSH2 0x7DE PUSH2 0xBF7 JUMP JUMPDEST PUSH0 PUSH2 0x7E8 DUP4 PUSH2 0xCDC JUMP JUMPDEST SWAP1 POP DUP2 DUP2 PUSH1 0x2 ADD DUP2 SWAP1 SSTORE POP POP POP POP JUMP JUMPDEST PUSH1 0x60 PUSH1 0x3 DUP1 SLOAD DUP1 PUSH1 0x20 MUL PUSH1 0x20 ADD PUSH1 0x40 MLOAD SWAP1 DUP2 ADD PUSH1 0x40 MSTORE DUP1 SWAP3 SWAP2 SWAP1 DUP2 DUP2 MSTORE PUSH1 0x20 ADD PUSH0 SWAP1 JUMPDEST DUP3 DUP3 LT ISZERO PUSH2 0x8F8 JUMPI DUP4 DUP3 SWAP1 PUSH0 MSTORE PUSH1 0x20 PUSH0 KECCAK256 SWAP1 PUSH1 0x4 MUL ADD PUSH1 0x40 MLOAD DUP1 PUSH1 0x80 ADD PUSH1 0x40 MSTORE SWAP1 DUP2 PUSH0 DUP3 ADD DUP1 SLOAD PUSH2 0x84B SWAP1 PUSH2 0x1584 JUMP JUMPDEST DUP1 PUSH1 0x1F ADD PUSH1 0x20 DUP1 SWAP2 DIV MUL PUSH1 0x20 ADD PUSH1 0x40 MLOAD SWAP1 DUP2 ADD PUSH1 0x40 MSTORE DUP1 SWAP3 SWAP2 SWAP1 DUP2 DUP2 MSTORE PUSH1 0x20 ADD DUP3 DUP1 SLOAD PUSH2 0x877 SWAP1 PUSH2 0x1584 JUMP JUMPDEST DUP1 ISZERO PUSH2 0x8C2 JUMPI DUP1 PUSH1 0x1F LT PUSH2 0x899 JUMPI PUSH2 0x100 DUP1 DUP4 SLOAD DIV MUL DUP4 MSTORE SWAP2 PUSH1 0x20 ADD SWAP2 PUSH2 0x8C2 JUMP JUMPDEST DUP3 ADD SWAP2 SWAP1 PUSH0 MSTORE PUSH1 0x20 PUSH0 KECCAK256 SWAP1 JUMPDEST DUP2 SLOAD DUP2 MSTORE SWAP1 PUSH1 0x1 ADD SWAP1 PUSH1 0x20 ADD DUP1 DUP4 GT PUSH2 0x8A5 JUMPI DUP3 SWAP1 SUB PUSH1 0x1F AND DUP3 ADD SWAP2 JUMPDEST POP POP POP POP POP DUP2 MSTORE PUSH1 0x20 ADD PUSH1 0x1 DUP3 ADD SLOAD DUP2 MSTORE PUSH1 0x20 ADD PUSH1 0x2 DUP3 ADD SLOAD DUP2 MSTORE PUSH1 0x20 ADD PUSH1 0x3 DUP3 ADD SLOAD DUP2 MSTORE POP POP DUP2 MSTORE PUSH1 0x20 ADD SWAP1 PUSH1 0x1 ADD SWAP1 PUSH2 0x81B JUMP JUMPDEST POP POP POP POP SWAP1 POP SWAP1 JUMP JUMPDEST PUSH0 DUP2 GT PUSH2 0x93A JUMPI PUSH1 0x40 MLOAD PUSH32 0xF4F5B73300000000000000000000000000000000000000000000000000000000 DUP2 MSTORE PUSH1 0x4 ADD PUSH1 0x40 MLOAD DUP1 SWAP2 SUB SWAP1 REVERT JUMPDEST DUP1 PUSH2 0x944 DUP4 PUSH2 0x46A JUMP JUMPDEST LT ISZERO PUSH2 0x97C JUMPI PUSH1 0x40 MLOAD PUSH32 0xADE1CB4100000000000000000000000000000000000000000000000000000000 DUP2 MSTORE PUSH1 0x4 ADD PUSH1 0x40 MLOAD DUP1 SWAP2 SUB SWAP1 REVERT JUMPDEST PUSH0 DUP2 PUSH2 0x987 DUP5 PUSH2 0xA35 JUMP JUMPDEST PUSH2 0x991 SWAP2 SWAP1 PUSH2 0x187A JUMP JUMPDEST SWAP1 POP DUP1 CALLVALUE LT ISZERO PUSH2 0x9CD JUMPI PUSH1 0x40 MLOAD PUSH32 0x81B5AD6800000000000000000000000000000000000000000000000000000000 DUP2 MSTORE PUSH1 0x4 ADD PUSH1 0x40 MLOAD DUP1 SWAP2 SUB SWAP1 REVERT JUMPDEST PUSH2 0x9D8 CALLER DUP5 DUP5 PUSH2 0xE50 JUMP JUMPDEST DUP1 CALLVALUE GT ISZERO PUSH2 0xA30 JUMPI CALLER PUSH20 0xFFFFFFFFFFFFFFFFFFFFFFFFFFFFFFFFFFFFFFFF AND PUSH2 0x8FC DUP3 CALLVALUE PUSH2 0xA06 SWAP2 SWAP1 PUSH2 0x18EE JUMP JUMPDEST SWAP1 DUP2 ISZERO MUL SWAP1 PUSH1 0x40 MLOAD PUSH0 PUSH1 0x40 MLOAD DUP1 DUP4 SUB DUP2 DUP6 DUP9 DUP9 CALL SWAP4 POP POP POP POP ISZERO DUP1 ISZERO PUSH2 0xA2E JUMPI RETURNDATASIZE PUSH0 DUP1 RETURNDATACOPY RETURNDATASIZE PUSH0 REVERT JUMPDEST POP JUMPDEST POP POP POP JUMP JUMPDEST PUSH0 DUP1 PUSH2 0xA40 DUP4 PUSH2 0xCDC JUMP JUMPDEST SWAP1 POP DUP1 PUSH1 0x3 ADD SLOAD SWAP2 POP POP SWAP2 SWAP1 POP JUMP JUMPDEST PUSH2 0xA57 PUSH2 0xBF7 JUMP JUMPDEST PUSH0 DUP1 PUSH2 0xA62 DUP4 PUSH2 0xF40 JUMP JUMPDEST SWAP2 POP SWAP2 POP DUP2 PUSH2 0xA9D JUMPI PUSH1 0x40 MLOAD PUSH32 0xC270964900000000000000000000000000000000000000000000000000000000 DUP2 MSTORE PUSH1 0x4 ADD PUSH1 0x40 MLOAD DUP1 SWAP2 SUB SWAP1 REVERT JUMPDEST PUSH1 0x3 PUSH1 0x1 PUSH1 0x3 DUP1 SLOAD SWAP1 POP PUSH2 0xAB1 SWAP2 SWAP1 PUSH2 0x18EE JUMP JUMPDEST DUP2 SLOAD DUP2 LT PUSH2 0xAC2 JUMPI PUSH2 0xAC1 PUSH2 0x1820 JUMP JUMPDEST JUMPDEST SWAP1 PUSH0 MSTORE PUSH1 0x20 PUSH0 KECCAK256 SWAP1 PUSH1 0x4 MUL ADD PUSH1 0x3 DUP3 DUP2 SLOAD DUP2 LT PUSH2 0xAE2 JUMPI PUSH2 0xAE1 PUSH2 0x1820 JUMP JUMPDEST JUMPDEST SWAP1 PUSH0 MSTORE PUSH1 0x20 PUSH0 KECCAK256 SWAP1 PUSH1 0x4 MUL ADD PUSH0 DUP3 ADD DUP2 PUSH0 ADD SWAP1 DUP2 PUSH2 0xB00 SWAP2 SWAP1 PUSH2 0x1936 JUMP JUMPDEST POP PUSH1 0x1 DUP3 ADD SLOAD DUP2 PUSH1 0x1 ADD SSTORE PUSH1 0x2 DUP3 ADD SLOAD DUP2 PUSH1 0x2 ADD SSTORE PUSH1 0x3 DUP3 ADD SLOAD DUP2 PUSH1 0x3 ADD SSTORE SWAP1 POP POP PUSH1 0x3 DUP1 SLOAD DUP1 PUSH2 0xB34 JUMPI PUSH2 0xB33 PUSH2 0x1A1B JUMP JUMPDEST JUMPDEST PUSH1 0x1 SWAP1 SUB DUP2 DUP2 SWAP1 PUSH0 MSTORE PUSH1 0x20 PUSH0 KECCAK256 SWAP1 PUSH1 0x4 MUL ADD PUSH0 DUP1 DUP3 ADD PUSH0 PUSH2 0xB55 SWAP2 SWAP1 PUSH2 0xFA9 JUMP JUMPDEST PUSH1 0x1 DUP3 ADD PUSH0 SWAP1 SSTORE PUSH1 0x2 DUP3 ADD PUSH0 SWAP1 SSTORE PUSH1 0x3 DUP3 ADD PUSH0 SWAP1 SSTORE POP POP SWAP1 SSTORE POP POP POP JUMP JUMPDEST PUSH2 0xB7B PUSH2 0xBF7 JUMP JUMPDEST PUSH0 PUSH20 0xFFFFFFFFFFFFFFFFFFFFFFFFFFFFFFFFFFFFFFFF AND DUP2 PUSH20 0xFFFFFFFFFFFFFFFFFFFFFFFFFFFFFFFFFFFFFFFF AND SUB PUSH2 0xBEB JUMPI PUSH0 PUSH1 0x40 MLOAD PUSH32 0x1E4FBDF700000000000000000000000000000000000000000000000000000000 DUP2 MSTORE PUSH1 0x4 ADD PUSH2 0xBE2 SWAP2 SWAP1 PUSH2 0x132C JUMP JUMPDEST PUSH1 0x40 MLOAD DUP1 SWAP2 SUB SWAP1 REVERT JUMPDEST PUSH2 0xBF4 DUP2 PUSH2 0xD8F JUMP JUMPDEST POP JUMP JUMPDEST PUSH2 0xBFF PUSH2 0xFA2 JUMP JUMPDEST PUSH20 0xFFFFFFFFFFFFFFFFFFFFFFFFFFFFFFFFFFFFFFFF AND PUSH2 0xC1D PUSH2 0x7AF JUMP JUMPDEST PUSH20 0xFFFFFFFFFFFFFFFFFFFFFFFFFFFFFFFFFFFFFFFF AND EQ PUSH2 0xC7C JUMPI PUSH2 0xC40 PUSH2 0xFA2 JUMP JUMPDEST PUSH1 0x40 MLOAD PUSH32 0x118CDAA700000000000000000000000000000000000000000000000000000000 DUP2 MSTORE PUSH1 0x4 ADD PUSH2 0xC73 SWAP2 SWAP1 PUSH2 0x132C JUMP JUMPDEST PUSH1 0x40 MLOAD DUP1 SWAP2 SUB SWAP1 REVERT JUMPDEST JUMP JUMPDEST PUSH0 DUP1 PUSH0 SWAP1 POP JUMPDEST PUSH1 0x3 DUP1 SLOAD SWAP1 POP DUP2 LT ISZERO PUSH2 0xCD2 JUMPI DUP3 PUSH1 0x3 DUP3 DUP2 SLOAD DUP2 LT PUSH2 0xCA6 JUMPI PUSH2 0xCA5 PUSH2 0x1820 JUMP JUMPDEST JUMPDEST SWAP1 PUSH0 MSTORE PUSH1 0x20 PUSH0 KECCAK256 SWAP1 PUSH1 0x4 MUL ADD PUSH1 0x1 ADD SLOAD SUB PUSH2 0xCC5 JUMPI PUSH1 0x1 SWAP2 POP POP PUSH2 0xCD7 JUMP JUMPDEST DUP1 DUP1 PUSH1 0x1 ADD SWAP2 POP POP PUSH2 0xC84 JUMP JUMPDEST POP PUSH0 SWAP1 POP JUMPDEST SWAP2 SWAP1 POP JUMP JUMPDEST PUSH0 DUP1 PUSH0 SWAP1 POP JUMPDEST PUSH1 0x3 DUP1 SLOAD SWAP1 POP DUP2 LT ISZERO PUSH2 0xD4E JUMPI DUP3 PUSH1 0x3 DUP3 DUP2 SLOAD DUP2 LT PUSH2 0xD04 JUMPI PUSH2 0xD03 PUSH2 0x1820 JUMP JUMPDEST JUMPDEST SWAP1 PUSH0 MSTORE PUSH1 0x20 PUSH0 KECCAK256 SWAP1 PUSH1 0x4 MUL ADD PUSH1 0x1 ADD SLOAD SUB PUSH2 0xD41 JUMPI PUSH1 0x3 DUP2 DUP2 SLOAD DUP2 LT PUSH2 0xD2D JUMPI PUSH2 0xD2C PUSH2 0x1820 JUMP JUMPDEST JUMPDEST SWAP1 PUSH0 MSTORE PUSH1 0x20 PUSH0 KECCAK256 SWAP1 PUSH1 0x4 MUL ADD SWAP2 POP POP PUSH2 0xD8A JUMP JUMPDEST DUP1 DUP1 PUSH1 0x1 ADD SWAP2 POP POP PUSH2 0xCE2 JUMP JUMPDEST POP PUSH1 0x40 MLOAD PUSH32 0x8C379A000000000000000000000000000000000000000000000000000000000 DUP2 MSTORE PUSH1 0x4 ADD PUSH2 0xD81 SWAP1 PUSH2 0x1AA2 JUMP JUMPDEST PUSH1 0x40 MLOAD DUP1 SWAP2 SUB SWAP1 REVERT JUMPDEST SWAP2 SWAP1 POP JUMP JUMPDEST PUSH0 DUP1 PUSH0 SWAP1 SLOAD SWAP1 PUSH2 0x100 EXP SWAP1 DIV PUSH20 0xFFFFFFFFFFFFFFFFFFFFFFFFFFFFFFFFFFFFFFFF AND SWAP1 POP DUP2 PUSH0 DUP1 PUSH2 0x100 EXP DUP2 SLOAD DUP2 PUSH20 0xFFFFFFFFFFFFFFFFFFFFFFFFFFFFFFFFFFFFFFFF MUL NOT AND SWAP1 DUP4 PUSH20 0xFFFFFFFFFFFFFFFFFFFFFFFFFFFFFFFFFFFFFFFF AND MUL OR SWAP1 SSTORE POP DUP2 PUSH20 0xFFFFFFFFFFFFFFFFFFFFFFFFFFFFFFFFFFFFFFFF AND DUP2 PUSH20 0xFFFFFFFFFFFFFFFFFFFFFFFFFFFFFFFFFFFFFFFF AND PUSH32 0x8BE0079C531659141344CD1FD0A4F28419497F9722A3DAAFE3B4186F6B6457E0 PUSH1 0x40 MLOAD PUSH1 0x40 MLOAD DUP1 SWAP2 SUB SWAP1 LOG3 POP POP JUMP JUMPDEST PUSH0 PUSH2 0xE5A DUP4 PUSH2 0xCDC JUMP JUMPDEST SWAP1 POP DUP2 DUP2 PUSH1 0x2 ADD PUSH0 DUP3 DUP3 SLOAD PUSH2 0xE6F SWAP2 SWAP1 PUSH2 0x18EE JUMP JUMPDEST SWAP3 POP POP DUP2 SWAP1 SSTORE POP DUP2 PUSH1 0x1 PUSH0 DUP7 PUSH20 0xFFFFFFFFFFFFFFFFFFFFFFFFFFFFFFFFFFFFFFFF AND PUSH20 0xFFFFFFFFFFFFFFFFFFFFFFFFFFFFFFFFFFFFFFFF AND DUP2 MSTORE PUSH1 0x20 ADD SWAP1 DUP2 MSTORE PUSH1 0x20 ADD PUSH0 KECCAK256 PUSH0 DUP6 DUP2 MSTORE PUSH1 0x20 ADD SWAP1 DUP2 MSTORE PUSH1 0x20 ADD PUSH0 KECCAK256 PUSH0 DUP3 DUP3 SLOAD PUSH2 0xED1 SWAP2 SWAP1 PUSH2 0x18BB JUMP JUMPDEST SWAP3 POP POP DUP2 SWAP1 SSTORE POP DUP2 PUSH1 0x2 PUSH0 DUP6 DUP2 MSTORE PUSH1 0x20 ADD SWAP1 DUP2 MSTORE PUSH1 0x20 ADD PUSH0 KECCAK256 PUSH0 DUP3 DUP3 SLOAD PUSH2 0xEF8 SWAP2 SWAP1 PUSH2 0x18BB JUMP JUMPDEST SWAP3 POP POP DUP2 SWAP1 SSTORE POP PUSH32 0x12CB4648CF3058B17CEEB33E579F8B0BC269FE0843F3900B8E24B6C54871703C DUP5 DUP5 DUP5 PUSH1 0x40 MLOAD PUSH2 0xF32 SWAP4 SWAP3 SWAP2 SWAP1 PUSH2 0x1AC0 JUMP JUMPDEST PUSH1 0x40 MLOAD DUP1 SWAP2 SUB SWAP1 LOG1 POP POP POP POP JUMP JUMPDEST PUSH0 DUP1 PUSH0 JUMPDEST PUSH1 0x3 DUP1 SLOAD SWAP1 POP DUP2 LT ISZERO PUSH2 0xF95 JUMPI DUP4 PUSH1 0x3 DUP3 DUP2 SLOAD DUP2 LT PUSH2 0xF66 JUMPI PUSH2 0xF65 PUSH2 0x1820 JUMP JUMPDEST JUMPDEST SWAP1 PUSH0 MSTORE PUSH1 0x20 PUSH0 KECCAK256 SWAP1 PUSH1 0x4 MUL ADD PUSH1 0x1 ADD SLOAD SUB PUSH2 0xF88 JUMPI PUSH1 0x1 DUP2 SWAP3 POP SWAP3 POP POP PUSH2 0xF9D JUMP JUMPDEST DUP1 DUP1 PUSH1 0x1 ADD SWAP2 POP POP PUSH2 0xF44 JUMP JUMPDEST POP PUSH0 DUP1 SWAP2 POP SWAP2 POP JUMPDEST SWAP2 POP SWAP2 JUMP JUMPDEST PUSH0 CALLER SWAP1 POP SWAP1 JUMP JUMPDEST POP DUP1 SLOAD PUSH2 0xFB5 SWAP1 PUSH2 0x1584 JUMP JUMPDEST PUSH0 DUP3 SSTORE DUP1 PUSH1 0x1F LT PUSH2 0xFC6 JUMPI POP PUSH2 0xFE3 JUMP JUMPDEST PUSH1 0x1F ADD PUSH1 0x20 SWAP1 DIV SWAP1 PUSH0 MSTORE PUSH1 0x20 PUSH0 KECCAK256 SWAP1 DUP2 ADD SWAP1 PUSH2 0xFE2 SWAP2 SWAP1 PUSH2 0xFE6 JUMP JUMPDEST JUMPDEST POP JUMP JUMPDEST JUMPDEST DUP1 DUP3 GT ISZERO PUSH2 0xFFD JUMPI PUSH0 DUP2 PUSH0 SWAP1 SSTORE POP PUSH1 0x1 ADD PUSH2 0xFE7 JUMP JUMPDEST POP SWAP1 JUMP JUMPDEST PUSH0 DUP1 REVERT JUMPDEST PUSH0 DUP1 REVERT JUMPDEST PUSH0 DUP1 REVERT JUMPDEST PUSH0 DUP1 REVERT JUMPDEST PUSH0 DUP1 REVERT JUMPDEST PUSH0 DUP1 DUP4 PUSH1 0x1F DUP5 ADD SLT PUSH2 0x102A JUMPI PUSH2 0x1029 PUSH2 0x1009 JUMP JUMPDEST JUMPDEST DUP3 CALLDATALOAD SWAP1 POP PUSH8 0xFFFFFFFFFFFFFFFF DUP2 GT ISZERO PUSH2 0x1047 JUMPI PUSH2 0x1046 PUSH2 0x100D JUMP JUMPDEST JUMPDEST PUSH1 0x20 DUP4 ADD SWAP2 POP DUP4 PUSH1 0x1 DUP3 MUL DUP4 ADD GT ISZERO PUSH2 0x1063 JUMPI PUSH2 0x1062 PUSH2 0x1011 JUMP JUMPDEST JUMPDEST SWAP3 POP SWAP3 SWAP1 POP JUMP JUMPDEST PUSH0 DUP2 SWAP1 POP SWAP2 SWAP1 POP JUMP JUMPDEST PUSH2 0x107C DUP2 PUSH2 0x106A JUMP JUMPDEST DUP2 EQ PUSH2 0x1086 JUMPI PUSH0 DUP1 REVERT JUMPDEST POP JUMP JUMPDEST PUSH0 DUP2 CALLDATALOAD SWAP1 POP PUSH2 0x1097 DUP2 PUSH2 0x1073 JUMP JUMPDEST SWAP3 SWAP2 POP POP JUMP JUMPDEST PUSH0 DUP1 PUSH0 DUP1 PUSH0 PUSH1 0x80 DUP7 DUP9 SUB SLT ISZERO PUSH2 0x10B6 JUMPI PUSH2 0x10B5 PUSH2 0x1001 JUMP JUMPDEST JUMPDEST PUSH0 DUP7 ADD CALLDATALOAD PUSH8 0xFFFFFFFFFFFFFFFF DUP2 GT ISZERO PUSH2 0x10D3 JUMPI PUSH2 0x10D2 PUSH2 0x1005 JUMP JUMPDEST JUMPDEST PUSH2 0x10DF DUP9 DUP3 DUP10 ADD PUSH2 0x1015 JUMP JUMPDEST SWAP6 POP SWAP6 POP POP PUSH1 0x20 PUSH2 0x10F2 DUP9 DUP3 DUP10 ADD PUSH2 0x1089 JUMP JUMPDEST SWAP4 POP POP PUSH1 0x40 PUSH2 0x1103 DUP9 DUP3 DUP10 ADD PUSH2 0x1089 JUMP JUMPDEST SWAP3 POP POP PUSH1 0x60 PUSH2 0x1114 DUP9 DUP3 DUP10 ADD PUSH2 0x1089 JUMP JUMPDEST SWAP2 POP POP SWAP3 SWAP6 POP SWAP3 SWAP6 SWAP1 SWAP4 POP JUMP JUMPDEST PUSH0 PUSH1 0x20 DUP3 DUP5 SUB SLT ISZERO PUSH2 0x1136 JUMPI PUSH2 0x1135 PUSH2 0x1001 JUMP JUMPDEST JUMPDEST PUSH0 PUSH2 0x1143 DUP5 DUP3 DUP6 ADD PUSH2 0x1089 JUMP JUMPDEST SWAP2 POP POP SWAP3 SWAP2 POP POP JUMP JUMPDEST PUSH2 0x1155 DUP2 PUSH2 0x106A JUMP JUMPDEST DUP3 MSTORE POP POP JUMP JUMPDEST PUSH0 PUSH1 0x20 DUP3 ADD SWAP1 POP PUSH2 0x116E PUSH0 DUP4 ADD DUP5 PUSH2 0x114C JUMP JUMPDEST SWAP3 SWAP2 POP POP JUMP JUMPDEST PUSH0 PUSH20 0xFFFFFFFFFFFFFFFFFFFFFFFFFFFFFFFFFFFFFFFF DUP3 AND SWAP1 POP SWAP2 SWAP1 POP JUMP JUMPDEST PUSH0 PUSH2 0x119D DUP3 PUSH2 0x1174 JUMP JUMPDEST SWAP1 POP SWAP2 SWAP1 POP JUMP JUMPDEST PUSH2 0x11AD DUP2 PUSH2 0x1193 JUMP JUMPDEST DUP2 EQ PUSH2 0x11B7 JUMPI PUSH0 DUP1 REVERT JUMPDEST POP JUMP JUMPDEST PUSH0 DUP2 CALLDATALOAD SWAP1 POP PUSH2 0x11C8 DUP2 PUSH2 0x11A4 JUMP JUMPDEST SWAP3 SWAP2 POP POP JUMP JUMPDEST PUSH0 DUP1 PUSH1 0x40 DUP4 DUP6 SUB SLT ISZERO PUSH2 0x11E4 JUMPI PUSH2 0x11E3 PUSH2 0x1001 JUMP JUMPDEST JUMPDEST PUSH0 PUSH2 0x11F1 DUP6 DUP3 DUP7 ADD PUSH2 0x11BA JUMP JUMPDEST SWAP3 POP POP PUSH1 0x20 PUSH2 0x1202 DUP6 DUP3 DUP7 ADD PUSH2 0x1089 JUMP JUMPDEST SWAP2 POP POP SWAP3 POP SWAP3 SWAP1 POP JUMP JUMPDEST PUSH0 DUP1 DUP4 PUSH1 0x1F DUP5 ADD SLT PUSH2 0x1221 JUMPI PUSH2 0x1220 PUSH2 0x1009 JUMP JUMPDEST JUMPDEST DUP3 CALLDATALOAD SWAP1 POP PUSH8 0xFFFFFFFFFFFFFFFF DUP2 GT ISZERO PUSH2 0x123E JUMPI PUSH2 0x123D PUSH2 0x100D JUMP JUMPDEST JUMPDEST PUSH1 0x20 DUP4 ADD SWAP2 POP DUP4 PUSH1 0x20 DUP3 MUL DUP4 ADD GT ISZERO PUSH2 0x125A JUMPI PUSH2 0x1259 PUSH2 0x1011 JUMP JUMPDEST JUMPDEST SWAP3 POP SWAP3 SWAP1 POP JUMP JUMPDEST PUSH0 DUP1 PUSH0 DUP1 PUSH1 0x40 DUP6 DUP8 SUB SLT ISZERO PUSH2 0x1279 JUMPI PUSH2 0x1278 PUSH2 0x1001 JUMP JUMPDEST JUMPDEST PUSH0 DUP6 ADD CALLDATALOAD PUSH8 0xFFFFFFFFFFFFFFFF DUP2 GT ISZERO PUSH2 0x1296 JUMPI PUSH2 0x1295 PUSH2 0x1005 JUMP JUMPDEST JUMPDEST PUSH2 0x12A2 DUP8 DUP3 DUP9 ADD PUSH2 0x120C JUMP JUMPDEST SWAP5 POP SWAP5 POP POP PUSH1 0x20 DUP6 ADD CALLDATALOAD PUSH8 0xFFFFFFFFFFFFFFFF DUP2 GT ISZERO PUSH2 0x12C5 JUMPI PUSH2 0x12C4 PUSH2 0x1005 JUMP JUMPDEST JUMPDEST PUSH2 0x12D1 DUP8 DUP3 DUP9 ADD PUSH2 0x120C JUMP JUMPDEST SWAP3 POP SWAP3 POP POP SWAP3 SWAP6 SWAP2 SWAP5 POP SWAP3 POP JUMP JUMPDEST PUSH0 DUP1 PUSH1 0x40 DUP4 DUP6 SUB SLT ISZERO PUSH2 0x12F5 JUMPI PUSH2 0x12F4 PUSH2 0x1001 JUMP JUMPDEST JUMPDEST PUSH0 PUSH2 0x1302 DUP6 DUP3 DUP7 ADD PUSH2 0x1089 JUMP JUMPDEST SWAP3 POP POP PUSH1 0x20 PUSH2 0x1313 DUP6 DUP3 DUP7 ADD PUSH2 0x1089 JUMP JUMPDEST SWAP2 POP POP SWAP3 POP SWAP3 SWAP1 POP JUMP JUMPDEST PUSH2 0x1326 DUP2 PUSH2 0x1193 JUMP JUMPDEST DUP3 MSTORE POP POP JUMP JUMPDEST PUSH0 PUSH1 0x20 DUP3 ADD SWAP1 POP PUSH2 0x133F PUSH0 DUP4 ADD DUP5 PUSH2 0x131D JUMP JUMPDEST SWAP3 SWAP2 POP POP JUMP JUMPDEST PUSH0 DUP2 MLOAD SWAP1 POP SWAP2 SWAP1 POP JUMP JUMPDEST PUSH0 DUP3 DUP3 MSTORE PUSH1 0x20 DUP3 ADD SWAP1 POP SWAP3 SWAP2 POP POP JUMP JUMPDEST PUSH0 DUP2 SWAP1 POP PUSH1 0x20 DUP3 ADD SWAP1 POP SWAP2 SWAP1 POP JUMP JUMPDEST PUSH0 DUP2 MLOAD SWAP1 POP SWAP2 SWAP1 POP JUMP JUMPDEST PUSH0 DUP3 DUP3 MSTORE PUSH1 0x20 DUP3 ADD SWAP1 POP SWAP3 SWAP2 POP POP JUMP JUMPDEST DUP3 DUP2 DUP4 MCOPY PUSH0 DUP4 DUP4 ADD MSTORE POP POP POP JUMP JUMPDEST PUSH0 PUSH1 0x1F NOT PUSH1 0x1F DUP4 ADD AND SWAP1 POP SWAP2 SWAP1 POP JUMP JUMPDEST PUSH0 PUSH2 0x13B0 DUP3 PUSH2 0x136E JUMP JUMPDEST PUSH2 0x13BA DUP2 DUP6 PUSH2 0x1378 JUMP JUMPDEST SWAP4 POP PUSH2 0x13CA DUP2 DUP6 PUSH1 0x20 DUP7 ADD PUSH2 0x1388 JUMP JUMPDEST PUSH2 0x13D3 DUP2 PUSH2 0x1396 JUMP JUMPDEST DUP5 ADD SWAP2 POP POP SWAP3 SWAP2 POP POP JUMP JUMPDEST PUSH2 0x13E7 DUP2 PUSH2 0x106A JUMP JUMPDEST DUP3 MSTORE POP POP JUMP JUMPDEST PUSH0 PUSH1 0x80 DUP4 ADD PUSH0 DUP4 ADD MLOAD DUP5 DUP3 SUB PUSH0 DUP7 ADD MSTORE PUSH2 0x1407 DUP3 DUP3 PUSH2 0x13A6 JUMP JUMPDEST SWAP2 POP POP PUSH1 0x20 DUP4 ADD MLOAD PUSH2 0x141C PUSH1 0x20 DUP7 ADD DUP3 PUSH2 0x13DE JUMP JUMPDEST POP PUSH1 0x40 DUP4 ADD MLOAD PUSH2 0x142F PUSH1 0x40 DUP7 ADD DUP3 PUSH2 0x13DE JUMP JUMPDEST POP PUSH1 0x60 DUP4 ADD MLOAD PUSH2 0x1442 PUSH1 0x60 DUP7 ADD DUP3 PUSH2 0x13DE JUMP JUMPDEST POP DUP1 SWAP2 POP POP SWAP3 SWAP2 POP POP JUMP JUMPDEST PUSH0 PUSH2 0x1458 DUP4 DUP4 PUSH2 0x13ED JUMP JUMPDEST SWAP1 POP SWAP3 SWAP2 POP POP JUMP JUMPDEST PUSH0 PUSH1 0x20 DUP3 ADD SWAP1 POP SWAP2 SWAP1 POP JUMP JUMPDEST PUSH0 PUSH2 0x1476 DUP3 PUSH2 0x1345 JUMP JUMPDEST PUSH2 0x1480 DUP2 DUP6 PUSH2 0x134F JUMP JUMPDEST SWAP4 POP DUP4 PUSH1 0x20 DUP3 MUL DUP6 ADD PUSH2 0x1492 DUP6 PUSH2 0x135F JUMP JUMPDEST DUP1 PUSH0 JUMPDEST DUP6 DUP2 LT ISZERO PUSH2 0x14CD JUMPI DUP5 DUP5 SUB DUP10 MSTORE DUP2 MLOAD PUSH2 0x14AE DUP6 DUP3 PUSH2 0x144D JUMP JUMPDEST SWAP5 POP PUSH2 0x14B9 DUP4 PUSH2 0x1460 JUMP JUMPDEST SWAP3 POP PUSH1 0x20 DUP11 ADD SWAP10 POP POP PUSH1 0x1 DUP2 ADD SWAP1 POP PUSH2 0x1495 JUMP JUMPDEST POP DUP3 SWAP8 POP DUP8 SWAP6 POP POP POP POP POP POP SWAP3 SWAP2 POP POP JUMP JUMPDEST PUSH0 PUSH1 0x20 DUP3 ADD SWAP1 POP DUP2 DUP2 SUB PUSH0 DUP4 ADD MSTORE PUSH2 0x14F7 DUP2 DUP5 PUSH2 0x146C JUMP JUMPDEST SWAP1 POP SWAP3 SWAP2 POP POP JUMP JUMPDEST PUSH0 PUSH1 0x20 DUP3 DUP5 SUB SLT ISZERO PUSH2 0x1514 JUMPI PUSH2 0x1513 PUSH2 0x1001 JUMP JUMPDEST JUMPDEST PUSH0 PUSH2 0x1521 DUP5 DUP3 DUP6 ADD PUSH2 0x11BA JUMP JUMPDEST SWAP2 POP POP SWAP3 SWAP2 POP POP JUMP JUMPDEST PUSH32 0x4E487B7100000000000000000000000000000000000000000000000000000000 PUSH0 MSTORE PUSH1 0x41 PUSH1 0x4 MSTORE PUSH1 0x24 PUSH0 REVERT JUMPDEST PUSH32 0x4E487B7100000000000000000000000000000000000000000000000000000000 PUSH0 MSTORE PUSH1 0x22 PUSH1 0x4 MSTORE PUSH1 0x24 PUSH0 REVERT JUMPDEST PUSH0 PUSH1 0x2 DUP3 DIV SWAP1 POP PUSH1 0x1 DUP3 AND DUP1 PUSH2 0x159B JUMPI PUSH1 0x7F DUP3 AND SWAP2 POP JUMPDEST PUSH1 0x20 DUP3 LT DUP2 SUB PUSH2 0x15AE JUMPI PUSH2 0x15AD PUSH2 0x1557 JUMP JUMPDEST JUMPDEST POP SWAP2 SWAP1 POP JUMP JUMPDEST PUSH0 DUP2 SWAP1 POP DUP2 PUSH0 MSTORE PUSH1 0x20 PUSH0 KECCAK256 SWAP1 POP SWAP2 SWAP1 POP JUMP JUMPDEST PUSH0 PUSH1 0x20 PUSH1 0x1F DUP4 ADD DIV SWAP1 POP SWAP2 SWAP1 POP JUMP JUMPDEST PUSH0 DUP3 DUP3 SHL SWAP1 POP SWAP3 SWAP2 POP POP JUMP JUMPDEST PUSH0 PUSH1 0x8 DUP4 MUL PUSH2 0x1610 PUSH32 0xFFFFFFFFFFFFFFFFFFFFFFFFFFFFFFFFFFFFFFFFFFFFFFFFFFFFFFFFFFFFFFFF DUP3 PUSH2 0x15D5 JUMP JUMPDEST PUSH2 0x161A DUP7 DUP4 PUSH2 0x15D5 JUMP JUMPDEST SWAP6 POP DUP1 NOT DUP5 AND SWAP4 POP DUP1 DUP7 AND DUP5 OR SWAP3 POP POP POP SWAP4 SWAP3 POP POP POP JUMP JUMPDEST PUSH0 DUP2 SWAP1 POP SWAP2 SWAP1 POP JUMP JUMPDEST PUSH0 PUSH2 0x1655 PUSH2 0x1650 PUSH2 0x164B DUP5 PUSH2 0x106A JUMP JUMPDEST PUSH2 0x1632 JUMP JUMPDEST PUSH2 0x106A JUMP JUMPDEST SWAP1 POP SWAP2 SWAP1 POP JUMP JUMPDEST PUSH0 DUP2 SWAP1 POP SWAP2 SWAP1 POP JUMP JUMPDEST PUSH2 0x166E DUP4 PUSH2 0x163B JUMP JUMPDEST PUSH2 0x1682 PUSH2 0x167A DUP3 PUSH2 0x165C JUMP JUMPDEST DUP5 DUP5 SLOAD PUSH2 0x15E1 JUMP JUMPDEST DUP3 SSTORE POP POP POP POP JUMP JUMPDEST PUSH0 SWAP1 JUMP JUMPDEST PUSH2 0x1696 PUSH2 0x168A JUMP JUMPDEST PUSH2 0x16A1 DUP2 DUP5 DUP5 PUSH2 0x1665 JUMP JUMPDEST POP POP POP JUMP JUMPDEST JUMPDEST DUP2 DUP2 LT ISZERO PUSH2 0x16C4 JUMPI PUSH2 0x16B9 PUSH0 DUP3 PUSH2 0x168E JUMP JUMPDEST PUSH1 0x1 DUP2 ADD SWAP1 POP PUSH2 0x16A7 JUMP JUMPDEST POP POP JUMP JUMPDEST PUSH1 0x1F DUP3 GT ISZERO PUSH2 0x1709 JUMPI PUSH2 0x16DA DUP2 PUSH2 0x15B4 JUMP JUMPDEST PUSH2 0x16E3 DUP5 PUSH2 0x15C6 JUMP JUMPDEST DUP2 ADD PUSH1 0x20 DUP6 LT ISZERO PUSH2 0x16F2 JUMPI DUP2 SWAP1 POP JUMPDEST PUSH2 0x1706 PUSH2 0x16FE DUP6 PUSH2 0x15C6 JUMP JUMPDEST DUP4 ADD DUP3 PUSH2 0x16A6 JUMP JUMPDEST POP POP JUMPDEST POP POP POP JUMP JUMPDEST PUSH0 DUP3 DUP3 SHR SWAP1 POP SWAP3 SWAP2 POP POP JUMP JUMPDEST PUSH0 PUSH2 0x1729 PUSH0 NOT DUP5 PUSH1 0x8 MUL PUSH2 0x170E JUMP JUMPDEST NOT DUP1 DUP4 AND SWAP2 POP POP SWAP3 SWAP2 POP POP JUMP JUMPDEST PUSH0 PUSH2 0x1741 DUP4 DUP4 PUSH2 0x171A JUMP JUMPDEST SWAP2 POP DUP3 PUSH1 0x2 MUL DUP3 OR SWAP1 POP SWAP3 SWAP2 POP POP JUMP JUMPDEST PUSH2 0x175A DUP3 PUSH2 0x136E JUMP JUMPDEST PUSH8 0xFFFFFFFFFFFFFFFF DUP2 GT ISZERO PUSH2 0x1773 JUMPI PUSH2 0x1772 PUSH2 0x152A JUMP JUMPDEST JUMPDEST PUSH2 0x177D DUP3 SLOAD PUSH2 0x1584 JUMP JUMPDEST PUSH2 0x1788 DUP3 DUP3 DUP6 PUSH2 0x16C8 JUMP JUMPDEST PUSH0 PUSH1 0x20 SWAP1 POP PUSH1 0x1F DUP4 GT PUSH1 0x1 DUP2 EQ PUSH2 0x17B9 JUMPI PUSH0 DUP5 ISZERO PUSH2 0x17A7 JUMPI DUP3 DUP8 ADD MLOAD SWAP1 POP JUMPDEST PUSH2 0x17B1 DUP6 DUP3 PUSH2 0x1736 JUMP JUMPDEST DUP7 SSTORE POP PUSH2 0x1818 JUMP JUMPDEST PUSH1 0x1F NOT DUP5 AND PUSH2 0x17C7 DUP7 PUSH2 0x15B4 JUMP JUMPDEST PUSH0 JUMPDEST DUP3 DUP2 LT ISZERO PUSH2 0x17EE JUMPI DUP5 DUP10 ADD MLOAD DUP3 SSTORE PUSH1 0x1 DUP3 ADD SWAP2 POP PUSH1 0x20 DUP6 ADD SWAP5 POP PUSH1 0x20 DUP2 ADD SWAP1 POP PUSH2 0x17C9 JUMP JUMPDEST DUP7 DUP4 LT ISZERO PUSH2 0x180B JUMPI DUP5 DUP10 ADD MLOAD PUSH2 0x1807 PUSH1 0x1F DUP10 AND DUP3 PUSH2 0x171A JUMP JUMPDEST DUP4 SSTORE POP JUMPDEST PUSH1 0x1 PUSH1 0x2 DUP9 MUL ADD DUP9 SSTORE POP POP POP JUMPDEST POP POP POP POP POP POP JUMP JUMPDEST PUSH32 0x4E487B7100000000000000000000000000000000000000000000000000000000 PUSH0 MSTORE PUSH1 0x32 PUSH1 0x4 MSTORE PUSH1 0x24 PUSH0 REVERT JUMPDEST PUSH32 0x4E487B7100000000000000000000000000000000000000000000000000000000 PUSH0 MSTORE PUSH1 0x11 PUSH1 0x4 MSTORE PUSH1 0x24 PUSH0 REVERT JUMPDEST PUSH0 PUSH2 0x1884 DUP3 PUSH2 0x106A JUMP JUMPDEST SWAP2 POP PUSH2 0x188F DUP4 PUSH2 0x106A JUMP JUMPDEST SWAP3 POP DUP3 DUP3 MUL PUSH2 0x189D DUP2 PUSH2 0x106A JUMP JUMPDEST SWAP2 POP DUP3 DUP3 DIV DUP5 EQ DUP4 ISZERO OR PUSH2 0x18B4 JUMPI PUSH2 0x18B3 PUSH2 0x184D JUMP JUMPDEST JUMPDEST POP SWAP3 SWAP2 POP POP JUMP JUMPDEST PUSH0 PUSH2 0x18C5 DUP3 PUSH2 0x106A JUMP JUMPDEST SWAP2 POP PUSH2 0x18D0 DUP4 PUSH2 0x106A JUMP JUMPDEST SWAP3 POP DUP3 DUP3 ADD SWAP1 POP DUP1 DUP3 GT ISZERO PUSH2 0x18E8 JUMPI PUSH2 0x18E7 PUSH2 0x184D JUMP JUMPDEST JUMPDEST SWAP3 SWAP2 POP POP JUMP JUMPDEST PUSH0 PUSH2 0x18F8 DUP3 PUSH2 0x106A JUMP JUMPDEST SWAP2 POP PUSH2 0x1903 DUP4 PUSH2 0x106A JUMP JUMPDEST SWAP3 POP DUP3 DUP3 SUB SWAP1 POP DUP2 DUP2 GT ISZERO PUSH2 0x191B JUMPI PUSH2 0x191A PUSH2 0x184D JUMP JUMPDEST JUMPDEST SWAP3 SWAP2 POP POP JUMP JUMPDEST PUSH0 DUP2 SLOAD SWAP1 POP PUSH2 0x192F DUP2 PUSH2 0x1584 JUMP JUMPDEST SWAP1 POP SWAP2 SWAP1 POP JUMP JUMPDEST DUP2 DUP2 SUB PUSH2 0x1944 JUMPI POP POP PUSH2 0x1A19 JUMP JUMPDEST PUSH2 0x194D DUP3 PUSH2 0x1921 JUMP JUMPDEST PUSH8 0xFFFFFFFFFFFFFFFF DUP2 GT ISZERO PUSH2 0x1966 JUMPI PUSH2 0x1965 PUSH2 0x152A JUMP JUMPDEST JUMPDEST PUSH2 0x1970 DUP3 SLOAD PUSH2 0x1584 JUMP JUMPDEST PUSH2 0x197B DUP3 DUP3 DUP6 PUSH2 0x16C8 JUMP JUMPDEST PUSH0 PUSH1 0x1F DUP4 GT PUSH1 0x1 DUP2 EQ PUSH2 0x19A8 JUMPI PUSH0 DUP5 ISZERO PUSH2 0x1996 JUMPI DUP3 DUP8 ADD SLOAD SWAP1 POP JUMPDEST PUSH2 0x19A0 DUP6 DUP3 PUSH2 0x1736 JUMP JUMPDEST DUP7 SSTORE POP PUSH2 0x1A12 JUMP JUMPDEST PUSH1 0x1F NOT DUP5 AND PUSH2 0x19B6 DUP8 PUSH2 0x15B4 JUMP JUMPDEST SWAP7 POP PUSH2 0x19C1 DUP7 PUSH2 0x15B4 JUMP JUMPDEST PUSH0 JUMPDEST DUP3 DUP2 LT ISZERO PUSH2 0x19E8 JUMPI DUP5 DUP10 ADD SLOAD DUP3 SSTORE PUSH1 0x1 DUP3 ADD SWAP2 POP PUSH1 0x1 DUP6 ADD SWAP5 POP PUSH1 0x20 DUP2 ADD SWAP1 POP PUSH2 0x19C3 JUMP JUMPDEST DUP7 DUP4 LT ISZERO PUSH2 0x1A05 JUMPI DUP5 DUP10 ADD SLOAD PUSH2 0x1A01 PUSH1 0x1F DUP10 AND DUP3 PUSH2 0x171A JUMP JUMPDEST DUP4 SSTORE POP JUMPDEST PUSH1 0x1 PUSH1 0x2 DUP9 MUL ADD DUP9 SSTORE POP POP POP JUMPDEST POP POP POP POP POP POP JUMPDEST JUMP JUMPDEST PUSH32 0x4E487B7100000000000000000000000000000000000000000000000000000000 PUSH0 MSTORE PUSH1 0x31 PUSH1 0x4 MSTORE PUSH1 0x24 PUSH0 REVERT JUMPDEST PUSH0 DUP3 DUP3 MSTORE PUSH1 0x20 DUP3 ADD SWAP1 POP SWAP3 SWAP2 POP POP JUMP JUMPDEST PUSH32 0x50726F64756374206E6F7420666F756E64000000000000000000000000000000 PUSH0 DUP3 ADD MSTORE POP JUMP JUMPDEST PUSH0 PUSH2 0x1A8C PUSH1 0x11 DUP4 PUSH2 0x1A48 JUMP JUMPDEST SWAP2 POP PUSH2 0x1A97 DUP3 PUSH2 0x1A58 JUMP JUMPDEST PUSH1 0x20 DUP3 ADD SWAP1 POP SWAP2 SWAP1 POP JUMP JUMPDEST PUSH0 PUSH1 0x20 DUP3 ADD SWAP1 POP DUP2 DUP2 SUB PUSH0 DUP4 ADD MSTORE PUSH2 0x1AB9 DUP2 PUSH2 0x1A80 JUMP JUMPDEST SWAP1 POP SWAP2 SWAP1 POP JUMP JUMPDEST PUSH0 PUSH1 0x60 DUP3 ADD SWAP1 POP PUSH2 0x1AD3 PUSH0 DUP4 ADD DUP7 PUSH2 0x131D JUMP JUMPDEST PUSH2 0x1AE0 PUSH1 0x20 DUP4 ADD DUP6 PUSH2 0x114C JUMP JUMPDEST PUSH2 0x1AED PUSH1 0x40 DUP4 ADD DUP5 PUSH2 0x114C JUMP JUMPDEST SWAP5 SWAP4 POP POP POP POP JUMP INVALID LOG2 PUSH5 0x6970667358 0x22 SLT KECCAK256 0xC7 MLOAD 0xE PUSH14 0x91C07F7A162E2E0FD6418CED841 0xC0 DUP16 0x26 0xB6 DUP3 SWAP9 LOG0 DUP7 SLT 0x25 0xFC INVALID 0xE2 DUP14 PUSH5 0x736F6C6343 STOP ADDMOD BYTE STOP CALLER "
				},
				"gasEstimates": {
					"creation": {
						"codeDepositCost": "1391000",
						"executionCost": "infinite",
						"totalCost": "infinite"
					},
					"external": {
						"addProduct(string,uint256,uint256,uint256)": "infinite",
						"batchBuy(uint256[],uint256[])": "infinite",
						"buy(uint256,uint256)": "infinite",
						"deleteProduct(uint256)": "infinite",
						"getPrice(uint256)": "infinite",
						"getProducts()": "infinite",
						"getStock(uint256)": "infinite",
						"owner()": "2560",
						"productPurchase(uint256)": "infinite",
						"renounceOwnership()": "infinite",
						"transferOwnership(address)": "infinite",
						"updatePrice(uint256,uint256)": "infinite",
						"updateStock(uint256,uint256)": "infinite",
						"userPurchase(address,uint256)": "infinite",
						"withdraw()": "infinite"
					},
					"internal": {
						"_buyProcess(address,uint256,uint256)": "infinite",
						"_findIndexById(uint256)": "infinite",
						"_findProduct(uint256)": "infinite",
						"_isIdExist(uint256)": "infinite"
					}
				},
				"methodIdentifiers": {
					"addProduct(string,uint256,uint256,uint256)": "094455c4",
					"batchBuy(uint256[],uint256[])": "723cdb1d",
					"buy(uint256,uint256)": "d6febde8",
					"deleteProduct(uint256)": "ed90c7b7",
					"getPrice(uint256)": "e7572230",
					"getProducts()": "c29b2f20",
					"getStock(uint256)": "3ab7d09a",
					"owner()": "8da5cb5b",
					"productPurchase(uint256)": "3df50e82",
					"renounceOwnership()": "715018a6",
					"transferOwnership(address)": "f2fde38b",
					"updatePrice(uint256,uint256)": "82367b2d",
					"updateStock(uint256,uint256)": "9dfc3dd1",
					"userPurchase(address,uint256)": "6038d0cf",
					"withdraw()": "3ccfd60b"
				}
			},
			"storageLayout": {
				"storage": [
					{
						"astId": 8,
						"contract": "store.sol:Store",
						"label": "_owner",
						"offset": 0,
						"slot": "0",
						"type": "t_address"
					},
					{
						"astId": 190,
						"contract": "store.sol:Store",
						"label": "userPurchase",
						"offset": 0,
						"slot": "1",
						"type": "t_mapping(t_address,t_mapping(t_uint256,t_uint256))"
					},
					{
						"astId": 195,
						"contract": "store.sol:Store",
						"label": "productPurchase",
						"offset": 0,
						"slot": "2",
						"type": "t_mapping(t_uint256,t_uint256)"
					},
					{
						"astId": 208,
						"contract": "store.sol:Store",
						"label": "products",
						"offset": 0,
						"slot": "3",
						"type": "t_array(t_struct(Product)204_storage)dyn_storage"
					}
				],
				"types": {
					"t_address": {
						"encoding": "inplace",
						"label": "address",
						"numberOfBytes": "20"
					},
					"t_array(t_struct(Product)204_storage)dyn_storage": {
						"base": "t_struct(Product)204_storage",
						"encoding": "dynamic_array",
						"label": "struct Store.Product[]",
						"numberOfBytes": "32"
					},
					"t_mapping(t_address,t_mapping(t_uint256,t_uint256))": {
						"encoding": "mapping",
						"key": "t_address",
						"label": "mapping(address => mapping(uint256 => uint256))",
						"numberOfBytes": "32",
						"value": "t_mapping(t_uint256,t_uint256)"
					},
					"t_mapping(t_uint256,t_uint256)": {
						"encoding": "mapping",
						"key": "t_uint256",
						"label": "mapping(uint256 => uint256)",
						"numberOfBytes": "32",
						"value": "t_uint256"
					},
					"t_string_storage": {
						"encoding": "bytes",
						"label": "string",
						"numberOfBytes": "32"
					},
					"t_struct(Product)204_storage": {
						"encoding": "inplace",
						"label": "struct Store.Product",
						"members": [
							{
								"astId": 197,
								"contract": "store.sol:Store",
								"label": "name",
								"offset": 0,
								"slot": "0",
								"type": "t_string_storage"
							},
							{
								"astId": 199,
								"contract": "store.sol:Store",
								"label": "id",
								"offset": 0,
								"slot": "1",
								"type": "t_uint256"
							},
							{
								"astId": 201,
								"contract": "store.sol:Store",
								"label": "stock",
								"offset": 0,
								"slot": "2",
								"type": "t_uint256"
							},
							{
								"astId": 203,
								"contract": "store.sol:Store",
								"label": "price",
								"offset": 0,
								"slot": "3",
								"type": "t_uint256"
							}
						],
						"numberOfBytes": "128"
					},
					"t_uint256": {
						"encoding": "inplace",
						"label": "uint256",
						"numberOfBytes": "32"
					}
				}
			},
			"userdoc": {
				"kind": "user",
				"methods": {
					"productPurchase(uint256)": {
						"notice": "product id => quantity"
					},
					"userPurchase(address,uint256)": {
						"notice": "buyer => product id => quantity"
					}
				},
				"version": 1
			}
		}
	}
}