{
	"election.sol": {
		"Election": {
			"abi": [
				{
					"inputs": [
						{
							"internalType": "string[]",
							"name": "_electors",
							"type": "string[]"
						},
						{
							"internalType": "uint256",
							"name": "_maxVotes",
							"type": "uint256"
						},
						{
							"internalType": "uint256",
							"name": "_electionTime",
							"type": "uint256"
						}
					],
					"stateMutability": "nonpayable",
					"type": "constructor"
				},
				{
					"inputs": [
						{
							"internalType": "uint256",
							"name": "_pickedElector",
							"type": "uint256"
						},
						{
							"internalType": "uint256",
							"name": "_totalElectors",
							"type": "uint256"
						}
					],
					"name": "ElectorDoesNotExist",
					"type": "error"
				},
				{
					"inputs": [],
					"name": "OnlyOwnerAllowed",
					"type": "error"
				},
				{
					"anonymous": false,
					"inputs": [
						{
							"indexed": false,
							"internalType": "uint256",
							"name": "_voted",
							"type": "uint256"
						},
						{
							"indexed": false,
							"internalType": "address",
							"name": "_voter",
							"type": "address"
						}
					],
					"name": "Voted",
					"type": "event"
				},
				{
					"inputs": [],
					"name": "electionEndTime",
					"outputs": [
						{
							"internalType": "uint256",
							"name": "",
							"type": "uint256"
						}
					],
					"stateMutability": "view",
					"type": "function"
				},
				{
					"inputs": [
						{
							"internalType": "uint256",
							"name": "",
							"type": "uint256"
						}
					],
					"name": "electors",
					"outputs": [
						{
							"internalType": "string",
							"name": "",
							"type": "string"
						}
					],
					"stateMutability": "view",
					"type": "function"
				},
				{
					"inputs": [],
					"name": "maxVotes",
					"outputs": [
						{
							"internalType": "uint256",
							"name": "",
							"type": "uint256"
						}
					],
					"stateMutability": "view",
					"type": "function"
				},
				{
					"inputs": [
						{
							"internalType": "uint256",
							"name": "",
							"type": "uint256"
						}
					],
					"name": "numberOfVotes",
					"outputs": [
						{
							"internalType": "uint256",
							"name": "",
							"type": "uint256"
						}
					],
					"stateMutability": "view",
					"type": "function"
				},
				{
					"inputs": [],
					"name": "owner",
					"outputs": [
						{
							"internalType": "address",
							"name": "",
							"type": "address"
						}
					],
					"stateMutability": "view",
					"type": "function"
				},
				{
					"inputs": [
						{
							"internalType": "uint256",
							"name": "_newEndTime",
							"type": "uint256"
						}
					],
					"name": "resetEndTime",
					"outputs": [],
					"stateMutability": "nonpayable",
					"type": "function"
				},
				{
					"inputs": [
						{
							"internalType": "uint256",
							"name": "_newMaxVotes",
							"type": "uint256"
						}
					],
					"name": "resetMaxVotes",
					"outputs": [],
					"stateMutability": "nonpayable",
					"type": "function"
				},
				{
					"inputs": [],
					"name": "stopVote",
					"outputs": [],
					"stateMutability": "nonpayable",
					"type": "function"
				},
				{
					"inputs": [],
					"name": "totalVotes",
					"outputs": [
						{
							"internalType": "uint256",
							"name": "",
							"type": "uint256"
						}
					],
					"stateMutability": "view",
					"type": "function"
				},
				{
					"inputs": [
						{
							"internalType": "address",
							"name": "",
							"type": "address"
						}
					],
					"name": "userVotes",
					"outputs": [
						{
							"internalType": "bool",
							"name": "",
							"type": "bool"
						}
					],
					"stateMutability": "view",
					"type": "function"
				},
				{
					"inputs": [
						{
							"internalType": "uint256",
							"name": "_number",
							"type": "uint256"
						}
					],
					"name": "vote",
					"outputs": [],
					"stateMutability": "nonpayable",
					"type": "function"
				},
				{
					"inputs": [],
					"name": "voteWinner",
					"outputs": [
						{
							"internalType": "string",
							"name": "",
							"type": "string"
						}
					],
					"stateMutability": "view",
					"type": "function"
				}
			],
			"devdoc": {
				"kind": "dev",
				"methods": {},
				"version": 1
			},
			"evm": {
				"assembly": "    /* \"election.sol\":58:2326  contract Election {... */\n  mstore(0x40, 0x80)\n    /* \"election.sol\":602:837  constructor(string[] memory _electors, uint256 _maxVotes, uint256 _electionTime) {... */\n  callvalue\n  dup1\n  iszero\n  tag_1\n  jumpi\n  0x00\n  dup1\n  revert\ntag_1:\n  pop\n  mload(0x40)\n  sub(codesize, bytecodeSize)\n  dup1\n  bytecodeSize\n  dup4\n  codecopy\n  dup2\n  dup2\n  add\n  0x40\n  mstore\n  dup2\n  add\n  swap1\n  tag_2\n  swap2\n  swap1\n  tag_3\n  jump\t// in\ntag_2:\n    /* \"election.sol\":704:713  _electors */\n  dup3\n    /* \"election.sol\":693:701  electors */\n  0x00\n    /* \"election.sol\":693:713  electors = _electors */\n  swap1\n  dup1\n  mload\n  swap1\n  0x20\n  add\n  swap1\n  tag_6\n  swap3\n  swap2\n  swap1\n  tag_7\n  jump\t// in\ntag_6:\n  pop\n    /* \"election.sol\":734:743  _maxVotes */\n  dup2\n    /* \"election.sol\":723:731  maxVotes */\n  0x02\n    /* \"election.sol\":723:743  maxVotes = _maxVotes */\n  dup2\n  swap1\n  sstore\n  pop\n    /* \"election.sol\":761:771  msg.sender */\n  caller\n    /* \"election.sol\":753:758  owner */\n  0x01\n  0x00\n    /* \"election.sol\":753:771  owner = msg.sender */\n  0x0100\n  exp\n  dup2\n  sload\n  dup2\n  0xffffffffffffffffffffffffffffffffffffffff\n  mul\n  not\n  and\n  swap1\n  dup4\n  0xffffffffffffffffffffffffffffffffffffffff\n  and\n  mul\n  or\n  swap1\n  sstore\n  pop\n    /* \"election.sol\":817:830  _electionTime */\n  dup1\n    /* \"election.sol\":799:814  block.timestamp */\n  timestamp\n    /* \"election.sol\":799:830  block.timestamp + _electionTime */\n  tag_8\n  swap2\n  swap1\n  tag_9\n  jump\t// in\ntag_8:\n    /* \"election.sol\":781:796  electionEndTime */\n  0x04\n    /* \"election.sol\":781:830  electionEndTime = block.timestamp + _electionTime */\n  dup2\n  swap1\n  sstore\n  pop\n    /* \"election.sol\":602:837  constructor(string[] memory _electors, uint256 _maxVotes, uint256 _electionTime) {... */\n  pop\n  pop\n  pop\n    /* \"election.sol\":58:2326  contract Election {... */\n  jump(tag_10)\ntag_7:\n  dup3\n  dup1\n  sload\n  dup3\n  dup3\n  sstore\n  swap1\n  0x00\n  mstore\n  keccak256(0x00, 0x20)\n  swap1\n  dup2\n  add\n  swap3\n  dup3\n  iszero\n  tag_11\n  jumpi\n  swap2\n  0x20\n  mul\n  dup3\n  add\ntag_12:\n  dup3\n  dup2\n  gt\n  iszero\n  tag_13\n  jumpi\n  dup3\n  mload\n  dup3\n  swap1\n  dup2\n  tag_14\n  swap2\n  swap1\n  tag_15\n  jump\t// in\ntag_14:\n  pop\n  swap2\n  0x20\n  add\n  swap2\n  swap1\n  0x01\n  add\n  swap1\n  jump(tag_12)\ntag_13:\ntag_11:\n  pop\n  swap1\n  pop\n  tag_16\n  swap2\n  swap1\n  tag_17\n  jump\t// in\ntag_16:\n  pop\n  swap1\n  jump\t// out\ntag_17:\ntag_18:\n  dup1\n  dup3\n  gt\n  iszero\n  tag_19\n  jumpi\n  0x00\n  dup2\n  dup2\n  tag_20\n  swap2\n  swap1\n  tag_21\n  jump\t// in\ntag_20:\n  pop\n  0x01\n  add\n  jump(tag_18)\ntag_19:\n  pop\n  swap1\n  jump\t// out\ntag_21:\n  pop\n  dup1\n  sload\n  tag_22\n  swap1\n  tag_23\n  jump\t// in\ntag_22:\n  0x00\n  dup3\n  sstore\n  dup1\n  0x1f\n  lt\n  tag_25\n  jumpi\n  pop\n  jump(tag_24)\ntag_25:\n  0x1f\n  add\n  0x20\n  swap1\n  div\n  swap1\n  0x00\n  mstore\n  keccak256(0x00, 0x20)\n  swap1\n  dup2\n  add\n  swap1\n  tag_26\n  swap2\n  swap1\n  tag_27\n  jump\t// in\ntag_26:\ntag_24:\n  pop\n  jump\t// out\ntag_27:\ntag_28:\n  dup1\n  dup3\n  gt\n  iszero\n  tag_29\n  jumpi\n  0x00\n  dup2\n  0x00\n  swap1\n  sstore\n  pop\n  0x01\n  add\n  jump(tag_28)\ntag_29:\n  pop\n  swap1\n  jump\t// out\n    /* \"#utility.yul\":7:82   */\ntag_30:\n    /* \"#utility.yul\":40:46   */\n  0x00\n    /* \"#utility.yul\":73:75   */\n  0x40\n    /* \"#utility.yul\":67:76   */\n  mload\n    /* \"#utility.yul\":57:76   */\n  swap1\n  pop\n    /* \"#utility.yul\":7:82   */\n  swap1\n  jump\t// out\n    /* \"#utility.yul\":88:205   */\ntag_31:\n    /* \"#utility.yul\":197:198   */\n  0x00\n    /* \"#utility.yul\":194:195   */\n  dup1\n    /* \"#utility.yul\":187:199   */\n  revert\n    /* \"#utility.yul\":211:328   */\ntag_32:\n    /* \"#utility.yul\":320:321   */\n  0x00\n    /* \"#utility.yul\":317:318   */\n  dup1\n    /* \"#utility.yul\":310:322   */\n  revert\n    /* \"#utility.yul\":334:451   */\ntag_33:\n    /* \"#utility.yul\":443:444   */\n  0x00\n    /* \"#utility.yul\":440:441   */\n  dup1\n    /* \"#utility.yul\":433:445   */\n  revert\n    /* \"#utility.yul\":457:559   */\ntag_34:\n    /* \"#utility.yul\":498:504   */\n  0x00\n    /* \"#utility.yul\":549:551   */\n  0x1f\n    /* \"#utility.yul\":545:552   */\n  not\n    /* \"#utility.yul\":540:542   */\n  0x1f\n    /* \"#utility.yul\":533:538   */\n  dup4\n    /* \"#utility.yul\":529:543   */\n  add\n    /* \"#utility.yul\":525:553   */\n  and\n    /* \"#utility.yul\":515:553   */\n  swap1\n  pop\n    /* \"#utility.yul\":457:559   */\n  swap2\n  swap1\n  pop\n  jump\t// out\n    /* \"#utility.yul\":565:745   */\ntag_35:\n    /* \"#utility.yul\":613:690   */\n  0x4e487b7100000000000000000000000000000000000000000000000000000000\n    /* \"#utility.yul\":610:611   */\n  0x00\n    /* \"#utility.yul\":603:691   */\n  mstore\n    /* \"#utility.yul\":710:714   */\n  0x41\n    /* \"#utility.yul\":707:708   */\n  0x04\n    /* \"#utility.yul\":700:715   */\n  mstore\n    /* \"#utility.yul\":734:738   */\n  0x24\n    /* \"#utility.yul\":731:732   */\n  0x00\n    /* \"#utility.yul\":724:739   */\n  revert\n    /* \"#utility.yul\":751:1032   */\ntag_36:\n    /* \"#utility.yul\":834:861   */\n  tag_76\n    /* \"#utility.yul\":856:860   */\n  dup3\n    /* \"#utility.yul\":834:861   */\n  tag_34\n  jump\t// in\ntag_76:\n    /* \"#utility.yul\":826:832   */\n  dup2\n    /* \"#utility.yul\":822:862   */\n  add\n    /* \"#utility.yul\":964:970   */\n  dup2\n    /* \"#utility.yul\":952:962   */\n  dup2\n    /* \"#utility.yul\":949:971   */\n  lt\n    /* \"#utility.yul\":928:946   */\n  0xffffffffffffffff\n    /* \"#utility.yul\":916:926   */\n  dup3\n    /* \"#utility.yul\":913:947   */\n  gt\n    /* \"#utility.yul\":910:972   */\n  or\n    /* \"#utility.yul\":907:995   */\n  iszero\n  tag_77\n  jumpi\n    /* \"#utility.yul\":975:993   */\n  tag_78\n  tag_35\n  jump\t// in\ntag_78:\n    /* \"#utility.yul\":907:995   */\ntag_77:\n    /* \"#utility.yul\":1015:1025   */\n  dup1\n    /* \"#utility.yul\":1011:1013   */\n  0x40\n    /* \"#utility.yul\":1004:1026   */\n  mstore\n    /* \"#utility.yul\":794:1032   */\n  pop\n    /* \"#utility.yul\":751:1032   */\n  pop\n  pop\n  jump\t// out\n    /* \"#utility.yul\":1038:1167   */\ntag_37:\n    /* \"#utility.yul\":1072:1078   */\n  0x00\n    /* \"#utility.yul\":1099:1119   */\n  tag_80\n  tag_30\n  jump\t// in\ntag_80:\n    /* \"#utility.yul\":1089:1119   */\n  swap1\n  pop\n    /* \"#utility.yul\":1128:1161   */\n  tag_81\n    /* \"#utility.yul\":1156:1160   */\n  dup3\n    /* \"#utility.yul\":1148:1154   */\n  dup3\n    /* \"#utility.yul\":1128:1161   */\n  tag_36\n  jump\t// in\ntag_81:\n    /* \"#utility.yul\":1038:1167   */\n  swap2\n  swap1\n  pop\n  jump\t// out\n    /* \"#utility.yul\":1173:1494   */\ntag_38:\n    /* \"#utility.yul\":1260:1264   */\n  0x00\n    /* \"#utility.yul\":1350:1368   */\n  0xffffffffffffffff\n    /* \"#utility.yul\":1342:1348   */\n  dup3\n    /* \"#utility.yul\":1339:1369   */\n  gt\n    /* \"#utility.yul\":1336:1392   */\n  iszero\n  tag_83\n  jumpi\n    /* \"#utility.yul\":1372:1390   */\n  tag_84\n  tag_35\n  jump\t// in\ntag_84:\n    /* \"#utility.yul\":1336:1392   */\ntag_83:\n    /* \"#utility.yul\":1422:1426   */\n  0x20\n    /* \"#utility.yul\":1414:1420   */\n  dup3\n    /* \"#utility.yul\":1410:1427   */\n  mul\n    /* \"#utility.yul\":1402:1427   */\n  swap1\n  pop\n    /* \"#utility.yul\":1482:1486   */\n  0x20\n    /* \"#utility.yul\":1476:1480   */\n  dup2\n    /* \"#utility.yul\":1472:1487   */\n  add\n    /* \"#utility.yul\":1464:1487   */\n  swap1\n  pop\n    /* \"#utility.yul\":1173:1494   */\n  swap2\n  swap1\n  pop\n  jump\t// out\n    /* \"#utility.yul\":1500:1617   */\ntag_39:\n    /* \"#utility.yul\":1609:1610   */\n  0x00\n    /* \"#utility.yul\":1606:1607   */\n  dup1\n    /* \"#utility.yul\":1599:1611   */\n  revert\n    /* \"#utility.yul\":1623:1740   */\ntag_40:\n    /* \"#utility.yul\":1732:1733   */\n  0x00\n    /* \"#utility.yul\":1729:1730   */\n  dup1\n    /* \"#utility.yul\":1722:1734   */\n  revert\n    /* \"#utility.yul\":1746:2054   */\ntag_41:\n    /* \"#utility.yul\":1808:1812   */\n  0x00\n    /* \"#utility.yul\":1898:1916   */\n  0xffffffffffffffff\n    /* \"#utility.yul\":1890:1896   */\n  dup3\n    /* \"#utility.yul\":1887:1917   */\n  gt\n    /* \"#utility.yul\":1884:1940   */\n  iszero\n  tag_88\n  jumpi\n    /* \"#utility.yul\":1920:1938   */\n  tag_89\n  tag_35\n  jump\t// in\ntag_89:\n    /* \"#utility.yul\":1884:1940   */\ntag_88:\n    /* \"#utility.yul\":1958:1987   */\n  tag_90\n    /* \"#utility.yul\":1980:1986   */\n  dup3\n    /* \"#utility.yul\":1958:1987   */\n  tag_34\n  jump\t// in\ntag_90:\n    /* \"#utility.yul\":1950:1987   */\n  swap1\n  pop\n    /* \"#utility.yul\":2042:2046   */\n  0x20\n    /* \"#utility.yul\":2036:2040   */\n  dup2\n    /* \"#utility.yul\":2032:2047   */\n  add\n    /* \"#utility.yul\":2024:2047   */\n  swap1\n  pop\n    /* \"#utility.yul\":1746:2054   */\n  swap2\n  swap1\n  pop\n  jump\t// out\n    /* \"#utility.yul\":2060:2199   */\ntag_42:\n    /* \"#utility.yul\":2149:2155   */\n  dup3\n    /* \"#utility.yul\":2144:2147   */\n  dup2\n    /* \"#utility.yul\":2139:2142   */\n  dup4\n    /* \"#utility.yul\":2133:2156   */\n  mcopy\n    /* \"#utility.yul\":2190:2191   */\n  0x00\n    /* \"#utility.yul\":2181:2187   */\n  dup4\n    /* \"#utility.yul\":2176:2179   */\n  dup4\n    /* \"#utility.yul\":2172:2188   */\n  add\n    /* \"#utility.yul\":2165:2192   */\n  mstore\n    /* \"#utility.yul\":2060:2199   */\n  pop\n  pop\n  pop\n  jump\t// out\n    /* \"#utility.yul\":2205:2639   */\ntag_43:\n    /* \"#utility.yul\":2294:2299   */\n  0x00\n    /* \"#utility.yul\":2319:2385   */\n  tag_93\n    /* \"#utility.yul\":2335:2384   */\n  tag_94\n    /* \"#utility.yul\":2377:2383   */\n  dup5\n    /* \"#utility.yul\":2335:2384   */\n  tag_41\n  jump\t// in\ntag_94:\n    /* \"#utility.yul\":2319:2385   */\n  tag_37\n  jump\t// in\ntag_93:\n    /* \"#utility.yul\":2310:2385   */\n  swap1\n  pop\n    /* \"#utility.yul\":2408:2414   */\n  dup3\n    /* \"#utility.yul\":2401:2406   */\n  dup2\n    /* \"#utility.yul\":2394:2415   */\n  mstore\n    /* \"#utility.yul\":2446:2450   */\n  0x20\n    /* \"#utility.yul\":2439:2444   */\n  dup2\n    /* \"#utility.yul\":2435:2451   */\n  add\n    /* \"#utility.yul\":2484:2487   */\n  dup5\n    /* \"#utility.yul\":2475:2481   */\n  dup5\n    /* \"#utility.yul\":2470:2473   */\n  dup5\n    /* \"#utility.yul\":2466:2482   */\n  add\n    /* \"#utility.yul\":2463:2488   */\n  gt\n    /* \"#utility.yul\":2460:2572   */\n  iszero\n  tag_95\n  jumpi\n    /* \"#utility.yul\":2491:2570   */\n  tag_96\n  tag_40\n  jump\t// in\ntag_96:\n    /* \"#utility.yul\":2460:2572   */\ntag_95:\n    /* \"#utility.yul\":2581:2633   */\n  tag_97\n    /* \"#utility.yul\":2626:2632   */\n  dup5\n    /* \"#utility.yul\":2621:2624   */\n  dup3\n    /* \"#utility.yul\":2616:2619   */\n  dup6\n    /* \"#utility.yul\":2581:2633   */\n  tag_42\n  jump\t// in\ntag_97:\n    /* \"#utility.yul\":2300:2639   */\n  pop\n    /* \"#utility.yul\":2205:2639   */\n  swap4\n  swap3\n  pop\n  pop\n  pop\n  jump\t// out\n    /* \"#utility.yul\":2659:3014   */\ntag_44:\n    /* \"#utility.yul\":2726:2731   */\n  0x00\n    /* \"#utility.yul\":2775:2778   */\n  dup3\n    /* \"#utility.yul\":2768:2772   */\n  0x1f\n    /* \"#utility.yul\":2760:2766   */\n  dup4\n    /* \"#utility.yul\":2756:2773   */\n  add\n    /* \"#utility.yul\":2752:2779   */\n  slt\n    /* \"#utility.yul\":2742:2864   */\n  tag_99\n  jumpi\n    /* \"#utility.yul\":2783:2862   */\n  tag_100\n  tag_33\n  jump\t// in\ntag_100:\n    /* \"#utility.yul\":2742:2864   */\ntag_99:\n    /* \"#utility.yul\":2893:2899   */\n  dup2\n    /* \"#utility.yul\":2887:2900   */\n  mload\n    /* \"#utility.yul\":2918:3008   */\n  tag_101\n    /* \"#utility.yul\":3004:3007   */\n  dup5\n    /* \"#utility.yul\":2996:3002   */\n  dup3\n    /* \"#utility.yul\":2989:2993   */\n  0x20\n    /* \"#utility.yul\":2981:2987   */\n  dup7\n    /* \"#utility.yul\":2977:2994   */\n  add\n    /* \"#utility.yul\":2918:3008   */\n  tag_43\n  jump\t// in\ntag_101:\n    /* \"#utility.yul\":2909:3008   */\n  swap2\n  pop\n    /* \"#utility.yul\":2732:3014   */\n  pop\n    /* \"#utility.yul\":2659:3014   */\n  swap3\n  swap2\n  pop\n  pop\n  jump\t// out\n    /* \"#utility.yul\":3036:3996   */\ntag_45:\n    /* \"#utility.yul\":3153:3158   */\n  0x00\n    /* \"#utility.yul\":3178:3269   */\n  tag_103\n    /* \"#utility.yul\":3194:3268   */\n  tag_104\n    /* \"#utility.yul\":3261:3267   */\n  dup5\n    /* \"#utility.yul\":3194:3268   */\n  tag_38\n  jump\t// in\ntag_104:\n    /* \"#utility.yul\":3178:3269   */\n  tag_37\n  jump\t// in\ntag_103:\n    /* \"#utility.yul\":3169:3269   */\n  swap1\n  pop\n    /* \"#utility.yul\":3289:3294   */\n  dup1\n    /* \"#utility.yul\":3318:3324   */\n  dup4\n    /* \"#utility.yul\":3311:3316   */\n  dup3\n    /* \"#utility.yul\":3304:3325   */\n  mstore\n    /* \"#utility.yul\":3352:3356   */\n  0x20\n    /* \"#utility.yul\":3345:3350   */\n  dup3\n    /* \"#utility.yul\":3341:3357   */\n  add\n    /* \"#utility.yul\":3334:3357   */\n  swap1\n  pop\n    /* \"#utility.yul\":3405:3409   */\n  0x20\n    /* \"#utility.yul\":3397:3403   */\n  dup5\n    /* \"#utility.yul\":3393:3410   */\n  mul\n    /* \"#utility.yul\":3385:3391   */\n  dup4\n    /* \"#utility.yul\":3381:3411   */\n  add\n    /* \"#utility.yul\":3434:3437   */\n  dup6\n    /* \"#utility.yul\":3426:3432   */\n  dup2\n    /* \"#utility.yul\":3423:3438   */\n  gt\n    /* \"#utility.yul\":3420:3542   */\n  iszero\n  tag_105\n  jumpi\n    /* \"#utility.yul\":3453:3532   */\n  tag_106\n  tag_39\n  jump\t// in\ntag_106:\n    /* \"#utility.yul\":3420:3542   */\ntag_105:\n    /* \"#utility.yul\":3568:3574   */\n  dup4\n    /* \"#utility.yul\":3551:3990   */\ntag_107:\n    /* \"#utility.yul\":3585:3591   */\n  dup2\n    /* \"#utility.yul\":3580:3583   */\n  dup2\n    /* \"#utility.yul\":3577:3592   */\n  lt\n    /* \"#utility.yul\":3551:3990   */\n  iszero\n  tag_109\n  jumpi\n    /* \"#utility.yul\":3667:3670   */\n  dup1\n    /* \"#utility.yul\":3661:3671   */\n  mload\n    /* \"#utility.yul\":3703:3721   */\n  0xffffffffffffffff\n    /* \"#utility.yul\":3690:3701   */\n  dup2\n    /* \"#utility.yul\":3687:3722   */\n  gt\n    /* \"#utility.yul\":3684:3806   */\n  iszero\n  tag_110\n  jumpi\n    /* \"#utility.yul\":3725:3804   */\n  tag_111\n  tag_33\n  jump\t// in\ntag_111:\n    /* \"#utility.yul\":3684:3806   */\ntag_110:\n    /* \"#utility.yul\":3849:3860   */\n  dup1\n    /* \"#utility.yul\":3841:3847   */\n  dup7\n    /* \"#utility.yul\":3837:3861   */\n  add\n    /* \"#utility.yul\":3887:3945   */\n  tag_112\n    /* \"#utility.yul\":3941:3944   */\n  dup10\n    /* \"#utility.yul\":3929:3939   */\n  dup3\n    /* \"#utility.yul\":3887:3945   */\n  tag_44\n  jump\t// in\ntag_112:\n    /* \"#utility.yul\":3882:3885   */\n  dup6\n    /* \"#utility.yul\":3875:3946   */\n  mstore\n    /* \"#utility.yul\":3975:3979   */\n  0x20\n    /* \"#utility.yul\":3970:3973   */\n  dup6\n    /* \"#utility.yul\":3966:3980   */\n  add\n    /* \"#utility.yul\":3959:3980   */\n  swap5\n  pop\n    /* \"#utility.yul\":3627:3990   */\n  pop\n  pop\n    /* \"#utility.yul\":3611:3615   */\n  0x20\n    /* \"#utility.yul\":3606:3609   */\n  dup2\n    /* \"#utility.yul\":3602:3616   */\n  add\n    /* \"#utility.yul\":3595:3616   */\n  swap1\n  pop\n    /* \"#utility.yul\":3551:3990   */\n  jump(tag_107)\ntag_109:\n    /* \"#utility.yul\":3555:3576   */\n  pop\n    /* \"#utility.yul\":3159:3996   */\n  pop\n  pop\n    /* \"#utility.yul\":3036:3996   */\n  swap4\n  swap3\n  pop\n  pop\n  pop\n  jump\t// out\n    /* \"#utility.yul\":4018:4423   */\ntag_46:\n    /* \"#utility.yul\":4110:4115   */\n  0x00\n    /* \"#utility.yul\":4159:4162   */\n  dup3\n    /* \"#utility.yul\":4152:4156   */\n  0x1f\n    /* \"#utility.yul\":4144:4150   */\n  dup4\n    /* \"#utility.yul\":4140:4157   */\n  add\n    /* \"#utility.yul\":4136:4163   */\n  slt\n    /* \"#utility.yul\":4126:4248   */\n  tag_114\n  jumpi\n    /* \"#utility.yul\":4167:4246   */\n  tag_115\n  tag_33\n  jump\t// in\ntag_115:\n    /* \"#utility.yul\":4126:4248   */\ntag_114:\n    /* \"#utility.yul\":4277:4283   */\n  dup2\n    /* \"#utility.yul\":4271:4284   */\n  mload\n    /* \"#utility.yul\":4302:4417   */\n  tag_116\n    /* \"#utility.yul\":4413:4416   */\n  dup5\n    /* \"#utility.yul\":4405:4411   */\n  dup3\n    /* \"#utility.yul\":4398:4402   */\n  0x20\n    /* \"#utility.yul\":4390:4396   */\n  dup7\n    /* \"#utility.yul\":4386:4403   */\n  add\n    /* \"#utility.yul\":4302:4417   */\n  tag_45\n  jump\t// in\ntag_116:\n    /* \"#utility.yul\":4293:4417   */\n  swap2\n  pop\n    /* \"#utility.yul\":4116:4423   */\n  pop\n    /* \"#utility.yul\":4018:4423   */\n  swap3\n  swap2\n  pop\n  pop\n  jump\t// out\n    /* \"#utility.yul\":4429:4506   */\ntag_47:\n    /* \"#utility.yul\":4466:4473   */\n  0x00\n    /* \"#utility.yul\":4495:4500   */\n  dup2\n    /* \"#utility.yul\":4484:4500   */\n  swap1\n  pop\n    /* \"#utility.yul\":4429:4506   */\n  swap2\n  swap1\n  pop\n  jump\t// out\n    /* \"#utility.yul\":4512:4634   */\ntag_48:\n    /* \"#utility.yul\":4585:4609   */\n  tag_119\n    /* \"#utility.yul\":4603:4608   */\n  dup2\n    /* \"#utility.yul\":4585:4609   */\n  tag_47\n  jump\t// in\ntag_119:\n    /* \"#utility.yul\":4578:4583   */\n  dup2\n    /* \"#utility.yul\":4575:4610   */\n  eq\n    /* \"#utility.yul\":4565:4628   */\n  tag_120\n  jumpi\n    /* \"#utility.yul\":4624:4625   */\n  0x00\n    /* \"#utility.yul\":4621:4622   */\n  dup1\n    /* \"#utility.yul\":4614:4626   */\n  revert\n    /* \"#utility.yul\":4565:4628   */\ntag_120:\n    /* \"#utility.yul\":4512:4634   */\n  pop\n  jump\t// out\n    /* \"#utility.yul\":4640:4783   */\ntag_49:\n    /* \"#utility.yul\":4697:4702   */\n  0x00\n    /* \"#utility.yul\":4728:4734   */\n  dup2\n    /* \"#utility.yul\":4722:4735   */\n  mload\n    /* \"#utility.yul\":4713:4735   */\n  swap1\n  pop\n    /* \"#utility.yul\":4744:4777   */\n  tag_122\n    /* \"#utility.yul\":4771:4776   */\n  dup2\n    /* \"#utility.yul\":4744:4777   */\n  tag_48\n  jump\t// in\ntag_122:\n    /* \"#utility.yul\":4640:4783   */\n  swap3\n  swap2\n  pop\n  pop\n  jump\t// out\n    /* \"#utility.yul\":4789:5675   */\ntag_3:\n    /* \"#utility.yul\":4912:4918   */\n  0x00\n    /* \"#utility.yul\":4920:4926   */\n  dup1\n    /* \"#utility.yul\":4928:4934   */\n  0x00\n    /* \"#utility.yul\":4977:4979   */\n  0x60\n    /* \"#utility.yul\":4965:4974   */\n  dup5\n    /* \"#utility.yul\":4956:4963   */\n  dup7\n    /* \"#utility.yul\":4952:4975   */\n  sub\n    /* \"#utility.yul\":4948:4980   */\n  slt\n    /* \"#utility.yul\":4945:5064   */\n  iszero\n  tag_124\n  jumpi\n    /* \"#utility.yul\":4983:5062   */\n  tag_125\n  tag_31\n  jump\t// in\ntag_125:\n    /* \"#utility.yul\":4945:5064   */\ntag_124:\n    /* \"#utility.yul\":5124:5125   */\n  0x00\n    /* \"#utility.yul\":5113:5122   */\n  dup5\n    /* \"#utility.yul\":5109:5126   */\n  add\n    /* \"#utility.yul\":5103:5127   */\n  mload\n    /* \"#utility.yul\":5154:5172   */\n  0xffffffffffffffff\n    /* \"#utility.yul\":5146:5152   */\n  dup2\n    /* \"#utility.yul\":5143:5173   */\n  gt\n    /* \"#utility.yul\":5140:5257   */\n  iszero\n  tag_126\n  jumpi\n    /* \"#utility.yul\":5176:5255   */\n  tag_127\n  tag_32\n  jump\t// in\ntag_127:\n    /* \"#utility.yul\":5140:5257   */\ntag_126:\n    /* \"#utility.yul\":5281:5380   */\n  tag_128\n    /* \"#utility.yul\":5372:5379   */\n  dup7\n    /* \"#utility.yul\":5363:5369   */\n  dup3\n    /* \"#utility.yul\":5352:5361   */\n  dup8\n    /* \"#utility.yul\":5348:5370   */\n  add\n    /* \"#utility.yul\":5281:5380   */\n  tag_46\n  jump\t// in\ntag_128:\n    /* \"#utility.yul\":5271:5380   */\n  swap4\n  pop\n    /* \"#utility.yul\":5074:5390   */\n  pop\n    /* \"#utility.yul\":5429:5431   */\n  0x20\n    /* \"#utility.yul\":5455:5519   */\n  tag_129\n    /* \"#utility.yul\":5511:5518   */\n  dup7\n    /* \"#utility.yul\":5502:5508   */\n  dup3\n    /* \"#utility.yul\":5491:5500   */\n  dup8\n    /* \"#utility.yul\":5487:5509   */\n  add\n    /* \"#utility.yul\":5455:5519   */\n  tag_49\n  jump\t// in\ntag_129:\n    /* \"#utility.yul\":5445:5519   */\n  swap3\n  pop\n    /* \"#utility.yul\":5400:5529   */\n  pop\n    /* \"#utility.yul\":5568:5570   */\n  0x40\n    /* \"#utility.yul\":5594:5658   */\n  tag_130\n    /* \"#utility.yul\":5650:5657   */\n  dup7\n    /* \"#utility.yul\":5641:5647   */\n  dup3\n    /* \"#utility.yul\":5630:5639   */\n  dup8\n    /* \"#utility.yul\":5626:5648   */\n  add\n    /* \"#utility.yul\":5594:5658   */\n  tag_49\n  jump\t// in\ntag_130:\n    /* \"#utility.yul\":5584:5658   */\n  swap2\n  pop\n    /* \"#utility.yul\":5539:5668   */\n  pop\n    /* \"#utility.yul\":4789:5675   */\n  swap3\n  pop\n  swap3\n  pop\n  swap3\n  jump\t// out\n    /* \"#utility.yul\":5681:5861   */\ntag_50:\n    /* \"#utility.yul\":5729:5806   */\n  0x4e487b7100000000000000000000000000000000000000000000000000000000\n    /* \"#utility.yul\":5726:5727   */\n  0x00\n    /* \"#utility.yul\":5719:5807   */\n  mstore\n    /* \"#utility.yul\":5826:5830   */\n  0x11\n    /* \"#utility.yul\":5823:5824   */\n  0x04\n    /* \"#utility.yul\":5816:5831   */\n  mstore\n    /* \"#utility.yul\":5850:5854   */\n  0x24\n    /* \"#utility.yul\":5847:5848   */\n  0x00\n    /* \"#utility.yul\":5840:5855   */\n  revert\n    /* \"#utility.yul\":5867:6058   */\ntag_9:\n    /* \"#utility.yul\":5907:5910   */\n  0x00\n    /* \"#utility.yul\":5926:5946   */\n  tag_133\n    /* \"#utility.yul\":5944:5945   */\n  dup3\n    /* \"#utility.yul\":5926:5946   */\n  tag_47\n  jump\t// in\ntag_133:\n    /* \"#utility.yul\":5921:5946   */\n  swap2\n  pop\n    /* \"#utility.yul\":5960:5980   */\n  tag_134\n    /* \"#utility.yul\":5978:5979   */\n  dup4\n    /* \"#utility.yul\":5960:5980   */\n  tag_47\n  jump\t// in\ntag_134:\n    /* \"#utility.yul\":5955:5980   */\n  swap3\n  pop\n    /* \"#utility.yul\":6003:6004   */\n  dup3\n    /* \"#utility.yul\":6000:6001   */\n  dup3\n    /* \"#utility.yul\":5996:6005   */\n  add\n    /* \"#utility.yul\":5989:6005   */\n  swap1\n  pop\n    /* \"#utility.yul\":6024:6027   */\n  dup1\n    /* \"#utility.yul\":6021:6022   */\n  dup3\n    /* \"#utility.yul\":6018:6028   */\n  gt\n    /* \"#utility.yul\":6015:6051   */\n  iszero\n  tag_135\n  jumpi\n    /* \"#utility.yul\":6031:6049   */\n  tag_136\n  tag_50\n  jump\t// in\ntag_136:\n    /* \"#utility.yul\":6015:6051   */\ntag_135:\n    /* \"#utility.yul\":5867:6058   */\n  swap3\n  swap2\n  pop\n  pop\n  jump\t// out\n    /* \"#utility.yul\":6064:6163   */\ntag_51:\n    /* \"#utility.yul\":6116:6122   */\n  0x00\n    /* \"#utility.yul\":6150:6155   */\n  dup2\n    /* \"#utility.yul\":6144:6156   */\n  mload\n    /* \"#utility.yul\":6134:6156   */\n  swap1\n  pop\n    /* \"#utility.yul\":6064:6163   */\n  swap2\n  swap1\n  pop\n  jump\t// out\n    /* \"#utility.yul\":6169:6349   */\ntag_52:\n    /* \"#utility.yul\":6217:6294   */\n  0x4e487b7100000000000000000000000000000000000000000000000000000000\n    /* \"#utility.yul\":6214:6215   */\n  0x00\n    /* \"#utility.yul\":6207:6295   */\n  mstore\n    /* \"#utility.yul\":6314:6318   */\n  0x22\n    /* \"#utility.yul\":6311:6312   */\n  0x04\n    /* \"#utility.yul\":6304:6319   */\n  mstore\n    /* \"#utility.yul\":6338:6342   */\n  0x24\n    /* \"#utility.yul\":6335:6336   */\n  0x00\n    /* \"#utility.yul\":6328:6343   */\n  revert\n    /* \"#utility.yul\":6355:6675   */\ntag_23:\n    /* \"#utility.yul\":6399:6405   */\n  0x00\n    /* \"#utility.yul\":6436:6437   */\n  0x02\n    /* \"#utility.yul\":6430:6434   */\n  dup3\n    /* \"#utility.yul\":6426:6438   */\n  div\n    /* \"#utility.yul\":6416:6438   */\n  swap1\n  pop\n    /* \"#utility.yul\":6483:6484   */\n  0x01\n    /* \"#utility.yul\":6477:6481   */\n  dup3\n    /* \"#utility.yul\":6473:6485   */\n  and\n    /* \"#utility.yul\":6504:6522   */\n  dup1\n    /* \"#utility.yul\":6494:6575   */\n  tag_140\n  jumpi\n    /* \"#utility.yul\":6560:6564   */\n  0x7f\n    /* \"#utility.yul\":6552:6558   */\n  dup3\n    /* \"#utility.yul\":6548:6565   */\n  and\n    /* \"#utility.yul\":6538:6565   */\n  swap2\n  pop\n    /* \"#utility.yul\":6494:6575   */\ntag_140:\n    /* \"#utility.yul\":6622:6624   */\n  0x20\n    /* \"#utility.yul\":6614:6620   */\n  dup3\n    /* \"#utility.yul\":6611:6625   */\n  lt\n    /* \"#utility.yul\":6591:6609   */\n  dup2\n    /* \"#utility.yul\":6588:6626   */\n  sub\n    /* \"#utility.yul\":6585:6669   */\n  tag_141\n  jumpi\n    /* \"#utility.yul\":6641:6659   */\n  tag_142\n  tag_52\n  jump\t// in\ntag_142:\n    /* \"#utility.yul\":6585:6669   */\ntag_141:\n    /* \"#utility.yul\":6406:6675   */\n  pop\n    /* \"#utility.yul\":6355:6675   */\n  swap2\n  swap1\n  pop\n  jump\t// out\n    /* \"#utility.yul\":6681:6822   */\ntag_53:\n    /* \"#utility.yul\":6730:6734   */\n  0x00\n    /* \"#utility.yul\":6753:6756   */\n  dup2\n    /* \"#utility.yul\":6745:6756   */\n  swap1\n  pop\n    /* \"#utility.yul\":6776:6779   */\n  dup2\n    /* \"#utility.yul\":6773:6774   */\n  0x00\n    /* \"#utility.yul\":6766:6780   */\n  mstore\n    /* \"#utility.yul\":6810:6814   */\n  0x20\n    /* \"#utility.yul\":6807:6808   */\n  0x00\n    /* \"#utility.yul\":6797:6815   */\n  keccak256\n    /* \"#utility.yul\":6789:6815   */\n  swap1\n  pop\n    /* \"#utility.yul\":6681:6822   */\n  swap2\n  swap1\n  pop\n  jump\t// out\n    /* \"#utility.yul\":6828:6921   */\ntag_54:\n    /* \"#utility.yul\":6865:6871   */\n  0x00\n    /* \"#utility.yul\":6912:6914   */\n  0x20\n    /* \"#utility.yul\":6907:6909   */\n  0x1f\n    /* \"#utility.yul\":6900:6905   */\n  dup4\n    /* \"#utility.yul\":6896:6910   */\n  add\n    /* \"#utility.yul\":6892:6915   */\n  div\n    /* \"#utility.yul\":6882:6915   */\n  swap1\n  pop\n    /* \"#utility.yul\":6828:6921   */\n  swap2\n  swap1\n  pop\n  jump\t// out\n    /* \"#utility.yul\":6927:7034   */\ntag_55:\n    /* \"#utility.yul\":6971:6979   */\n  0x00\n    /* \"#utility.yul\":7021:7026   */\n  dup3\n    /* \"#utility.yul\":7015:7019   */\n  dup3\n    /* \"#utility.yul\":7011:7027   */\n  shl\n    /* \"#utility.yul\":6990:7027   */\n  swap1\n  pop\n    /* \"#utility.yul\":6927:7034   */\n  swap3\n  swap2\n  pop\n  pop\n  jump\t// out\n    /* \"#utility.yul\":7040:7433   */\ntag_56:\n    /* \"#utility.yul\":7109:7115   */\n  0x00\n    /* \"#utility.yul\":7159:7160   */\n  0x08\n    /* \"#utility.yul\":7147:7157   */\n  dup4\n    /* \"#utility.yul\":7143:7161   */\n  mul\n    /* \"#utility.yul\":7182:7279   */\n  tag_147\n    /* \"#utility.yul\":7212:7278   */\n  0xffffffffffffffffffffffffffffffffffffffffffffffffffffffffffffffff\n    /* \"#utility.yul\":7201:7210   */\n  dup3\n    /* \"#utility.yul\":7182:7279   */\n  tag_55\n  jump\t// in\ntag_147:\n    /* \"#utility.yul\":7300:7339   */\n  tag_148\n    /* \"#utility.yul\":7330:7338   */\n  dup7\n    /* \"#utility.yul\":7319:7328   */\n  dup4\n    /* \"#utility.yul\":7300:7339   */\n  tag_55\n  jump\t// in\ntag_148:\n    /* \"#utility.yul\":7288:7339   */\n  swap6\n  pop\n    /* \"#utility.yul\":7372:7376   */\n  dup1\n    /* \"#utility.yul\":7368:7377   */\n  not\n    /* \"#utility.yul\":7361:7366   */\n  dup5\n    /* \"#utility.yul\":7357:7378   */\n  and\n    /* \"#utility.yul\":7348:7378   */\n  swap4\n  pop\n    /* \"#utility.yul\":7421:7425   */\n  dup1\n    /* \"#utility.yul\":7411:7419   */\n  dup7\n    /* \"#utility.yul\":7407:7426   */\n  and\n    /* \"#utility.yul\":7400:7405   */\n  dup5\n    /* \"#utility.yul\":7397:7427   */\n  or\n    /* \"#utility.yul\":7387:7427   */\n  swap3\n  pop\n    /* \"#utility.yul\":7116:7433   */\n  pop\n  pop\n    /* \"#utility.yul\":7040:7433   */\n  swap4\n  swap3\n  pop\n  pop\n  pop\n  jump\t// out\n    /* \"#utility.yul\":7439:7499   */\ntag_57:\n    /* \"#utility.yul\":7467:7470   */\n  0x00\n    /* \"#utility.yul\":7488:7493   */\n  dup2\n    /* \"#utility.yul\":7481:7493   */\n  swap1\n  pop\n    /* \"#utility.yul\":7439:7499   */\n  swap2\n  swap1\n  pop\n  jump\t// out\n    /* \"#utility.yul\":7505:7647   */\ntag_58:\n    /* \"#utility.yul\":7555:7564   */\n  0x00\n    /* \"#utility.yul\":7588:7641   */\n  tag_151\n    /* \"#utility.yul\":7606:7640   */\n  tag_152\n    /* \"#utility.yul\":7615:7639   */\n  tag_153\n    /* \"#utility.yul\":7633:7638   */\n  dup5\n    /* \"#utility.yul\":7615:7639   */\n  tag_47\n  jump\t// in\ntag_153:\n    /* \"#utility.yul\":7606:7640   */\n  tag_57\n  jump\t// in\ntag_152:\n    /* \"#utility.yul\":7588:7641   */\n  tag_47\n  jump\t// in\ntag_151:\n    /* \"#utility.yul\":7575:7641   */\n  swap1\n  pop\n    /* \"#utility.yul\":7505:7647   */\n  swap2\n  swap1\n  pop\n  jump\t// out\n    /* \"#utility.yul\":7653:7728   */\ntag_59:\n    /* \"#utility.yul\":7696:7699   */\n  0x00\n    /* \"#utility.yul\":7717:7722   */\n  dup2\n    /* \"#utility.yul\":7710:7722   */\n  swap1\n  pop\n    /* \"#utility.yul\":7653:7728   */\n  swap2\n  swap1\n  pop\n  jump\t// out\n    /* \"#utility.yul\":7734:8003   */\ntag_60:\n    /* \"#utility.yul\":7844:7883   */\n  tag_156\n    /* \"#utility.yul\":7875:7882   */\n  dup4\n    /* \"#utility.yul\":7844:7883   */\n  tag_58\n  jump\t// in\ntag_156:\n    /* \"#utility.yul\":7905:7996   */\n  tag_157\n    /* \"#utility.yul\":7954:7995   */\n  tag_158\n    /* \"#utility.yul\":7978:7994   */\n  dup3\n    /* \"#utility.yul\":7954:7995   */\n  tag_59\n  jump\t// in\ntag_158:\n    /* \"#utility.yul\":7946:7952   */\n  dup5\n    /* \"#utility.yul\":7939:7943   */\n  dup5\n    /* \"#utility.yul\":7933:7944   */\n  sload\n    /* \"#utility.yul\":7905:7996   */\n  tag_56\n  jump\t// in\ntag_157:\n    /* \"#utility.yul\":7899:7903   */\n  dup3\n    /* \"#utility.yul\":7892:7997   */\n  sstore\n    /* \"#utility.yul\":7810:8003   */\n  pop\n    /* \"#utility.yul\":7734:8003   */\n  pop\n  pop\n  pop\n  jump\t// out\n    /* \"#utility.yul\":8009:8082   */\ntag_61:\n    /* \"#utility.yul\":8054:8057   */\n  0x00\n    /* \"#utility.yul\":8009:8082   */\n  swap1\n  jump\t// out\n    /* \"#utility.yul\":8088:8277   */\ntag_62:\n    /* \"#utility.yul\":8165:8197   */\n  tag_161\n  tag_61\n  jump\t// in\ntag_161:\n    /* \"#utility.yul\":8206:8271   */\n  tag_162\n    /* \"#utility.yul\":8264:8270   */\n  dup2\n    /* \"#utility.yul\":8256:8262   */\n  dup5\n    /* \"#utility.yul\":8250:8254   */\n  dup5\n    /* \"#utility.yul\":8206:8271   */\n  tag_60\n  jump\t// in\ntag_162:\n    /* \"#utility.yul\":8141:8277   */\n  pop\n    /* \"#utility.yul\":8088:8277   */\n  pop\n  pop\n  jump\t// out\n    /* \"#utility.yul\":8283:8469   */\ntag_63:\n    /* \"#utility.yul\":8343:8463   */\ntag_164:\n    /* \"#utility.yul\":8360:8363   */\n  dup2\n    /* \"#utility.yul\":8353:8358   */\n  dup2\n    /* \"#utility.yul\":8350:8364   */\n  lt\n    /* \"#utility.yul\":8343:8463   */\n  iszero\n  tag_166\n  jumpi\n    /* \"#utility.yul\":8414:8453   */\n  tag_167\n    /* \"#utility.yul\":8451:8452   */\n  0x00\n    /* \"#utility.yul\":8444:8449   */\n  dup3\n    /* \"#utility.yul\":8414:8453   */\n  tag_62\n  jump\t// in\ntag_167:\n    /* \"#utility.yul\":8387:8388   */\n  0x01\n    /* \"#utility.yul\":8380:8385   */\n  dup2\n    /* \"#utility.yul\":8376:8389   */\n  add\n    /* \"#utility.yul\":8367:8389   */\n  swap1\n  pop\n    /* \"#utility.yul\":8343:8463   */\n  jump(tag_164)\ntag_166:\n    /* \"#utility.yul\":8283:8469   */\n  pop\n  pop\n  jump\t// out\n    /* \"#utility.yul\":8475:9018   */\ntag_64:\n    /* \"#utility.yul\":8576:8578   */\n  0x1f\n    /* \"#utility.yul\":8571:8574   */\n  dup3\n    /* \"#utility.yul\":8568:8579   */\n  gt\n    /* \"#utility.yul\":8565:9011   */\n  iszero\n  tag_169\n  jumpi\n    /* \"#utility.yul\":8610:8648   */\n  tag_170\n    /* \"#utility.yul\":8642:8647   */\n  dup2\n    /* \"#utility.yul\":8610:8648   */\n  tag_53\n  jump\t// in\ntag_170:\n    /* \"#utility.yul\":8694:8723   */\n  tag_171\n    /* \"#utility.yul\":8712:8722   */\n  dup5\n    /* \"#utility.yul\":8694:8723   */\n  tag_54\n  jump\t// in\ntag_171:\n    /* \"#utility.yul\":8684:8692   */\n  dup2\n    /* \"#utility.yul\":8680:8724   */\n  add\n    /* \"#utility.yul\":8877:8879   */\n  0x20\n    /* \"#utility.yul\":8865:8875   */\n  dup6\n    /* \"#utility.yul\":8862:8880   */\n  lt\n    /* \"#utility.yul\":8859:8908   */\n  iszero\n  tag_172\n  jumpi\n    /* \"#utility.yul\":8898:8906   */\n  dup2\n    /* \"#utility.yul\":8883:8906   */\n  swap1\n  pop\n    /* \"#utility.yul\":8859:8908   */\ntag_172:\n    /* \"#utility.yul\":8921:9001   */\n  tag_173\n    /* \"#utility.yul\":8977:8999   */\n  tag_174\n    /* \"#utility.yul\":8995:8998   */\n  dup6\n    /* \"#utility.yul\":8977:8999   */\n  tag_54\n  jump\t// in\ntag_174:\n    /* \"#utility.yul\":8967:8975   */\n  dup4\n    /* \"#utility.yul\":8963:9000   */\n  add\n    /* \"#utility.yul\":8950:8961   */\n  dup3\n    /* \"#utility.yul\":8921:9001   */\n  tag_63\n  jump\t// in\ntag_173:\n    /* \"#utility.yul\":8580:9011   */\n  pop\n  pop\n    /* \"#utility.yul\":8565:9011   */\ntag_169:\n    /* \"#utility.yul\":8475:9018   */\n  pop\n  pop\n  pop\n  jump\t// out\n    /* \"#utility.yul\":9024:9141   */\ntag_65:\n    /* \"#utility.yul\":9078:9086   */\n  0x00\n    /* \"#utility.yul\":9128:9133   */\n  dup3\n    /* \"#utility.yul\":9122:9126   */\n  dup3\n    /* \"#utility.yul\":9118:9134   */\n  shr\n    /* \"#utility.yul\":9097:9134   */\n  swap1\n  pop\n    /* \"#utility.yul\":9024:9141   */\n  swap3\n  swap2\n  pop\n  pop\n  jump\t// out\n    /* \"#utility.yul\":9147:9316   */\ntag_66:\n    /* \"#utility.yul\":9191:9197   */\n  0x00\n    /* \"#utility.yul\":9224:9275   */\n  tag_177\n    /* \"#utility.yul\":9272:9273   */\n  0x00\n    /* \"#utility.yul\":9268:9274   */\n  not\n    /* \"#utility.yul\":9260:9265   */\n  dup5\n    /* \"#utility.yul\":9257:9258   */\n  0x08\n    /* \"#utility.yul\":9253:9266   */\n  mul\n    /* \"#utility.yul\":9224:9275   */\n  tag_65\n  jump\t// in\ntag_177:\n    /* \"#utility.yul\":9220:9276   */\n  not\n    /* \"#utility.yul\":9305:9309   */\n  dup1\n    /* \"#utility.yul\":9299:9303   */\n  dup4\n    /* \"#utility.yul\":9295:9310   */\n  and\n    /* \"#utility.yul\":9285:9310   */\n  swap2\n  pop\n    /* \"#utility.yul\":9198:9316   */\n  pop\n    /* \"#utility.yul\":9147:9316   */\n  swap3\n  swap2\n  pop\n  pop\n  jump\t// out\n    /* \"#utility.yul\":9321:9616   */\ntag_67:\n    /* \"#utility.yul\":9397:9401   */\n  0x00\n    /* \"#utility.yul\":9543:9572   */\n  tag_179\n    /* \"#utility.yul\":9568:9571   */\n  dup4\n    /* \"#utility.yul\":9562:9566   */\n  dup4\n    /* \"#utility.yul\":9543:9572   */\n  tag_66\n  jump\t// in\ntag_179:\n    /* \"#utility.yul\":9535:9572   */\n  swap2\n  pop\n    /* \"#utility.yul\":9605:9608   */\n  dup3\n    /* \"#utility.yul\":9602:9603   */\n  0x02\n    /* \"#utility.yul\":9598:9609   */\n  mul\n    /* \"#utility.yul\":9592:9596   */\n  dup3\n    /* \"#utility.yul\":9589:9610   */\n  or\n    /* \"#utility.yul\":9581:9610   */\n  swap1\n  pop\n    /* \"#utility.yul\":9321:9616   */\n  swap3\n  swap2\n  pop\n  pop\n  jump\t// out\n    /* \"#utility.yul\":9621:11016   */\ntag_15:\n    /* \"#utility.yul\":9738:9775   */\n  tag_181\n    /* \"#utility.yul\":9771:9774   */\n  dup3\n    /* \"#utility.yul\":9738:9775   */\n  tag_51\n  jump\t// in\ntag_181:\n    /* \"#utility.yul\":9840:9858   */\n  0xffffffffffffffff\n    /* \"#utility.yul\":9832:9838   */\n  dup2\n    /* \"#utility.yul\":9829:9859   */\n  gt\n    /* \"#utility.yul\":9826:9882   */\n  iszero\n  tag_182\n  jumpi\n    /* \"#utility.yul\":9862:9880   */\n  tag_183\n  tag_35\n  jump\t// in\ntag_183:\n    /* \"#utility.yul\":9826:9882   */\ntag_182:\n    /* \"#utility.yul\":9906:9944   */\n  tag_184\n    /* \"#utility.yul\":9938:9942   */\n  dup3\n    /* \"#utility.yul\":9932:9943   */\n  sload\n    /* \"#utility.yul\":9906:9944   */\n  tag_23\n  jump\t// in\ntag_184:\n    /* \"#utility.yul\":9991:10058   */\n  tag_185\n    /* \"#utility.yul\":10051:10057   */\n  dup3\n    /* \"#utility.yul\":10043:10049   */\n  dup3\n    /* \"#utility.yul\":10037:10041   */\n  dup6\n    /* \"#utility.yul\":9991:10058   */\n  tag_64\n  jump\t// in\ntag_185:\n    /* \"#utility.yul\":10085:10086   */\n  0x00\n    /* \"#utility.yul\":10109:10113   */\n  0x20\n    /* \"#utility.yul\":10096:10113   */\n  swap1\n  pop\n    /* \"#utility.yul\":10141:10143   */\n  0x1f\n    /* \"#utility.yul\":10133:10139   */\n  dup4\n    /* \"#utility.yul\":10130:10144   */\n  gt\n    /* \"#utility.yul\":10158:10159   */\n  0x01\n    /* \"#utility.yul\":10153:10771   */\n  dup2\n  eq\n  tag_187\n  jumpi\n    /* \"#utility.yul\":10815:10816   */\n  0x00\n    /* \"#utility.yul\":10832:10838   */\n  dup5\n    /* \"#utility.yul\":10829:10906   */\n  iszero\n  tag_188\n  jumpi\n    /* \"#utility.yul\":10881:10890   */\n  dup3\n    /* \"#utility.yul\":10876:10879   */\n  dup8\n    /* \"#utility.yul\":10872:10891   */\n  add\n    /* \"#utility.yul\":10866:10892   */\n  mload\n    /* \"#utility.yul\":10857:10892   */\n  swap1\n  pop\n    /* \"#utility.yul\":10829:10906   */\ntag_188:\n    /* \"#utility.yul\":10932:10999   */\n  tag_189\n    /* \"#utility.yul\":10992:10998   */\n  dup6\n    /* \"#utility.yul\":10985:10990   */\n  dup3\n    /* \"#utility.yul\":10932:10999   */\n  tag_67\n  jump\t// in\ntag_189:\n    /* \"#utility.yul\":10926:10930   */\n  dup7\n    /* \"#utility.yul\":10919:11000   */\n  sstore\n    /* \"#utility.yul\":10788:11010   */\n  pop\n    /* \"#utility.yul\":10123:11010   */\n  jump(tag_186)\n    /* \"#utility.yul\":10153:10771   */\ntag_187:\n    /* \"#utility.yul\":10205:10209   */\n  0x1f\n    /* \"#utility.yul\":10201:10210   */\n  not\n    /* \"#utility.yul\":10193:10199   */\n  dup5\n    /* \"#utility.yul\":10189:10211   */\n  and\n    /* \"#utility.yul\":10239:10276   */\n  tag_190\n    /* \"#utility.yul\":10271:10275   */\n  dup7\n    /* \"#utility.yul\":10239:10276   */\n  tag_53\n  jump\t// in\ntag_190:\n    /* \"#utility.yul\":10298:10299   */\n  0x00\n    /* \"#utility.yul\":10312:10520   */\ntag_191:\n    /* \"#utility.yul\":10326:10333   */\n  dup3\n    /* \"#utility.yul\":10323:10324   */\n  dup2\n    /* \"#utility.yul\":10320:10334   */\n  lt\n    /* \"#utility.yul\":10312:10520   */\n  iszero\n  tag_193\n  jumpi\n    /* \"#utility.yul\":10405:10414   */\n  dup5\n    /* \"#utility.yul\":10400:10403   */\n  dup10\n    /* \"#utility.yul\":10396:10415   */\n  add\n    /* \"#utility.yul\":10390:10416   */\n  mload\n    /* \"#utility.yul\":10382:10388   */\n  dup3\n    /* \"#utility.yul\":10375:10417   */\n  sstore\n    /* \"#utility.yul\":10456:10457   */\n  0x01\n    /* \"#utility.yul\":10448:10454   */\n  dup3\n    /* \"#utility.yul\":10444:10458   */\n  add\n    /* \"#utility.yul\":10434:10458   */\n  swap2\n  pop\n    /* \"#utility.yul\":10503:10505   */\n  0x20\n    /* \"#utility.yul\":10492:10501   */\n  dup6\n    /* \"#utility.yul\":10488:10506   */\n  add\n    /* \"#utility.yul\":10475:10506   */\n  swap5\n  pop\n    /* \"#utility.yul\":10349:10353   */\n  0x20\n    /* \"#utility.yul\":10346:10347   */\n  dup2\n    /* \"#utility.yul\":10342:10354   */\n  add\n    /* \"#utility.yul\":10337:10354   */\n  swap1\n  pop\n    /* \"#utility.yul\":10312:10520   */\n  jump(tag_191)\ntag_193:\n    /* \"#utility.yul\":10548:10554   */\n  dup7\n    /* \"#utility.yul\":10539:10546   */\n  dup4\n    /* \"#utility.yul\":10536:10555   */\n  lt\n    /* \"#utility.yul\":10533:10712   */\n  iszero\n  tag_194\n  jumpi\n    /* \"#utility.yul\":10606:10615   */\n  dup5\n    /* \"#utility.yul\":10601:10604   */\n  dup10\n    /* \"#utility.yul\":10597:10616   */\n  add\n    /* \"#utility.yul\":10591:10617   */\n  mload\n    /* \"#utility.yul\":10649:10697   */\n  tag_195\n    /* \"#utility.yul\":10691:10695   */\n  0x1f\n    /* \"#utility.yul\":10683:10689   */\n  dup10\n    /* \"#utility.yul\":10679:10696   */\n  and\n    /* \"#utility.yul\":10668:10677   */\n  dup3\n    /* \"#utility.yul\":10649:10697   */\n  tag_66\n  jump\t// in\ntag_195:\n    /* \"#utility.yul\":10641:10647   */\n  dup4\n    /* \"#utility.yul\":10634:10698   */\n  sstore\n    /* \"#utility.yul\":10556:10712   */\n  pop\n    /* \"#utility.yul\":10533:10712   */\ntag_194:\n    /* \"#utility.yul\":10758:10759   */\n  0x01\n    /* \"#utility.yul\":10754:10755   */\n  0x02\n    /* \"#utility.yul\":10746:10752   */\n  dup9\n    /* \"#utility.yul\":10742:10756   */\n  mul\n    /* \"#utility.yul\":10738:10760   */\n  add\n    /* \"#utility.yul\":10732:10736   */\n  dup9\n    /* \"#utility.yul\":10725:10761   */\n  sstore\n    /* \"#utility.yul\":10160:10771   */\n  pop\n  pop\n  pop\n    /* \"#utility.yul\":10123:11010   */\ntag_186:\n  pop\n    /* \"#utility.yul\":9713:11016   */\n  pop\n  pop\n  pop\n    /* \"#utility.yul\":9621:11016   */\n  pop\n  pop\n  jump\t// out\n    /* \"election.sol\":58:2326  contract Election {... */\ntag_10:\n  dataSize(sub_0)\n  dup1\n  dataOffset(sub_0)\n  0x00\n  codecopy\n  0x00\n  return\nstop\n\nsub_0: assembly {\n        /* \"election.sol\":58:2326  contract Election {... */\n      mstore(0x40, 0x80)\n      callvalue\n      dup1\n      iszero\n      tag_1\n      jumpi\n      0x00\n      dup1\n      revert\n    tag_1:\n      pop\n      jumpi(tag_2, lt(calldatasize, 0x04))\n      shr(0xe0, calldataload(0x00))\n      dup1\n      0x777c3acf\n      gt\n      tag_15\n      jumpi\n      dup1\n      0x777c3acf\n      eq\n      tag_9\n      jumpi\n      dup1\n      0x88358a58\n      eq\n      tag_10\n      jumpi\n      dup1\n      0x8da5cb5b\n      eq\n      tag_11\n      jumpi\n      dup1\n      0x9e136e64\n      eq\n      tag_12\n      jumpi\n      dup1\n      0xa623dbe5\n      eq\n      tag_13\n      jumpi\n      dup1\n      0xac9b9230\n      eq\n      tag_14\n      jumpi\n      jump(tag_2)\n    tag_15:\n      dup1\n      0x0121b93f\n      eq\n      tag_3\n      jumpi\n      dup1\n      0x0d15fd77\n      eq\n      tag_4\n      jumpi\n      dup1\n      0x1fcc81be\n      eq\n      tag_5\n      jumpi\n      dup1\n      0x2495c0ce\n      eq\n      tag_6\n      jumpi\n      dup1\n      0x595156ca\n      eq\n      tag_7\n      jumpi\n      dup1\n      0x62190150\n      eq\n      tag_8\n      jumpi\n    tag_2:\n      0x00\n      dup1\n      revert\n        /* \"election.sol\":1317:1871  function vote(uint256 _number) public {... */\n    tag_3:\n      tag_16\n      0x04\n      dup1\n      calldatasize\n      sub\n      dup2\n      add\n      swap1\n      tag_17\n      swap2\n      swap1\n      tag_18\n      jump\t// in\n    tag_17:\n      tag_19\n      jump\t// in\n    tag_16:\n      stop\n        /* \"election.sol\":168:193  uint256 public totalVotes */\n    tag_4:\n      tag_20\n      tag_21\n      jump\t// in\n    tag_20:\n      mload(0x40)\n      tag_22\n      swap2\n      swap1\n      tag_23\n      jump\t// in\n    tag_22:\n      mload(0x40)\n      dup1\n      swap2\n      sub\n      swap1\n      return\n        /* \"election.sol\":282:330  mapping(uint256 => uint256) public numberOfVotes */\n    tag_5:\n      tag_24\n      0x04\n      dup1\n      calldatasize\n      sub\n      dup2\n      add\n      swap1\n      tag_25\n      swap2\n      swap1\n      tag_18\n      jump\t// in\n    tag_25:\n      tag_26\n      jump\t// in\n    tag_24:\n      mload(0x40)\n      tag_27\n      swap2\n      swap1\n      tag_23\n      jump\t// in\n    tag_27:\n      mload(0x40)\n      dup1\n      swap2\n      sub\n      swap1\n      return\n        /* \"election.sol\":1877:1964  function stopVote() public onlyOwner {... */\n    tag_6:\n      tag_28\n      tag_29\n      jump\t// in\n    tag_28:\n      stop\n        /* \"election.sol\":1970:2146  function resetMaxVotes(uint256 _newMaxVotes) public onlyOwner {... */\n    tag_7:\n      tag_30\n      0x04\n      dup1\n      calldatasize\n      sub\n      dup2\n      add\n      swap1\n      tag_31\n      swap2\n      swap1\n      tag_18\n      jump\t// in\n    tag_31:\n      tag_32\n      jump\t// in\n    tag_30:\n      stop\n        /* \"election.sol\":235:276  mapping(address => bool) public userVotes */\n    tag_8:\n      tag_33\n      0x04\n      dup1\n      calldatasize\n      sub\n      dup2\n      add\n      swap1\n      tag_34\n      swap2\n      swap1\n      tag_35\n      jump\t// in\n    tag_34:\n      tag_36\n      jump\t// in\n    tag_33:\n      mload(0x40)\n      tag_37\n      swap2\n      swap1\n      tag_38\n      jump\t// in\n    tag_37:\n      mload(0x40)\n      dup1\n      swap2\n      sub\n      swap1\n      return\n        /* \"election.sol\":139:162  uint256 public maxVotes */\n    tag_9:\n      tag_39\n      tag_40\n      jump\t// in\n    tag_39:\n      mload(0x40)\n      tag_41\n      swap2\n      swap1\n      tag_23\n      jump\t// in\n    tag_41:\n      mload(0x40)\n      dup1\n      swap2\n      sub\n      swap1\n      return\n        /* \"election.sol\":843:1311  function voteWinner() public view returns(string memory) {... */\n    tag_10:\n      tag_42\n      tag_43\n      jump\t// in\n    tag_42:\n      mload(0x40)\n      tag_44\n      swap2\n      swap1\n      tag_45\n      jump\t// in\n    tag_44:\n      mload(0x40)\n      dup1\n      swap2\n      sub\n      swap1\n      return\n        /* \"election.sol\":113:133  address public owner */\n    tag_11:\n      tag_46\n      tag_47\n      jump\t// in\n    tag_46:\n      mload(0x40)\n      tag_48\n      swap2\n      swap1\n      tag_49\n      jump\t// in\n    tag_48:\n      mload(0x40)\n      dup1\n      swap2\n      sub\n      swap1\n      return\n        /* \"election.sol\":199:229  uint256 public electionEndTime */\n    tag_12:\n      tag_50\n      tag_51\n      jump\t// in\n    tag_50:\n      mload(0x40)\n      tag_52\n      swap2\n      swap1\n      tag_23\n      jump\t// in\n    tag_52:\n      mload(0x40)\n      dup1\n      swap2\n      sub\n      swap1\n      return\n        /* \"election.sol\":2152:2324  function resetEndTime(uint256 _newEndTime) public onlyOwner {... */\n    tag_13:\n      tag_53\n      0x04\n      dup1\n      calldatasize\n      sub\n      dup2\n      add\n      swap1\n      tag_54\n      swap2\n      swap1\n      tag_18\n      jump\t// in\n    tag_54:\n      tag_55\n      jump\t// in\n    tag_53:\n      stop\n        /* \"election.sol\":83:107  string[] public electors */\n    tag_14:\n      tag_56\n      0x04\n      dup1\n      calldatasize\n      sub\n      dup2\n      add\n      swap1\n      tag_57\n      swap2\n      swap1\n      tag_18\n      jump\t// in\n    tag_57:\n      tag_58\n      jump\t// in\n    tag_56:\n      mload(0x40)\n      tag_59\n      swap2\n      swap1\n      tag_45\n      jump\t// in\n    tag_59:\n      mload(0x40)\n      dup1\n      swap2\n      sub\n      swap1\n      return\n        /* \"election.sol\":1317:1871  function vote(uint256 _number) public {... */\n    tag_19:\n        /* \"election.sol\":1396:1401  false */\n      0x00\n        /* \"election.sol\":1373:1401  userVotes[msg.sender]==false */\n      iszero\n      iszero\n        /* \"election.sol\":1373:1382  userVotes */\n      0x05\n        /* \"election.sol\":1373:1394  userVotes[msg.sender] */\n      0x00\n        /* \"election.sol\":1383:1393  msg.sender */\n      caller\n        /* \"election.sol\":1373:1394  userVotes[msg.sender] */\n      0xffffffffffffffffffffffffffffffffffffffff\n      and\n      0xffffffffffffffffffffffffffffffffffffffff\n      and\n      dup2\n      mstore\n      0x20\n      add\n      swap1\n      dup2\n      mstore\n      0x20\n      add\n      0x00\n      keccak256\n      0x00\n      swap1\n      sload\n      swap1\n      0x0100\n      exp\n      swap1\n      div\n      0xff\n      and\n        /* \"election.sol\":1373:1401  userVotes[msg.sender]==false */\n      iszero\n      iszero\n      eq\n        /* \"election.sol\":1365:1429  require(userVotes[msg.sender]==false, \"Your address can't vote\") */\n      tag_61\n      jumpi\n      mload(0x40)\n      0x08c379a000000000000000000000000000000000000000000000000000000000\n      dup2\n      mstore\n      0x04\n      add\n      tag_62\n      swap1\n      tag_63\n      jump\t// in\n    tag_62:\n      mload(0x40)\n      dup1\n      swap2\n      sub\n      swap1\n      revert\n    tag_61:\n        /* \"election.sol\":1454:1462  electors */\n      0x00\n        /* \"election.sol\":1454:1469  electors.length */\n      dup1\n      sload\n      swap1\n      pop\n        /* \"election.sol\":1443:1450  _number */\n      dup2\n        /* \"election.sol\":1443:1469  _number >= electors.length */\n      lt\n        /* \"election.sol\":1439:1523  if (_number >= electors.length) revert ElectorDoesNotExist(_number, electors.length) */\n      tag_64\n      jumpi\n        /* \"election.sol\":1498:1505  _number */\n      dup1\n        /* \"election.sol\":1507:1515  electors */\n      0x00\n        /* \"election.sol\":1507:1522  electors.length */\n      dup1\n      sload\n      swap1\n      pop\n        /* \"election.sol\":1478:1523  ElectorDoesNotExist(_number, electors.length) */\n      mload(0x40)\n      0x0cb9c86800000000000000000000000000000000000000000000000000000000\n      dup2\n      mstore\n      0x04\n      add\n      tag_65\n      swap3\n      swap2\n      swap1\n      tag_66\n      jump\t// in\n    tag_65:\n      mload(0x40)\n      dup1\n      swap2\n      sub\n      swap1\n      revert\n        /* \"election.sol\":1439:1523  if (_number >= electors.length) revert ElectorDoesNotExist(_number, electors.length) */\n    tag_64:\n        /* \"election.sol\":1554:1562  maxVotes */\n      sload(0x02)\n        /* \"election.sol\":1541:1551  totalVotes */\n      sload(0x03)\n        /* \"election.sol\":1541:1562  totalVotes < maxVotes */\n      lt\n        /* \"election.sol\":1533:1593  require(totalVotes < maxVotes, \"Max votes has been reached\") */\n      tag_67\n      jumpi\n      mload(0x40)\n      0x08c379a000000000000000000000000000000000000000000000000000000000\n      dup2\n      mstore\n      0x04\n      add\n      tag_68\n      swap1\n      tag_69\n      jump\t// in\n    tag_68:\n      mload(0x40)\n      dup1\n      swap2\n      sub\n      swap1\n      revert\n    tag_67:\n        /* \"election.sol\":1625:1630  owner */\n      0x01\n      0x00\n      swap1\n      sload\n      swap1\n      0x0100\n      exp\n      swap1\n      div\n      0xffffffffffffffffffffffffffffffffffffffff\n      and\n        /* \"election.sol\":1611:1630  msg.sender != owner */\n      0xffffffffffffffffffffffffffffffffffffffff\n      and\n        /* \"election.sol\":1611:1621  msg.sender */\n      caller\n        /* \"election.sol\":1611:1630  msg.sender != owner */\n      0xffffffffffffffffffffffffffffffffffffffff\n      and\n      sub\n        /* \"election.sol\":1603:1651  require(msg.sender != owner, \"Owner can't vote\") */\n      tag_70\n      jumpi\n      mload(0x40)\n      0x08c379a000000000000000000000000000000000000000000000000000000000\n      dup2\n      mstore\n      0x04\n      add\n      tag_71\n      swap1\n      tag_72\n      jump\t// in\n    tag_71:\n      mload(0x40)\n      dup1\n      swap2\n      sub\n      swap1\n      revert\n    tag_70:\n        /* \"election.sol\":1687:1702  electionEndTime */\n      sload(0x04)\n        /* \"election.sol\":1669:1684  block.timestamp */\n      timestamp\n        /* \"election.sol\":1669:1702  block.timestamp < electionEndTime */\n      lt\n        /* \"election.sol\":1661:1721  require(block.timestamp < electionEndTime, \"Voting is over\") */\n      tag_73\n      jumpi\n      mload(0x40)\n      0x08c379a000000000000000000000000000000000000000000000000000000000\n      dup2\n      mstore\n      0x04\n      add\n      tag_74\n      swap1\n      tag_75\n      jump\t// in\n    tag_74:\n      mload(0x40)\n      dup1\n      swap2\n      sub\n      swap1\n      revert\n    tag_73:\n        /* \"election.sol\":1756:1760  true */\n      0x01\n        /* \"election.sol\":1732:1741  userVotes */\n      0x05\n        /* \"election.sol\":1732:1753  userVotes[msg.sender] */\n      0x00\n        /* \"election.sol\":1742:1752  msg.sender */\n      caller\n        /* \"election.sol\":1732:1753  userVotes[msg.sender] */\n      0xffffffffffffffffffffffffffffffffffffffff\n      and\n      0xffffffffffffffffffffffffffffffffffffffff\n      and\n      dup2\n      mstore\n      0x20\n      add\n      swap1\n      dup2\n      mstore\n      0x20\n      add\n      0x00\n      keccak256\n      0x00\n        /* \"election.sol\":1732:1760  userVotes[msg.sender] = true */\n      0x0100\n      exp\n      dup2\n      sload\n      dup2\n      0xff\n      mul\n      not\n      and\n      swap1\n      dup4\n      iszero\n      iszero\n      mul\n      or\n      swap1\n      sstore\n      pop\n        /* \"election.sol\":1796:1797  1 */\n      0x01\n        /* \"election.sol\":1770:1783  numberOfVotes */\n      0x06\n        /* \"election.sol\":1770:1792  numberOfVotes[_number] */\n      0x00\n        /* \"election.sol\":1784:1791  _number */\n      dup4\n        /* \"election.sol\":1770:1792  numberOfVotes[_number] */\n      dup2\n      mstore\n      0x20\n      add\n      swap1\n      dup2\n      mstore\n      0x20\n      add\n      0x00\n      keccak256\n      0x00\n        /* \"election.sol\":1770:1797  numberOfVotes[_number] += 1 */\n      dup3\n      dup3\n      sload\n      tag_76\n      swap2\n      swap1\n      tag_77\n      jump\t// in\n    tag_76:\n      swap3\n      pop\n      pop\n      dup2\n      swap1\n      sstore\n      pop\n        /* \"election.sol\":1821:1822  1 */\n      0x01\n        /* \"election.sol\":1807:1817  totalVotes */\n      0x03\n      0x00\n        /* \"election.sol\":1807:1822  totalVotes += 1 */\n      dup3\n      dup3\n      sload\n      tag_78\n      swap2\n      swap1\n      tag_77\n      jump\t// in\n    tag_78:\n      swap3\n      pop\n      pop\n      dup2\n      swap1\n      sstore\n      pop\n        /* \"election.sol\":1838:1864  Voted(_number, msg.sender) */\n      0x030b0f8dcd86a031eddb071f91882edeac8173663ba775713b677b42b51be44b\n        /* \"election.sol\":1844:1851  _number */\n      dup2\n        /* \"election.sol\":1853:1863  msg.sender */\n      caller\n        /* \"election.sol\":1838:1864  Voted(_number, msg.sender) */\n      mload(0x40)\n      tag_79\n      swap3\n      swap2\n      swap1\n      tag_80\n      jump\t// in\n    tag_79:\n      mload(0x40)\n      dup1\n      swap2\n      sub\n      swap1\n      log1\n        /* \"election.sol\":1317:1871  function vote(uint256 _number) public {... */\n      pop\n      jump\t// out\n        /* \"election.sol\":168:193  uint256 public totalVotes */\n    tag_21:\n      sload(0x03)\n      dup2\n      jump\t// out\n        /* \"election.sol\":282:330  mapping(uint256 => uint256) public numberOfVotes */\n    tag_26:\n      mstore(0x20, 0x06)\n      dup1\n      0x00\n      mstore\n      keccak256(0x00, 0x40)\n      0x00\n      swap2\n      pop\n      swap1\n      pop\n      sload\n      dup2\n      jump\t// out\n        /* \"election.sol\":1877:1964  function stopVote() public onlyOwner {... */\n    tag_29:\n        /* \"election.sol\":546:551  owner */\n      0x01\n      0x00\n      swap1\n      sload\n      swap1\n      0x0100\n      exp\n      swap1\n      div\n      0xffffffffffffffffffffffffffffffffffffffff\n      and\n        /* \"election.sol\":532:551  msg.sender != owner */\n      0xffffffffffffffffffffffffffffffffffffffff\n      and\n        /* \"election.sol\":532:542  msg.sender */\n      caller\n        /* \"election.sol\":532:551  msg.sender != owner */\n      0xffffffffffffffffffffffffffffffffffffffff\n      and\n      eq\n        /* \"election.sol\":528:578  if (msg.sender != owner) revert OnlyOwnerAllowed() */\n      tag_82\n      jumpi\n        /* \"election.sol\":560:578  OnlyOwnerAllowed() */\n      mload(0x40)\n      0x717bf7f800000000000000000000000000000000000000000000000000000000\n      dup2\n      mstore\n      0x04\n      add\n      mload(0x40)\n      dup1\n      swap2\n      sub\n      swap1\n      revert\n        /* \"election.sol\":528:578  if (msg.sender != owner) revert OnlyOwnerAllowed() */\n    tag_82:\n        /* \"election.sol\":1942:1957  block.timestamp */\n      timestamp\n        /* \"election.sol\":1924:1939  electionEndTime */\n      0x04\n        /* \"election.sol\":1924:1957  electionEndTime = block.timestamp */\n      dup2\n      swap1\n      sstore\n      pop\n        /* \"election.sol\":1877:1964  function stopVote() public onlyOwner {... */\n      jump\t// out\n        /* \"election.sol\":1970:2146  function resetMaxVotes(uint256 _newMaxVotes) public onlyOwner {... */\n    tag_32:\n        /* \"election.sol\":546:551  owner */\n      0x01\n      0x00\n      swap1\n      sload\n      swap1\n      0x0100\n      exp\n      swap1\n      div\n      0xffffffffffffffffffffffffffffffffffffffff\n      and\n        /* \"election.sol\":532:551  msg.sender != owner */\n      0xffffffffffffffffffffffffffffffffffffffff\n      and\n        /* \"election.sol\":532:542  msg.sender */\n      caller\n        /* \"election.sol\":532:551  msg.sender != owner */\n      0xffffffffffffffffffffffffffffffffffffffff\n      and\n      eq\n        /* \"election.sol\":528:578  if (msg.sender != owner) revert OnlyOwnerAllowed() */\n      tag_85\n      jumpi\n        /* \"election.sol\":560:578  OnlyOwnerAllowed() */\n      mload(0x40)\n      0x717bf7f800000000000000000000000000000000000000000000000000000000\n      dup2\n      mstore\n      0x04\n      add\n      mload(0x40)\n      dup1\n      swap2\n      sub\n      swap1\n      revert\n        /* \"election.sol\":528:578  if (msg.sender != owner) revert OnlyOwnerAllowed() */\n    tag_85:\n        /* \"election.sol\":2065:2073  maxVotes */\n      sload(0x02)\n        /* \"election.sol\":2050:2062  _newMaxVotes */\n      dup2\n        /* \"election.sol\":2050:2073  _newMaxVotes > maxVotes */\n      gt\n        /* \"election.sol\":2042:2105  require(_newMaxVotes > maxVotes, \"You can't decrease maxVotes\") */\n      tag_87\n      jumpi\n      mload(0x40)\n      0x08c379a000000000000000000000000000000000000000000000000000000000\n      dup2\n      mstore\n      0x04\n      add\n      tag_88\n      swap1\n      tag_89\n      jump\t// in\n    tag_88:\n      mload(0x40)\n      dup1\n      swap2\n      sub\n      swap1\n      revert\n    tag_87:\n        /* \"election.sol\":2127:2139  _newMaxVotes */\n      dup1\n        /* \"election.sol\":2116:2124  maxVotes */\n      0x02\n        /* \"election.sol\":2116:2139  maxVotes = _newMaxVotes */\n      dup2\n      swap1\n      sstore\n      pop\n        /* \"election.sol\":1970:2146  function resetMaxVotes(uint256 _newMaxVotes) public onlyOwner {... */\n      pop\n      jump\t// out\n        /* \"election.sol\":235:276  mapping(address => bool) public userVotes */\n    tag_36:\n      mstore(0x20, 0x05)\n      dup1\n      0x00\n      mstore\n      keccak256(0x00, 0x40)\n      0x00\n      swap2\n      pop\n      sload\n      swap1\n      0x0100\n      exp\n      swap1\n      div\n      0xff\n      and\n      dup2\n      jump\t// out\n        /* \"election.sol\":139:162  uint256 public maxVotes */\n    tag_40:\n      sload(0x02)\n      dup2\n      jump\t// out\n        /* \"election.sol\":843:1311  function voteWinner() public view returns(string memory) {... */\n    tag_43:\n        /* \"election.sol\":885:898  string memory */\n      0x60\n        /* \"election.sol\":910:924  uint256 winner */\n      0x00\n        /* \"election.sol\":938:957  uint256 winnerVotes */\n      dup1\n        /* \"election.sol\":971:984  bool isWinner */\n      0x00\n        /* \"election.sol\":1007:1016  uint256 i */\n      dup1\n        /* \"election.sol\":1002:1232  for (uint256 i = 0; i < electors.length; i++) {... */\n    tag_91:\n        /* \"election.sol\":1026:1034  electors */\n      0x00\n        /* \"election.sol\":1026:1041  electors.length */\n      dup1\n      sload\n      swap1\n      pop\n        /* \"election.sol\":1022:1023  i */\n      dup2\n        /* \"election.sol\":1022:1041  i < electors.length */\n      lt\n        /* \"election.sol\":1002:1232  for (uint256 i = 0; i < electors.length; i++) {... */\n      iszero\n      tag_92\n      jumpi\n        /* \"election.sol\":1085:1096  winnerVotes */\n      dup3\n        /* \"election.sol\":1066:1079  numberOfVotes */\n      0x06\n        /* \"election.sol\":1066:1082  numberOfVotes[i] */\n      0x00\n        /* \"election.sol\":1080:1081  i */\n      dup4\n        /* \"election.sol\":1066:1082  numberOfVotes[i] */\n      dup2\n      mstore\n      0x20\n      add\n      swap1\n      dup2\n      mstore\n      0x20\n      add\n      0x00\n      keccak256\n      sload\n        /* \"election.sol\":1066:1096  numberOfVotes[i] > winnerVotes */\n      gt\n        /* \"election.sol\":1062:1222  if (numberOfVotes[i] > winnerVotes) {... */\n      iszero\n      tag_94\n      jumpi\n        /* \"election.sol\":1125:1126  i */\n      dup1\n        /* \"election.sol\":1116:1126  winner = i */\n      swap4\n      pop\n        /* \"election.sol\":1158:1171  numberOfVotes */\n      0x06\n        /* \"election.sol\":1158:1174  numberOfVotes[i] */\n      0x00\n        /* \"election.sol\":1172:1173  i */\n      dup3\n        /* \"election.sol\":1158:1174  numberOfVotes[i] */\n      dup2\n      mstore\n      0x20\n      add\n      swap1\n      dup2\n      mstore\n      0x20\n      add\n      0x00\n      keccak256\n      sload\n        /* \"election.sol\":1144:1174  winnerVotes = numberOfVotes[i] */\n      swap3\n      pop\n        /* \"election.sol\":1203:1207  true */\n      0x01\n        /* \"election.sol\":1192:1207  isWinner = true */\n      swap2\n      pop\n        /* \"election.sol\":1062:1222  if (numberOfVotes[i] > winnerVotes) {... */\n    tag_94:\n        /* \"election.sol\":1043:1046  i++ */\n      dup1\n      dup1\n      0x01\n      add\n      swap2\n      pop\n      pop\n        /* \"election.sol\":1002:1232  for (uint256 i = 0; i < electors.length; i++) {... */\n      jump(tag_91)\n    tag_92:\n      pop\n        /* \"election.sol\":1246:1254  isWinner */\n      dup1\n        /* \"election.sol\":1242:1279  if (isWinner) return electors[winner] */\n      iszero\n      tag_95\n      jumpi\n        /* \"election.sol\":1263:1271  electors */\n      0x00\n        /* \"election.sol\":1272:1278  winner */\n      dup4\n        /* \"election.sol\":1263:1279  electors[winner] */\n      dup2\n      sload\n      dup2\n      lt\n      tag_96\n      jumpi\n      tag_97\n      tag_98\n      jump\t// in\n    tag_97:\n    tag_96:\n      swap1\n      0x00\n      mstore\n      keccak256(0x00, 0x20)\n      add\n        /* \"election.sol\":1256:1279  return electors[winner] */\n      dup1\n      sload\n      tag_100\n      swap1\n      tag_101\n      jump\t// in\n    tag_100:\n      dup1\n      0x1f\n      add\n      0x20\n      dup1\n      swap2\n      div\n      mul\n      0x20\n      add\n      mload(0x40)\n      swap1\n      dup2\n      add\n      0x40\n      mstore\n      dup1\n      swap3\n      swap2\n      swap1\n      dup2\n      dup2\n      mstore\n      0x20\n      add\n      dup3\n      dup1\n      sload\n      tag_102\n      swap1\n      tag_101\n      jump\t// in\n    tag_102:\n      dup1\n      iszero\n      tag_103\n      jumpi\n      dup1\n      0x1f\n      lt\n      tag_104\n      jumpi\n      0x0100\n      dup1\n      dup4\n      sload\n      div\n      mul\n      dup4\n      mstore\n      swap2\n      0x20\n      add\n      swap2\n      jump(tag_103)\n    tag_104:\n      dup3\n      add\n      swap2\n      swap1\n      0x00\n      mstore\n      keccak256(0x00, 0x20)\n      swap1\n    tag_105:\n      dup2\n      sload\n      dup2\n      mstore\n      swap1\n      0x01\n      add\n      swap1\n      0x20\n      add\n      dup1\n      dup4\n      gt\n      tag_105\n      jumpi\n      dup3\n      swap1\n      sub\n      0x1f\n      and\n      dup3\n      add\n      swap2\n    tag_103:\n      pop\n      pop\n      pop\n      pop\n      pop\n      swap4\n      pop\n      pop\n      pop\n      pop\n      jump(tag_90)\n        /* \"election.sol\":1242:1279  if (isWinner) return electors[winner] */\n    tag_95:\n        /* \"election.sol\":1289:1304  return \"nobody\" */\n      mload(0x40)\n      dup1\n      0x40\n      add\n      0x40\n      mstore\n      dup1\n      0x06\n      dup2\n      mstore\n      0x20\n      add\n      0x6e6f626f64790000000000000000000000000000000000000000000000000000\n      dup2\n      mstore\n      pop\n      swap4\n      pop\n      pop\n      pop\n      pop\n        /* \"election.sol\":843:1311  function voteWinner() public view returns(string memory) {... */\n    tag_90:\n      swap1\n      jump\t// out\n        /* \"election.sol\":113:133  address public owner */\n    tag_47:\n      0x01\n      0x00\n      swap1\n      sload\n      swap1\n      0x0100\n      exp\n      swap1\n      div\n      0xffffffffffffffffffffffffffffffffffffffff\n      and\n      dup2\n      jump\t// out\n        /* \"election.sol\":199:229  uint256 public electionEndTime */\n    tag_51:\n      sload(0x04)\n      dup2\n      jump\t// out\n        /* \"election.sol\":2152:2324  function resetEndTime(uint256 _newEndTime) public onlyOwner {... */\n    tag_55:\n        /* \"election.sol\":546:551  owner */\n      0x01\n      0x00\n      swap1\n      sload\n      swap1\n      0x0100\n      exp\n      swap1\n      div\n      0xffffffffffffffffffffffffffffffffffffffff\n      and\n        /* \"election.sol\":532:551  msg.sender != owner */\n      0xffffffffffffffffffffffffffffffffffffffff\n      and\n        /* \"election.sol\":532:542  msg.sender */\n      caller\n        /* \"election.sol\":532:551  msg.sender != owner */\n      0xffffffffffffffffffffffffffffffffffffffff\n      and\n      eq\n        /* \"election.sol\":528:578  if (msg.sender != owner) revert OnlyOwnerAllowed() */\n      tag_107\n      jumpi\n        /* \"election.sol\":560:578  OnlyOwnerAllowed() */\n      mload(0x40)\n      0x717bf7f800000000000000000000000000000000000000000000000000000000\n      dup2\n      mstore\n      0x04\n      add\n      mload(0x40)\n      dup1\n      swap2\n      sub\n      swap1\n      revert\n        /* \"election.sol\":528:578  if (msg.sender != owner) revert OnlyOwnerAllowed() */\n    tag_107:\n        /* \"election.sol\":2244:2259  electionEndTime */\n      sload(0x04)\n        /* \"election.sol\":2230:2241  _newEndTime */\n      dup2\n        /* \"election.sol\":2230:2259  _newEndTime > electionEndTime */\n      gt\n        /* \"election.sol\":2222:2277  require(_newEndTime > electionEndTime, \"Must be later\") */\n      tag_109\n      jumpi\n      mload(0x40)\n      0x08c379a000000000000000000000000000000000000000000000000000000000\n      dup2\n      mstore\n      0x04\n      add\n      tag_110\n      swap1\n      tag_111\n      jump\t// in\n    tag_110:\n      mload(0x40)\n      dup1\n      swap2\n      sub\n      swap1\n      revert\n    tag_109:\n        /* \"election.sol\":2306:2317  _newEndTime */\n      dup1\n        /* \"election.sol\":2288:2303  electionEndTime */\n      0x04\n        /* \"election.sol\":2288:2317  electionEndTime = _newEndTime */\n      dup2\n      swap1\n      sstore\n      pop\n        /* \"election.sol\":2152:2324  function resetEndTime(uint256 _newEndTime) public onlyOwner {... */\n      pop\n      jump\t// out\n        /* \"election.sol\":83:107  string[] public electors */\n    tag_58:\n      0x00\n      dup2\n      dup2\n      sload\n      dup2\n      lt\n      tag_112\n      jumpi\n      0x00\n      dup1\n      revert\n    tag_112:\n      swap1\n      0x00\n      mstore\n      keccak256(0x00, 0x20)\n      add\n      0x00\n      swap2\n      pop\n      swap1\n      pop\n      dup1\n      sload\n      tag_114\n      swap1\n      tag_101\n      jump\t// in\n    tag_114:\n      dup1\n      0x1f\n      add\n      0x20\n      dup1\n      swap2\n      div\n      mul\n      0x20\n      add\n      mload(0x40)\n      swap1\n      dup2\n      add\n      0x40\n      mstore\n      dup1\n      swap3\n      swap2\n      swap1\n      dup2\n      dup2\n      mstore\n      0x20\n      add\n      dup3\n      dup1\n      sload\n      tag_115\n      swap1\n      tag_101\n      jump\t// in\n    tag_115:\n      dup1\n      iszero\n      tag_116\n      jumpi\n      dup1\n      0x1f\n      lt\n      tag_117\n      jumpi\n      0x0100\n      dup1\n      dup4\n      sload\n      div\n      mul\n      dup4\n      mstore\n      swap2\n      0x20\n      add\n      swap2\n      jump(tag_116)\n    tag_117:\n      dup3\n      add\n      swap2\n      swap1\n      0x00\n      mstore\n      keccak256(0x00, 0x20)\n      swap1\n    tag_118:\n      dup2\n      sload\n      dup2\n      mstore\n      swap1\n      0x01\n      add\n      swap1\n      0x20\n      add\n      dup1\n      dup4\n      gt\n      tag_118\n      jumpi\n      dup3\n      swap1\n      sub\n      0x1f\n      and\n      dup3\n      add\n      swap2\n    tag_116:\n      pop\n      pop\n      pop\n      pop\n      pop\n      dup2\n      jump\t// out\n        /* \"#utility.yul\":88:205   */\n    tag_120:\n        /* \"#utility.yul\":197:198   */\n      0x00\n        /* \"#utility.yul\":194:195   */\n      dup1\n        /* \"#utility.yul\":187:199   */\n      revert\n        /* \"#utility.yul\":334:411   */\n    tag_122:\n        /* \"#utility.yul\":371:378   */\n      0x00\n        /* \"#utility.yul\":400:405   */\n      dup2\n        /* \"#utility.yul\":389:405   */\n      swap1\n      pop\n        /* \"#utility.yul\":334:411   */\n      swap2\n      swap1\n      pop\n      jump\t// out\n        /* \"#utility.yul\":417:539   */\n    tag_123:\n        /* \"#utility.yul\":490:514   */\n      tag_158\n        /* \"#utility.yul\":508:513   */\n      dup2\n        /* \"#utility.yul\":490:514   */\n      tag_122\n      jump\t// in\n    tag_158:\n        /* \"#utility.yul\":483:488   */\n      dup2\n        /* \"#utility.yul\":480:515   */\n      eq\n        /* \"#utility.yul\":470:533   */\n      tag_159\n      jumpi\n        /* \"#utility.yul\":529:530   */\n      0x00\n        /* \"#utility.yul\":526:527   */\n      dup1\n        /* \"#utility.yul\":519:531   */\n      revert\n        /* \"#utility.yul\":470:533   */\n    tag_159:\n        /* \"#utility.yul\":417:539   */\n      pop\n      jump\t// out\n        /* \"#utility.yul\":545:684   */\n    tag_124:\n        /* \"#utility.yul\":591:596   */\n      0x00\n        /* \"#utility.yul\":629:635   */\n      dup2\n        /* \"#utility.yul\":616:636   */\n      calldataload\n        /* \"#utility.yul\":607:636   */\n      swap1\n      pop\n        /* \"#utility.yul\":645:678   */\n      tag_161\n        /* \"#utility.yul\":672:677   */\n      dup2\n        /* \"#utility.yul\":645:678   */\n      tag_123\n      jump\t// in\n    tag_161:\n        /* \"#utility.yul\":545:684   */\n      swap3\n      swap2\n      pop\n      pop\n      jump\t// out\n        /* \"#utility.yul\":690:1019   */\n    tag_18:\n        /* \"#utility.yul\":749:755   */\n      0x00\n        /* \"#utility.yul\":798:800   */\n      0x20\n        /* \"#utility.yul\":786:795   */\n      dup3\n        /* \"#utility.yul\":777:784   */\n      dup5\n        /* \"#utility.yul\":773:796   */\n      sub\n        /* \"#utility.yul\":769:801   */\n      slt\n        /* \"#utility.yul\":766:885   */\n      iszero\n      tag_163\n      jumpi\n        /* \"#utility.yul\":804:883   */\n      tag_164\n      tag_120\n      jump\t// in\n    tag_164:\n        /* \"#utility.yul\":766:885   */\n    tag_163:\n        /* \"#utility.yul\":924:925   */\n      0x00\n        /* \"#utility.yul\":949:1002   */\n      tag_165\n        /* \"#utility.yul\":994:1001   */\n      dup5\n        /* \"#utility.yul\":985:991   */\n      dup3\n        /* \"#utility.yul\":974:983   */\n      dup6\n        /* \"#utility.yul\":970:992   */\n      add\n        /* \"#utility.yul\":949:1002   */\n      tag_124\n      jump\t// in\n    tag_165:\n        /* \"#utility.yul\":939:1002   */\n      swap2\n      pop\n        /* \"#utility.yul\":895:1012   */\n      pop\n        /* \"#utility.yul\":690:1019   */\n      swap3\n      swap2\n      pop\n      pop\n      jump\t// out\n        /* \"#utility.yul\":1025:1143   */\n    tag_125:\n        /* \"#utility.yul\":1112:1136   */\n      tag_167\n        /* \"#utility.yul\":1130:1135   */\n      dup2\n        /* \"#utility.yul\":1112:1136   */\n      tag_122\n      jump\t// in\n    tag_167:\n        /* \"#utility.yul\":1107:1110   */\n      dup3\n        /* \"#utility.yul\":1100:1137   */\n      mstore\n        /* \"#utility.yul\":1025:1143   */\n      pop\n      pop\n      jump\t// out\n        /* \"#utility.yul\":1149:1371   */\n    tag_23:\n        /* \"#utility.yul\":1242:1246   */\n      0x00\n        /* \"#utility.yul\":1280:1282   */\n      0x20\n        /* \"#utility.yul\":1269:1278   */\n      dup3\n        /* \"#utility.yul\":1265:1283   */\n      add\n        /* \"#utility.yul\":1257:1283   */\n      swap1\n      pop\n        /* \"#utility.yul\":1293:1364   */\n      tag_169\n        /* \"#utility.yul\":1361:1362   */\n      0x00\n        /* \"#utility.yul\":1350:1359   */\n      dup4\n        /* \"#utility.yul\":1346:1363   */\n      add\n        /* \"#utility.yul\":1337:1343   */\n      dup5\n        /* \"#utility.yul\":1293:1364   */\n      tag_125\n      jump\t// in\n    tag_169:\n        /* \"#utility.yul\":1149:1371   */\n      swap3\n      swap2\n      pop\n      pop\n      jump\t// out\n        /* \"#utility.yul\":1377:1503   */\n    tag_126:\n        /* \"#utility.yul\":1414:1421   */\n      0x00\n        /* \"#utility.yul\":1454:1496   */\n      0xffffffffffffffffffffffffffffffffffffffff\n        /* \"#utility.yul\":1447:1452   */\n      dup3\n        /* \"#utility.yul\":1443:1497   */\n      and\n        /* \"#utility.yul\":1432:1497   */\n      swap1\n      pop\n        /* \"#utility.yul\":1377:1503   */\n      swap2\n      swap1\n      pop\n      jump\t// out\n        /* \"#utility.yul\":1509:1605   */\n    tag_127:\n        /* \"#utility.yul\":1546:1553   */\n      0x00\n        /* \"#utility.yul\":1575:1599   */\n      tag_172\n        /* \"#utility.yul\":1593:1598   */\n      dup3\n        /* \"#utility.yul\":1575:1599   */\n      tag_126\n      jump\t// in\n    tag_172:\n        /* \"#utility.yul\":1564:1599   */\n      swap1\n      pop\n        /* \"#utility.yul\":1509:1605   */\n      swap2\n      swap1\n      pop\n      jump\t// out\n        /* \"#utility.yul\":1611:1733   */\n    tag_128:\n        /* \"#utility.yul\":1684:1708   */\n      tag_174\n        /* \"#utility.yul\":1702:1707   */\n      dup2\n        /* \"#utility.yul\":1684:1708   */\n      tag_127\n      jump\t// in\n    tag_174:\n        /* \"#utility.yul\":1677:1682   */\n      dup2\n        /* \"#utility.yul\":1674:1709   */\n      eq\n        /* \"#utility.yul\":1664:1727   */\n      tag_175\n      jumpi\n        /* \"#utility.yul\":1723:1724   */\n      0x00\n        /* \"#utility.yul\":1720:1721   */\n      dup1\n        /* \"#utility.yul\":1713:1725   */\n      revert\n        /* \"#utility.yul\":1664:1727   */\n    tag_175:\n        /* \"#utility.yul\":1611:1733   */\n      pop\n      jump\t// out\n        /* \"#utility.yul\":1739:1878   */\n    tag_129:\n        /* \"#utility.yul\":1785:1790   */\n      0x00\n        /* \"#utility.yul\":1823:1829   */\n      dup2\n        /* \"#utility.yul\":1810:1830   */\n      calldataload\n        /* \"#utility.yul\":1801:1830   */\n      swap1\n      pop\n        /* \"#utility.yul\":1839:1872   */\n      tag_177\n        /* \"#utility.yul\":1866:1871   */\n      dup2\n        /* \"#utility.yul\":1839:1872   */\n      tag_128\n      jump\t// in\n    tag_177:\n        /* \"#utility.yul\":1739:1878   */\n      swap3\n      swap2\n      pop\n      pop\n      jump\t// out\n        /* \"#utility.yul\":1884:2213   */\n    tag_35:\n        /* \"#utility.yul\":1943:1949   */\n      0x00\n        /* \"#utility.yul\":1992:1994   */\n      0x20\n        /* \"#utility.yul\":1980:1989   */\n      dup3\n        /* \"#utility.yul\":1971:1978   */\n      dup5\n        /* \"#utility.yul\":1967:1990   */\n      sub\n        /* \"#utility.yul\":1963:1995   */\n      slt\n        /* \"#utility.yul\":1960:2079   */\n      iszero\n      tag_179\n      jumpi\n        /* \"#utility.yul\":1998:2077   */\n      tag_180\n      tag_120\n      jump\t// in\n    tag_180:\n        /* \"#utility.yul\":1960:2079   */\n    tag_179:\n        /* \"#utility.yul\":2118:2119   */\n      0x00\n        /* \"#utility.yul\":2143:2196   */\n      tag_181\n        /* \"#utility.yul\":2188:2195   */\n      dup5\n        /* \"#utility.yul\":2179:2185   */\n      dup3\n        /* \"#utility.yul\":2168:2177   */\n      dup6\n        /* \"#utility.yul\":2164:2186   */\n      add\n        /* \"#utility.yul\":2143:2196   */\n      tag_129\n      jump\t// in\n    tag_181:\n        /* \"#utility.yul\":2133:2196   */\n      swap2\n      pop\n        /* \"#utility.yul\":2089:2206   */\n      pop\n        /* \"#utility.yul\":1884:2213   */\n      swap3\n      swap2\n      pop\n      pop\n      jump\t// out\n        /* \"#utility.yul\":2219:2309   */\n    tag_130:\n        /* \"#utility.yul\":2253:2260   */\n      0x00\n        /* \"#utility.yul\":2296:2301   */\n      dup2\n        /* \"#utility.yul\":2289:2302   */\n      iszero\n        /* \"#utility.yul\":2282:2303   */\n      iszero\n        /* \"#utility.yul\":2271:2303   */\n      swap1\n      pop\n        /* \"#utility.yul\":2219:2309   */\n      swap2\n      swap1\n      pop\n      jump\t// out\n        /* \"#utility.yul\":2315:2424   */\n    tag_131:\n        /* \"#utility.yul\":2396:2417   */\n      tag_184\n        /* \"#utility.yul\":2411:2416   */\n      dup2\n        /* \"#utility.yul\":2396:2417   */\n      tag_130\n      jump\t// in\n    tag_184:\n        /* \"#utility.yul\":2391:2394   */\n      dup3\n        /* \"#utility.yul\":2384:2418   */\n      mstore\n        /* \"#utility.yul\":2315:2424   */\n      pop\n      pop\n      jump\t// out\n        /* \"#utility.yul\":2430:2640   */\n    tag_38:\n        /* \"#utility.yul\":2517:2521   */\n      0x00\n        /* \"#utility.yul\":2555:2557   */\n      0x20\n        /* \"#utility.yul\":2544:2553   */\n      dup3\n        /* \"#utility.yul\":2540:2558   */\n      add\n        /* \"#utility.yul\":2532:2558   */\n      swap1\n      pop\n        /* \"#utility.yul\":2568:2633   */\n      tag_186\n        /* \"#utility.yul\":2630:2631   */\n      0x00\n        /* \"#utility.yul\":2619:2628   */\n      dup4\n        /* \"#utility.yul\":2615:2632   */\n      add\n        /* \"#utility.yul\":2606:2612   */\n      dup5\n        /* \"#utility.yul\":2568:2633   */\n      tag_131\n      jump\t// in\n    tag_186:\n        /* \"#utility.yul\":2430:2640   */\n      swap3\n      swap2\n      pop\n      pop\n      jump\t// out\n        /* \"#utility.yul\":2646:2745   */\n    tag_132:\n        /* \"#utility.yul\":2698:2704   */\n      0x00\n        /* \"#utility.yul\":2732:2737   */\n      dup2\n        /* \"#utility.yul\":2726:2738   */\n      mload\n        /* \"#utility.yul\":2716:2738   */\n      swap1\n      pop\n        /* \"#utility.yul\":2646:2745   */\n      swap2\n      swap1\n      pop\n      jump\t// out\n        /* \"#utility.yul\":2751:2920   */\n    tag_133:\n        /* \"#utility.yul\":2835:2846   */\n      0x00\n        /* \"#utility.yul\":2869:2875   */\n      dup3\n        /* \"#utility.yul\":2864:2867   */\n      dup3\n        /* \"#utility.yul\":2857:2876   */\n      mstore\n        /* \"#utility.yul\":2909:2913   */\n      0x20\n        /* \"#utility.yul\":2904:2907   */\n      dup3\n        /* \"#utility.yul\":2900:2914   */\n      add\n        /* \"#utility.yul\":2885:2914   */\n      swap1\n      pop\n        /* \"#utility.yul\":2751:2920   */\n      swap3\n      swap2\n      pop\n      pop\n      jump\t// out\n        /* \"#utility.yul\":2926:3065   */\n    tag_134:\n        /* \"#utility.yul\":3015:3021   */\n      dup3\n        /* \"#utility.yul\":3010:3013   */\n      dup2\n        /* \"#utility.yul\":3005:3008   */\n      dup4\n        /* \"#utility.yul\":2999:3022   */\n      mcopy\n        /* \"#utility.yul\":3056:3057   */\n      0x00\n        /* \"#utility.yul\":3047:3053   */\n      dup4\n        /* \"#utility.yul\":3042:3045   */\n      dup4\n        /* \"#utility.yul\":3038:3054   */\n      add\n        /* \"#utility.yul\":3031:3058   */\n      mstore\n        /* \"#utility.yul\":2926:3065   */\n      pop\n      pop\n      pop\n      jump\t// out\n        /* \"#utility.yul\":3071:3173   */\n    tag_135:\n        /* \"#utility.yul\":3112:3118   */\n      0x00\n        /* \"#utility.yul\":3163:3165   */\n      0x1f\n        /* \"#utility.yul\":3159:3166   */\n      not\n        /* \"#utility.yul\":3154:3156   */\n      0x1f\n        /* \"#utility.yul\":3147:3152   */\n      dup4\n        /* \"#utility.yul\":3143:3157   */\n      add\n        /* \"#utility.yul\":3139:3167   */\n      and\n        /* \"#utility.yul\":3129:3167   */\n      swap1\n      pop\n        /* \"#utility.yul\":3071:3173   */\n      swap2\n      swap1\n      pop\n      jump\t// out\n        /* \"#utility.yul\":3179:3556   */\n    tag_136:\n        /* \"#utility.yul\":3267:3270   */\n      0x00\n        /* \"#utility.yul\":3295:3334   */\n      tag_192\n        /* \"#utility.yul\":3328:3333   */\n      dup3\n        /* \"#utility.yul\":3295:3334   */\n      tag_132\n      jump\t// in\n    tag_192:\n        /* \"#utility.yul\":3350:3421   */\n      tag_193\n        /* \"#utility.yul\":3414:3420   */\n      dup2\n        /* \"#utility.yul\":3409:3412   */\n      dup6\n        /* \"#utility.yul\":3350:3421   */\n      tag_133\n      jump\t// in\n    tag_193:\n        /* \"#utility.yul\":3343:3421   */\n      swap4\n      pop\n        /* \"#utility.yul\":3430:3495   */\n      tag_194\n        /* \"#utility.yul\":3488:3494   */\n      dup2\n        /* \"#utility.yul\":3483:3486   */\n      dup6\n        /* \"#utility.yul\":3476:3480   */\n      0x20\n        /* \"#utility.yul\":3469:3474   */\n      dup7\n        /* \"#utility.yul\":3465:3481   */\n      add\n        /* \"#utility.yul\":3430:3495   */\n      tag_134\n      jump\t// in\n    tag_194:\n        /* \"#utility.yul\":3520:3549   */\n      tag_195\n        /* \"#utility.yul\":3542:3548   */\n      dup2\n        /* \"#utility.yul\":3520:3549   */\n      tag_135\n      jump\t// in\n    tag_195:\n        /* \"#utility.yul\":3515:3518   */\n      dup5\n        /* \"#utility.yul\":3511:3550   */\n      add\n        /* \"#utility.yul\":3504:3550   */\n      swap2\n      pop\n        /* \"#utility.yul\":3271:3556   */\n      pop\n        /* \"#utility.yul\":3179:3556   */\n      swap3\n      swap2\n      pop\n      pop\n      jump\t// out\n        /* \"#utility.yul\":3562:3875   */\n    tag_45:\n        /* \"#utility.yul\":3675:3679   */\n      0x00\n        /* \"#utility.yul\":3713:3715   */\n      0x20\n        /* \"#utility.yul\":3702:3711   */\n      dup3\n        /* \"#utility.yul\":3698:3716   */\n      add\n        /* \"#utility.yul\":3690:3716   */\n      swap1\n      pop\n        /* \"#utility.yul\":3762:3771   */\n      dup2\n        /* \"#utility.yul\":3756:3760   */\n      dup2\n        /* \"#utility.yul\":3752:3772   */\n      sub\n        /* \"#utility.yul\":3748:3749   */\n      0x00\n        /* \"#utility.yul\":3737:3746   */\n      dup4\n        /* \"#utility.yul\":3733:3750   */\n      add\n        /* \"#utility.yul\":3726:3773   */\n      mstore\n        /* \"#utility.yul\":3790:3868   */\n      tag_197\n        /* \"#utility.yul\":3863:3867   */\n      dup2\n        /* \"#utility.yul\":3854:3860   */\n      dup5\n        /* \"#utility.yul\":3790:3868   */\n      tag_136\n      jump\t// in\n    tag_197:\n        /* \"#utility.yul\":3782:3868   */\n      swap1\n      pop\n        /* \"#utility.yul\":3562:3875   */\n      swap3\n      swap2\n      pop\n      pop\n      jump\t// out\n        /* \"#utility.yul\":3881:3999   */\n    tag_137:\n        /* \"#utility.yul\":3968:3992   */\n      tag_199\n        /* \"#utility.yul\":3986:3991   */\n      dup2\n        /* \"#utility.yul\":3968:3992   */\n      tag_127\n      jump\t// in\n    tag_199:\n        /* \"#utility.yul\":3963:3966   */\n      dup3\n        /* \"#utility.yul\":3956:3993   */\n      mstore\n        /* \"#utility.yul\":3881:3999   */\n      pop\n      pop\n      jump\t// out\n        /* \"#utility.yul\":4005:4227   */\n    tag_49:\n        /* \"#utility.yul\":4098:4102   */\n      0x00\n        /* \"#utility.yul\":4136:4138   */\n      0x20\n        /* \"#utility.yul\":4125:4134   */\n      dup3\n        /* \"#utility.yul\":4121:4139   */\n      add\n        /* \"#utility.yul\":4113:4139   */\n      swap1\n      pop\n        /* \"#utility.yul\":4149:4220   */\n      tag_201\n        /* \"#utility.yul\":4217:4218   */\n      0x00\n        /* \"#utility.yul\":4206:4215   */\n      dup4\n        /* \"#utility.yul\":4202:4219   */\n      add\n        /* \"#utility.yul\":4193:4199   */\n      dup5\n        /* \"#utility.yul\":4149:4220   */\n      tag_137\n      jump\t// in\n    tag_201:\n        /* \"#utility.yul\":4005:4227   */\n      swap3\n      swap2\n      pop\n      pop\n      jump\t// out\n        /* \"#utility.yul\":4233:4406   */\n    tag_138:\n        /* \"#utility.yul\":4373:4398   */\n      0x596f757220616464726573732063616e277420766f7465000000000000000000\n        /* \"#utility.yul\":4369:4370   */\n      0x00\n        /* \"#utility.yul\":4361:4367   */\n      dup3\n        /* \"#utility.yul\":4357:4371   */\n      add\n        /* \"#utility.yul\":4350:4399   */\n      mstore\n        /* \"#utility.yul\":4233:4406   */\n      pop\n      jump\t// out\n        /* \"#utility.yul\":4412:4778   */\n    tag_139:\n        /* \"#utility.yul\":4554:4557   */\n      0x00\n        /* \"#utility.yul\":4575:4642   */\n      tag_204\n        /* \"#utility.yul\":4639:4641   */\n      0x17\n        /* \"#utility.yul\":4634:4637   */\n      dup4\n        /* \"#utility.yul\":4575:4642   */\n      tag_133\n      jump\t// in\n    tag_204:\n        /* \"#utility.yul\":4568:4642   */\n      swap2\n      pop\n        /* \"#utility.yul\":4651:4744   */\n      tag_205\n        /* \"#utility.yul\":4740:4743   */\n      dup3\n        /* \"#utility.yul\":4651:4744   */\n      tag_138\n      jump\t// in\n    tag_205:\n        /* \"#utility.yul\":4769:4771   */\n      0x20\n        /* \"#utility.yul\":4764:4767   */\n      dup3\n        /* \"#utility.yul\":4760:4772   */\n      add\n        /* \"#utility.yul\":4753:4772   */\n      swap1\n      pop\n        /* \"#utility.yul\":4412:4778   */\n      swap2\n      swap1\n      pop\n      jump\t// out\n        /* \"#utility.yul\":4784:5203   */\n    tag_63:\n        /* \"#utility.yul\":4950:4954   */\n      0x00\n        /* \"#utility.yul\":4988:4990   */\n      0x20\n        /* \"#utility.yul\":4977:4986   */\n      dup3\n        /* \"#utility.yul\":4973:4991   */\n      add\n        /* \"#utility.yul\":4965:4991   */\n      swap1\n      pop\n        /* \"#utility.yul\":5037:5046   */\n      dup2\n        /* \"#utility.yul\":5031:5035   */\n      dup2\n        /* \"#utility.yul\":5027:5047   */\n      sub\n        /* \"#utility.yul\":5023:5024   */\n      0x00\n        /* \"#utility.yul\":5012:5021   */\n      dup4\n        /* \"#utility.yul\":5008:5025   */\n      add\n        /* \"#utility.yul\":5001:5048   */\n      mstore\n        /* \"#utility.yul\":5065:5196   */\n      tag_207\n        /* \"#utility.yul\":5191:5195   */\n      dup2\n        /* \"#utility.yul\":5065:5196   */\n      tag_139\n      jump\t// in\n    tag_207:\n        /* \"#utility.yul\":5057:5196   */\n      swap1\n      pop\n        /* \"#utility.yul\":4784:5203   */\n      swap2\n      swap1\n      pop\n      jump\t// out\n        /* \"#utility.yul\":5209:5541   */\n    tag_66:\n        /* \"#utility.yul\":5330:5334   */\n      0x00\n        /* \"#utility.yul\":5368:5370   */\n      0x40\n        /* \"#utility.yul\":5357:5366   */\n      dup3\n        /* \"#utility.yul\":5353:5371   */\n      add\n        /* \"#utility.yul\":5345:5371   */\n      swap1\n      pop\n        /* \"#utility.yul\":5381:5452   */\n      tag_209\n        /* \"#utility.yul\":5449:5450   */\n      0x00\n        /* \"#utility.yul\":5438:5447   */\n      dup4\n        /* \"#utility.yul\":5434:5451   */\n      add\n        /* \"#utility.yul\":5425:5431   */\n      dup6\n        /* \"#utility.yul\":5381:5452   */\n      tag_125\n      jump\t// in\n    tag_209:\n        /* \"#utility.yul\":5462:5534   */\n      tag_210\n        /* \"#utility.yul\":5530:5532   */\n      0x20\n        /* \"#utility.yul\":5519:5528   */\n      dup4\n        /* \"#utility.yul\":5515:5533   */\n      add\n        /* \"#utility.yul\":5506:5512   */\n      dup5\n        /* \"#utility.yul\":5462:5534   */\n      tag_125\n      jump\t// in\n    tag_210:\n        /* \"#utility.yul\":5209:5541   */\n      swap4\n      swap3\n      pop\n      pop\n      pop\n      jump\t// out\n        /* \"#utility.yul\":5547:5723   */\n    tag_140:\n        /* \"#utility.yul\":5687:5715   */\n      0x4d617820766f74657320686173206265656e2072656163686564000000000000\n        /* \"#utility.yul\":5683:5684   */\n      0x00\n        /* \"#utility.yul\":5675:5681   */\n      dup3\n        /* \"#utility.yul\":5671:5685   */\n      add\n        /* \"#utility.yul\":5664:5716   */\n      mstore\n        /* \"#utility.yul\":5547:5723   */\n      pop\n      jump\t// out\n        /* \"#utility.yul\":5729:6095   */\n    tag_141:\n        /* \"#utility.yul\":5871:5874   */\n      0x00\n        /* \"#utility.yul\":5892:5959   */\n      tag_213\n        /* \"#utility.yul\":5956:5958   */\n      0x1a\n        /* \"#utility.yul\":5951:5954   */\n      dup4\n        /* \"#utility.yul\":5892:5959   */\n      tag_133\n      jump\t// in\n    tag_213:\n        /* \"#utility.yul\":5885:5959   */\n      swap2\n      pop\n        /* \"#utility.yul\":5968:6061   */\n      tag_214\n        /* \"#utility.yul\":6057:6060   */\n      dup3\n        /* \"#utility.yul\":5968:6061   */\n      tag_140\n      jump\t// in\n    tag_214:\n        /* \"#utility.yul\":6086:6088   */\n      0x20\n        /* \"#utility.yul\":6081:6084   */\n      dup3\n        /* \"#utility.yul\":6077:6089   */\n      add\n        /* \"#utility.yul\":6070:6089   */\n      swap1\n      pop\n        /* \"#utility.yul\":5729:6095   */\n      swap2\n      swap1\n      pop\n      jump\t// out\n        /* \"#utility.yul\":6101:6520   */\n    tag_69:\n        /* \"#utility.yul\":6267:6271   */\n      0x00\n        /* \"#utility.yul\":6305:6307   */\n      0x20\n        /* \"#utility.yul\":6294:6303   */\n      dup3\n        /* \"#utility.yul\":6290:6308   */\n      add\n        /* \"#utility.yul\":6282:6308   */\n      swap1\n      pop\n        /* \"#utility.yul\":6354:6363   */\n      dup2\n        /* \"#utility.yul\":6348:6352   */\n      dup2\n        /* \"#utility.yul\":6344:6364   */\n      sub\n        /* \"#utility.yul\":6340:6341   */\n      0x00\n        /* \"#utility.yul\":6329:6338   */\n      dup4\n        /* \"#utility.yul\":6325:6342   */\n      add\n        /* \"#utility.yul\":6318:6365   */\n      mstore\n        /* \"#utility.yul\":6382:6513   */\n      tag_216\n        /* \"#utility.yul\":6508:6512   */\n      dup2\n        /* \"#utility.yul\":6382:6513   */\n      tag_141\n      jump\t// in\n    tag_216:\n        /* \"#utility.yul\":6374:6513   */\n      swap1\n      pop\n        /* \"#utility.yul\":6101:6520   */\n      swap2\n      swap1\n      pop\n      jump\t// out\n        /* \"#utility.yul\":6526:6692   */\n    tag_142:\n        /* \"#utility.yul\":6666:6684   */\n      0x4f776e65722063616e277420766f746500000000000000000000000000000000\n        /* \"#utility.yul\":6662:6663   */\n      0x00\n        /* \"#utility.yul\":6654:6660   */\n      dup3\n        /* \"#utility.yul\":6650:6664   */\n      add\n        /* \"#utility.yul\":6643:6685   */\n      mstore\n        /* \"#utility.yul\":6526:6692   */\n      pop\n      jump\t// out\n        /* \"#utility.yul\":6698:7064   */\n    tag_143:\n        /* \"#utility.yul\":6840:6843   */\n      0x00\n        /* \"#utility.yul\":6861:6928   */\n      tag_219\n        /* \"#utility.yul\":6925:6927   */\n      0x10\n        /* \"#utility.yul\":6920:6923   */\n      dup4\n        /* \"#utility.yul\":6861:6928   */\n      tag_133\n      jump\t// in\n    tag_219:\n        /* \"#utility.yul\":6854:6928   */\n      swap2\n      pop\n        /* \"#utility.yul\":6937:7030   */\n      tag_220\n        /* \"#utility.yul\":7026:7029   */\n      dup3\n        /* \"#utility.yul\":6937:7030   */\n      tag_142\n      jump\t// in\n    tag_220:\n        /* \"#utility.yul\":7055:7057   */\n      0x20\n        /* \"#utility.yul\":7050:7053   */\n      dup3\n        /* \"#utility.yul\":7046:7058   */\n      add\n        /* \"#utility.yul\":7039:7058   */\n      swap1\n      pop\n        /* \"#utility.yul\":6698:7064   */\n      swap2\n      swap1\n      pop\n      jump\t// out\n        /* \"#utility.yul\":7070:7489   */\n    tag_72:\n        /* \"#utility.yul\":7236:7240   */\n      0x00\n        /* \"#utility.yul\":7274:7276   */\n      0x20\n        /* \"#utility.yul\":7263:7272   */\n      dup3\n        /* \"#utility.yul\":7259:7277   */\n      add\n        /* \"#utility.yul\":7251:7277   */\n      swap1\n      pop\n        /* \"#utility.yul\":7323:7332   */\n      dup2\n        /* \"#utility.yul\":7317:7321   */\n      dup2\n        /* \"#utility.yul\":7313:7333   */\n      sub\n        /* \"#utility.yul\":7309:7310   */\n      0x00\n        /* \"#utility.yul\":7298:7307   */\n      dup4\n        /* \"#utility.yul\":7294:7311   */\n      add\n        /* \"#utility.yul\":7287:7334   */\n      mstore\n        /* \"#utility.yul\":7351:7482   */\n      tag_222\n        /* \"#utility.yul\":7477:7481   */\n      dup2\n        /* \"#utility.yul\":7351:7482   */\n      tag_143\n      jump\t// in\n    tag_222:\n        /* \"#utility.yul\":7343:7482   */\n      swap1\n      pop\n        /* \"#utility.yul\":7070:7489   */\n      swap2\n      swap1\n      pop\n      jump\t// out\n        /* \"#utility.yul\":7495:7659   */\n    tag_144:\n        /* \"#utility.yul\":7635:7651   */\n      0x566f74696e67206973206f766572000000000000000000000000000000000000\n        /* \"#utility.yul\":7631:7632   */\n      0x00\n        /* \"#utility.yul\":7623:7629   */\n      dup3\n        /* \"#utility.yul\":7619:7633   */\n      add\n        /* \"#utility.yul\":7612:7652   */\n      mstore\n        /* \"#utility.yul\":7495:7659   */\n      pop\n      jump\t// out\n        /* \"#utility.yul\":7665:8031   */\n    tag_145:\n        /* \"#utility.yul\":7807:7810   */\n      0x00\n        /* \"#utility.yul\":7828:7895   */\n      tag_225\n        /* \"#utility.yul\":7892:7894   */\n      0x0e\n        /* \"#utility.yul\":7887:7890   */\n      dup4\n        /* \"#utility.yul\":7828:7895   */\n      tag_133\n      jump\t// in\n    tag_225:\n        /* \"#utility.yul\":7821:7895   */\n      swap2\n      pop\n        /* \"#utility.yul\":7904:7997   */\n      tag_226\n        /* \"#utility.yul\":7993:7996   */\n      dup3\n        /* \"#utility.yul\":7904:7997   */\n      tag_144\n      jump\t// in\n    tag_226:\n        /* \"#utility.yul\":8022:8024   */\n      0x20\n        /* \"#utility.yul\":8017:8020   */\n      dup3\n        /* \"#utility.yul\":8013:8025   */\n      add\n        /* \"#utility.yul\":8006:8025   */\n      swap1\n      pop\n        /* \"#utility.yul\":7665:8031   */\n      swap2\n      swap1\n      pop\n      jump\t// out\n        /* \"#utility.yul\":8037:8456   */\n    tag_75:\n        /* \"#utility.yul\":8203:8207   */\n      0x00\n        /* \"#utility.yul\":8241:8243   */\n      0x20\n        /* \"#utility.yul\":8230:8239   */\n      dup3\n        /* \"#utility.yul\":8226:8244   */\n      add\n        /* \"#utility.yul\":8218:8244   */\n      swap1\n      pop\n        /* \"#utility.yul\":8290:8299   */\n      dup2\n        /* \"#utility.yul\":8284:8288   */\n      dup2\n        /* \"#utility.yul\":8280:8300   */\n      sub\n        /* \"#utility.yul\":8276:8277   */\n      0x00\n        /* \"#utility.yul\":8265:8274   */\n      dup4\n        /* \"#utility.yul\":8261:8278   */\n      add\n        /* \"#utility.yul\":8254:8301   */\n      mstore\n        /* \"#utility.yul\":8318:8449   */\n      tag_228\n        /* \"#utility.yul\":8444:8448   */\n      dup2\n        /* \"#utility.yul\":8318:8449   */\n      tag_145\n      jump\t// in\n    tag_228:\n        /* \"#utility.yul\":8310:8449   */\n      swap1\n      pop\n        /* \"#utility.yul\":8037:8456   */\n      swap2\n      swap1\n      pop\n      jump\t// out\n        /* \"#utility.yul\":8462:8642   */\n    tag_146:\n        /* \"#utility.yul\":8510:8587   */\n      0x4e487b7100000000000000000000000000000000000000000000000000000000\n        /* \"#utility.yul\":8507:8508   */\n      0x00\n        /* \"#utility.yul\":8500:8588   */\n      mstore\n        /* \"#utility.yul\":8607:8611   */\n      0x11\n        /* \"#utility.yul\":8604:8605   */\n      0x04\n        /* \"#utility.yul\":8597:8612   */\n      mstore\n        /* \"#utility.yul\":8631:8635   */\n      0x24\n        /* \"#utility.yul\":8628:8629   */\n      0x00\n        /* \"#utility.yul\":8621:8636   */\n      revert\n        /* \"#utility.yul\":8648:8839   */\n    tag_77:\n        /* \"#utility.yul\":8688:8691   */\n      0x00\n        /* \"#utility.yul\":8707:8727   */\n      tag_231\n        /* \"#utility.yul\":8725:8726   */\n      dup3\n        /* \"#utility.yul\":8707:8727   */\n      tag_122\n      jump\t// in\n    tag_231:\n        /* \"#utility.yul\":8702:8727   */\n      swap2\n      pop\n        /* \"#utility.yul\":8741:8761   */\n      tag_232\n        /* \"#utility.yul\":8759:8760   */\n      dup4\n        /* \"#utility.yul\":8741:8761   */\n      tag_122\n      jump\t// in\n    tag_232:\n        /* \"#utility.yul\":8736:8761   */\n      swap3\n      pop\n        /* \"#utility.yul\":8784:8785   */\n      dup3\n        /* \"#utility.yul\":8781:8782   */\n      dup3\n        /* \"#utility.yul\":8777:8786   */\n      add\n        /* \"#utility.yul\":8770:8786   */\n      swap1\n      pop\n        /* \"#utility.yul\":8805:8808   */\n      dup1\n        /* \"#utility.yul\":8802:8803   */\n      dup3\n        /* \"#utility.yul\":8799:8809   */\n      gt\n        /* \"#utility.yul\":8796:8832   */\n      iszero\n      tag_233\n      jumpi\n        /* \"#utility.yul\":8812:8830   */\n      tag_234\n      tag_146\n      jump\t// in\n    tag_234:\n        /* \"#utility.yul\":8796:8832   */\n    tag_233:\n        /* \"#utility.yul\":8648:8839   */\n      swap3\n      swap2\n      pop\n      pop\n      jump\t// out\n        /* \"#utility.yul\":8845:9177   */\n    tag_80:\n        /* \"#utility.yul\":8966:8970   */\n      0x00\n        /* \"#utility.yul\":9004:9006   */\n      0x40\n        /* \"#utility.yul\":8993:9002   */\n      dup3\n        /* \"#utility.yul\":8989:9007   */\n      add\n        /* \"#utility.yul\":8981:9007   */\n      swap1\n      pop\n        /* \"#utility.yul\":9017:9088   */\n      tag_236\n        /* \"#utility.yul\":9085:9086   */\n      0x00\n        /* \"#utility.yul\":9074:9083   */\n      dup4\n        /* \"#utility.yul\":9070:9087   */\n      add\n        /* \"#utility.yul\":9061:9067   */\n      dup6\n        /* \"#utility.yul\":9017:9088   */\n      tag_125\n      jump\t// in\n    tag_236:\n        /* \"#utility.yul\":9098:9170   */\n      tag_237\n        /* \"#utility.yul\":9166:9168   */\n      0x20\n        /* \"#utility.yul\":9155:9164   */\n      dup4\n        /* \"#utility.yul\":9151:9169   */\n      add\n        /* \"#utility.yul\":9142:9148   */\n      dup5\n        /* \"#utility.yul\":9098:9170   */\n      tag_137\n      jump\t// in\n    tag_237:\n        /* \"#utility.yul\":8845:9177   */\n      swap4\n      swap3\n      pop\n      pop\n      pop\n      jump\t// out\n        /* \"#utility.yul\":9183:9360   */\n    tag_147:\n        /* \"#utility.yul\":9323:9352   */\n      0x596f752063616e2774206465637265617365206d6178566f7465730000000000\n        /* \"#utility.yul\":9319:9320   */\n      0x00\n        /* \"#utility.yul\":9311:9317   */\n      dup3\n        /* \"#utility.yul\":9307:9321   */\n      add\n        /* \"#utility.yul\":9300:9353   */\n      mstore\n        /* \"#utility.yul\":9183:9360   */\n      pop\n      jump\t// out\n        /* \"#utility.yul\":9366:9732   */\n    tag_148:\n        /* \"#utility.yul\":9508:9511   */\n      0x00\n        /* \"#utility.yul\":9529:9596   */\n      tag_240\n        /* \"#utility.yul\":9593:9595   */\n      0x1b\n        /* \"#utility.yul\":9588:9591   */\n      dup4\n        /* \"#utility.yul\":9529:9596   */\n      tag_133\n      jump\t// in\n    tag_240:\n        /* \"#utility.yul\":9522:9596   */\n      swap2\n      pop\n        /* \"#utility.yul\":9605:9698   */\n      tag_241\n        /* \"#utility.yul\":9694:9697   */\n      dup3\n        /* \"#utility.yul\":9605:9698   */\n      tag_147\n      jump\t// in\n    tag_241:\n        /* \"#utility.yul\":9723:9725   */\n      0x20\n        /* \"#utility.yul\":9718:9721   */\n      dup3\n        /* \"#utility.yul\":9714:9726   */\n      add\n        /* \"#utility.yul\":9707:9726   */\n      swap1\n      pop\n        /* \"#utility.yul\":9366:9732   */\n      swap2\n      swap1\n      pop\n      jump\t// out\n        /* \"#utility.yul\":9738:10157   */\n    tag_89:\n        /* \"#utility.yul\":9904:9908   */\n      0x00\n        /* \"#utility.yul\":9942:9944   */\n      0x20\n        /* \"#utility.yul\":9931:9940   */\n      dup3\n        /* \"#utility.yul\":9927:9945   */\n      add\n        /* \"#utility.yul\":9919:9945   */\n      swap1\n      pop\n        /* \"#utility.yul\":9991:10000   */\n      dup2\n        /* \"#utility.yul\":9985:9989   */\n      dup2\n        /* \"#utility.yul\":9981:10001   */\n      sub\n        /* \"#utility.yul\":9977:9978   */\n      0x00\n        /* \"#utility.yul\":9966:9975   */\n      dup4\n        /* \"#utility.yul\":9962:9979   */\n      add\n        /* \"#utility.yul\":9955:10002   */\n      mstore\n        /* \"#utility.yul\":10019:10150   */\n      tag_243\n        /* \"#utility.yul\":10145:10149   */\n      dup2\n        /* \"#utility.yul\":10019:10150   */\n      tag_148\n      jump\t// in\n    tag_243:\n        /* \"#utility.yul\":10011:10150   */\n      swap1\n      pop\n        /* \"#utility.yul\":9738:10157   */\n      swap2\n      swap1\n      pop\n      jump\t// out\n        /* \"#utility.yul\":10163:10343   */\n    tag_98:\n        /* \"#utility.yul\":10211:10288   */\n      0x4e487b7100000000000000000000000000000000000000000000000000000000\n        /* \"#utility.yul\":10208:10209   */\n      0x00\n        /* \"#utility.yul\":10201:10289   */\n      mstore\n        /* \"#utility.yul\":10308:10312   */\n      0x32\n        /* \"#utility.yul\":10305:10306   */\n      0x04\n        /* \"#utility.yul\":10298:10313   */\n      mstore\n        /* \"#utility.yul\":10332:10336   */\n      0x24\n        /* \"#utility.yul\":10329:10330   */\n      0x00\n        /* \"#utility.yul\":10322:10337   */\n      revert\n        /* \"#utility.yul\":10349:10529   */\n    tag_149:\n        /* \"#utility.yul\":10397:10474   */\n      0x4e487b7100000000000000000000000000000000000000000000000000000000\n        /* \"#utility.yul\":10394:10395   */\n      0x00\n        /* \"#utility.yul\":10387:10475   */\n      mstore\n        /* \"#utility.yul\":10494:10498   */\n      0x22\n        /* \"#utility.yul\":10491:10492   */\n      0x04\n        /* \"#utility.yul\":10484:10499   */\n      mstore\n        /* \"#utility.yul\":10518:10522   */\n      0x24\n        /* \"#utility.yul\":10515:10516   */\n      0x00\n        /* \"#utility.yul\":10508:10523   */\n      revert\n        /* \"#utility.yul\":10535:10855   */\n    tag_101:\n        /* \"#utility.yul\":10579:10585   */\n      0x00\n        /* \"#utility.yul\":10616:10617   */\n      0x02\n        /* \"#utility.yul\":10610:10614   */\n      dup3\n        /* \"#utility.yul\":10606:10618   */\n      div\n        /* \"#utility.yul\":10596:10618   */\n      swap1\n      pop\n        /* \"#utility.yul\":10663:10664   */\n      0x01\n        /* \"#utility.yul\":10657:10661   */\n      dup3\n        /* \"#utility.yul\":10653:10665   */\n      and\n        /* \"#utility.yul\":10684:10702   */\n      dup1\n        /* \"#utility.yul\":10674:10755   */\n      tag_247\n      jumpi\n        /* \"#utility.yul\":10740:10744   */\n      0x7f\n        /* \"#utility.yul\":10732:10738   */\n      dup3\n        /* \"#utility.yul\":10728:10745   */\n      and\n        /* \"#utility.yul\":10718:10745   */\n      swap2\n      pop\n        /* \"#utility.yul\":10674:10755   */\n    tag_247:\n        /* \"#utility.yul\":10802:10804   */\n      0x20\n        /* \"#utility.yul\":10794:10800   */\n      dup3\n        /* \"#utility.yul\":10791:10805   */\n      lt\n        /* \"#utility.yul\":10771:10789   */\n      dup2\n        /* \"#utility.yul\":10768:10806   */\n      sub\n        /* \"#utility.yul\":10765:10849   */\n      tag_248\n      jumpi\n        /* \"#utility.yul\":10821:10839   */\n      tag_249\n      tag_149\n      jump\t// in\n    tag_249:\n        /* \"#utility.yul\":10765:10849   */\n    tag_248:\n        /* \"#utility.yul\":10586:10855   */\n      pop\n        /* \"#utility.yul\":10535:10855   */\n      swap2\n      swap1\n      pop\n      jump\t// out\n        /* \"#utility.yul\":10861:11024   */\n    tag_150:\n        /* \"#utility.yul\":11001:11016   */\n      0x4d757374206265206c6174657200000000000000000000000000000000000000\n        /* \"#utility.yul\":10997:10998   */\n      0x00\n        /* \"#utility.yul\":10989:10995   */\n      dup3\n        /* \"#utility.yul\":10985:10999   */\n      add\n        /* \"#utility.yul\":10978:11017   */\n      mstore\n        /* \"#utility.yul\":10861:11024   */\n      pop\n      jump\t// out\n        /* \"#utility.yul\":11030:11396   */\n    tag_151:\n        /* \"#utility.yul\":11172:11175   */\n      0x00\n        /* \"#utility.yul\":11193:11260   */\n      tag_252\n        /* \"#utility.yul\":11257:11259   */\n      0x0d\n        /* \"#utility.yul\":11252:11255   */\n      dup4\n        /* \"#utility.yul\":11193:11260   */\n      tag_133\n      jump\t// in\n    tag_252:\n        /* \"#utility.yul\":11186:11260   */\n      swap2\n      pop\n        /* \"#utility.yul\":11269:11362   */\n      tag_253\n        /* \"#utility.yul\":11358:11361   */\n      dup3\n        /* \"#utility.yul\":11269:11362   */\n      tag_150\n      jump\t// in\n    tag_253:\n        /* \"#utility.yul\":11387:11389   */\n      0x20\n        /* \"#utility.yul\":11382:11385   */\n      dup3\n        /* \"#utility.yul\":11378:11390   */\n      add\n        /* \"#utility.yul\":11371:11390   */\n      swap1\n      pop\n        /* \"#utility.yul\":11030:11396   */\n      swap2\n      swap1\n      pop\n      jump\t// out\n        /* \"#utility.yul\":11402:11821   */\n    tag_111:\n        /* \"#utility.yul\":11568:11572   */\n      0x00\n        /* \"#utility.yul\":11606:11608   */\n      0x20\n        /* \"#utility.yul\":11595:11604   */\n      dup3\n        /* \"#utility.yul\":11591:11609   */\n      add\n        /* \"#utility.yul\":11583:11609   */\n      swap1\n      pop\n        /* \"#utility.yul\":11655:11664   */\n      dup2\n        /* \"#utility.yul\":11649:11653   */\n      dup2\n        /* \"#utility.yul\":11645:11665   */\n      sub\n        /* \"#utility.yul\":11641:11642   */\n      0x00\n        /* \"#utility.yul\":11630:11639   */\n      dup4\n        /* \"#utility.yul\":11626:11643   */\n      add\n        /* \"#utility.yul\":11619:11666   */\n      mstore\n        /* \"#utility.yul\":11683:11814   */\n      tag_255\n        /* \"#utility.yul\":11809:11813   */\n      dup2\n        /* \"#utility.yul\":11683:11814   */\n      tag_151\n      jump\t// in\n    tag_255:\n        /* \"#utility.yul\":11675:11814   */\n      swap1\n      pop\n        /* \"#utility.yul\":11402:11821   */\n      swap2\n      swap1\n      pop\n      jump\t// out\n\n    auxdata: 0xa2646970667358221220c2935dd2d1b67686e7e882faf0b03f03cf36019c1978a9277f93761d84f22c6264736f6c634300081a0033\n}\n",
				"bytecode": {
					"linkReferences": {},
					"object": "608060405234801561000f575f80fd5b506040516116ee3803806116ee833981810160405281019061003191906103dc565b825f90805190602001906100469291906100a8565b50816002819055503360015f6101000a81548173ffffffffffffffffffffffffffffffffffffffff021916908373ffffffffffffffffffffffffffffffffffffffff160217905550804261009a9190610475565b60048190555050505061077b565b828054828255905f5260205f209081019282156100ee579160200282015b828111156100ed5782518290816100dd91906106ac565b50916020019190600101906100c6565b5b5090506100fb91906100ff565b5090565b5b8082111561011e575f81816101159190610122565b50600101610100565b5090565b50805461012e906104df565b5f825580601f1061013f575061015c565b601f0160209004905f5260205f209081019061015b919061015f565b5b50565b5b80821115610176575f815f905550600101610160565b5090565b5f604051905090565b5f80fd5b5f80fd5b5f80fd5b5f601f19601f8301169050919050565b7f4e487b71000000000000000000000000000000000000000000000000000000005f52604160045260245ffd5b6101d58261018f565b810181811067ffffffffffffffff821117156101f4576101f361019f565b5b80604052505050565b5f61020661017a565b905061021282826101cc565b919050565b5f67ffffffffffffffff8211156102315761023061019f565b5b602082029050602081019050919050565b5f80fd5b5f80fd5b5f67ffffffffffffffff8211156102645761026361019f565b5b61026d8261018f565b9050602081019050919050565b8281835e5f83830152505050565b5f61029a6102958461024a565b6101fd565b9050828152602081018484840111156102b6576102b5610246565b5b6102c184828561027a565b509392505050565b5f82601f8301126102dd576102dc61018b565b5b81516102ed848260208601610288565b91505092915050565b5f61030861030384610217565b6101fd565b9050808382526020820190506020840283018581111561032b5761032a610242565b5b835b8181101561037257805167ffffffffffffffff8111156103505761034f61018b565b5b80860161035d89826102c9565b8552602085019450505060208101905061032d565b5050509392505050565b5f82601f8301126103905761038f61018b565b5b81516103a08482602086016102f6565b91505092915050565b5f819050919050565b6103bb816103a9565b81146103c5575f80fd5b50565b5f815190506103d6816103b2565b92915050565b5f805f606084860312156103f3576103f2610183565b5b5f84015167ffffffffffffffff8111156104105761040f610187565b5b61041c8682870161037c565b935050602061042d868287016103c8565b925050604061043e868287016103c8565b9150509250925092565b7f4e487b71000000000000000000000000000000000000000000000000000000005f52601160045260245ffd5b5f61047f826103a9565b915061048a836103a9565b92508282019050808211156104a2576104a1610448565b5b92915050565b5f81519050919050565b7f4e487b71000000000000000000000000000000000000000000000000000000005f52602260045260245ffd5b5f60028204905060018216806104f657607f821691505b602082108103610509576105086104b2565b5b50919050565b5f819050815f5260205f209050919050565b5f6020601f8301049050919050565b5f82821b905092915050565b5f6008830261056b7fffffffffffffffffffffffffffffffffffffffffffffffffffffffffffffffff82610530565b6105758683610530565b95508019841693508086168417925050509392505050565b5f819050919050565b5f6105b06105ab6105a6846103a9565b61058d565b6103a9565b9050919050565b5f819050919050565b6105c983610596565b6105dd6105d5826105b7565b84845461053c565b825550505050565b5f90565b6105f16105e5565b6105fc8184846105c0565b505050565b5b8181101561061f576106145f826105e9565b600181019050610602565b5050565b601f821115610664576106358161050f565b61063e84610521565b8101602085101561064d578190505b61066161065985610521565b830182610601565b50505b505050565b5f82821c905092915050565b5f6106845f1984600802610669565b1980831691505092915050565b5f61069c8383610675565b9150826002028217905092915050565b6106b5826104a8565b67ffffffffffffffff8111156106ce576106cd61019f565b5b6106d882546104df565b6106e3828285610623565b5f60209050601f831160018114610714575f8415610702578287015190505b61070c8582610691565b865550610773565b601f1984166107228661050f565b5f5b8281101561074957848901518255600182019150602085019450602081019050610724565b868310156107665784890151610762601f891682610675565b8355505b6001600288020188555050505b505050505050565b610f66806107885f395ff3fe608060405234801561000f575f80fd5b50600436106100b2575f3560e01c8063777c3acf1161006f578063777c3acf1461017657806388358a58146101945780638da5cb5b146101b25780639e136e64146101d0578063a623dbe5146101ee578063ac9b92301461020a576100b2565b80630121b93f146100b65780630d15fd77146100d25780631fcc81be146100f05780632495c0ce14610120578063595156ca1461012a5780636219015014610146575b5f80fd5b6100d060048036038101906100cb91906109c5565b61023a565b005b6100da610502565b6040516100e791906109ff565b60405180910390f35b61010a600480360381019061010591906109c5565b610508565b60405161011791906109ff565b60405180910390f35b61012861051d565b005b610144600480360381019061013f91906109c5565b6105ac565b005b610160600480360381019061015b9190610a72565b610680565b60405161016d9190610ab7565b60405180910390f35b61017e61069d565b60405161018b91906109ff565b60405180910390f35b61019c6106a3565b6040516101a99190610b40565b60405180910390f35b6101ba6107ea565b6040516101c79190610b6f565b60405180910390f35b6101d861080f565b6040516101e591906109ff565b60405180910390f35b610208600480360381019061020391906109c5565b610815565b005b610224600480360381019061021f91906109c5565b6108e9565b6040516102319190610b40565b60405180910390f35b5f151560055f3373ffffffffffffffffffffffffffffffffffffffff1673ffffffffffffffffffffffffffffffffffffffff1681526020019081526020015f205f9054906101000a900460ff161515146102c9576040517f08c379a00000000000000000000000000000000000000000000000000000000081526004016102c090610bd2565b60405180910390fd5b5f80549050811061031757805f805490506040517f0cb9c86800000000000000000000000000000000000000000000000000000000815260040161030e929190610bf0565b60405180910390fd5b6002546003541061035d576040517f08c379a000000000000000000000000000000000000000000000000000000000815260040161035490610c61565b60405180910390fd5b60015f9054906101000a900473ffffffffffffffffffffffffffffffffffffffff1673ffffffffffffffffffffffffffffffffffffffff163373ffffffffffffffffffffffffffffffffffffffff16036103ec576040517f08c379a00000000000000000000000000000000000000000000000000000000081526004016103e390610cc9565b60405180910390fd5b6004544210610430576040517f08c379a000000000000000000000000000000000000000000000000000000000815260040161042790610d31565b60405180910390fd5b600160055f3373ffffffffffffffffffffffffffffffffffffffff1673ffffffffffffffffffffffffffffffffffffffff1681526020019081526020015f205f6101000a81548160ff021916908315150217905550600160065f8381526020019081526020015f205f8282546104a69190610d7c565b92505081905550600160035f8282546104bf9190610d7c565b925050819055507f030b0f8dcd86a031eddb071f91882edeac8173663ba775713b677b42b51be44b81336040516104f7929190610daf565b60405180910390a150565b60035481565b6006602052805f5260405f205f915090505481565b60015f9054906101000a900473ffffffffffffffffffffffffffffffffffffffff1673ffffffffffffffffffffffffffffffffffffffff163373ffffffffffffffffffffffffffffffffffffffff16146105a3576040517f717bf7f800000000000000000000000000000000000000000000000000000000815260040160405180910390fd5b42600481905550565b60015f9054906101000a900473ffffffffffffffffffffffffffffffffffffffff1673ffffffffffffffffffffffffffffffffffffffff163373ffffffffffffffffffffffffffffffffffffffff1614610632576040517f717bf7f800000000000000000000000000000000000000000000000000000000815260040160405180910390fd5b6002548111610676576040517f08c379a000000000000000000000000000000000000000000000000000000000815260040161066d90610e20565b60405180910390fd5b8060028190555050565b6005602052805f5260405f205f915054906101000a900460ff1681565b60025481565b60605f805f805b5f805490508110156106f8578260065f8381526020019081526020015f205411156106eb5780935060065f8281526020019081526020015f20549250600191505b80806001019150506106aa565b5080156107ab575f838154811061071257610711610e3e565b5b905f5260205f2001805461072590610e98565b80601f016020809104026020016040519081016040528092919081815260200182805461075190610e98565b801561079c5780601f106107735761010080835404028352916020019161079c565b820191905f5260205f20905b81548152906001019060200180831161077f57829003601f168201915b505050505093505050506107e7565b6040518060400160405280600681526020017f6e6f626f6479000000000000000000000000000000000000000000000000000081525093505050505b90565b60015f9054906101000a900473ffffffffffffffffffffffffffffffffffffffff1681565b60045481565b60015f9054906101000a900473ffffffffffffffffffffffffffffffffffffffff1673ffffffffffffffffffffffffffffffffffffffff163373ffffffffffffffffffffffffffffffffffffffff161461089b576040517f717bf7f800000000000000000000000000000000000000000000000000000000815260040160405180910390fd5b60045481116108df576040517f08c379a00000000000000000000000000000000000000000000000000000000081526004016108d690610f12565b60405180910390fd5b8060048190555050565b5f81815481106108f7575f80fd5b905f5260205f20015f91509050805461090f90610e98565b80601f016020809104026020016040519081016040528092919081815260200182805461093b90610e98565b80156109865780601f1061095d57610100808354040283529160200191610986565b820191905f5260205f20905b81548152906001019060200180831161096957829003601f168201915b505050505081565b5f80fd5b5f819050919050565b6109a481610992565b81146109ae575f80fd5b50565b5f813590506109bf8161099b565b92915050565b5f602082840312156109da576109d961098e565b5b5f6109e7848285016109b1565b91505092915050565b6109f981610992565b82525050565b5f602082019050610a125f8301846109f0565b92915050565b5f73ffffffffffffffffffffffffffffffffffffffff82169050919050565b5f610a4182610a18565b9050919050565b610a5181610a37565b8114610a5b575f80fd5b50565b5f81359050610a6c81610a48565b92915050565b5f60208284031215610a8757610a8661098e565b5b5f610a9484828501610a5e565b91505092915050565b5f8115159050919050565b610ab181610a9d565b82525050565b5f602082019050610aca5f830184610aa8565b92915050565b5f81519050919050565b5f82825260208201905092915050565b8281835e5f83830152505050565b5f601f19601f8301169050919050565b5f610b1282610ad0565b610b1c8185610ada565b9350610b2c818560208601610aea565b610b3581610af8565b840191505092915050565b5f6020820190508181035f830152610b588184610b08565b905092915050565b610b6981610a37565b82525050565b5f602082019050610b825f830184610b60565b92915050565b7f596f757220616464726573732063616e277420766f74650000000000000000005f82015250565b5f610bbc601783610ada565b9150610bc782610b88565b602082019050919050565b5f6020820190508181035f830152610be981610bb0565b9050919050565b5f604082019050610c035f8301856109f0565b610c1060208301846109f0565b9392505050565b7f4d617820766f74657320686173206265656e20726561636865640000000000005f82015250565b5f610c4b601a83610ada565b9150610c5682610c17565b602082019050919050565b5f6020820190508181035f830152610c7881610c3f565b9050919050565b7f4f776e65722063616e277420766f7465000000000000000000000000000000005f82015250565b5f610cb3601083610ada565b9150610cbe82610c7f565b602082019050919050565b5f6020820190508181035f830152610ce081610ca7565b9050919050565b7f566f74696e67206973206f7665720000000000000000000000000000000000005f82015250565b5f610d1b600e83610ada565b9150610d2682610ce7565b602082019050919050565b5f6020820190508181035f830152610d4881610d0f565b9050919050565b7f4e487b71000000000000000000000000000000000000000000000000000000005f52601160045260245ffd5b5f610d8682610992565b9150610d9183610992565b9250828201905080821115610da957610da8610d4f565b5b92915050565b5f604082019050610dc25f8301856109f0565b610dcf6020830184610b60565b9392505050565b7f596f752063616e2774206465637265617365206d6178566f74657300000000005f82015250565b5f610e0a601b83610ada565b9150610e1582610dd6565b602082019050919050565b5f6020820190508181035f830152610e3781610dfe565b9050919050565b7f4e487b71000000000000000000000000000000000000000000000000000000005f52603260045260245ffd5b7f4e487b71000000000000000000000000000000000000000000000000000000005f52602260045260245ffd5b5f6002820490506001821680610eaf57607f821691505b602082108103610ec257610ec1610e6b565b5b50919050565b7f4d757374206265206c61746572000000000000000000000000000000000000005f82015250565b5f610efc600d83610ada565b9150610f0782610ec8565b602082019050919050565b5f6020820190508181035f830152610f2981610ef0565b905091905056fea2646970667358221220c2935dd2d1b67686e7e882faf0b03f03cf36019c1978a9277f93761d84f22c6264736f6c634300081a0033",
					"opcodes": "PUSH1 0x80 PUSH1 0x40 MSTORE CALLVALUE DUP1 ISZERO PUSH2 0xF JUMPI PUSH0 DUP1 REVERT JUMPDEST POP PUSH1 0x40 MLOAD PUSH2 0x16EE CODESIZE SUB DUP1 PUSH2 0x16EE DUP4 CODECOPY DUP2 DUP2 ADD PUSH1 0x40 MSTORE DUP2 ADD SWAP1 PUSH2 0x31 SWAP2 SWAP1 PUSH2 0x3DC JUMP JUMPDEST DUP3 PUSH0 SWAP1 DUP1 MLOAD SWAP1 PUSH1 0x20 ADD SWAP1 PUSH2 0x46 SWAP3 SWAP2 SWAP1 PUSH2 0xA8 JUMP JUMPDEST POP DUP2 PUSH1 0x2 DUP2 SWAP1 SSTORE POP CALLER PUSH1 0x1 PUSH0 PUSH2 0x100 EXP DUP2 SLOAD DUP2 PUSH20 0xFFFFFFFFFFFFFFFFFFFFFFFFFFFFFFFFFFFFFFFF MUL NOT AND SWAP1 DUP4 PUSH20 0xFFFFFFFFFFFFFFFFFFFFFFFFFFFFFFFFFFFFFFFF AND MUL OR SWAP1 SSTORE POP DUP1 TIMESTAMP PUSH2 0x9A SWAP2 SWAP1 PUSH2 0x475 JUMP JUMPDEST PUSH1 0x4 DUP2 SWAP1 SSTORE POP POP POP POP PUSH2 0x77B JUMP JUMPDEST DUP3 DUP1 SLOAD DUP3 DUP3 SSTORE SWAP1 PUSH0 MSTORE PUSH1 0x20 PUSH0 KECCAK256 SWAP1 DUP2 ADD SWAP3 DUP3 ISZERO PUSH2 0xEE JUMPI SWAP2 PUSH1 0x20 MUL DUP3 ADD JUMPDEST DUP3 DUP2 GT ISZERO PUSH2 0xED JUMPI DUP3 MLOAD DUP3 SWAP1 DUP2 PUSH2 0xDD SWAP2 SWAP1 PUSH2 0x6AC JUMP JUMPDEST POP SWAP2 PUSH1 0x20 ADD SWAP2 SWAP1 PUSH1 0x1 ADD SWAP1 PUSH2 0xC6 JUMP JUMPDEST JUMPDEST POP SWAP1 POP PUSH2 0xFB SWAP2 SWAP1 PUSH2 0xFF JUMP JUMPDEST POP SWAP1 JUMP JUMPDEST JUMPDEST DUP1 DUP3 GT ISZERO PUSH2 0x11E JUMPI PUSH0 DUP2 DUP2 PUSH2 0x115 SWAP2 SWAP1 PUSH2 0x122 JUMP JUMPDEST POP PUSH1 0x1 ADD PUSH2 0x100 JUMP JUMPDEST POP SWAP1 JUMP JUMPDEST POP DUP1 SLOAD PUSH2 0x12E SWAP1 PUSH2 0x4DF JUMP JUMPDEST PUSH0 DUP3 SSTORE DUP1 PUSH1 0x1F LT PUSH2 0x13F JUMPI POP PUSH2 0x15C JUMP JUMPDEST PUSH1 0x1F ADD PUSH1 0x20 SWAP1 DIV SWAP1 PUSH0 MSTORE PUSH1 0x20 PUSH0 KECCAK256 SWAP1 DUP2 ADD SWAP1 PUSH2 0x15B SWAP2 SWAP1 PUSH2 0x15F JUMP JUMPDEST JUMPDEST POP JUMP JUMPDEST JUMPDEST DUP1 DUP3 GT ISZERO PUSH2 0x176 JUMPI PUSH0 DUP2 PUSH0 SWAP1 SSTORE POP PUSH1 0x1 ADD PUSH2 0x160 JUMP JUMPDEST POP SWAP1 JUMP JUMPDEST PUSH0 PUSH1 0x40 MLOAD SWAP1 POP SWAP1 JUMP JUMPDEST PUSH0 DUP1 REVERT JUMPDEST PUSH0 DUP1 REVERT JUMPDEST PUSH0 DUP1 REVERT JUMPDEST PUSH0 PUSH1 0x1F NOT PUSH1 0x1F DUP4 ADD AND SWAP1 POP SWAP2 SWAP1 POP JUMP JUMPDEST PUSH32 0x4E487B7100000000000000000000000000000000000000000000000000000000 PUSH0 MSTORE PUSH1 0x41 PUSH1 0x4 MSTORE PUSH1 0x24 PUSH0 REVERT JUMPDEST PUSH2 0x1D5 DUP3 PUSH2 0x18F JUMP JUMPDEST DUP2 ADD DUP2 DUP2 LT PUSH8 0xFFFFFFFFFFFFFFFF DUP3 GT OR ISZERO PUSH2 0x1F4 JUMPI PUSH2 0x1F3 PUSH2 0x19F JUMP JUMPDEST JUMPDEST DUP1 PUSH1 0x40 MSTORE POP POP POP JUMP JUMPDEST PUSH0 PUSH2 0x206 PUSH2 0x17A JUMP JUMPDEST SWAP1 POP PUSH2 0x212 DUP3 DUP3 PUSH2 0x1CC JUMP JUMPDEST SWAP2 SWAP1 POP JUMP JUMPDEST PUSH0 PUSH8 0xFFFFFFFFFFFFFFFF DUP3 GT ISZERO PUSH2 0x231 JUMPI PUSH2 0x230 PUSH2 0x19F JUMP JUMPDEST JUMPDEST PUSH1 0x20 DUP3 MUL SWAP1 POP PUSH1 0x20 DUP2 ADD SWAP1 POP SWAP2 SWAP1 POP JUMP JUMPDEST PUSH0 DUP1 REVERT JUMPDEST PUSH0 DUP1 REVERT JUMPDEST PUSH0 PUSH8 0xFFFFFFFFFFFFFFFF DUP3 GT ISZERO PUSH2 0x264 JUMPI PUSH2 0x263 PUSH2 0x19F JUMP JUMPDEST JUMPDEST PUSH2 0x26D DUP3 PUSH2 0x18F JUMP JUMPDEST SWAP1 POP PUSH1 0x20 DUP2 ADD SWAP1 POP SWAP2 SWAP1 POP JUMP JUMPDEST DUP3 DUP2 DUP4 MCOPY PUSH0 DUP4 DUP4 ADD MSTORE POP POP POP JUMP JUMPDEST PUSH0 PUSH2 0x29A PUSH2 0x295 DUP5 PUSH2 0x24A JUMP JUMPDEST PUSH2 0x1FD JUMP JUMPDEST SWAP1 POP DUP3 DUP2 MSTORE PUSH1 0x20 DUP2 ADD DUP5 DUP5 DUP5 ADD GT ISZERO PUSH2 0x2B6 JUMPI PUSH2 0x2B5 PUSH2 0x246 JUMP JUMPDEST JUMPDEST PUSH2 0x2C1 DUP5 DUP3 DUP6 PUSH2 0x27A JUMP JUMPDEST POP SWAP4 SWAP3 POP POP POP JUMP JUMPDEST PUSH0 DUP3 PUSH1 0x1F DUP4 ADD SLT PUSH2 0x2DD JUMPI PUSH2 0x2DC PUSH2 0x18B JUMP JUMPDEST JUMPDEST DUP2 MLOAD PUSH2 0x2ED DUP5 DUP3 PUSH1 0x20 DUP7 ADD PUSH2 0x288 JUMP JUMPDEST SWAP2 POP POP SWAP3 SWAP2 POP POP JUMP JUMPDEST PUSH0 PUSH2 0x308 PUSH2 0x303 DUP5 PUSH2 0x217 JUMP JUMPDEST PUSH2 0x1FD JUMP JUMPDEST SWAP1 POP DUP1 DUP4 DUP3 MSTORE PUSH1 0x20 DUP3 ADD SWAP1 POP PUSH1 0x20 DUP5 MUL DUP4 ADD DUP6 DUP2 GT ISZERO PUSH2 0x32B JUMPI PUSH2 0x32A PUSH2 0x242 JUMP JUMPDEST JUMPDEST DUP4 JUMPDEST DUP2 DUP2 LT ISZERO PUSH2 0x372 JUMPI DUP1 MLOAD PUSH8 0xFFFFFFFFFFFFFFFF DUP2 GT ISZERO PUSH2 0x350 JUMPI PUSH2 0x34F PUSH2 0x18B JUMP JUMPDEST JUMPDEST DUP1 DUP7 ADD PUSH2 0x35D DUP10 DUP3 PUSH2 0x2C9 JUMP JUMPDEST DUP6 MSTORE PUSH1 0x20 DUP6 ADD SWAP5 POP POP POP PUSH1 0x20 DUP2 ADD SWAP1 POP PUSH2 0x32D JUMP JUMPDEST POP POP POP SWAP4 SWAP3 POP POP POP JUMP JUMPDEST PUSH0 DUP3 PUSH1 0x1F DUP4 ADD SLT PUSH2 0x390 JUMPI PUSH2 0x38F PUSH2 0x18B JUMP JUMPDEST JUMPDEST DUP2 MLOAD PUSH2 0x3A0 DUP5 DUP3 PUSH1 0x20 DUP7 ADD PUSH2 0x2F6 JUMP JUMPDEST SWAP2 POP POP SWAP3 SWAP2 POP POP JUMP JUMPDEST PUSH0 DUP2 SWAP1 POP SWAP2 SWAP1 POP JUMP JUMPDEST PUSH2 0x3BB DUP2 PUSH2 0x3A9 JUMP JUMPDEST DUP2 EQ PUSH2 0x3C5 JUMPI PUSH0 DUP1 REVERT JUMPDEST POP JUMP JUMPDEST PUSH0 DUP2 MLOAD SWAP1 POP PUSH2 0x3D6 DUP2 PUSH2 0x3B2 JUMP JUMPDEST SWAP3 SWAP2 POP POP JUMP JUMPDEST PUSH0 DUP1 PUSH0 PUSH1 0x60 DUP5 DUP7 SUB SLT ISZERO PUSH2 0x3F3 JUMPI PUSH2 0x3F2 PUSH2 0x183 JUMP JUMPDEST JUMPDEST PUSH0 DUP5 ADD MLOAD PUSH8 0xFFFFFFFFFFFFFFFF DUP2 GT ISZERO PUSH2 0x410 JUMPI PUSH2 0x40F PUSH2 0x187 JUMP JUMPDEST JUMPDEST PUSH2 0x41C DUP7 DUP3 DUP8 ADD PUSH2 0x37C JUMP JUMPDEST SWAP4 POP POP PUSH1 0x20 PUSH2 0x42D DUP7 DUP3 DUP8 ADD PUSH2 0x3C8 JUMP JUMPDEST SWAP3 POP POP PUSH1 0x40 PUSH2 0x43E DUP7 DUP3 DUP8 ADD PUSH2 0x3C8 JUMP JUMPDEST SWAP2 POP POP SWAP3 POP SWAP3 POP SWAP3 JUMP JUMPDEST PUSH32 0x4E487B7100000000000000000000000000000000000000000000000000000000 PUSH0 MSTORE PUSH1 0x11 PUSH1 0x4 MSTORE PUSH1 0x24 PUSH0 REVERT JUMPDEST PUSH0 PUSH2 0x47F DUP3 PUSH2 0x3A9 JUMP JUMPDEST SWAP2 POP PUSH2 0x48A DUP4 PUSH2 0x3A9 JUMP JUMPDEST SWAP3 POP DUP3 DUP3 ADD SWAP1 POP DUP1 DUP3 GT ISZERO PUSH2 0x4A2 JUMPI PUSH2 0x4A1 PUSH2 0x448 JUMP JUMPDEST JUMPDEST SWAP3 SWAP2 POP POP JUMP JUMPDEST PUSH0 DUP2 MLOAD SWAP1 POP SWAP2 SWAP1 POP JUMP JUMPDEST PUSH32 0x4E487B7100000000000000000000000000000000000000000000000000000000 PUSH0 MSTORE PUSH1 0x22 PUSH1 0x4 MSTORE PUSH1 0x24 PUSH0 REVERT JUMPDEST PUSH0 PUSH1 0x2 DUP3 DIV SWAP1 POP PUSH1 0x1 DUP3 AND DUP1 PUSH2 0x4F6 JUMPI PUSH1 0x7F DUP3 AND SWAP2 POP JUMPDEST PUSH1 0x20 DUP3 LT DUP2 SUB PUSH2 0x509 JUMPI PUSH2 0x508 PUSH2 0x4B2 JUMP JUMPDEST JUMPDEST POP SWAP2 SWAP1 POP JUMP JUMPDEST PUSH0 DUP2 SWAP1 POP DUP2 PUSH0 MSTORE PUSH1 0x20 PUSH0 KECCAK256 SWAP1 POP SWAP2 SWAP1 POP JUMP JUMPDEST PUSH0 PUSH1 0x20 PUSH1 0x1F DUP4 ADD DIV SWAP1 POP SWAP2 SWAP1 POP JUMP JUMPDEST PUSH0 DUP3 DUP3 SHL SWAP1 POP SWAP3 SWAP2 POP POP JUMP JUMPDEST PUSH0 PUSH1 0x8 DUP4 MUL PUSH2 0x56B PUSH32 0xFFFFFFFFFFFFFFFFFFFFFFFFFFFFFFFFFFFFFFFFFFFFFFFFFFFFFFFFFFFFFFFF DUP3 PUSH2 0x530 JUMP JUMPDEST PUSH2 0x575 DUP7 DUP4 PUSH2 0x530 JUMP JUMPDEST SWAP6 POP DUP1 NOT DUP5 AND SWAP4 POP DUP1 DUP7 AND DUP5 OR SWAP3 POP POP POP SWAP4 SWAP3 POP POP POP JUMP JUMPDEST PUSH0 DUP2 SWAP1 POP SWAP2 SWAP1 POP JUMP JUMPDEST PUSH0 PUSH2 0x5B0 PUSH2 0x5AB PUSH2 0x5A6 DUP5 PUSH2 0x3A9 JUMP JUMPDEST PUSH2 0x58D JUMP JUMPDEST PUSH2 0x3A9 JUMP JUMPDEST SWAP1 POP SWAP2 SWAP1 POP JUMP JUMPDEST PUSH0 DUP2 SWAP1 POP SWAP2 SWAP1 POP JUMP JUMPDEST PUSH2 0x5C9 DUP4 PUSH2 0x596 JUMP JUMPDEST PUSH2 0x5DD PUSH2 0x5D5 DUP3 PUSH2 0x5B7 JUMP JUMPDEST DUP5 DUP5 SLOAD PUSH2 0x53C JUMP JUMPDEST DUP3 SSTORE POP POP POP POP JUMP JUMPDEST PUSH0 SWAP1 JUMP JUMPDEST PUSH2 0x5F1 PUSH2 0x5E5 JUMP JUMPDEST PUSH2 0x5FC DUP2 DUP5 DUP5 PUSH2 0x5C0 JUMP JUMPDEST POP POP POP JUMP JUMPDEST JUMPDEST DUP2 DUP2 LT ISZERO PUSH2 0x61F JUMPI PUSH2 0x614 PUSH0 DUP3 PUSH2 0x5E9 JUMP JUMPDEST PUSH1 0x1 DUP2 ADD SWAP1 POP PUSH2 0x602 JUMP JUMPDEST POP POP JUMP JUMPDEST PUSH1 0x1F DUP3 GT ISZERO PUSH2 0x664 JUMPI PUSH2 0x635 DUP2 PUSH2 0x50F JUMP JUMPDEST PUSH2 0x63E DUP5 PUSH2 0x521 JUMP JUMPDEST DUP2 ADD PUSH1 0x20 DUP6 LT ISZERO PUSH2 0x64D JUMPI DUP2 SWAP1 POP JUMPDEST PUSH2 0x661 PUSH2 0x659 DUP6 PUSH2 0x521 JUMP JUMPDEST DUP4 ADD DUP3 PUSH2 0x601 JUMP JUMPDEST POP POP JUMPDEST POP POP POP JUMP JUMPDEST PUSH0 DUP3 DUP3 SHR SWAP1 POP SWAP3 SWAP2 POP POP JUMP JUMPDEST PUSH0 PUSH2 0x684 PUSH0 NOT DUP5 PUSH1 0x8 MUL PUSH2 0x669 JUMP JUMPDEST NOT DUP1 DUP4 AND SWAP2 POP POP SWAP3 SWAP2 POP POP JUMP JUMPDEST PUSH0 PUSH2 0x69C DUP4 DUP4 PUSH2 0x675 JUMP JUMPDEST SWAP2 POP DUP3 PUSH1 0x2 MUL DUP3 OR SWAP1 POP SWAP3 SWAP2 POP POP JUMP JUMPDEST PUSH2 0x6B5 DUP3 PUSH2 0x4A8 JUMP JUMPDEST PUSH8 0xFFFFFFFFFFFFFFFF DUP2 GT ISZERO PUSH2 0x6CE JUMPI PUSH2 0x6CD PUSH2 0x19F JUMP JUMPDEST JUMPDEST PUSH2 0x6D8 DUP3 SLOAD PUSH2 0x4DF JUMP JUMPDEST PUSH2 0x6E3 DUP3 DUP3 DUP6 PUSH2 0x623 JUMP JUMPDEST PUSH0 PUSH1 0x20 SWAP1 POP PUSH1 0x1F DUP4 GT PUSH1 0x1 DUP2 EQ PUSH2 0x714 JUMPI PUSH0 DUP5 ISZERO PUSH2 0x702 JUMPI DUP3 DUP8 ADD MLOAD SWAP1 POP JUMPDEST PUSH2 0x70C DUP6 DUP3 PUSH2 0x691 JUMP JUMPDEST DUP7 SSTORE POP PUSH2 0x773 JUMP JUMPDEST PUSH1 0x1F NOT DUP5 AND PUSH2 0x722 DUP7 PUSH2 0x50F JUMP JUMPDEST PUSH0 JUMPDEST DUP3 DUP2 LT ISZERO PUSH2 0x749 JUMPI DUP5 DUP10 ADD MLOAD DUP3 SSTORE PUSH1 0x1 DUP3 ADD SWAP2 POP PUSH1 0x20 DUP6 ADD SWAP5 POP PUSH1 0x20 DUP2 ADD SWAP1 POP PUSH2 0x724 JUMP JUMPDEST DUP7 DUP4 LT ISZERO PUSH2 0x766 JUMPI DUP5 DUP10 ADD MLOAD PUSH2 0x762 PUSH1 0x1F DUP10 AND DUP3 PUSH2 0x675 JUMP JUMPDEST DUP4 SSTORE POP JUMPDEST PUSH1 0x1 PUSH1 0x2 DUP9 MUL ADD DUP9 SSTORE POP POP POP JUMPDEST POP POP POP POP POP POP JUMP JUMPDEST PUSH2 0xF66 DUP1 PUSH2 0x788 PUSH0 CODECOPY PUSH0 RETURN INVALID PUSH1 0x80 PUSH1 0x40 MSTORE CALLVALUE DUP1 ISZERO PUSH2 0xF JUMPI PUSH0 DUP1 REVERT JUMPDEST POP PUSH1 0x4 CALLDATASIZE LT PUSH2 0xB2 JUMPI PUSH0 CALLDATALOAD PUSH1 0xE0 SHR DUP1 PUSH4 0x777C3ACF GT PUSH2 0x6F JUMPI DUP1 PUSH4 0x777C3ACF EQ PUSH2 0x176 JUMPI DUP1 PUSH4 0x88358A58 EQ PUSH2 0x194 JUMPI DUP1 PUSH4 0x8DA5CB5B EQ PUSH2 0x1B2 JUMPI DUP1 PUSH4 0x9E136E64 EQ PUSH2 0x1D0 JUMPI DUP1 PUSH4 0xA623DBE5 EQ PUSH2 0x1EE JUMPI DUP1 PUSH4 0xAC9B9230 EQ PUSH2 0x20A JUMPI PUSH2 0xB2 JUMP JUMPDEST DUP1 PUSH4 0x121B93F EQ PUSH2 0xB6 JUMPI DUP1 PUSH4 0xD15FD77 EQ PUSH2 0xD2 JUMPI DUP1 PUSH4 0x1FCC81BE EQ PUSH2 0xF0 JUMPI DUP1 PUSH4 0x2495C0CE EQ PUSH2 0x120 JUMPI DUP1 PUSH4 0x595156CA EQ PUSH2 0x12A JUMPI DUP1 PUSH4 0x62190150 EQ PUSH2 0x146 JUMPI JUMPDEST PUSH0 DUP1 REVERT JUMPDEST PUSH2 0xD0 PUSH1 0x4 DUP1 CALLDATASIZE SUB DUP2 ADD SWAP1 PUSH2 0xCB SWAP2 SWAP1 PUSH2 0x9C5 JUMP JUMPDEST PUSH2 0x23A JUMP JUMPDEST STOP JUMPDEST PUSH2 0xDA PUSH2 0x502 JUMP JUMPDEST PUSH1 0x40 MLOAD PUSH2 0xE7 SWAP2 SWAP1 PUSH2 0x9FF JUMP JUMPDEST PUSH1 0x40 MLOAD DUP1 SWAP2 SUB SWAP1 RETURN JUMPDEST PUSH2 0x10A PUSH1 0x4 DUP1 CALLDATASIZE SUB DUP2 ADD SWAP1 PUSH2 0x105 SWAP2 SWAP1 PUSH2 0x9C5 JUMP JUMPDEST PUSH2 0x508 JUMP JUMPDEST PUSH1 0x40 MLOAD PUSH2 0x117 SWAP2 SWAP1 PUSH2 0x9FF JUMP JUMPDEST PUSH1 0x40 MLOAD DUP1 SWAP2 SUB SWAP1 RETURN JUMPDEST PUSH2 0x128 PUSH2 0x51D JUMP JUMPDEST STOP JUMPDEST PUSH2 0x144 PUSH1 0x4 DUP1 CALLDATASIZE SUB DUP2 ADD SWAP1 PUSH2 0x13F SWAP2 SWAP1 PUSH2 0x9C5 JUMP JUMPDEST PUSH2 0x5AC JUMP JUMPDEST STOP JUMPDEST PUSH2 0x160 PUSH1 0x4 DUP1 CALLDATASIZE SUB DUP2 ADD SWAP1 PUSH2 0x15B SWAP2 SWAP1 PUSH2 0xA72 JUMP JUMPDEST PUSH2 0x680 JUMP JUMPDEST PUSH1 0x40 MLOAD PUSH2 0x16D SWAP2 SWAP1 PUSH2 0xAB7 JUMP JUMPDEST PUSH1 0x40 MLOAD DUP1 SWAP2 SUB SWAP1 RETURN JUMPDEST PUSH2 0x17E PUSH2 0x69D JUMP JUMPDEST PUSH1 0x40 MLOAD PUSH2 0x18B SWAP2 SWAP1 PUSH2 0x9FF JUMP JUMPDEST PUSH1 0x40 MLOAD DUP1 SWAP2 SUB SWAP1 RETURN JUMPDEST PUSH2 0x19C PUSH2 0x6A3 JUMP JUMPDEST PUSH1 0x40 MLOAD PUSH2 0x1A9 SWAP2 SWAP1 PUSH2 0xB40 JUMP JUMPDEST PUSH1 0x40 MLOAD DUP1 SWAP2 SUB SWAP1 RETURN JUMPDEST PUSH2 0x1BA PUSH2 0x7EA JUMP JUMPDEST PUSH1 0x40 MLOAD PUSH2 0x1C7 SWAP2 SWAP1 PUSH2 0xB6F JUMP JUMPDEST PUSH1 0x40 MLOAD DUP1 SWAP2 SUB SWAP1 RETURN JUMPDEST PUSH2 0x1D8 PUSH2 0x80F JUMP JUMPDEST PUSH1 0x40 MLOAD PUSH2 0x1E5 SWAP2 SWAP1 PUSH2 0x9FF JUMP JUMPDEST PUSH1 0x40 MLOAD DUP1 SWAP2 SUB SWAP1 RETURN JUMPDEST PUSH2 0x208 PUSH1 0x4 DUP1 CALLDATASIZE SUB DUP2 ADD SWAP1 PUSH2 0x203 SWAP2 SWAP1 PUSH2 0x9C5 JUMP JUMPDEST PUSH2 0x815 JUMP JUMPDEST STOP JUMPDEST PUSH2 0x224 PUSH1 0x4 DUP1 CALLDATASIZE SUB DUP2 ADD SWAP1 PUSH2 0x21F SWAP2 SWAP1 PUSH2 0x9C5 JUMP JUMPDEST PUSH2 0x8E9 JUMP JUMPDEST PUSH1 0x40 MLOAD PUSH2 0x231 SWAP2 SWAP1 PUSH2 0xB40 JUMP JUMPDEST PUSH1 0x40 MLOAD DUP1 SWAP2 SUB SWAP1 RETURN JUMPDEST PUSH0 ISZERO ISZERO PUSH1 0x5 PUSH0 CALLER PUSH20 0xFFFFFFFFFFFFFFFFFFFFFFFFFFFFFFFFFFFFFFFF AND PUSH20 0xFFFFFFFFFFFFFFFFFFFFFFFFFFFFFFFFFFFFFFFF AND DUP2 MSTORE PUSH1 0x20 ADD SWAP1 DUP2 MSTORE PUSH1 0x20 ADD PUSH0 KECCAK256 PUSH0 SWAP1 SLOAD SWAP1 PUSH2 0x100 EXP SWAP1 DIV PUSH1 0xFF AND ISZERO ISZERO EQ PUSH2 0x2C9 JUMPI PUSH1 0x40 MLOAD PUSH32 0x8C379A000000000000000000000000000000000000000000000000000000000 DUP2 MSTORE PUSH1 0x4 ADD PUSH2 0x2C0 SWAP1 PUSH2 0xBD2 JUMP JUMPDEST PUSH1 0x40 MLOAD DUP1 SWAP2 SUB SWAP1 REVERT JUMPDEST PUSH0 DUP1 SLOAD SWAP1 POP DUP2 LT PUSH2 0x317 JUMPI DUP1 PUSH0 DUP1 SLOAD SWAP1 POP PUSH1 0x40 MLOAD PUSH32 0xCB9C86800000000000000000000000000000000000000000000000000000000 DUP2 MSTORE PUSH1 0x4 ADD PUSH2 0x30E SWAP3 SWAP2 SWAP1 PUSH2 0xBF0 JUMP JUMPDEST PUSH1 0x40 MLOAD DUP1 SWAP2 SUB SWAP1 REVERT JUMPDEST PUSH1 0x2 SLOAD PUSH1 0x3 SLOAD LT PUSH2 0x35D JUMPI PUSH1 0x40 MLOAD PUSH32 0x8C379A000000000000000000000000000000000000000000000000000000000 DUP2 MSTORE PUSH1 0x4 ADD PUSH2 0x354 SWAP1 PUSH2 0xC61 JUMP JUMPDEST PUSH1 0x40 MLOAD DUP1 SWAP2 SUB SWAP1 REVERT JUMPDEST PUSH1 0x1 PUSH0 SWAP1 SLOAD SWAP1 PUSH2 0x100 EXP SWAP1 DIV PUSH20 0xFFFFFFFFFFFFFFFFFFFFFFFFFFFFFFFFFFFFFFFF AND PUSH20 0xFFFFFFFFFFFFFFFFFFFFFFFFFFFFFFFFFFFFFFFF AND CALLER PUSH20 0xFFFFFFFFFFFFFFFFFFFFFFFFFFFFFFFFFFFFFFFF AND SUB PUSH2 0x3EC JUMPI PUSH1 0x40 MLOAD PUSH32 0x8C379A000000000000000000000000000000000000000000000000000000000 DUP2 MSTORE PUSH1 0x4 ADD PUSH2 0x3E3 SWAP1 PUSH2 0xCC9 JUMP JUMPDEST PUSH1 0x40 MLOAD DUP1 SWAP2 SUB SWAP1 REVERT JUMPDEST PUSH1 0x4 SLOAD TIMESTAMP LT PUSH2 0x430 JUMPI PUSH1 0x40 MLOAD PUSH32 0x8C379A000000000000000000000000000000000000000000000000000000000 DUP2 MSTORE PUSH1 0x4 ADD PUSH2 0x427 SWAP1 PUSH2 0xD31 JUMP JUMPDEST PUSH1 0x40 MLOAD DUP1 SWAP2 SUB SWAP1 REVERT JUMPDEST PUSH1 0x1 PUSH1 0x5 PUSH0 CALLER PUSH20 0xFFFFFFFFFFFFFFFFFFFFFFFFFFFFFFFFFFFFFFFF AND PUSH20 0xFFFFFFFFFFFFFFFFFFFFFFFFFFFFFFFFFFFFFFFF AND DUP2 MSTORE PUSH1 0x20 ADD SWAP1 DUP2 MSTORE PUSH1 0x20 ADD PUSH0 KECCAK256 PUSH0 PUSH2 0x100 EXP DUP2 SLOAD DUP2 PUSH1 0xFF MUL NOT AND SWAP1 DUP4 ISZERO ISZERO MUL OR SWAP1 SSTORE POP PUSH1 0x1 PUSH1 0x6 PUSH0 DUP4 DUP2 MSTORE PUSH1 0x20 ADD SWAP1 DUP2 MSTORE PUSH1 0x20 ADD PUSH0 KECCAK256 PUSH0 DUP3 DUP3 SLOAD PUSH2 0x4A6 SWAP2 SWAP1 PUSH2 0xD7C JUMP JUMPDEST SWAP3 POP POP DUP2 SWAP1 SSTORE POP PUSH1 0x1 PUSH1 0x3 PUSH0 DUP3 DUP3 SLOAD PUSH2 0x4BF SWAP2 SWAP1 PUSH2 0xD7C JUMP JUMPDEST SWAP3 POP POP DUP2 SWAP1 SSTORE POP PUSH32 0x30B0F8DCD86A031EDDB071F91882EDEAC8173663BA775713B677B42B51BE44B DUP2 CALLER PUSH1 0x40 MLOAD PUSH2 0x4F7 SWAP3 SWAP2 SWAP1 PUSH2 0xDAF JUMP JUMPDEST PUSH1 0x40 MLOAD DUP1 SWAP2 SUB SWAP1 LOG1 POP JUMP JUMPDEST PUSH1 0x3 SLOAD DUP2 JUMP JUMPDEST PUSH1 0x6 PUSH1 0x20 MSTORE DUP1 PUSH0 MSTORE PUSH1 0x40 PUSH0 KECCAK256 PUSH0 SWAP2 POP SWAP1 POP SLOAD DUP2 JUMP JUMPDEST PUSH1 0x1 PUSH0 SWAP1 SLOAD SWAP1 PUSH2 0x100 EXP SWAP1 DIV PUSH20 0xFFFFFFFFFFFFFFFFFFFFFFFFFFFFFFFFFFFFFFFF AND PUSH20 0xFFFFFFFFFFFFFFFFFFFFFFFFFFFFFFFFFFFFFFFF AND CALLER PUSH20 0xFFFFFFFFFFFFFFFFFFFFFFFFFFFFFFFFFFFFFFFF AND EQ PUSH2 0x5A3 JUMPI PUSH1 0x40 MLOAD PUSH32 0x717BF7F800000000000000000000000000000000000000000000000000000000 DUP2 MSTORE PUSH1 0x4 ADD PUSH1 0x40 MLOAD DUP1 SWAP2 SUB SWAP1 REVERT JUMPDEST TIMESTAMP PUSH1 0x4 DUP2 SWAP1 SSTORE POP JUMP JUMPDEST PUSH1 0x1 PUSH0 SWAP1 SLOAD SWAP1 PUSH2 0x100 EXP SWAP1 DIV PUSH20 0xFFFFFFFFFFFFFFFFFFFFFFFFFFFFFFFFFFFFFFFF AND PUSH20 0xFFFFFFFFFFFFFFFFFFFFFFFFFFFFFFFFFFFFFFFF AND CALLER PUSH20 0xFFFFFFFFFFFFFFFFFFFFFFFFFFFFFFFFFFFFFFFF AND EQ PUSH2 0x632 JUMPI PUSH1 0x40 MLOAD PUSH32 0x717BF7F800000000000000000000000000000000000000000000000000000000 DUP2 MSTORE PUSH1 0x4 ADD PUSH1 0x40 MLOAD DUP1 SWAP2 SUB SWAP1 REVERT JUMPDEST PUSH1 0x2 SLOAD DUP2 GT PUSH2 0x676 JUMPI PUSH1 0x40 MLOAD PUSH32 0x8C379A000000000000000000000000000000000000000000000000000000000 DUP2 MSTORE PUSH1 0x4 ADD PUSH2 0x66D SWAP1 PUSH2 0xE20 JUMP JUMPDEST PUSH1 0x40 MLOAD DUP1 SWAP2 SUB SWAP1 REVERT JUMPDEST DUP1 PUSH1 0x2 DUP2 SWAP1 SSTORE POP POP JUMP JUMPDEST PUSH1 0x5 PUSH1 0x20 MSTORE DUP1 PUSH0 MSTORE PUSH1 0x40 PUSH0 KECCAK256 PUSH0 SWAP2 POP SLOAD SWAP1 PUSH2 0x100 EXP SWAP1 DIV PUSH1 0xFF AND DUP2 JUMP JUMPDEST PUSH1 0x2 SLOAD DUP2 JUMP JUMPDEST PUSH1 0x60 PUSH0 DUP1 PUSH0 DUP1 JUMPDEST PUSH0 DUP1 SLOAD SWAP1 POP DUP2 LT ISZERO PUSH2 0x6F8 JUMPI DUP3 PUSH1 0x6 PUSH0 DUP4 DUP2 MSTORE PUSH1 0x20 ADD SWAP1 DUP2 MSTORE PUSH1 0x20 ADD PUSH0 KECCAK256 SLOAD GT ISZERO PUSH2 0x6EB JUMPI DUP1 SWAP4 POP PUSH1 0x6 PUSH0 DUP3 DUP2 MSTORE PUSH1 0x20 ADD SWAP1 DUP2 MSTORE PUSH1 0x20 ADD PUSH0 KECCAK256 SLOAD SWAP3 POP PUSH1 0x1 SWAP2 POP JUMPDEST DUP1 DUP1 PUSH1 0x1 ADD SWAP2 POP POP PUSH2 0x6AA JUMP JUMPDEST POP DUP1 ISZERO PUSH2 0x7AB JUMPI PUSH0 DUP4 DUP2 SLOAD DUP2 LT PUSH2 0x712 JUMPI PUSH2 0x711 PUSH2 0xE3E JUMP JUMPDEST JUMPDEST SWAP1 PUSH0 MSTORE PUSH1 0x20 PUSH0 KECCAK256 ADD DUP1 SLOAD PUSH2 0x725 SWAP1 PUSH2 0xE98 JUMP JUMPDEST DUP1 PUSH1 0x1F ADD PUSH1 0x20 DUP1 SWAP2 DIV MUL PUSH1 0x20 ADD PUSH1 0x40 MLOAD SWAP1 DUP2 ADD PUSH1 0x40 MSTORE DUP1 SWAP3 SWAP2 SWAP1 DUP2 DUP2 MSTORE PUSH1 0x20 ADD DUP3 DUP1 SLOAD PUSH2 0x751 SWAP1 PUSH2 0xE98 JUMP JUMPDEST DUP1 ISZERO PUSH2 0x79C JUMPI DUP1 PUSH1 0x1F LT PUSH2 0x773 JUMPI PUSH2 0x100 DUP1 DUP4 SLOAD DIV MUL DUP4 MSTORE SWAP2 PUSH1 0x20 ADD SWAP2 PUSH2 0x79C JUMP JUMPDEST DUP3 ADD SWAP2 SWAP1 PUSH0 MSTORE PUSH1 0x20 PUSH0 KECCAK256 SWAP1 JUMPDEST DUP2 SLOAD DUP2 MSTORE SWAP1 PUSH1 0x1 ADD SWAP1 PUSH1 0x20 ADD DUP1 DUP4 GT PUSH2 0x77F JUMPI DUP3 SWAP1 SUB PUSH1 0x1F AND DUP3 ADD SWAP2 JUMPDEST POP POP POP POP POP SWAP4 POP POP POP POP PUSH2 0x7E7 JUMP JUMPDEST PUSH1 0x40 MLOAD DUP1 PUSH1 0x40 ADD PUSH1 0x40 MSTORE DUP1 PUSH1 0x6 DUP2 MSTORE PUSH1 0x20 ADD PUSH32 0x6E6F626F64790000000000000000000000000000000000000000000000000000 DUP2 MSTORE POP SWAP4 POP POP POP POP JUMPDEST SWAP1 JUMP JUMPDEST PUSH1 0x1 PUSH0 SWAP1 SLOAD SWAP1 PUSH2 0x100 EXP SWAP1 DIV PUSH20 0xFFFFFFFFFFFFFFFFFFFFFFFFFFFFFFFFFFFFFFFF AND DUP2 JUMP JUMPDEST PUSH1 0x4 SLOAD DUP2 JUMP JUMPDEST PUSH1 0x1 PUSH0 SWAP1 SLOAD SWAP1 PUSH2 0x100 EXP SWAP1 DIV PUSH20 0xFFFFFFFFFFFFFFFFFFFFFFFFFFFFFFFFFFFFFFFF AND PUSH20 0xFFFFFFFFFFFFFFFFFFFFFFFFFFFFFFFFFFFFFFFF AND CALLER PUSH20 0xFFFFFFFFFFFFFFFFFFFFFFFFFFFFFFFFFFFFFFFF AND EQ PUSH2 0x89B JUMPI PUSH1 0x40 MLOAD PUSH32 0x717BF7F800000000000000000000000000000000000000000000000000000000 DUP2 MSTORE PUSH1 0x4 ADD PUSH1 0x40 MLOAD DUP1 SWAP2 SUB SWAP1 REVERT JUMPDEST PUSH1 0x4 SLOAD DUP2 GT PUSH2 0x8DF JUMPI PUSH1 0x40 MLOAD PUSH32 0x8C379A000000000000000000000000000000000000000000000000000000000 DUP2 MSTORE PUSH1 0x4 ADD PUSH2 0x8D6 SWAP1 PUSH2 0xF12 JUMP JUMPDEST PUSH1 0x40 MLOAD DUP1 SWAP2 SUB SWAP1 REVERT JUMPDEST DUP1 PUSH1 0x4 DUP2 SWAP1 SSTORE POP POP JUMP JUMPDEST PUSH0 DUP2 DUP2 SLOAD DUP2 LT PUSH2 0x8F7 JUMPI PUSH0 DUP1 REVERT JUMPDEST SWAP1 PUSH0 MSTORE PUSH1 0x20 PUSH0 KECCAK256 ADD PUSH0 SWAP2 POP SWAP1 POP DUP1 SLOAD PUSH2 0x90F SWAP1 PUSH2 0xE98 JUMP JUMPDEST DUP1 PUSH1 0x1F ADD PUSH1 0x20 DUP1 SWAP2 DIV MUL PUSH1 0x20 ADD PUSH1 0x40 MLOAD SWAP1 DUP2 ADD PUSH1 0x40 MSTORE DUP1 SWAP3 SWAP2 SWAP1 DUP2 DUP2 MSTORE PUSH1 0x20 ADD DUP3 DUP1 SLOAD PUSH2 0x93B SWAP1 PUSH2 0xE98 JUMP JUMPDEST DUP1 ISZERO PUSH2 0x986 JUMPI DUP1 PUSH1 0x1F LT PUSH2 0x95D JUMPI PUSH2 0x100 DUP1 DUP4 SLOAD DIV MUL DUP4 MSTORE SWAP2 PUSH1 0x20 ADD SWAP2 PUSH2 0x986 JUMP JUMPDEST DUP3 ADD SWAP2 SWAP1 PUSH0 MSTORE PUSH1 0x20 PUSH0 KECCAK256 SWAP1 JUMPDEST DUP2 SLOAD DUP2 MSTORE SWAP1 PUSH1 0x1 ADD SWAP1 PUSH1 0x20 ADD DUP1 DUP4 GT PUSH2 0x969 JUMPI DUP3 SWAP1 SUB PUSH1 0x1F AND DUP3 ADD SWAP2 JUMPDEST POP POP POP POP POP DUP2 JUMP JUMPDEST PUSH0 DUP1 REVERT JUMPDEST PUSH0 DUP2 SWAP1 POP SWAP2 SWAP1 POP JUMP JUMPDEST PUSH2 0x9A4 DUP2 PUSH2 0x992 JUMP JUMPDEST DUP2 EQ PUSH2 0x9AE JUMPI PUSH0 DUP1 REVERT JUMPDEST POP JUMP JUMPDEST PUSH0 DUP2 CALLDATALOAD SWAP1 POP PUSH2 0x9BF DUP2 PUSH2 0x99B JUMP JUMPDEST SWAP3 SWAP2 POP POP JUMP JUMPDEST PUSH0 PUSH1 0x20 DUP3 DUP5 SUB SLT ISZERO PUSH2 0x9DA JUMPI PUSH2 0x9D9 PUSH2 0x98E JUMP JUMPDEST JUMPDEST PUSH0 PUSH2 0x9E7 DUP5 DUP3 DUP6 ADD PUSH2 0x9B1 JUMP JUMPDEST SWAP2 POP POP SWAP3 SWAP2 POP POP JUMP JUMPDEST PUSH2 0x9F9 DUP2 PUSH2 0x992 JUMP JUMPDEST DUP3 MSTORE POP POP JUMP JUMPDEST PUSH0 PUSH1 0x20 DUP3 ADD SWAP1 POP PUSH2 0xA12 PUSH0 DUP4 ADD DUP5 PUSH2 0x9F0 JUMP JUMPDEST SWAP3 SWAP2 POP POP JUMP JUMPDEST PUSH0 PUSH20 0xFFFFFFFFFFFFFFFFFFFFFFFFFFFFFFFFFFFFFFFF DUP3 AND SWAP1 POP SWAP2 SWAP1 POP JUMP JUMPDEST PUSH0 PUSH2 0xA41 DUP3 PUSH2 0xA18 JUMP JUMPDEST SWAP1 POP SWAP2 SWAP1 POP JUMP JUMPDEST PUSH2 0xA51 DUP2 PUSH2 0xA37 JUMP JUMPDEST DUP2 EQ PUSH2 0xA5B JUMPI PUSH0 DUP1 REVERT JUMPDEST POP JUMP JUMPDEST PUSH0 DUP2 CALLDATALOAD SWAP1 POP PUSH2 0xA6C DUP2 PUSH2 0xA48 JUMP JUMPDEST SWAP3 SWAP2 POP POP JUMP JUMPDEST PUSH0 PUSH1 0x20 DUP3 DUP5 SUB SLT ISZERO PUSH2 0xA87 JUMPI PUSH2 0xA86 PUSH2 0x98E JUMP JUMPDEST JUMPDEST PUSH0 PUSH2 0xA94 DUP5 DUP3 DUP6 ADD PUSH2 0xA5E JUMP JUMPDEST SWAP2 POP POP SWAP3 SWAP2 POP POP JUMP JUMPDEST PUSH0 DUP2 ISZERO ISZERO SWAP1 POP SWAP2 SWAP1 POP JUMP JUMPDEST PUSH2 0xAB1 DUP2 PUSH2 0xA9D JUMP JUMPDEST DUP3 MSTORE POP POP JUMP JUMPDEST PUSH0 PUSH1 0x20 DUP3 ADD SWAP1 POP PUSH2 0xACA PUSH0 DUP4 ADD DUP5 PUSH2 0xAA8 JUMP JUMPDEST SWAP3 SWAP2 POP POP JUMP JUMPDEST PUSH0 DUP2 MLOAD SWAP1 POP SWAP2 SWAP1 POP JUMP JUMPDEST PUSH0 DUP3 DUP3 MSTORE PUSH1 0x20 DUP3 ADD SWAP1 POP SWAP3 SWAP2 POP POP JUMP JUMPDEST DUP3 DUP2 DUP4 MCOPY PUSH0 DUP4 DUP4 ADD MSTORE POP POP POP JUMP JUMPDEST PUSH0 PUSH1 0x1F NOT PUSH1 0x1F DUP4 ADD AND SWAP1 POP SWAP2 SWAP1 POP JUMP JUMPDEST PUSH0 PUSH2 0xB12 DUP3 PUSH2 0xAD0 JUMP JUMPDEST PUSH2 0xB1C DUP2 DUP6 PUSH2 0xADA JUMP JUMPDEST SWAP4 POP PUSH2 0xB2C DUP2 DUP6 PUSH1 0x20 DUP7 ADD PUSH2 0xAEA JUMP JUMPDEST PUSH2 0xB35 DUP2 PUSH2 0xAF8 JUMP JUMPDEST DUP5 ADD SWAP2 POP POP SWAP3 SWAP2 POP POP JUMP JUMPDEST PUSH0 PUSH1 0x20 DUP3 ADD SWAP1 POP DUP2 DUP2 SUB PUSH0 DUP4 ADD MSTORE PUSH2 0xB58 DUP2 DUP5 PUSH2 0xB08 JUMP JUMPDEST SWAP1 POP SWAP3 SWAP2 POP POP JUMP JUMPDEST PUSH2 0xB69 DUP2 PUSH2 0xA37 JUMP JUMPDEST DUP3 MSTORE POP POP JUMP JUMPDEST PUSH0 PUSH1 0x20 DUP3 ADD SWAP1 POP PUSH2 0xB82 PUSH0 DUP4 ADD DUP5 PUSH2 0xB60 JUMP JUMPDEST SWAP3 SWAP2 POP POP JUMP JUMPDEST PUSH32 0x596F757220616464726573732063616E277420766F7465000000000000000000 PUSH0 DUP3 ADD MSTORE POP JUMP JUMPDEST PUSH0 PUSH2 0xBBC PUSH1 0x17 DUP4 PUSH2 0xADA JUMP JUMPDEST SWAP2 POP PUSH2 0xBC7 DUP3 PUSH2 0xB88 JUMP JUMPDEST PUSH1 0x20 DUP3 ADD SWAP1 POP SWAP2 SWAP1 POP JUMP JUMPDEST PUSH0 PUSH1 0x20 DUP3 ADD SWAP1 POP DUP2 DUP2 SUB PUSH0 DUP4 ADD MSTORE PUSH2 0xBE9 DUP2 PUSH2 0xBB0 JUMP JUMPDEST SWAP1 POP SWAP2 SWAP1 POP JUMP JUMPDEST PUSH0 PUSH1 0x40 DUP3 ADD SWAP1 POP PUSH2 0xC03 PUSH0 DUP4 ADD DUP6 PUSH2 0x9F0 JUMP JUMPDEST PUSH2 0xC10 PUSH1 0x20 DUP4 ADD DUP5 PUSH2 0x9F0 JUMP JUMPDEST SWAP4 SWAP3 POP POP POP JUMP JUMPDEST PUSH32 0x4D617820766F74657320686173206265656E2072656163686564000000000000 PUSH0 DUP3 ADD MSTORE POP JUMP JUMPDEST PUSH0 PUSH2 0xC4B PUSH1 0x1A DUP4 PUSH2 0xADA JUMP JUMPDEST SWAP2 POP PUSH2 0xC56 DUP3 PUSH2 0xC17 JUMP JUMPDEST PUSH1 0x20 DUP3 ADD SWAP1 POP SWAP2 SWAP1 POP JUMP JUMPDEST PUSH0 PUSH1 0x20 DUP3 ADD SWAP1 POP DUP2 DUP2 SUB PUSH0 DUP4 ADD MSTORE PUSH2 0xC78 DUP2 PUSH2 0xC3F JUMP JUMPDEST SWAP1 POP SWAP2 SWAP1 POP JUMP JUMPDEST PUSH32 0x4F776E65722063616E277420766F746500000000000000000000000000000000 PUSH0 DUP3 ADD MSTORE POP JUMP JUMPDEST PUSH0 PUSH2 0xCB3 PUSH1 0x10 DUP4 PUSH2 0xADA JUMP JUMPDEST SWAP2 POP PUSH2 0xCBE DUP3 PUSH2 0xC7F JUMP JUMPDEST PUSH1 0x20 DUP3 ADD SWAP1 POP SWAP2 SWAP1 POP JUMP JUMPDEST PUSH0 PUSH1 0x20 DUP3 ADD SWAP1 POP DUP2 DUP2 SUB PUSH0 DUP4 ADD MSTORE PUSH2 0xCE0 DUP2 PUSH2 0xCA7 JUMP JUMPDEST SWAP1 POP SWAP2 SWAP1 POP JUMP JUMPDEST PUSH32 0x566F74696E67206973206F766572000000000000000000000000000000000000 PUSH0 DUP3 ADD MSTORE POP JUMP JUMPDEST PUSH0 PUSH2 0xD1B PUSH1 0xE DUP4 PUSH2 0xADA JUMP JUMPDEST SWAP2 POP PUSH2 0xD26 DUP3 PUSH2 0xCE7 JUMP JUMPDEST PUSH1 0x20 DUP3 ADD SWAP1 POP SWAP2 SWAP1 POP JUMP JUMPDEST PUSH0 PUSH1 0x20 DUP3 ADD SWAP1 POP DUP2 DUP2 SUB PUSH0 DUP4 ADD MSTORE PUSH2 0xD48 DUP2 PUSH2 0xD0F JUMP JUMPDEST SWAP1 POP SWAP2 SWAP1 POP JUMP JUMPDEST PUSH32 0x4E487B7100000000000000000000000000000000000000000000000000000000 PUSH0 MSTORE PUSH1 0x11 PUSH1 0x4 MSTORE PUSH1 0x24 PUSH0 REVERT JUMPDEST PUSH0 PUSH2 0xD86 DUP3 PUSH2 0x992 JUMP JUMPDEST SWAP2 POP PUSH2 0xD91 DUP4 PUSH2 0x992 JUMP JUMPDEST SWAP3 POP DUP3 DUP3 ADD SWAP1 POP DUP1 DUP3 GT ISZERO PUSH2 0xDA9 JUMPI PUSH2 0xDA8 PUSH2 0xD4F JUMP JUMPDEST JUMPDEST SWAP3 SWAP2 POP POP JUMP JUMPDEST PUSH0 PUSH1 0x40 DUP3 ADD SWAP1 POP PUSH2 0xDC2 PUSH0 DUP4 ADD DUP6 PUSH2 0x9F0 JUMP JUMPDEST PUSH2 0xDCF PUSH1 0x20 DUP4 ADD DUP5 PUSH2 0xB60 JUMP JUMPDEST SWAP4 SWAP3 POP POP POP JUMP JUMPDEST PUSH32 0x596F752063616E2774206465637265617365206D6178566F7465730000000000 PUSH0 DUP3 ADD MSTORE POP JUMP JUMPDEST PUSH0 PUSH2 0xE0A PUSH1 0x1B DUP4 PUSH2 0xADA JUMP JUMPDEST SWAP2 POP PUSH2 0xE15 DUP3 PUSH2 0xDD6 JUMP JUMPDEST PUSH1 0x20 DUP3 ADD SWAP1 POP SWAP2 SWAP1 POP JUMP JUMPDEST PUSH0 PUSH1 0x20 DUP3 ADD SWAP1 POP DUP2 DUP2 SUB PUSH0 DUP4 ADD MSTORE PUSH2 0xE37 DUP2 PUSH2 0xDFE JUMP JUMPDEST SWAP1 POP SWAP2 SWAP1 POP JUMP JUMPDEST PUSH32 0x4E487B7100000000000000000000000000000000000000000000000000000000 PUSH0 MSTORE PUSH1 0x32 PUSH1 0x4 MSTORE PUSH1 0x24 PUSH0 REVERT JUMPDEST PUSH32 0x4E487B7100000000000000000000000000000000000000000000000000000000 PUSH0 MSTORE PUSH1 0x22 PUSH1 0x4 MSTORE PUSH1 0x24 PUSH0 REVERT JUMPDEST PUSH0 PUSH1 0x2 DUP3 DIV SWAP1 POP PUSH1 0x1 DUP3 AND DUP1 PUSH2 0xEAF JUMPI PUSH1 0x7F DUP3 AND SWAP2 POP JUMPDEST PUSH1 0x20 DUP3 LT DUP2 SUB PUSH2 0xEC2 JUMPI PUSH2 0xEC1 PUSH2 0xE6B JUMP JUMPDEST JUMPDEST POP SWAP2 SWAP1 POP JUMP JUMPDEST PUSH32 0x4D757374206265206C6174657200000000000000000000000000000000000000 PUSH0 DUP3 ADD MSTORE POP JUMP JUMPDEST PUSH0 PUSH2 0xEFC PUSH1 0xD DUP4 PUSH2 0xADA JUMP JUMPDEST SWAP2 POP PUSH2 0xF07 DUP3 PUSH2 0xEC8 JUMP JUMPDEST PUSH1 0x20 DUP3 ADD SWAP1 POP SWAP2 SWAP1 POP JUMP JUMPDEST PUSH0 PUSH1 0x20 DUP3 ADD SWAP1 POP DUP2 DUP2 SUB PUSH0 DUP4 ADD MSTORE PUSH2 0xF29 DUP2 PUSH2 0xEF0 JUMP JUMPDEST SWAP1 POP SWAP2 SWAP1 POP JUMP INVALID LOG2 PUSH5 0x6970667358 0x22 SLT KECCAK256 0xC2 SWAP4 TSTORE 0xD2 0xD1 0xB6 PUSH23 0x86E7E882FAF0B03F03CF36019C1978A9277F93761D84F2 0x2C PUSH3 0x64736F PUSH13 0x634300081A0033000000000000 "
				},
				"gasEstimates": {
					"creation": {
						"codeDepositCost": "788400",
						"executionCost": "infinite",
						"totalCost": "infinite"
					},
					"external": {
						"electionEndTime()": "2491",
						"electors(uint256)": "infinite",
						"maxVotes()": "2425",
						"numberOfVotes(uint256)": "infinite",
						"owner()": "2552",
						"resetEndTime(uint256)": "26895",
						"resetMaxVotes(uint256)": "26896",
						"stopVote()": "24492",
						"totalVotes()": "2448",
						"userVotes(address)": "2944",
						"vote(uint256)": "infinite",
						"voteWinner()": "infinite"
					}
				},
				"methodIdentifiers": {
					"electionEndTime()": "9e136e64",
					"electors(uint256)": "ac9b9230",
					"maxVotes()": "777c3acf",
					"numberOfVotes(uint256)": "1fcc81be",
					"owner()": "8da5cb5b",
					"resetEndTime(uint256)": "a623dbe5",
					"resetMaxVotes(uint256)": "595156ca",
					"stopVote()": "2495c0ce",
					"totalVotes()": "0d15fd77",
					"userVotes(address)": "62190150",
					"vote(uint256)": "0121b93f",
					"voteWinner()": "88358a58"
				}
			},
			"storageLayout": {
				"storage": [
					{
						"astId": 4,
						"contract": "election.sol:Election",
						"label": "electors",
						"offset": 0,
						"slot": "0",
						"type": "t_array(t_string_storage)dyn_storage"
					},
					{
						"astId": 6,
						"contract": "election.sol:Election",
						"label": "owner",
						"offset": 0,
						"slot": "1",
						"type": "t_address"
					},
					{
						"astId": 8,
						"contract": "election.sol:Election",
						"label": "maxVotes",
						"offset": 0,
						"slot": "2",
						"type": "t_uint256"
					},
					{
						"astId": 10,
						"contract": "election.sol:Election",
						"label": "totalVotes",
						"offset": 0,
						"slot": "3",
						"type": "t_uint256"
					},
					{
						"astId": 12,
						"contract": "election.sol:Election",
						"label": "electionEndTime",
						"offset": 0,
						"slot": "4",
						"type": "t_uint256"
					},
					{
						"astId": 16,
						"contract": "election.sol:Election",
						"label": "userVotes",
						"offset": 0,
						"slot": "5",
						"type": "t_mapping(t_address,t_bool)"
					},
					{
						"astId": 20,
						"contract": "election.sol:Election",
						"label": "numberOfVotes",
						"offset": 0,
						"slot": "6",
						"type": "t_mapping(t_uint256,t_uint256)"
					}
				],
				"types": {
					"t_address": {
						"encoding": "inplace",
						"label": "address",
						"numberOfBytes": "20"
					},
					"t_array(t_string_storage)dyn_storage": {
						"base": "t_string_storage",
						"encoding": "dynamic_array",
						"label": "string[]",
						"numberOfBytes": "32"
					},
					"t_bool": {
						"encoding": "inplace",
						"label": "bool",
						"numberOfBytes": "1"
					},
					"t_mapping(t_address,t_bool)": {
						"encoding": "mapping",
						"key": "t_address",
						"label": "mapping(address => bool)",
						"numberOfBytes": "32",
						"value": "t_bool"
					},
					"t_mapping(t_uint256,t_uint256)": {
						"encoding": "mapping",
						"key": "t_uint256",
						"label": "mapping(uint256 => uint256)",
						"numberOfBytes": "32",
						"value": "t_uint256"
					},
					"t_string_storage": {
						"encoding": "bytes",
						"label": "string",
						"numberOfBytes": "32"
					},
					"t_uint256": {
						"encoding": "inplace",
						"label": "uint256",
						"numberOfBytes": "32"
					}
				}
			},
			"userdoc": {
				"kind": "user",
				"methods": {},
				"version": 1
			}
		}
	}
}