{
	"data": {
		"bytecode": {
			"linkReferences": {},
			"object": "6080604052348015600e575f80fd5b506040516105b83803806105b88339818101604052810190602e9190606e565b808060018190555050506094565b5f80fd5b5f819050919050565b6050816040565b81146059575f80fd5b50565b5f815190506068816049565b92915050565b5f60208284031215608057607f603c565b5b5f608b84828501605c565b91505092915050565b610517806100a15f395ff3fe608060405234801561000f575f80fd5b5060043610610060575f3560e01c806307da68f514610064578063200d2ed21461006e578063325ca79c1461008c5780639e77c5b1146100aa578063a54580f2146100c8578063d3b33b63146100d2575b5f80fd5b61006c6100f0565b005b61007661010a565b60405161008391906103f1565b60405180910390f35b610094610194565b6040516100a191906103f1565b60405180910390f35b6100b26101d1565b6040516100bf91906103f1565b60405180910390f35b6100d0610220565b005b6100da610263565b6040516100e791906103f1565b60405180910390f35b5f805f6101000a81548160ff021916908315150217905550565b60605f8054906101000a900460ff16610158576040518060400160405280600781526020017f73746f707065640000000000000000000000000000000000000000000000000081525061018f565b6040518060400160405280600681526020017f6d6f76696e6700000000000000000000000000000000000000000000000000008152505b905090565b60606040518060400160405280600581526020017f545552424f000000000000000000000000000000000000000000000000000000815250905090565b60606101db6102ec565b506101e4610329565b506040518060400160405280600a81526020017f616c6c2062726f6b656e00000000000000000000000000000000000000000000815250905090565b610228610366565b6040517f08c379a000000000000000000000000000000000000000000000000000000000815260040161025a9061045b565b60405180910390fd5b60605f8054906101000a900460ff166102b1576040517f08c379a00000000000000000000000000000000000000000000000000000000081526004016102a8906104c3565b60405180910390fd5b6040518060400160405280600881526020017f6472696674696e67000000000000000000000000000000000000000000000000815250905090565b60606040518060400160405280600a81526020017f6361722062726f6b656e00000000000000000000000000000000000000000000815250905090565b60606040518060400160405280600c81526020017f747572626f2062726f6b656e0000000000000000000000000000000000000000815250905090565b60015f806101000a81548160ff021916908315150217905550565b5f81519050919050565b5f82825260208201905092915050565b8281835e5f83830152505050565b5f601f19601f8301169050919050565b5f6103c382610381565b6103cd818561038b565b93506103dd81856020860161039b565b6103e6816103a9565b840191505092915050565b5f6020820190508181035f83015261040981846103b9565b905092915050565b7f424d57207275696e6564000000000000000000000000000000000000000000005f82015250565b5f610445600a8361038b565b915061045082610411565b602082019050919050565b5f6020820190508181035f83015261047281610439565b9050919050565b7f756e61626c6520746f20647269667400000000000000000000000000000000005f82015250565b5f6104ad600f8361038b565b91506104b882610479565b602082019050919050565b5f6020820190508181035f8301526104da816104a1565b905091905056fea264697066735822122048c49e32990312c99b0bebdbee39dc887bc7688249e27750a1a13e8e652b983864736f6c634300081a0033",
			"opcodes": "PUSH1 0x80 PUSH1 0x40 MSTORE CALLVALUE DUP1 ISZERO PUSH1 0xE JUMPI PUSH0 DUP1 REVERT JUMPDEST POP PUSH1 0x40 MLOAD PUSH2 0x5B8 CODESIZE SUB DUP1 PUSH2 0x5B8 DUP4 CODECOPY DUP2 DUP2 ADD PUSH1 0x40 MSTORE DUP2 ADD SWAP1 PUSH1 0x2E SWAP2 SWAP1 PUSH1 0x6E JUMP JUMPDEST DUP1 DUP1 PUSH1 0x1 DUP2 SWAP1 SSTORE POP POP POP PUSH1 0x94 JUMP JUMPDEST PUSH0 DUP1 REVERT JUMPDEST PUSH0 DUP2 SWAP1 POP SWAP2 SWAP1 POP JUMP JUMPDEST PUSH1 0x50 DUP2 PUSH1 0x40 JUMP JUMPDEST DUP2 EQ PUSH1 0x59 JUMPI PUSH0 DUP1 REVERT JUMPDEST POP JUMP JUMPDEST PUSH0 DUP2 MLOAD SWAP1 POP PUSH1 0x68 DUP2 PUSH1 0x49 JUMP JUMPDEST SWAP3 SWAP2 POP POP JUMP JUMPDEST PUSH0 PUSH1 0x20 DUP3 DUP5 SUB SLT ISZERO PUSH1 0x80 JUMPI PUSH1 0x7F PUSH1 0x3C JUMP JUMPDEST JUMPDEST PUSH0 PUSH1 0x8B DUP5 DUP3 DUP6 ADD PUSH1 0x5C JUMP JUMPDEST SWAP2 POP POP SWAP3 SWAP2 POP POP JUMP JUMPDEST PUSH2 0x517 DUP1 PUSH2 0xA1 PUSH0 CODECOPY PUSH0 RETURN INVALID PUSH1 0x80 PUSH1 0x40 MSTORE CALLVALUE DUP1 ISZERO PUSH2 0xF JUMPI PUSH0 DUP1 REVERT JUMPDEST POP PUSH1 0x4 CALLDATASIZE LT PUSH2 0x60 JUMPI PUSH0 CALLDATALOAD PUSH1 0xE0 SHR DUP1 PUSH4 0x7DA68F5 EQ PUSH2 0x64 JUMPI DUP1 PUSH4 0x200D2ED2 EQ PUSH2 0x6E JUMPI DUP1 PUSH4 0x325CA79C EQ PUSH2 0x8C JUMPI DUP1 PUSH4 0x9E77C5B1 EQ PUSH2 0xAA JUMPI DUP1 PUSH4 0xA54580F2 EQ PUSH2 0xC8 JUMPI DUP1 PUSH4 0xD3B33B63 EQ PUSH2 0xD2 JUMPI JUMPDEST PUSH0 DUP1 REVERT JUMPDEST PUSH2 0x6C PUSH2 0xF0 JUMP JUMPDEST STOP JUMPDEST PUSH2 0x76 PUSH2 0x10A JUMP JUMPDEST PUSH1 0x40 MLOAD PUSH2 0x83 SWAP2 SWAP1 PUSH2 0x3F1 JUMP JUMPDEST PUSH1 0x40 MLOAD DUP1 SWAP2 SUB SWAP1 RETURN JUMPDEST PUSH2 0x94 PUSH2 0x194 JUMP JUMPDEST PUSH1 0x40 MLOAD PUSH2 0xA1 SWAP2 SWAP1 PUSH2 0x3F1 JUMP JUMPDEST PUSH1 0x40 MLOAD DUP1 SWAP2 SUB SWAP1 RETURN JUMPDEST PUSH2 0xB2 PUSH2 0x1D1 JUMP JUMPDEST PUSH1 0x40 MLOAD PUSH2 0xBF SWAP2 SWAP1 PUSH2 0x3F1 JUMP JUMPDEST PUSH1 0x40 MLOAD DUP1 SWAP2 SUB SWAP1 RETURN JUMPDEST PUSH2 0xD0 PUSH2 0x220 JUMP JUMPDEST STOP JUMPDEST PUSH2 0xDA PUSH2 0x263 JUMP JUMPDEST PUSH1 0x40 MLOAD PUSH2 0xE7 SWAP2 SWAP1 PUSH2 0x3F1 JUMP JUMPDEST PUSH1 0x40 MLOAD DUP1 SWAP2 SUB SWAP1 RETURN JUMPDEST PUSH0 DUP1 PUSH0 PUSH2 0x100 EXP DUP2 SLOAD DUP2 PUSH1 0xFF MUL NOT AND SWAP1 DUP4 ISZERO ISZERO MUL OR SWAP1 SSTORE POP JUMP JUMPDEST PUSH1 0x60 PUSH0 DUP1 SLOAD SWAP1 PUSH2 0x100 EXP SWAP1 DIV PUSH1 0xFF AND PUSH2 0x158 JUMPI PUSH1 0x40 MLOAD DUP1 PUSH1 0x40 ADD PUSH1 0x40 MSTORE DUP1 PUSH1 0x7 DUP2 MSTORE PUSH1 0x20 ADD PUSH32 0x73746F7070656400000000000000000000000000000000000000000000000000 DUP2 MSTORE POP PUSH2 0x18F JUMP JUMPDEST PUSH1 0x40 MLOAD DUP1 PUSH1 0x40 ADD PUSH1 0x40 MSTORE DUP1 PUSH1 0x6 DUP2 MSTORE PUSH1 0x20 ADD PUSH32 0x6D6F76696E670000000000000000000000000000000000000000000000000000 DUP2 MSTORE POP JUMPDEST SWAP1 POP SWAP1 JUMP JUMPDEST PUSH1 0x60 PUSH1 0x40 MLOAD DUP1 PUSH1 0x40 ADD PUSH1 0x40 MSTORE DUP1 PUSH1 0x5 DUP2 MSTORE PUSH1 0x20 ADD PUSH32 0x545552424F000000000000000000000000000000000000000000000000000000 DUP2 MSTORE POP SWAP1 POP SWAP1 JUMP JUMPDEST PUSH1 0x60 PUSH2 0x1DB PUSH2 0x2EC JUMP JUMPDEST POP PUSH2 0x1E4 PUSH2 0x329 JUMP JUMPDEST POP PUSH1 0x40 MLOAD DUP1 PUSH1 0x40 ADD PUSH1 0x40 MSTORE DUP1 PUSH1 0xA DUP2 MSTORE PUSH1 0x20 ADD PUSH32 0x616C6C2062726F6B656E00000000000000000000000000000000000000000000 DUP2 MSTORE POP SWAP1 POP SWAP1 JUMP JUMPDEST PUSH2 0x228 PUSH2 0x366 JUMP JUMPDEST PUSH1 0x40 MLOAD PUSH32 0x8C379A000000000000000000000000000000000000000000000000000000000 DUP2 MSTORE PUSH1 0x4 ADD PUSH2 0x25A SWAP1 PUSH2 0x45B JUMP JUMPDEST PUSH1 0x40 MLOAD DUP1 SWAP2 SUB SWAP1 REVERT JUMPDEST PUSH1 0x60 PUSH0 DUP1 SLOAD SWAP1 PUSH2 0x100 EXP SWAP1 DIV PUSH1 0xFF AND PUSH2 0x2B1 JUMPI PUSH1 0x40 MLOAD PUSH32 0x8C379A000000000000000000000000000000000000000000000000000000000 DUP2 MSTORE PUSH1 0x4 ADD PUSH2 0x2A8 SWAP1 PUSH2 0x4C3 JUMP JUMPDEST PUSH1 0x40 MLOAD DUP1 SWAP2 SUB SWAP1 REVERT JUMPDEST PUSH1 0x40 MLOAD DUP1 PUSH1 0x40 ADD PUSH1 0x40 MSTORE DUP1 PUSH1 0x8 DUP2 MSTORE PUSH1 0x20 ADD PUSH32 0x6472696674696E67000000000000000000000000000000000000000000000000 DUP2 MSTORE POP SWAP1 POP SWAP1 JUMP JUMPDEST PUSH1 0x60 PUSH1 0x40 MLOAD DUP1 PUSH1 0x40 ADD PUSH1 0x40 MSTORE DUP1 PUSH1 0xA DUP2 MSTORE PUSH1 0x20 ADD PUSH32 0x6361722062726F6B656E00000000000000000000000000000000000000000000 DUP2 MSTORE POP SWAP1 POP SWAP1 JUMP JUMPDEST PUSH1 0x60 PUSH1 0x40 MLOAD DUP1 PUSH1 0x40 ADD PUSH1 0x40 MSTORE DUP1 PUSH1 0xC DUP2 MSTORE PUSH1 0x20 ADD PUSH32 0x747572626F2062726F6B656E0000000000000000000000000000000000000000 DUP2 MSTORE POP SWAP1 POP SWAP1 JUMP JUMPDEST PUSH1 0x1 PUSH0 DUP1 PUSH2 0x100 EXP DUP2 SLOAD DUP2 PUSH1 0xFF MUL NOT AND SWAP1 DUP4 ISZERO ISZERO MUL OR SWAP1 SSTORE POP JUMP JUMPDEST PUSH0 DUP2 MLOAD SWAP1 POP SWAP2 SWAP1 POP JUMP JUMPDEST PUSH0 DUP3 DUP3 MSTORE PUSH1 0x20 DUP3 ADD SWAP1 POP SWAP3 SWAP2 POP POP JUMP JUMPDEST DUP3 DUP2 DUP4 MCOPY PUSH0 DUP4 DUP4 ADD MSTORE POP POP POP JUMP JUMPDEST PUSH0 PUSH1 0x1F NOT PUSH1 0x1F DUP4 ADD AND SWAP1 POP SWAP2 SWAP1 POP JUMP JUMPDEST PUSH0 PUSH2 0x3C3 DUP3 PUSH2 0x381 JUMP JUMPDEST PUSH2 0x3CD DUP2 DUP6 PUSH2 0x38B JUMP JUMPDEST SWAP4 POP PUSH2 0x3DD DUP2 DUP6 PUSH1 0x20 DUP7 ADD PUSH2 0x39B JUMP JUMPDEST PUSH2 0x3E6 DUP2 PUSH2 0x3A9 JUMP JUMPDEST DUP5 ADD SWAP2 POP POP SWAP3 SWAP2 POP POP JUMP JUMPDEST PUSH0 PUSH1 0x20 DUP3 ADD SWAP1 POP DUP2 DUP2 SUB PUSH0 DUP4 ADD MSTORE PUSH2 0x409 DUP2 DUP5 PUSH2 0x3B9 JUMP JUMPDEST SWAP1 POP SWAP3 SWAP2 POP POP JUMP JUMPDEST PUSH32 0x424D57207275696E656400000000000000000000000000000000000000000000 PUSH0 DUP3 ADD MSTORE POP JUMP JUMPDEST PUSH0 PUSH2 0x445 PUSH1 0xA DUP4 PUSH2 0x38B JUMP JUMPDEST SWAP2 POP PUSH2 0x450 DUP3 PUSH2 0x411 JUMP JUMPDEST PUSH1 0x20 DUP3 ADD SWAP1 POP SWAP2 SWAP1 POP JUMP JUMPDEST PUSH0 PUSH1 0x20 DUP3 ADD SWAP1 POP DUP2 DUP2 SUB PUSH0 DUP4 ADD MSTORE PUSH2 0x472 DUP2 PUSH2 0x439 JUMP JUMPDEST SWAP1 POP SWAP2 SWAP1 POP JUMP JUMPDEST PUSH32 0x756E61626C6520746F2064726966740000000000000000000000000000000000 PUSH0 DUP3 ADD MSTORE POP JUMP JUMPDEST PUSH0 PUSH2 0x4AD PUSH1 0xF DUP4 PUSH2 0x38B JUMP JUMPDEST SWAP2 POP PUSH2 0x4B8 DUP3 PUSH2 0x479 JUMP JUMPDEST PUSH1 0x20 DUP3 ADD SWAP1 POP SWAP2 SWAP1 POP JUMP JUMPDEST PUSH0 PUSH1 0x20 DUP3 ADD SWAP1 POP DUP2 DUP2 SUB PUSH0 DUP4 ADD MSTORE PUSH2 0x4DA DUP2 PUSH2 0x4A1 JUMP JUMPDEST SWAP1 POP SWAP2 SWAP1 POP JUMP INVALID LOG2 PUSH5 0x6970667358 0x22 SLT KECCAK256 BASEFEE 0xC4 SWAP15 ORIGIN SWAP10 SUB SLT 0xC9 SWAP12 SIGNEXTEND 0xEB 0xDB 0xEE CODECOPY 0xDC DUP9 PUSH28 0xC7688249E27750A1A13E8E652B983864736F6C634300081A00330000 "
		},
		"gasEstimates": {
			"creation": {
				"codeDepositCost": "260600",
				"executionCost": "infinite",
				"totalCost": "infinite"
			},
			"external": {
				"broke()": "infinite",
				"drift()": "infinite",
				"drive()": "24784",
				"status()": "infinite",
				"stop()": "24386",
				"turboBoost()": "infinite"
			}
		},
		"methodIdentifiers": {
			"broke()": "9e77c5b1",
			"drift()": "d3b33b63",
			"drive()": "a54580f2",
			"status()": "200d2ed2",
			"stop()": "07da68f5",
			"turboBoost()": "325ca79c"
		}
	},
	"abi": [
		{
			"inputs": [
				{
					"internalType": "uint256",
					"name": "_vin",
					"type": "uint256"
				}
			],
			"stateMutability": "nonpayable",
			"type": "constructor"
		},
		{
			"inputs": [],
			"name": "broke",
			"outputs": [
				{
					"internalType": "string",
					"name": "",
					"type": "string"
				}
			],
			"stateMutability": "pure",
			"type": "function"
		},
		{
			"inputs": [],
			"name": "drift",
			"outputs": [
				{
					"internalType": "string",
					"name": "",
					"type": "string"
				}
			],
			"stateMutability": "view",
			"type": "function"
		},
		{
			"inputs": [],
			"name": "drive",
			"outputs": [],
			"stateMutability": "nonpayable",
			"type": "function"
		},
		{
			"inputs": [],
			"name": "status",
			"outputs": [
				{
					"internalType": "string",
					"name": "",
					"type": "string"
				}
			],
			"stateMutability": "view",
			"type": "function"
		},
		{
			"inputs": [],
			"name": "stop",
			"outputs": [],
			"stateMutability": "nonpayable",
			"type": "function"
		},
		{
			"inputs": [],
			"name": "turboBoost",
			"outputs": [
				{
					"internalType": "string",
					"name": "",
					"type": "string"
				}
			],
			"stateMutability": "pure",
			"type": "function"
		}
	]
}