{
	"data": {
		"bytecode": {
			"linkReferences": {},
			"object": "6080604052348015600e575f80fd5b506040516102ff3803806102ff8339818101604052810190602e9190606c565b80600181905550506092565b5f80fd5b5f819050919050565b604e81603e565b81146057575f80fd5b50565b5f815190506066816047565b92915050565b5f60208284031215607e57607d603a565b5b5f608984828501605a565b91505092915050565b6102608061009f5f395ff3fe608060405234801561000f575f80fd5b506004361061004a575f3560e01c806307da68f51461004e578063200d2ed2146100585780639e77c5b114610076578063a54580f214610094575b5f80fd5b61005661009e565b005b6100606100b8565b60405161006d919061020a565b60405180910390f35b61007e610142565b60405161008b919061020a565b60405180910390f35b61009c61017f565b005b5f805f6101000a81548160ff021916908315150217905550565b60605f8054906101000a900460ff16610106576040518060400160405280600781526020017f73746f707065640000000000000000000000000000000000000000000000000081525061013d565b6040518060400160405280600681526020017f6d6f76696e6700000000000000000000000000000000000000000000000000008152505b905090565b60606040518060400160405280600a81526020017f6361722062726f6b656e00000000000000000000000000000000000000000000815250905090565b60015f806101000a81548160ff021916908315150217905550565b5f81519050919050565b5f82825260208201905092915050565b8281835e5f83830152505050565b5f601f19601f8301169050919050565b5f6101dc8261019a565b6101e681856101a4565b93506101f68185602086016101b4565b6101ff816101c2565b840191505092915050565b5f6020820190508181035f83015261022281846101d2565b90509291505056fea26469706673582212203d37105265964fecd83f3cd88cabfc4e72db0a8da319e93a5d3486e340abc3ba64736f6c634300081a0033",
			"opcodes": "PUSH1 0x80 PUSH1 0x40 MSTORE CALLVALUE DUP1 ISZERO PUSH1 0xE JUMPI PUSH0 DUP1 REVERT JUMPDEST POP PUSH1 0x40 MLOAD PUSH2 0x2FF CODESIZE SUB DUP1 PUSH2 0x2FF DUP4 CODECOPY DUP2 DUP2 ADD PUSH1 0x40 MSTORE DUP2 ADD SWAP1 PUSH1 0x2E SWAP2 SWAP1 PUSH1 0x6C JUMP JUMPDEST DUP1 PUSH1 0x1 DUP2 SWAP1 SSTORE POP POP PUSH1 0x92 JUMP JUMPDEST PUSH0 DUP1 REVERT JUMPDEST PUSH0 DUP2 SWAP1 POP SWAP2 SWAP1 POP JUMP JUMPDEST PUSH1 0x4E DUP2 PUSH1 0x3E JUMP JUMPDEST DUP2 EQ PUSH1 0x57 JUMPI PUSH0 DUP1 REVERT JUMPDEST POP JUMP JUMPDEST PUSH0 DUP2 MLOAD SWAP1 POP PUSH1 0x66 DUP2 PUSH1 0x47 JUMP JUMPDEST SWAP3 SWAP2 POP POP JUMP JUMPDEST PUSH0 PUSH1 0x20 DUP3 DUP5 SUB SLT ISZERO PUSH1 0x7E JUMPI PUSH1 0x7D PUSH1 0x3A JUMP JUMPDEST JUMPDEST PUSH0 PUSH1 0x89 DUP5 DUP3 DUP6 ADD PUSH1 0x5A JUMP JUMPDEST SWAP2 POP POP SWAP3 SWAP2 POP POP JUMP JUMPDEST PUSH2 0x260 DUP1 PUSH2 0x9F PUSH0 CODECOPY PUSH0 RETURN INVALID PUSH1 0x80 PUSH1 0x40 MSTORE CALLVALUE DUP1 ISZERO PUSH2 0xF JUMPI PUSH0 DUP1 REVERT JUMPDEST POP PUSH1 0x4 CALLDATASIZE LT PUSH2 0x4A JUMPI PUSH0 CALLDATALOAD PUSH1 0xE0 SHR DUP1 PUSH4 0x7DA68F5 EQ PUSH2 0x4E JUMPI DUP1 PUSH4 0x200D2ED2 EQ PUSH2 0x58 JUMPI DUP1 PUSH4 0x9E77C5B1 EQ PUSH2 0x76 JUMPI DUP1 PUSH4 0xA54580F2 EQ PUSH2 0x94 JUMPI JUMPDEST PUSH0 DUP1 REVERT JUMPDEST PUSH2 0x56 PUSH2 0x9E JUMP JUMPDEST STOP JUMPDEST PUSH2 0x60 PUSH2 0xB8 JUMP JUMPDEST PUSH1 0x40 MLOAD PUSH2 0x6D SWAP2 SWAP1 PUSH2 0x20A JUMP JUMPDEST PUSH1 0x40 MLOAD DUP1 SWAP2 SUB SWAP1 RETURN JUMPDEST PUSH2 0x7E PUSH2 0x142 JUMP JUMPDEST PUSH1 0x40 MLOAD PUSH2 0x8B SWAP2 SWAP1 PUSH2 0x20A JUMP JUMPDEST PUSH1 0x40 MLOAD DUP1 SWAP2 SUB SWAP1 RETURN JUMPDEST PUSH2 0x9C PUSH2 0x17F JUMP JUMPDEST STOP JUMPDEST PUSH0 DUP1 PUSH0 PUSH2 0x100 EXP DUP2 SLOAD DUP2 PUSH1 0xFF MUL NOT AND SWAP1 DUP4 ISZERO ISZERO MUL OR SWAP1 SSTORE POP JUMP JUMPDEST PUSH1 0x60 PUSH0 DUP1 SLOAD SWAP1 PUSH2 0x100 EXP SWAP1 DIV PUSH1 0xFF AND PUSH2 0x106 JUMPI PUSH1 0x40 MLOAD DUP1 PUSH1 0x40 ADD PUSH1 0x40 MSTORE DUP1 PUSH1 0x7 DUP2 MSTORE PUSH1 0x20 ADD PUSH32 0x73746F7070656400000000000000000000000000000000000000000000000000 DUP2 MSTORE POP PUSH2 0x13D JUMP JUMPDEST PUSH1 0x40 MLOAD DUP1 PUSH1 0x40 ADD PUSH1 0x40 MSTORE DUP1 PUSH1 0x6 DUP2 MSTORE PUSH1 0x20 ADD PUSH32 0x6D6F76696E670000000000000000000000000000000000000000000000000000 DUP2 MSTORE POP JUMPDEST SWAP1 POP SWAP1 JUMP JUMPDEST PUSH1 0x60 PUSH1 0x40 MLOAD DUP1 PUSH1 0x40 ADD PUSH1 0x40 MSTORE DUP1 PUSH1 0xA DUP2 MSTORE PUSH1 0x20 ADD PUSH32 0x6361722062726F6B656E00000000000000000000000000000000000000000000 DUP2 MSTORE POP SWAP1 POP SWAP1 JUMP JUMPDEST PUSH1 0x1 PUSH0 DUP1 PUSH2 0x100 EXP DUP2 SLOAD DUP2 PUSH1 0xFF MUL NOT AND SWAP1 DUP4 ISZERO ISZERO MUL OR SWAP1 SSTORE POP JUMP JUMPDEST PUSH0 DUP2 MLOAD SWAP1 POP SWAP2 SWAP1 POP JUMP JUMPDEST PUSH0 DUP3 DUP3 MSTORE PUSH1 0x20 DUP3 ADD SWAP1 POP SWAP3 SWAP2 POP POP JUMP JUMPDEST DUP3 DUP2 DUP4 MCOPY PUSH0 DUP4 DUP4 ADD MSTORE POP POP POP JUMP JUMPDEST PUSH0 PUSH1 0x1F NOT PUSH1 0x1F DUP4 ADD AND SWAP1 POP SWAP2 SWAP1 POP JUMP JUMPDEST PUSH0 PUSH2 0x1DC DUP3 PUSH2 0x19A JUMP JUMPDEST PUSH2 0x1E6 DUP2 DUP6 PUSH2 0x1A4 JUMP JUMPDEST SWAP4 POP PUSH2 0x1F6 DUP2 DUP6 PUSH1 0x20 DUP7 ADD PUSH2 0x1B4 JUMP JUMPDEST PUSH2 0x1FF DUP2 PUSH2 0x1C2 JUMP JUMPDEST DUP5 ADD SWAP2 POP POP SWAP3 SWAP2 POP POP JUMP JUMPDEST PUSH0 PUSH1 0x20 DUP3 ADD SWAP1 POP DUP2 DUP2 SUB PUSH0 DUP4 ADD MSTORE PUSH2 0x222 DUP2 DUP5 PUSH2 0x1D2 JUMP JUMPDEST SWAP1 POP SWAP3 SWAP2 POP POP JUMP INVALID LOG2 PUSH5 0x6970667358 0x22 SLT KECCAK256 RETURNDATASIZE CALLDATACOPY LT MSTORE PUSH6 0x964FECD83F3C 0xD8 DUP13 0xAB 0xFC 0x4E PUSH19 0xDB0A8DA319E93A5D3486E340ABC3BA64736F6C PUSH4 0x4300081A STOP CALLER "
		},
		"gasEstimates": {
			"creation": {
				"codeDepositCost": "121600",
				"executionCost": "infinite",
				"totalCost": "infinite"
			},
			"external": {
				"broke()": "infinite",
				"drive()": "24453",
				"status()": "infinite",
				"stop()": "24386"
			}
		},
		"methodIdentifiers": {
			"broke()": "9e77c5b1",
			"drive()": "a54580f2",
			"status()": "200d2ed2",
			"stop()": "07da68f5"
		}
	},
	"abi": [
		{
			"inputs": [
				{
					"internalType": "uint256",
					"name": "_vin",
					"type": "uint256"
				}
			],
			"stateMutability": "nonpayable",
			"type": "constructor"
		},
		{
			"inputs": [],
			"name": "broke",
			"outputs": [
				{
					"internalType": "string",
					"name": "",
					"type": "string"
				}
			],
			"stateMutability": "pure",
			"type": "function"
		},
		{
			"inputs": [],
			"name": "drive",
			"outputs": [],
			"stateMutability": "nonpayable",
			"type": "function"
		},
		{
			"inputs": [],
			"name": "status",
			"outputs": [
				{
					"internalType": "string",
					"name": "",
					"type": "string"
				}
			],
			"stateMutability": "view",
			"type": "function"
		},
		{
			"inputs": [],
			"name": "stop",
			"outputs": [],
			"stateMutability": "nonpayable",
			"type": "function"
		}
	]
}